:100000000C9434000C9446000C9446000C9446006A
:100010000C9446000C9446000C9446000C94460048
:100020000C9446000C9446000C9446000C94460038
:100030000C9446000C9446000C9446000C94460028
:100040000C9421020C9456030C9446000C94460028
:100050000C9446000C9446000C9446000C94460008
:100060000C9446000C94460011241FBECFEFD8E03C
:10007000DEBFCDBF11E0A0E0B1E001C01D92A9320A
:10008000B107E1F70E9448000C9423060C9400008D
:10009000DF93CF93CDB7DEB7F8940E94A000789499
:1000A0000E945300FDCFDF93CF93CDB7DEB70E9400
:1000B0000C03823031F00E943E02823011F00E9427
:1000C0006400CF91DF910895DF93CF93CDB7DEB772
:1000D00080E090E0A0E0B4E48093040190930501F7
:1000E000A0930601B093070180E00E94DC00DC01D0
:1000F000CB018093000190930101A0930201B09382
:1001000003018091000190910101A0910201B09141
:1001100003012091040130910501409106015091A5
:100120000701BC01CD010E94B50518161CF40E9400
:10013000890202C00E94970280E0CF91DF9108956A
:10014000DF93CF93CDB7DEB7E4E2F0E080E18083C8
:10015000E7E2F0E01082EAE2F0E08CE080830E94C7
:1001600005020E940C010E94BA000E948902CF91F0
:10017000DF910895DF93CF93CDB7DEB7AAE7B0E064
:10018000EAE7F0E0808186688C93AAE7B0E0EAE7CE
:10019000F0E0808180628C93ABE7B0E0EBE7F0E0C9
:1001A00080818C93ACE7B0E0ECE7F0E08081806484
:1001B0008C93CF91DF910895DF93CF930F92CDB7BA
:1001C000DEB78983ACE7B0E0ECE7F0E08081282F70
:1001D000ECE7F0E08081982F907F89818F70892BE8
:1001E000822B8C93AAE7B0E0EAE7F0E0808180649C
:1001F0008C93E8E7F0E080819181CC01A0E0B0E051
:10020000BC01CD010E940305DC01CB01BC01CD0185
:100210000F90CF91DF910895DF93CF93CDB7DEB7E5
:10022000E0EBF0E080EA8083A0EBB0E0E0EBF0E010
:10023000808183608C93E1EBF0E088E08083A1EB28
:10024000B0E0E1EBF0E0808184608C93EFE6F0E0D9
:100250001082E3EBF0E01082E4EBF0E01082CF914B
:10026000DF9108950F931F93DF93CF93CDB7DEB740
:1002700028970FB6F894DEBF0FBECDBF6D837E8387
:100280008F83988760E074E284EF97E42D813E814C
:100290004F8158850E946F04DC01CB0189839A83CA
:1002A000AB83BC8369817A818B819C8120E030E0C3
:1002B00040EA51E40E946B0488232CF4E3EBF0E065
:1002C00084E180831DC069817A818B819C8120E0DB
:1002D00030E04FE753E40E94B50588232CF0E3EBB0
:1002E000F0E08FEF80830CC003EB10E069817A812E
:1002F0008B819C810E94D704DC01CB01F8018083B3
:1003000080E028960FB6F894DEBF0FBECDBFCF9128
:10031000DF911F910F910895CF92DF92EF92FF929C
:100320000F931F93DF93CF9300D000D00F92CDB7E0
:10033000DEB769837A838B839C8369817A818B8121
:100340009C8120E030E040E050E00E946B04882374
:100350001CF48CE28D834AC069817A818B819C81F7
:1003600020E030E048EC52E40E94B50518161CF479
:10037000EDE2ED833BC00F2EF4EBCF2EDD24F02D0C
:10038000E3EBF0E08081882F90E0AA2797FDA0950D
:10039000BA2FBC01CD010E9405057B018C0169814A
:1003A0007A818B819C8120E030E048EC52E40E940D
:1003B0006F04DC01CB019C01AD01C801B7010E94B3
:1003C000B905DC01CB01BC01CD0120E030E040E803
:1003D0005FE30E940604DC01CB01BC01CD010E9459
:1003E000D704DC01CB01F60180831D828D810F9043
:1003F0000F900F900F900F90CF91DF911F910F9161
:10040000FF90EF90DF90CF900895DF93CF93CDB71B
:10041000DEB7E4E4F0E01082E5E4F0E085E080831C
:10042000E6E4F0E082EB8083EEE6F0E081E08083BA
:100430008AE0809309018AE080930A01CF91DF91DD
:1004400008951F920F920FB60F9211248F93EF937E
:10045000FF93DF93CF93CDB7DEB7E6E4F0E082EB16
:10046000808381E080930801CF91DF91FF91EF912C
:100470008F910F900FBE0F901F901895DF93CF9321
:100480000F92CDB7DEB780910801882319F483E07D
:10049000898325C0109208010E947402809109018D
:1004A00081508093090180910901882311F01982FC
:1004B00016C08AE0809309010E947B0280910A01A4
:1004C000815080930A0180910A01882311F01982DA
:1004D00006C08AE080930A010E9482021982898103
:1004E0000F90CF91DF910895DF93CF93CDB7DEB713
:1004F000CF91DF910895DF93CF93CDB7DEB7CF9142
:10050000DF910895DF93CF93CDB7DEB7CF91DF9121
:100510000895DF93CF93CDB7DEB7ABE2B0E0EBE267
:10052000F0E080818B7F8C93CF91DF910895DF93F2
:10053000CF93CDB7DEB7ABE2B0E0EBE2F0E0808185
:1005400084608C93CF91DF910895DF93CF93CDB7E3
:10055000DEB7EBE2F0E08081882319F00E94890287
:1005600002C00E949702CF91DF910895DF93CF934D
:10057000CDB7DEB7CF91DF910895DF93CF9300D051
:1005800000D0CDB7DEB789837B836A8389818051B0
:10059000898389818B3018F088E18C830BC0898135
:1005A000882F90E0FC01E55FFE4F8081EA81FB81AE
:1005B00080831C828C810F900F900F900F90CF91B1
:1005C000DF910895DF93CF9300D00F92CDB7DEB7C0
:1005D00089836A8389818051898389818B3018F06E
:1005E00088E18B8309C08981882F90E0FC01E55F59
:1005F000FE4F8A8180831B828B810F900F900F901A
:10060000CF91DF910895DF93CF93CDB7DEB70E94EE
:100610001403CF91DF910895DF93CF93CDB7DEB769
:1006200083E0CF91DF910895DF93CF93CDB7DEB70D
:10063000A4E6B0E0E4E6F0E0808187608C93A4E279
:10064000B0E0E4E2F0E080818F7E8C93ECE4F0E0B7
:1006500080EC8083ECE4F0E08CE0808389E191E041
:1006600060E070E040E150E00E941C068AE0809368
:100670001C0184E0809321011092220181E080938B
:1006800023011092240181E080932501109226011C
:10069000109227011092280110921A01EEE4F0E066
:1006A00080911A018083CF91DF9108951F920F925C
:1006B0000FB60F9211242F933F934F935F936F9335
:1006C0007F938F939F93AF93BF93EF93FF93DF93AA
:1006D000CF93CDB7DEB7809116018823C9F581E0AD
:1006E00080931601EEE4F0E0808180931701809101
:1006F0001901813029F4EEE4F0E08AE580834AC0F4
:1007000080911701803160F4AEE4B0E08091170170
:10071000882F90E0FC01E75EFE4F80818C933AC009
:100720008091170128E131E0B9010E94BD02809358
:100730001A0180911A01882331F4EEE4F0E08091EF
:100740001801808327C0EEE4F0E085EA808322C0B0
:1007500010921601EEE4F0E0808180931801809100
:1007600019018130B9F480911701803150F48091E2
:10077000170190911801692F0E94DD0380931A01DF
:1007800009C08091170190911801692F0E94E2021F
:1007900080931A01CF91DF91FF91EF91BF91AF91BB
:1007A0009F918F917F916F915F914F913F912F9189
:1007B0000F900FBE0F901F901895DF93CF9300D02E
:1007C0000F92CDB7DEB789836A838981882321F4AC
:1007D0008A818093190112C08981843021F48A8131
:1007E00080931D010BC08981853029F40E94140378
:1007F0000E94B60203C089E18B8301C01B828B81FA
:100800000F900F900F90CF91DF9108955058BB2714
:10081000AA270ED070C161D130F066D120F031F43A
:100820009F3F11F41EF456C10EF4E095E7FB4CC156
:10083000E92F72D180F3BA1762077307840795070F
:1008400018F071F49EF58AC10EF4E0950B2EBA2FC4
:10085000A02D0B01B90190010C01CA01A0011124C6
:10086000FF27591B99F0593F50F4503E68F11A1672
:10087000F040A22F232F342F4427585FF3CF469503
:1008800037952795A795F0405395C9F77EF41F1625
:10089000BA0B620B730B840BBAF09150A1F0FF0FEF
:1008A000BB1F661F771F881FC2F70EC0BA0F621FDB
:1008B000731F841F48F4879577956795B795F795CB
:1008C0009E3F08F0B3CF9395880F08F09927EE0F5D
:1008D000979587950895D4D008F481E008950CD0B9
:1008E0000AC102D140F0F9D030F021F45F3F19F095
:1008F000EBC0511134C1EEC00FD198F39923C9F365
:100900005523B1F3951B550BBB27AA276217730715
:10091000840738F09F5F5F4F220F331F441FAA1FC9
:10092000A9F333D00E2E3AF0E0E830D09150504089
:10093000E695001CCAF729D0FE2F27D0660F771F37
:10094000881FBB1F261737074807AB07B0E809F019
:10095000BB0B802DBF01FF2793585F4F2AF09E3FAE
:10096000510568F0B1C0FBC05F3FECF3983EDCF38B
:10097000869577956795B795F7959F5FC9F7880F27
:10098000911D9695879597F90895E1E0660F771F79
:10099000881FBB1F621773078407BA0720F0621B0A
:1009A000730B840BBA0BEE1F88F7E0950895BCD04B
:1009B00088F09F5790F0B92F9927B751A0F0D1F048
:1009C000660F771F881F991F1AF0BA95C9F712C0D2
:1009D000B13081F0C3D0B1E00895C0C0672F782F47
:1009E0008827B85F39F0B93FCCF38695779567953E
:1009F000B395D9F73EF490958095709561957F4FAA
:100A00008F4F9F4F0895E89409C097FB3EF490954F
:100A10008095709561957F4F8F4F9F4F9923A9F0D7
:100A2000F92F96E9BB279395F69587957795679566
:100A3000B795F111F8CFFAF4BB0F11F460FF1BC0AA
:100A40006F5F7F4F8F4F9F4F16C0882311F096E93D
:100A500011C0772321F09EE8872F762F05C06623EB
:100A600071F096E8862F70E060E02AF09A95660FA4
:100A7000771F881FDAF7880F9695879597F908955D
:100A8000990F0008550FAA0BE0E8FEEF161617069F
:100A9000E807F907C0F012161306E407F50798F007
:100AA000621B730B840B950B39F40A2661F0232B20
:100AB000242B252B21F408950A2609F4A140A6959C
:100AC0008FEF811D811D089597F99F6780E870E081
:100AD00060E008959FEF80EC089500240A941616B4
:100AE000170618060906089500240A94121613061C
:100AF000140605060895092E0394000C11F48823AA
:100B000052F0BB0F40F4BF2B11F460FF04C06F5FC5
:100B10007F4F8F4F9F4F089557FD9058440F551F9B
:100B200059F05F3F71F04795880F97FB991F61F06F
:100B30009F3F79F087950895121613061406551FE6
:100B4000F2CF4695F1DF08C0161617061806991F52
:100B5000F1CF86957105610508940895E894BB2747
:100B600066277727CB0197F908958ADF08F48FEF7E
:100B700008950BD0C0CFB1DF28F0B6DF18F0952371
:100B800009F0A2CFA7CF1124EACFC6DFA0F3959F2B
:100B9000D1F3950F50E0551F629FF001729FBB2764
:100BA000F00DB11D639FAA27F00DB11DAA1F649F10
:100BB0006627B00DA11D661F829F2227B00DA11DC3
:100BC000621F739FB00DA11D621F839FA00D611D49
:100BD000221F749F3327A00D611D231F849F600D6A
:100BE000211D822F762F6A2F11249F5750408AF0A3
:100BF000E1F088234AF0EE0FFF1FBB1F661F771F2F
:100C0000881F91505040A9F79E3F510570F05CCF6E
:100C1000A6CF5F3FECF3983EDCF38695779567951A
:100C2000B795F795E7959F5FC1F7FE2B880F911D4C
:100C30009695879597F90895DC0101C06D93415011
:0A0C40005040E0F70895F894FFCF4C
:00000001FF
