:100000000C9434000C9446000C9446000C9446006A
:100010000C9446000C9446000C9446000C94460048
:100020000C9446000C9446000C9446000C94460038
:100030000C9446000C9446000C9446000C94460028
:100040000C9449070C947B080C9446000C944600D1
:100050000C9446000C9446000C9446000C94460008
:100060000C9446000C94460011241FBECFEFD8E03C
:10007000DEBFCDBF11E0A0E0B1E001C01D92A33909
:10008000B107E1F70E9448000C94480B0C94000063
:10009000DF93CF93CDB7DEB7F8940E942F080E946C
:1000A0005B00789460E070E088E493E40E94820052
:1000B0000E947500FDCFDF93CF93CDB7DEB7E4E2AA
:1000C000F0E080E18083E7E2F0E01082EAE2F0E035
:1000D0008CE080830E942D070E9406060E94C605C0
:1000E0000E94B507CF91DF910895DF93CF93CDB7ED
:1000F000DEB70E943808823011F00E946607CF9167
:10010000DF910895DF93CF9300D000D0CDB7DEB755
:1001100069837A838B839C8380910701823009F401
:100120006EC080910701833009F469C087E091E0D7
:1001300060E070E04EE150E00E94410B89819A81BD
:10014000AB81BC8180930D0190930E01A0930F01B0
:10015000B093100180E090E0A4EBB2E4809315012D
:1001600090931601A0931701B093180180E090E0DE
:10017000A6E9B3E48093190190931A01A0931B019F
:10018000B0931C0180E090E0A0E2B2E480931D01F6
:1001900090931E01A0931F01B093200180E090E096
:1001A000A6E9B3E48093210190932201A093230157
:1001B000B09324010E94D40380910D0190910E010F
:1001C000A0910F01B091100120915C0130915D016F
:1001D00040915E0150915F01BC01CD010E94F4018C
:1001E00060E070E08AE794E40E94380660E070E026
:1001F00080E090E00E94A20682E0809307010F90C9
:100200000F900F900F90CF91DF910895DF93CF93D0
:10021000CDB7DEB70E94E50110920701CF91DF91C3
:100220000895DF93CF9300D000D0CDB7DEB7809193
:100230000701882309F4C2C080910701813009F4C5
:10024000BDC00E9463040E945104843009F0B6C00E
:100250000E942504DC01CB018093090190930A01DF
:10026000A0930B01B0930C0180910D0190910E01B0
:10027000A0910F01B09110012091090130910A0164
:1002800040910B0150910C01BC01CD010E946E0206
:10029000DC01CB0189839A83AB83BC8389819A81FA
:1002A000AB81BC81BC01CD010E94A20680910701F7
:1002B000823009F083C08091110190911201A091C8
:1002C0001301B0911401BC01CD012DEC3CEC4CECC0
:1002D0005DE30E942C09DC01CB0180931101909316
:1002E0001201A0931301B093140180910901909120
:1002F0000A01A0910B01B0910C0120911D013091D8
:100300001E0140911F0150912001BC01CD010E94AE
:1003100090098823FCF48091110190911201A09121
:100320001301B091140120911501309116014091F3
:10033000170150911801BC01CD010E94DA0A18166C
:100340004CF481E08093070181E0809308010E94D2
:10035000E50134C08091090190910A01A0910B013F
:10036000B0910C0120910D0130910E0140910F01CF
:1003700050911001BC01CD010E9490098823F4F432
:100380008091110190911201A0911301B09114017B
:100390002091190130911A0140911B0150911C01CB
:1003A000BC01CD010E94DA0A181644F481E0809362
:1003B000070182E0809308010E94E5010F900F90F1
:1003C0000F900F90CF91DF910895DF93CF93CDB72A
:1003D000DEB785E291E060E070E042E350E00E9429
:1003E000410BCF91DF910895DF93CF93CDB7DEB767
:1003F00028970FB6F894DEBF0FBECDBF69837A830E
:100400008B839C832D833E834F83588785E291E0C5
:1004100060E070E042E350E00E94410B89819A81E4
:10042000AB81BC8180932B0190932C01A0932D0173
:10043000B0932E018DEC9CECACECBDE380933F01BE
:1004400090934001A0934101B09342018DEC9CEC4C
:10045000ACECBDE38093430190934401A09345012C
:10046000B09346018AE097EDA3EABBE3809347018E
:1004700090934801A0934901B0934A018AE097ED17
:10048000A3E2BCE380934B0190934C01A0934D01F8
:10049000B0934E0180E090E0A8ECB2E480934F016D
:1004A00090935001A0935101B093520180E090E0ED
:1004B000A0E0B0E08093530190935401A0935501C4
:1004C000B093560181E08093250128960FB6F894E9
:1004D000DEBF0FBECDBFCF91DF910895EF92FF92A7
:1004E0000F931F93DF93CF93CDB7DEB760970FB60F
:1004F000F894DEBF0FBECDBF6D837E838F83988758
:1005000029873A874B875C8780912501882349F4A6
:1005100080E090E0A0E0B0E08D879E87AF87B88B49
:1005200030C16D817E818F81988529853A854B8583
:100530005C850E942B09DC01CB0180932F019093F5
:100540003001A0933101B093320180912F0190913D
:100550003001A0913101B0913201BF77BC01CD01D2
:100560002AE037ED43E25CE30E94DA0A181674F5DC
:10057000E0903701F09038010091390110913A0173
:1005800080912F0190913001A0913101B091320101
:1005900020913F0130914001409141015091420131
:1005A000BC01CD010E94DE0ADC01CB019C01AD0142
:1005B000C801B7010E942C09DC01CB0180933701EF
:1005C00090933801A0933901B0933A0180912F01A3
:1005D00090913001A0913101B0913201209133010D
:1005E000309134014091350150913601BC01CD016B
:1005F0000E942B09DC01CB0120913F013091400189
:100600004091410150914201BC01CD010E949409E9
:10061000DC01CB0180933B0190933C01A0933D0111
:10062000B0933E018091430190914401A091450116
:10063000B091460120912F0130913001409131015C
:1006400050913201BC01CD010E94DE0ADC01CB01D8
:100650007C018D018091470190914801A091490151
:10066000B0914A0120913701309138014091390110
:1006700050913A01BC01CD010E94DE0ADC01CB01A0
:100680009C01AD01C801B7010E942C09DC01CB011E
:100690007C018D0180914B0190914C01A0914D0105
:1006A000B0914E0120913B0130913C0140913D01C0
:1006B00050913E01BC01CD010E94DE0ADC01CB015C
:1006C0009C01AD01C801B7010E942C09DC01CB01DE
:1006D00089839A83AB83BC8380914F0190915001B1
:1006E000A0915101B0915201BC01CD0129813A8103
:1006F0004B815C810E94900988236CF480914F01AA
:1007000090915001A0915101B091520189839A8337
:10071000AB83BC831EC08091530190915401A09182
:100720005501B0915601BC01CD0129813A814B811F
:100730005C810E94DA0A181664F48091530190914A
:100740005401A0915501B091560189839A83AB83DE
:10075000BC8380912F0190913001A0913101B09123
:1007600032018093330190933401A0933501B0930B
:10077000360189819A81AB81BC818D879E87AF8745
:10078000B88B8D859E85AF85B889BC01CD016096FB
:100790000FB6F894DEBF0FBECDBFCF91DF911F9192
:1007A0000F91FF90EF900895DF93CF93CDB7DEB711
:1007B00087E591E060E070E04DE150E00E94410B80
:1007C00088E08093590183E393E9A8E8B3EC809330
:1007D0005C0190935D01A0935E01B0935F0184E0A2
:1007E00080935B0180E090E0A0EAB1E4809368012F
:1007F00090936901A0936A01B0936B0180E090E04F
:10080000A8ECB3E480936C0190936D01A0936E010A
:10081000B0936F0180E090E0A0EAB0E480937001B3
:1008200090937101A0937201B093730182E0809361
:100830005701CF91DF910895DF93CF93CDB7DEB706
:1008400010925701CF91DF910895DF93CF9300D09D
:1008500000D0CDB7DEB780915701843069F4809124
:100860005C0190915D01A0915E01B0915F0189836F
:100870009A83AB83BC8308C080E098E0ACEAB5E41F
:1008800089839A83AB83BC8389819A81AB81BC8144
:10089000BC01CD010F900F900F900F90CF91DF9181
:1008A0000895DF93CF93CDB7DEB780915701CF91F5
:1008B000DF910895DF93CF93CDB7DEB780915801D4
:1008C000CF91DF910895DF93CF93CDB7DEB710922C
:1008D0005A01CF91DF910895EF92FF920F931F93EA
:1008E000DF93CF9300D000D00F92CDB7DEB78091C9
:1008F0005701882309F4B4C080915701813009F46D
:10090000AFC01D8280915A01882371F480E090E08D
:10091000A0E0B0E08093640190936501A09366012C
:10092000B093670181E08D8380E06D810E943C057A
:10093000DC01CB0189839A83AB83BC8369817A8193
:100940008B819C8120E038E04CEA55E40E94DA0A71
:1009500018163CF481E08093570183E0809358019E
:100960007FC08091640190916501A0916601B09172
:100970006701BC01CD0129813A814B815C810E94D4
:100980002C09DC01CB018093640190936501A09355
:100990006601B093670180915A018F5F80935A017D
:1009A00090915A0180915901981708F459C0E0902C
:1009B0006401F090650100916601109167018091DA
:1009C0005A01882F90E0AA2797FDA095BA2FBC0165
:1009D000CD010E942A0A9B01AC01C801B7010E9407
:1009E0009409DC01CB0180935C0190935D01A0939D
:1009F0005E01B0935F0180915C0190915D01A091D7
:100A00005E01B0915F01BC01CD0120E030E048EC17
:100A100053E40E94DA0A18163CF482E080935701EE
:100A200082E0809358011CC080915C0190915D012F
:100A3000A0915E01B0915F01BC01CD0120E030E0EA
:100A400040EA50E40E94900988233CF482E08093BD
:100A5000570181E08093580103C084E080935701DF
:100A60000F900F900F900F900F90CF91DF911F91EB
:100A70000F91FF90EF900895DF93CF93CDB7DEB73E
:100A80002B970FB6F894DEBF0FBECDBF8E836F835A
:100A900080E494E4A5E0B3E48A839B83AC83BD83C4
:100AA0008F818130A9F48A819B81AC81BD81809343
:100AB000600190936101A0936201B09363018A8108
:100AC0009B81AC81BD8188879987AA87BB874FC0EE
:100AD00080915B0189833FC0209160013091610169
:100AE00040916201509163016A817B818C819D817B
:100AF0000E942B09DC01CB01BF7720916801309166
:100B0000690140916A0150916B01BC01CD010E94C5
:100B100090098823ACF48A819B81AC81BD8180934C
:100B2000600190936101A0936201B09363018A8197
:100B30009B81AC81BD8188879987AA87BB8717C0B5
:100B400080E494E4A5E0B3E48A839B83AC83BD8313
:100B50008981815089838981882309F0BDCF80E014
:100B600090E4ACE1B6E488879987AA87BB8788853B
:100B70009985AA85BB85BC01CD012B960FB6F8944B
:100B8000DEBF0FBECDBFCF91DF910895DF93CF932E
:100B9000CDB7DEB7ECE7F0E080E48083EAE7F0E091
:100BA00086E88083CF91DF910895DF93CF9300D0C3
:100BB000CDB7DEB78983ACE7B0E0ECE7F0E0808149
:100BC000807F8C93ACE7B0E0ECE7F0E08081982F79
:100BD00089818F70892B8C93AAE7B0E0EAE7F0E077
:100BE000808180648C93EAE7F0E08081AAE7B0E03E
:100BF000EAE7F0E0808180618C93E8E7F0E08081B3
:100C000091810F900F90CF91DF910895DF93CF9353
:100C1000CDB7DEB7E0EBF0E080EF8083A0EBB0E093
:100C2000E0EBF0E0808183608C93E1EBF0E088E022
:100C30008083A1EBB0E0E1EBF0E0808184608C93F5
:100C4000EFE6F0E01082E3EBF0E01082E4EBF0E09E
:100C5000108280E090E0A0E0B0E0809303019093E8
:100C60000401A0930501B0930601CF91DF9108958F
:100C70000F931F93DF93CF9300D000D0CDB7DEB793
:100C800069837A838B839C8360E074E284EF97E4CA
:100C900029813A814B815C810E949409DC01CB015E
:100CA0008093030190930401A0930501B093060182
:100CB0008091030190910401A0910501B09106017A
:100CC000BC01CD0120E030E040EA51E40E949009EF
:100CD00088232CF4E3EBF0E084E1808329C0809149
:100CE000030190910401A0910501B0910601BC019E
:100CF000CD0120E030E04FE753E40E94DA0A882378
:100D00002CF0E3EBF0E08FEF808312C003EB10E0F8
:100D10008091030190910401A0910501B091060119
:100D2000BC01CD010E94FC09DC01CB01F8018083EC
:100D300080E00F900F900F900F90CF91DF911F9157
:100D40000F910895CF92DF92EF92FF920F931F932E
:100D5000DF93CF9300D000D0CDB7DEB769837A831D
:100D60008B839C8369817A818B819C8120E030E038
:100D700040E050E00E94900918162CF0E4EBF0E0FF
:100D80008FEF80834AC069817A818B819C8120E0CA
:100D900030E048EC52E40E94DA0A181624F4E4EB3E
:100DA000F0E010823AC00F2EF4EBCF2EDD24F02DB0
:100DB000E3EBF0E08081882F90E0AA2797FDA095D3
:100DC000BA2FBC01CD010E942A0A7B018C016981E6
:100DD0007A818B819C8120E030E048EC52EC0E94CB
:100DE0009409DC01CB01BC01CD0120E030E040E8FA
:100DF0005FE30E942C09DC01CB019C01AD01C8011D
:100E0000B7010E94DE0ADC01CB01BC01CD010E94CA
:100E1000FC09DC01CB01F601808303EB10E080913B
:100E2000030190910401A0910501B0910601BC015C
:100E3000CD010E94FC09DC01CB01F801808380E038
:100E40000F900F900F900F90CF91DF911F910F9106
:100E5000FF90EF90DF90CF900895DF93CF93CDB7C1
:100E6000DEB7E4E4F0E01082E5E4F0E085E08083C2
:100E7000E6E4F0E082EB8083EEE6F0E081E0808360
:100E80008AE0809301018AE080930201CF91DF9193
:100E900008951F920F920FB60F9211248F93EF9324
:100EA000FF93DF93CF93CDB7DEB7E6E4F0E082EBBC
:100EB000808381E080930001CF91DF91FF91EF91DA
:100EC0008F910F900FBE0F901F901895DF93CF93C7
:100ED0000F92CDB7DEB780910001882319F483E02B
:100EE000898325C0109200010E949C078091010116
:100EF00081508093010180910101882311F01982B2
:100F000016C08AE0809301010E94A507809102012A
:100F100081508093020180910201882311F019828F
:100F200006C08AE0809302010E94AE07198289817F
:100F30000F90CF91DF910895DF93CF93CDB7DEB7B8
:100F40000E946C04CF91DF910895DF93CF93CDB7CA
:100F5000DEB70E941101CF91DF910895DF93CF9307
:100F6000CDB7DEB7CF91DF910895DF93CF93CDB7A3
:100F7000DEB7ABE2B0E0EBE2F0E080818B7F8C93F8
:100F8000CF91DF910895DF93CF93CDB7DEB7ABE27A
:100F9000B0E0EBE2F0E0808184608C93CF91DF9150
:100FA0000895DF93CF93CDB7DEB7EBE2F0E0808119
:100FB000882319F00E94B50702C00E94C307CF9191
:100FC000DF910895DF93CF93CDB7DEB7CF91DF9157
:100FD0000895DF93CF9300D000D0CDB7DEB78983DB
:100FE0007B836A8389818051898389818B3018F062
:100FF00088E18C830BC08981882F90E0FC01EC583C
:10100000FE4F8081EA81FB8180831C828C810F905E
:101010000F900F900F90CF91DF910895DF93CF93B2
:1010200000D00F92CDB7DEB789836A838981805162
:10103000898389818B3018F088E18B8309C089818D
:10104000882F90E0FC01EC58FE4F8A8180831B8240
:101050008B810F900F900F90CF91DF910895DF93C8
:10106000CF93CDB7DEB70E944008CF91DF910895AE
:10107000DF93CF93CDB7DEB783E0CF91DF910895B3
:10108000DF93CF93CDB7DEB7A4E2B0E0E4E2F0E0C7
:1010900080818F7E8C93ECE4F0E080EC8083ECE444
:1010A000F0E08CE0808383E891E060E070E040E174
:1010B00050E00E94410B8AE08093860184E0809397
:1010C0008B0110928C0181E080938D0110928E0132
:1010D00081E080938F011092900110929101109203
:1010E000920110928401EEE4F0E08091840180830B
:1010F000CF91DF9108951F920F920FB60F92112496
:101100002F933F934F935F936F937F938F939F930F
:10111000AF93BF93EF93FF93DF93CF93CDB7DEB73A
:1011200080917F018823C9F581E080937F01EEE4FF
:10113000F0E080818093800180918301813029F4E7
:10114000EEE4F0E08AE580834AC08091800180313E
:1011500060F4AEE4B0E080918001882F90E0FC0163
:10116000ED57FE4F80818C933AC08091800121E839
:1011700031E0B9010E94E9078093840180918401E4
:10118000882331F4EEE4F0E080918101808327C070
:10119000EEE4F0E085EA808322C010927F01EEE465
:1011A000F0E0808180938101809183018130B9F4E6
:1011B00080918001803150F4809180019091810173
:1011C000692F0E9402098093840109C080918001E7
:1011D00090918101692F0E940E0880938401CF9124
:1011E000DF91FF91EF91BF91AF919F918F917F918F
:1011F0006F915F914F913F912F910F900FBE0F9084
:101200001F901895DF93CF9300D00F92CDB7DEB724
:1012100089836A838981882321F48A818093830169
:1012200012C08981843021F48A81809387010BC0A8
:101230008981853029F40E9440080E94E20703C09A
:1012400089E18B8301C01B828B810F900F900F90DF
:10125000CF91DF9108955058BB27AA270ED070C1B7
:1012600061D130F066D120F031F49F3F11F41EF4CB
:1012700056C10EF4E095E7FB4CC1E92F72D180F323
:10128000BA17620773078407950718F071F49EF583
:101290008AC10EF4E0950B2EBA2FA02D0B01B901D7
:1012A00090010C01CA01A0011124FF27591B99F0DC
:1012B000593F50F4503E68F11A16F040A22F232FE8
:1012C000342F4427585FF3CF469537952795A79538
:1012D000F0405395C9F77EF41F16BA0B620B730BDF
:1012E000840BBAF09150A1F0FF0FBB1F661F771F50
:1012F000881FC2F70EC0BA0F621F731F841F48F405
:10130000879577956795B795F7959E3F08F0B3CF8A
:101310009395880F08F09927EE0F97958795089574
:10132000D4D008F481E008950CD00AC102D140F075
:10133000F9D030F021F45F3F19F0EBC0511134C106
:10134000EEC00FD198F39923C9F35523B1F3951B40
:10135000550BBB27AA2762177307840738F09F5FD6
:101360005F4F220F331F441FAA1FA9F333D00E2E45
:101370003AF0E0E830D091505040E695001CCAF7B2
:1013800029D0FE2F27D0660F771F881FBB1F261777
:1013900037074807AB07B0E809F0BB0B802DBF014A
:1013A000FF2793585F4F2AF09E3F510568F0B1C068
:1013B000FBC05F3FECF3983EDCF38695779567952D
:1013C000B795F7959F5FC9F7880F911D96958795FB
:1013D00097F90895E1E0660F771F881FBB1F62171A
:1013E00073078407BA0720F0621B730B840BBA0BD8
:1013F000EE1F88F7E0950895BCD088F09F5790F0D5
:10140000B92F9927B751A0F0D1F0660F771F881F29
:10141000991F1AF0BA95C9F712C0B13081F0C3D044
:10142000B1E00895C0C0672F782F8827B85F39F0E2
:10143000B93FCCF3869577956795B395D9F73EF488
:1014400090958095709561957F4F8F4F9F4F089530
:10145000E89409C097FB3EF490958095709561954E
:101460007F4F8F4F9F4F9923A9F0F92F96E9BB2704
:101470009395F695879577956795B795F111F8CF80
:10148000FAF4BB0F11F460FF1BC06F5F7F4F8F4FEB
:101490009F4F16C0882311F096E911C0772321F0E1
:1014A0009EE8872F762F05C0662371F096E8862F79
:1014B00070E060E02AF09A95660F771F881FDAF7D0
:1014C000880F9695879597F90895990F0008550FFD
:1014D000AA0BE0E8FEEF16161706E807F907C0F0BA
:1014E00012161306E407F50798F0621B730B840BC2
:1014F000950B39F40A2661F0232B242B252B21F49C
:1015000008950A2609F4A140A6958FEF811D811D3B
:10151000089597F99F6780E870E060E008959FEF75
:1015200080EC089500240A9416161706180609067A
:10153000089500240A941216130614060506089549
:10154000092E0394000C11F4882352F0BB0F40F4D1
:10155000BF2B11F460FF04C06F5F7F4F8F4F9F4F11
:10156000089557FD9058440F551F59F05F3F71F093
:101570004795880F97FB991F61F09F3F79F08795FA
:101580000895121613061406551FF2CF4695F1DF83
:1015900008C0161617061806991FF1CF8695710513
:1015A000610508940895E894BB2766277727CB0147
:1015B00097F908958ADF08F48FEF08950BD0C0CF14
:1015C000B1DF28F0B6DF18F0952309F0A2CFA7CF3E
:1015D0001124EACFC6DFA0F3959FD1F3950F50E019
:1015E000551F629FF001729FBB27F00DB11D639FD5
:1015F000AA27F00DB11DAA1F649F6627B00DA11D7B
:10160000661F829F2227B00DA11D621F739FB00D20
:10161000A11D621F839FA00D611D221F749F332790
:10162000A00D611D231F849F600D211D822F762F29
:101630006A2F11249F5750408AF0E1F088234AF026
:10164000EE0FFF1FBB1F661F771F881F9150504072
:10165000A9F79E3F510570F05CCFA6CF5F3FECF33A
:10166000983EDCF3869577956795B795F795E7955E
:101670009F5FC1F7FE2B880F911D9695879597F96F
:101680000895DC0101C06D9341505040E0F708958A
:04169000F894FFCFFC
:00000001FF
