:100000000C9420010C9441010C9441010C94410189
:100010000C9441010C9441010C9441010C94410158
:100020000C9441010C9441010C9441010C94410148
:100030000C9441010C9441010C9441010C94410138
:100040000C9441010C9441010C9441010C94410128
:100050000C9441010C9441010C9441010C94410118
:100060000C9441010C9419030C9441010C9441012E
:100070000C9441010C9441010C9441010C944101F8
:100080000C9441010C9441010C9441010C944101E8
:100090000C9441010C9441010C9441010C944101D8
:1000A0000C9441010C9441010C9441010C944101C8
:1000B0000C9441010C9441010C9441010C944101B8
:1000C0000C9441010C9441010C9441010C944101A8
:1000D0000C9441010C9441010C9441010C94410198
:1000E0000C9441010C9441010C9441010C94410188
:1000F0000C9441010C9441010C9441010C94410178
:100100000C9441010C9441010C9441010C94410167
:100110000C9441010C9441010C9441010C94410157
:100120000C9441010C9441010C9441010C94410147
:100130000C9441010C9441010C9441010C94410137
:100140000C9441010C9441010C9441010C94410127
:100150000C9441010C9441010C9441010C94410117
:100160000C9441010C9441010C9441010C94410107
:100170000C9441010C9441010C9441010C944101F7
:100180000C9441010C9441010C9441010C944101E7
:100190000C9441010C9441010C9441010C944101D7
:1001A0000C9441010C9441010C9441010C944101C7
:1001B0000C9441010C9441010C9441010C944101B7
:1001C0000C9441010C9441010C9441010C944101A7
:1001D0000C9441010C9441010C9441010C94410197
:1001E0000C9441010C944101526561642045727286
:1001F0006F720D0A00456E74657220636F6D6D61DC
:100200006E643A20000D0A00302E30340054696EBE
:100210007947205B54455354204D4F44455D202D74
:100220002056657273696F6E200000CF67332221FC
:100230001F1B1301010000000000F0E0D0C01001FE
:1002400011241FBECFEFDFE5DEBFCDBF00E00CBF46
:1002500010E2A0E0B0E2EAEDFEE000E00BBF02C079
:1002600007900D92A433B107D9F710E2A4E3B0E2EE
:1002700001C01D92A935B107E1F70E9443010C941A
:100280006B070C940000CF92DF92EF92FF920F93D6
:100290001F93DF93CF93CDB7DEB76497CDBFDEBF9B
:1002A000F8940E94C2010E94DD030E94CD01E0EAA1
:1002B000F0E08091A200826082838091A20084603D
:1002C000828378940F920F928DE092E0EDB7FEB7A3
:1002D000818392830E94A80488E092E0EDB7FEB784
:1002E000818392830E94A80485E092E0EDB7FEB777
:1002F000818392830E94A8040F900F9095EFC92EDE
:1003000091E0D92E8E010F5F1F4F88EEE82E81E01D
:10031000F82E0F920F92EDB7FEB7C182D2820E94E3
:10032000A8040F900F904091532050915420C80181
:1003300063E170E00E943804892B51F40F920F9210
:10034000EDB7FEB7E182F2820E94A8040F900F90F1
:100350000F920F92EDB7FEB7018312830E949604AD
:100360000F900F90D6CF88ED84BF82E0809350002D
:100370008091510081FFFCCF88ED84BF81E08093A4
:10038000400008950E94B3010895E0EAF0E0828100
:10039000806498ED94BF82830895E0EAF0E0828162
:1003A0008F7B98ED94BF828308959B01AC01E62F6B
:1003B000EF7087E190E5809334209093352032FFF1
:1003C00006C087E190E5809334209093352033FF79
:1003D00006C083E190E5809334209093352034FF6C
:1003E00009C0809134209091352080618093342021
:1003F0009093352035FF09C08091342090913520AD
:100400008F7E809334209093352036FF09C08091F1
:100410003420909135208062809334209093352051
:10042000DA01C901807090780097A105B10549F003
:1004300080913420909135208F7D8093342090934B
:10044000352024FF09C080913420909135208064AC
:10045000809334209093352025FF09C0809134206B
:10046000909135208F7B809334209093352026FF08
:1004700009C0809134209091352080688093342089
:100480009093352027FF09C080913420909135202A
:100490008F77809334209093352081E080933720AC
:1004A00080933620809339208093382080EA98E02A
:1004B00080934F209093502080E496E080935120C9
:1004C00090935220EE2309F4E5E08E2F90E0FC019A
:1004D000E65DFD4FE491A0EAB8E01696EC9316971E
:1004E0008B5C9D4FFC01849117968C93179788E144
:1004F00014968C93149780E213968C93E0E4F6E0C4
:1005000084E0828388E08183858381E0828382E046
:100510008183858308959B01AC01E62FEF7099F0EC
:10052000A0914F20B09150208E2F90E0FC01E65D0D
:10053000FD4FE4911696EC9316978B5C9D4FFC0152
:10054000849117968C9332FF09C08091342090914A
:1005500035208460809334209093352033FF09C088
:1005600080913420909135208B7F8093342090931C
:10057000352034FF09C0809134209091352080616E
:10058000809334209093352035FF09C0809134202A
:10059000909135208F7E809334209093352036FFC4
:1005A00009C080913420909135208062809334205E
:1005B00090933520DA01C901807090780097A105E9
:1005C000B10549F080913420909135208F7D809342
:1005D00034209093352024FF09C0809134209091DD
:1005E00035208064809334209093352025FF09C006
:1005F00080913420909135208F7B8093342090938C
:10060000352026FF09C080913420909135208068E4
:10061000809334209093352027FF09C080913420A7
:10062000909135208F77809334209093352080E00F
:1006300008951F920F920FB60F920BB60F921124CE
:100640008F939F93AF93BF93EF93FF938091372046
:1006500081508093372080913720882319F481E1DD
:10066000809337209091372080913620981761F041
:10067000E0913720F0E0A0914F20B09150208C9174
:10068000EC5CFF4D86830CC0809137208F5F809398
:10069000372080913720823118F081E08093372015
:1006A000FF91EF91BF91AF919F918F910F900BBEF2
:1006B0000F900FBE0F901F901895982FE0914F202C
:1006C000F0915020818185FFFDCF9083809134206F
:1006D00085FF04C09A3011F49DE0F0CF80E090E0F7
:1006E00008951F9390913620209134203091352029
:1006F000A9014470507011C04115510519F42FEF34
:100700003FEF32C080914800816080934800889517
:10071000809148008E7F8093480080913720891710
:1007200059F3892F815080933620882319F481E171
:1007300080933620E0913620F0E0EC5CFF4D16818E
:1007400026FF07C01D3021F027FF03C01B3309F42B
:100750001AE024FF07C06091552070915620812F28
:100760000E945D03212F30E0C9011F910895EF928F
:10077000FF920F931F93CF93DF938C017B01C0E017
:10078000D0E007C02196CE15DF0519F400E010E097
:100790000CC080915320909154200E94F603F801E0
:1007A000EC0FFD1F80838A3069F7C801DF91CF917C
:1007B0001F910F91FF90EF90089565E470E080E045
:1007C00090E00E94D50165E270E26093532070933F
:1007D0005420609355207093562060935720709357
:1007E000582080E090E20E946B040895CF93DF933D
:1007F000EC014B8140FF1AC046FF0AC04F7B4B8380
:100800008E819F8101968E839F838A81282F2BC0A2
:1008100042FF13C0E881F9818081282F332727FD0B
:1008200030952115310529F440624B832FEF3FEFBE
:100830001BC03196E883F98311C0EA85FB85CE01A0
:1008400019959C0197FF0AC09B812F5F3F4F11F0C4
:1008500080E201C080E1892B8B83E8CF8E819F816C
:1008600001968E839F8330E0C901DF91CF91089577
:10087000CF92DF92EF92FF920F931F93CF93DF936C
:100880007C016A01FA01838180FF19C016161706E0
:10089000B4F4EB01219787010DC0C6010E94F60355
:1008A000FFEF8F3F9F0759F0F80181938F010A975F
:1008B00019F02197209789F7F801108202C0EE24E1
:1008C000FF24C701DF91CF911F910F91FF90EF900F
:1008D000DF90CF900895EF92FF920F931F93CF93E5
:1008E000DF937C018B01DB0113968C9181FD03C0AA
:1008F000CFEFDFEF13C0C0E0D0E00BC0D8011896F7
:10090000ED91FC911997B8011995892B11F0CFEF52
:10091000DFEFF70181917F01882381F7CE01DF911D
:10092000CF911F910F91FF90EF900895DF93CF9398
:10093000CDB7DEB7FE013696619171918091552059
:1009400090915620AF010E94CB04CF91DF91089582
:10095000DF93CF93CDB7DEB7FE01369661917191EB
:10096000A0915520B091562013968C9113978860D2
:1009700013968C938091552090915620AF010E9440
:10098000CB04E0915520F09156202381277F2383CB
:10099000CF91DF9108952F923F924F925F926F9285
:1009A0007F928F929F92AF92BF92CF92DF92EF92FF
:1009B000FF920F931F93DF93CF93CDB7DEB72B97A3
:1009C000CDBFDEBF3C012B015A01FC01168217820C
:1009D000838181FD03C06FEF7FEFC6C19AE0892E4E
:1009E0001E010894211C311CF3012381F20123FD17
:1009F000859123FF81912F01882309F4B2C18532AB
:100A000039F423FD859123FF81912F01853229F44B
:100A100090E0B3010E94E106E7CF982FFF24EE2477
:100A20009924FFE1FF15D0F09B3269F09C3228F445
:100A3000903259F0933291F40EC09D3249F09033C8
:100A400069F441E024C052E0F52A84E0F82A28C085
:100A500098E0F92A25C0E0E1FE2A22C0F7FC29C06F
:100A6000892F80538A3070F4F6FE05C0989C902C34
:100A70001124980E15C0E89CE02C1124E80EF0E239
:100A8000FF2A0EC09E3229F4F6FC6BC140E4F42A22
:100A900007C09C3619F450E8F52A02C0983649F48C
:100AA000F20123FD959123FF91912F01992309F0E4
:100AB000B8CF892F8554833018F08052833038F4B2
:100AC00044E050E0A40EB51E5FE359830FC0933697
:100AD00031F0933779F0933509F056C020C0F50115
:100AE0008081898342E050E0A40EB51E610101E0DF
:100AF00010E012C0F501C080D180F6FC03C06FEF9A
:100B00007FEF02C0692D70E042E050E0A40EB51EF8
:100B1000C6010E94D6068C015FE7F52214C0F501DC
:100B2000C080D180F6FC03C06FEF7FEF02C0692D5B
:100B300070E042E050E0A40EB51EC6010E94CB0654
:100B40008C0150E8F52AF3FE07C01AC080E290E05D
:100B5000B3010E94E106EA948E2D90E00817190770
:100B6000A8F30EC0F601F7FC8591F7FE81916F01A5
:100B700090E0B3010E94E106E110EA9401501040B8
:100B80000115110579F7EAC0943611F0993669F527
:100B9000F7FE08C0F501208131814281538184E054
:100BA00090E00AC0F501808191819C01442737FDC6
:100BB0004095542F82E090E0A80EB91E9FE6F922DE
:100BC00057FF09C050954095309521953F4F4F4FA5
:100BD0005F4FE0E8FE2ACA01B901A1012AE030E036
:100BE0000E940D07D82ED21840C0953729F41F2D2A
:100BF0001F7E2AE030E01DC01F2D197F9F3661F057
:100C0000903720F4983509F0ACC00FC0903739F018
:100C1000983709F0A6C004C028E030E00AC010618F
:100C200014FD146020E130E004C014FD166020E1E2
:100C300032E017FF08C0F5016081718182819381E4
:100C400044E050E008C0F50180819181BC0180E062
:100C500090E042E050E0A40EB51EA1010E940D07F5
:100C6000D82ED2188FE7F82EF122F6FE0BC05EEFD9
:100C7000F522D91438F4F4FE07C0F2FC05C08FEE5B
:100C8000F82202C01D2D01C0192DF4FE0DC0FE0179
:100C9000ED0DF11D8081803319F499EEF92208C021
:100CA0001F5FF2FE05C003C08F2D867809F01F5F1D
:100CB0000F2DF3FC14C0F0FE0FC01E1510F09D2C7C
:100CC0000BC09D2C9E0C911A1E2D06C080E290E058
:100CD000B3010E94E1061F5F1E15C0F304C01E157C
:100CE00010F4E11A01C0EE2404FF0FC080E390E08D
:100CF000B3010E94E10602FF1DC001FD03C088E7A9
:100D000090E00EC088E590E00BC0802F867891F0CF
:100D100001FF02C08BE201C080E2F7FC8DE290E0AF
:100D2000B3010E94E10606C080E390E0B3010E9497
:100D3000E1069A94D914C0F3DA94F101ED0DF11D96
:100D4000808190E0B3010E94E106DD20A9F706C092
:100D500080E290E0B3010E94E106EA94EE20C1F740
:100D600043CEF30166817781CB012B96CDBFDEBFE9
:100D7000CF91DF911F910F91FF90EF90DF90CF9077
:100D8000BF90AF909F908F907F906F905F904F90AB
:100D90003F902F900895FC01059061507040011024
:100DA000D8F7809590958E0F9F1F0895FC01615094
:100DB000704001900110D8F7809590958E0F9F1F7D
:100DC00008950F931F93CF93DF938C01EB018B81D9
:100DD00081FF1BC082FF0DC02E813F818C819D81D0
:100DE0002817390764F4E881F9810193E883F983CE
:100DF00006C0E885F985802F1995892B31F48E81FD
:100E00009F8101968E839F8302C00FEF1FEFC80161
:100E1000DF91CF911F910F910895FA01AA272830F1
:100E200051F1203181F1E8946F936E7F6E5F7F4FB7
:100E30008F4F9F4FAF4FB1E03ED0B4E03CD0670F33
:100E4000781F891F9A1FA11D680F791F8A1F911D86
:100E5000A11D6A0F711D811D911DA11D20D009F4D6
:100E600068943F912AE0269F11243019305D319318
:100E7000DEF6CF010895462F4770405D4193B3E001
:100E80000FD0C9F7F6CF462F4F70405D4A3318F0A8
:100E9000495D31FD4052419302D0A9F7EACFB4E059
:100EA000A6959795879577956795BA95C9F7009711
:100EB0006105710508959B01AC010A2E06945795B2
:100EC000479537952795BA95C9F7620F731F841F09
:0A0ED000951FA01D0895F894FFCFB0
:100EDA000D0A0D0A586D65676120494F20737562C6
:100EEA0073797374656D20696E697469616C697A66
:100EFA0065640D0A0000000003000000005D037134
:040F0A0003000000E0
:00000001FF
