:100000000C94173B0C94383B0C94383B0C94383BC5
:100010000C94383B0C94383B0C94383B0C94383B94
:100020000C94383B0C94383B0C94383B0C9444D8DB
:100030000C94383B0C94383B0C94EACC0C94383B31
:100040000C94383B0C94383B0C94383B0C94383B64
:100050000C94383B0C94383B0C94383B0C94383B54
:100060000C94383B0C94FEDD0C94A8DD0C94383BCA
:100070000C947DE60C9405E60C944DE60C94383B0C
:100080000C9496D80C94383B0C94383B0C94383B29
:100090000C94383B0C94383B0C94383B0C94383B14
:1000A0000C94383B0C94383B0C94383B0C94719076
:1000B0000C9435910C94383B0C94383B0C942DCF18
:1000C0000C94383B0C94383B0C94383B0C94383BE4
:1000D0000C94383B0C94383B0C94383B0C94383BD4
:1000E0000C941BF00C94383B0C94383B0C94383B2C
:1000F0000C94383B0C94383B0C94383B0C94383BB4
:100100000C9440900C9404910C940F900C94D39008
:100110000C94383B0C94383B0C94383B0C94383B93
:100120000C94383B0C94383B0C94383B0C94383B83
:100130000C94383B0C94DBCE0C94383B0C94383B3D
:100140000C94383B0C94383B0C94383B0C94383B63
:100150000C94383B0C94383B0C940BF00C94383BCB
:100160000C94383B0C94383B0C94383B0C94383B43
:100170000C94383B0C94383B0C94383B0C94383B33
:100180000C94383B0C94383B0C94383B0C94383B23
:100190000C94383B0C94383B0C94383B0C94383B13
:1001A0000C94A2900C9466910C94383B0C94383BC0
:1001B0000C9460CF0C94383B0C94383B0C94383B37
:1001C0000C94383B0C94383B0C94383B0C94383BE3
:1001D0000C94383B0C94383B0C94383B0C94383BD3
:1001E0000C94383B0C94383B084AD73B3BCE016E0D
:1001F00084BCBFFDC12F3D6C74319ABD56833DDA7E
:100200003D00C77F11BED9E4BB4C3E916BAAAABE8C
:10021000000000803F05A84CCDB2D44EB93836A9B5
:10022000020C50B9918688083CA6AAAA2ABE0000F2
:1002300000803F07634236B79BD8A71A3968561823
:10024000AEBAAB558C1D3CB7CC5763BD6DEDFD759B
:100250003EF6177231BF000000803F08000000BE6C
:10026000922449123EABAAAA2ABECDCCCC4C3E0069
:10027000000080BEABAAAAAA3E00000000BF00009A
:1002800000803F0000000000084178D3BB4387D1C5
:10029000133D190E3CC3BD4282AD2B3E68EC827605
:1002A000BED98FE1A93E4C80EFFFBE01C4FF7F3F66
:1002B00000000000006E616E00696E660020696ECD
:1002C00000206D6D002064656700BD02C102C5029B
:1002D000473230202D20696E63686573206D6F642E
:1002E0006500473231202D206D696C6C696D657435
:1002F0006572206D6F646500D002E202496E697418
:1003000069616C697A696E67005265736574005340
:10031000746F7000456E640052756E00486F6C64B7
:100320000050726F6265004379636C6500486F6DC1
:10033000696E67004A6F6700FC0209030F0314032C
:1003400018031C03210327032D033403496E69742A
:1003500069616C697A696E67005265736574004300
:1003600079636C650053746F7000456E64004C03D4
:1003700059035F0365036A034F6666005374617235
:1003800074656400486F6D696E670050726F6265D6
:100390000078037C0384038B0353746F70005275E1
:1003A0006E00486F6C640099039E03A2034F66665B
:1003B0000053796E6300506C616E00446563656C38
:1003C00000486F6C6400AD03B103B603BB03C10307
:1003D0004E6F7420486F6D656400486F6D656400F2
:1003E000D003DA0330003936303000313932303062
:1003F0000033383430300035373630300031313565
:100400003230300032333034303000E403E603EB76
:1004100003F103F703FD03040444697361626C652F
:1004200064004E4F20686F6D696E67004E4F206804
:100430006F6D696E672026206C696D6974004E438C
:1004400020686F6D696E67004E4320686F6D696E3E
:10045000672026206C696D697400190422042C043D
:100460003E044804473533202D206D616368696E72
:100470006520636F6F7264696E6174652073797350
:1004800074656D00473534202D20636F6F72646989
:100490006E6174652073797374656D203100473522
:1004A00035202D20636F6F7264696E6174652073EF
:1004B000797374656D203200473536202D20636FC7
:1004C0006F7264696E6174652073797374656D20F1
:1004D0003300473537202D20636F6F7264696E617A
:1004E00074652073797374656D2034004735382046
:1004F0002D20636F6F7264696E6174652073797308
:1005000074656D203500473539202D20636F6F727B
:1005100064696E6174652073797374656D2036004B
:10052000640484049E04B804D204EC040605473035
:1005300020202D206C696E65617220747261766571
:1005400072736520287365656B2900473120202D63
:10055000206C696E656172206665656400473220B3
:10056000202D20636C6F636B776973652061726304
:10057000206665656400473320202D20636F756E0B
:1005800074657220636C6F636B7769736520617249
:1005900063206665656400473830202D2063616EF6
:1005A00063656C206D6F74696F6E206D6F6465207C
:1005B000286E6F6E652061637469766529002E056B
:1005C0004B055D0576059705473137202D20585995
:1005D00020706C616E6500473138202D20585A20FC
:1005E000706C616E6500473139202D20595A20709A
:1005F0006C616E6500C805D705E605473631202DCC
:100600002065786163742073746F70206D6F64650A
:10061000004736312E31202D2065786163742070BB
:10062000617468206D6F646500473634202D206347
:100630006F6E74696E756F7573206D6F646500FB06
:1006400005FB052906473930202D206162736F6C48
:100650007574652064697374616E6365206D6F6481
:100660006500473931202D20696E6372656D656EB6
:1006700074616C2064697374616E6365206D6F646E
:10068000650045066206473934202D20756E697471
:10069000732D7065722D6D696E757465206D6F6454
:1006A000652028692E652E20666565647261746513
:1006B000206D6F64652900473933202D20696E76DF
:1006C000657273652074696D65206D6F6465008661
:1006D00006B7065B64697361626C65645D005B7399
:1006E00074616E646172645D005B696E6869626901
:1006F0007465645D005B7261646975735D005B7352
:100700006C61766520585D005B736C61766520597D
:100710005D005B736C617665205A5D005B736C6194
:1007200076652058595D005B736C61766520585A78
:100730005D005B736C61766520595A5D005B736C7C
:100740006176652058595A5D00D306DE06E906F544
:1007500006FE06080712071C07270732073D076633
:10076000762C5B66765D20206669726D77617265B6
:100770005F76657273696F6E2531362E32660A00B8
:1007800066622C5B66625D20206669726D776172BD
:10079000655F6275696C642531382E32660A0069BE
:1007A000642C5B69645D202069645F6465766963BD
:1007B00065253136640A0076656C2C56656C6F636E
:1007C0006974793A2531372E336625532F6D696E5A
:1007D0000A006C696E652C4C696E65206E756D62E1
:1007E00065723A2531302E30660A00666565642CE4
:1007F0004665656420726174653A2531362E33662C
:1008000025532F6D696E0A00737461742C4D6163FA
:1008100068696E652073746174653A202020202019
:10082000202025730A006D6163732C526177206D5F
:10083000616368696E652073746174653A20202075
:1008400025730A00637963732C4379636C652073A5
:10085000746174653A2020202020202020202573F8
:100860000A006D6F74732C4D6F74696F6E20737412
:100870006174653A202020202020202025730A0062
:10088000686F6C642C46656564686F6C6420737473
:100890006174653A20202020202025730A00686FAB
:1008A0006D652C486F6D696E672073746174653A6D
:1008B000202020202020202025730A00756E6974D6
:1008C0002C556E6974733A2020202020202020208F
:1008D00020202020202025730A00636F6F722C4394
:1008E0006F6F7264696E6174652073797374656D7E
:1008F0003A20202025730A006D6F6D6F2C4D6F74A8
:10090000696F6E206D6F64653A20202020202020C2
:10091000202025730A00706C616E2C506C616E652E
:100920003A202020202020202020202020202020AD
:1009300025730A00706174682C50617468204D6FD3
:1009400064653A20202020202020202020202573AC
:100950000A00646973742C44697374616E63652062
:100960006D6F64653A2020202020202025730A0026
:1009700066726D6F2C466565642072617465206DCA
:100980006F64653A20202020202025730A00706FB4
:1009900073782C5820706F736974696F6E3A2531C3
:1009A000352E336625530A00706F73792C592070E9
:1009B0006F736974696F6E3A2531352E336625532E
:1009C0000A00706F737A2C5A20706F736974696FA4
:1009D0006E3A2531352E336625530A00706F7361E8
:1009E0002C4120706F736974696F6E3A2531352E12
:1009F000336625530A00706F73622C4220706F7348
:100A00006974696F6E3A2531352E336625530A00B5
:100A1000706F73632C4320706F736974696F6E3AE3
:100A20002531352E336625530A006D706F782C58AA
:100A3000206D61636820706F736974696F6E3A2509
:100A400031302E336625530A006D706F792C592092
:100A50006D61636820706F736974696F6E3A2531D8
:100A6000302E336625530A006D706F7A2C5A206D34
:100A700061636820706F736974696F6E3A253130F5
:100A80002E336625530A006D706F612C41206D6115
:100A9000636820706F736974696F6E3A2531302E08
:100AA000336625530A006D706F622C42206D6163BE
:100AB0006820706F736974696F6E3A2531302E3318
:100AC0006625530A006D706F632C43206D61636867
:100AD00020706F736974696F6E3A2531302E3366FA
:100AE00025530A00673932782C58206F726967697C
:100AF0006E206F66667365743A2531302E33662535
:100B0000530A00673932792C59206F726967696E10
:100B1000206F66667365743A2531302E336625532F
:100B20000A006739327A2C5A206F726967696E2021
:100B30006F66667365743A2531302E336625530A25
:100B400000673932612C41206F726967696E206FCE
:100B500066667365743A2531302E336625530A0074
:100B6000673932622C42206F726967696E206F6646
:100B7000667365743A2531302E336625530A006753
:100B80003932632C43206F726967696E206F666625
:100B90007365743A2531302E336625530A006C781C
:100BA0002C4C696E6520696E6465783A2531336432
:100BB0000A0070622C506C616E6E65722062756600
:100BC000666572733A2538640A0072782C0068658D
:100BD0006C702C00746573742C00646566612C0065
:100BE0006D73672C25730A0073722C0071722C00D0
:100BF00067706C2C5B67706C5D2067636F64655F0A
:100C000073656C6563745F706C616E65202531304F
:100C100064205B302C312C325D0A0067756E2C5BD2
:100C200067756E5D2067636F64655F756E69747369
:100C30005F6D6F646520202025313064205B302C8F
:100C4000315D0A0067636F2C5B67636F5D206763CC
:100C50006F64655F636F6F72645F73797374656DE2
:100C60002025313064205B312D365D0A00677061CC
:100C70002C5B6770615D2067636F64655F70617492
:100C8000685F636F6E74726F6C2025313064205B17
:100C9000302C312C325D0A006764692C5B67646913
:100CA0005D2067636F64655F64697374616E63651B
:100CB0005F6D6F646525313064205B302C315D0AD7
:100CC0000067632C5B67635D006A612C5B6A615D32
:100CD00020206A756E6374696F6E5F616363656C13
:100CE00065726174696F6E25382E306625530A006F
:100CF0006D6C2C5B6D6C5D20206D696E5F6C696E38
:100D0000655F7365676D656E742531372E336625B3
:100D1000530A006D612C5B6D615D20206D696E5F13
:100D20006172635F7365676D656E742531382E334C
:100D30006625530A006D742C5B6D745D20206D690F
:100D40006E5F7365676D656E745F74696D6525317F
:100D5000332E306620755365630A0073742C5B7301
:100D6000745D20207377697463685F74797065259A
:100D7000313864205B302C315D0A0073692C5B7361
:100D8000695D20207374617475735F696E74657238
:100D900076616C202020202531302E3066206D7346
:100DA000205B303D6F66665D0A0069632C5B69639A
:100DB0005D202069676E6F7265204352206F72203C
:100DC0004C46206F6E20525820253764205B302C13
:100DD000313D43522C323D4C465D0A0065652C5B2B
:100DE00065655D2020656E61626C655F6563686F37
:100DF00020202020202025313264205B302C315DE2
:100E00000A0065782C5B65785D2020656E61626CF8
:100E1000655F786F6E5F786F66662020253132647B
:100E2000205B302C315D0A0065712C5B65715D20A3
:100E300020656E61626C655F71756575655F726571
:100E4000706F727473253964205B302C315D0A0039
:100E5000656A2C5B656A5D2020656E61626C655F0A
:100E60006A736F6E5F6D6F64652025313264205B3D
:100E7000302C315D0A006A652C5B6A655D20206A52
:100E8000736F6E5F6563686F5F6D6F64652025319A
:100E90003464205B302D345D0A00626175642C5B24
:100EA000626175645D2055534220626175642072F1
:100EB00061746525313564205B302D365D0A003163
:100EC0006D612C5B316D615D206D315F6D61705FB7
:100ED000746F5F6178697325313564205B303D58EC
:100EE0002C20313D592E2E2E5D0A003173612C5B72
:100EF0003173615D206D315F737465705F616E6722
:100F00006C652532302E336625530A003174722CFD
:100F10005B3174725D206D315F74726176656C5FF8
:100F20007065725F7265766F6C7574696F6E253966
:100F30002E336625530A00316D692C5B316D695D76
:100F4000206D315F6D6963726F73746570732025F6
:100F5000313564205B312C322C342C385D0A003161
:100F6000706F2C5B31706F5D206D315F706F6C61E5
:100F70007269747920202025313564205B302C3152
:100F80005D0A0031706D2C5B31706D5D206D315FDD
:100F9000706F7765725F6D616E6167656D656E74A8
:100FA00025313064205B302C315D0A00326D612CBC
:100FB0005B326D615D206D325F6D61705F746F5F7C
:100FC0006178697325313564205B303D582C2031C0
:100FD0003D592E2E2E5D0A003273612C5B327361F7
:100FE0005D206D325F737465705F616E676C65253F
:100FF00032302E336625530A003274722C5B327401
:10100000725D206D325F74726176656C5F706572BF
:101010005F7265766F6C7574696F6E25392E3366F5
:1010200025530A00326D692C5B326D695D206D328B
:101030005F6D6963726F73746570732025313564F9
:10104000205B312C322C342C385D0A0032706F2C2E
:101050005B32706F5D206D325F706F6C61726974AE
:101060007920202025313564205B302C315D0A0049
:1010700032706D2C5B32706D5D206D325F706F77FA
:1010800065725F6D616E6167656D656E7425313087
:1010900064205B302C315D0A00336D612C5B336D55
:1010A000615D206D335F6D61705F746F5F61786942
:1010B0007325313564205B303D582C20313D592E4D
:1010C0002E2E5D0A003373612C5B3373615D206DDE
:1010D000335F737465705F616E676C652532302EA7
:1010E000336625530A003374722C5B3374725D20AF
:1010F0006D335F74726176656C5F7065725F726587
:10110000766F6C7574696F6E25392E336625530AB8
:1011100000336D692C5B336D695D206D335F6D69E4
:1011200063726F73746570732025313564205B3191
:101130002C322C342C385D0A0033706F2C5B3370EA
:101140006F5D206D335F706F6C6172697479202000
:101150002025313564205B302C315D0A0033706D01
:101160002C5B33706D5D206D335F706F7765725FE0
:101170006D616E6167656D656E7425313064205BED
:10118000302C315D0A00346D612C5B346D615D2063
:101190006D345F6D61705F746F5F61786973253165
:1011A0003564205B303D582C20313D592E2E2E5D6C
:1011B0000A003473612C5B3473615D206D345F739E
:1011C0007465705F616E676C652532302E336625FD
:1011D000530A003474722C5B3474725D206D345F7A
:1011E00074726176656C5F7065725F7265766F6C44
:1011F0007574696F6E25392E336625530A00346D78
:10120000692C5B346D695D206D345F6D6963726F4D
:1012100073746570732025313564205B312C322C5A
:10122000342C385D0A0034706F2C5B34706F5D2095
:101230006D345F706F6C6172697479202020253184
:101240003564205B302C315D0A0034706D2C5B34CA
:10125000706D5D206D345F706F7765725F6D616E6C
:101260006167656D656E7425313064205B302C31AB
:101270005D0A0078616D2C5B78616D5D20785F613F
:101280007869735F6D6F6465253138642025530A72
:10129000007866722C5B7866725D20785F666565A3
:1012A00064726174655F6D6178696D756D25313546
:1012B0002E336625532F6D696E0A0078766D2C5B90
:1012C00078766D5D20785F76656C6F636974795FA1
:1012D0006D6178696D756D2531352E336625532F17
:1012E0006D696E0A0078746D2C5B78746D5D207882
:1012F0005F74726176656C5F6D6178696D756D257F
:1013000031372E336625530A00786A6D2C5B786A74
:101310006D5D20785F6A65726B5F6D6178696D7570
:101320006D2531352E306625532F6D696E5E330A7B
:1013300000786A642C5B786A645D20785F6A756EF9
:101340006374696F6E5F646576696174696F6E2539
:1013500031342E3466255320286C61726765722003
:10136000697320666173746572290A0078736E2C44
:101370005B78736E5D20785F7377697463685F6D07
:10138000696E25313764205B302D345D0A00787337
:10139000782C5B7873785D20785F73776974636805
:1013A0005F6D617825313764205B302D345D0A0034
:1013B0007873762C5B7873765D20785F73656172E5
:1013C00063685F76656C6F636974792531362E3397
:1013D0006625532F6D696E0A00786C762C5B786CED
:1013E000765D20785F6C617463685F76656C6F63AF
:1013F0006974792531372E336625532F6D696E0A4E
:1014000000786C622C5B786C625D20785F6C617434
:1014100063685F6261636B6F66662531382E336681
:1014200025530A00787A622C5B787A625D20785FB7
:101430007A65726F5F6261636B6F66662531392E04
:10144000336625530A0079616D2C5B79616D5D20EF
:10145000795F617869735F6D6F64652531386420E9
:1014600025530A007966722C5B7966725D20795F7C
:1014700066656564726174655F6D6178696D756DCF
:101480002531352E336625532F6D696E0A00797626
:101490006D2C5B79766D5D20795F76656C6F636925
:1014A00074795F6D6178696D756D2531352E3366A0
:1014B00025532F6D696E0A0079746D2C5B79746DFC
:1014C0005D20795F74726176656C5F6D6178696DBE
:1014D000756D2531372E336625530A00796A6D2CD8
:1014E0005B796A6D5D20795F6A65726B5F6D6178AB
:1014F000696D756D2531352E306625532F6D696EFA
:101500005E330A00796A642C5B796A645D20795FD6
:101510006A756E6374696F6E5F646576696174691C
:101520006F6E2531342E3466255320286C61726726
:10153000657220697320666173746572290A007987
:10154000736E2C5B79736E5D20795F73776974635A
:10155000685F6D696E25313764205B302D345D0A1C
:10156000007973782C5B7973785D20795F73776984
:101570007463685F6D617825313764205B302D348A
:101580005D0A007973762C5B7973765D20795F73E1
:1015900065617263685F76656C6F63697479253124
:1015A000362E336625532F6D696E0A00796C762CC2
:1015B0005B796C765D20795F6C617463685F7665DA
:1015C0006C6F636974792531372E336625532F6D1F
:1015D000696E0A00796C622C5B796C625D20795FC0
:1015E0006C617463685F6261636B6F666625313836
:1015F0002E336625530A00797A622C5B797A625D14
:1016000020795F7A65726F5F6261636B6F666625D2
:1016100031392E336625530A007A616D2C5B7A616D
:101620006D5D207A5F617869735F6D6F64652531E8
:1016300038642025530A007A66722C5B7A66725DE4
:10164000207A5F66656564726174655F6D61786953
:101650006D756D2531352E336625532F6D696E0AF4
:10166000007A766D2C5B7A766D5D207A5F76656C9C
:101670006F636974795F6D6178696D756D2531355A
:101680002E336625532F6D696E0A007A746D2C5BBC
:101690007A746D5D207A5F74726176656C5F6D61DE
:1016A00078696D756D2531372E336625530A007ABA
:1016B0006A6D2C5B7A6A6D5D207A5F6A65726B5F1A
:1016C0006D6178696D756D2531352E306625532F26
:1016D0006D696E5E330A007A6A642C5B7A6A645DB7
:1016E000207A5F6A756E6374696F6E5F6465766990
:1016F0006174696F6E2531342E3466255320286C51
:1017000061726765722069732066617374657229FE
:101710000A007A736E2C5B7A736E5D207A5F737742
:10172000697463685F6D696E25313764205B302DA5
:10173000345D0A007A73782C5B7A73785D207A5F67
:101740007377697463685F6D617825313764205BF6
:10175000302D345D0A007A73762C5B7A73765D20C7
:101760007A5F7365617263685F76656C6F636974D5
:10177000792531362E336625532F6D696E0A007A2E
:101780006C762C5B7A6C765D207A5F6C6174636832
:101790005F76656C6F636974792531372E33662502
:1017A000532F6D696E0A007A6C622C5B7A6C625DF5
:1017B000207A5F6C617463685F6261636B6F6666F9
:1017C0002531382E336625530A007A7A622C5B7AEB
:1017D0007A625D207A5F7A65726F5F6261636B6FB8
:1017E00066662531392E336625530A0061616D2CFA
:1017F0005B61616D5D20615F617869735F6D6F64CE
:1018000065253138642025530A006166722C5B61BE
:1018100066725D20615F66656564726174655F6DA7
:101820006178696D756D2531352E336625532F6DC1
:10183000696E0A0061766D2C5B61766D5D20615F7B
:1018400076656C6F636974795F6D6178696D756DCC
:101850002531352E336625532F6D696E0A0061746C
:101860006D2C5B61746D5D20615F74726176656C77
:101870005F6D6178696D756D20202531352E336679
:1018800025530A00616A6D2C5B616A6D5D20615FA2
:101890006A65726B5F6D6178696D756D2531352E86
:1018A000306625532F6D696E5E330A00616A642CC1
:1018B0005B616A645D20615F6A756E6374696F6EF7
:1018C0005F646576696174696F6E2531342E3466A4
:1018D00025530A006172612C5B6172615D20615F5A
:1018E0007261646975735F76616C75652532302E3F
:1018F000346625530A0061736E2C5B61736E5D2044
:10190000615F7377697463685F6D696E25313764F1
:10191000205B302D345D0A006173782C5B61737835
:101920005D20615F7377697463685F6D61782531ED
:101930003764205B302D345D0A006173762C5B6167
:1019400073765D20615F7365617263685F76656C55
:101950006F636974792531362E336625532F6D698F
:101960006E0A00616C762C5B616C765D20615F6C49
:10197000617463685F76656C6F636974792531376C
:101980002E336625532F6D696E0A00616C622C5BE5
:10199000616C625D20615F6C617463685F6261634A
:1019A0006B6F66662531382E336625530A00617ADF
:1019B000622C5B617A625D20615F7A65726F5F6243
:1019C00061636B6F66662531392E336625530A00D5
:1019D00062616D2C5B62616D5D20625F617869732D
:1019E0005F6D6F6465253138642025530A00626697
:1019F000722C5B6266725D20625F6665656472610F
:101A000074655F6D6178696D756D2531352E33664E
:101A100025532F6D696E0A0062766D2C5B62766DC0
:101A20005D20625F76656C6F636974795F6D617864
:101A3000696D756D2531352E336625532F6D696EB1
:101A40000A0062746D2C5B62746D5D20625F74725B
:101A50006176656C5F6D6178696D756D2531372EC6
:101A6000336625530A00626A6D2C5B626A6D5D20E5
:101A7000625F6A65726B5F6D6178696D756D253146
:101A8000352E306625532F6D696E5E330A00626A0B
:101A9000642C5B626A645D20625F6A756E63746960
:101AA0006F6E5F646576696174696F6E2531342E7F
:101AB000346625530A006272612C5B6272615D209C
:101AC000625F7261646975735F76616C75652532FA
:101AD000302E346625530A0062736E2C5B62736E7F
:101AE0005D20625F7377697463685F6D696E25312D
:101AF0003764205B302D345D0A006273782C5B62A2
:101B000073785D20625F7377697463685F6D617875
:101B100025313764205B302D345D0A006273762CEA
:101B20005B6273765D20625F7365617263685F7686
:101B3000656C6F636974792531362E336625532FB2
:101B40006D696E0A00626C762C5B626C765D206259
:101B50005F6C617463685F76656C6F636974792527
:101B600031372E336625532F6D696E0A00626C6221
:101B70002C5B626C625D20625F6C617463685F62A3
:101B800061636B6F66662531382E336625530A0014
:101B9000627A622C5B627A625D20625F7A65726F44
:101BA0005F6261636B6F66662531392E336625533C
:101BB0000A0063616D2C5B63616D5D20635F61781A
:101BC00069735F6D6F6465253138642025530A00A1
:101BD0006366722C5B6366725D20635F6665656435
:101BE000726174655F6D6178696D756D2531352E33
:101BF000336625532F6D696E0A0063766D2C5B6327
:101C0000766D5D20635F76656C6F636974795F6D77
:101C10006178696D756D2531352E336625532F6DCD
:101C2000696E0A0063746D2C5B63746D5D20635F85
:101C300074726176656C5F6D6178696D756D253163
:101C4000372E336625530A00636A6D2C5B636A6D19
:101C50005D20635F6A65726B5F6D6178696D756D3C
:101C60002531352E306625532F6D696E5E330A009F
:101C7000636A642C5B636A645D20635F6A756E638C
:101C800074696F6E5F646576696174696F6E253122
:101C9000342E346625530A006372612C5B637261D3
:101CA0005D20635F7261646975735F76616C7565F1
:101CB0002532302E346625530A0063736E2C5B6325
:101CC000736E5D20635F7377697463685F6D696EBF
:101CD00025313764205B302D345D0A006373782C26
:101CE0005B6373785D20635F7377697463685F6DAE
:101CF000617825313764205B302D345D0A006373D1
:101D0000762C5B6373765D20635F736561726368D5
:101D10005F76656C6F636974792531362E3366257D
:101D2000532F6D696E0A00636C762C5B636C765D75
:101D300020635F6C617463685F76656C6F63697460
:101D4000792531372E336625532F6D696E0A00636E
:101D50006C622C5B636C625D20635F6C61746368B2
:101D60005F6261636B6F66662531382E336625537B
:101D70000A00637A622C5B637A625D20635F7A6536
:101D8000726F5F6261636B6F66662531392E3366F1
:101D900025530A0070776D662C5B70776D665D2049
:101DA00070776D5F6672657175656E63792020204E
:101DB0002531352E3366487A0A007033736C2C5BFC
:101DC0007033736C5D2070776D5F63775F737065E0
:101DD00065645F6C6F202531352E336652504D0A95
:101DE00000703373682C5B703373685D2070776D9F
:101DF0005F63775F73706565645F6869202531355F
:101E00002E336652504D0A007033706C2C5B703369
:101E1000706C5D2070776D5F63775F70686173656C
:101E20005F6C6F202531332E3366205B302E2E31D0
:101E30005D0A00703370682C5B703370685D2070D1
:101E4000776D5F63775F70686173655F6869202590
:101E500031332E3366205B302E2E315D0A00703414
:101E6000736C2C5B7034736C5D2070776D5F636393
:101E7000775F73706565645F6C6F2531352E3366EF
:101E800052504D0A00703473682C5B703473685D77
:101E90002070776D5F6363775F73706565645F68FB
:101EA000692531352E336652504D0A007034706CFE
:101EB0002C5B7034706C5D2070776D5F6363775F4F
:101EC00070686173655F6C6F2531332E3366205BFC
:101ED000302E2E315D0A00703470682C5B703470C7
:101EE000685D2070776D5F6363775F7068617365AD
:101EF0005F68692531332E3366205B302E2E315DCD
:101F00000A0070356F662C5B70356F665D207077E8
:101F10006D5F70686173655F6F6666202020253194
:101F2000332E3366205B302E2E315D0A0067353448
:101F3000782C5B673534785D206735345F785F6F68
:101F400066667365742532302E336625530A006742
:101F50003534792C5B673534795D206735345F79AA
:101F60005F6F66667365742532302E336625530ABB
:101F7000006735347A2C5B6735347A5D20673534F9
:101F80005F7A5F6F66667365742532302E3366251F
:101F9000530A00673534612C5B673534615D206717
:101FA00035345F615F6F66667365742532302E333A
:101FB0006625530A00673534622C5B673534625DF1
:101FC000206735345F625F6F6666736574253230F3
:101FD0002E336625530A00673534632C5B6735342E
:101FE000635D206735345F635F6F66667365742574
:101FF00032302E336625530A00673535782C5B67FF
:102000003535785D206735355F785F6F6666736557
:10201000742532302E336625530A00673535792C06
:102020005B673535795D206735355F795F6F66664B
:102030007365742532302E336625530A00673535B3
:102040007A2C5B6735357A5D206735355F7A5F6F4F
:1020500066667365742532302E336625530A006731
:102060003535612C5B673535615D206735355F61DE
:102070005F6F66667365742532302E336625530AAA
:1020800000673535622C5B673535625D2067353515
:102090005F625F6F66667365742532302E33662526
:1020A000530A00673535632C5B673535635D206700
:1020B00035355F635F6F66667365742532302E3326
:1020C0006625530A00673536782C5B673536785DB0
:1020D000206735365F785F6F6666736574253230CA
:1020E0002E336625530A00673536792C5B67353603
:1020F000795D206735365F795F6F66667365742535
:1021000032302E336625530A006735367A2C5B67EA
:1021100035367A5D206735365F7A5F6F6666736540
:10212000742532302E336625530A00673536612C0C
:102130005B673536615D206735365F615F6F666668
:102140007365742532302E336625530A00673536A1
:10215000622C5B673536625D206735365F625F6F84
:1021600066667365742532302E336625530A006720
:102170003536632C5B673536635D206735365F63C4
:102180005F6F66667365742532302E336625530A99
:1021900000673537782C5B673537785D20673537D2
:1021A0005F785F6F66667365742532302E336625FF
:1021B000530A00673537792C5B673537795D2067BF
:1021C00035375F795F6F66667365742532302E33FD
:1021D0006625530A006735377A2C5B6735377A5D99
:1021E000206735375F7A5F6F6666736574253230B6
:1021F0002E336625530A00673537612C5B67353708
:10220000615D206735375F615F6F66667365742552
:1022100032302E336625530A00673537622C5B67F0
:102220003537625D206735375F625F6F666673655D
:10223000742532302E336625530A00673537632CF8
:102240005B673537635D206735375F635F6F666651
:102250007365742532302E336625530A006735388E
:10226000782C5B673538785D206735385F785F6F2D
:1022700066667365742532302E336625530A00670F
:102280003538792C5B673538795D206735385F796B
:102290005F6F66667365742532302E336625530A88
:1022A000006735387A2C5B6735387A5D20673538BA
:1022B0005F7A5F6F66667365742532302E336625EC
:1022C000530A00673538612C5B673538615D2067DC
:1022D00035385F615F6F66667365742532302E3303
:1022E0006625530A00673538622C5B673538625DB6
:1022F000206735385F625F6F6666736574253230BC
:102300002E336625530A00673538632C5B673538F2
:10231000635D206735385F635F6F6666736574253C
:1023200032302E336625530A00673539782C5B67C7
:102330003539785D206735395F785F6F666673651C
:10234000742532302E336625530A00673539792CCF
:102350005B673539795D206735395F795F6F666610
:102360007365742532302E336625530A006735397C
:102370007A2C5B6735397A5D206735395F7A5F6F14
:1023800066667365742532302E336625530A0067FE
:102390003539612C5B673539615D206735395F619F
:1023A0005F6F66667365742532302E336625530A77
:1023B00000673539622C5B673539625D20673539D6
:1023C0005F625F6F66667365742532302E336625F3
:1023D000530A00673539632C5B673539635D2067C5
:1023E00035395F635F6F66667365742532302E33EF
:1023F0006625530A00737230302C00737230312C12
:1024000000737230322C00737230332C00737230D0
:10241000342C00737230352C00737230362C0073FC
:102420007230372C00737230382C00737230392CB4
:1024300000737231302C00737231312C00737231A1
:10244000322C00737231332C00737231342C0073D0
:102450007231352C00737231362C00737231372C87
:1024600000737231382C00737231392C00312C001A
:10247000322C00332C00342C00782C00792C007A7C
:102480002C00612C00622C00632C006735342C007A
:102490006735352C006735362C006735372C0067DB
:1024A00035382C006735392C006739322C007379A8
:1024B000732C00732C00706F732C006D706F2C00E8
:1024C0006D2C006E2C006F2C00242C00682C0073E7
:1024D00079730066620000008007836E096D0C6BE3
:1024E000B731D703AF437379730066760000005F9E
:1024F00007836E096D0C6BB3313333733F7379739C
:102500000069640000009F07256EDD5D0C6BBB3128
:1025100000000000737200006C696E6500D2072530
:102520006ECB60616BDF30000000007372000066EC
:1025300065656400EB07D76E486D0C6BBB3100001E
:1025400000007372000073746174000808816D5F8D
:102550005F0C6BBB3100000000737200006D6163A3
:1025600073002608816D7B5F0C6BBB31000000009F
:102570007372000063796373004408816D975F0C88
:102580006BBB3100000000737200006D6F7473004C
:102590006208816DB35F0C6BBB3100000000737289
:1025A0000000686F6C64008008816DCF5F0C6BBBAE
:1025B000310000000073720000686F6D65009E08B6
:1025C000816DEB5F0C6BBB3100000000737200008B
:1025D00076656C0000B707D76E25610C6BBB3100C8
:1025E00000000073720000756E697400BC08816D94
:1025F00007600C6BBB310000000073720000636F5A
:102600006F7200DA08816D23600C6BBB3100000033
:1026100000737200006D6F6D6F00F808816D3F6090
:102620000C6BBB310000000073720000706C616EB7
:10263000001609816D5B600C6BBB310000000073FC
:1026400072000070617468003409816D77600C6BF2
:10265000BB310000000073720000646973740052A3
:1026600009816D93600C6BBB310000000073720038
:102670000066726D6F007009816DAF600C6BBB31CD
:102680000000000073720000706F7378008E099F65
:10269000615B610C6BBB3100000000737200007065
:1026A0006F737900A8099F615B610C6BBB310000FF
:1026B000000073720000706F737A00C2099F615B43
:1026C000610C6BBB310000000073720000706F730F
:1026D0006100DC099F615B610C6BBB310000000095
:1026E00073720000706F736200F6099F615B610C8A
:1026F0006BBB310000000073720000706F736300E9
:10270000100A9F615B610C6BBB31000000007372AB
:1027100000006D706F78002A0A9F617D610C6BBBB1
:102720003100000000737200006D706F7900490A7B
:102730009F617D610C6BBB31000000007372000073
:102740006D706F7A00680A9F617D610C6BBB310010
:10275000000000737200006D706F6100870A9F6156
:102760007D610C6BBB3100000000737200006D7066
:102770006F6200A60A9F617D610C6BBB3100000097
:1027800000737200006D706F6300C50A9F617D6108
:102790000C6BBB31000000007372000067393278A7
:1027A00000E40AD76E486D0C6B1331000000007313
:1027B0007200006739327900030BD76E486D0C6BDD
:1027C000173100000000737200006739327A00226E
:1027D0000BD76E486D0C6B1B31000000007372004C
:1027E000006739326100410B4E6F096D0C6B1F3170
:1027F00000000000737200006739326200600B4E07
:102800006F096D0C6B2331000000007372000067CC
:10281000393263007F0B4E6F096D0C6B273100005E
:102820000000717200006C780000009E0B256EE7BE
:10283000600361BB31000000007172000070620033
:102840000000B20B256ECC5E0C6BBB3100000000AB
:10285000727074007372000000E80BFB5DEB5D0AA0
:102860005EBB3100000000727074007172000000E5
:10287000EC0B746DBC5E0C6BBB3100000000727021
:1028800074007278000000CA0B256EF05E0C6BBB02
:102890003100000000636D64007465737400D40B34
:1028A00072947E6C1BD6BF31000000007270740001
:1028B00068656C7000CE0B22946C6C0C6BBB3100A5
:1028C000000000636D64006465666100DA0BAB9420
:1028D0006C6C8D67BB31000000006E756C006D7311
:1028E000670000E00B816D6C6C0C6BBB310000006D
:1028F000007379730067706C0000F00BCB6D7E6C19
:102900001A6B3734000000007379730067756E002E
:10291000001B0CCB6D7E6C1A6B38340000803F734B
:1029200079730067636F0000440CCB6D7E6C1A6B8B
:1029300036340000803F7379730067706100006D6A
:102940000CCB6D7E6C1A6B393400000040737973C8
:10295000006764690000980CCB6D7E6C1A6B3A348A
:1029600000000000636D64006763000000C10C7428
:102970006D1B623762BB3100000000737973006A1F
:1029800061000000C90CD76E486DEB6B313400500C
:102990004348737973006D6C000000F00CD76E48EB
:1029A0006DEB6B25340AD7A33D737973006D61001D
:1029B0000000130DD76E486DEB6B2934CDCCCC3DA8
:1029C000737973006D74000000350DD76E096DAB1F
:1029D0006B2D3400409C45737973007374000000C4
:1029E0005B0DCB6D7E6CBC63A73E0000803F7379AE
:1029F00073006963000000AA0DCB6D7E6CCB653B54
:102A00003400000000737973006565000000DC0D80
:102A1000CB6D7E6C0C663D34000000007379730052
:102A20006578000000020ECB6D7E6C37663E340088
:102A300000803F737973006571000000280ECB6D34
:102A40007E6C1A6B3F340000000073797300656A76
:102A5000000000500ECB6D7E6C1A6B41340000807C
:102A60003F737973006A65000000760ECB6D7E6C53
:102A70001A6B4034000040407379730073690000A2
:102A8000007B0D836EC46C705E4434000048437359
:102A900079730062617564009A0ECB6D7E6C62661C
:102AA00042340000A04031000000316D610000BFE1
:102AB0000ECB6D7E6C1A6B183500000000310000E3
:102AC000003173610000EB0E4E6F096DD0631C3551
:102AD0006666E63F3100000031667200000C0FD7D9
:102AE0006E486DE6632035F6281242310000003151
:102AF0006D690000370FCB6D7E6CFC6319350000EB
:102B000000413100000031706F00005F0FCB6D7E1F
:102B10006CDA641A35000000003100000031706D7D
:102B20000000830FCB6D7E6C1A6B1B350000803F5D
:102B300032000000326D610000AC0FCB6D7E6C1A6C
:102B40006B28350000803F320000003273610000C6
:102B5000D80F4E6F096DD0632C356666E63F3200A4
:102B600000003274720000F90FD76E486DE66330D2
:102B700035F628124232000000326D690000241040
:102B8000CB6D7E6CFC6329350000004132000000F3
:102B900032706F00004C10CB6D7E6CDA642A350009
:102BA00000803F3200000032706D00007010CB6D6D
:102BB0007E6C1A6B2B350000803F33000000336DB4
:102BC0006100009910CB6D7E6C1A6B3835000000E7
:102BD00040330000003373610000C5104E6F096D73
:102BE000D0633C356666E63F330000003374720004
:102BF00000E610D76E486DE66340350000A03F3315
:102C0000000000336D6900001111CB6D7E6CFC6318
:102C10003935000000413300000033706F00003987
:102C200011CB6D7E6CDA643A350000000033000091
:102C30000033706D00005D11CB6D7E6C1A6B3B35FF
:102C40000000803F34000000346D6100008611CB2D
:102C50006D7E6C1A6B483500004040340000003433
:102C600073610000B2114E6F096DD0634C3566661A
:102C7000E63F340000003474720000D311D76E4870
:102C80006DE66350350000344334000000346D6954
:102C90000000FE11CB6D7E6CFC63493500000041E5
:102CA0003400000034706F00002612CB6D7E6CDAA9
:102CB000644A35000000003400000034706D0000EC
:102CC0004A12CB6D7E6C1A6B4B350000803F78004A
:102CD000000078616D00007312356356628062589F
:102CE000350000803F7800000078766D0000BB1250
:102CF000D76E486DEB6B5D3500007A4678000000BA
:102D000078667200009112D76E486DEB6B593500F2
:102D1000007A467800000078746D0000E512D76EE6
:102D2000486DEB6B613500005C4378000000786A09
:102D30006D00000913D76E486DEB6B6535F9029590
:102D40004F78000000786A6400003113D76E486D38
:102D5000EB6B69350AD7233C7800000078736E006E
:102D6000006C13CB6D7E6CBC63B23E0000004078FB
:102D700000000078737800008E13CB6D7E6CBC630E
:102D8000B33E00004040780000007873760000B049
:102D900013D76E486DEB6B713500803BC578000032
:102DA00000786C760000D913D76E486DEB6B7535E3
:102DB0000000C84278000000786C6200000114D75F
:102DC0006E486DEB6B79350000A04078000000780C
:102DD0007A6200002414D76E486DEB6B7D350000DD
:102DE00040407900000079616D000046143563565B
:102DF00062806281350000803F7900000079766D45
:102E000000008E14D76E486DEB6B863500007A4655
:102E10007900000079667200006414D76E486DEB8B
:102E20006B823500007A467900000079746D0000ED
:102E3000B814D76E486DEB6B8A3500005C4379009F
:102E40000000796A6D0000DC14D76E486DEB6B8E64
:102E500035F902954F79000000796A640000041585
:102E6000D76E486DEB6B92350AD7233C7900000092
:102E700079736E00003F15CB6D7E6CBC63B43E0071
:102E80000000407900000079737800006115CB6D77
:102E90007E6CBC63B53E0000404079000000797351
:102EA0007600008315D76E486DEB6B9A3500803B3A
:102EB000C579000000796C760000AC15D76E486DBE
:102EC000EB6B9E350000C84279000000796C62000F
:102ED00000D415D76E486DEB6BA235000020417908
:102EE000000000797A620000F715D76E486DEB6B31
:102EF000A635000040407A0000007A616D0000199C
:102F000016356356628062AA350000803F7A000061
:102F1000007A766D00006116D76E486DEB6BAF35A9
:102F2000000096447A0000007A667200003716D7D7
:102F30006E486DEB6BAB35000096447A0000007A6A
:102F4000746D00008B16D76E486DEB6BB3350000C7
:102F5000C8427A0000007A6A6D0000AF16D76E484A
:102F60006DEB6BB73520BC3E4C7A0000007A6A648A
:102F70000000D716D76E486DEB6BBB350AD7233CE4
:102F80007A0000007A736E00001217CB6D7E6CBC65
:102F900063B63E000000007A0000007A73780000FB
:102FA0003417CB6D7E6CBC63B73E000000407A00E6
:102FB00000007A737600005617D76E486DEB6BC32E
:102FC0003500007A447A0000007A6C7600007F17A2
:102FD000D76E486DEB6BC7350000C8427A00000021
:102FE0007A6C620000A717D76E486DEB6BCB35008B
:102FF0000020417A0000007A7A620000CA17D76E7A
:10300000486DEB6BCF35000040406100000061610E
:103010006D0000EC17356356628062D33500008086
:103020003F6100000061766D000034184E6F096D3D
:10303000AB6BD83500606A476100000061667200C2
:10304000000A184E6F096DAB6BD43500803B4761A9
:1030500000000061746D00005E184E6F096DAB6B6F
:10306000DC350000C84361000000616A6D00008427
:10307000184E6F096DAB6BE0355ED0B25061000049
:1030800000616A640000AC184E6F096DAB6BE435EB
:10309000CDCCCC3D610000006172610000D4184EBF
:1030A0006F096DAB6BE8350000803F610000006187
:1030B000736E0000F618CB6D7E6CBC63B83E0000EA
:1030C00000006100000061737800001819CB6D7E6C
:1030D0006CBC63B93E0000000061000000617376C3
:1030E00000003A194E6F096DAB6BEC350080BBC523
:1030F00061000000616C76000063194E6F096DABD2
:103100006BF03500007A4461000000616C620000E1
:103110008B194E6F096DAB6BF435000070C1610007
:103120000000617A620000AE194E6F096DAB6BF85A
:1031300035000000406200000062616D0000D0199F
:10314000356356628062FC350000000062000000BA
:1031500062766D0000181A4E6F096DAB6B01360078
:10316000006145620000006266720000EE194E6F59
:10317000096DAB6BFD3500006145620000006274B3
:103180006D0000421A4E6F096DAB6B053600008072
:10319000BF62000000626A6D0000661A4E6F096D22
:1031A000AB6B09368096984B62000000626A64003F
:1031B000008E1A4E6F096DAB6B0D360AD7233C6239
:1031C0000000006272610000B61A4E6F096DAB6BB1
:1031D00011360000803F6200000062737600001C20
:1031E0001B4E6F096DAB6B1536000016C4620000F4
:1031F00000626C760000451B4E6F096DAB6B193693
:103200000000C84262000000626C6200006D1B4E4C
:103210006F096DAB6B1D360000A0C062000000623C
:103220007A620000901B4E6F096DAB6B2136000077
:1032300000406300000063616D0000B21B356356FF
:103240006280622536000000006300000063766D36
:103250000000FA1B4E6F096DAB6B2A36000061450A
:10326000630000006366720000D01B4E6F096DABF7
:103270006B2636000061456300000063746D00003A
:10328000241C4E6F096DAB6B2E36000080BF6300AF
:103290000000636A6D0000481C4E6F096DAB6B3215
:1032A000368096984B63000000636A640000701CCF
:1032B0004E6F096DAB6B36360AD7233C63000000B6
:1032C0006372610000981C4E6F096DAB6B3A36005B
:1032D00000803F630000006373760000FE1C4E6FA9
:1032E000096DAB6B3E36000016C463000000636CD2
:1032F000760000271D4E6F096DAB6B42360000C88B
:103300004263000000636C6200004F1D4E6F096D48
:10331000AB6B46360000A0C063000000637A620019
:1033200000721D4E6F096DAB6B4A36000000407095
:1033300031000070776D6600941D4E6F096DAB6BA8
:103340004E3600000000703100007033736C00BA1C
:103350001D4E6F096DAB6B523600000000703100DE
:10336000007033736800E11D4E6F096DAB6B56360C
:1033700000000000703100007033706C00081E4EB9
:103380006F096DAB6B5A36000000007031000070A1
:1033900033706800331E4E6F096DAB6B5E360000F4
:1033A0000000703100007034736C005E1E4E6F09B7
:1033B0006DAB6B623600000000703100007034733A
:1033C0006800851E4E6F096DAB6B6636000000000D
:1033D000703100007034706C00AC1E4E6F096DAB24
:1033E0006B6A3600000000703100007034706800B5
:1033F000D71E4E6F096DAB6B6E360000000070314A
:10340000000070356F6600021F4E6F096DAB6B7266
:1034100036000000006735340067353478002D1F12
:10342000D76E486DEB6B88340000000067353400C0
:1034300067353479004F1FD76E486DEB6B8C3400C5
:10344000000000673534006735347A00711FD76E8D
:10345000486DEB6B90340000000067353400673531
:10346000346100931FD76E486DEB6B9434000000FD
:1034700000673534006735346200B51FD76E486D7C
:10348000EB6B983400000000673534006735346317
:1034900000D71FD76E486DEB6B9C340000000067AF
:1034A0003535006735357800F91FD76E486DEB6B01
:1034B000A034000000006735350067353579001B02
:1034C00020D76E486DEB6BA43400000000673535E3
:1034D000006735357A003D20D76E486DEB6BA83418
:1034E000000000006735350067353561005F20D783
:1034F0006E486DEB6BAC340000000067353500673B
:10350000353562008120D76E486DEB6BB03400001A
:103510000000673535006735356300A320D76E4856
:103520006DEB6BB43400000000673536006735364C
:103530007800C520D76E486DEB6BB83400000000F2
:10354000673536006735367900E720D76E486DEB72
:103550006BBC3400000000673536006735367A00F2
:103560000921D76E486DEB6BC03400000000673551
:10357000360067353661002B21D76E486DEB6BC482
:1035800034000000006735360067353662004D2193
:10359000D76E486DEB6BC83400000000673536000D
:1035A00067353663006F21D76E486DEB6BCC340006
:1035B0000000006735370067353778009121D76EF6
:1035C000486DEB6BD034000000006735370067357D
:1035D000377900B321D76E486DEB6BD4340000000F
:1035E00000673537006735377A00D521D76E486DCB
:1035F000EB6BD83400000000673537006735376162
:1036000000F721D76E486DEB6BDC340000000067DB
:1036100035370067353762001922D76E486DEB6B7E
:10362000E034000000006735370067353763003B42
:1036300022D76E486DEB6BE434000000006735382C
:103640000067353878005D22D76E486DEB6BE83443
:10365000000000006735380067353879007F22D7D1
:103660006E486DEB6BEC3400000000673538006786
:1036700035387A00A122D76E486DEB6BF03400002C
:103680000000673538006735386100C322D76E48BF
:103690006DEB6BF434000000006735380067353897
:1036A0006200E522D76E486DEB6BF8340000000035
:1036B0006735380067353863000723D76E486DEBF0
:1036C0006BFC34000000006735390067353978003D
:1036D0002923D76E486DEB6B00350000000067357D
:1036E000390067353979004B23D76E486DEB6B0491
:1036F0003500000000673539006735397A006D23E1
:10370000D76E486DEB6B0835000000006735390057
:1037100067353961008F23D76E486DEB6B0C350030
:10372000000000673539006735396200B123D76E74
:10373000486DEB6B103500000000673539006735C8
:10374000396300D323D76E486DEB6B14350000004E
:1037500000737273007372303000F523746DC46CA3
:10376000616B483400000000737273007372303173
:1037700000FB23746DC46C616B4A3400000000735D
:1037800072730073723032000124746DC46C616B0B
:103790004C34000000007372730073723033000702
:1037A00024746DC46C616B4E34000000007372733E
:1037B0000073723034000D24746DC46C616B50342E
:1037C00000000000737273007372303500132474AC
:1037D0006DC46C616B52340000000073727300732F
:1037E000723036001924746DC46C616B543400005F
:1037F00000007372730073723037001F24746DC43D
:103800006C616B5634000000007372730073723089
:1038100038002524746DC46C616B583400000000BE
:103820007372730073723039002B24746DC46C6131
:103830006B5A3400000000737273007372313000F1
:103840003124746DC46C616B5C34000000007372D1
:10385000730073723131003724746DC46C616B5E18
:1038600034000000007372730073723132003D2423
:10387000746DC46C616B603400000000737273007F
:1038800073723133004324746DC46C616B62340015
:103890000000007372730073723134004924746D38
:1038A000C46C616B64340000000073727300737247
:1038B0003135004F24746DC46C616B6634000000B8
:1038C000007372730073723136005524746DC46CCA
:1038D000616B6834000000007372730073723137DB
:1038E000005B24746DC46C616B6A3400000000736B
:1038F00072730073723138006124746DC46C616B33
:103900006C34000000007372730073723139006709
:1039100024746DC46C616B6E3400000000737973A5
:10392000007379730000AE24746D8B73B372BB3176
:1039300000000000730000007300000000B3247456
:103940006D8B73B372BB3100000000310000003199
:10395000000000006D24746DEA72B372BB31000088
:1039600000003200000032000000007024746DEA94
:1039700072B372BB3100000000330000003300005E
:1039800000007324746DEA72B372BB310000000052
:103990003400000034000000007624746DEA72B335
:1039A00072BB3100000000780000007800000000C9
:1039B0007924746DEA72B372BB31000000007900A3
:1039C000000079000000007C24746DEA72B372BBC1
:1039D00031000000007A0000007A000000007F241F
:1039E000746DEA72B372BB31000000006100000028
:1039F00061000000008224746DEA72B372BB310072
:103A00000000006200000062000000008524746D68
:103A1000EA72B372BB310000000063000000630073
:103A20000000008824746DEA72B372BB310000009C
:103A3000006735340067353400008B24746DEA72FA
:103A4000B372BB31000000006735350067353500C3
:103A5000009024746DEA72B372BB310000000067FD
:103A600035360067353600009524746DEA72B372FE
:103A7000BB31000000006735370067353700009A1A
:103A800024746DEA72B372BB3100000000673538F0
:103A90000067353800009F24746DEA72B372BB3141
:103AA00000000000673539006735390000A4247430
:103AB0006DEA72B372BB31000000006739320067F3
:103AC00039320000A924746DEA72B372BB31000070
:103AD0000000706F7300706F730000B624746DEA9D
:103AE00072B372BB31000000006D706F006D706FBB
:103AF0000000BB24746DEA72B372BB310000000099
:103B00006D0000006D00000000C024746DE2740CB4
:103B10006BBB31000000006E0000006E0000000072
:103B2000C324746D2B750C6BBB31000000006F005B
:103B300000006F00000000C624746D86750C6BBB1E
:103B40003100000000240000002400000000C9240F
:103B5000746DEA750C6BBB3100000000680000005A
:103B60006800000000CC2422946C6C0C6BBB31000C
:103B70000000002A2A2A205741524E494E47202A47
:103B80002A2A20556E737570706F72746564207286
:103B90006F746172792061786973206D6F64652E2E
:103BA00020417869732044495341424C4544002ADE
:103BB0002A2A205741524E494E47202A2A2A205568
:103BC0006E737570706F72746564206C696E656178
:103BD000722061786973206D6F64652E2041786969
:103BE000732044495341424C4544002A2A2A205715
:103BF00041524E494E47202A2A2A204E6F6E2D737D
:103C000074616E64617264206D6963726F73746550
:103C1000702076616C7565002A2A2A204E4F54491F
:103C20004345202A2A2A205265737474696E6720DE
:103C300062617564207261746520746F2025530081
:103C40002A2A2A205741524E494E47202A2A2A2002
:103C5000496C6C6567616C20626175642072617487
:103C60006520737065636966696564002C000A00ED
:103C700025733A25730025733A25312E30660025C9
:103C8000733A25312E3366002C000A002573002577
:103C9000312E30660025312E336600456E64206F6C
:103CA0006620636F6D6D616E642066696C650A00E5
:103CB0004F4B004572726F720045616761696E001B
:103CC0004E6F6F7000436F6D706C65746500546566
:103CD000726D696E617465640041626F72746564CF
:103CE00000456E64206F66206C696E6500456E64E9
:103CF000206F662066696C650046696C65206E6F92
:103D000074206F70656E004D61782066696C652067
:103D100073697A65206578636565646564004E6FD4
:103D20002073756368206465766963650042756613
:103D300066657220656D707479004275666665729D
:103D40002066756C6C202D20666174616C00427574
:103D5000666665722066756C6C202D206E6F6E2D08
:103D6000666174616C00496E697469616C697A6935
:103D70006E670023313600233137002331380023AA
:103D8000313900496E7465726E616C206572726FB4
:103D90007200496E7465726E616C2072616E676547
:103DA000206572726F7200466C6F6174696E672075
:103DB000706F696E74206572726F72004469766903
:103DC0006465206279207A65726F002332340023A3
:103DD00032350023323600233237002332380023B5
:103DE00032390023333000233331002333320023B0
:103DF0003333002333340023333500233336002399
:103E00003337002333380023333900556E7265632E
:103E10006F676E697A656420636F6D6D616E6400B3
:103E2000457870656374656420636F6D6D616E6461
:103E3000206C657474657200426164206E756D62F9
:103E4000657220666F726D617400496E70757420C2
:103E500065786365656473206D6178206C656E6755
:103E6000746800496E7075742076616C7565207495
:103E70006F6F20736D616C6C00496E707574207685
:103E8000616C756520746F6F206C617267650049A5
:103E90006E7075742076616C75652072616E6765F1
:103EA000206572726F7200496E7075742076616C55
:103EB000756520756E737570706F72746564004AF5
:103EC000534F4E2073796E746178206572726F72F1
:103ED000004A534F4E20696E7075742068617320DC
:103EE000746F6F206D616E79207061697273004F1D
:103EF0007574206F662062756666657220737061E6
:103F00006365002335310023353200233533002328
:103F1000353400233535002335360023353700236B
:103F2000353800233539005A65726F206C656E672D
:103F30007468206D6F76650047636F646520626CFE
:103F40006F636B20736B69707065640047636F64A7
:103F50006520696E707574206572726F72004763B8
:103F60006F64652066656564726174652065727250
:103F70006F720047636F6465206178697320776FA3
:103F80007264206D697373696E670047636F64655F
:103F9000206D6F64616C2067726F75702076696F39
:103FA0006C6174696F6E00486F6D696E672063792C
:103FB000636C65206661696C6564004D617820748E
:103FC000726176656C206578636565646564004D33
:103FD0006178207370696E646C65207370656564C8
:103FE0002065786365656465640041726320737061
:103FF0006563696669636174696F6E206572726F6B
:104000007200B03CB33CB93CC03CC53CCE3CD93C52
:10401000E13CED3CF93C073D1E3D2D3D3A3D4E3D1A
:10402000663D733D773D7B3D7F3D833D923DA73DA2
:10403000BC3DCB3DCF3DD33DD73DDB3DDF3DE33DFB
:10404000E73DEB3DEF3DF33DF73DFB3DFF3D033EDF
:10405000073E0B3E203E383E4A3E633E793E8F3E51
:10406000A73EBF3ED13EEF3E033F073F0B3F0F3F12
:10407000133F173F1B3F1F3F233F273F383F4C3F16
:104080005E3F733F8B3FA73FBB3FCF3FEA3F746923
:104090006E7967005B696E63685D206F6B3E200020
:1040A0005B6D6D5D206F6B3E200025532553002511
:1040B000532553006572726F723A2025533A2025BA
:1040C00073200A003C6E756C6C206D6573736167BC
:1040D000653E004C6F6164696E6720636F6E666950
:1040E00067732066726F6D20454550524F4D00C476
:1040F00040D340546865736520636F6D6D616E6475
:104100007320617265206163746976652066726FE1
:104110006D2074686520636F6D6D616E64206C69DD
:104120006E653A0A205E78202020202041626F725E
:10413000742028636F6E74726F6C207829202D2094
:104140007265736574732045564552595448494EFB
:1041500047210A20203F20202020204D61636869EC
:104160006E6520706F736974696F6E20616E642074
:1041700067636F6465206D6F64656C207374617430
:10418000650A202024202020202053686F7720619A
:104190006E642073657420636F6E66696775726103
:1041A00074696F6E2073657474696E67730A20207A
:1041B00021202020202046656564686F6C64202DD6
:1041C0002073746F70206D6F74696F6E20776974DF
:1041D000686F7574206C6F73696E6720706F736998
:1041E00074696F6E0A20207E20202020204379638E
:1041F0006C65205374617274202D20726573746134
:1042000072742066726F6D2066656564686F6C6499
:104210000A202068202020202053686F77207468AF
:1042200069732068656C702073637265656E0A201F
:104230002024682020202053686F7720636F6E66EB
:10424000696775726174696F6E2068656C70207340
:10425000637265656E0A20202474657374204C694E
:1042600073742073656C662D74657374730A2020F3
:104270002464656661756C74733D31205265737496
:104280006F726520616C6C2073657474696E6773FE
:1042900020746F2022666163746F727922206465D6
:1042A0006661756C74730A00232323232054696E9E
:1042B00079472048656C7020232323230A00456139
:1042C0006368202420636F6D6D616E642061626F8E
:1042D000766520616C736F20646973706C617973AB
:1042E0002074686520746F6B656E20666F72206540
:1042F0006163682073657474696E6720696E205B02
:10430000205D20627261636B6574730A546F20765E
:104310006965772073657474696E677320656E7460
:104320006572206120746F6B656E3A0A0A20202442
:104330003C746F6B656E3E0A0A466F722065786149
:104340006D706C65202479667220746F20646973C7
:10435000706C6179207468652059206D61782066E1
:1043600065656420726174650A0A546F2075706413
:104370006174652073657474696E677320656E740B
:10438000657220746F6B656E20657175616C73204A
:1043900076616C75653A0A0A2020243C746F6B655F
:1043A0006E3E3D3C76616C75653E0A0A466F722032
:1043B0006578616D706C6520247966723D383030A7
:1043C00020746F20736574207468652059206D61B6
:1043D000782066656564207261746520746F20388A
:1043E0003030206D6D2F6D696E7574650A005468EC
:1043F00065736520636F6D6D616E647320617265B6
:104400002061637469766520666F7220636F6E66E3
:10441000696775726174696F6E3A0A202024737936
:10442000732053686F772073797374656D202867E4
:10443000656E6572616C292073657474696E67734B
:104440000A2020243120202053686F77206D6F745C
:104450006F7220312073657474696E677320286FE2
:1044600072207768617465766572206D6F746F7203
:1044700020796F752077616E7420312C322C332CAB
:1044800034290A2020247820202053686F77205870
:1044900020617869732073657474696E677320286E
:1044A0006F722077686174657665722061786973D0
:1044B00020796F752077616E7420782C792C7A2C96
:1044C000612C622C63290A2020246D20202053684F
:1044D0006F7720616C6C206D6F746F7220736574E0
:1044E00074696E67730A2020246E20202053686F41
:1044F0007720616C6C2061786973207365747469CE
:104500006E67730A2020242420202053686F7720B0
:10451000616C6C2073657474696E67730A20202463
:104520006820202053686F7720746869732068655D
:104530006C702073637265656E0A0A00232323235F
:104540002054696E794720434F4E464947555241A2
:1045500054494F4E2048656C7020232323230A00C2
:10456000496E766F6B652073656C66207465737435
:1045700020627920656E746572696E6720247465A7
:1045800073743D4E207768657265204E20697320F4
:104590006F6E65206F663A0A202024746573743D3F
:1045A000312020736D6F6B6520746573740A202051
:1045B00024746573743D3220206D6F74696F6E20B2
:1045C0007465737420202028612073657269657397
:1045D000206F662073717561726520616E6420635F
:1045E0006972636C65206D6F766573290A202024DB
:1045F000746573743D332020617263207465737435
:1046000020202020202028736F6D65206C61726748
:104610006520636972636C6573290A2020247465C0
:1046200073743D3420206477656C6C2074657374FA
:1046300020202020286D6F7665732073706163657C
:10464000642062792031207365636F6E6420647723
:10465000656C6C73290A202024746573743D3520C1
:1046600020686F6D696E6720746573742020202840
:10467000796F75206D757374207472697020686F1E
:104680006D696E67207377697463686573290A20A2
:104690002024746573743D36202066656564686FF8
:1046A0006C6420746573742028656E7465722021B3
:1046B00020616E64207E20746F20686F6C642061BE
:1046C0006E6420726573746172742C2072657370ED
:1046D0006563746976656C79290A20202474657392
:1046E000743D3720204D20636F64657320746573BB
:1046F000742020284D20636F64657320696E746593
:10470000726D696E676C65642077697468206D6F7F
:10471000766573290A202024746573743D3820203F
:104720004A534F4E20746573742020202020286D3A
:104730006F74696F6E20746573742072756E207566
:1047400073696E67204A534F4E20636F6D6D616EC3
:104750006473290A202024746573743D392020690C
:104760006E76657273652074696D65207465737407
:104770000A202024746573743D313020726F746197
:104780007279206D6F74696F6E20746573740A009E
:10479000232323232054696E79472053454C462018
:1047A000544553542048656C7020232323230A006A
:1047B000456E746572202464656661756C74733D22
:1047C0003120746F2072657365742074686520737E
:1047D000797374656D20746F2074686520666163F9
:1047E000746F72792064656661756C742076616C93
:1047F0007565732E0A546869732077696C6C206F35
:10480000766572777269746520616E79206368617C
:104810006E67657320796F752068617665206D61BC
:1048200064652E0A00232323232054696E794720D0
:10483000524553544F52452044454641554C5453DC
:104840002048656C7020232323230A000A4E6F74CE
:10485000653A2054696E79472067656E65726174A8
:104860006573206175746F6D617469632073746121
:10487000747573207265706F72747320627920642E
:10488000656661756C740A546869732063616E2093
:1048900062652064697361626C6564206279206579
:1048A0006E746572696E67202473693D300A5365C2
:1048B00065207468652077696B692062656C6F7725
:1048C00020666F72206D6F72652064657461696C1B
:1048D000732E0A000A466F722064657461696C6504
:1048E000642054696E794720696E666F2073656530
:1048F0003A20687474703A2F2F7777772E73796E19
:10490000746865746F732E636F6D2F77696B692F91
:10491000696E6465782E7068703F7469746C653D6B
:1049200050726F6A656374733A54696E79470A46C8
:104930006F7220746865206C617465737420666999
:10494000726D77617265207365653A206874747062
:10495000733A2F2F6769746875622E636F6D2F73BA
:10496000796E746865746F732F54696E79470A5055
:104970006C65617365206C6F6720616E7920697367
:104980007375657320617420687474703A2F2F7783
:1049900077772E73796E746865746F732E636F6D9D
:1049A0002F666F72756D730A486176652066756E45
:1049B0000A005F63616C63756C6174655F7472613A
:1049C00070657A6F69642829206661696C65642066
:1049D000746F20636F6E7665726765006272616BDB
:1049E000696E675F76656C6F636974793A006465B8
:1049F0006C74615F766D61783A2020202020200061
:104A00006372756973655F766D61783A2020202046
:104A10002000656E7472795F766D61783A2020208F
:104A200020202000657869745F766D61783A2020D7
:104A3000202020202000657869745F76656C6F63A4
:104A40006974793A202020006372756973655F7616
:104A5000656C6F636974793A2000656E7472795F72
:104A600076656C6F636974793A2020007461696CB3
:104A70005F6C656E6774683A202020202000626FAA
:104A800064795F6C656E6774683A2020202020008E
:104A9000686561645F6C656E6774683A20202020E9
:104AA00020006C656E6774683A202020202020204A
:104AB0002020200074696D653A20202020202020CD
:104AC0002020202020006A65726B3A2020202020C0
:104AD0002020202020202000756E69743A2020209C
:104AE000202020202020202020007461726765741F
:104AF0003A2020202020202020202000706F736981
:104B000074696F6E3A2020202020202020006C69DC
:104B10006E6520696E6465783A2020202020200090
:104B20006C696E65206E756D6265723A202020207A
:104B300020002A2A2A52756E74696D6520427566B6
:104B40006665725B25645D206273746174653A25E5
:104B50006420206D747970653A256420206D73742B
:104B60006174653A256420207265706C616E3A2527
:104B7000640A007365676D656E745F76656C6F635C
:104B80006974793A2020007365676D656E745F6C97
:104B9000656E6774683A092020006D6963726F73EF
:104BA00065636F6E64733A202020202020007365B7
:104BB000676D656E745F6D6F76655F74696D653A7C
:104BC00020007365676D656E745F636F756E743A10
:104BD0002020202020007365676D656E74733A2075
:104BE000202020202020202020006D6964706F6923
:104BF0006E745F76656C6F636974793A20006D6FCF
:104C000076655F74696D653A202020202020202081
:104C100020006C656E6774683A20202020202020D8
:104C20002020202020007461726765743A202020C3
:104C300020202020202020202000706F73697469BC
:104C40006F6E3A20202020202020202020006C6938
:104C50006E6520696E6465783A202020202020202F
:104C600020006C696E65206E756D6265723A202059
:104C70002020202020002A2A2A52756E74696D6532
:104C80002053696E676C65746F6E20286D72290AF7
:104C9000007372007062006C7800717200717200B3
:104CA000737453696E676C65746F6E2074696D659B
:104CB000725F7469636B73202872656D61696E69D8
:104CC0006E67293A25640A00202074696D65722098
:104CD00025732020656E61626C65643A256420202E
:104CE000706572696F643A25640A0020206D6F74E4
:104CF0006F725B25645D20706F6C3A2564202073B1
:104D0000746570733A25642020636F756E746572E4
:104D10003A25640A00284D53472A2A2A2A20536D2F
:104D20006F6B652054657374205B76315D202A2A91
:104D30002A2A290A4730302047313720473231208C
:104D40004734302047343920473830204739300A3B
:104D5000473932205830205930205A300A473030F5
:104D6000207832300A78300A7932300A79300A7A7B
:104D700032300A7A300A6132300A61300A47303004
:104D80002078323020793230207A3230206132304F
:104D90000A473030207830207930207A3020613056
:104DA0000A47303120663230302078370A79370AA6
:104DB0007A370A61330A6730302078302079302022
:104DC0007A3020613000284D53472A2A2A2A20535E
:104DD000717561726573204D6F74696F6E205465D3
:104DE0007374205B76315D202A2A2A2A290A6730CB
:104DF000306731376732316734306734396738307C
:104E00006739300A673078323020287472617665ED
:104E100072736520612032306D6D2073717561721F
:104E20006520696E205820616E642059290A793204
:104E3000300A78300A79300A673178313066353097
:104E40003020286472617720612031306D6D2073CD
:104E5000717561726520696E205820616E642059F9
:104E60002061742046353030290A7931300A783093
:104E70000A79300A67307A32302028747261766598
:104E800072736520612032306D6D207371756172AF
:104E90006520696E205820616E64205A290A783294
:104EA000300A7A300A78300A673178323079323015
:104EB0007A3230663530302028666565642061209E
:104EC00032306D6D20646961676F6E616C20696E50
:104ED00020582C205920616E64205A290A78307994
:104EE000307A300A7834307934307A34300A783491
:104EF0003079307A300A78307934307A34300A7840
:104F000034307934307A300A783079307A34300A73
:104F100078307934307A300A78343079307A3430F5
:104F20000A783079307A300A6738300A6D333000C9
:104F3000284D53472A2A2A2A204172632054657338
:104F400074205B76315D202A2A2A2A290A673030AC
:104F500067313767323167343067343967383067E3
:104F600039300A673932783079300A663530300A9C
:104F70006732783130792D3130693130202843570C
:104F8000203237302064656772656573290A67309F
:104F9000783079300A6733783130792D31306931A2
:104FA0003020284343572039302064656772656597
:104FB00073290A6730783079300A6732783230796D
:104FC00030693130202843572031383020646567FC
:104FD00072656573290A6730783079300A673378EB
:104FE000323079306931302028434357203138300E
:104FF0002064656772656573290A67307830793097
:105000000A673278307930693230202843572033AC
:1050100036302064656772656573290A67327830B7
:105020007930693230202843572033363020616789
:1050300061696E290A6637303020286368616E67BF
:105040006520666565642072617465207768696CA7
:105050006520696E204732206D6F74696F6E206D18
:105060006F6465290A6732783079306932302028D8
:10507000435720333630203372642074696D6529BC
:105080000A6732783079306932302028435720332C
:105090003630203474682074696D65290A663530AD
:1050A000300A6733783079306932302028434357EB
:1050B000203336302064656772656573290A67336B
:1050C00078307930693230202843435720333630E6
:1050D00020616761696E290A66373030202863686D
:1050E000616E67652066656564207261746520770E
:1050F00068696C6520696E204733206D6F74696F35
:105100006E206D6F6465290A6733783079306932B3
:1051100030202843435720333630203372642074C4
:10512000696D65290A673378307930693230202813
:1051300043435720333630203474682074696D65DA
:10514000290A6738300A6D333000284D53472A2A20
:105150002A2A204477656C6C2054657374205B7632
:10516000315D202A2A2A2A290A67303067313767B9
:1051700032316739300A663530300A67307831307D
:105180000A673470310A67307832300A6734703118
:105190000A67307831300A673470310A6730783006
:1051A000300A673470310A79350A6D333000284D82
:1051B00053472A2A2A2A20486F6D696E6720546552
:1051C0007374205B76315D202A2A2A2A290A6732E5
:1051D000382E31783079307A300A6D333000284DEE
:1051E00053472A2A2A2A2046656564686F6C642022
:1051F00054657374205B76315D202A2A2A2A290A95
:10520000284D53472A2A2A2A204D616E75616C6CFD
:105210007920656E746572202120616E64207E2085
:10522000647572696E67206D6F76656D656E74204A
:10523000746F2074657374202A2A2A2A290A673415
:1052400070330A673030673137673231673430671F
:1052500034396738306739300A663630300A67309B
:10526000783130307637362E3736350A7830793027
:105270000A6D333000284D53472A2A2A2A204D63CD
:105280006F6465732074657374205B76315D202ACA
:105290002A2A2A290A6D330A673470310A6D350AC1
:1052A000673470310A6D340A673470310A6D350A1B
:1052B000673470310A6D370A673470310A6D390A04
:1052C000673470310A6D380A673470310A6D390AF3
:1052D000663530300A67307832300A7932300A6DFC
:1052E000330A78300A6D340A79300A6D350A67312D
:1052F0007831300A6D370A7931300A6D380A7830E2
:105300000A6D390A79300A6732783130792D3130B7
:105310006931300A6D330A6730783079300A6D347C
:105320000A6733783130792D31306931300A6D3583
:105330000A6730783079300A6D370A673278323050
:1053400079306931300A6D380A6730783079300A3F
:105350006D390A673378323079306931300A673015
:10536000783079300A6732783079306931300A67BD
:1053700033783079306931300A6D3330007B226701
:1053800063223A2267303067313767323167343011
:10539000673439673830673930227D0A7B2267638A
:1053A000223A2266353030227D0A7B226763223A18
:1053B00022284D53477371756172657329227D0AE6
:1053C0007B226763223A226730783230227D0A7B63
:1053D000226763223A22793230227D0A7B22676378
:1053E000223A227830227D0A7B226763223A227990
:1053F00030227D0A7B226763223A2267317831307E
:10540000227D0A7B226763223A22793130227D0A8B
:105410007B226763223A227830227D0A7B226763EF
:10542000223A227930227D0A7B226763223A22289F
:105430004D5347636972636C657329227D0A7B2231
:105440006763223A226732783130792D3130693101
:1054500030227D0A7B226763223A226730783079D6
:1054600030227D0A7B226763223A2267337831300B
:10547000792D3130693130227D0A7B226763223AEF
:1054800022673078307930227D0A7B226763223AA6
:105490002267327832307930693130227D0A7B22BE
:1054A0006763223A22673078307930227D0A7B2286
:1054B0006763223A2267337832307930693130229B
:1054C0007D0A7B226763223A226730783079302266
:1054D0007D0A7B226763223A22673278307930690D
:1054E0003130227D0A7B226763223A22673378308B
:1054F0007930693130227D0A7B226763223A226D3E
:105500003330227D00284D53472A2A2A2A20496E0B
:1055100076657273652054696D65204D6F74696F8F
:105520006E2054657374205B76315D202A2A2A2A06
:10553000290A673030673137673231673430673472
:10554000396738306739300A6739330A66302E30A8
:10555000310A67317831300A7931300A7A31300ACC
:105560006131300A78300A79300A7A300A61300ABB
:1055700067317831307931307A31306131300A67D2
:1055800030783079307A3061300A66302E310A67EF
:1055900032783130792D31307A32306931300A67E2
:1055A00030783079307A300A6733783130792D317C
:1055B000307A32306931300A6730783079307A3079
:1055C0000A673278323079307A32306931300A679E
:1055D00030783079307A300A673378323079306910
:1055E00031300A6730783079307A300A6732783073
:1055F00079307A33306931300A6733783079307AEC
:10560000306931300A6739340A6D333000284D5320
:10561000472A2A2A2A20526F7461727920417869B8
:1056200073204D6F74696F6E2054657374205B76C0
:10563000315D202A2A2A2A290A67303067313767E4
:1056400032316734306734396738306739300A6748
:1056500030783079307A306130623063300A6633C6
:10566000363030300A6730613336300A62333630D4
:105670000A633336300A61300A62300A63300A67DF
:105680003161313434300A62313434300A633134B8
:1056900034300A61300A62300A63300A673161319E
:1056A00034343062373230633336300A7830793010
:1056B0007A306130623063300A673178313030617E
:1056C0003134343062373230633336300A783079EF
:1056D000307A306130623063300A6731783130308F
:1056E00079353061313434306237323063333630BB
:1056F0000A783079307A306130623063300A67314D
:105700007831303079353078323561313434306247
:10571000373230633336300A783079307A3061305E
:10572000623063300A6D333000284D53472A2A2AED
:105730002A205465737420766572792073686F72BD
:1057400074206D6F766573205B76315D202A2A2A7E
:105750002A290A2473693D333030300A67317830A2
:105760002E3166313030300A78300A78302E3100F0
:10577000284D53472A2A2A2A2054657374206163CE
:10578000637572616379206F6620736C6F77206D2B
:105790006F766573205B76315D202A2A2A2A290AD2
:1057A00067317A2D35663232004E31204732300A69
:1057B0004E3520473430204731370A4E313020549F
:1057C00031204D30360A284E3135204739302047B8
:1057D00030205830205930205A30290A4E3230209B
:1057E0005335303030204D3033200A4E323520587A
:1057F000302E3036342059302E333236205A300A8B
:105800004E343020473031204631362E300A4E3566
:10581000302058302E3036342059302E3332360A6C
:105820004E35352058302E3036302059302E323912
:10583000330A4E36302058302E3037372059302E2C
:105840003236370A4E36352058302E313131205914
:10585000302E3235370A4E37302058302E31343919
:105860002059302E3235320A4E37352058302E31FD
:1058700038382059302E3235350A4E3830205830DD
:105880002E3232372059302E3236380A4E383520F3
:1058900058302E3235372059302E3237310A4E39B2
:1058A000302058302E3333352059302E3236350AD9
:1058B0004E39352058302E3431322059302E32377F
:1058C000310A4E3130302058302E343734205930A0
:1058D0002E3238370A4E3130352058302E34393197
:1058E0002059302E3238390A4E3131302058302E7E
:1058F0003531372059302E3237330A4E3131352089
:1059000058302E3534342059302E3236330A4E3149
:1059100032302058302E3538302059302E32363142
:105920000A4E3132352058302E3539352059302E37
:105930003236330A4E3133302058302E3632312051
:1059400059302E3237340A4E3133352058302E3606
:1059500035392059302E3330360A4E313430205804
:10596000302E3637332059302E3333350A4E31340A
:10597000352058302E3637392059302E3336310AFB
:105980004E3135302058302E3637382059302E33AE
:1059900038390A4E3135352058302E3637302059B7
:1059A000302E3432300A4E3136302058302E3637D1
:1059B000302059302E3434360A4E313635205830A6
:1059C0002E3638302059302E3437340A4E313730A5
:1059D0002058302E3730342059302E3439370A4E83
:1059E0003137352058302E3733322059302E35316B
:1059F000350A4E3138302058302E3739342059305E
:105A00002E3533350A4E3138352058302E3837325E
:105A10002059302E3536370A4E3139302058302E45
:105A20003935302059302E3630340A4E3139352050
:105A300058312E3033312059302E3634370A4E3219
:105A400030302058312E3134392059302E3732320F
:105A50000A4E3230352058312E3330382059302E0E
:105A60003835340A4E3231302058312E343330201C
:105A700059302E3938340A4E3231352058312E34CF
:105A800034372059302E3938360A4E3232302058C9
:105A9000312E3632382059302E3832320A4E3232D8
:105AA000352058312E3733322059302E3731340AD1
:105AB0004E3233302058322E3030392059302E3388
:105AC00038310A4E3233352058322E313136205992
:105AD000302E3236360A4E3234302058322E3232A0
