:100000000C94B9350C94DA350C94DA350C94DA3555
:100010000C94DA350C94DA350C94DA350C94DA3524
:100020000C94DA350C94DA350C94DA350C949495FA
:100030000C94DA350C94DA350C9491910C94DA35F1
:100040000C94DA350C94DA350C94DA350C94DA35F4
:100050000C94DA350C94DA350C94DA350C94DA35E4
:100060000C94DA350C94BF980C9475980C94DA358E
:100070000C94169D0C94B69C0C94F49C0C94DA355C
:100080000C94CF950C94DA350C94DA350C94DA355F
:100090000C94DA350C94DA350C94DA350C94DA35A4
:1000A0000C94DA350C94DA350C94DA350C94AF6C88
:1000B0000C94076C0C94DA350C94DA350C94269178
:1000C0000C94DA350C94DA350C94DA350C94DA3574
:1000D0000C94DA350C94DA350C94DA350C94DA3564
:1000E0000C948AA20C94DA350C94DA350C94DA3537
:1000F0000C94DA350C94DA350C94DA350C94DA3544
:100100000C94856C0C94DD6B0C94036D0C945B6CFF
:100110000C94DA350C94DA350C94DA350C94DA3523
:100120000C94DA350C94DA350C94DA350C94DA3513
:100130000C94DA350C9450910C94DA350C94DA3531
:100140000C94DA350C94DA350C94DA350C94DA35F3
:100150000C94DA350C94DA350C9480A20C94DA35D0
:100160000C94DA350C94DA350C94DA350C94DA35D3
:100170000C94DA350C94DA350C94DA350C94DA35C3
:100180000C94DA350C94DA350C94DA350C94DA35B3
:100190000C94DA350C94DA350C94DA350C94DA35A3
:1001A0000C94D96C0C94316C0C94DA350C94DA35CF
:1001B0000C9417940C94DA350C94DA350C94DA35E7
:1001C0000C94DA350C94DA350C94DA350C94DA3573
:1001D0000C94DA350C94DA350C94DA350C94DA3563
:1001E0000C94DA350C94DA3528683D6852684F6A09
:1001F0004F6AAA679F654F6A67687C689168D5688F
:100200003567BB684F6ABF674F6AA668D4679D674A
:100210004F6A4F6A4F6AE967FE671368084AD73B1F
:100220003BCE016E84BCBFFDC12F3D6C74319ABDC5
:1002300056833DDA3D00C77F11BED9E4BB4C3E91E9
:100240006BAAAABE000000803F05A84CCDB2D44ED8
:10025000B93836A9020C50B9918688083CA6AAAADA
:100260002ABE000000803F07634236B79BD8A71A1A
:1002700039685618AEBAAB558C1D3CB7CC5763BD28
:100280006DEDFD753EF6177231BF000000803F082E
:10029000000000BE922449123EABAAAA2ABECDCCD1
:1002A000CC4C3E00000080BEABAAAAAA3E000000D3
:1002B00000BF000000803F0000000000084178D32C
:1002C000BB4387D1133D190E3CC3BD4282AD2B3ECB
:1002D00068EC8276BED98FE1A93E4C80EFFFBE016B
:1002E000C4FF7F3F00000000006E616E00696E6613
:1002F000008211E851EC4C224C4231EC11AC43AC81
:1003000011E851EC4C224C3E313333733FD81198F5
:1003100051584B224C463100000000F311E851C601
:100320004C5A4BCB33000048432B12EE57EA57266A
:100330005946310000000038120D4DEC55224C4654
:10034000310000000044129851D555224C4631002E
:100350000000006D129851C5554C4C6A30000000E9
:10036000008D129851B555A255463100000000A8E5
:10037000123F540A54224C463100000000CA125861
:10038000519455224C463100000000ED1258518620
:1003900055224C4631000000001013585178552268
:1003A0004C463100000000331358516A55224C4628
:1003B0003100000000561358515C55224C46310064
:1003C000000000791358514E55224C463100000070
:1003D000009C133F542D55224C463100000000C0B4
:1003E000135851FC53224C463100000000E31358CF
:1003F000511F55224C46310000000006145851117F
:1004000055224C4631000000002914585103552252
:100410004C4631000000004C145851F554224C4613
:1004200031000000006F145851E754224C4631004F
:1004300000000092145851D954224C46310000005B
:1004400000B5149953C454224C463100000000D426
:10045000149953C454224C463100000000F31499FF
:1004600053C454224C46310000000012159953C465
:1004700054224C46310000000031159953C45422D7
:100480004C46310000000050159953C454224C468C
:1004900031000000006F159953AF54224C463100D3
:1004A00000000093159953AF54224C4631000000D0
:1004B00000B7159953AF54224C463100000000DBC1
:1004C000159953AF54224C463100000000FF159996
:1004D00053AF54224C46310000000023169953AF0D
:1004E00054224C46310000000047163F540A542263
:1004F0004C9E30000000006B163F540A54224CA260
:1005000030000000008F163F540A54224CA63000E1
:10051000000000B3160A51EC4C224CAA3000000037
:1005200000D7160A51EC4C224CAE3000000000FB04
:10053000160A51EC4C224CB230000000001F176527
:100540006DA04CE1944A31000000002A17966D9B83
:100550004C224C4631000000003517346D9B4CA2F4
:1005600059463100000000401758519B4C224C4620
:1005700031000000004C17C250A04C244CC1330085
:100580000000008017C250A04C244CC233000080F1
:100590003FB217C250A04C244CC0330000803FE44F
:1005A00017C250A04C244CC333000000401818C29E
:1005B00050A04C244CC433000000004A180D4D0ECE
:1005C0004D9D5446310000000057183F540A5442D4
:1005D00053BB330050434883183F540A544253AF2F
:1005E000330AD7A33DAF183F540A544253B333CD17
:1005F000CCCC3DDB183F54EC4C774CB73300409CDF
:10060000450A19C250A04CF558C5330000000045FA
:1006100019C250A04CDB58C633000000007419C248
:1006200050A04CC158C73300000000A319C250A00D
:100630004CA758C8330000803FD219C250A04C24A8
:100640004CC9330000803F031AC250A04C244CCA4E
:10065000330000803F321AC250A04C244CA1340019
:10066000000000651A0A51EC4CBE4FA5346666E6E0
:100670003F8D1A3F540A548D53A934F6281242BFB5
:100680001AC250A04C9052A23400000041EE1AC28F
:1006900050A04C5652A33400000000191BC250A0B9
:1006A0004C244CA4340000803F491BC250A04C2471
:1006B0004CB1340000803F7C1B0A51EC4CBE4FB55E
:1006C000346666E63FA41B3F540A548D53B934F692
:1006D000281242D61BC250A04C9052B234000000E7
:1006E00041051CC250A04C5652B3340000803F302C
:1006F0001CC250A04C244CB4340000803F601CC28B
:1007000050A04C244CC13400000040931C0A51EC12
:100710004CBE4FC5346666E63FBB1C3F540A548D41
:1007200053C9340000A03FED1CC250A04C9052C2EF
:1007300034000000411C1DC250A04C5652C334006E
:10074000000000471DC250A04C244CC4340000805F
:100750003F771DC250A04C244CD13400004040AA29
:100760001D0A51EC4CBE4FD5346666E63FD21D3FA4
:10077000540A548D53D93400003443041EC250A08F
:100780004C9052D23400000041331EC250A04C564F
:1007900052D334000000005E1EC250A04C244CD442
:1007A000340000803F8E1E6A50EA4E244EE1340031
:1007B00000803FB01E3F540A544253E63400007A92
:1007C00046DE1E3F540A544253E23400007A460C7F
:1007D0001F3F540A544253EA3400002A43341F3F57
:1007E000540A544253EE34F902954F611F3F540AA4
:1007F000544253F2340AD7233CA11FC250A04CBE2E
:100800004DFA3400000040CE1F3F540A544253FBBF
:100810003400007AC4FB1F3F540A544253FF340093
:1008200000C8422D203F540A5442530335000000B3
:10083000405A203F540A54425307350000803F80FD
:10084000206A50EA4E244E0B350000803FA2203F24
:10085000540A544253103500007A46D0203F540ABF
:100860005442530C3500007A46FE203F540A54424D
:1008700053143500002A4326213F540A544253188A
:1008800035F902954F53213F540A5442531C350AFF
:10089000D7233C9321C250A04CBE4D24350000000C
:1008A00040C0213F540A544253253500007AC4ED1C
:1008B000213F540A54425329350000C8421F223FA9
:1008C000540A5442532D35000000404C223F540A34
:1008D00054425331350000803F72226A50EA4E2460
:1008E0004E35350000803F94223F540A5442533A1B
:1008F0003500009644C2223F540A54425336350014
:10090000009644F0223F540A5442533E35000048BA
:100910004218233F540A544253423520BC3E4C45B2
:10092000233F540A54425346350AD7233C8523C2F9
:1009300050A04CBE4D4E3500000040B2233F540A3B
:100940005442534F350000C843DF233F540A5442FA
:100950005353350000C84211243F540A54425357A0
:1009600035000000403E243F540A5442535B35009A
:1009700000803F64246A50EA4E244E5F35000080B8
:100980003F86240A51EC4C774C643500606A47B4CA
:10099000240A51EC4C774C603500803B47E2240A36
:1009A00051EC4C774C68350000C8430C250A51ECDB
:1009B0004C774C6C355ED0B25039250A51EC4C77EF
:1009C0004C7035CDCCCC3D66250A51EC4C774C743F
:1009D000350000803F8C25C250A04CBE4D783500BC
:1009E000000040B9250A51EC4C774C79350080BBAA
:1009F000C5E6250A51EC4C774C7D3500007A441849
:100A0000260A51EC4C774C8135000070C145260A0E
:100A100051EC4C774C8535000000406B266A50EA5B
:100A20004E244E8935000000008D260A51EC4C778B
:100A30004C8E3500006145BB260A51EC4C774C8A40
:100A40003500006145E9260A51EC4C774C9235009F
:100A50000080BF11270A51EC4C774C963580969850
:100A60004B3E270A51EC4C774C9A350AD7233C6B06
:100A7000270A51EC4C774C9E350000803F9127C2ED
:100A800050A04CBE4DA2350000803FBE270A51EC5D
:100A90004C774CA335000016C4EB270A51EC4C7779
:100AA0004CA7350000C8421D280A51EC4C774CABCE
:100AB000350000A0C04A280A51EC4C774CAF3500F5
:100AC00000004070286A50EA4E244EB33500000002
:100AD0000092280A51EC4C774CB83500006145C0B3
:100AE000280A51EC4C774CB43500006145EE280AD9
:100AF00051EC4C774CBC35000080BF16290A51ECF4
:100B00004C774CC0358096984B43290A51EC4C7772
:100B10004CC4350AD7233C70290A51EC4C774CC899
:100B2000350000803F9629C250A04CBE4DCC350008
:100B300000803FC3290A51EC4C774CCD350000169C
:100B4000C4F0290A51EC4C774CD1350000C8422240
:100B50002A0A51EC4C774CD5350000A0C04F2A0A28
:100B600051EC4C774CD93500000040752A3F540AAF
:100B70005442531134000000009D2A3F540A54424D
:100B800053153400000000C52A3F540A544253193B
:100B90003400000000ED2A3F540A5442531D340033
:100BA000000000152B3F540A54425321340000002A
:100BB000003D2B3F540A5442532534000000006589
:100BC0002B3F540A5442532934000000008D2B3F20
:100BD000540A5442532D3400000000B52B3F540AF0
:100BE000544253313400000000DD2B3F540A54427C
:100BF00053353400000000052C3F540A5442533949
:100C000034000000002D2C3F540A5442533D340060
:100C1000000000552C3F540A544253413400000058
:100C2000007D2C3F540A544253453400000000A577
:100C30002C3F540A544253493400000000CD2C3F4D
:100C4000540A5442534D3400000000F52C3F540A1E
:100C50005442535134000000001D2D3F540A5442A9
:100C600053553400000000452D3F540A5442535957
:100C700034000000006D2D3F540A5442535D34008F
:100C8000000000952D3F540A544253613400000087
:100C900000BD2D3F540A544253653400000000E566
:100CA0002D3F540A5442536934000000000D2E3F7A
:100CB000540A5442536D3400000000352E3F540A4C
:100CC0005442537134000000005D2E3F540A5442D8
:100CD00053753400000000852E3F540A5442537966
:100CE0003400000000AD2E3F540A5442537D3400BE
:100CF000000000D52E3F540A5442538134000000B6
:100D000000FD2E3F540A5442538534000000002554
:100D10002F3F540A5442538934000000004D2F3FA6
:100D2000540A5442538D3400000000752F3F540A7A
:100D30005442539134000000009D2F3F540A544206
:100D400053953400000000C52F3F540A5442539974
:100D50003400000000ED2F3F540A5442539D3400EC
:100D600000000015300D4DC64C4C4CCF3300000038
:100D70000020300D4DC64C4C4CD133000000002BF0
:100D8000300D4DC64C4C4CD3330000000036300DB6
:100D90004DC64C4C4CD5330000000041300D4DC6C3
:100DA0004C4C4CD733000000004C300D4DC64C4C21
:100DB0004CD9330000000057300D4DC64C4C4CDB75
:100DC000330000000062300D4DC64C4C4CDD33004A
:100DD0000000006D300D4DC64C4C4CDF3300000060
:100DE0000078300D4DC64C4C4CE1330000000083C0
:100DF000300D4DC64C4C4CE333000000008E300DDE
:100E00004DC64C4C4CE5330000000099300D4DC6EA
:100E10004C4C4CE73300000000A4300D4DC64C4C48
:100E20004CE93300000000AF300D4DC64C4C4CEB8C
:100E30003300000000BA300D4DC64C4C4CED330071
:100E4000000000C5300D4DC64C4C4CEF3300000087
:100E500000D0300D4DC64C4C4CF13300000000DB8F
:100E6000300D4DC64C4C4CF33300000000E6300D05
:100E70004DC64C4C4CF53300000000F1300D4D5385
:100E8000578159463100000000FA300D4D5357810B
:100E900059463100000000FF300D4DDD56815946A6
:100EA000310000000004310D4DDD568159463100FE
:100EB00000000009310D4DDD56815946310000001A
:100EC000000E310D4DDD56815946310000000013F2
:100ED000310D4DDD56815946310000000018310DAD
:100EE0004DDD5681594631000000001D310D4DDDAC
:100EF00056815946310000000022310D4DDD5681EA
:100F00005946310000000027310D4DDD568159460C
:100F100031000000002C310D4DDD56815946310065
:100F200000000031310D4DDD568159463100000081
:100F3000003A310D4DDD5681594631000000004325
:100F4000310D4DDD5681594631000000004C310D08
:100F50004DDD56815946310000000055310D4DDD03
:100F60005681594631000000005E310D4DDD56813D
:100F70005946310000000067310D4DDD568159465C
:100F8000310000000070310D4DDD568159463100B1
:100F900000000079310D4DDD5681594631000000C9
:100FA0000082310D4D9F5D224C46310000000087CC
:100FB000310D4D4C5D224C4631000000008C310D4E
:100FC0004DF05C224C46310000000091310D4DE0A7
:100FD0005D224C4631000000009631966D9B4C22FC
:100FE0004C4631000000002A2A2A205741524E491F
:100FF0004E47202A2A2A20556E737570706F7274BE
:10100000656420737769746368206D6F64652E2052
:101010005377697463682044495341424C45440006
:101020002A2A2A205741524E494E47202A2A2A204E
:10103000556E737570706F7274656420726F746131
:1010400072792061786973206D6F64652E20417814
:1010500069732044495341424C4544002A2A2A20BE
:101060005741524E494E47202A2A2A20556E737501
:1010700070706F72746564206C696E656172206156
:10108000786973206D6F64652E2041786973204400
:10109000495341424C4544009B31A631B131BD31E9
:1010A000C631D031DA31E431EF31FA3105322A2A52
:1010B0002A205741524E494E47202A2A2A204E6F55
:1010C0006E2D7374616E64617264206D6963726FFA
:1010D000737465702076616C7565000A002E0011CE
:1010E00032153219321E324F3267328432A432A4A2
:1010F00032BA32D032DF32EE32FD321A332C33457F
:101100003366338D33AD33C733E133FB3315342FBF
:101110003449345B3471347B34813485348A348F80
:101120003495349A349F34A334A834AC34B434BBEB
:1011300034C134CE34D434DA34DF34E334F034F62A
:1011400034FB34FF34033508350E3514351B352C8C
:10115000000A0025733A25730025733A25312E3095
:10116000660025733A25312E3366002C000A0025CF
:10117000730025312E30660025312E33660066005F
:10118000620066622C6669726D776172655F622CBF
:101190005B66625D20206669726D776172655F6271
:1011A00075696C642531382E32660A0066762C66C5
:1011B00069726D776172655F762C5B66765D202063
:1011C0006669726D776172655F76657273696F6E5D
:1011D0002531362E32660A0069642C69642C5B69FD
:1011E000645D202069645F646576696365253136D6
:1011F000640A0073692C7374617475735F692C5B86
:1012000073695D20207374617475735F696E7465B2
:101210007276616C202020202531302E3066206DC2
:1012200073205B303D6F66665D0A0073722C7374C9
:10123000617475735F722C0071722C7175657565C0
:101240005F722C0070622C706C616E6E65725F62F2
:1012500075666665725F612C506C616E6E6572209A
:10126000627566666572733A2538640A006C696E49
:10127000652C6C696E655F6E2C4C696E65206E75B1
:101280006D6265723A2531302E30660A006C782C1A
:101290006C696E655F692C4C696E6520696E64656A
:1012A000783A253133640A00666565642C666565A5
:1012B000642C4665656420726174653A2531362E6A
:1012C000336625532F6D696E0A00737461742C7335
:1012D0007461742C4D616368696E65207374617408
:1012E000653A2020202020202025730A006D6163AC
:1012F000732C6D6163732C526177206D6163686933
:101300006E652073746174653A20202025730A008D
:10131000637963732C637963732C4379636C652001
:1013200073746174653A202020202020202020251D
:10133000730A006D6F74732C6D6F74732C4D6F7422
:10134000696F6E2073746174653A2020202020201C
:10135000202025730A00686F6C642C686F6C642C05
:1013600046656564686F6C642073746174653A20C7
:10137000202020202025730A00686F6D652C686F7F
:101380006D652C486F6D696E672073746174653A82
:10139000202020202020202025730A0076656C2C38
:1013A00076656C6F636974792C56656C6F636974CC
:1013B000793A2531372E336625532F6D696E0A0031
:1013C000756E69742C756E69742C556E6974733AF8
:1013D0002020202020202020202020202020202508
:1013E000730A00636F6F722C636F6F722C436F6FA1
:1013F0007264696E6174652073797374656D3A20E7
:10140000202025730A006D6F6D6F2C6D6F6D6F2C32
:101410004D6F74696F6E206D6F64653A20202020D7
:10142000202020202025730A00706C616E2C706CC7
:10143000616E2C506C616E653A20202020202020A7
:10144000202020202020202025730A00706174684D
:101450002C706174682C50617468204D6F64653A1B
:10146000202020202020202020202025730A006416
:101470006973742C646973742C44697374616E634A
:1014800065206D6F64653A20202020202020257380
:101490000A0066726D6F2C66726D6F2C466565640E
:1014A0002072617465206D6F64653A2020202020D1
:1014B0002025730A00706F73782C706F73782C5826
:1014C00020706F736974696F6E3A2531352E3366FB
:1014D00025530A00706F73792C706F73792C592023
:1014E000706F736974696F6E3A2531352E336625D6
:1014F000530A00706F737A2C706F737A2C5A2070B5
:101500006F736974696F6E3A2531352E33662553D2
:101510000A00706F73612C706F73612C4120706FC3
:10152000736974696F6E3A2531352E336625530A17
:1015300000706F73622C706F73622C4220706F7337
:101540006974696F6E3A2531352E336625530A006A
:10155000706F73632C706F73632C4320706F7369AB
:1015600074696F6E3A2531352E336625530A006D46
:10157000706F782C6D706F782C58206D61636820C7
:10158000706F736974696F6E3A2531302E3366253A
:10159000530A006D706F792C6D706F792C59206D26
:1015A00061636820706F736974696F6E3A253130BA
:1015B0002E336625530A006D706F7A2C6D706F7A2A
:1015C0002C5A206D61636820706F736974696F6E47
:1015D0003A2531302E336625530A006D706F612C29
:1015E0006D706F612C41206D61636820706F73694D
:1015F00074696F6E3A2531302E336625530A006DBB
:10160000706F622C6D706F622C42206D6163682078
:10161000706F736974696F6E3A2531302E336625A9
:10162000530A006D706F632C6D706F632C43206DD7
:1016300061636820706F736974696F6E3A25313029
:101640002E336625530A00673932782C6739327891
:101650002C58206F726967696E206F6666736574B7
:101660003A2531302E336625530A00673932792CFA
:10167000673932792C59206F726967696E206F66FD
:10168000667365743A2531302E336625530A006738
:1016900039327A2C6739327A2C5A206F726967692D
:1016A0006E206F66667365743A2531302E33662579
:1016B000530A00673932612C673932612C41206F3F
:1016C000726967696E206F66667365743A2531309A
:1016D0002E336625530A00673932622C673932622D
:1016E0002C42206F726967696E206F66667365743D
:1016F0003A2531302E336625530A00673932632C80
:10170000673932632C43206F726967696E206F6698
:10171000667365743A2531302E336625530A00749A
:101720006573742C746573742C0068656C702C6818
:10173000656C702C00646566612C646566612C00C4
:101740006D73672C6D73672C25730A0067706C2CA2
:1017500067636F64655F706C2C5B67706C5D20679E
:10176000636F64655F73656C6563745F706C616EF5
:10177000652025313064205B302C312C325D0A002D
:1017800067756E2C67636F64655F752C205B67758A
:101790006E5D2067636F64655F756E6974735F6DFE
:1017A0006F646520202025313064205B302C315D52
:1017B0000A0067636F2C67636F64655F632C205B4F
:1017C00067636F5D2067636F64655F636F6F7264EB
:1017D0005F73797374656D2025313064205B312D22
:1017E000365D0A006770612C67636F64655F7061C6
:1017F0002C5B6770615D2067636F64655F70617407
:10180000685F636F6E74726F6C2025313064205B8B
:10181000302C312C325D0A006764692C67636F6479
:10182000655F642C205B6764695D2067636F646536
:101830005F64697374616E63655F6D6F64652531A4
:101840003064205B302C315D0A0067632C67636F66
:10185000642C5B67635D006A612C6A756E632C5B48
:101860006A615D20206A756E6374696F6E5F616383
:1018700063656C65726174696F6E25382E306625FC
:10188000530A006D6C2C6D696E5F6C2C5B6D6C5D2A
:1018900020206D696E5F6C696E655F7365676D654D
:1018A0006E742020202531342E336625530A006DB6
:1018B000612C6D696E5F612C5B6D615D20206D69CF
:1018C0006E5F6172635F7365676D656E7420202063
:1018D000202531342E336625530A006D742C6D6932
:1018E0006E5F732C5B6D745D20206D696E5F736538
:1018F000676D656E745F74696D65202020253130D9
:101900002E306620755365630A0069632C69676E23
:101910006F72655F632C5B69635D202069676E6F22
:101920007265204352206F72204C46206F6E205209
:101930005820253764205B302C313D43522C323DFA
:101940004C465D0A0065632C656E61626C655F6381
:101950002C5B65635D2020656E61626C655F435240
:1019600020286F6E2054582925313264205B302C9A
:10197000315D0A0065652C656E61626C655F652C82
:101980005B65655D2020656E61626C655F6563689F
:101990006F20202020202025313264205B302C3124
:1019A0005D0A0065782C656E61626C655F782C5B02
:1019B00065785D2020656E61626C655F786F6E5F33
:1019C000786F6666202025313264205B302C315DD3
:1019D0000A0065712C656E61626C655F712C5B65D8
:1019E000715D2020656E61626C655F7175657565FE
:1019F0005F7265706F727473253964205B302C31AF
:101A00005D0A00656A2C656E61626C655F6A2C5BBD
:101A1000656A5D2020656E61626C655F6A736F6EDA
:101A20005F6D6F64652025313264205B302C315D41
:101A30000A00316D612C6D315F6D612C205B316D61
:101A4000615D206D315F6D61705F746F5F6178699A
:101A50007325313564205B303D582C20313D592EA3
:101A60002E2E5D0A003173612C6D315F732C2020A6
:101A70005B3173615D206D315F737465705F616EA2
:101A8000676C652532302E336625530A0031747237
:101A90002C6D315F74722C205B3174725D206D315E
:101AA0005F74726176656C5F7065725F7265766F88
:101AB0006C7574696F6E25392E336625530A0031B3
:101AC0006D692C6D315F6D692C205B316D695D2016
:101AD0006D315F6D6963726F73746570732025314A
:101AE0003564205B312C322C342C385D0A00317087
:101AF0006F2C6D315F706F6C2C5B31706F5D206D82
:101B0000315F706F6C6172697479202020253135E6
:101B100064205B302C315D0A0031706D2C6D315FBB
:101B2000706F772C5B31706D5D206D315F706F77FA
:101B300065725F6D616E6167656D656E74253130CC
:101B400064205B302C315D0A00326D612C6D325F98
:101B50006D612C205B326D615D206D325F6D617057
:101B60005F746F5F6178697325313564205B303D48
:101B7000582C20313D592E2E2E5D0A003273612CD7
:101B80006D325F732C20205B3273615D206D325F9C
:101B9000737465705F616E676C652532302E3366D5
:101BA00025530A003274722C6D325F74722C205BE4
:101BB0003274725D206D325F74726176656C5F7035
:101BC00065725F7265766F6C7574696F6E25392EFC
:101BD000336625530A00326D692C6D325F6D692CB6
:101BE000205B326D695D206D325F6D6963726F736A
:101BF000746570732025313564205B312C322C34B0
:101C00002C385D0A0032706F2C6D325F706F6C2C57
:101C10005B32706F5D206D325F706F6C61726974E2
:101C20007920202025313564205B302C315D0A007D
:101C300032706D2C6D325F706F772C5B32706D5D22
:101C4000206D325F706F7765725F6D616E61676581
:101C50006D656E7425313064205B302C315D0A0077
:101C6000336D612C6D335F6D612C205B336D615D75
:101C7000206D335F6D61705F746F5F61786973258C
:101C8000313564205B303D582C20313D592E2E2EAD
:101C90005D0A003373612C6D335F732C20205B333E
:101CA00073615D206D335F737465705F616E676C27
:101CB000652532302E336625530A003374722C6D3D
:101CC000335F74722C205B3374725D206D335F74EC
:101CD000726176656C5F7065725F7265766F6C7548
:101CE00074696F6E25392E336625530A00336D698A
:101CF0002C6D335F6D692C205B336D695D206D3316
:101D00005F6D6963726F737465707320253135641C
:101D1000205B312C322C342C385D0A0033706F2C50
:101D20006D335F706F6C2C5B33706F5D206D335F54
:101D3000706F6C61726974792020202531356420C0
:101D40005B302C315D0A0033706D2C6D335F706F2A
:101D5000772C5B33706D5D206D335F706F776572CC
:101D60005F6D616E6167656D656E742531306420ED
:101D70005B302C315D0A00346D612C6D345F6D6118
:101D80002C205B346D615D206D345F6D61705F741C
:101D90006F5F6178697325313564205B303D582C65
:101DA00020313D592E2E2E5D0A003473612C6D3486
:101DB0005F732C20205B3473615D206D345F73741E
:101DC00065705F616E676C652532302E3366255312
:101DD0000A003474722C6D345F74722C205B34747E
:101DE000725D206D345F74726176656C5F706572D0
:101DF0005F7265766F6C7574696F6E25392E336608
:101E000025530A00346D692C6D345F6D692C205B9D
:101E1000346D695D206D345F6D6963726F737465D5
:101E200070732025313564205B312C322C342C38F2
:101E30005D0A0034706F2C6D345F706F6C2C5B34F6
:101E4000706F5D206D345F706F6C617269747920A2
:101E5000202025313564205B302C315D0A00347040
:101E60006D2C6D345F706F772C5B34706D5D206D01
:101E7000345F706F7765725F6D616E6167656D6508
:101E80006E7425313064205B302C315D0A0078613E
:101E90006D2C785F612C5B78616D5D20785F617877
:101EA00069735F6D6F6465253138642025530A00BE
:101EB00078766D2C785F762C5B78766D5D20785F18
:101EC00076656C6F636974795F6D6178696D756D46
:101ED0002531352E336625532F6D696E0A007866DD
:101EE000722C785F662C5B7866725D20785F666521
:101EF0006564726174655F6D6178696D756D2531BA
:101F0000352E336625532F6D696E0A0078746D2C5B
:101F1000785F742C5B78746D5D20785F7472617685
:101F2000656C5F6D6178696D756D2531372E33662F
:101F300025530A00786A6D2C785F6A652C5B786A95
:101F40006D5D20785F6A65726B5F6D6178696D7534
:101F50006D2531352E306625532F6D696E5E330A3F
:101F600000786A642C785F6A752C5B786A645D20FF
:101F7000785F6A756E6374696F6E5F6465766961B8
:101F800074696F6E2531342E3466255320286C61B8
:101F90007267657220697320666173746572290ABD
:101FA0000078736D2C785F732C5B78736D5D20788F
:101FB0005F7377697463685F6D6F6465253136643C
:101FC000205B302C312C322C332C345D0A0078739A
:101FD000762C785F732C5B7873765D20785F736501
:101FE000617263685F76656C6F63697479253136F9
:101FF0002E336625532F6D696E0A00786C762C7827
:102000005F6C617463685F762C5B786C765D2078BA
:102010005F6C617463685F76656C6F636974792562
:1020200031372E336625532F6D696E0A00786C6246
:102030002C785F6C617463685F622C5B786C625DA6
:1020400020785F6C617463685F6261636B6F666662
:102050002531382E336625530A00787A622C785F52
:102060007A2C5B787A625D20785F7A65726F5F6246
:1020700061636B6F66662531392E336625530A001E
:1020800079616D2C795F612C5B79616D5D20795F81
:10209000617869735F6D6F646525313864202553FD
:1020A0000A0079766D2C795F762C5B79766D5D20F0
:1020B000795F76656C6F636974795F6D6178696D5E
:1020C000756D2531352E336625532F6D696E0A00E7
:1020D0007966722C795F662C5B7966725D20795F18
:1020E00066656564726174655F6D6178696D756D53
:1020F0002531352E336625532F6D696E0A007974AC
:102100006D2C795F742C5B79746D5D20795F7472CE
:102110006176656C5F6D6178696D756D2531372EFF
:10212000336625530A00796A6D2C795F6A652C5BEA
:10213000796A6D5D20795F6A65726B5F6D61786940
:102140006D756D2531352E306625532F6D696E5EA8
:10215000330A00796A642C795F6A752C5B796A644A
:102160005D20795F6A756E6374696F6E5F64657612
:10217000696174696F6E2531342E346625532028C9
:102180006C61726765722069732066617374657231
:10219000290A0079736D2C795F732C5B79736D5DFF
:1021A00020795F7377697463685F6D6F646525314B
:1021B0003664205B302C312C322C332C345D0A00F9
:1021C0007973762C795F732C5B7973765D20795FF8
:1021D0007365617263685F76656C6F636974792596
:1021E00031362E336625532F6D696E0A00796C7671
:1021F0002C795F6C617463685F762C5B796C765DBB
:1022000020795F6C617463685F76656C6F63697475
:10221000792531372E336625532F6D696E0A007983
:102220006C622C795F6C617463685F622C5B796CA3
:10223000625D20795F6C617463685F6261636B6F7C
:1022400066662531382E336625530A00797A622C6A
:10225000795F7A2C5B797A625D20795F7A65726F3B
:102260005F6261636B6F66662531392E3366255375
:102270000A007A616D2C7A5F612C5B7A616D5D205A
:102280007A5F617869735F6D6F64652531386420AA
:1022900025530A007A766D2C7A5F762C5B7A766D00
:1022A0005D207A5F76656C6F636974795F6D6178C4
:1022B000696D756D2531352E336625532F6D696E29
:1022C0000A007A66722C7A5F662C5B7A66725D20F1
:1022D0007A5F66656564726174655F6D6178696D6A
:1022E000756D2531352E336625532F6D696E0A00C5
:1022F0007A746D2C7A5F742C5B7A746D5D207A5FD2
:1023000074726176656C5F6D6178696D756D25318C
:10231000372E336625530A007A6A6D2C7A5F6A6518
:102320002C5B7A6A6D5D207A5F6A65726B5F6D61A6
:1023300078696D756D2531352E306625532F6D69A1
:102340006E5E330A007A6A642C7A5F6A752C5B7A57
:102350006A645D207A5F6A756E6374696F6E5F642C
:102360006576696174696F6E2531342E3466255344
:1023700020286C61726765722069732066617374CE
:102380006572290A007A736D2C7A5F732C5B7A73FD
:102390006D5D207A5F7377697463685F6D6F6465E4
:1023A00025313664205B302C312C322C332C345DBB
:1023B0000A007A73762C7A5F732C5B7A73765D20D1
:1023C0007A5F7365617263685F76656C6F63697469
:1023D000792531362E336625532F6D696E0A007AC2
:1023E0006C762C7A5F6C617463685F762C5B7A6CB8
:1023F000765D207A5F6C617463685F76656C6F638D
:102400006974792531372E336625532F6D696E0A2D
:10241000007A6C622C7A5F6C617463685F622C5B1B
:102420007A6C625D207A5F6C617463685F6261637D
:102430006B6F66662531382E336625530A007A7A2B
:10244000622C7A5F7A2C5B7A7A625D207A5F7A6599
:10245000726F5F6261636B6F66662531392E33661A
:1024600025530A0061616D2C615F612C5B61616DB8
:102470005D20615F617869735F6D6F6465253138D8
:10248000642025530A0061766D2C615F762C5B61B8
:10249000766D5D20615F76656C6F636974795F6DE1
:1024A0006178696D756D2531352E336625532F6D35
:1024B000696E0A006166722C615F662C5B616672F0
:1024C0005D20615F66656564726174655F6D6178EA
:1024D000696D756D2531352E336625532F6D696E07
:1024E0000A0061746D2C615F742C5B61746D5D20FA
:1024F000615F74726176656C5F6D6178696D756D31
:1025000020202531352E336625530A00616A6D2C53
:10251000615F6A652C5B616A6D5D20615F6A6572EF
:102520006B5F6D6178696D756D2531352E3066256F
:10253000532F6D696E5E330A00616A642C615F6AB5
:10254000752C5B616A645D20615F6A756E63746996
:102550006F6E5F646576696174696F6E2531342EC4
:10256000346625530A006172612C615F722C5B61D5
:1025700072615D20615F7261646975735F76616C21
:1025800075652532302E346625530A0061736D2C33
:10259000615F732C5B61736D5D20615F737769743C
:1025A00063685F6D6F646525313664205B302C3164
:1025B0002C322C332C345D0A006173762C615F73EE
:1025C0002C5B6173765D20615F7365617263685F28
:1025D00076656C6F636974792531362E33662553C1
:1025E0002F6D696E0A00616C762C615F6C6174639B
:1025F000685F762C5B616C765D20615F6C617463F3
:10260000685F76656C6F636974792531372E336640
:1026100025532F6D696E0A00616C622C615F6C61DD
:102620007463685F622C5B616C625D20615F6C61EA
:102630007463685F6261636B6F66662531382E3341
:102640006625530A00617A622C615F7A2C5B617A9D
:10265000625D20615F7A65726F5F6261636B6F6656
:10266000662531392E336625530A0062616D2C626E
:102670005F612C5B62616D5D20625F617869735F91
:102680006D6F6465253138642025530A0062766DCC
:102690002C625F762C5B62766D5D20625F76656C86
:1026A0006F636974795F6D6178696D756D2531351A
:1026B0002E336625532F6D696E0A006266722C6296
:1026C0005F662C5B6266725D20625F666565647240
:1026D0006174655F6D6178696D756D2531352E3377
:1026E0006625532F6D696E0A0062746D2C625F74EB
:1026F0002C5B62746D5D20625F74726176656C5FE5
:102700006D6178696D756D2531372E336625530AF5
:1027100000626A6D2C625F6A652C5B626A6D5D2087
:10272000625F6A65726B5F6D6178696D756D253189
:10273000352E306625532F6D696E5E330A00626A4E
:10274000642C625F6A752C5B626A645D20625F6AFA
:10275000756E6374696F6E5F646576696174696FC5
:102760006E2531342E346625530A006272612C6264
:102770005F722C5B6272615D20625F726164697579
:10278000735F76616C75652532302E346625530A89
:102790000062736D2C625F732C5B62736D5D2062EF
:1027A0005F7377697463685F6D6F64652531366444
:1027B000205B302C312C322C332C345D0A006273B8
:1027C000762C625F732C5B6273765D20625F73654B
:1027D000617263685F76656C6F6369747925313601
:1027E0002E336625532F6D696E0A00626C762C625B
:1027F0005F6C617463685F762C5B626C765D2062EF
:102800005F6C617463685F76656C6F63697479256A
:1028100031372E336625532F6D696E0A00626C6264
:102820002C625F6C617463685F622C5B626C625DDA
:1028300020625F6C617463685F6261636B6F666680
:102840002531382E336625530A00627A622C625F86
:102850007A2C5B627A625D20625F7A65726F5F627A
:1028600061636B6F66662531392E336625530A0026
:1028700063616D2C635F612C5B63616D5D20635FE1
:10288000617869735F6D6F64652531386420255305
:102890000A0063766D2C635F762C5B63766D5D203A
:1028A000635F76656C6F636974795F6D6178696D7C
:1028B000756D2531352E336625532F6D696E0A00EF
:1028C0006366722C635F662C5B6366725D20635F78
:1028D00066656564726174655F6D6178696D756D5B
:1028E0002531352E336625532F6D696E0A006374CA
:1028F0006D2C635F742C5B63746D5D20635F747219
:102900006176656C5F6D6178696D756D2531372E07
:10291000336625530A00636A6D2C635F6A652C5B1E
:10292000636A6D5D20635F6A65726B5F6D61786974
:102930006D756D2531352E306625532F6D696E5EB0
:10294000330A00636A642C635F6A752C5B636A6494
:102950005D20635F6A756E6374696F6E5F64657630
:10296000696174696F6E2531342E346625530A000F
:102970006372612C635F722C5B6372615D20635FC5
:102980007261646975735F76616C75652532302E8E
:10299000346625530A0063736D2C635F732C5B638D
:1029A000736D5D20635F7377697463685F6D6F64D7
:1029B0006525313664205B302C312C322C332C349D
:1029C0005D0A006373762C635F732C5B6373765DC3
:1029D00020635F7365617263685F76656C6F6369BE
:1029E00074792531362E336625532F6D696E0A00B2
:1029F000636C762C635F6C617463685F762C5B63D9
:102A00006C765D20635F6C617463685F76656C6F84
:102A1000636974792531372E336625532F6D696EBE
:102A20000A00636C622C635F6C617463685F622C84
:102A30005B636C625D20635F6C617463685F62619D
:102A4000636B6F66662531382E336625530A006343
:102A50007A622C635F7A2C5B637A625D20635F7AB3
:102A600065726F5F6261636B6F66662531392E3305
:102A70006625530A00673534782C6735345F782C27
:102A80005B673534785D206735345F785F6F6666E5
:102A90007365742532302E336625530A006735344A
:102AA000792C6735345F792C5B673534795D206725
:102AB00035345F795F6F66667365742532302E3307
:102AC0006625530A006735347A2C6735345F7A2CD3
:102AD0005B6735347A5D206735345F7A5F6F666691
:102AE0007365742532302E336625530A00673534FA
:102AF000612C6735345F612C5B673534615D20671D
:102B000035345F615F6F66667365742532302E33CE
:102B10006625530A00673534622C6735345F622CB2
:102B20005B673534625D206735345F625F6F666670
:102B30007365742532302E336625530A00673534A9
:102B4000632C6735345F632C5B673534635D2067C6
:102B500035345F635F6F66667365742532302E337C
:102B60006625530A00673535782C6735355F782C34
:102B70005B673535785D206735355F785F6F6666F2
:102B80007365742532302E336625530A0067353558
:102B9000792C6735355F792C5B673535795D206732
:102BA00035355F795F6F66667365742532302E3315
:102BB0006625530A006735357A2C6735355F7A2CE0
:102BC0005B6735357A5D206735355F7A5F6F66669E
:102BD0007365742532302E336625530A0067353508
:102BE000612C6735355F612C5B673535615D20672A
:102BF00035355F615F6F66667365742532302E33DD
:102C00006625530A00673535622C6735355F622CBF
:102C10005B673535625D206735355F625F6F66667D
:102C20007365742532302E336625530A00673535B7
:102C3000632C6735355F632C5B673535635D2067D3
:102C400035355F635F6F66667365742532302E338A
:102C50006625530A00673536782C6735365F782C41
:102C60005B673536785D206735365F785F6F6666FF
:102C70007365742532302E336625530A0067353666
:102C8000792C6735365F792C5B673536795D20673F
:102C900035365F795F6F66667365742532302E3323
:102CA0006625530A006735367A2C6735365F7A2CED
:102CB0005B6735367A5D206735365F7A5F6F6666AB
:102CC0007365742532302E336625530A0067353616
:102CD000612C6735365F612C5B673536615D206737
:102CE00035365F615F6F66667365742532302E33EB
:102CF0006625530A00673536622C6735365F622CCD
:102D00005B673536625D206735365F625F6F66668A
:102D10007365742532302E336625530A00673536C5
:102D2000632C6735365F632C5B673536635D2067E0
:102D300035365F635F6F66667365742532302E3398
:102D40006625530A00673537782C6735375F782C4E
:102D50005B673537785D206735375F785F6F66660C
:102D60007365742532302E336625530A0067353774
:102D7000792C6735375F792C5B673537795D20674C
:102D800035375F795F6F66667365742532302E3331
:102D90006625530A006735377A2C6735375F7A2CFA
:102DA0005B6735377A5D206735375F7A5F6F6666B8
:102DB0007365742532302E336625530A0067353724
:102DC000612C6735375F612C5B673537615D206744
:102DD00035375F615F6F66667365742532302E33F9
:102DE0006625530A00673537622C6735375F622CDA
:102DF0005B673537625D206735375F625F6F666698
:102E00007365742532302E336625530A00673537D3
:102E1000632C6735375F632C5B673537635D2067ED
:102E200035375F635F6F66667365742532302E33A6
:102E30006625530A00673538782C6735385F782C5B
:102E40005B673538785D206735385F785F6F666619
:102E50007365742532302E336625530A0067353882
:102E6000792C6735385F792C5B673538795D206759
:102E700035385F795F6F66667365742532302E333F
:102E80006625530A006735387A2C6735385F7A2C07
:102E90005B6735387A5D206735385F7A5F6F6666C5
:102EA0007365742532302E336625530A0067353832
:102EB000612C6735385F612C5B673538615D206751
:102EC00035385F615F6F66667365742532302E3307
:102ED0006625530A00673538622C6735385F622CE7
:102EE0005B673538625D206735385F625F6F6666A5
:102EF0007365742532302E336625530A00673538E2
:102F0000632C6735385F632C5B673538635D2067FA
:102F100035385F635F6F66667365742532302E33B4
:102F20006625530A00673539782C6735395F782C68
:102F30005B673539785D206735395F785F6F666626
:102F40007365742532302E336625530A0067353990
:102F5000792C6735395F792C5B673539795D206766
:102F600035395F795F6F66667365742532302E334D
:102F70006625530A006735397A2C6735395F7A2C14
:102F80005B6735397A5D206735395F7A5F6F6666D2
:102F90007365742532302E336625530A0067353940
:102FA000612C6735395F612C5B673539615D20675E
:102FB00035395F615F6F66667365742532302E3315
:102FC0006625530A00673539622C6735395F622CF4
:102FD0005B673539625D206735395F625F6F6666B2
:102FE0007365742532302E336625530A00673539F0
:102FF000632C6735395F632C5B673539635D206708
:1030000035395F635F6F66667365742532302E33C2
:103010006625530A00737230302C737230302C00E6
:10302000737230312C737230312C00737230322C49
:10303000737230322C00737230332C737230332C35
:1030400000737230342C737230342C00737230354C
:103050002C737230352C00737230362C737230360C
:103060002C00737230372C737230372C007372302F
:10307000382C737230382C00737230392C737230E4
:10308000392C00737231302C737231302C00737212
:1030900031312C737231312C00737231322C7372D6
:1030A00031322C00737231332C737231332C007334
:1030B0007231342C737231342C00737231352C73AD
:1030C0007231352C00737231362C737231362C000C
:1030D000737231372C737231372C00737231382C84
:1030E000737231382C00737231392C737231392C70
:1030F000007379732C7379732C00732C732C00314B
:103100002C312C00322C322C00332C332C00342C5C
:10311000342C00782C782C00792C792C007A2C7A9D
:103120002C00612C612C00622C622C00632C632C1F
:10313000006735342C6735342C006735352C6735FE
:10314000352C006735362C6735362C006735372C23
:103150006735372C006735382C6735382C006735D4
:10316000392C6735392C006739322C6739322C00FD
:10317000706F732C706F732C006D706F2C6D706F8F
:103180002C006D2C6D2C006E2C6E2C006F2C6F2C77
:1031900000242C242C00682C682C005B646973616B
:1031A000626C65645D005B7374616E646172645D22
:1031B000005B696E686962697465645D005B726179
:1031C000646975735D005B736C61766520585D00A2
:1031D0005B736C61766520595D005B736C6176652D
:1031E000205A5D005B736C6176652058595D005B09
:1031F000736C61766520585A5D005B736C6176650F
:1032000020595A5D005B736C6176652058595A5D90
:103210000020696E00206D6D0020646567004739ED
:1032200034202D20756E6974732D7065722D6D6953
:103230006E757465206D6F64652028692E652E207B
:103240006665656472617465206D6F646529004709
:103250003933202D20696E76657273652074696D2F
:1032600065206D6F646500473930202D20616273E1
:103270006F6C7574652064697374616E6365206D2D
:103280006F646500473931202D20696E6372656D6A
:10329000656E74616C2064697374616E6365206D22
:1032A0006F646500473631202D2065786163742096
:1032B00073746F70206D6F646500473634202D2065
:1032C000636F6E74696E756F7573206D6F646500E2
:1032D000473137202D20585920706C616E650047AA
:1032E0003138202D20585A20706C616E65004731AE
:1032F00039202D20595A20706C616E6500473020AE
:10330000202D206C696E6561722074726176657221
:10331000736520287365656B2900473120202D20B7
:103320006C696E65617220666565640047322020B5
:103330002D20636C6F636B77697365206172632006
:103340006665656400473320202D20636F756E74B9
:10335000657220636C6F636B77697365206172635C
:10336000206665656400473830202D2063616E63F8
:10337000656C206D6F74696F6E206D6F64652028B9
:103380006E6F6E6520616374697665290047353319
:10339000202D206D616368696E6520636F6F7264B4
:1033A000696E6174652073797374656D0047353497
:1033B000202D20636F6F7264696E6174652073796C
:1033C0007374656D203100473535202D20636F6F94
:1033D0007264696E6174652073797374656D2032EF
:1033E00000473536202D20636F6F7264696E6174FB
:1033F000652073797374656D203300473537202D50
:1034000020636F6F7264696E617465207379737481
:10341000656D203400473538202D20636F6F72644E
:10342000696E6174652073797374656D203500472A
:103430003539202D20636F6F7264696E6174652069
:1034400073797374656D203600473230202D206902
:103450006E63686573206D6F646500473231202D9F
:10346000206D696C6C696D65746572206D6F646543
:10347000004E6F7420486F6D656400486F6D656421
:10348000004F66660053796E6300506C616E0044B5
:103490006563656C00486F6C640053746F70005214
:1034A000756E00486F6C64004F66660053746172FD
:1034B00074656400486F6D696E670050726F626575
:1034C00000496E697469616C697A696E670052655A
:1034D000736574004379636C650053746F700045C5
:1034E0006E6400496E697469616C697A696E67001F
:1034F00052657365740053746F7000456E640052BA
:10350000756E00486F6C640050726F62650043799D
:10351000636C6500486F6D696E67004A6F6700FAFB
:1035200035FD3503360A360F36183623362B363737
:1035300036433651366836773684369836B036BDDF
:1035400036C136C536C936CD36DC36F136063715C6
:103550003719371D372137253729372D373137357B
:103560003739373D374137453749374D375137556B
:10357000376A3782379437AD37C337D937F13709D0
:10358000381B3839384D385138553859385D38611D
:1035900038653869386D38713882389638A838BD42
:1035A00038D538F1380539193934394C395B394552
:1035B0006E64206F6620636F6D6D616E6420666956
:1035C0006C650A0074696E7967005B696E63685D9B
:1035D000206F6B3E20005B6D6D5D206F6B3E2000A9
:1035E000255325530025532553006572726F723A97
:1035F0002025533A202573200A004F4B0045727254
:103600006F720045616761696E004E6F6F700043B5
:103610006F6D706C657465005465726D696E617470
:1036200065640041626F7274656400456E64206F6A
:1036300066206C696E6500456E64206F6620666961
:103640006C650046696C65206E6F74206F70656EE6
:10365000004D61782066696C652073697A65206524
:1036600078636565646564004E6F207375636820D8
:103670006465766963650042756666657220656D8E
:10368000707479004275666665722066756C6C2090
:103690002D20666174616C004275666665722066F5
:1036A000756C6C202D206E6F6E2D666174616C00E0
:1036B000496E697469616C697A696E670023313695
:1036C00000233137002331380023313900496E742B
:1036D00065726E616C206572726F7200496E7465FE
:1036E000726E616C2072616E6765206572726F72B6
:1036F00000466C6F6174696E6720706F696E74202C
:103700006572726F7200446976696465206279201F
:103710007A65726F0023323400233235002332364B
:10372000002332370023323800233239002333306C
:103730000023333100233332002333330023333467
:103740000023333500233336002333370023333847
:103750000023333900556E7265636F676E697A6551
:103760006420636F6D6D616E64004578706563748D
:10377000656420636F6D6D616E64206C6574746543
:103780007200426164206E756D62657220666F72B0
:103790006D617400496E7075742065786365656449
:1037A00073206D6178206C656E67746800496E7077
:1037B00075742076616C756520746F6F20736D6110
:1037C0006C6C00496E7075742076616C7565207440
:1037D0006F6F206C6172676500496E70757420763A
:1037E000616C75652072616E6765206572726F72BB
:1037F00000496E7075742076616C756520756E7306
:103800007570706F72746564004A534F4E207379FF
:103810006E746178206572726F72004A534F4E2049
:10382000696E7075742068617320746F6F206D61AC
:103830006E79207061697273004F7574206F662015
:103840006275666665722073706163650023353149
:10385000002335320023353300233534002335353A
:10386000002335360023353700233538002335391A
:10387000005A65726F206C656E677468206D6F7694
:10388000650047636F646520626C6F636B20736BC8
:1038900069707065640047636F646520696E707558
:1038A00074206572726F720047636F64652066658D
:1038B000656472617465206572726F720047636F30
:1038C0006465206178697320776F7264206D697315
:1038D00073696E670047636F6465206D6F64616C28
:1038E0002067726F75702076696F6C6174696F6E96
:1038F00000486F6D696E67206379636C652066614F
:10390000696C6564004D61782074726176656C2025
:103910006578636565646564004D617820737069DE
:103920006E646C6520737065656420657863656599
:1039300064656400417263207370656369666963DE
:103940006174696F6E206572726F72003C6E756C87
:103950006C206D6573736167653E004C6F616469CF
:103960006E6720636F6E666967732066726F6D2085
:10397000454550524F4D00456E7465722024646574
:103980006661756C74733D3120746F207265736568
:1039900074207468652073797374656D20746F206A
:1039A00074686520666163746F727920646566610E
:1039B000756C742076616C7565732E0A5468697332
:1039C0002077696C6C206F766572777269746520F8
:1039D000616E79206368616E67657320796F752009
:1039E00068617665206D6164652E0A0023232323B8
:1039F0002054696E794720524553544F5245204414
:103A0000454641554C54532048656C702023232370
:103A1000230A000A466F722064657461696C6564EC
:103A20002054696E794720696E666F207365653A28
:103A300020687474703A2F2F7777772E73796E74AD
:103A40006865746F732E636F6D2F77696B692F696B
:103A50006E6465782E7068703F7469746C653D5053
:103A6000726F6A656374733A54696E79470A466F78
:103A70007220746865206C61746573742066697265
:103A80006D77617265207365653A20687474707330
:103A90003A2F2F6769746875622E636F6D2F737983
:103AA0006E746865746F732F54696E79470A506C31
:103AB00065617365206C6F6720616E79206973732F
:103AC00075657320617420687474703A2F2F77774E
:103AD000772E73796E746865746F732E636F6D2FB4
:103AE000666F72756D730A486176652066756E0A39
:103AF00000496E766F6B652073656C662074657324
:103B00007420627920656E746572696E6720247412
:103B10006573743D4E207768657265204E20697329
:103B2000206F6E65206F663A0A20202474657374D6
:103B30003D312020736D6F6B6520746573740A20AE
:103B40002024746573743D3220206D6F74696F6E2C
:103B50002074657374202020286120736572696564
:103B600073206F662073717561726520616E6420C9
:103B7000636972636C65206D6F766573290A202016
:103B800024746573743D33202061726320746573FF
:103B90007420202020202028736F6D65206C6172B6
:103BA000676520636972636C6573290A2020247439
:103BB0006573743D3420206477656C6C2074657384
:103BC0007420202020286D6F7665732073706163E8
:103BD00065642062792031207365636F6E642064B0
:103BE00077656C6C73290A202024746573743D35E5
:103BF0002020686F6D696E672074657374202020C3
:103C000028796F75206D75737420747269702068DF
:103C10006F6D696E67207377697463686573290ACD
:103C2000202024746573743D3620206665656468C1
:103C30006F6C6420746573742028656E74657220DF
:103C40002120616E64207E20746F20686F6C642078
:103C5000616E6420726573746172742C2072657376
:103C6000706563746976656C79290A20202474650F
:103C700073743D3720204D20636F64657320746535
:103C800073742020284D20636F64657320696E74FF
:103C900065726D696E676C65642077697468206D04
:103CA0006F766573290A202024746573743D38206B
:103CB000204A534F4E207465737420202020202802
:103CC0006D6F74696F6E20746573742072756E20E9
:103CD0007573696E67204A534F4E20636F6D6D6137
:103CE0006E6473290A202024746573743D39202082
:103CF000696E76657273652074696D65207465738D
:103D0000740A202024746573743D313020726F74FE
:103D1000617279206D6F74696F6E20746573740AB7
:103D200000232323232054696E79472053454C46B2
:103D300020544553542048656C7020232323230AC4
:103D40000045616368202420636F6D6D616E64209F
:103D500061626F766520616C736F20646973706C4B
:103D60006179732074686520746F6B656E20666F6F
:103D70007220656163682073657474696E67206979
:103D80006E205B205D20627261636B6574730A5400
:103D90006F20766965772073657474696E67732028
:103DA000656E746572206120746F6B656E3A0A0AE5
:103DB0002020243C746F6B656E3E0A0A466F7220A9
:103DC0006578616D706C65202479667220746F204F
:103DD000646973706C6179207468652059206D6125
:103DE00078206665656420726174650A0A546F20E4
:103DF0007570646174652073657474696E6773208F
:103E0000656E74657220746F6B656E206571756187
:103E10006C732076616C75653A0A0A2020243C7424
:103E20006F6B656E3E3D3C76616C75653E0A0A4679
:103E30006F72206578616D706C6520247966723DC3
:103E400038303020746F2073657420746865205991
:103E5000206D6178206665656420726174652074E8
:103E60006F20383030206D6D2F6D696E7574650A66
:103E700000546865736520636F6D6D616E647320B7
:103E80006172652061637469766520666F72206374
:103E90006F6E66696775726174696F6E3A0A202089
:103EA000247379732053686F772073797374656D09
:103EB000202867656E6572616C292073657474696A
:103EC0006E67730A2020243120202053686F7720EA
:103ED0006D6F746F7220312073657474696E6773CF
:103EE00020286F72207768617465766572206D6F27
:103EF000746F7220796F752077616E7420312C3267
:103F00002C332C34290A2020247820202053686F59
:103F100077205820617869732073657474696E67BF
:103F20007320286F722077686174657665722061EE
:103F300078697320796F752077616E7420782C7999
:103F40002C7A2C612C622C63290A2020246D2020DD
:103F50002053686F7720616C6C206D6F746F7220D6
:103F600073657474696E67730A2020246E202020A4
:103F700053686F7720616C6C20617869732073657A
:103F80007474696E67730A202024242020205368EB
:103F90006F7720616C6C2073657474696E67730A47
:103FA0002020246820202053686F7720746869736C
:103FB0002068656C702073637265656E0A0A002361
:103FC0002323232054696E794720434F4E464947A7
:103FD00055524154494F4E2048656C70202323238D
:103FE000230A000A4E6F74653A2054696E7947209F
:103FF00067656E657261746573206175746F6D615C
:1040000074696320737461747573207265706F7264
:1040100074732062792064656661756C740A5468F3
:1040200069732063616E2062652064697361626CEC
:10403000656420627920656E746572696E672024FC
:1040400073693D300A536565207468652077696B34
:10405000692062656C6F7720666F72206D6F726584
:104060002064657461696C732E0A00546865736519
:1040700020636F6D6D616E64732061726520616392
:10408000746976652066726F6D2074686520636F51
:104090006D6D616E64206C696E653A0A205E7820F1
:1040A0002020202041626F72742028636F6E74722A
:1040B0006F6C207829202D207265736574732045FC
:1040C000564552595448494E47210A20203F202046
:1040D0002020204D616368696E6520706F7369747C
:1040E000696F6E20616E642067636F6465206D6F19
:1040F00064656C2073746174650A2020242020207C
:10410000202053686F7720616E642073657420638C
:104110006F6E66696775726174696F6E207365741E
:1041200074696E67730A20202120202020204665B4
:104130006564686F6C64202D2073746F70206D6FE0
:1041400074696F6E20776974686F7574206C6F7313
:10415000696E6720706F736974696F6E0A20207EC4
:1041600020202020204379636C6520537461727491
:10417000202D20726573746172742066726F6D20D9
:1041800066656564686F6C640A20206820202020C2
:104190002053686F7720746869732068656C70209D
:1041A00073637265656E0A202024682020202053E6
:1041B000686F7720636F6E66696775726174696F87
:1041C0006E2068656C702073637265656E0A2020CE
:1041D0002474657374204C6973742073656C662D48
:1041E00074657374730A20202464656661756C7449
:1041F000733D3120526573746F726520616C6C2061
:1042000073657474696E677320746F2022666163CE
:10421000746F7279222064656661756C74730A002C
:10422000232323232054696E79472048656C70202E
:10423000232323230A005F63616C63756C617465DB
:104240005F74726170657A6F69642829206661699C
:104250006C656420746F20636F6E766572676500AD
:104260007172007062006C780071720073720028C5
:104270004D53472A2A2A2A20536D6F6B65205465B7
:104280007374205B76315D202A2A2A2A290A473056
:1042900030204731372047323120473430204734EF
:1042A0003920473830204739300A473932205830D2
:1042B000205930205A300A473030207832300A787E
:1042C000300A7932300A79300A7A32300A7A300A82
:1042D0006132300A61300A4730302078323020793C
:1042E0003230207A3230206132300A473030207844
:1042F00030207930207A302061300A473031206612
:104300003230302078370A79370A7A370A61330A2F
:10431000673030207830207930207A3020613000CA
:10432000284D53472A2A2A2A2053717561726573D2
:10433000204D6F74696F6E2054657374205B763105
:104340005D202A2A2A2A290A6730306731376732E6
:10435000316734306734396738306739300A67304D
:10436000783230202874726176657273652061201E
:1043700032306D6D2073717561726520696E2058E1
:1043800020616E642059290A7932300A78300A791E
:10439000300A6731783130663530302028647261F8
:1043A0007720612031306D6D2073717561726520E9
:1043B000696E205820616E64205920617420463552
:1043C0003030290A7931300A78300A79300A67307A
:1043D0007A323020287472617665727365206120AC
:1043E00032306D6D2073717561726520696E205871
:1043F00020616E64205A290A7832300A7A300A78AD
:10440000300A67317832307932307A32306635307E
:104410003020286665656420612032306D6D20642F
:104420006961676F6E616C20696E20582C2059207D
:10443000616E64205A290A783079307A300A7834EB
:10444000307934307A34300A78343079307A300A3E
:1044500078307934307A34300A7834307934307ABC
:10446000300A783079307A34300A78307934307ADA
:10447000300A78343079307A34300A783079307ACA
:10448000300A6738300A6D333000284D53472A2AE6
:104490002A2A204172632054657374205B76315D53
:1044A000202A2A2A2A290A673030673137673231B1
:1044B0006734306734396738306739300A673932E2
:1044C000783079300A663530300A673278313079A1
:1044D0002D31306931302028435720323730206465
:1044E000656772656573290A6730783079300A67C5
:1044F00033783130792D31306931302028434357BA
:104500002039302064656772656573290A673078E1
:104510003079300A6732783230793069313020288A
:104520004357203138302064656772656573290A06
:104530006730783079300A673378323079306931D2
:104540003020284343572031383020646567726536
:104550006573290A6730783079300A6732783079A4
:104560003069323020284357203336302064656765
:1045700072656573290A6732783079306932302084
:104580002843572033363020616761696E290A66F7
:1045900037303020286368616E6765206665656422
:1045A0002072617465207768696C6520696E2047A8
:1045B00032206D6F74696F6E206D6F6465290A67B4
:1045C0003278307930693230202843572033363002
:1045D000203372642074696D65290A6732783079F6
:1045E0003069323020284357203336302034746805
:1045F0002074696D65290A663530300A6733783072
:1046000079306932302028434357203336302064D4
:10461000656772656573290A673378307930693266
:104620003020284343572033363020616761696E5C
:10463000290A6637303020286368616E6765206616
:104640006565642072617465207768696C652069AE
:104650006E204733206D6F74696F6E206D6F6465D7
:10466000290A67337830793069323020284343573C
:1046700020333630203372642074696D65290A67EF
:10468000337830793069323020284343572033362D
:1046900030203474682074696D65290A6738300ADF
:1046A0006D333000284D53472A2A2A2A2044776543
:1046B0006C6C2054657374205B76315D202A2A2A45
:1046C0002A290A6730306731376732316739300A53
:1046D000663530300A67307831300A673470310A15
:1046E00067307832300A673470310A673078313099
:1046F0000A673470310A67307830300A67347031B5
:104700000A79350A6D333000284D53472A2A2A2A60
:1047100020486F6D696E672054657374205B763135
:104720005D202A2A2A2A290A6732382E31783079E0
:10473000307A300A6D333000284D53472A2A2A2A0E
:104740002046656564686F6C642054657374205BF3
:1047500076315D202A2A2A2A290A284D53472A2AF7
:104760002A2A204D616E75616C6C7920656E7465C6
:1047700072202120616E64207E20647572696E67EC
:10478000206D6F76656D656E7420746F207465732F
:1047900074202A2A2A2A290A673470330A6730309B
:1047A000673137673231673430673439673830679B
:1047B00039300A663630300A673078313030763733
:1047C000362E3736350A783079300A6D3330002886
:1047D0004D53472A2A2A2A204D636F64657320743B
:1047E000657374205B76315D202A2A2A2A290A6D96
:1047F000330A673470310A6D350A673470310A6DD7
:10480000340A673470310A6D350A673470310A6DC5
:10481000370A673470310A6D390A673470310A6DAE
:10482000380A673470310A6D390A663530300A67E4
:10483000307832300A7932300A6D330A78300A6DB6
:10484000340A79300A6D350A67317831300A6D37AC
:104850000A7931300A6D380A78300A6D390A7930B0
:104860000A6732783130792D31306931300A6D3351
:104870000A6730783079300A6D340A67337831301E
:10488000792D31306931300A6D350A6730783079E9
:10489000300A6D370A673278323079306931300A40
:1048A0006D380A6730783079300A6D390A673378A5
:1048B000323079306931300A6730783079300A67C0
:1048C00032783079306931300A673378307930693D
:1048D00031300A6D3330007B226763223A22673021
:1048E0003067313767323167343067343967383091
:1048F000673930227D0A7B226763223A226635308F
:1049000030227D0A7B226763223A22284D53477367
:1049100071756172657329227D0A7B226763223A71
:10492000226730783230227D0A7B226763223A2266
:10493000793230227D0A7B226763223A2278302244
:104940007D0A7B226763223A227930227D0A7B220C
:104950006763223A226731783130227D0A7B2267F1
:1049600063223A22793130227D0A7B226763223A20
:10497000227830227D0A7B226763223A2279302214
:104980007D0A7B226763223A22284D53476369726E
:10499000636C657329227D0A7B226763223A226752
:1049A00032783130792D3130693130227D0A7B22E5
:1049B0006763223A22673078307930227D0A7B2281
:1049C0006763223A226733783130792D313069318B
:1049D00030227D0A7B226763223A22673078307961
:1049E00030227D0A7B226763223A22673278323096
:1049F0007930693130227D0A7B226763223A22674F
:104A00003078307930227D0A7B226763223A226730
:104A1000337832307930693130227D0A7B22676306
:104A2000223A22673078307930227D0A7B22676310
:104A3000223A22673278307930693130227D0A7B20
:104A4000226763223A226733783079306931302225
:104A50007D0A7B226763223A226D3330227D002853
:104A60004D53472A2A2A2A20496E7665727365209B
:104A700054696D65204D6F74696F6E205465737451
:104A8000205B76315D202A2A2A2A290A673030677E
:104A900031376732316734306734396738306739D6
:104AA000300A6739330A66302E30310A673178317F
:104AB000300A7931300A7A31300A6131300A78307F
:104AC0000A79300A7A300A61300A673178313079F0
:104AD00031307A31306131300A6730783079307A6C
:104AE0003061300A66302E310A6732783130792DE4
:104AF00031307A32306931300A6730783079307A43
:104B0000300A6733783130792D31307A323069317B
:104B1000300A6730783079307A300A67327832304C
:104B200079307A32306931300A6730783079307ACA
:104B3000300A673378323079306931300A6730783B
:104B40003079307A300A6732783079307A333069A8
:104B500031300A6733783079307A306931300A671A
:104B600039340A6D333000284D53472A2A2A2A2027
:104B7000526F746172792041786973204D6F746946
:104B80006F6E2054657374205B76315D202A2A2A6B
:104B90002A290A6730306731376732316734306726
:104BA00034396738306739300A6730783079307A8D
:104BB000306130623063300A6633363030300A6735
:104BC00030613336300A623336300A633336300AA6
:104BD00061300A62300A63300A673161313434303F
:104BE0000A62313434300A63313434300A61300AB5
:104BF00062300A63300A67316131343430623732EF
:104C000030633336300A783079307A306130623050
:104C100063300A6731783130306131343430623793
:104C20003230633336300A783079307A306130622E
:104C30003063300A67317831303079353061313462
:104C4000343062373230633336300A783079307A34
:104C5000306130623063300A673178313030793515
:104C60003078323561313434306237323063333644
:104C7000300A783079307A306130623063300A6DD2
:104C8000333000284D53472A2A2A2A20546573744A
:104C900020766572792073686F7274206D6F766507
:104CA00073205B76315D202A2A2A2A290A24736917
:104CB0003D333030300A673178302E316631303054
:104CC000300A78300A78302E3100284D53472A2A8E
:104CD0002A2A205465737420616363757261637955
:104CE000206F6620736C6F77206D6F766573205B25
:104CF00076315D202A2A2A2A290A67317A2D3566DB
:104D00003232004E31204732300A4E35204734309F
:104D1000204731370A4E3130205431204D30360A89
:104D2000284E31352047393020473020583020591F
:104D300030205A30290A4E3230205335303030205E
:104D40004D3033200A4E32352058302E3036342044
:104D500059302E333236205A300A4E343020473004
:104D600031204631362E300A4E35302058302E3024
:104D700036342059302E3332360A4E3535205830ED
:104D80002E3036302059302E3239330A4E3630200C
:104D900058302E3037372059302E3236370A4E36BB
:104DA000352058302E3131312059302E3235370AE6
:104DB0004E37302058302E3134392059302E32358C
:104DC000320A4E37352058302E3138382059302E9F
:104DD0003235350A4E38302058302E32323720598D
:104DE000302E3236380A4E38352058302E3235378C
:104DF0002059302E3237310A4E39302058302E3378
:104E000033352059302E3236350A4E393520583058
:104E10002E3431322059302E3237310A4E31303073
:104E20002058302E3437342059302E3238370A4E3D
:104E30003130352058302E3439312059302E323827
:104E4000390A4E3131302058302E35313720593023
:104E50002E3237330A4E3131352058302E35343426
:104E60002059302E3236330A4E3132302058302E0F
:104E70003538302059302E3236310A4E3132352015
:104E800058302E3539352059302E3236330A4E31CE
:104E900033302058302E3632312059302E323734CC
:104EA0000A4E3133352058302E3635392059302EC0
:104EB0003330360A4E3134302058302E36373320D6
:104EC00059302E3333350A4E3134352058302E3692
:104ED00037392059302E3336310A4E31353020588B
:104EE000302E3637382059302E3338390A4E313586
:104EF000352058302E3637302059302E3432300A93
:104F00004E3136302058302E3637302059302E343E
:104F100034360A4E3136352058302E363830205946
:104F2000302E3437340A4E3137302058302E373057
:104F3000342059302E3439370A4E31373520583025
:104F40002E3733322059302E3531350A4E31383034
:104F50002058302E3739342059302E3533350A4E0B
:104F60003138352058302E3837322059302E3536EA
:104F7000370A4E3139302058302E393530205930EB
:104F80002E3630340A4E3139352058312E303331F7
:104F90002059302E3634370A4E3230302058312ED8
:104FA0003134392059302E3732320A4E32303520E2
:104FB00058312E3330382059302E3835340A4E329D
:104FC00031302058312E3433302059302E39383496
:104FD0000A4E3231352058312E3434372059302E94
:104FE0003938360A4E3232302058312E3632382097
:104FF00059302E3832320A4E3232352058312E375F
:1050000033322059302E3731340A4E323330205863
:10501000322E3030392059302E3338310A4E323367
:10502000352058322E3131362059302E3236360A5C
:105030004E3234302058322E3232382059302E3110
:1050400035370A4E3234352058322E323830205916
:10505000302E3132330A4E3235302058322E33332F
:10506000322059302E3039340A4E323535205832FC
:105070002E3432332059302E3037300A4E3236300B
:105080002058322E3438392059302E3036350A4ED9
:105090003236352058322E3535372059302E3036BD
:1050A000360A4E3237302058322E363237205930B9
:1050B0002E3038340A4E3237352058322E363933B6
:1050C0002059302E3130390A4E3238302058322EA5
:1050D0003733302059302E3133330A4E32383520B1
:1050E00058322E3830352059302E3139300A4E3270
:1050F00039302058322E3832392059302E3231365C
:105100000A4E3239352058322E3838302059302E58
:105110003239310A4E3330302058322E383834206C
:1051200059302E3330300A4E3330352058322E3835
:1051300039382059302E3333320A4E33313020582B
:10514000322E3930352059302E3336370A4E33312E
:10515000352058322E3931302059302E3430370A2C
:105160004E3332302058322E3930382059302E34D8
:1051700034360A4E3332352058322E3930312059E8
:10518000302E3439350A4E3333302058322E3839E8
:10519000372059302E3439350A4E333335205832C2
:1051A0002E3839302059302E3532340A4E333430CF
:1051B0002058322E3834322059302E3630340A4EB0
:1051C0003334352058322E3831342059302E36368B
:1051D000350A4E3335302058322E37393420593085
:1051E0002E3735300A4E3335352058322E37393187
:1051F0002059302E3833380A4E3336302058322E6C
:105200003831392059302E3937360A4E3336352069
:1052100058322E3833372059312E3034340A4E3339
:1052200037302058322E3836322059312E31313233
:105230000A4E3337352058322E3837372059312E21
:105240003134350A4E3338302058322E393132203D
:1052500059312E3231370A4E3338352058322E39F3
:1052600031372059312E3232360A4E3339302058F8
:10527000322E3935312059312E3238310A4E3339F8
:10528000352058322E3937302059312E3239350AEF
:105290004E3430302058322E3939362059312E32A2
:1052A00039350A4E3430352058332E3031332059B9
:1052B000312E3237350A4E3431302058332E3032C9
:1052C000342059312E3235340A4E3431352058339A
:1052D0002E3037302059312E3135310A4E343230AC
:1052E0002058332E3037372059312E3133340A4E7F
:1052F0003432352058332E3132352059312E303367
:10530000390A4E3433302058332E31333820593156
:105310002E3031390A4E3433352058332E32303561
:105320002059302E3930380A4E3434302058332E3C
:105330003238322059302E3739370A4E343435203E
:1053400058332E3336312059302E3639310A4E3407
:1053500035302058332E3432362059302E353932FC
:105360000A4E3435352058332E3435362059302EF8
:105370003534330A4E3436302058332E3437392002
:1053800059302E3439330A4E3436352058332E34C2
:1053900039342059302E3437320A4E3437302058C1
:1053A000332E3530352059302E3434360A4E3437CA
:1053B000352058332E3531382059302E3431370AC4
:1053C0004E3438302058332E3533302059302E3378
:1053D00039310A4E3438352058332E353634205979
:1053E000302E3330300A4E3439302058332E353792
:1053F000372059302E3235330A4E34393520583360
:105400002E3536382059302E3231320A4E35303072
:105410002058332E3534342059302E3137360A4E49
:105420003530352058332E3534312059302E313433
:10543000360A4E3531302058332E35353320593029
:105440002E3131390A4E3531352058332E35373625
:105450002059302E3130360A4E3532302058332E16
:105460003539372059302E3130320A4E3532352019
:1054700058332E3631382059302E3130390A4E35D6
:1054800033302058332E3633392059302E313239CB
:105490000A4E3533352058332E3635302059302ECC
:1054A0003135390A4E3534302058332E36363320D4
:1054B00059302E3137380A4E3534352058332E3690
:1054C00037382059302E3139320A4E353530205890
:1054D000332E3639392059302E3139370A4E353589
:1054E000352058332E3732332059302E3139360A91
:1054F0004E3536302058332E3736342059302E3141
:1055000037390A4E3536352058332E383035205944
:10551000302E3136350A4E3537302058332E383854
:10552000342059302E3135390A4E3537352058332D
:105530002E3934392059302E3136350A4E3538302F
:105540002058332E3936362059302E3137350A4E11
:105550003538352058332E3937382059302E3139E7
:10556000340A4E3539302058332E393738205930E7
:105570002E3232330A4E3539352058332E393630F3
:105580002059302E3234350A4E3630302058332EE2
:105590003833342059302E3331310A4E36303520ED
:1055A00058332E3736322059302E3334350A4E36A2
:1055B00031302058332E3732362059302E33383997
:1055C0000A4E3631352058332E3730332059302E9D
:1055D0003435380A4E3632302058332E36383220A1
:1055E00059302E3533300A4E3632352058332E3668
:1055F00037392059302E3533340A4E36333020585F
:10560000332E3632362059302E3638310A4E363364
:10561000352058332E3536382059302E3832380A56
:105620004E3634302058332E3434342059312E3015
:1056300038300A4E3634352058332E343035205920
:10564000312E3136370A4E3635302058332E34302D
:10565000342059312E3136370A4E363535205833FD
:105660002E3338372059312E3230380A4E36363004
:105670002058332E3338342059312E3230380A4EE8
:105680003636352058332E3336352059312E3236C2
:10569000350A4E3637302058332E333535205931C0
:1056A0002E3238350A4E3637352058332E333438BB
:1056B0002059312E3330380A4E3638302058332EA8
:1056C0003333332059312E3335300A4E36383520B6
:1056D00058332E3332312059312E3339310A4E3678
:1056E00039302058332E3331312059312E3432386D
:1056F0000A4E3639352058332E3333392059312E5E
:105700003432330A4E3730302058332E3434302080
:1057100059312E3430360A4E3730352058332E3535
:1057200031302059312E3430380A4E37313020583C
:10573000332E3538352059312E3432310A4E373137
:10574000352058332E3631312059312E3433390A31
:105750004E3732302058332E3631312059312E34E5
:1057600034310A4E3732352058332E3631352059F0
:10577000312E3434310A4E3733302058332E3633FD
:10578000362059312E3438380A4E373335205833C5
:105790002E3633342059312E3531370A4E373430D6
:1057A0002058332E3632322059312E3534330A4EBA
:1057B0003734352058332E3630352059312E353692
:1057C000330A4E3735302058332E3537362059318D
:1057D0002E3537350A4E3735352058332E3534348B
:1057E0002059312E3538310A4E3736302058332E75
:1057F0003437392059312E3539320A4E3736352073
:1058000058332E3435312059312E3539380A4E3738
:1058100037302058332E3338372059312E36323630
:105820000A4E3737352058332E3339302059312E30
:105830003633360A4E3738302058332E353332203F
:1058400059312E3630320A4E3738352058332E36FD
:1058500030312059312E3539370A4E3739302058FA
:10586000332E3636382059312E3539380A4E3739ED
:10587000352058332E3738322059312E3631320AFE
:105880004E3830302058332E3739342059312E36A7
:1058900031380A4E3830352058332E3836382059B2
:1058A000312E3633360A4E3831302058332E3931C6
:1058B000382059312E3635350A4E38313520583397
:1058C0002E3934352059312E3636370A4E3832309B
:1058D0002058332E3936342059312E3638350A4E79
:1058E0003832352058332E3936372059312E363854
:1058F000350A4E3833302058332E39373420593159
:105900002E3639390A4E3833352058332E3938344B
:105910002059312E3732350A4E3834302058332E44
:105920003938342059312E3735380A4E383435203D
:1059300058332E3937302059312E3739300A4E3806
:1059400035302058332E3934352059312E383137FF
:105950000A4E3835352058332E3931382059312EFA
:105960003832360A4E3836302058332E3839312006
:1059700059312E3832370A4E3836352058332E38C2
:1059800034322059312E3830390A4E3837302058C9
:10599000332E3739382059312E3738340A4E3837BC
:1059A000352058332E3734362059312E3737320AC6
:1059B0004E3838302058332E3639382059312E376A
:1059C00036340A4E3838352058332E363335205980
:1059D000312E3736360A4E3839302058332E353589
:1059E000332059312E3738350A4E3839352058335F
:1059F0002E3437382059312E3832300A4E39303073
:105A00002058332E3430392059312E3836340A4E4E
:105A10003930352058332E3334352059312E393131
:105A2000380A4E3931302058332E3236342059322C
:105A30002E3032330A4E3931352058332E32343835
:105A40002059322E3035310A4E3932302058332E1B
:105A50003234302059322E3038310A4E3932352026
:105A600058332E3331362059322E3038360A4E39DB
:105A700033302058332E3339302059322E313034E0
:105A80000A4E3933352058332E3431342059322ED2
:105A90003132310A4E3934302058332E34333120EC
:105AA00059322E3135330A4E3934352058332E349D
:105AB00033332059322E3138300A4E3935302058A0
:105AC000332E3432372059322E3230350A4E3935A2
:105AD000352058332E3431332059322E3232340AA5
