
:100000000C94CD350C94EE350C94EE350C94EE3505
:100010000C94EE350C94EE350C94EE350C94EE35D4
:100020000C94EE350C94EE350C94EE350C94EE7B7E
:100030000C94EE350C94EE350C9478770C94EE35E8
:100040000C94EE350C94EE350C94EE350C94EE35A4
:100050000C94EE350C94EE350C94EE350C94EE3594
:100060000C94EE350C94747F0C94247F0C94EE3534
:100070000C945A820C94FA810C9438820C94EE35CC
:100080000C942B7C0C94EE350C94EE350C94EE35E0
:100090000C94EE350C94EE350C94EE350C94EE3554
:1000A0000C94EE350C94EE350C94EE350C942F68D0
:1000B0000C9497680C94EE350C94EE350C940D77F7
:1000C0000C94EE350C94EE350C94EE350C94EE3524
:1000D0000C94EE350C94EE350C94EE350C94EE3514
:1000E0000C94BA850C94EE350C94EE350C94EE35E8
:1000F0000C94EE350C94EE350C94EE350C94EE35F4
:100100000C9415680C947D680C94FB670C946368E0
:100110000C94EE350C94EE350C94EE350C94EE35D3
:100120000C94EE350C94EE350C94EE350C94EE35C3
:100130000C94EE350C9437770C94EE350C94EE3528
:100140000C94EE350C94EE350C94EE350C94EE35A3
:100150000C94EE350C94EE350C94B0850C94EE3581
:100160000C94EE350C94EE350C94EE350C94EE3583
:100170000C94EE350C94EE350C94EE350C94EE3573
:100180000C94EE350C94EE350C94EE350C94EE3563
:100190000C94EE350C94EE350C94EE350C94EE3553
:1001A0000C9449680C94B1680C94EE350C94EE35BF
:1001B0000C94FE790C94EE350C94EE350C94EE35DF
:1001C0000C94EE350C94EE350C94EE350C94EE3523
:1001D0000C94EE350C94EE350C94EE350C94EE3513
:1001E0000C94EE350C94EE35D164E664FB648D67B7
:1001F0008D6753646E628D67106525653A657E650F
:10020000CB6364658D6768648D674F657D64466404
:100210008D678D678D679264A764BC64084AD73B7D
:100220003BCE016E84BCBFFDC12F3D6C74319ABDC5
:1002300056833DDA3D00C77F11BED9E4BB4C3E91E9
:100240006BAAAABE000000803F05A84CCDB2D44ED8
:10025000B93836A9020C50B9918688083CA6AAAADA
:100260002ABE000000803F07634236B79BD8A71A1A
:1002700039685618AEBAAB558C1D3CB7CC5763BD28
:100280006DEDFD753EF6177231BF000000803F082E
:10029000000000BE922449123EABAAAA2ABECDCCD1
:1002A000CC4C3E00000080BEABAAAAAA3E000000D3
:1002B00000BF000000803F0000000000084178D32C
:1002C000BB4387D1133D190E3CC3BD4282AD2B3ECB
:1002D00068EC8276BED98FE1A93E4C80EFFFBE016B
:1002E000C4FF7F3F00000000006E616E00696E6613
:1002F00000454D455247454E4359205348555444B7
:100300004F574E0A007B226572223A22456D657274
:1003100067656E6379207368757420646F776E22E9
:100320007D0A007379730066620000000007C51F34
:100330008B4B6D46A8454435A490B5437379730043
:1003400066760000000007E11F8B4B6D46A845480C
:10035000353333733F73797300687600000000070C
:10036000FF1F8B4B6D466C514C350000E04073799C
:100370007300696400000000041D20364B5F51A823
:1003800045A13200000000000000006E00000000E7
:1003900000013120D44A4846D145812200000000A6
:1003A000000000006C696E650000013120D44A4FE6
:1003B00051D1458122000000000000000066656503
:1003C000640000004520D44DA04DA845A132000096
:1003D000000000000000737461740000005D2036AE
:1003E0004B4151A845A13200000000000000006D03
:1003F0006163730000007620364B3351A845A1326B
:100400000000000000000000637963730000008FAB
:1004100020C74A7B5488456A330000000000000072
:10042000006D6F7473000000A820C74A6D548845A2
:100430006A330000000000000000686F6C64000078
:1004400000C120C74A5F5488456A3300000000009D
:1004500000000076656C00000000DA20024DB44F09
:1004600088456A330000000000000000756E697462
:10047000000000F120C74A515488456A330000004B
:100480000000000000636F6F720000000A21C74A7D
:10049000435488456A3300000000000000006D6F7F
:1004A0006D6F0000002321C74A355488456A330028
:1004B00000000000000000706C616E0000003C2134
:1004C000C74A275488456A33000000000000000036
:1004D000706174680000005521C74A195488456A44
:1004E0003300000000000000006469737400000025
:1004F0006E21C74A0B5488456A3300000000000093
:10050000000066726D6F0000008721C74AFD5388A6
:10051000456A3300000000706F7300706F737800DD
:100520000004A021974E9F4F88456A3300000000C9
:10053000706F7300706F7379000004B521974E9F40
:100540004F88456A3300000000706F7300706F734E
:100550007A000004CA21974E9F4F88456A330000F5
:100560000000706F7300706F7361000004DF2197EB
:100570004E9F4F88456A3300000000706F73007013
:00000001FF
