:100000000C9440350C9461350C9461350C94613539
:100010000C9461350C9461350C9461350C94613508
:100020000C9461350C9461350C9461350C94C49238
:100030000C9461350C9461350C94BD8E0C94613533
:100040000C9461350C9461350C9461350C946135D8
:100050000C9461350C9461350C9461350C946135C8
:100060000C9461350C94EF950C94A5950C94613526
:100070000C94469A0C94E6990C94249A0C9461354D
:100080000C94FF920C9461350C9461350C9461359D
:100090000C9461350C9461350C9461350C94613588
:1000A0000C9461350C9461350C9461350C94CF6BD4
:1000B0000C94276B0C9461350C9461350C94528E22
:1000C0000C9461350C9461350C9461350C94613558
:1000D0000C9461350C9461350C9461350C94613548
:1000E0000C94BA9F0C9461350C9461350C94613575
:1000F0000C9461350C9461350C9461350C94613528
:100100000C94A56B0C94FD6A0C94236C0C947B6B83
:100110000C9461350C9461350C9461350C94613507
:100120000C9461350C9461350C9461350C946135F7
:100130000C9461350C947C8E0C9461350C94613573
:100140000C9461350C9461350C9461350C946135D7
:100150000C9461350C9461350C94B09F0C9461350E
:100160000C9461350C9461350C9461350C946135B7
:100170000C9461350C9461350C9461350C946135A7
:100180000C9461350C9461350C9461350C94613597
:100190000C9461350C9461350C9461350C94613587
:1001A0000C94F96B0C94516B0C9461350C94613583
:1001B0000C9443910C9461350C9461350C94613529
:1001C0000C9461350C9461350C9461350C94613557
:1001D0000C9461350C9461350C9461350C94613547
:1001E0000C9461350C94613548675D6772676F697F
:1001F0006F69CA66BF646F6987679C67B167F56797
:100200005566DB676F69DF666F69C667F466BD6652
:100210006F696F696F6909671E673367084AD73B63
:100220003BCE016E84BCBFFDC12F3D6C74319ABDC5
:1002300056833DDA3D00C77F11BED9E4BB4C3E91E9
:100240006BAAAABE000000803F05A84CCDB2D44ED8
:10025000B93836A9020C50B9918688083CA6AAAADA
:100260002ABE000000803F6E616E00696E6600EE7F
:10027000106C51704CA64B4A316686AC4318116C19
:1002800051704CA64B46313333733F44111C51DC43
:100290004AA64B4E31000000005F116C514A4CDE03
:1002A0004AD333000048439711645760579C584E17
:1002B0003100000000A411914C6255A64B4E310054
:1002C000000000B0111C514B55A64B4E31000000F0
:1002D00000D9111C513B55D04B723000000000F981
:1002E000111C512B5518554E31000000001412C33B
:1002F000538E53A64B4E31000000003612DC500ADC
:1003000055A64B4E31000000005912DC50FC54A69B
:100310004B4E31000000007C12DC50EE54A64B4ED8
:1003200031000000009F12DC50E054A64B4E31001B
:10033000000000C212DC50D254A64B4E3100000027
:1003400000E512C353B154A64B4E31000000000922
:1003500013DC508053A64B4E31000000002C13DC00
:1003600050A354A64B4E31000000004F13DC5095B3
:1003700054A64B4E31000000007213DC508754A687
:100380004B4E31000000009513DC507954A64B4EC3
:100390003100000000B813DC506B54A64B4E310006
:1003A000000000DB13DC505D54A64B4E3100000012
:1003B00000FE131D534854A64B4E31000000001D93
:1003C000141D534854A64B4E31000000003C141D30
:1003D000534854A64B4E31000000005B141D534897
:1003E00054A64B4E31000000007A141D534854A609
:1003F0004B4E310000000099141D534854A64B4E3B
:100400003100000000B8141D533354A64B4E310088
:10041000000000DC141D533354A64B4E3100000085
:100420000000151D533354A64B4E3100000000242C
:10043000151D533354A64B4E310000000048151DC6
:10044000533354A64B4E31000000006C151D53333E
:1004500054A64B4E31000000009015C3538E53A696
:100460004BA63000000000B415C3538E53A64BAA10
:100470003000000000D815C3538E53A64BAE300099
:10048000000000FC158E50704CA64BB230000000EE
:100490000020168E50704CA64BB630000000004471
:1004A000168E50704CA64BBA3000000000681685BE
:1004B0006C244C11925231000000007316B66C1F70
:1004C0004CA64B4E31000000007E16546C1F4C0FA2
:1004D000594E31000000008916DC501F4CA64B4ECF
:1004E000310000000095164650244CA84BC933003B
:1004F000000000C9164650244CA84BCA33000080A7
:100500003FFB164650244CA84BC8330000803F2DBB
:10051000174650244CA84BCB3300000040611746CF
:1005200050244CA84BCC33000000009317914C9200
:100530004C21544E3100000000A017C3538E53C607
:1005400052C33300504348CC17C3538E53C652B7DF
:10055000330AD7A33DF817C3538E53C652BB33CDCE
:10056000CCCC3D2418C353704CFB4BBF3300409C94
:100570004553184650244C6B58CD33000000008E74
:10058000184650244C5158CE3300000000BD184688
:1005900050244C3758CF3300000000EC184650244C
:1005A0004C1D58D0330000803F1B194650244CA8E6
:1005B0004BD1330000803F4C194650244CA84BD2FD
:1005C000330000803F7B194650244CA84BA93400CF
:1005D000000000AE198E50704C424FAD346666E696
:1005E0003FD619C3538E531153B134F62812420823
:1005F0001A4650244C1452AA3400000041371A46BF
:1006000050244CDA51AB3400000000621A465024EA
:100610004CA84BAC340000803F921A4650244CA8A2
:100620004BB9340000803FC51A8E50704C424FBD0C
:10063000346666E63FED1AC3538E531153C134F648
:100640002812421F1B4650244C1452BA340000009A
:10065000414E1B4650244CDA51BB340000803F7998
:100660001B4650244CA84BBC340000803FA91B46BD
:1006700050244CA84BC93400000040DC1B8E507045
:100680004C424FCD346666E63F041CC3538E531173
:1006900053D1340000A03F361C4650244C1452CA9B
:1006A0003400000041651C4650244CDA51CB340024
:1006B000000000901C4650244CA84BCC3400008015
:1006C0003FC01C4650244CA84BD93400004040F396
:1006D0001C8E50704C424FDD346666E63F1B1DC3D6
:1006E000538E531153E134000034434D1D465024C2
:1006F0004C1452DA34000000417C1D4650244CDA80
:1007000051DB3400000000A71D4650244CA84BDCF0
:10071000340000803FD71DEE4F6E4EA84DE93400E7
:1007200000803FF91DC3538E53C652EE3400007A49
:1007300046271EC3538E53C652EA3400007A4655EC
:100740001EC3538E53C652F23400002A437D1EC38B
:10075000538E53C652F634001BB74AAA1EC3538E9B
:1007600053C652FA340AD7233CEA1E4650244C4260
:100770004D023500000040171FC3538E53C652036D
:100780003500007AC4441FC3538E53C65207350048
:1007900000C842761FC3538E53C6520B350000006B
:1007A00040A31FC3538E53C6520F350000803FC96C
:1007B0001FEE4F6E4EA84D13350000803FEB1FC358
:1007C000538E53C652183500007A461920C3538EF3
:1007D00053C652143500007A464720C3538E53C681
:1007E000521C3500002A436F20C3538E53C652203B
:1007F00035001BB74A9C20C3538E53C65224350A7A
:10080000D7233CDC204650244C424D2C35000000C0
:10081000400921C3538E53C6522D3500007AC43689
:1008200021C3538E53C65231350000C8426821C3DC
:10083000538E53C6523535000000409521C3538E68
:1008400053C65239350000803FBB21EE4F6E4EA893
:100850004D3D350000803FDD21C3538E53C65242CB
:1008600035000096440B22C3538E53C6523E3500CA
:100870000096443922C3538E53C652463500004871
:10088000426122C3538E53C6524A35007C12498EB0
:1008900022C3538E53C6524E350AD7233CCE22462E
:1008A00050244C424D563500000040FB22C3538E6D
:1008B00053C65257350000C8432823C3538E53C62E
:1008C000525B350000C8425A23C3538E53C6525F51
:1008D00035000000408723C3538E53C65263350052
:1008E00000803FAD23EE4F6E4EA84D67350000806F
:1008F0003FCF238E50704CFB4B6C3500606A47FD38
:10090000238E50704CFB4B683500803B472B248E68
:1009100050704CFB4B70350000C84355248E50700E
:100920004CFB4B74355ED0B25082248E50704CFB21
:100930004B7835CDCCCC3DAF248E50704CFB4B7CEE
:10094000350000803FD5244650244C424D80350070
:1009500000004002258E50704CFB4B81350080BB5F
:10096000C52F258E50704CFB4B853500007A4461B5
:10097000258E50704CFB4B8935000070C18E258E42
:1009800050704CFB4B8D3500000040B425EE4F6E8F
:100990004EA84D913500000000D6258E50704CFBBE
:1009A0004B96350000614504268E50704CFB4B92EF
:1009B000350000614532268E50704CFB4B9A350055
:1009C0000080BF5A268E50704CFB4B9E3580969807
:1009D0004B87268E50704CFB4BA2350AD7233CB474
:1009E000268E50704CFB4BA6350000803FDA264621
:1009F00050244C424DAA350000803F07278E50708E
:100A00004CFB4BAB35000016C434278E50704CFBAA
:100A10004BAF350000C84266278E50704CFB4BB37D
:100A2000350000A0C093278E50704CFB4BB73500AB
:100A3000000040B927EE4F6E4EA84DBB35000000B8
:100A400000DB278E50704CFB4BC035000061450920
:100A5000288E50704CFB4BBC350000614537288E0A
:100A600050704CFB4BC435000080BF5F288E507027
:100A70004CFB4BC8358096984B8C288E50704CFBA5
:100A80004BCC350AD7233CB9288E50704CFB4BD049
:100A9000350000803FDF284650244C424DD43500BD
:100AA00000803F0C298E50704CFB4BD53500001652
:100AB000C439298E50704CFB4BD9350000C8426BAD
:100AC000298E50704CFB4BDD350000A0C098298E5C
:100AD00050704CFB4BE13500000040BE29C3538EE3
:100AE00053C652193400000000E629C3538E53C682
:100AF000521D34000000000E2AC3538E53C65221EB
:100B00003400000000362AC3538E53C652253400E9
:100B10000000005E2AC3538E53C6522934000000E1
:100B200000862AC3538E53C6522D3400000000AEF7
:100B30002AC3538E53C652313400000000D62AC354
:100B4000538E53C652353400000000FE2AC3538E24
:100B500053C652393400000000262BC3538E53C6AF
:100B6000523D34000000004E2BC3538E53C65241F9
:100B70003400000000762BC3538E53C65245340018
:100B80000000009E2BC3538E53C652493400000010
:100B900000C62BC3538E53C6524D3400000000EEE6
:100BA0002BC3538E53C652513400000000162CC381
:100BB000538E53C6525534000000003E2CC3538E52
:100BC00053C652593400000000662CC3538E53C6DE
:100BD000525D34000000008E2CC3538E53C6526108
:100BE0003400000000B62CC3538E53C65265340047
:100BF000000000DE2CC3538E53C65269340000003F
:100C000000062DC3538E53C6526D34000000002ED3
:100C10002DC3538E53C652713400000000562DC3AD
:100C2000538E53C6527534000000007E2DC3538E80
:100C300053C652793400000000A62DC3538E53C60C
:100C4000527D3400000000CE2DC3538E53C6528116
:100C50003400000000F62DC3538E53C65285340075
:100C60000000001E2EC3538E53C65289340000006C
:100C700000462EC3538E53C6528D34000000006EC2
:100C80002EC3538E53C652913400000000962EC3DB
:100C9000538E53C652953400000000BE2EC3538EAF
:100CA00053C652993400000000E62EC3538E53C63B
:100CB000529D34000000000E2FC3538E53C652A124
:100CC0003400000000362FC3538E53C652A53400A3
:100CD0000000005E2F914C4A4CD04BD733000000EF
:100CE00000692F914C4A4CD04BD93300000000745E
:100CF0002F914C4A4CD04BDB33000000007F2F91EA
:100D00004C4A4CD04BDD33000000008A2F914C4AF6
:100D10004CD04BDF3300000000952F914C4A4CD053
:100D20004BE13300000000A02F914C4A4CD04BE324
:100D30003300000000AB2F914C4A4CD04BE5330000
:100D4000000000B62F914C4A4CD04BE73300000016
:100D500000C12F914C4A4CD04BE93300000000CC2D
:100D60002F914C4A4CD04BEB3300000000D72F9111
:100D70004C4A4CD04BED3300000000E22F914C4A1E
:100D80004CD04BEF3300000000ED2F914C4A4CD07B
:100D90004BF13300000000F82F914C4A4CD04BF33C
:100DA00033000000000330914C4A4CD04BF5330027
:100DB0000000000E30914C4A4CD04BF7330000003D
:100DC000001930914C4A4CD04BF9330000000024FC
:100DD00030914C4A4CD04BFB33000000002F309137
:100DE0004C4A4CD04BFD33000000003A30914CC9C6
:100DF00056F7584E31000000004330914CC956F769
:100E0000584E31000000004830914C5356F7584E70
:100E100031000000004D30914C5356F7584E3100D0
:100E20000000005230914C5356F7584E31000000EC
:100E3000005730914C5356F7584E31000000005C7B
:100E400030914C5356F7584E3100000000613091FC
:100E50004C5356F7584E31000000006630914C5309
:100E600056F7584E31000000006B30914C5356F746
:100E7000584E31000000007030914C5356F7584ED8
:100E800031000000007530914C5356F7584E310038
:100E90000000007A30914C5356F7584E3100000054
:100EA000008330914C5356F7584E31000000008CAF
:100EB00030914C5356F7584E310000000095309158
:100EC0004C5356F7584E31000000009E30914C5361
:100ED00056F7584E3100000000A730914C5356F79A
:100EE000584E3100000000B030914C5356F7584E28
:100EF0003100000000B930914C5356F7584E310084
:100F0000000000C230914C5356F7584E310000009B
:100F100000CB30914C115DA64B4E3100000000D04B
:100F200030914CBE5CA64B4E3100000000D5309194
:100F30004C625CA64B4E3100000000DA30914C52FE
:100F40005DA64B4E3100000000DF30B66C1F4CA692
:100F50004B4E31000000002A2A2A205741524E49A8
:100F60004E47202A2A2A20556E737570706F72744E
:100F7000656420737769746368206D6F64652E20E3
:100F80005377697463682044495341424C45440097
:100F90002A2A2A205741524E494E47202A2A2A20DF
:100FA000556E737570706F7274656420726F7461C2
:100FB00072792061786973206D6F64652E204178A5
:100FC00069732044495341424C4544002A2A2A204F
:100FD0005741524E494E47202A2A2A20556E737592
:100FE00070706F72746564206C696E6561722061E7
:100FF000786973206D6F64652E2041786973204491
:10100000495341424C454400E430EF30FA30063158
:101010000F31193123312D31383143314E312A2AE4
:101020002A205741524E494E47202A2A2A204E6FE5
:101030006E2D7374616E64617264206D6963726F8A
:10104000737465702076616C7565000A002E005A15
:10105000315E31623167319831B031CD31ED31EDF2
:101060003103321932283237324632633275328ECA
:1010700032AF32D632F63210332A3344335E33780D
:10108000339233A433BA33BE33C333C833CE33D3EE
:1010900033D833DC33E133E533ED33F433FA33075C
:1010A000340D34133418341C3429342F3434343888
:1010B000343C34413447344D3454342C000A002538
:1010C000733A25730025733A25312E306600257357
:1010D0003A25312E3366002C000A00257300253195
:1010E0002E30660025312E3366006600620066628F
:1010F0002C6669726D776172655F622C5B66625DFA
:1011000020206669726D776172655F6275696C64D3
:101110002531382E32660A0066762C6669726D7744
:101120006172655F762C5B66765D20206669726D04
:10113000776172655F76657273696F6E2531362EE1
:1011400032660A0069642C69642C5B69645D202046
:1011500069645F646576696365253136640A007386
:10116000692C7374617475735F692C5B73695D209E
:10117000207374617475735F696E74657276616CE7
:10118000202020202531302E3066206D73205B30EA
:101190003D6F66665D0A0073722C737461747573BB
:1011A0005F722C0071722C71756575655F722C0011
:1011B00070622C706C616E6E65725F6275666665DA
:1011C000725F612C506C616E6E657220627566662E
:1011D0006572733A2538640A006C696E652C6C6917
:1011E0006E655F6E2C4C696E65206E756D62657202
:1011F0003A2531302E30660A006C782C6C696E65A9
:101200005F692C4C696E6520696E6465783A25319A
:1012100033640A00666565642C666565642C466502
:10122000656420726174653A2531362E3366255324
:101230002F6D696E0A00737461742C737461742C61
:101240004D616368696E652073746174653A20202E
:10125000202020202025730A006D6163732C6D61AE
:1012600063732C526177206D616368696E652073CA
:10127000746174653A20202025730A0063796373D2
:101280002C637963732C4379636C65207374617488
:10129000653A20202020202020202025730A006D80
:1012A0006F74732C6D6F74732C4D6F74696F6E2037
:1012B00073746174653A202020202020202025733B
:1012C0000A00686F6C642C686F6C642C46656564FA
:1012D000686F6C642073746174653A20202020204C
:1012E0002025730A0076656C2C76656C6F636974D3
:1012F000792C56656C6F636974793A2531372E33D2
:101300006625532F6D696E0A00756E69742C756EB3
:1013100069742C556E6974733A2020202020202097
:10132000202020202020202025730A00636F6F7268
:101330002C636F6F722C436F6F7264696E6174659A
:101340002073797374656D3A20202025730A006D2F
:101350006F6D6F2C6D6F6D6F2C4D6F74696F6E209C
:101360006D6F64653A2020202020202020202573E6
:101370000A00706C616E2C706C616E2C506C616E2A
:10138000653A2020202020202020202020202020FE
:101390002025730A00706174682C706174682C5089
:1013A000617468204D6F64653A2020202020202041
:1013B0002020202025730A00646973742C646973EB
:1013C000742C44697374616E6365206D6F64653A53
:1013D0002020202020202025730A0066726D6F2CAB
:1013E00066726D6F2C466565642072617465206D50
:1013F0006F64653A20202020202025730A00706F3A
:1014000073782C706F73782C5820706F73697469BF
:101410006F6E3A2531352E336625530A00706F738F
:10142000792C706F73792C5920706F736974696FA0
:101430006E3A2531352E336625530A00706F737A64
:101440002C706F737A2C5A20706F736974696F6E89
:101450003A2531352E336625530A00706F73612C9F
:10146000706F73612C4120706F736974696F6E3A8D
:101470002531352E336625530A00706F73622C7048
:101480006F73622C4220706F736974696F6E3A25B6
:1014900031352E336625530A00706F73632C706FDD
:1014A00073632C4320706F736974696F6E3A2531D2
:1014B000352E336625530A006D706F782C6D706F72
:1014C000782C58206D61636820706F736974696F40
:1014D0006E3A2531302E336625530A006D706F79D0
:1014E0002C6D706F792C59206D61636820706F735B
:1014F0006974696F6E3A2531302E336625530A00C0
:101500006D706F7A2C6D706F7A2C5A206D616368E4
:1015100020706F736974696F6E3A2531302E3366AF
:1015200025530A006D706F612C6D706F612C412026
:101530006D61636820706F736974696F6E3A2531ED
:10154000302E336625530A006D706F622C6D706FFC
:10155000622C42206D61636820706F736974696FDB
:101560006E3A2531302E336625530A006D706F6355
:101570002C6D706F632C43206D61636820706F73F6
:101580006974696F6E3A2531302E336625530A002F
:10159000673932782C673932782C58206F72696736
:1015A000696E206F66667365743A2531302E336636
:1015B00025530A00673932792C673932792C592042
:1015C0006F726967696E206F66667365743A25315C
:1015D000302E336625530A006739327A2C67393248
:1015E0007A2C5A206F726967696E206F6666736520
:1015F000743A2531302E336625530A00673932613B
:101600002C673932612C41206F726967696E206FD7
:1016100066667365743A2531302E336625530A00A9
:10162000673932622C673932622C42206F726967E7
:10163000696E206F66667365743A2531302E3366A5
:1016400025530A00673932632C673932632C4320F3
:101650006F726967696E206F66667365743A2531CB
:10166000302E336625530A00746573742C746573C9
:10167000742C0068656C702C68656C702C00646557
:1016800066612C646566612C006D73672C6D7367F1
:101690002C25730A0067706C2C67636F64655F703C
:1016A0006C2C5B67706C5D2067636F64655F73654E
:1016B0006C6563745F706C616E65202531306420E9
:1016C0005B302C312C325D0A0067756E2C67636FBE
:1016D00064655F752C205B67756E5D2067636F6462
:1016E000655F756E6974735F6D6F6465202020257A
:1016F000313064205B302C315D0A0067636F2C67EA
:10170000636F64655F632C205B67636F5D20676355
:101710006F64655F636F6F72645F73797374656D17
:101720002025313064205B312D365D0A0067706101
:101730002C67636F64655F70612C5B6770615D200F
:1017400067636F64655F706174685F636F6E747206
:101750006F6C2025313064205B302C312C325D0AD7
:10176000006764692C67636F64655F642C205B6746
:1017700064695D2067636F64655F64697374616E3B
:1017800063655F6D6F646525313064205B302C319B
:101790005D0A0067632C67636F642C5B67635D00A1
:1017A0006A612C6A756E632C5B6A615D20206A75C4
:1017B0006E6374696F6E5F616363656C657261749B
:1017C000696F6E25382E306625530A006D6C2C6DBE
:1017D000696E5F6C2C5B6D6C5D20206D696E5F6C5B
:1017E000696E655F7365676D656E742020202531B5
:1017F000342E336625530A006D612C6D696E5F616E
:101800002C5B6D615D20206D696E5F6172635F733B
:1018100065676D656E74202020202531342E336677
:1018200025530A006D742C6D696E5F732C5B6D74AB
:101830005D20206D696E5F7365676D656E745F74A2
:10184000696D652020202531302E30662075536566
:10185000630A0069632C69676E6F72655F632C5B56
:1018600069635D202069676E6F7265204352206F47
:1018700072204C46206F6E20525820253764205B22
:10188000302C313D43522C323D4C465D0A0065639D
:101890002C656E61626C655F632C5B65635D202007
:1018A000656E61626C655F435220286F6E205458EC
:1018B0002925313264205B302C315D0A0065652CAE
:1018C000656E61626C655F652C5B65655D2020659A
:1018D0006E61626C655F6563686F20202020202048
:1018E00025313264205B302C315D0A0065782C652F
:1018F0006E61626C655F782C5B65785D2020656E3B
:1019000061626C655F786F6E5F786F666620202518
:10191000313264205B302C315D0A0065712C656EBC
:1019200061626C655F712C5B65715D2020656E6125
:10193000626C655F71756575655F7265706F7274F5
:1019400073253964205B302C315D0A00656A2C6593
:101950006E61626C655F6A2C5B656A5D2020656EF6
:1019600061626C655F6A736F6E5F6D6F6465202581
:10197000313264205B302C315D0A00316D612C6D99
:10198000315F6D612C205B316D615D206D315F6D6C
:1019900061705F746F5F6178697325313564205BB6
:1019A000303D582C20313D592E2E2E5D0A003173CA
:1019B000612C6D315F732C20205B3173615D206D74
:1019C000315F737465705F616E676C652532302EB0
:1019D000336625530A003174722C6D315F74722C9A
:1019E000205B3174725D206D315F74726176656C5D
:1019F0005F7065725F7265766F6C7574696F6E2566
:101A0000392E336625530A00316D692C6D315F6DB7
:101A1000692C205B316D695D206D315F6D6963728A
:101A20006F73746570732025313564205B312C32FF
:101A30002C342C385D0A0031706F2C6D315F706F63
:101A40006C2C5B31706F5D206D315F706F6C6172FB
:101A500069747920202025313564205B302C315D7C
:101A60000A0031706D2C6D315F706F772C5B3170B7
:101A70006D5D206D315F706F7765725F6D616E6156
:101A800067656D656E7425313064205B302C315D87
:101A90000A00326D612C6D325F6D612C205B326DFE
:101AA000615D206D325F6D61705F746F5F61786939
:101AB0007325313564205B303D582C20313D592E43
:101AC0002E2E5D0A003273612C6D325F732C202044
:101AD0005B3273615D206D325F737465705F616E40
:101AE000676C652532302E336625530A00327472D6
:101AF0002C6D325F74722C205B3274725D206D32FB
:101B00005F74726176656C5F7065725F7265766F27
:101B10006C7574696F6E25392E336625530A003251
:101B20006D692C6D325F6D692C205B326D695D20B3
:101B30006D325F6D6963726F7374657073202531E8
:101B40003564205B312C322C342C385D0A00327025
:101B50006F2C6D325F706F6C2C5B32706F5D206D1F
:101B6000325F706F6C617269747920202025313585
:101B700064205B302C315D0A0032706D2C6D325F59
:101B8000706F772C5B32706D5D206D325F706F7798
:101B900065725F6D616E6167656D656E742531306C
:101BA00064205B302C315D0A00336D612C6D335F36
:101BB0006D612C205B336D615D206D335F6D6170F5
:101BC0005F746F5F6178697325313564205B303DE8
:101BD000582C20313D592E2E2E5D0A003373612C76
:101BE0006D335F732C20205B3373615D206D335F39
:101BF000737465705F616E676C652532302E336675
:101C000025530A003374722C6D335F74722C205B81
:101C10003374725D206D335F74726176656C5F70D2
:101C200065725F7265766F6C7574696F6E25392E9B
:101C3000336625530A00336D692C6D335F6D692C53
:101C4000205B336D695D206D335F6D6963726F7307
:101C5000746570732025313564205B312C322C344F
:101C60002C385D0A0033706F2C6D335F706F6C2CF5
:101C70005B33706F5D206D335F706F6C6172697480
:101C80007920202025313564205B302C315D0A001D
:101C900033706D2C6D335F706F772C5B33706D5DBF
:101CA000206D335F706F7765725F6D616E61676520
:101CB0006D656E7425313064205B302C315D0A0017
:101CC000346D612C6D345F6D612C205B346D615D12
:101CD000206D345F6D61705F746F5F61786973252B
:101CE000313564205B303D582C20313D592E2E2E4D
:101CF0005D0A003473612C6D345F732C20205B34DB
:101D000073615D206D345F737465705F616E676CC5
:101D1000652532302E336625530A003474722C6DDB
:101D2000345F74722C205B3474725D206D345F7488
:101D3000726176656C5F7065725F7265766F6C75E7
:101D400074696F6E25392E336625530A00346D6928
:101D50002C6D345F6D692C205B346D695D206D34B2
:101D60005F6D6963726F73746570732025313564BC
:101D7000205B312C322C342C385D0A0034706F2CEF
:101D80006D345F706F6C2C5B34706F5D206D345FF1
:101D9000706F6C6172697479202020253135642060
:101DA0005B302C315D0A0034706D2C6D345F706FC8
:101DB000772C5B34706D5D206D345F706F7765726A
:101DC0005F6D616E6167656D656E7425313064208D
:101DD0005B302C315D0A0078616D2C785F612C5B83
:101DE00078616D5D20785F617869735F6D6F6465A0
:101DF000253138642025530A0078766D2C785F767B
:101E00002C5B78766D5D20785F76656C6F636974A6
:101E1000795F6D6178696D756D2531352E33662575
:101E2000532F6D696E0A007866722C785F662C5BA2
:101E30007866725D20785F66656564726174655F5F
:101E40006D6178696D756D2531352E336625532F9B
:101E50006D696E0A0078746D2C785F742C5B7874F1
:101E60006D5D20785F74726176656C5F6D61786915
:101E70006D756D2531372E336625530A00786A6DEE
:101E80002C785F6A652C5B786A6D5D20785F6A6587
:101E9000726B5F6D6178696D756D2531352E3066B9
:101EA00025532F6D696E5E330A00786A642C785F63
:101EB0006A752C5B786A645D20785F6A756E6374FE
:101EC000696F6E5F646576696174696F6E25313420
:101ED0002E3466255320286C617267657220697301
:101EE00020666173746572290A0078736D2C785FBF
:101EF000732C5B78736D5D20785F737769746368AA
:101F00005F6D6F646525313664205B302C312C3277
:101F10002C332C345D0A007873762C785F732C5B3D
:101F20007873765D20785F7365617263685F76654C
:101F30006C6F636974792531362E336625532F6DA6
:101F4000696E0A00786C762C785F6C617463685FE8
:101F5000762C5B786C765D20785F6C617463685F6B
:101F600076656C6F636974792531372E3366255336
:101F70002F6D696E0A00786C622C785F6C617463F7
:101F8000685F622C5B786C625D20785F6C61746363
:101F9000685F6261636B6F66662531382E33662534
:101FA000530A00787A622C785F7A2C5B787A625DCB
:101FB00020785F7A65726F5F6261636B6F6666251A
:101FC00031392E336625530A0079616D2C795F61B2
:101FD0002C5B79616D5D20795F617869735F6D6FEE
:101FE0006465253138642025530A0079766D2C7993
:101FF0005F762C5B79766D5D20795F76656C6F63BB
:102000006974795F6D6178696D756D2531352E3331
:102010006625532F6D696E0A007966722C795F66AA
:102020002C5B7966725D20795F66656564726174A8
:10203000655F6D6178696D756D2531352E33662567
:10204000532F6D696E0A0079746D2C795F742C5B67
:1020500079746D5D20795F74726176656C5F6D6116
:1020600078696D756D2531372E336625530A0079F1
:102070006A6D2C795F6A652C5B796A6D5D20795F8A
:102080006A65726B5F6D6178696D756D2531352E8E
:10209000306625532F6D696E5E330A00796A642CB1
:1020A000795F6A752C5B796A645D20795F6A756E09
:1020B0006374696F6E5F646576696174696F6E25BC
:1020C00031342E3466255320286C61726765722086
:1020D000697320666173746572290A0079736D2CC7
:1020E000795F732C5B79736D5D20795F73776974A9
:1020F00063685F6D6F646525313664205B302C3119
:102100002C322C332C345D0A007973762C795F7372
:102110002C5B7973765D20795F7365617263685FAC
:1021200076656C6F636974792531362E3366255375
:102130002F6D696E0A00796C762C795F6C6174631F
:10214000685F762C5B796C765D20795F6C61746377
:10215000685F76656C6F636974792531372E3366F5
:1021600025532F6D696E0A00796C622C795F6C6162
:102170007463685F622C5B796C625D20795F6C616F
:102180007463685F6261636B6F66662531382E33F6
:102190006625530A00797A622C795F7A2C5B797A0A
:1021A000625D20795F7A65726F5F6261636B6F66F3
:1021B000662531392E336625530A007A616D2C7AF3
:1021C0005F612C5B7A616D5D207A5F617869735F16
:1021D0006D6F6465253138642025530A007A766D69
:1021E0002C7A5F762C5B7A766D5D207A5F76656CF3
:1021F0006F636974795F6D6178696D756D253135CF
:102200002E336625532F6D696E0A007A66722C7A1A
:102210005F662C5B7A66725D207A5F6665656472C4
:102220006174655F6D6178696D756D2531352E332B
:102230006625532F6D696E0A007A746D2C7A5F746F
:102240002C5B7A746D5D207A5F74726176656C5F69
:102250006D6178696D756D2531372E336625530AAA
:10226000007A6A6D2C7A5F6A652C5B7A6A6D5D20F4
:102270007A5F6A65726B5F6D6178696D756D253126
:10228000352E306625532F6D696E5E330A007A6AEB
:10229000642C7A5F6A752C5B7A6A645D207A5F6A67
:1022A000756E6374696F6E5F646576696174696F7A
:1022B0006E2531342E3466255320286C6172676593
:1022C0007220697320666173746572290A007A73DB
:1022D0006D2C7A5F732C5B7A736D5D207A5F7377F8
:1022E000697463685F6D6F646525313664205B30A7
:1022F0002C312C322C332C345D0A007A73762C7AF4
:102300005F732C5B7A73765D207A5F7365617263AD
:10231000685F76656C6F636974792531362E336634
:1023200025532F6D696E0A007A6C762C7A5F6C618A
:102330007463685F762C5B7A6C765D207A5F6C6183
:102340007463685F76656C6F636974792531372EC5
:10235000336625532F6D696E0A007A6C622C7A5FA2
:102360006C617463685F622C5B7A6C625D207A5F7B
:102370006C617463685F6261636B6F666625313898
:102380002E336625530A007A7A622C7A5F7A2C5BA8
:102390007A7A625D207A5F7A65726F5F6261636BE1
:1023A0006F66662531392E336625530A0061616DEB
:1023B0002C615F612C5B61616D5D20615F6178699B
:1023C000735F6D6F6465253138642025530A0061A1
:1023D000766D2C615F762C5B61766D5D20615F763A
:1023E000656C6F636974795F6D6178696D756D2572
:1023F00031352E336625532F6D696E0A0061667282
:102400002C615F662C5B6166725D20615F6665654D
:1024100064726174655F6D6178696D756D253135C4
:102420002E336625532F6D696E0A0061746D2C6121
:102430005F742C5B61746D5D20615F7472617665A1
:102440006C5F6D6178696D756D20202531352E3397
:102450006625530A00616A6D2C615F6A652C5B61B9
:102460006A6D5D20615F6A65726B5F6D6178696D31
:10247000756D2531352E306625532F6D696E5E33AF
:102480000A00616A642C615F6A752C5B616A645D35
:1024900020615F6A756E6374696F6E5F64657669EB
:1024A0006174696F6E2531342E346625530A0061DC
:1024B00072612C615F722C5B6172615D20615F7281
:1024C00061646975735F76616C75652532302E3491
:1024D0006625530A0061736D2C615F732C5B617319
:1024E0006D5D20615F7377697463685F6D6F6465AC
:1024F00025313664205B302C312C322C332C345D6A
:102500000A006173762C615F732C5B6173765D20CA
:10251000615F7365617263685F76656C6F63697430
:10252000792531362E336625532F6D696E0A006189
:102530006C762C615F6C617463685F762C5B616C98
:10254000765D20615F6C617463685F76656C6F6354
:102550006974792531372E336625532F6D696E0ADC
:1025600000616C622C615F6C617463685F622C5BFC
:10257000616C625D20615F6C617463685F6261635E
:102580006B6F66662531382E336625530A00617AF3
:10259000622C615F7A2C5B617A625D20615F7A6593
:1025A000726F5F6261636B6F66662531392E3366C9
:1025B00025530A0062616D2C625F612C5B62616D64
:1025C0005D20625F617869735F6D6F646525313886
:1025D000642025530A0062766D2C625F762C5B6264
:1025E000766D5D20625F76656C6F636974795F6D8F
:1025F0006178696D756D2531352E336625532F6DE4
:10260000696E0A006266722C625F662C5B6266729B
:102610005D20625F66656564726174655F6D617897
:10262000696D756D2531352E336625532F6D696EB5
:102630000A0062746D2C625F742C5B62746D5D20A5
:10264000625F74726176656C5F6D6178696D756DDE
:102650002531372E336625530A00626A6D2C625F7E
:102660006A652C5B626A6D5D20625F6A65726B5F92
:102670006D6178696D756D2531352E306625532F66
:102680006D696E5E330A00626A642C625F6A752C43
:102690005B626A645D20625F6A756E6374696F6E07
:1026A0005F646576696174696F6E2531342E3466B6
:1026B00025530A006272612C625F722C5B62726148
:1026C0005D20625F7261646975735F76616C7565C8
:1026D0002532302E346625530A0062736D2C625FFA
:1026E000732C5B62736D5D20625F737769746368DE
:1026F0005F6D6F646525313664205B302C312C3280
:102700002C332C345D0A006273762C625F732C5B71
:102710006273765D20625F7365617263685F766580
:102720006C6F636974792531362E336625532F6DAE
:10273000696E0A00626C762C625F6C617463685F1C
:10274000762C5B626C765D20625F6C617463685F9F
:1027500076656C6F636974792531372E336625533E
:102760002F6D696E0A00626C622C625F6C6174632B
:10277000685F622C5B626C625D20625F6C61746397
:10278000685F6261636B6F66662531382E3366253C
:10279000530A00627A622C625F7A2C5B627A625D15
:1027A00020625F7A65726F5F6261636B6F66662538
:1027B00031392E336625530A0063616D2C635F61E6
:1027C0002C5B63616D5D20635F617869735F6D6F22
:1027D0006465253138642025530A0063766D2C63C7
:1027E0005F762C5B63766D5D20635F76656C6F63EF
:1027F0006974795F6D6178696D756D2531352E333A
:102800006625532F6D696E0A006366722C635F66DE
:102810002C5B6366725D20635F66656564726174DC
:10282000655F6D6178696D756D2531352E3366256F
:10283000532F6D696E0A0063746D2C635F742C5B9B
:1028400063746D5D20635F74726176656C5F6D614A
:1028500078696D756D2531372E336625530A00630F
:102860006A6D2C635F6A652C5B636A6D5D20635FD4
:102870006A65726B5F6D6178696D756D2531352E96
:10288000306625532F6D696E5E330A00636A642CCF
:10289000635F6A752C5B636A645D20635F6A756E53
:1028A0006374696F6E5F646576696174696F6E25C4
:1028B00031342E346625530A006372612C635F72D3
:1028C0002C5B6372615D20635F7261646975735F25
:1028D00076616C75652532302E346625530A0063A7
:1028E000736D2C635F732C5B63736D5D20635F732B
:1028F00077697463685F6D6F646525313664205B4A
:10290000302C312C322C332C345D0A006373762C3E
:10291000635F732C5B6373765D20635F73656172C5
:1029200063685F76656C6F636974792531362E3321
:102930006625532F6D696E0A00636C762C635F6C9D
:10294000617463685F762C5B636C765D20635F6C9B
:10295000617463685F76656C6F636974792531377C
:102960002E336625532F6D696E0A00636C622C63EB
:102970005F6C617463685F622C5B636C625D206393
:102980005F6C617463685F6261636B6F666625315B
:10299000382E336625530A00637A622C635F7A2CE3
:1029A0005B637A625D20635F7A65726F5F62616309
:1029B0006B6F66662531392E336625530A006735FD
:1029C00034782C6735345F782C5B673534785D203C
:1029D0006735345F785F6F66667365742532302EB5
:1029E000336625530A00673534792C6735345F79AF
:1029F0002C5B673534795D206735345F795F6F66AE
:102A0000667365742532302E336625530A006735A8
:102A1000347A2C6735345F7A2C5B6735347A5D20E5
:102A20006735345F7A5F6F66667365742532302E62
:102A3000336625530A00673534612C6735345F618E
:102A40002C5B673534615D206735345F615F6F668D
:102A5000667365742532302E336625530A00673558
:102A600034622C6735345F622C5B673534625D20DD
:102A70006735345F625F6F66667365742532302E2A
:102A8000336625530A00673534632C6735345F633A
:102A90002C5B673534635D206735345F635F6F6639
:102AA000667365742532302E336625530A00673508
:102AB00035782C6735355F782C5B673535785D2048
:102AC0006735355F785F6F66667365742532302EC3
:102AD000336625530A00673535792C6735355F79BC
:102AE0002C5B673535795D206735355F795F6F66BB
:102AF000667365742532302E336625530A006735B8
:102B0000357A2C6735355F7A2C5B6735357A5D20F1
:102B10006735355F7A5F6F66667365742532302E70
:102B2000336625530A00673535612C6735355F619B
:102B30002C5B673535615D206735355F615F6F669A
:102B4000667365742532302E336625530A00673567
:102B500035622C6735355F622C5B673535625D20E9
:102B60006735355F625F6F66667365742532302E38
:102B7000336625530A00673535632C6735355F6347
:102B80002C5B673535635D206735355F635F6F6646
:102B9000667365742532302E336625530A00673517
:102BA00036782C6735365F782C5B673536785D2054
:102BB0006735365F785F6F66667365742532302ED1
:102BC000336625530A00673536792C6735365F79C9
:102BD0002C5B673536795D206735365F795F6F66C8
:102BE000667365742532302E336625530A006735C7
:102BF000367A2C6735365F7A2C5B6735367A5D20FE
:102C00006735365F7A5F6F66667365742532302E7E
:102C1000336625530A00673536612C6735365F61A8
:102C20002C5B673536615D206735365F615F6F66A7
:102C3000667365742532302E336625530A00673576
:102C400036622C6735365F622C5B673536625D20F5
:102C50006735365F625F6F66667365742532302E46
:102C6000336625530A00673536632C6735365F6354
:102C70002C5B673536635D206735365F635F6F6653
:102C8000667365742532302E336625530A00673526
:102C900037782C6735375F782C5B673537785D2060
:102CA0006735375F785F6F66667365742532302EDF
:102CB000336625530A00673537792C6735375F79D6
:102CC0002C5B673537795D206735375F795F6F66D5
:102CD000667365742532302E336625530A006735D6
:102CE000377A2C6735375F7A2C5B6735377A5D200A
:102CF0006735375F7A5F6F66667365742532302E8D
:102D0000336625530A00673537612C6735375F61B5
:102D10002C5B673537615D206735375F615F6F66B4
:102D2000667365742532302E336625530A00673585
:102D300037622C6735375F622C5B673537625D2001
:102D40006735375F625F6F66667365742532302E54
:102D5000336625530A00673537632C6735375F6361
:102D60002C5B673537635D206735375F635F6F6660
:102D7000667365742532302E336625530A00673535
:102D800038782C6735385F782C5B673538785D206C
:102D90006735385F785F6F66667365742532302EED
:102DA000336625530A00673538792C6735385F79E3
:102DB0002C5B673538795D206735385F795F6F66E2
:102DC000667365742532302E336625530A006735E5
:102DD000387A2C6735385F7A2C5B6735387A5D2016
:102DE0006735385F7A5F6F66667365742532302E9B
:102DF000336625530A00673538612C6735385F61C3
:102E00002C5B673538615D206735385F615F6F66C1
:102E1000667365742532302E336625530A00673594
:102E200038622C6735385F622C5B673538625D200D
:102E30006735385F625F6F66667365742532302E62
:102E4000336625530A00673538632C6735385F636E
:102E50002C5B673538635D206735385F635F6F666D
:102E6000667365742532302E336625530A00673544
:102E700039782C6735395F782C5B673539785D2078
:102E80006735395F785F6F66667365742532302EFB
:102E9000336625530A00673539792C6735395F79F0
:102EA0002C5B673539795D206735395F795F6F66EF
:102EB000667365742532302E336625530A006735F4
:102EC000397A2C6735395F7A2C5B6735397A5D2022
:102ED0006735395F7A5F6F66667365742532302EA9
:102EE000336625530A00673539612C6735395F61D0
:102EF0002C5B673539615D206735395F615F6F66CF
:102F0000667365742532302E336625530A006735A3
:102F100039622C6735395F622C5B673539625D2019
:102F20006735395F625F6F66667365742532302E70
:102F3000336625530A00673539632C6735395F637B
:102F40002C5B673539635D206735395F635F6F667A
:102F5000667365742532302E336625530A0073720A
:102F600030302C737230302C00737230312C73720D
:102F700030312C00737230322C737230322C00736B
:102F80007230332C737230332C00737230342C73E4
:102F90007230342C00737230352C737230352C0043
:102FA000737230362C737230362C00737230372CBB
:102FB000737230372C00737230382C737230382CA7
:102FC00000737230392C737230392C0073723130C7
:102FD0002C737231302C00737231312C7372313199
:102FE0002C00737231322C737231322C00737231B7
:102FF000332C737231332C00737231342C73723171
:10300000342C00737231352C737231352C0073728D
:1030100031362C737231362C00737231372C737247
:1030200031372C00737231382C737231382C0073A5
:103030007231392C737231392C007379732C737996
:10304000732C00732C732C00312C312C00322C3259
:103050002C00332C332C00342C342C00782C782C7E
:1030600000792C792C007A2C7A2C00612C612C00B0
:10307000622C622C00632C632C006735342C67357E
:10308000342C006735352C6735352C006735362CE8
:103090006735362C006735372C6735372C00673598
:1030A000382C6735382C006735392C6735392C00BA
:1030B0006739322C6739322C00706F732C706F7344
:1030C0002C006D706F2C6D706F2C006D2C6D2C00B2
:1030D0006E2C6E2C006F2C6F2C00242C242C00687E
:1030E0002C682C005B64697361626C65645D005BD5
:1030F0007374616E646172645D005B696E686962BD
:10310000697465645D005B7261646975735D005B21
:10311000736C61766520585D005B736C6176652029
:10312000595D005B736C617665205A5D005B736C62
:103130006176652058595D005B736C617665205837
:103140005A5D005B736C61766520595A5D005B7354
:103150006C6176652058595A5D0020696E00206DBB
:103160006D002064656700473934202D20756E6935
:1031700074732D7065722D6D696E757465206D6F39
:1031800064652028692E652E206665656472617409
:1031900065206D6F64652900473933202D20696EE5
:1031A00076657273652074696D65206D6F64650066
:1031B000473930202D206162736F6C75746520640F
:1031C000697374616E6365206D6F646500473931A2
:1031D000202D20696E6372656D656E74616C20646C
:1031E000697374616E6365206D6F64650047363185
:1031F000202D2065786163742073746F70206D6F6B
:10320000646500473634202D20636F6E74696E75D7
:103210006F7573206D6F646500473137202D20581E
:103220005920706C616E6500473138202D20585A46
:1032300020706C616E6500473139202D20595A206D
:10324000706C616E6500473020202D206C696E65C2
:10325000617220747261766572736520287365658A
:103260006B2900473120202D206C696E656172202A
:103270006665656400473220202D20636C6F636BA8
:103280007769736520617263206665656400473302
:1032900020202D20636F756E74657220636C6F63E0
:1032A0006B776973652061726320666565640047AA
:1032B0003830202D2063616E63656C206D6F7469FA
:1032C0006F6E206D6F646520286E6F6E6520616380
:1032D000746976652900473533202D206D61636858
:1032E000696E6520636F6F7264696E6174652073C7
:1032F000797374656D00473534202D20636F6F72CC
:1033000064696E6174652073797374656D20310032
:10331000473535202D20636F6F7264696E61746567
:103320002073797374656D203200473536202D2067
:10333000636F6F7264696E6174652073797374650D
:103340006D203300473537202D20636F6F7264691D
:103350006E6174652073797374656D203400473530
:1033600038202D20636F6F7264696E6174652073FD
:10337000797374656D203500473539202D20636FD2
:103380006F7264696E6174652073797374656D2002
:103390003600473230202D20696E63686573206DDA
:1033A0006F646500473231202D206D696C6C696D4A
:1033B00065746572206D6F6465004F6666005379B1
:1033C0006E6300506C616E00446563656C00486F0D
:1033D0006C640053746F700052756E00486F6C64BB
:1033E000004F6666005374617274656400486F6DC7
:1033F000696E670050726F626500496E6974696139
:103400006C697A696E67005265736574004379630D
:103410006C650053746F7000456E6400496E69748A
:1034200069616C697A696E670052657365740053EF
:10343000746F7000456E640052756E00486F6C6466
:103440000050726F6265004379636C6500486F6D70
:10345000696E67004A6F6700333536353C35433552
:10346000483551355C35643570357C358A35A13544
:10347000B035BD35D135E935F635FA35FE3502368C
:10348000063615362A363F364E36523656365A36B8
:103490005E36623666366A366E36723676367A361C
:1034A0007E36823686368A368E36A336BB36CD36A3
:1034B000E636FC3612372A374237543772378637AA
:1034C0008A378E37923796379A379E37A237A63784
:1034D000AA37BB37CF37E137F6370E382A383E38B0
:1034E00052386D3885389438456E64206F66206395
:1034F0006F6D6D616E642066696C650A0074696E3B
:103500007967005B696E63685D206F6B3E20005BCE
:103510006D6D5D206F6B3E200025532553002553B4
:103520002553006572726F723A2025533A20257335
:10353000200A004F4B004572726F7200456167614F
:10354000696E004E6F6F7000436F6D706C657465CF
:10355000005465726D696E617465640041626F72DA
:1035600074656400456E64206F66206C696E65004A
:10357000456E64206F662066696C650046696C65FF
:10358000206E6F74206F70656E004D6178206669E3
:103590006C652073697A6520657863656564656428
:1035A000004E6F20737563682064657669636500FB
:1035B00042756666657220656D7074790042756645
:1035C0006665722066756C6C202D20666174616C76
:1035D000004275666665722066756C6C202D206EE3
:1035E0006F6E2D666174616C00496E697469616CFF
:1035F000697A696E67002331360023313700233141
:10360000380023313900496E7465726E616C206533
:1036100072726F7200496E7465726E616C207261B5
:103620006E6765206572726F7200466C6F617469B7
:103630006E6720706F696E74206572726F720044DD
:103640006976696465206279207A65726F00233239
:103650003400233235002332360023323700233240
:103660003800233239002333300023333100233331
:103670003200233333002333340023333500233324
:103680003600233337002333380023333900556E97
:103690007265636F676E697A656420636F6D6D61D3
:1036A0006E6400457870656374656420636F6D6D4A
:1036B000616E64206C657474657200426164206E92
:1036C000756D62657220666F726D617400496E700F
:1036D00075742065786365656473206D6178206C0E
:1036E000656E67746800496E7075742076616C75DC
:1036F0006520746F6F20736D616C6C00496E70751E
:10370000742076616C756520746F6F206C617267D0
:103710006500496E7075742076616C756520726104
:103720006E6765206572726F7200496E70757420E5
:1037300076616C756520756E737570706F727465E7
:1037400064004A534F4E2073796E7461782065721D
:10375000726F72004A534F4E20696E707574206804
:10376000617320746F6F206D616E79207061697272
:1037700073004F7574206F662062756666657220EF
:1037800073706163650023353100233532002335C2
:1037900033002335340023353500233536002335F7
:1037A000370023353800233539005A65726F206C95
:1037B000656E677468206D6F76650047636F64653A
:1037C00020626C6F636B20736B6970706564004777
:1037D000636F646520696E707574206572726F72B4
:1037E0000047636F64652066656564726174652077
:1037F0006572726F720047636F64652061786973E8
:1038000020776F7264206D697373696E6700476318
:103810006F6465206D6F64616C2067726F757020D6
:1038200076696F6C6174696F6E00486F6D696E6761
:10383000206379636C65206661696C6564004D6125
:10384000782074726176656C20657863656564655F
:1038500064004D6178207370696E646C65207370CC
:1038600065656420657863656564656400417263BD
:103870002073706563696669636174696F6E206542
:1038800072726F72003C6E756C6C206D6573736143
:1038900067653E004C6F6164696E6720636F6E669A
:1038A0006967732066726F6D20454550524F4D0019
:1038B000456E746572202464656661756C74733D31
:1038C0003120746F2072657365742074686520738D
:1038D000797374656D20746F207468652066616308
:1038E000746F72792064656661756C742076616CA2
:1038F0007565732E0A546869732077696C6C206F44
:10390000766572777269746520616E79206368618B
:103910006E67657320796F752068617665206D61CB
:1039200064652E0A00232323232054696E794720DF
:10393000524553544F52452044454641554C5453EB
:103940002048656C7020232323230A000A466F72E7
:103950002064657461696C65642054696E794720E0
:10396000696E666F207365653A20687474703A2FCB
:103970002F7777772E73796E746865746F732E6303
:103980006F6D2F77696B692F696E6465782E70682B
:10399000703F7469746C653D50726F6A65637473CF
:1039A0003A54696E79470A466F7220746865206CD4
:1039B0006174657374206669726D776172652073D6
:1039C00065653A2068747470733A2F2F676974685C
:1039D00075622E636F6D2F73796E746865746F7383
:1039E0002F54696E79470A506C65617365206C6F5E
:1039F0006720616E79206973737565732061742027
:103A0000687474703A2F2F7777772E73796E746895
:103A100065746F732E636F6D2F666F72756D730AA9
:103A2000486176652066756E0A00496E766F6B6533
:103A30002073656C66207465737420627920656EEE
:103A4000746572696E672024746573743D4E2077C7
:103A500068657265204E206973206F6E65206F6601
:103A60003A0A202024746573743D312020736D6FF1
:103A70006B6520746573740A202024746573743D2B
:103A80003220206D6F74696F6E207465737420200E
:103A900020286120736572696573206F66207371D9
:103AA0007561726520616E6420636972636C652064
:103AB0006D6F766573290A202024746573743D3315
:103AC00020206172632074657374202020202020E0
:103AD00028736F6D65206C6172676520636972631E
:103AE0006C6573290A202024746573743D3420208A
:103AF0006477656C6C207465737420202020286DB9
:103B00006F7665732073706163656420627920311C
:103B1000207365636F6E64206477656C6C73290A2B
:103B2000202024746573743D352020686F6D696EA4
:103B300067207465737420202028796F75206D7557
:103B40007374207472697020686F6D696E6720737A
:103B500077697463686573290A2020247465737417
:103B60003D36202066656564686F6C6420746573FB
:103B7000742028656E746572202120616E64207E39
:103B800020746F20686F6C6420616E6420726573AE
:103B9000746172742C2072657370656374697665E4
:103BA0006C79290A202024746573743D3720204DD8
:103BB00020636F64657320746573742020284D2022
:103BC000636F64657320696E7465726D696E676C8E
:103BD00065642077697468206D6F766573290A20A3
:103BE0002024746573743D3820204A534F4E20744E
:103BF0006573742020202020286D6F74696F6E20FB
:103C0000746573742072756E207573696E67204ACF
:103C1000534F4E20636F6D6D616E6473290A2020CF
:103C200024746573743D392020696E7665727365FE
:103C30002074696D6520746573740A20202474658E
:103C400073743D313020726F74617279206D6F74BE
:103C5000696F6E20746573740A0023232323205434
:103C6000696E79472053454C4620544553542048AB
:103C7000656C7020232323230A0045616368202498
:103C800020636F6D6D616E642061626F7665206187
:103C90006C736F20646973706C61797320746865EC
:103CA00020746F6B656E20666F722065616368209B
:103CB00073657474696E6720696E205B205D206295
:103CC0007261636B6574730A546F2076696577203F
:103CD00073657474696E677320656E7465722061B4
:103CE00020746F6B656E3A0A0A2020243C746F6B57
:103CF000656E3E0A0A466F72206578616D706C656C
:103D0000202479667220746F20646973706C617905
:103D1000207468652059206D61782066656564208F
:103D2000726174650A0A546F20757064617465204D
:103D300073657474696E677320656E746572207440
:103D40006F6B656E20657175616C732076616C7543
:103D5000653A0A0A2020243C746F6B656E3E3D3C38
:103D600076616C75653E0A0A466F72206578616DF2
:103D7000706C6520247966723D38303020746F2075
:103D8000736574207468652059206D6178206665BC
:103D90006564207261746520746F20383030206D46
:103DA0006D2F6D696E7574650A00546865736520C2
:103DB000636F6D6D616E6473206172652061637401
:103DC00069766520666F7220636F6E6669677572CB
:103DD0006174696F6E3A0A202024737973205368E6
:103DE0006F772073797374656D202867656E6572CF
:103DF000616C292073657474696E67730A202024CE
:103E00003120202053686F77206D6F746F722031DE
:103E10002073657474696E677320286F72207768E9
:103E2000617465766572206D6F746F7220796F753D
:103E30002077616E7420312C322C332C34290A20E7
:103E400020247820202053686F77205820617869DB
:103E5000732073657474696E677320286F7220779E
:103E600068617465766572206178697320796F7511
:103E70002077616E7420782C792C7A2C612C622C3E
:103E800063290A2020246D20202053686F77206149
:103E90006C6C206D6F746F722073657474696E67DB
:103EA000730A2020246E20202053686F7720616CD5
:103EB0006C20617869732073657474696E67730A26
:103EC0002020242420202053686F7720616C6C20F0
:103ED00073657474696E67730A202024682020203B
:103EE00053686F7720746869732068656C702073FD
:103EF000637265656E0A0A00232323232054696ECA
:103F0000794720434F4E46494755524154494F4EF9
:103F10002048656C7020232323230A000A4E6F7407
:103F2000653A2054696E79472067656E65726174E1
:103F30006573206175746F6D61746963207374615A
:103F4000747573207265706F727473206279206467
:103F5000656661756C740A546869732063616E20CC
:103F600062652064697361626C65642062792065B2
:103F70006E746572696E67202473693D300A5365FB
:103F800065207468652077696B692062656C6F775E
:103F900020666F72206D6F72652064657461696C54
:103FA000732E0A00546865736520636F6D6D616ED2
:103FB000647320617265206163746976652066723E
:103FC0006F6D2074686520636F6D6D616E64206C29
:103FD000696E653A0A205E78202020202041626FB9
:103FE00072742028636F6E74726F6C207829202D94
:103FF000207265736574732045564552595448497B
:104000004E47210A20203F20202020204D61636858
:10401000696E6520706F736974696F6E20616E647C
:104020002067636F6465206D6F64656C20737461D5
:1040300074650A202024202020202053686F7720D8
:10404000616E642073657420636F6E666967757254
:104050006174696F6E2073657474696E67730A208A
:104060002021202020202046656564686F6C642034
:104070002D2073746F70206D6F74696F6E20776977
:1040800074686F7574206C6F73696E6720706F73DE
:104090006974696F6E0A20207E20202020204379D9
:1040A000636C65205374617274202D207265737483
:1040B0006172742066726F6D2066656564686F6CEE
:1040C000640A202068202020202053686F77207405
:1040D0006869732068656C702073637265656E0A29
:1040E000202024682020202053686F7720636F6E83
:1040F00066696775726174696F6E2068656C70209F
:1041000073637265656E0A20202474657374204C95
:104110006973742073656C662D74657374730A20FB
:10412000202464656661756C74733D31205265733B
:10413000746F726520616C6C2073657474696E674E
:104140007320746F2022666163746F727922206419
:10415000656661756C74730A0023232323205469F8
:104160006E79472048656C7020232323230A007151
:1041700072007062006C7800717200737200284DDA
:1041800053472A2A2A2A20536D6F6B652054657382
:1041900074205B76315D202A2A2A2A290A4730308A
:1041A00020473137204732312047343020473439D7
:1041B00020473830204739300A47393220583020DC
:1041C0005930205A300A473030207832300A78305F
:1041D0000A7932300A79300A7A32300A7A300A6142
:1041E00032300A61300A473030207832302079325C
:1041F00030207A3230206132300A47303020783037
:10420000207930207A302061300A47303120663200
:1042100030302078370A79370A7A370A61330A67EB
:104220003030207830207930207A302061300028FA
:104230004D53472A2A2A2A205371756172657320CB
:104240004D6F74696F6E2054657374205B76315DB9
:10425000202A2A2A2A290A67303067313767323103
:104260006734306734396738306739300A673078F7
:104270003230202874726176657273652061203255
:10428000306D6D2073717561726520696E205820E4
:10429000616E642059290A7932300A78300A7930FF
:1042A0000A673178313066353030202864726177A2
:1042B00020612031306D6D207371756172652069E8
:1042C0006E205820616E642059206174204635307C
:1042D00030290A7931300A78300A79300A67307A21
:1042E00032302028747261766572736520612032E5
:1042F000306D6D2073717561726520696E20582074
:10430000616E64205A290A7832300A7A300A78308D
:104310000A67317832307932307A3230663530306F
:1043200020286665656420612032306D6D206469E7
:1043300061676F6E616C20696E20582C2059206176
:104340006E64205A290A783079307A300A7834300D
:104350007934307A34300A78343079307A300A78E7
:10436000307934307A34300A7834307934307A30F5
:104370000A783079307A34300A78307934307A30CB
:104380000A78343079307A34300A783079307A30BB
:104390000A6738300A6D333000284D53472A2A2ADD
:1043A0002A204172632054657374205B76315D204E
:1043B0002A2A2A2A290A673030673137673231675B
:1043C00034306734396738306739300A67393278C2
:1043D0003079300A663530300A6732783130792DDD
:1043E000313069313020284357203237302064651E
:1043F0006772656573290A6730783079300A6733E8
:10440000783130792D3130693130202843435720BD
:1044100039302064656772656573290A67307830C2
:1044200079300A6732783230793069313020284368
:1044300057203138302064656772656573290A67D3
:1044400030783079300A67337832307930693130FA
:1044500020284343572031383020646567726565F2
:1044600073290A6730783079300A673278307930CA
:104470006932302028435720333630206465677214
:10448000656573290A6732783079306932302028BF
:1044900043572033363020616761696E290A6637D9
:1044A000303020286368616E67652066656564202A
:1044B00072617465207768696C6520696E20473287
:1044C000206D6F74696F6E206D6F6465290A6732A5
:1044D0007830793069323020284357203336302005
:1044E0003372642074696D65290A673278307930D7
:1044F0006932302028435720333630203474682006
:1045000074696D65290A663530300A673378307909
:1045100030693230202843435720333630206465D9
:104520006772656573290A6733783079306932308C
:1045300020284343572033363020616761696E2954
:104540000A6637303020286368616E6765206665CB
:1045500065642072617465207768696C6520696E96
:10456000204733206D6F74696F6E206D6F6465290D
:104570000A67337830793069323020284343572036
:10458000333630203372642074696D65290A6733CD
:104590007830793069323020284343572033363021
:1045A000203474682074696D65290A6738300A6D93
:1045B000333000284D53472A2A2A2A204477656C35
:1045C0006C2054657374205B76315D202A2A2A2A78
:1045D000290A6730306731376732316739300A6608
:1045E0003530300A67307831300A673470310A6705
:1045F000307832300A673470310A67307831300AE7
:10460000673470310A67307830300A673470310AA5
:1046100079350A6D333000284D53472A2A2A2A203B
:10462000486F6D696E672054657374205B76315DE9
:10463000202A2A2A2A290A6732382E3178307930FE
:104640007A300A6D333000284D53472A2A2A2A200F
:1046500046656564686F6C642054657374205B768E
:10466000315D202A2A2A2A290A284D53472A2A2A34
:104670002A204D616E75616C6C7920656E7465726F
:10468000202120616E64207E20647572696E67202F
:104690006D6F76656D656E7420746F2074657374CC
:1046A000202A2A2A2A290A673470330A6730306799
:1046B00031376732316734306734396738306739BA
:1046C000300A663630300A67307831303076373627
:1046D0002E3736350A783079300A6D333000284D60
:1046E00053472A2A2A2A204D636F64657320746514
:1046F0007374205B76315D202A2A2A2A290A6D33B9
:104700000A673470310A6D350A673470310A6D34C6
:104710000A673470310A6D350A673470310A6D37B3
:104720000A673470310A6D390A673470310A6D389E
:104730000A673470310A6D390A663530300A6730DD
:104740007832300A7932300A6D330A78300A6D34A3
:104750000A79300A6D350A67317831300A6D370AC7
:104760007931300A6D380A78300A6D390A79300AA1
:104770006732783130792D31306931300A6D330A42
:104780006730783079300A6D340A673378313079A0
:104790002D31306931300A6D350A67307830793023
:1047A0000A6D370A673278323079306931300A6DF4
:1047B000380A6730783079300A6D390A67337832D1
:1047C0003079306931300A6730783079300A6732B1
:1047D000783079306931300A67337830793069312F
:1047E000300A6D3330007B226763223A2267303013
:1047F000673137673231673430673439673830674B
:104800003930227D0A7B226763223A2266353030B6
:10481000227D0A7B226763223A22284D5347737117
:10482000756172657329227D0A7B226763223A22B1
:104830006730783230227D0A7B226763223A227900
:104840003230227D0A7B226763223A227830227D31
:104850000A7B226763223A227930227D0A7B226713
:1048600063223A226731783130227D0A7B226763E6
:10487000223A22793130227D0A7B226763223A2252
:104880007830227D0A7B226763223A227930227DAA
:104890000A7B226763223A22284D53476369726379
:1048A0006C657329227D0A7B226763223A22673274
:1048B000783130792D3130693130227D0A7B2267A1
:1048C00063223A22673078307930227D0A7B226772
:1048D00063223A226733783130792D3130693130B3
:1048E000227D0A7B226763223A2267307830793052
:1048F000227D0A7B226763223A226732783230793E
:1049000030693130227D0A7B226763223A22673088
:1049100078307930227D0A7B226763223A2267331E
:104920007832307930693130227D0A7B2267632208
:104930003A22673078307930227D0A7B2267632201
:104940003A22673278307930693130227D0A7B2211
:104950006763223A22673378307930693130227DBB
:104960000A7B226763223A226D3330227D00284D74
:1049700053472A2A2A2A20496E7665727365205485
:10498000696D65204D6F74696F6E20546573742076
:104990005B76315D202A2A2A2A290A67303067315E
:1049A00037673231673430673439673830673930C8
:1049B0000A6739330A66302E30310A673178313070
:1049C0000A7931300A7A31300A6131300A78300A96
:1049D00079300A7A300A61300A67317831307931BA
:1049E000307A31306131300A6730783079307A305E
:1049F00061300A66302E310A6732783130792D31D4
:104A0000307A32306931300A6730783079307A3034
:104A10000A6733783130792D31307A32306931306C
:104A20000A6730783079307A300A673278323079F4
:104A3000307A32306931300A6730783079307A3004
:104A40000A673378323079306931300A673078302C
:104A500079307A300A6732783079307A3330693198
:104A6000300A6733783079307A306931300A673903
:104A7000340A6D333000284D53472A2A2A2A2052FF
:104A80006F746172792041786973204D6F74696F1A
:104A90006E2054657374205B76315D202A2A2A2AA1
:104AA000290A67303067313767323167343067340D
:104AB000396738306739300A6730783079307A3082
:104AC0006130623063300A6633363030300A673026
:104AD000613336300A623336300A633336300A6166
:104AE000300A62300A63300A673161313434300A87
:104AF00062313434300A63313434300A61300A624E
:104B0000300A63300A673161313434306237323011
:104B1000633336300A783079307A3061306230630E
:104B2000300A6731783130306131343430623732B5
:104B300030633336300A783079307A306130623021
:104B400063300A673178313030793530613134344F
:104B50003062373230633336300A783079307A3029
:104B60006130623063300A67317831303079353006
:104B70007832356131343430623732306333363035
:104B80000A783079307A306130623063300A6D33C0
:104B90003000284D53472A2A2A2A2054657374204E
:104BA000766572792073686F7274206D6F766573A5
:104BB000205B76315D202A2A2A2A290A2473693D3E
:104BC000333030300A673178302E31663130303052
:104BD0000A78300A78302E3100284D53472A2A2A85
:104BE0002A20546573742061636375726163792050
:104BF0006F6620736C6F77206D6F766573205B76C0
:104C0000315D202A2A2A2A290A67317A2D3566320F
:104C100032004E31204732300A4E352047343020A2
:104C20004731370A4E3130205431204D30360A2872
:104C30004E31352047393020473020583020593008
:104C4000205A30290A4E3230205335303030204D32
:104C50003033200A4E32352058302E303634205929
:104C6000302E333236205A300A4E3430204730311D
:104C7000204631362E300A4E35302058302E303610
:104C8000342059302E3332360A4E35352058302EE6
:104C90003036302059302E3239330A4E36302058D3
:104CA000302E3037372059302E3236370A4E3635CF
:104CB0002058302E3131312059302E3235370A4EBE
:104CC00037302058302E3134392059302E32353299
:104CD0000A4E37352058302E3138382059302E3290
:104CE00035350A4E38302058302E32323720593080
:104CF0002E3236380A4E38352058302E323537208D
:104D000059302E3237310A4E39302058302E333355
:104D1000352059302E3236350A4E39352058302E4E
:104D20003431322059302E3237310A4E3130302072
:104D300058302E3437342059302E3238370A4E311D
:104D400030352058302E3439312059302E32383910
:104D50000A4E3131302058302E3531372059302E1F
:104D60003237330A4E3131352058302E3534342025
:104D700059302E3236330A4E3132302058302E35EB
:104D800038302059302E3236310A4E3132352058E3
:104D9000302E3539352059302E3236330A4E3133E4
:104DA000302058302E3632312059302E3237340AE6
:104DB0004E3133352058302E3635392059302E3388
:104DC00030360A4E3134302058302E3637332059A1
:104DD000302E3333350A4E3134352058302E3637A5
:104DE000392059302E3336310A4E31353020583083
:104DF0002E3637382059302E3338390A4E31353572
:104E00002058302E3637302059302E3432300A4E6A
:104E10003136302058302E3637302059302E343449
:104E2000360A4E3136352058302E3638302059303B
:104E30002E3437340A4E3137302058302E37303444
:104E40002059302E3439370A4E3137352058302E1C
:104E50003733322059302E3531350A4E3138302033
:104E600058302E3739342059302E3533350A4E31EB
:104E700038352058302E3837322059302E353637D5
:104E80000A4E3139302058302E3935302059302EE5
:104E90003630340A4E3139352058312E30333120F6
:104EA00059302E3634370A4E3230302058312E31B8
:104EB00034392059302E3732320A4E3230352058AC
:104EC000312E3330382059302E3835340A4E3231B5
:104ED000302058312E3433302059302E3938340AAE
:104EE0004E3231352058312E3434372059302E3956
:104EF00038360A4E3232302058312E363238205968
:104F0000302E3832320A4E3232352058312E373375
:104F1000322059302E3731340A4E32333020583255
:104F20002E3030392059302E3338310A4E32333555
:104F30002058322E3131362059302E3236360A4E34
:104F40003234302058322E3232382059302E31351A
:104F5000370A4E3234352058322E3238302059300C
:104F60002E3132330A4E3235302058322E3333321E
:104F70002059302E3039340A4E3235352058322EF1
:104F80003432332059302E3037300A4E323630200A
:104F900058322E3438392059302E3036350A4E32B8
:104FA00036352058322E3535372059302E303636AA
:104FB0000A4E3237302058322E3632372059302EB2
:104FC0003038340A4E3237352058322E36393320B5
:104FD00059302E3130390A4E3238302058322E377F
:104FE00033302059302E3133330A4E323835205881
:104FF000322E3830352059302E3139300A4E323980
:10500000302058322E3832392059302E3231360A7B
:105010004E3239352058322E3838302059302E3221
:1050200039310A4E3330302058322E383834205936
:10503000302E3330300A4E3330352058322E383946
:10504000382059302E3333320A4E33313020583223
:105050002E3930352059302E3336370A4E3331351C
:105060002058322E3931302059302E3430370A4E04
:105070003332302058322E3930382059302E3434E3
:10508000360A4E3332352058322E393031205930DD
:105090002E3439350A4E3333302058322E383937D2
:1050A0002059302E3439350A4E3333352058322EBC
:1050B0003839302059302E3532340A4E33343020CE
:1050C00058322E3834322059302E3630340A4E338E
:1050D00034352058322E3831342059302E3636357A
:1050E0000A4E3335302058322E3739342059302E7D
:1050F0003735300A4E3335352058322E3739312086
:1051000059302E3833380A4E3336302058322E3844
:1051100031392059302E3937360A4E33363520583A
:10512000322E3833372059312E3034340A4E33374B
:10513000302058322E3836322059312E3131320A51
:105140004E3337352058322E3837372059312E31EB
:1051500034350A4E3338302058322E393132205906
:10516000312E3231370A4E3338352058322E39310C
:10517000372059312E3232360A4E333930205832E8
:105180002E3935312059312E3238310A4E333935E6
:105190002058322E3937302059312E3239350A4EC7
:1051A0003430302058322E3939362059312E3239A8
:1051B000350A4E3430352058332E303133205931B2
:1051C0002E3237350A4E3431302058332E303234B7
:1051D0002059312E3235340A4E3431352058332E91
:1051E0003037302059312E3135310A4E34323020AB
:1051F00058332E3037372059312E3133340A4E345C
:1052000032352058332E3132352059312E30333952
:105210000A4E3433302058332E3133382059312E52
:105220003031390A4E3433352058332E3230352060
:1052300059302E3930380A4E3434302058332E321B
:1052400038322059302E3739370A4E343435205809
:10525000332E3336312059302E3639310A4E34351B
:10526000302058332E3432362059302E3539320A18
:105270004E3435352058332E3435362059302E35BE
:1052800034330A4E3436302058332E3437392059CF
:10529000302E3439330A4E3436352058332E3439D3
:1052A000342059302E3437320A4E343730205833B8
:1052B0002E3530352059302E3434360A4E343735B9
:1052C0002058332E3531382059302E3431370A4E9C
:1052D0003438302058332E3533302059302E33397E
:1052E000310A4E3438352058332E35363420593073
:1052F0002E3330300A4E3439302058332E3537377C
:105300002059302E3235330A4E3439352058332E59
:105310003536382059302E3231320A4E3530302071
:1053200058332E3534342059302E3137360A4E3525
:1053300030352058332E3534312059302E31343623
:105340000A4E3531302058332E3535332059302E22
:105350003131390A4E3531352058332E3537362024
:1053600059302E3130360A4E3532302058332E35F2
:1053700039372059302E3130320A4E3532352058E7
:10538000332E3631382059302E3130390A4E3533EC
:10539000302058332E3633392059302E3132390AE5
:1053A0004E3533352058332E3635302059302E3196
:1053B00035390A4E3534302058332E36363320599D
:1053C000302E3137380A4E3534352058332E3637A3
:1053D000382059302E3139320A4E35353020583385
:1053E0002E3639392059302E3139370A4E35353578
:1053F0002058332E3732332059302E3139360A4E69
:105400003536302058332E3736342059302E313748
:10541000390A4E3536352058332E3830352059303C
:105420002E3136350A4E3537302058332E38383441
:105430002059302E3135390A4E3537352058332E24
:105440003934392059302E3136350A4E353830202E
:1054500058332E3936362059302E3137350A4E35ED
:1054600038352058332E3937382059302E313934D9
:105470000A4E3539302058332E3937382059302EDE
:105480003232330A4E3539352058332E39363020F2
:1054900059302E3234350A4E3630302058332E38BB
:1054A00033342059302E3331310A4E3630352058BE
:1054B000332E3736322059302E3334350A4E3631BA
:1054C000302058332E3732362059302E3338390AAF
:1054D0004E3631352058332E3730332059302E3464
:1054E00035380A4E3632302058332E36383220596D
:1054F000302E3533300A4E3632352058332E36377B
:10550000392059302E3533340A4E36333020583353
:105510002E3632362059302E3638310A4E36333553
:105520002058332E3536382059302E3832380A4E2E
:105530003634302058332E3434342059312E30381C
:10554000300A4E3634352058332E34303520593118
:105550002E3136370A4E3635302058332E3430341B
:105560002059312E3136370A4E3635352058332EF4
:105570003338372059312E3230380A4E3636302003
:1055800058332E3338342059312E3230380A4E36C3
:1055900036352058332E3336352059312E323635B4
:1055A0000A4E3637302058332E3335352059312EB8
:1055B0003238350A4E3637352058332E33343820BA
:1055C00059312E3330380A4E3638302058332E3386
:1055D00033332059312E3335300A4E363835205882
:1055E000332E3332312059312E3339310A4E363988
:1055F000302058332E3331312059312E3432380A8D
:105600004E3639352058332E3333392059312E3424
:1056100032330A4E3730302058332E34343020594C
:10562000312E3430360A4E3730352058332E35314E
:10563000302059312E3430380A4E3731302058332B
:105640002E3538352059312E3432310A4E37313526
:105650002058332E3631312059312E3433390A4E09
:105660003732302058332E3631312059312E3434F0
:10567000310A4E3732352058332E363135205931E4
:105680002E3434310A4E3733302058332E363336E9
:105690002059312E3438380A4E3733352058332EBE
:1056A0003633342059312E3531370A4E37343020D5
:1056B00058332E3632322059312E3534330A4E3794
:1056C00034352058332E3630352059312E35363387
:1056D0000A4E3735302058332E3537362059312E83
:1056E0003537350A4E3735352058332E353434208A
:1056F00059312E3538310A4E3736302058332E3452
:1057000037392059312E3539320A4E37363520583F
:10571000332E3435312059312E3539380A4E37374A
:10572000302058332E3338372059312E3632360A4E
:105730004E3737352058332E3339302059312E36F5
:1057400033360A4E3738302058332E35333220590D
:10575000312E3630320A4E3738352058332E363017
:10576000312059312E3539370A4E373930205833E8
:105770002E3636382059312E3539380A4E373935DC
:105780002058332E3738322059312E3631320A4ED6
:105790003830302058332E3739342059312E3631B5
:1057A000380A4E3830352058332E383638205931A3
:1057B0002E3633360A4E3831302058332E393138B0
:1057C0002059312E3635350A4E3831352058332E92
:1057D0003934352059312E3636370A4E383230209A
:1057E00058332E3936342059312E3638350A4E3852
:1057F00032352058332E3936372059312E36383548
:105800000A4E3833302058332E3937342059312E50
:105810003639390A4E3833352058332E393834204A
:1058200059312E3732350A4E3834302058332E391C
:1058300038342059312E3735380A4E38343520580F
:10584000332E3937302059312E3739300A4E38351A
:10585000302058332E3934352059312E3831370A1B
:105860004E3835352058332E3931382059312E38BD
:1058700032360A4E3836302058332E3839312059D6
:10588000312E3832370A4E3836352058332E3834D8
:10589000322059312E3830390A4E383730205833BB
:1058A0002E3739382059312E3738340A4E383735AB
:1058B0002058332E3734362059312E3737320A4E9E
:1058C0003838302058332E3639382059312E373673
:1058D000340A4E3838352058332E36333520593176
:1058E0002E3736360A4E3839302058332E35353378
:1058F0002059312E3738350A4E3839352058332E55
:105900003437382059312E3832300A4E3930302071
:1059100058332E3430392059312E3836340A4E3926
:1059200030352058332E3334352059312E39313823
:105930000A4E3931302058332E3236342059322E27
:105940003032330A4E3931352058332E3234382034
:1059500059322E3035310A4E3932302058332E32FA
:1059600034302059322E3038310A4E3932352058F1
:10597000332E3331362059322E3038360A4E3933F1
:10598000302058332E3339302059322E3130340AFA
:105990004E3933352058332E3431342059322E319C
:1059A00032310A4E3934302058332E3433312059B5
:1059B000322E3135330A4E3934352058332E3433B4
:1059C000332059322E3138300A4E39353020583391
:1059D0002E3432372059322E3230350A4E39353591
:1059E0002058332E3431332059322E3232340A4E7D
:1059F0003936302058332E3339322059322E323452
:105A0000320A4E3936352058332E33333520593249
:105A10002E3234340A4E3937302058332E3237384C
:105A20002059322E3233360A4E3937352058332E2C
:105A30003235362059322E3234320A4E393830203F
:105A400058332E3233392059322E3235310A4E39FD
:105A500038352058332E3231312059322E323830F9
:105A60000A4E3939302058332E3137342059322EEE
:105A70003335360A4E3939352058332E31353920F1
:105A800059322E3339370A4E313030302058332EC8
:105A90003135302059322E3433380A4E31303035DA
:105AA0002058332E3134302059322E3438310A4EBA
:105AB000313031302058332E3133322059322E35A7
:105AC00031300A4E313031352058332E31313820C3
:105AD00059322E3534330A4E313032302058332E7D
