:100000000C949D340C94BE340C94BE340C94BE34C9
:100010000C94BE340C94BE340C94BE340C94BE3498
:100020000C94BE340C94BE340C94BE340C945FC853
:100030000C94BE340C94BE340C940DC00C94BE349D
:100040000C94BE340C94BE340C94BE340C94BE3468
:100050000C94BE340C94BE340C94BE340C94BE3458
:100060000C94BE340C94FECD0C9491CD0C94BE3403
:100070000C947DD60C9405D60C944DD60C94BE34BD
:100080000C94B1C80C94BE340C94BE340C94BE34A1
:100090000C94BE340C94BE340C94BE340C94BE3418
:1000A0000C94BE340C94BE340C94BE340C94DE8993
:1000B0000C94A68A0C94BE340C94BE340C941DC2CD
:1000C0000C94BE340C94BE340C94BE340C94BE34E8
:1000D0000C94BE340C94BE340C94BE340C94BE34D8
:1000E0000C9420E00C94BE340C94BE340C94BE34BA
:1000F0000C94BE340C94BE340C94BE340C94BE34B8
:100100000C94108A0C94D88A0C947A890C94428AA4
:100110000C94BE340C94BE340C94BE340C94BE3497
:100120000C94BE340C94BE340C94BE340C94BE3487
:100130000C94BE340C94CBC10C94BE340C94BE34DD
:100140000C94BE340C94BE340C94BE340C94BE3467
:100150000C94BE340C94BE340C9410E00C94BE3459
:100160000C94BE340C94BE340C94BE340C94BE3447
:100170000C94BE340C94BE340C94BE340C94BE3437
:100180000C94BE340C94BE340C94BE340C94BE3427
:100190000C94BE340C94BE340C94BE340C94BE3417
:1001A0000C94AC890C94748A0C94BE340C94BE34B8
:1001B0000C9450C20C94BE340C94BE340C94BE34D7
:1001C0000C94BE340C94BE340C94BE340C94BE34E7
:1001D0000C94BE340C94BE340C94BE340C94BE34D7
:1001E0000C94BE340C94BE34084AD73B3BCE016E0F
:1001F00084BCBFFDC12F3D6C74319ABD56833DDA7E
:100200003D00C77F11BED9E4BB4C3E916BAAAABE8C
:10021000000000803F05A84CCDB2D44EB93836A9B5
:10022000020C50B9918688083CA6AAAA2ABE0000F2
:1002300000803F07634236B79BD8A71A3968561823
:10024000AEBAAB558C1D3CB7CC5763BD6DEDFD759B
:100250003EF6177231BF000000803F08000000BE6C
:10026000922449123EABAAAA2ABECDCCCC4C3E0069
:10027000000080BEABAAAAAA3E00000000BF00009A
:1002800000803F0000000000084178D3BB4387D1C5
:10029000133D190E3CC3BD4282AD2B3E68EC827605
:1002A000BED98FE1A93E4C80EFFFBE01C4FF7F3F66
:1002B00000000000006E616E00696E660020696ECD
:1002C00000206D6D002064656700BD02C102C5029B
:1002D000473230202D20696E63686573206D6F642E
:1002E0006500473231202D206D696C6C696D657435
:1002F0006572206D6F646500D002E202496E697418
:1003000069616C697A696E67005265736574004350
:1003100079636C650053746F7000456E64005275AC
:100320006E00486F6C6400486F6D696E67004A6FBD
:100330006700FC0209030F0315031A031E032203BF
:1003400027032E034F666600537461727465640060
:10035000486F6D696E670050726F626500440348B4
:10036000035003570353746F700052756E00486F4B
:100370006C640065036A036E034F66660053796E12
:100380006300506C616E00446563656C00486F6C7F
:10039000640079037D03820387038D03473533208F
:1003A0002D206D616368696E6520636F6F7264698B
:1003B0006E6174652073797374656D004735342000
:1003C0002D20636F6F7264696E6174652073797339
:1003D00074656D203100473535202D20636F6F72B5
:1003E00064696E6174652073797374656D20320081
:1003F000473536202D20636F6F7264696E617465B6
:100400002073797374656D203300473537202D20B4
:10041000636F6F7264696E6174652073797374655C
:100420006D203400473538202D20636F6F7264696A
:100430006E6174652073797374656D20350047357E
:1004400039202D20636F6F7264696E61746520734B
:10045000797374656D2036009C03BC03D603F003EA
:100460000A0424043E04473020202D206C696E6568
:100470006172207472617665727365202873656598
:100480006B2900473120202D206C696E6561722038
:100490006665656400473220202D20636C6F636BB6
:1004A0007769736520617263206665656400473310
:1004B00020202D20636F756E74657220636C6F63EE
:1004C0006B776973652061726320666565640047B8
:1004D0003830202D2063616E63656C206D6F746908
:1004E0006F6E206D6F646520286E6F6E652061638E
:1004F000746976652900660483049504AE04CF040C
:10050000473137202D20585920706C616E650047A7
:100510003138202D20585A20706C616E65004731AB
:1005200039202D20595A20706C616E650000050F2E
:10053000051E05473631202D2065786163742073D0
:10054000746F70206D6F6465004736312E31202D39
:100550002065786163742070617468206D6F6465D4
:1005600000473634202D20636F6E74696E756F7589
:1005700073206D6F646500330533056105473930BD
:10058000202D206162736F6C7574652064697374CB
:10059000616E6365206D6F646500473931202D20E1
:1005A000696E6372656D656E74616C2064697374E5
:1005B000616E6365206D6F6465007D059A0547393E
:1005C00034202D20756E6974732D7065722D6D69E0
:1005D0006E757465206D6F64652028692E652E2008
:1005E0006665656472617465206D6F646529004796
:1005F0003933202D20696E76657273652074696DBC
:1006000065206D6F646500BE05EF055B646973610D
:10061000626C65645D005B7374616E646172645DDD
:10062000005B696E686962697465645D005B726134
:10063000646975735D005B736C61766520585D005D
:100640005B736C61766520595D005B736C617665E8
:10065000205A5D005B736C6176652058595D005BC4
:10066000736C61766520585A5D005B736C617665CA
:1006700020595A5D005B736C6176652058595A5D4C
:10068000000B06160621062D06360640064A0654BD
:10069000065F066A06750666762C6669726D776176
:1006A00072655F762C5B66765D20206669726D7779
:1006B0006172655F76657273696F6E2531362E32B1
:1006C000660A0066622C6669726D776172655F62A8
:1006D0002C5B66625D20206669726D776172655F72
:1006E0006275696C642531382E32660A0069642CA3
:1006F00069642C5B69645D202069645F6465766968
:100700006365253136640A0073692C7374617475EE
:10071000735F692C5B73695D2020737461747573FA
:100720005F696E74657276616C20202020253130FF
:100730002E3066206D73205B303D6F66665D0A006B
:1007400073722C7374617475735F722C0076656CB0
:100750002C76656C6F636974792C56656C6F636970
:1007600074793A2531372E336625532F6D696E0A19
:10077000006C696E652C6C696E652C4C696E652029
:100780006E756D6265723A2531302E30660A0066EC
:100790006565642C666565642C46656564207261D8
:1007A00074653A2531362E336625532F6D696E0AEE
:1007B00000737461742C737461742C4D6163686987
:1007C0006E652073746174653A20202020202020FB
:1007D00025730A006D6163732C6D6163732C526124
:1007E00077206D616368696E652073746174653A22
:1007F00020202025730A00637963732C6379637367
:100800002C4379636C652073746174653A202020F1
:1008100020202020202025730A006D6F74732C6D1A
:100820006F74732C4D6F74696F6E2073746174658F
:100830003A202020202020202025730A00686F6C99
:10084000642C686F6C642C46656564686F6C64200A
:1008500073746174653A20202020202025730A00DB
:10086000756E69742C756E69742C556E6974733A63
:100870002020202020202020202020202020202573
:10088000730A00636F6F722C636F6F722C436F6F0C
:100890007264696E6174652073797374656D3A2052
:1008A000202025730A006D6F6D6F2C6D6F6D6F2C9E
:1008B0004D6F74696F6E206D6F64653A2020202043
:1008C000202020202025730A00706C616E2C706C33
:1008D000616E2C506C616E653A2020202020202013
:1008E000202020202020202025730A0070617468B9
:1008F0002C706174682C50617468204D6F64653A87
:10090000202020202020202020202025730A006481
:100910006973742C646973742C44697374616E63B5
:1009200065206D6F64653A202020202020202573EB
:100930000A0066726D6F2C66726D6F2C4665656479
:100940002072617465206D6F64653A20202020203C
:100950002025730A00706F73782C706F73782C5891
:1009600020706F736974696F6E3A2531352E336666
:1009700025530A00706F73792C706F73792C59208E
:10098000706F736974696F6E3A2531352E33662541
:10099000530A00706F737A2C706F737A2C5A207020
:1009A0006F736974696F6E3A2531352E336625533E
:1009B0000A00706F73612C706F73612C4120706F2F
:1009C000736974696F6E3A2531352E336625530A83
:1009D00000706F73622C706F73622C4220706F73A3
:1009E0006974696F6E3A2531352E336625530A00D6
:1009F000706F73632C706F73632C4320706F736917
:100A000074696F6E3A2531352E336625530A006DB1
:100A1000706F782C6D706F782C58206D6163682032
:100A2000706F736974696F6E3A2531302E336625A5
:100A3000530A006D706F792C6D706F792C59206D91
:100A400061636820706F736974696F6E3A25313025
:100A50002E336625530A006D706F7A2C6D706F7A95
:100A60002C5A206D61636820706F736974696F6EB2
:100A70003A2531302E336625530A006D706F612C94
:100A80006D706F612C41206D61636820706F7369B8
:100A900074696F6E3A2531302E336625530A006D26
:100AA000706F622C6D706F622C42206D61636820E4
:100AB000706F736974696F6E3A2531302E33662515
:100AC000530A006D706F632C6D706F632C43206D43
:100AD00061636820706F736974696F6E3A25313095
:100AE0002E336625530A00673932782C67393278FD
:100AF0002C58206F726967696E206F666673657423
:100B00003A2531302E336625530A00673932792C65
:100B1000673932792C59206F726967696E206F6668
:100B2000667365743A2531302E336625530A0067A3
:100B300039327A2C6739327A2C5A206F7269676998
:100B40006E206F66667365743A2531302E336625E4
:100B5000530A00673932612C673932612C41206FAA
:100B6000726967696E206F66667365743A25313005
:100B70002E336625530A00673932622C6739326298
:100B80002C42206F726967696E206F6666736574A8
:100B90003A2531302E336625530A00673932632CEB
:100BA000673932632C43206F726967696E206F6604
:100BB000667365743A2531302E336625530A006812
:100BC000652C68656C702C0074652C746573742CCE
:100BD0000064652C646566612C006D73672C6D7311
:100BE000672C25730A0067706C2C67636F64655F00
:100BF000706C2C5B67706C5D2067636F64655F73FE
:100C0000656C6563745F706C616E6520253130645E
:100C1000205B302C312C325D0A0067756E2C6763C7
:100C20006F64655F752C205B67756E5D2067636F11
:100C300064655F756E6974735F6D6F6465202020F5
:100C400025313064205B302C315D0A0067636F2CE6
:100C500067636F64655F632C205B67636F5D20670C
:100C6000636F64655F636F6F72645F7379737465DC
:100C70006D2025313064205B312D365D0A006770B0
:100C8000612C67636F64655F70612C5B6770615D89
:100C90002067636F64655F706174685F636F6E7413
:100CA000726F6C2025313064205B302C312C325D2A
:100CB0000A006764692C67636F64655F642C205B5E
:100CC0006764695D2067636F64655F6469737461FD
:100CD0006E63655F6D6F646525313064205B302C19
:100CE000315D0A0067632C67636F642C5B67635D2B
:100CF000006A612C6A756E632C5B6A615D20206AF4
:100D0000756E6374696F6E5F616363656C65726154
:100D100074696F6E25382E306625530A006D6C2C71
:100D20006D696E5F6C2C5B6D6C5D20206D696E5F14
:100D30006C696E655F7365676D656E742020202534
:100D400031342E336625530A006D612C6D696E5F58
:100D5000612C5B6D615D20206D696E5F6172635F08
:100D60007365676D656E74202020202531342E3325
:100D70006625530A006D742C6D696E5F732C5B6D74
:100D8000745D20206D696E5F7365676D656E745F5D
:100D900074696D652020202531302E306620755312
:100DA00065630A0069632C69676E6F72655F632C07
:100DB0005B69635D202069676E6F72652043522016
:100DC0006F72204C46206F6E2052582025376420C9
:100DD0005B302C313D43522C323D4C465D0A006560
:100DE000632C656E61626C655F632C5B65635D207F
:100DF00020656E61626C655F435220286F6E2054DF
:100E0000582925313264205B302C315D0A0065653C
:100E10002C656E61626C655F652C5B65655D20208D
:100E2000656E61626C655F6563686F2020202020BD
:100E30002025313264205B302C315D0A0065782C2E
:100E4000656E61626C655F782C5B65785D202065FE
:100E50006E61626C655F786F6E5F786F666620208A
:100E600025313264205B302C315D0A00656A2C65C7
:100E70006E61626C655F6A2C5B656A5D2020656EE1
:100E800061626C655F6A736F6E5F6D6F646520256C
:100E9000313264205B302C315D0A00316D612C6D84
:100EA000315F6D612C205B316D615D206D315F6D57
:100EB00061705F746F5F6178697325313564205BA1
:100EC000303D582C20313D592E2E2E5D0A003173B5
:100ED000612C6D315F732C20205B3173615D206D5F
:100EE000315F737465705F616E676C652532302E9B
:100EF000336625530A003174722C6D315F74722C85
:100F0000205B3174725D206D315F74726176656C47
:100F10005F7065725F7265766F6C7574696F6E2550
:100F2000392E336625530A00316D692C6D315F6DA2
:100F3000692C205B316D695D206D315F6D69637275
:100F40006F73746570732025313564205B312C32EA
:100F50002C342C385D0A0031706F2C6D315F706F4E
:100F60006C2C5B31706F5D206D315F706F6C6172E6
:100F700069747920202025313564205B302C315D67
:100F80000A0031706D2C6D315F706F772C5B3170A2
:100F90006D5D206D315F706F7765725F6D616E6141
:100FA00067656D656E7425313064205B302C315D72
:100FB0000A00326D612C6D325F6D612C205B326DE9
:100FC000615D206D325F6D61705F746F5F61786924
:100FD0007325313564205B303D582C20313D592E2E
:100FE0002E2E5D0A003273612C6D325F732C20202F
:100FF0005B3273615D206D325F737465705F616E2B
:10100000676C652532302E336625530A00327472C0
:101010002C6D325F74722C205B3274725D206D32E5
:101020005F74726176656C5F7065725F7265766F12
:101030006C7574696F6E25392E336625530A00323C
:101040006D692C6D325F6D692C205B326D695D209E
:101050006D325F6D6963726F7374657073202531D3
:101060003564205B312C322C342C385D0A00327010
:101070006F2C6D325F706F6C2C5B32706F5D206D0A
:10108000325F706F6C617269747920202025313570
:1010900064205B302C315D0A0032706D2C6D325F44
:1010A000706F772C5B32706D5D206D325F706F7783
:1010B00065725F6D616E6167656D656E7425313057
:1010C00064205B302C315D0A00336D612C6D335F21
:1010D0006D612C205B336D615D206D335F6D6170E0
:1010E0005F746F5F6178697325313564205B303DD3
:1010F000582C20313D592E2E2E5D0A003373612C61
:101100006D335F732C20205B3373615D206D335F23
:10111000737465705F616E676C652532302E33665F
:1011200025530A003374722C6D335F74722C205B6C
:101130003374725D206D335F74726176656C5F70BD
:1011400065725F7265766F6C7574696F6E25392E86
:10115000336625530A00336D692C6D335F6D692C3E
:10116000205B336D695D206D335F6D6963726F73F2
:10117000746570732025313564205B312C322C343A
:101180002C385D0A0033706F2C6D335F706F6C2CE0
:101190005B33706F5D206D335F706F6C617269746B
:1011A0007920202025313564205B302C315D0A0008
:1011B00033706D2C6D335F706F772C5B33706D5DAA
:1011C000206D335F706F7765725F6D616E6167650B
:1011D0006D656E7425313064205B302C315D0A0002
:1011E000346D612C6D345F6D612C205B346D615DFD
:1011F000206D345F6D61705F746F5F617869732516
:10120000313564205B303D582C20313D592E2E2E37
:101210005D0A003473612C6D345F732C20205B34C5
:1012200073615D206D345F737465705F616E676CB0
:10123000652532302E336625530A003474722C6DC6
:10124000345F74722C205B3474725D206D345F7473
:10125000726176656C5F7065725F7265766F6C75D2
:1012600074696F6E25392E336625530A00346D6913
:101270002C6D345F6D692C205B346D695D206D349D
:101280005F6D6963726F73746570732025313564A7
:10129000205B312C322C342C385D0A0034706F2CDA
:1012A0006D345F706F6C2C5B34706F5D206D345FDC
:1012B000706F6C617269747920202025313564204B
:1012C0005B302C315D0A0034706D2C6D345F706FB3
:1012D000772C5B34706D5D206D345F706F77657255
:1012E0005F6D616E6167656D656E74253130642078
:1012F0005B302C315D0A0078616D2C785F612C5B6E
:1013000078616D5D20785F617869735F6D6F64658A
:10131000253138642025530A007866722C785F6680
:101320002C5B7866725D20785F66656564726174B7
:10133000655F6D6178696D756D2531352E33662574
:10134000532F6D696E0A0078766D2C785F762C5B72
:1013500078766D5D20785F76656C6F636974795F10
:101360006D6178696D756D2531352E336625532F86
:101370006D696E0A0078746D2C785F742C5B7874DC
:101380006D5D20785F74726176656C5F6D61786900
:101390006D756D2531372E336625530A00786A6DD9
:1013A0002C785F6A652C5B786A6D5D20785F6A6572
:1013B000726B5F6D6178696D756D2531352E3066A4
:1013C00025532F6D696E5E330A00786A642C785F4E
:1013D0006A752C5B786A645D20785F6A756E6374E9
:1013E000696F6E5F646576696174696F6E2531340B
:1013F0002E3466255320286C6172676572206973EC
:1014000020666173746572290A0078736D2C785FA9
:10141000732C5B78736D5D20785F73776974636894
:101420005F6D6F646525313664205B302C312C3262
:101430002C332C345D0A007873762C785F732C5B28
:101440007873765D20785F7365617263685F766537
:101450006C6F636974792531362E336625532F6D91
:10146000696E0A00786C762C785F6C617463685FD3
:10147000762C5B786C765D20785F6C617463685F56
:1014800076656C6F636974792531372E3366255321
:101490002F6D696E0A00786C622C785F6C617463E2
:1014A000685F622C5B786C625D20785F6C6174634E
:1014B000685F6261636B6F66662531382E3366251F
:1014C000530A00787A622C785F7A2C5B787A625DB6
:1014D00020785F7A65726F5F6261636B6F66662505
:1014E00031392E336625530A0079616D2C795F619D
:1014F0002C5B79616D5D20795F617869735F6D6FD9
:101500006465253138642025530A007966722C7988
:101510005F662C5B7966725D20795F6665656472D3
:101520006174655F6D6178696D756D2531352E3338
:101530006625532F6D696E0A0079766D2C795F767A
:101540002C5B79766D5D20795F76656C6F6369746D
:10155000795F6D6178696D756D2531352E3366253E
:10156000532F6D696E0A0079746D2C795F742C5B52
:1015700079746D5D20795F74726176656C5F6D6101
:1015800078696D756D2531372E336625530A0079DC
:101590006A6D2C795F6A652C5B796A6D5D20795F75
:1015A0006A65726B5F6D6178696D756D2531352E79
:1015B000306625532F6D696E5E330A00796A642C9C
:1015C000795F6A752C5B796A645D20795F6A756EF4
:1015D0006374696F6E5F646576696174696F6E25A7
:1015E00031342E3466255320286C61726765722071
:1015F000697320666173746572290A0079736D2CB2
:10160000795F732C5B79736D5D20795F7377697493
:1016100063685F6D6F646525313664205B302C3103
:101620002C322C332C345D0A007973762C795F735D
:101630002C5B7973765D20795F7365617263685F97
:1016400076656C6F636974792531362E3366255360
:101650002F6D696E0A00796C762C795F6C6174630A
:10166000685F762C5B796C765D20795F6C61746362
:10167000685F76656C6F636974792531372E3366E0
:1016800025532F6D696E0A00796C622C795F6C614D
:101690007463685F622C5B796C625D20795F6C615A
:1016A0007463685F6261636B6F66662531382E33E1
:1016B0006625530A00797A622C795F7A2C5B797AF5
:1016C000625D20795F7A65726F5F6261636B6F66DE
:1016D000662531392E336625530A007A616D2C7ADE
:1016E0005F612C5B7A616D5D207A5F617869735F01
:1016F0006D6F6465253138642025530A007A66725F
:101700002C7A5F662C5B7A66725D207A5F6665650F
:1017100064726174655F6D6178696D756D253135D1
:101720002E336625532F6D696E0A007A766D2C7AFA
:101730005F762C5B7A766D5D207A5F76656C6F6381
:101740006974795F6D6178696D756D2531352E33FA
:101750006625532F6D696E0A007A746D2C7A5F745A
:101760002C5B7A746D5D207A5F74726176656C5F54
:101770006D6178696D756D2531372E336625530A95
:10178000007A6A6D2C7A5F6A652C5B7A6A6D5D20DF
:101790007A5F6A65726B5F6D6178696D756D253111
:1017A000352E306625532F6D696E5E330A007A6AD6
:1017B000642C7A5F6A752C5B7A6A645D207A5F6A52
:1017C000756E6374696F6E5F646576696174696F65
:1017D0006E2531342E3466255320286C617267657E
:1017E0007220697320666173746572290A007A73C6
:1017F0006D2C7A5F732C5B7A736D5D207A5F7377E3
:10180000697463685F6D6F646525313664205B3091
:101810002C312C322C332C345D0A007A73762C7ADE
:101820005F732C5B7A73765D207A5F736561726398
:10183000685F76656C6F636974792531362E33661F
:1018400025532F6D696E0A007A6C762C7A5F6C6175
:101850007463685F762C5B7A6C765D207A5F6C616E
:101860007463685F76656C6F636974792531372EB0
:10187000336625532F6D696E0A007A6C622C7A5F8D
:101880006C617463685F622C5B7A6C625D207A5F66
:101890006C617463685F6261636B6F666625313883
:1018A0002E336625530A007A7A622C7A5F7A2C5B93
:1018B0007A7A625D207A5F7A65726F5F6261636BCC
:1018C0006F66662531392E336625530A0061616DD6
:1018D0002C615F612C5B61616D5D20615F61786986
:1018E000735F6D6F6465253138642025530A00618C
:1018F00066722C615F662C5B6166725D20615F665B
:10190000656564726174655F6D6178696D756D257B
:1019100031352E336625532F6D696E0A0061766D61
:101920002C615F762C5B61766D5D20615F76656C06
:101930006F636974795F6D6178696D756D25313597
:101940002E336625532F6D696E0A0061746D2C610C
:101950005F742C5B61746D5D20615F74726176658C
:101960006C5F6D6178696D756D20202531352E3382
:101970006625530A00616A6D2C615F6A652C5B61A4
:101980006A6D5D20615F6A65726B5F6D6178696D1C
:10199000756D2531352E306625532F6D696E5E339A
:1019A0000A00616A642C615F6A752C5B616A645D20
:1019B00020615F6A756E6374696F6E5F64657669D6
:1019C0006174696F6E2531342E346625530A0061C7
:1019D00072612C615F722C5B6172615D20615F726C
:1019E00061646975735F76616C75652532302E347C
:1019F0006625530A0061736D2C615F732C5B617304
:101A00006D5D20615F7377697463685F6D6F646596
:101A100025313664205B302C312C322C332C345D54
:101A20000A006173762C615F732C5B6173765D20B5
:101A3000615F7365617263685F76656C6F6369741B
:101A4000792531362E336625532F6D696E0A006174
:101A50006C762C615F6C617463685F762C5B616C83
:101A6000765D20615F6C617463685F76656C6F633F
:101A70006974792531372E336625532F6D696E0AC7
:101A800000616C622C615F6C617463685F622C5BE7
:101A9000616C625D20615F6C617463685F62616349
:101AA0006B6F66662531382E336625530A00617ADE
:101AB000622C615F7A2C5B617A625D20615F7A657E
:101AC000726F5F6261636B6F66662531392E3366B4
:101AD00025530A0062616D2C625F612C5B62616D4F
:101AE0005D20625F617869735F6D6F646525313871
:101AF000642025530A006266722C625F662C5B626A
:101B000066725D20625F66656564726174655F6DB3
:101B10006178696D756D2531352E336625532F6DCE
:101B2000696E0A0062766D2C625F762C5B62766D60
:101B30005D20625F76656C6F636974795F6D617853
:101B4000696D756D2531352E336625532F6D696EA0
:101B50000A0062746D2C625F742C5B62746D5D2090
:101B6000625F74726176656C5F6D6178696D756DC9
:101B70002531372E336625530A00626A6D2C625F69
:101B80006A652C5B626A6D5D20625F6A65726B5F7D
:101B90006D6178696D756D2531352E306625532F51
:101BA0006D696E5E330A00626A642C625F6A752C2E
:101BB0005B626A645D20625F6A756E6374696F6EF2
:101BC0005F646576696174696F6E2531342E3466A1
:101BD00025530A006272612C625F722C5B62726133
:101BE0005D20625F7261646975735F76616C7565B3
:101BF0002532302E346625530A0062736D2C625FE5
:101C0000732C5B62736D5D20625F737769746368C8
:101C10005F6D6F646525313664205B302C312C326A
:101C20002C332C345D0A006273762C625F732C5B5C
:101C30006273765D20625F7365617263685F76656B
:101C40006C6F636974792531362E336625532F6D99
:101C5000696E0A00626C762C625F6C617463685F07
:101C6000762C5B626C765D20625F6C617463685F8A
:101C700076656C6F636974792531372E3366255329
:101C80002F6D696E0A00626C622C625F6C61746316
:101C9000685F622C5B626C625D20625F6C61746382
:101CA000685F6261636B6F66662531382E33662527
:101CB000530A00627A622C625F7A2C5B627A625D00
:101CC00020625F7A65726F5F6261636B6F66662523
:101CD00031392E336625530A0063616D2C635F61D1
:101CE0002C5B63616D5D20635F617869735F6D6F0D
:101CF0006465253138642025530A006366722C63BD
:101D00005F662C5B6366725D20635F666565647207
:101D10006174655F6D6178696D756D2531352E3340
:101D20006625532F6D696E0A0063766D2C635F76AE
:101D30002C5B63766D5D20635F76656C6F636974A1
:101D4000795F6D6178696D756D2531352E33662546
:101D5000532F6D696E0A0063746D2C635F742C5B86
:101D600063746D5D20635F74726176656C5F6D6135
:101D700078696D756D2531372E336625530A0063FA
:101D80006A6D2C635F6A652C5B636A6D5D20635FBF
:101D90006A65726B5F6D6178696D756D2531352E81
:101DA000306625532F6D696E5E330A00636A642CBA
:101DB000635F6A752C5B636A645D20635F6A756E3E
:101DC0006374696F6E5F646576696174696F6E25AF
:101DD00031342E346625530A006372612C635F72BE
:101DE0002C5B6372615D20635F7261646975735F10
:101DF00076616C75652532302E346625530A006392
:101E0000736D2C635F732C5B63736D5D20635F7315
:101E100077697463685F6D6F646525313664205B34
:101E2000302C312C322C332C345D0A006373762C29
:101E3000635F732C5B6373765D20635F73656172B0
:101E400063685F76656C6F636974792531362E330C
:101E50006625532F6D696E0A00636C762C635F6C88
:101E6000617463685F762C5B636C765D20635F6C86
:101E7000617463685F76656C6F6369747925313767
:101E80002E336625532F6D696E0A00636C622C63D6
:101E90005F6C617463685F622C5B636C625D20637E
:101EA0005F6C617463685F6261636B6F6666253146
:101EB000382E336625530A00637A622C635F7A2CCE
:101EC0005B637A625D20635F7A65726F5F626163F4
:101ED0006B6F66662531392E336625530A006735E8
:101EE00034782C6735345F782C5B673534785D2027
:101EF0006735345F785F6F66667365742532302EA0
:101F0000336625530A00673534792C6735345F7999
:101F10002C5B673534795D206735345F795F6F6698
:101F2000667365742532302E336625530A00673593
:101F3000347A2C6735345F7A2C5B6735347A5D20D0
:101F40006735345F7A5F6F66667365742532302E4D
:101F5000336625530A00673534612C6735345F6179
:101F60002C5B673534615D206735345F615F6F6678
:101F7000667365742532302E336625530A00673543
:101F800034622C6735345F622C5B673534625D20C8
:101F90006735345F625F6F66667365742532302E15
:101FA000336625530A00673534632C6735345F6325
:101FB0002C5B673534635D206735345F635F6F6624
:101FC000667365742532302E336625530A006735F3
:101FD00035782C6735355F782C5B673535785D2033
:101FE0006735355F785F6F66667365742532302EAE
:101FF000336625530A00673535792C6735355F79A7
:102000002C5B673535795D206735355F795F6F66A5
:10201000667365742532302E336625530A006735A2
:10202000357A2C6735355F7A2C5B6735357A5D20DC
:102030006735355F7A5F6F66667365742532302E5B
:10204000336625530A00673535612C6735355F6186
:102050002C5B673535615D206735355F615F6F6685
:10206000667365742532302E336625530A00673552
:1020700035622C6735355F622C5B673535625D20D4
:102080006735355F625F6F66667365742532302E23
:10209000336625530A00673535632C6735355F6332
:1020A0002C5B673535635D206735355F635F6F6631
:1020B000667365742532302E336625530A00673502
:1020C00036782C6735365F782C5B673536785D203F
:1020D0006735365F785F6F66667365742532302EBC
:1020E000336625530A00673536792C6735365F79B4
:1020F0002C5B673536795D206735365F795F6F66B3
:10210000667365742532302E336625530A006735B1
:10211000367A2C6735365F7A2C5B6735367A5D20E8
:102120006735365F7A5F6F66667365742532302E69
:10213000336625530A00673536612C6735365F6193
:102140002C5B673536615D206735365F615F6F6692
:10215000667365742532302E336625530A00673561
:1021600036622C6735365F622C5B673536625D20E0
:102170006735365F625F6F66667365742532302E31
:10218000336625530A00673536632C6735365F633F
:102190002C5B673536635D206735365F635F6F663E
:1021A000667365742532302E336625530A00673511
:1021B00037782C6735375F782C5B673537785D204B
:1021C0006735375F785F6F66667365742532302ECA
:1021D000336625530A00673537792C6735375F79C1
:1021E0002C5B673537795D206735375F795F6F66C0
:1021F000667365742532302E336625530A006735C1
:10220000377A2C6735375F7A2C5B6735377A5D20F4
:102210006735375F7A5F6F66667365742532302E77
:10222000336625530A00673537612C6735375F61A0
:102230002C5B673537615D206735375F615F6F669F
:10224000667365742532302E336625530A00673570
:1022500037622C6735375F622C5B673537625D20EC
:102260006735375F625F6F66667365742532302E3F
:10227000336625530A00673537632C6735375F634C
:102280002C5B673537635D206735375F635F6F664B
:10229000667365742532302E336625530A00673520
:1022A00038782C6735385F782C5B673538785D2057
:1022B0006735385F785F6F66667365742532302ED8
:1022C000336625530A00673538792C6735385F79CE
:1022D0002C5B673538795D206735385F795F6F66CD
:1022E000667365742532302E336625530A006735D0
:1022F000387A2C6735385F7A2C5B6735387A5D2001
:102300006735385F7A5F6F66667365742532302E85
:10231000336625530A00673538612C6735385F61AD
:102320002C5B673538615D206735385F615F6F66AC
:10233000667365742532302E336625530A0067357F
:1023400038622C6735385F622C5B673538625D20F8
:102350006735385F625F6F66667365742532302E4D
:10236000336625530A00673538632C6735385F6359
:102370002C5B673538635D206735385F635F6F6658
:10238000667365742532302E336625530A0067352F
:1023900039782C6735395F782C5B673539785D2063
:1023A0006735395F785F6F66667365742532302EE6
:1023B000336625530A00673539792C6735395F79DB
:1023C0002C5B673539795D206735395F795F6F66DA
:1023D000667365742532302E336625530A006735DF
:1023E000397A2C6735395F7A2C5B6735397A5D200D
:1023F0006735395F7A5F6F66667365742532302E94
:10240000336625530A00673539612C6735395F61BA
:102410002C5B673539615D206735395F615F6F66B9
:10242000667365742532302E336625530A0067358E
:1024300039622C6735395F622C5B673539625D2004
:102440006735395F625F6F66667365742532302E5B
:10245000336625530A00673539632C6735395F6366
:102460002C5B673539635D206735395F635F6F6665
:10247000667365742532302E336625530A007372F5
:1024800030302C737230302C00737230312C7372F8
:1024900030312C00737230322C737230322C007356
:1024A0007230332C737230332C00737230342C73CF
:1024B0007230342C00737230352C737230352C002E
:1024C000737230362C737230362C00737230372CA6
:1024D000737230372C00737230382C737230382C92
:1024E00000737230392C737230392C0073723130B2
:1024F0002C737231302C00737231312C7372313184
:102500002C00737231322C737231322C00737231A1
:10251000332C737231332C00737231342C7372315B
:10252000342C00737231352C737231352C00737278
:1025300031362C737231362C00737231372C737232
:1025400031372C00737231382C737231382C007390
:102550007231392C737231392C00312C312C00320C
:102560002C322C00332C332C00342C342C00782CBF
:10257000782C00792C792C007A2C7A2C00612C6133
:102580002C00622C622C00632C632C006735342CE9
:102590006735342C006735352C6735352C006735A9
:1025A000362C6735362C006735372C6735372C00CD
:1025B0006735382C6735382C006735392C67353945
:1025C0002C006739322C6739322C007379732C73E5
:1025D00079732C00732C732C00706F732C706F73D5
:1025E0002C006D706F2C6D706F2C006D2C6D2C009D
:1025F0006E2C6E2C006F2C6F2C00242C242C006869
:102600002C682C00C306EC6E736D8D6B29311F0591
:10261000AB439706EC6E736D8D6B25313333733F8F
:10262000ED068E6E46578D6B2D31000000000807B9
:10263000EC6E2F6DD95708340000484340076457AB
:10264000545773572D310000000071078E6EC0592A
:10265000DD6B5130000000008F07406FB16D8D6B56
:102660002D3100000000B107EA6D70588D6B2D31DF
:1026700000000000D407EA6D8C588D6B2D310000EE
:102680000000F707EA6DA8588D6B2D31000000009F
:102690001A08EA6DC4588D6B2D31000000003D080A
:1026A000EA6DE0588D6B2D31000000004D07406F42
:1026B000DC598D6B2D31000000006008EA6DFC587C
:1026C0008D6B2D31000000008308EA6D18598D6B69
:1026D0002D3100000000A608EA6D34598D6B2D31B4
:1026E00000000000C908EA6D50598D6B2D310000C3
:1026F0000000EC08EA6D6C598D6B2D310000000074
:102700000F09EA6D88598D6B2D31000000003209E8
:10271000EA6DA4598D6B2D31000000005509565A01
:10272000125A8D6B2D31000000007409565A125A4E
:102730008D6B2D31000000009309565A125A8D6B93
:102740002D3100000000B209565A125A8D6B2D31FE
:1027500000000000D109565A125A8D6B2D3100002D
:102760000000F009565A125A8D6B2D3100000000FE
:102770000F0A565A345A8D6B2D3100000000330A6F
:10278000565A345A8D6B2D3100000000570A565AA4
:10279000345A8D6B2D31000000007B0A565A345A92
:1027A0008D6B2D31000000009F0A565A345A8D6BF4
:1027B0002D3100000000C30A565A345A8D6B2D315A
:1027C00000000000E70A406FB16D8D6B853000009E
:1027D00000000B0B406FB16D8D6B89300000000065
:1027E0002F0B406FB16D8D6B8D3000000000530BCF
:1027F000B76F736D8D6B913000000000770BB76F72
:10280000736D8D6B9530000000009B0BB76F736D7F
:102810008D6B993000000000C80B0C8EEA6C0CC761
:10282000313100000000BF0BBC8DD86C8D6B2D3199
:1028300000000000D10B458ED86C745F2D31000074
:102840000000DA0BEA6DD86C8D6B2D3100000000B2
:10285000E60B346EEA6C9B6BFF33000000001A0C31
:10286000346EEA6C9B6B00340000803F4C0C346E7D
:10287000EA6C9B6BFE330000803F7E0C346EEA6C8A
:102880009B6B013400000040B20C346EEA6C9B6B11
:10289000023400000000E40CDD6DD25AEE5A2D31F6
:1028A00000000000F10C406FB16D5D6CF933005019
:1028B00043481D0D406FB16D5D6CED330AD7A33DEC
:1028C000490D406FB16D5D6CF133CDCCCC3D750DD4
:1028D000406F736D226CF53300409C45A40D346E3F
:1028E000EA6C2C5E033400000000DF0D346EEA6CED
:1028F000705E0434000000000E0E346EEA6C9B5EC5
:1029000005340000803F3D0E346EEA6CC65E06342E
:102910000000803F6C0E346EEA6C9B6B0734000045
:1029200000009B0E346EEA6C9B6BDE3400000000EE
:10293000CE0EB76F736D615CE2346666E63FF60EED
:10294000406FB16D775CE634F6281242280F346E82
:10295000EA6C8D5CDF3400000041570F346EEA6C86
:10296000325DE03400000000820F346EEA6C9B6B35
:10297000E1340000803FB20F346EEA6C9B6BEE34A2
:102980000000803FE50FB76F736D615CF2346666DF
:10299000E63F0D10406FB16D775CF634F6281242B9
:1029A0003F10346EEA6C8D5CEF34000000416E1015
:1029B000346EEA6C325DF0340000803F9910346E62
:1029C000EA6C9B6BF1340000803FC910346EEA6CF6
:1029D0009B6BFE3400000040FC10B76F736D615CB0
:1029E00002356666E63F2411406FB16D775C0635AF
:1029F0000000A03F5611346EEA6C8D5CFF3400007D
:102A000000418511346EEA6C325D00350000000033
:102A1000B011346EEA6C9B6B01350000803FE01111
:102A2000346EEA6C9B6B0E35000040401312B76F9A
:102A3000736D615C12356666E63F3B12406FB16DA7
:102A4000775C16350000B4436D12346EEA6C8D5C11
:102A50000F35000000419C12346EEA6C325D103577
:102A600000000000C712346EEA6C9B6B1135000049
:102A70000000F712A55B0D5B375B1E350000803F41
:102A80004713406FB16D5D6C233500007A46191312
:102A9000406FB16D5D6C1F3500007A467513406F55
:102AA000B16D5D6C273500002A439D13406FB16DF9
:102AB0005D6C2B35F902954FCA13406FB16D5D6C9B
:102AC0002F35CDCC4C3D0A14346EEA6C2C5C373576
:102AD000000000403714406FB16D5D6C3835000068
:102AE0007AC46414406FB16D5D6C3C350000C8421F
:102AF0009614406FB16D5D6C403500000040C3140A
:102B0000406FB16D5D6C44350000803FE914A55BFA
:102B10000D5B375B48350000803F3915406FB16D64
:102B20005D6C4D3500007A460B15406FB16D5D6CE4
:102B3000493500007A466715406FB16D5D6C5135BF
:102B400000002A438F15406FB16D5D6C5535F90259
:102B5000954FBC15406FB16D5D6C5935CDCC4C3D7A
:102B6000FC15346EEA6C2C5C6135000000402916BF
:102B7000406FB16D5D6C623500007AC45616406FCF
:102B8000B16D5D6C66350000C8428816406FB16D4E
:102B90005D6C6A3500000040B516406FB16D5D6C2C
:102BA0006E350000803FDB16A55B0D5B375B723531
:102BB0000000803F2B17406FB16D5D6C77350000D2
:102BC0009644FD16406FB16D5D6C73350000964400
:102BD0005917406FB16D5D6C7B350000484281171D
:102BE000406FB16D5D6C7F3520BC3E4CAE17406FC1
:102BF000B16D5D6C8335CDCC4C3DEE17346EEA6C17
:102C00002C5C8B35000000401B18406FB16D5D6C73
:102C10008C350000C8434818406FB16D5D6C90352D
:102C20000000C8427A18406FB16D5D6C94350000A9
:102C30000040A718406FB16D5D6C98350000803F73
:102C4000CD18A55B0D5B375B9C350000803F1D19DF
:102C5000B76F736D226CA13500006145EF18B76F37
:102C6000736D226C9D35000061454B19B76F736D14
:102C7000226CA535000080BF7519B76F736D226C8B
:102C8000A9358096984BA219B76F736D226CAD353C
:102C9000CDCC4C3DCF19B76F736D226CB1350000B0
:102CA000803FF519346EEA6C2C5CB53500000040AD
:102CB000221AB76F736D226CB635000016C44F1A16
:102CC000B76F736D226CBA350000C842811AB76FB6
:102CD000736D226CBE350000A0C0AE1AB76F736D65
:102CE000226CC23500000040D41AA55B0D5B375B37
:102CF000C63500000000241BB76F736D226CCB3506
:102D000000006145F61AB76F736D226CC73500007D
:102D10006145521BB76F736D226CCF35000080BFC9
:102D20007A1BB76F736D226CD3358096984BA71BB7
:102D3000B76F736D226CD735CDCC4C3DD41BB76FBC
:102D4000736D226CDB350000803FFA1B346EEA6C39
:102D50002C5CDF350000803F271CB76F736D226C41
:102D6000E035000016C4541CB76F736D226CE43557
:102D70000000C842861CB76F736D226CE8350000F6
:102D8000A0C0B31CB76F736D226CEC35000000401F
:102D9000D91CA55B0D5B375BF03500000000291DD9
:102DA000B76F736D226CF53500006145FB1CB76F82
:102DB000736D226CF13500006145571DB76F736D5F
:102DC000226CF935000080BF7F1DB76F736D226CD8
:102DD000FD358096984BAC1DB76F736D226C013634
:102DE000CDCC4C3DD91DB76F736D226C05360000FC
:102DF000803FFF1D346EEA6C2C5C09360000803F7A
:102E00002C1EB76F736D226C0A36000016C4591E53
:102E1000B76F736D226C0E360000C8428B1EB76F01
:102E2000736D226C12360000A0C0B81EB76F736DB0
:102E3000226C163600000040DE1E406FB16D5D6CE6
:102E40004E3400000000061F406FB16D5D6C5234BF
:102E5000000000002E1F406FB16D5D6C5634000005
:102E60000000561F406FB16D5D6C5A3400000000C9
:102E70007E1F406FB16D5D6C5E3400000000A61FC8
:102E8000406FB16D5D6C623400000000CE1F406F7A
:102E9000B16D5D6C663400000000F61F406FB16DCF
:102EA0005D6C6A34000000001E20406FB16D5D6CE7
:102EB0006E34000000004620406FB16D5D6C7234CE
:102EC000000000006E20406FB16D5D6C7634000034
:102ED00000009620406FB16D5D6C7A3400000000F8
:102EE000BE20406FB16D5D6C7E3400000000E620B6
:102EF000406FB16D5D6C8234000000000E21406FA8
:102F0000B16D5D6C8634000000003621406FB16DFC
:102F10005D6C8A34000000005E21406FB16D5D6C15
:102F20008E34000000008621406FB16D5D6C9234DC
:102F300000000000AE21406FB16D5D6C9634000062
:102F40000000D621406FB16D5D6C9A340000000026
:102F5000FE21406FB16D5D6C9E34000000002622A2
:102F6000406FB16D5D6CA234000000004E22406FD6
:102F7000B16D5D6CA634000000007622406FB16D2B
:102F80005D6CAA34000000009E22406FB16D5D6C44
:102F9000AE3400000000C622406FB16D5D6CB234EB
:102FA00000000000EE22406FB16D5D6CB634000091
:102FB00000001623406FB16D5D6CBA340000000054
:102FC0003E23406FB16D5D6CBE340000000066238F
:102FD000406FB16D5D6CC234000000008E23406F05
:102FE000B16D5D6CC63400000000B623406FB16D5A
:102FF0005D6CCA3400000000DE23406FB16D5D6C73
:10300000CE34000000000624406FB16D5D6CD234F8
:10301000000000002E24406FB16D5D6CD6340000BE
:1030200000005624406FB16D5D6CDA340000000082
:103030007E24DD6D2F6DDD6B0C34000000008924D3
:10304000DD6D2F6DDD6B0E34000000009424DD6D0E
:103050002F6DDD6B1034000000009F24DD6D2F6D9F
:10306000DD6B123400000000AA24DD6D2F6DDD6BD6
:10307000143400000000B524DD6D2F6DDD6B1634B7
:1030800000000000C024DD6D2F6DDD6B18340000E2
:103090000000CB24DD6D2F6DDD6B1A3400000000C5
:1030A000D624DD6D2F6DDD6B1C3400000000E124A3
:1030B000DD6D2F6DDD6B1E3400000000EC24DD6D36
:1030C0002F6DDD6B203400000000F724DD6D2F6DC7
:1030D000DD6B2234000000000225DD6D2F6DDD6BFD
:1030E0002434000000000D25DD6D2F6DDD6B2634CE
:1030F000000000001825DD6D2F6DDD6B2834000009
:1031000000002325DD6D2F6DDD6B2A3400000000EB
:103110002E25DD6D2F6DDD6B2C3400000000392570
:10312000DD6D2F6DDD6B2E34000000004425DD6D5C
:103130002F6DDD6B3034000000004F25DD6D2F6DED
:10314000DD6B323400000000CB25DD6D397270710B
:103150002D3100000000D425DD6D397270712D31E4
:10316000000000005A25DD6D987170712D3100004E
:1031700000005F25DD6D987170712D310000000039
:103180006425DD6D987170712D3100000000692596
:10319000DD6D987170712D31000000006E25DD6DC0
:1031A000987170712D31000000007325DD6D9871EC
:1031B00070712D31000000007825DD6D98717071FF
:1031C0002D31000000007D25DD6D987170712D316D
:1031D000000000008225DD6D987170712D310000B6
:1031E00000008725DD6D987170712D3100000000A1
:1031F0008C25DD6D987170712D31000000009525D2
:10320000DD6D987170712D31000000009E25DD6D1F
:10321000987170712D3100000000A725DD6D987147
:1032200070712D3100000000B025DD6D9871707156
:103230002D3100000000B925DD6D987170712D31C0
:1032400000000000C225DD6D987170712D31000005
:103250000000D925DD6D987170712D3100000000DE
:10326000E225DD6D987170712D3100000000EB25B5
:10327000DD6D90738D6B2D3100000000F025DD6D4C
:10328000D9738D6B2D3100000000F525DD6D347490
:103290008D6B2D3100000000FA25DD6D98748D6B6B
:1032A0002D3100000000FF25BC8DD86C8D6B2D31B9
:1032B000000000000A002E00636B73006C6E006259
:1032C000756600736D0073630062640072002C0009
:1032D0000A0025733A25730025733A25312E30668E
:1032E0000025733A25312E3366002C000A00257321
:1032F0000025312E30660025312E336600456E6480
:10330000206F6620636F6D6D616E642066696C6509
:103310000A004F4B004572726F7200456167616928
:103320006E004E6F6F7000436F6D706C657465005A
:103330005465726D696E617465640041626F727488
:10334000656400456E64206F66206C696E6500459B
:103350006E64206F662066696C650046696C652046
:103360006E6F74206F70656E004D61782066696CB9
:10337000652073697A6520657863656564656400B6
:103380004E6F2073756368206465766963650042DB
:10339000756666657220656D707479004275666643
:1033A00065722066756C6C202D20666174616C00FE
:1033B0004275666665722066756C6C202D206E6F96
:1033C0006E2D666174616C00233135002331360047
:1033D000233137002331380023313900496E7465B9
:1033E000726E616C206572726F7200496E746572E4
:1033F0006E616C2072616E6765206572726F72001B
:10340000466C6F6174696E6720706F696E742065B9
:1034100072726F7200446976696465206279207AFD
:1034200065726F00233234002332350023323600B8
:10343000233237002332380023323900233330005F
:10344000233331002333320023333300233334005A
:10345000233335002333360023333700233338003A
:1034600023333900556E7265636F676E697A6564E0
:1034700020636F6D6D616E6400457870656374657F
:103480006420636F6D6D616E64206C657474657229
:1034900000426164206E756D62657220666F726DA8
:1034A000617400496E707574206578636565647336
:1034B000206D6178206C656E67746800496E707568
:1034C000742076616C756520746F6F20736D616C0C
:1034D0006C00496E7075742076616C756520746F30
:1034E0006F206C6172676500496E7075742076613B
:1034F0006C75652072616E6765206572726F72000F
:10350000496E7075742076616C756520756E737583
:1035100070706F72746564004A534F4E2073796EF9
:10352000746178206572726F72004A534F4E206941
:103530006E7075742068617320746F6F206D616E9A
:1035400079207061697273004F7574206F66206214
:10355000756666657220737061636500233531009E
:10356000233532002335330023353400233535002D
:10357000233536002335370023353800233539000D
:103580005A65726F206C656E677468206D6F766522
:103590000047636F646520626C6F636B20736B69B7
:1035A000707065640047636F646520696E70757440
:1035B000206572726F720047636F6465206665658F
:1035C0006472617465206572726F720047636F6424
:1035D00065206178697320776F7264206D697373F9
:1035E000696E670047636F6465206D6F64616C206E
:1035F00067726F75702076696F6C6174696F6E00A9
:10360000486F6D696E67206379636C6520666169D8
:103610006C6564004D61782074726176656C20651C
:1036200078636565646564004D6178207370696EC8
:10363000646C652073706565642065786365656496
:1036400065640041726320737065636966696361D4
:1036500074696F6E206572726F7200123315331BBE
:10366000332233273330333B3343334F335B3369B8
:103670003380338F339C33B033C833CC33D033D41F
:1036800033D833DC33EB3300341534243428342C72
:10369000343034343438343C344034443448344C9A
:1036A000345034543458345C346034643479349154
:1036B00034A334BC34D234E834003518352A3548C4
:1036C000355C356035643568356C35703574357802
:1036D000357C3580359135A535B735CC35E43500A9
:1036E0003614362836433674696E7967005B696E26
:1036F00063685D206F6B3E20005B6D6D5D206F6BBE
:103700003E20002553255300255325530065727232
:103710006F723A2025533A202573200A003C6E75BB
:103720006C6C206D6573736167653E004C6F6164FE
:10373000696E6720636F6E666967732066726F6D6E
:1037400020454550524F4D001D372C375468657346
:103750006520636F6D6D616E6473206172652061B9
:1037600063746976652066726F6D20746865206386
:103770006F6D6D616E64206C696E653A0A205E78CB
:10378000202020202041626F72742028636F6E74A5
:10379000726F6C207829202D2072657365747320F8
:1037A00045564552595448494E47210A20203F204A
:1037B000202020204D616368696E6520706F7369F9
:1037C00074696F6E20616E642067636F6465206D3D
:1037D0006F64656C2073746174650A202024202056
:1037E00020202053686F7720616E642073657420F9
:1037F000636F6E66696775726174696F6E20736559
:103800007474696E67730A202021202020202046CE
:10381000656564686F6C64202D2073746F70206D13
:103820006F74696F6E20776974686F7574206C6F40
:1038300073696E6720706F736974696F6E0A2020F8
:103840007E20202020204379636C652053746172B0
:1038500074202D20726573746172742066726F6DAE
:103860002066656564686F6C640A202068202020EB
:10387000202053686F7720746869732068656C70C6
:103880002073637265656E0A202024682020202042
:1038900053686F7720636F6E6669677572617469CC
:1038A0006F6E2068656C702073637265656E0A20A8
:1038B000202474657374204C6973742073656C667E
:1038C0002D74657374730A20202464656661756CB9
:1038D00074733D3120526573746F726520616C6C36
:1038E0002073657474696E677320746F202266613B
:1038F00063746F7279222064656661756C74730AF3
:1039000000232323232054696E79472048656C7077
:1039100020232323230A0045616368202420636F4A
:103920006D6D616E642061626F766520616C736F8E
:1039300020646973706C6179732074686520746F9A
:103940006B656E20666F72206561636820736574B5
:1039500074696E6720696E205B205D20627261630E
:103960006B6574730A546F2076696577207365748C
:1039700074696E677320656E746572206120746F60
:103980006B656E3A0A0A2020243C746F6B656E3EAC
:103990000A0A466F72206578616D706C6520247923
:1039A000667220746F20646973706C61792074682A
:1039B000652059206D6178206665656420726174A8
:1039C000650A0A546F2075706461746520736574AC
:1039D00074696E677320656E74657220746F6B65B1
:1039E0006E20657175616C732076616C75653A0A3D
:1039F0000A2020243C746F6B656E3E3D3C76616C02
:103A000075653E0A0A466F72206578616D706C6557
:103A100020247966723D38303020746F20736574CD
:103A2000207468652059206D617820666565642082
:103A30007261746520746F20383030206D6D2F6D89
:103A4000696E7574650A00546865736520636F6DEF
:103A50006D616E647320617265206163746976655F
:103A600020666F7220636F6E666967757261746934
:103A70006F6E3A0A2020247379732053686F772081
:103A800073797374656D202867656E6572616C2942
:103A90002073657474696E67730A202024312020B6
:103AA0002053686F77206D6F746F722031207365BB
:103AB0007474696E677320286F722077686174650B
:103AC000766572206D6F746F7220796F75207761E3
:103AD0006E7420312C322C332C34290A2020247887
:103AE00020202053686F77205820617869732073F5
:103AF000657474696E677320286F722077686174CB
:103B000065766572206178697320796F75207761B9
:103B10006E7420782C792C7A2C612C622C63290A03
:103B20002020246D20202053686F7720616C6C204A
:103B30006D6F746F722073657474696E67730A2099
:103B400020246E20202053686F7720616C6C2061E8
:103B50007869732073657474696E67730A20202412
:103B60002420202053686F7720616C6C207365746B
:103B700074696E67730A2020246820202053686FC0
:103B80007720746869732068656C70207363726550
:103B9000656E0A0A00232323232054696E79472087
:103BA000434F4E46494755524154494F4E20486570
:103BB0006C7020232323230A00496E766F6B6520E7
:103BC00073656C66207465737420627920656E7409
:103BD0006572696E672024746573743D4E20776842
:103BE000657265204E206973206F6E65206F663A9E
:103BF0000A202024746573743D312020736D6F6B2F
:103C00006520746573740A202024746573743D32D2
:103C100020206D6F74696F6E20746573742020208E
:103C2000286120736572696573206F6620737175F2
:103C300061726520616E6420636972636C65206DDA
:103C40006F766573290A202024746573743D3320D0
:103C50002061726320746573742020202020202846
:103C6000736F6D65206C6172676520636972636C48
:103C70006573290A202024746573743D3420206400
:103C800077656C6C207465737420202020286D6F1C
:103C900076657320737061636564206279203120DA
:103CA0007365636F6E64206477656C6C73290A209A
:103CB0002024746573743D352020686F6D696E67CC
:103CC000207465737420202028796F75206D7573BA
:103CD00074207472697020686F6D696E67207377E5
:103CE000697463686573290A202024746573743DC0
:103CF00036202066656564686F6C64207465737433
:103D00002028656E746572202120616E64207E20FB
:103D1000746F20686F6C6420616E642072657374C8
:103D20006172742C20726573706563746976656C5A
:103D300079290A202024746573743D3720204D2092
:103D4000636F64657320746573742020284D20634D
:103D50006F64657320696E7465726D696E676C65FA
:103D6000642077697468206D6F766573290A202056
:103D700024746573743D3820204A534F4E20746577
:103D800073742020202020286D6F74696F6E20745A
:103D90006573742072756E207573696E67204A535F
:103DA0004F4E20636F6D6D616E6473290A2020246D
:103DB000746573743D392020696E76657273652071
:103DC00074696D6520746573740A202024746573AA
:103DD000743D313020726F74617279206D6F746937
:103DE0006F6E20746573740A0023232323205469A3
:103DF0006E79472053454C4620544553542048651E
:103E00006C7020232323230A00456E7465722024DE
:103E100064656661756C74733D3120746F207265E2
:103E2000736574207468652073797374656D20748C
:103E30006F2074686520666163746F7279206465B1
:103E40006661756C742076616C7565732E0A5468B2
:103E500069732077696C6C206F766572777269740C
:103E60006520616E79206368616E67657320796F84
:103E7000752068617665206D6164652E0A002323D4
:103E800023232054696E794720524553544F52459D
:103E90002044454641554C54532048656C702023BE
:103EA0002323230A000A4E6F74653A2054696E7901
:103EB000472067656E657261746573206175746F04
:103EC0006D617469632073746174757320726570B9
:103ED0006F7274732062792064656661756C740A10
:103EE000546869732063616E206265206469736140
:103EF000626C656420627920656E746572696E67B4
:103F0000202473693D300A53656520746865207705
:103F1000696B692062656C6F7720666F72206D6FC8
:103F200072652064657461696C732E0A000A466FBD
:103F3000722064657461696C65642054696E7947A8
:103F400020696E666F207365653A20687474703AF4
:103F50002F2F7777772E73796E746865746F732E51
:103F6000636F6D2F77696B692F696E6465782E704A
:103F700068703F7469746C653D50726F6A656374F4
:103F8000733A54696E79470A466F722074686520E7
:103F90006C6174657374206669726D7761726520F7
:103FA0007365653A2068747470733A2F2F6769746B
:103FB0006875622E636F6D2F73796E746865746FA8
:103FC000732F54696E79470A506C65617365206C74
:103FD0006F6720616E7920697373756573206174F2
:103FE00020687474703A2F2F7777772E73796E74F8
:103FF0006865746F732E636F6D2F666F72756D7366
:104000000A486176652066756E0A005F63616C63BD
:10401000756C6174655F74726170657A6F6964282C
:1040200029206661696C656420746F20636F6E7609
:104030006572676500737200284D53472A2A2A2A41
:1040400020536D6F6B652054657374205B76315D12
:10405000202A2A2A2A290A47303020473137204788
:104060003231204734302047343920473830204718
:1040700039300A473932205830205930205A300A16
:10408000473030207832300A78300A7932300A7975
:10409000300A7A32300A7A300A6132300A61300AE4
:1040A0004730302078323020793230207A32302058
:1040B0006132300A473030207830207930207A3031
:1040C0002061300A47303120663230302078370A9C
:1040D00079370A7A370A61330A673030207830201E
:1040E0007930207A3020613000284D53472A2A2A1F
:1040F0002A2053717561726573204D6F74696F6EFC
:104100002054657374205B76315D202A2A2A2A297F
:104110000A67303067313767323167343067343996
:104120006738306739300A67307832302028747247
:1041300061766572736520612032306D6D20737118
:104140007561726520696E205820616E642059295E
:104150000A7932300A78300A79300A67317831309A
:104160006635303020286472617720612031306DEF
:104170006D2073717561726520696E205820616EC3
:104180006420592061742046353030290A79313055
:104190000A78300A79300A67307A3230202874720F
:1041A00061766572736520612032306D6D207371A8
:1041B0007561726520696E205820616E64205A29ED
:1041C0000A7832300A7A300A78300A673178323029
:1041D0007932307A32306635303020286665656451
:1041E00020612032306D6D20646961676F6E616C93
:1041F00020696E20582C205920616E64205A290AAB
:10420000783079307A300A7834307934307A343012
:104210000A78343079307A300A78307934307A3428
:10422000300A7834307934307A300A783079307A1C
:1042300034300A78307934307A300A783430793052
:104240007A34300A783079307A300A6738300A6D3B
:10425000333000284D53472A2A2A2A2041726320EE
:1042600054657374205B76315D202A2A2A2A290A34
:1042700067303067313767323167343067343967D8
:1042800038306739300A673932783079300A663524
:1042900030300A6732783130792D31306931302051
:1042A000284357203237302064656772656573296B
:1042B0000A6730783079300A6733783130792D31B8
:1042C00030693130202843435720393020646567F6
:1042D00072656573290A6730783079300A673278F9
:1042E000323079306931302028435720313830203E
:1042F00064656772656573290A6730783079300ABA
:104300006733783230793069313020284343572081
:104310003138302064656772656573290A673078C3
:104320003079300A6732783079306932302028436A
:1043300057203336302064656772656573290A67D4
:104340003278307930693230202843572033363084
:1043500020616761696E290A6637303020286368FA
:10436000616E67652066656564207261746520779B
:1043700068696C6520696E204732206D6F74696FC3
:104380006E206D6F6465290A673278307930693242
:10439000302028435720333630203372642074692C
:1043A0006D65290A673278307930693230202843C8
:1043B0005720333630203474682074696D65290ABB
:1043C000663530300A6733783079306932302028EA
:1043D000434357203336302064656772656573291F
:1043E0000A673378307930693230202843435720C8
:1043F00033363020616761696E290A6637303020B4
:10440000286368616E676520666565642072617403
:1044100065207768696C6520696E204733206D6F71
:1044200074696F6E206D6F6465290A67337830791F
:1044300030693230202843435720333630203372DE
:10444000642074696D65290A673378307930693280
:10445000302028434357203336302034746820748A
:10446000696D65290A6738300A6D333000284D536D
:10447000472A2A2A2A204477656C6C205465737475
:10448000205B76315D202A2A2A2A290A6730306784
:1044900031376732316739300A663530300A673074
:1044A0007831300A673470310A67307832300A6701
:1044B0003470310A67307831300A673470310A67F6
:1044C000307830300A673470310A79350A6D33300C
:1044D00000284D53472A2A2A2A20486F6D696E67A3
:1044E0002054657374205B76315D202A2A2A2A299C
:1044F0000A6732382E31783079307A300A6D3330AD
:1045000000284D53472A2A2A2A2046656564686F89
:104510006C642054657374205B76315D202A2A2AEE
:104520002A290A284D53472A2A2A2A204D616E75C6
:10453000616C6C7920656E746572202120616E64F7
:10454000207E20647572696E67206D6F76656D657B
:104550006E7420746F2074657374202A2A2A2A29A5
:104560000A673470330A6730306731376732316732
:1045700034306734396738306739300A663630305E
:104580000A6730783130307637362E3736350A784C
:104590003079300A6D333000284D53472A2A2A2AB1
:1045A000204D636F6465732074657374205B76318E
:1045B0005D202A2A2A2A290A6D330A673470310AB3
:1045C0006D350A673470310A6D340A673470310A08
:1045D0006D350A673470310A6D370A673470310AF5
:1045E0006D390A673470310A6D380A673470310AE0
:1045F0006D390A663530300A67307832300A7932E0
:10460000300A6D330A78300A6D340A79300A6D3514
:104610000A67317831300A6D370A7931300A6D38DE
:104620000A78300A6D390A79300A67327831307980
:104630002D31306931300A6D330A67307830793086
:104640000A6D340A6733783130792D313069313071
:104650000A6D350A6730783079300A6D370A67326B
:1046600078323079306931300A6D380A6730783005
:1046700079300A6D390A67337832307930693130F0
:104680000A6730783079300A6732783079306931AA
:10469000300A6733783079306931300A6D33300051
:1046A0007B226763223A22673030673137673231C5
:1046B000673430673439673830673930227D0A7B98
:1046C000226763223A2266353030227D0A7B2267D8
:1046D00063223A22284D53477371756172657329BD
:1046E000227D0A7B226763223A22673078323022A9
:1046F0007D0A7B226763223A22793230227D0A7B4F
:10470000226763223A227830227D0A7B2267632265
:104710003A227930227D0A7B226763223A2267316E
:10472000783130227D0A7B226763223A2279313048
:10473000227D0A7B226763223A227830227D0A7B1F
:10474000226763223A227930227D0A7B2267632224
:104750003A22284D5347636972636C657329227D41
:104760000A7B226763223A226732783130792D3111
:1047700030693130227D0A7B226763223A2267301A
:1047800078307930227D0A7B226763223A226733B0
:10479000783130792D3130693130227D0A7B2267C2
:1047A00063223A22673078307930227D0A7B226793
:1047B00063223A2267327832307930693130227D93
:1047C0000A7B226763223A22673078307930227D73
:1047D0000A7B226763223A22673378323079306964
:1047E0003130227D0A7B226763223A22673078309B
:1047F0007930227D0A7B226763223A226732783041
:104800007930693130227D0A7B226763223A226740
:104810003378307930693130227D0A7B2267632218
:104820003A226D3330227D00284D53472A2A2A2A06
:1048300020496E76657273652054696D65204D6FF1
:1048400074696F6E2054657374205B76315D202A25
:104850002A2A2A290A6730306731376732316734AC
:10486000306734396738306739300A6739330A6658
:10487000302E30310A67317831300A7931300A7A96
:1048800031300A6131300A78300A79300A7A300AD8
:1048900061300A67317831307931307A31306131C5
:1048A000300A6730783079307A3061300A66302EDD
:1048B000310A6732783130792D31307A32306931CE
:1048C000300A6730783079307A300A67337831309F
:1048D000792D31307A32306931300A673078307969
:1048E000307A300A673278323079307A3230693152
:1048F000300A6730783079307A300A67337832306E
:1049000079306931300A6730783079307A300A6727
:1049100032783079307A33306931300A6733783021
:1049200079307A306931300A6739340A6D333000B2
:10493000284D53472A2A2A2A20526F7461727920FF
:1049400041786973204D6F74696F6E20546573747C
:10495000205B76315D202A2A2A2A290A67303067AF
:104960003137673231673430673439673830673907
:10497000300A6730783079307A30613062306330B5
:104980000A6633363030300A6730613336300A62B7
:104990003336300A633336300A61300A62300A63D4
:1049A000300A673161313434300A62313434300ACC
:1049B00063313434300A61300A62300A63300A6786
:1049C00031613134343062373230633336300A7813
:1049D0003079307A306130623063300A6731783153
:1049E0003030613134343062373230633336300A3C
:1049F000783079307A306130623063300A673178EC
:104A000031303079353061313434306237323063AF
:104A10003336300A783079307A3061306230633042
:104A20000A67317831303079353078323561313458
:104A3000343062373230633336300A783079307A46
:104A4000306130623063300A6D333000284D534797
:104A50002A2A2A2A20546573742076657279207375
:104A6000686F7274206D6F766573205B76315D20A0
:104A70002A2A2A2A290A2473693D333030300A67EA
:104A80003178302E3166313030300A78300A783063
:104A90002E3100284D53472A2A2A2A205465737440
:104AA000206163637572616379206F6620736C6F38
:104AB00077206D6F766573205B76315D202A2A2A18
:104AC0002A290A67317A2D35663232004E31204765
:104AD00032300A4E3520473430204731370A4E31C4
:104AE00030205431204D30360A284E313520473998
:104AF00030204730205830205930205A30290A4E73
:104B00003230205335303030204D3033200A4E3291
:104B1000352058302E3036342059302E333236205E
:104B20005A300A4E343020473031204631362E304C
:104B30000A4E35302058302E3036342059302E333E
:104B400032360A4E35352058302E30363020593026
:104B50002E3239330A4E36302058302E3037372037
:104B600059302E3236370A4E36352058302E3131F4
:104B7000312059302E3235370A4E37302058302EFA
:104B80003134392059302E3235320A4E37352058DB
:104B9000302E3138382059302E3235350A4E3830E3
:104BA0002058302E3232372059302E3236380A4EC5
:104BB00038352058302E3235372059302E323731A3
:104BC0000A4E39302058302E3333352059302E32AA
:104BD00036350A4E39352058302E3431322059308E
:104BE0002E3237310A4E3130302058302E3437349F
:104BF0002059302E3238370A4E3130352058302E79
:104C00003439312059302E3238390A4E3131302082
:104C100058302E3531372059302E3237330A4E3145
:104C200031352058302E3534342059302E32363339
:104C30000A4E3132302058302E3538302059302E3F
:104C40003236310A4E3132352058302E3539352042
:104C500059302E3236330A4E3133302058302E360A
:104C600032312059302E3237340A4E313335205804
:104C7000302E3635392059302E3330360A4E313405
:104C8000302058302E3637332059302E3333350A02
:104C90004E3134352058302E3637392059302E33A6
:104CA00036310A4E3135302058302E3637382059BB
:104CB000302E3338390A4E3135352058302E3637BC
:104CC000302059302E3432300A4E313630205830B0
:104CD0002E3637302059302E3434360A4E313635A0
:104CE0002058302E3638302059302E3437340A4E82
:104CF0003137302058302E3730342059302E343967
:104D0000370A4E3137352058302E3733322059305C
:104D10002E3531350A4E3138302058302E3739345F
:104D20002059302E3533350A4E3138352058302E43
:104D30003837322059302E3536370A4E3139302047
:104D400058302E3935302059302E3630340A4E3115
:104D500039352058312E3033312059302E36343702
:104D60000A4E3230302058312E3134392059302E0D
:104D70003732320A4E3230352058312E3330382017
:104D800059302E3835340A4E3231302058312E34D5
:104D900033302059302E3938340A4E3231352058CC
:104DA000312E3434372059302E3938360A4E3232CB
:104DB000302058312E3632382059302E3832320ACF
:104DC0004E3232352058312E3733322059302E377B
:104DD00031340A4E3233302058322E303039205997
:104DE000302E3338310A4E3233352058322E31319D
:104DF000362059302E3236360A4E32343020583270
:104E00002E3232382059302E3135370A4E32343571
:104E10002058322E3238302059302E3132330A4E5B
:104E20003235302058322E3333322059302E30393B
:104E3000340A4E3235352058322E34323320593030
:104E40002E3037300A4E3236302058322E34383930
:104E50002059302E3036350A4E3236352058322E13
:104E60003535372059302E3036360A4E323730201D
:104E700058322E3632372059302E3038340A4E32DE
:104E800037352058322E3639332059302E313039CB
:104E90000A4E3238302058322E3733302059302ED7
:104EA0003133330A4E3238352058322E38303520DF
:104EB00059302E3139300A4E3239302058322E389E
:104EC00032392059302E3231360A4E323935205897
:104ED000322E3838302059302E3239310A4E3330A4
:104EE000302058322E3838342059302E3330300AA2
:104EF0004E3330352058322E3839382059302E3341
:104F000033320A4E3331302058322E393035205961
:104F1000302E3336370A4E3331352058322E393160
:104F2000302059302E3430370A4E33323020583248
:104F30002E3930382059302E3434360A4E3332353B
:104F40002058322E3930312059302E3439350A4E1E
:104F50003333302058322E3839372059302E3439F7
:104F6000350A4E3333352058322E383930205930F7
:104F70002E3532340A4E3334302058322E38343203
:104F80002059302E3630340A4E3334352058322EE4
:104F90003831342059302E3636350A4E33353020EC
:104FA00058322E3739342059302E3735300A4E33A7
:104FB00035352058322E3739312059302E38333894
:104FC0000A4E3336302058322E3831392059302E9F
:104FD0003937360A4E3336352058322E383337209B
:104FE00059312E3034340A4E3337302058322E386F
:104FF00036322059312E3131320A4E33373520586E
:10500000322E3837372059312E3134350A4E333865
:10501000302058322E3931322059312E3231370A70
:105020004E3338352058322E3931372059312E320F
:1050300032360A4E3339302058322E393531205924
:10504000312E3238310A4E3339352058322E393725
:10505000302059312E3239350A4E34303020583212
:105060002E3939362059312E3239350A4E34303501
:105070002058332E3031332059312E3237350A4EF5
:105080003431302058332E3032342059312E3235DD
:10509000340A4E3431352058332E303730205931D0
:1050A0002E3135310A4E3432302058332E303737D6
:1050B0002059312E3133340A4E3432352058332EB4
:1050C0003132352059312E3033390A4E34333020C5
:1050D00058332E3133382059312E3031390A4E347D
:1050E00033352058332E3230352059302E39303870
:1050F0000A4E3434302058332E3238322059302E74
:105100003739370A4E3434352058332E3336312070
:1051100059302E3639310A4E3435302058332E343A
:1051200032362059302E3539320A4E343535205832
:10513000332E3435362059302E3534330A4E34363A
:10514000302058332E3437392059302E3439330A31
:105150004E3436352058332E3439342059302E34DD
:1051600037320A4E3437302058332E3530352059F7
:10517000302E3434360A4E3437352058332E3531FC
:10518000382059302E3431370A4E343830205833D5
:105190002E3533302059302E3339310A4E343835DC
:1051A0002058332E3536342059302E3330300A4EC5
:1051B0003439302058332E3537372059302E323598
:1051C000330A4E3439352058332E3536382059308D
:1051D0002E3231320A4E3530302058332E353434A9
:1051E0002059302E3137360A4E3530352058332E7F
:1051F0003534312059302E3134360A4E3531302095
:1052000058332E3535332059302E3131390A4E3549
:1052100031352058332E3537362059302E3130363F
:105220000A4E3532302058332E3539372059302E3A
:105230003130320A4E3532352058332E363138204F
:1052400059302E3130390A4E3533302058332E360E
:1052500033392059302E3132390A4E353335205802
:10526000332E3635302059302E3135390A4E35340B
:10527000302058332E3636332059302E3137380A05
:105280004E3534352058332E3637382059302E31AC
:1052900039320A4E3535302058332E3639392059B7
:1052A000302E3139370A4E3535352058332E3732C6
:1052B000332059302E3139360A4E353630205833A6
:1052C0002E3736342059302E3137390A4E3536359F
:1052D0002058332E3830352059302E3136350A4E8D
:1052E0003537302058332E3838342059302E313568
:1052F000390A4E3537352058332E39343920593054
:105300002E3136350A4E3538302058332E39363660
:105310002059302E3137350A4E3538352058332E46
:105320003937382059302E3139340A4E353930204A
:1053300058332E3937382059302E3232330A4E3511
:1053400039352058332E3936302059302E32343505
:105350000A4E3630302058332E3833342059302E10
:105360003331310A4E3630352058332E373632201D
:1053700059302E3334350A4E3631302058332E37DB
:1053800032362059302E3338390A4E3631352058CE
:10539000332E3730332059302E3435380A4E3632DA
:1053A000302058332E3638322059302E3533300ADB
:1053B0004E3632352058332E3637392059302E3577
:1053C00033340A4E3633302058332E363236205995
:1053D000302E3638310A4E3633352058332E353696
:1053E000382059302E3832380A4E3634302058336F
:1053F0002E3434342059312E3038300A4E3634357C
:105400002058332E3430352059312E3136370A4E5C
:105410003635302058332E3430342059312E313641
:10542000370A4E3635352058332E33383720593128
:105430002E3230380A4E3636302058332E33383438
:105440002059312E3230380A4E3636352058332E18
:105450003336352059312E3236350A4E3637302024
:1054600058332E3335352059312E3238350A4E36E1
:1054700037352058332E3334382059312E333038D5
:105480000A4E3638302058332E3333332059312EDC
:105490003335300A4E3638352058332E33323120EA
:1054A00059312E3339310A4E3639302058332E33A4
:1054B00031312059312E3432380A4E3639352058A0
:1054C000332E3333392059312E3432330A4E3730AC
:1054D000302058332E3434302059312E3430360AAF
:1054E0004E3730352058332E3531302059312E3457
:1054F00030380A4E3731302058332E353835205960
:10550000312E3432310A4E3731352058332E363170
:10551000312059312E3433390A4E37323020583346
:105520002E3631312059312E3434310A4E3732354E
:105530002058332E3631352059312E3434310A4E2D
:105540003733302058332E3633362059312E343805
:10555000380A4E3733352058332E363334205931FC
:105560002E3531370A4E3734302058332E3632320A
:105570002059312E3534330A4E3734352058332EE6
:105580003630352059312E3536330A4E37353020F6
:1055900058332E3537362059312E3537350A4E37A8
:1055A00035352058332E3534342059312E353831A5
:1055B0000A4E3736302058332E3437392059312EA1
:1055C0003539320A4E3736352058332E34353120AE
:1055D00059312E3539380A4E3737302058332E336B
:1055E00038372059312E3632360A4E373735205863
:1055F000332E3339302059312E3633360A4E373870
:10560000302058332E3533322059312E3630320A7D
:105610004E3738352058332E3630312059312E351B
:1056200039370A4E3739302058332E36363820591C
:10563000312E3539380A4E3739352058332E373820
:10564000322059312E3631320A4E3830302058331C
:105650002E3739342059312E3631380A4E3830350C
:105660002058332E3836382059312E3633360A4EEC
:105670003831302058332E3931382059312E3635D3
:10568000350A4E3831352058332E393435205931CA
:105690002E3636370A4E3832302058332E393634CB
:1056A0002059312E3638350A4E3832352058332EAF
:1056B0003936372059312E3638350A4E38333020B6
:1056C00058332E3937342059312E3639390A4E386D
:1056D00033352058332E3938342059312E3732356E
:1056E0000A4E3834302058332E3938342059312E70
:1056F0003735380A4E3834352058332E3937302074
:1057000059312E3739300A4E3835302058332E393A
:1057100034352059312E3831370A4E383535205836
:10572000332E3931382059312E3832360A4E383638
:10573000302058332E3839312059312E3832370A3B
:105740004E3836352058332E3834322059312E38E1
:1057500030390A4E3837302058332E3739382059EF
:10576000312E3738340A4E3837352058332E3734F7
:10577000362059312E3737320A4E383830205833D8
:105780002E3639382059312E3736340A4E383835CE
:105790002058332E3633352059312E3736360A4EBF
:1057A0003839302058332E3535332059312E37389B
:1057B000350A4E3839352058332E34373820593190
:1057C0002E3832300A4E3930302058332E343039AA
:1057D0002059312E3836340A4E3930352058332E80
:1057E0003334352059312E3931380A4E3931302091
:1057F00058332E3236342059322E3032330A4E3955
:1058000031352058332E3234382059322E3035314C
:105810000A4E3932302058332E3234302059322E4D
:105820003038310A4E3932352058332E3331362054
:1058300059322E3038360A4E3933302058332E3311
:1058400039302059322E3130340A4E393335205810
:10585000332E3431342059322E3132310A4E39341C
:10586000302058332E3433312059322E3135330A1B
:105870004E3934352058332E3433332059322E31BB
:1058800038300A4E3935302058332E3432372059CB
:10589000322E3230350A4E3935352058332E3431D8
:1058A000332059322E3232340A4E393630205833B2
:1058B0002E3339322059322E3234320A4E393635AF
:1058C0002058332E3333352059322E3234340A4E99
:1058D0003937302058332E3237382059322E323370
:1058E000360A4E3937352058332E32353620593264
:1058F0002E3234320A4E3938302058332E32333972
:105900002059322E3235310A4E3938352058332E4F
:105910003231312059322E3238300A4E3939302066
:1059200058332E3137342059322E3335360A4E391A
:1059300039352058332E3135392059322E33393705
:105940000A4E313030302058332E31353020593224
:105950002E3433380A4E313030352058332E31341E
:10596000302059322E3438310A4E313031302058FF
:10597000332E3133322059322E3531300A4E313008
:1059800031352058332E3131382059322E353433C9
:105990000A4E313032302058332E303939205932C6
:1059A0002E3537360A4E313032352058332E3035C9
:1059B000312059322E3633310A4E313033302058AF
:1059C000332E3030332059322E3636360A4E3130AF
:1059D00033352058322E3935372059322E36383566
:1059E0000A4E313034302058322E39303720593277
:1059F0002E3639390A4E313034352058322E383669
:105A0000302059322E3731310A4E3130353020585E
:105A1000322E3831392059322E3732370A4E313052
:105A200035352058322E3736382059322E37343516
:105A30000A4E313036302058322E37313620593226
:105A40002E3735370A4E313036352058322E36371C
:105A5000352059322E3735370A4E313037302058FD
:105A6000322E3537392059322E3733310A4E313004
:105A700037352058322E3537302059322E373233D1
:105A80000A4E313038302058322E353539205932CF
:105A90002E3732300A4E313038352058322E3533D9
:105AA000302059322E3730310A4E313039302058BB
:105AB000322E3530312059322E3639330A4E3130BC
:105AC00039352058322E3437312059322E3638337A
:105AD0000A4E313130302058322E3434332059328E
