:100000000C94E6350C9407360C9407360C9407369E
:100010000C9407360C9407360C9407360C9407366C
:100020000C9407360C9407360C9407360C94CB7A54
:100030000C9407360C9407360C947F760C94073694
:100040000C9407360C9407360C9407360C9407363C
:100050000C9407360C9407360C9407360C9407362C
:100060000C9407360C944E7E0C94047E0C94073648
:100070000C949F820C943F820C947D820C940736E2
:100080000C94067B0C9407360C9407360C940736B8
:100090000C9407360C9407360C9407360C940736EC
:1000A0000C9407360C9407360C9407360C940468AD
:1000B0000C946C680C9407360C9407360C941476E8
:1000C0000C9407360C9407360C9407360C940736BC
:1000D0000C9407360C9407360C9407360C940736AC
:1000E0000C941E880C9407360C9407360C94073633
:1000F0000C9407360C9407360C9407360C9407368C
:100100000C94EA670C9452680C94D0670C9438688D
:100110000C9407360C9407360C9407360C9407366B
:100120000C9407360C9407360C9407360C9407365B
:100130000C9407360C943E760C9407360C940736D4
:100140000C9407360C9407360C9407360C9407363B
:100150000C9407360C9407360C9414880C940736CC
:100160000C9407360C9407360C9407360C9407361B
:100170000C9407360C9407360C9407360C9407360B
:100180000C9407360C9407360C9407360C940736FB
:100190000C9407360C9407360C9407360C940736EB
:1001A0000C941E680C9486680C9407360C940736E1
:1001B0000C9405790C9407360C9407360C9407368A
:1001C0000C9407360C9407360C9407360C940736BB
:1001D0000C9407360C9407360C9407360C940736AB
:1001E0000C9407360C940736A664BB64D06462672F
:1001F0006267286443626267E564FA640F65536569
:10020000A063396562673D646267246552641B645C
:1002100062676267626767647C649164084AD73B7F
:100220003BCE016E84BCBFFDC12F3D6C74319ABDC5
:1002300056833DDA3D00C77F11BED9E4BB4C3E91E9
:100240006BAAAABE000000803F05A84CCDB2D44ED8
:10025000B93836A9020C50B9918688083CA6AAAADA
:100260002ABE000000803F07634236B79BD8A71A1A
:1002700039685618AEBAAB558C1D3CB7CC5763BD28
:100280006DEDFD753EF6177231BF000000803F082E
:10029000000000BE922449123EABAAAA2ABECDCCD1
:1002A000CC4C3E00000080BEABAAAAAA3E000000D3
:1002B00000BF000000803F0000000000084178D32C
:1002C000BB4387D1133D190E3CC3BD4282AD2B3ECB
:1002D00068EC8276BED98FE1A93E4C80EFFFBE016B
:1002E000C4FF7F3F00000000006E616E00696E6613
:1002F00000454D455247454E4359205348555444B7
:100300004F574E0A007B226572223A22456D657274
:1003100067656E6379207368757420646F776E22E9
:100320007D0A007379730066620000000003801E7E
:10033000894B62469D459F364881B343737973006C
:10034000667600000000039C1E894B62469D45A313
:10035000363333733F73797300687600000000030F
:10036000BA1E894B62466A51A7360000E040737995
:10037000730069640000000000D81E344B5D519D7D
:10038000452C3400000000000000006E000000005A
:100390000001EC1ED24A3D46C6450C240000000078
:1003A000000000006C696E65000001EC1ED24A4D31
:1003B00051C6450C24000000000000000066656581
:1003C00064000000001FD24D9E4D9D452C3400005E
:1003D00000000000000073746174000000181F34F6
:1003E0004B3F519D452C3400000000000000006D83
:1003F000616373000000311F344B31519D452C3433
:100400000000000000000000637963730000004AF0
:100410001F344B23519D452C340000000000000088
:10042000006D6F7473000000631F344B15519D45C0
:100430002C340000000000000000686F6C640000B5
:10044000007C1F344B07519D452C340000000000F8
:1004500000000076656C00000000951FD24DE6504C
:100460009D452C340000000000000000756E69748A
:10047000000000AC1F344B904D9D452C3400000013
:100480000000000000636F6F72000000C51F344B56
:10049000D8509D452C3400000000000000006D6F16
:1004A0006D6F000000DE1F344BCA509D452C340098
:1004B00000000000000000706C616E000000F71F7B
:1004C000344BBC509D452C3400000000000000005F
:1004D000706174680000001020344BAE509D452CB4
:1004E0003400000000000000006469737400000024
:1004F0002920344BA0509D452C3400000000000002
:10050000000066726D6F0000004220344B92509DD7
:10051000452C3400000000706F7300706F7378001A
:1005200000005B20674F7D509D452C34000000008B
:10053000706F7300706F73790000007020674F7DDB
:10054000509D452C3400000000706F7300706F7375
:100550007A0000008520674F7D509D452C340000B7
:100560000000706F7300706F73610000009A206765
:100570004F7D509D452C3400000000706F7300705B
:100580006F7362000000AF20674F7D509D452C3493
:1005900000000000706F7300706F7363000000C490
:1005A00020674F7D509D452C34000000006D706F1A
:1005B000006D706F78000000D920674F68509D452E
:1005C0002C34000000006D706F006D706F790000BA
:1005D00000F220674F68509D452C34000000006DEC
:1005E000706F006D706F7A0000000B21674F6850CC
:1005F0009D452C34000000006D706F006D706F61C0
:100600000000002421674F68509D452C34000000F5
:10061000006D706F006D706F620000003D21674FCC
:1006200068509D452C34000000006D706F006D70A7
:100630006F630000005621674F68509D452C3400C1
:10064000000000686F6D00686F6D650000006F212D
:10065000344B5A5049502C3400000000686F6D0034
:10066000686F6D780000008821D24A18469D452C9D
:100670003A00000000686F6D00686F6D790000003F
:100680009A21D24A18469D452D3A00000000686F15
:100690006D00686F6D7A000000AC21D24A18469D4B
:1006A000452E3A00000000686F6D00686F6D6100B4
:1006B0000000BE21D24A18469D452F3A0000000096
:1006C000686F6D00686F6D62000000D021D24A181B
:1006D000469D45303A00000000686F6D00686F6D00
:1006E00063000000E221D24A18469D45313A0000DD
:1006F00000000000000073720000000000F42146BA
:10070000504250AD522C3400000000000000007137
:10071000720000000000F521D24A2B509D452C3478
:10072000000000000000000072780000000000FCE3
:1007300021D24A14509D452C3400000000000000D6
:10074000006D7367000000000322344B13469D4583
:100750002C34000000000000000074657374000079
:1007600000F4218246086A117A303400000000004B
:1007700000000064656661000000F4218246D669CD
:1007800053522C340000000000000000626F6F74B0
:10079000000000F4218246A4699D452C340000002D
:1007A000000000000068656C70000000F4218246C3
:1007B0003A6A9D452C3400000000000000006800EB
:1007C0000000000000F42182463A6A9D452C340066
:1007D00000000031000000316D61000000030722BD
:1007E000634A18469F45983700000000310000001A
:1007F000317361000000033122F44962460B4F9CC3
:10080000376666E63F310000003174720000000375
:1008100050220D4D9E4DFF4EA037F628124231005A
:100820000000316D69000000037922634A1846D147
:10083000559937000000413100000031706F000011
:1008400000039E22634A1846DB4F9A3700000000DF
:100850003100000031706D00000003BD22634A18B2
:10086000469F459B370000803F32000000326D619B
:10087000000000030722634A18469F45A83700007E
:10088000803F32000000327361000000033122F427
:100890004962460B4FAC376666E63F3200000032D5
:1008A00074720000000350220D4D9E4DFF4EB03774
:1008B000F628124232000000326D69000000037910
:1008C00022634A1846D155A9370000004132000082
:1008D0000032706F000000039E22634A1846DB4F0F
:1008E000AA370000803F3200000032706D00000027
:1008F00003BD22634A18469F45AB370000803F3353
:10090000000000336D61000000030722634A1846AF
:100910009F45B8370000004033000000337361008A
:100920000000033122F44962460B4FBC376666E68D
:100930003F330000003374720000000350220D4D5D
:100940009E4DFF4EC0370000A03F33000000336DC6
:1009500069000000037922634A1846D155B937006F
:100960000000413300000033706F000000039E223E
:10097000634A1846DB4FBA3700000000330000001E
:1009800033706D00000003BD22634A18469F45BBCB
:10099000370000803F34000000346D610000000328
:1009A0000722634A18469F45C8370000404034007C
:1009B0000000347361000000033122F44962460BE9
:1009C0004FCC376666E63F34000000347472000096
:1009D000000350220D4D9E4DFF4ED0370000344392
:1009E00034000000346D69000000037922634A1866
:1009F00046D155C937000000413400000034706F03
:100A0000000000039E22634A1846DB4FCA370000ED
:100A100000003400000034706D00000003BD22634C
:100A20004A18469F45CB370000803F780000007889
:100A3000616D00000003E4227B49104C5355D83708
:100A40000000803F7800000078766D000000030011
:100A5000230D4D9E4DC64CDD3700007A46780000D0
:100A6000007866720000000328230D4D9E4DC64C91
:100A7000D93700007A467800000078746D000000D5
:100A80000350230D4D9E4DC64CE13700005C43786A
:100A9000000000786A6D0000000372230D4D9E4D2A
:100AA000C64CE537F902954F78000000786A64007B
:100AB00000000398230D4D9E4DC64CE9370AD723FD
:100AC0003C7800000078736E00000003D123634A75
:100AD0001846404E62440000803F78000000787362
:100AE0007800000003F123634A1846404E63440037
:100AF00000000078000000787376000000031124E5
:100B00000D4D9E4DC64CF13700803B4578000000EE
:100B1000786C760000000338240D4D9E4DC64CF5D0
:100B2000370000C84278000000786C6200000003C3
:100B30005E240D4D9E4DC64CF9370000A041780053
:100B40000000787A62000000037F240D4D9E4DC6A0
:100B50004CFD37000040407900000079616D0000D5
:100B60000003E4227B49104C535501380000803FBC
:100B70007900000079766D0000000300230D4D9E82
:100B80004DC64C063800007A46790000007966723E
:100B90000000000328230D4D9E4DC64C0238000076
:100BA0007A467900000079746D0000000350230D2F
:100BB0004D9E4DC64C0A3800005C43790000007918
:100BC0006A6D0000000372230D4D9E4DC64C0E3819
:100BD000F902954F79000000796A640000000398DB
:100BE000230D4D9E4DC64C12380AD7233C79000088
:100BF0000079736E00000003D123634A1846404E0B
:100C000064440000803F79000000797378000000A0
:100C100003F123634A1846404E6544000000007902
:100C20000000007973760000000311240D4D9E4DE5
:100C3000C64C1A3800803B4579000000796C76007C
:100C400000000338240D4D9E4DC64C1E380000C8D0
:100C50004279000000796C62000000035E240D4DB3
:100C60009E4DC64C22380000A04179000000797AE0
:100C700062000000037F240D4D9E4DC64C263800B7
:100C80000040407A0000007A616D00000003E42219
:100C90007B49104C53552A380000803F7A000000F1
:100CA0007A766D0000000300230D4D9E4DC64C2F3B
:100CB0003800007A447A0000007A6672000000036F
:100CC00028230D4D9E4DC64C2B3800007A447A00E7
:100CD00000007A746D0000000350230D4D9E4DC638
:100CE0004C33380000C8427A0000007A6A6D000078
:100CF000000372230D4D9E4DC64C373820BC3E4C30
:100D00007A0000007A6A640000000398230D4D9E6B
:100D10004DC64C3B380AD7233C7A0000007A736EEC
:100D200000000003D123634A1846404E6644000089
:100D300000007A0000007A737800000003F123635A
:100D40004A1846404E67440000803F7A0000007A0F
:100D500073760000000311240D4D9E4DC64C4338A0
:100D600000007A447A0000007A6C760000000338B4
:100D7000240D4D9E4DC64C47380000C8427A0000F5
:100D8000007A6C62000000035E240D4D9E4DC64C3F
:100D90004B380000A0417A0000007A7A620000001F
:100DA000037F240D4D9E4DC64C4F380000204161FD
:100DB00000000061616D00000003E4227B49104CDB
:100DC000535553380000803F6100000061766D008C
:100DD0000000030023F4496246F045583800606A79
:100DE0004761000000616672000000032823F44997
:100DF0006246F045543800803B4761000000617452
:100E00006D000000035023F4496246F0455C380051
:100E100000C84361000000616A6D00000003722396
:100E2000F4496246F04560385ED0B250610000007F
:100E3000616A64000000039823F4496246F0456447
:100E400038CDCCCC3D610000006172610000000330
:100E50009F24F4496246F04568380000803F6100F5
:100E6000000061736E00000003D123634A184640FE
:100E70004E68440000803F6100000061737800000C
:100E80000003F123634A1846404E69440000000005
:100E900061000000617376000000031124F44962D0
:100EA00046F0456C380080BB4561000000616C76FF
:100EB000000000033824F4496246F0457038000011
:100EC0007A4461000000616C62000000035E24F45B
:100ED000496246F04574380000A04061000000619E
:100EE0007A62000000037F24F4496246F0457838B6
:100EF000000000406200000062616D00000003E439
:100F0000227B49104C53557C3800000000620000E1
:100F10000062766D000000030023F4496246F0454C
:100F200081380000614562000000626672000000C6
:100F3000032823F4496246F0457D3800006145628C
:100F400000000062746D000000035023F449624603
:100F5000F0458538000080BF62000000626A6D00C5
:100F60000000037223F4496246F045893880969860
:100F70004B62000000626A64000000039823F44999
:100F80006246F0458D380AD7233C62000000627249
:100F900061000000039F24F4496246F04591380047
:100FA00000803F6300000063616D00000003E422E5
:100FB0007B49104C5355A538000000006300000029
:100FC00063766D000000030023F4496246F045AAF1
:100FD0003800006145630000006366720000000392
:100FE0002823F4496246F045A638000061456300B5
:100FF000000063746D000000035023F4496246F062
:1010000045AE38000080BF63000000636A6D0000D9
:1010100000037223F4496246F045B2388096984B3B
:1010200063000000636A64000000039823F44962CF
:1010300046F045B6380AD7233C630000006372616E
:10104000000000039F24F4496246F045BA380000CE
:10105000803F7031000070316672710003BF2489D7
:101060004B6246F045CE3800000000703100007041
:101070003163736C0003E224894B6246F045D23839
:1010800000000000703100007031637368000306D7
:1010900025894B6246F045D63800000000703100CB
:1010A00000703163706C00032A25894B6246F0455D
:1010B000DA380000000070310000703163706800A1
:1010C000035125894B6246F045DE38000000007070
:1010D000310000703177736C00037825894B6246CC
:1010E000F045E23800000000703100007031777385
:1010F0006800039C25894B6246F045E638000000F5
:101100000070310000703177706C0003C025894B8E
:101110006246F045EA38000000007031000070318E
:101120007770680003E725894B6246F045EE38008A
:10113000000000703100007031706F6600030E26F1
:1011400018496246F045F238000000006735340067
:101150006735347800000335263E4C9E4DC64C085A
:10116000370000000067353400673534790000032C
:1011700035263E4C9E4DC64C0C37000000006735AE
:1011800034006735347A00000335263E4C9E4DC648
:101190004C103700000000673534006735346100BB
:1011A00000033526A8489E4DC64C143700000000A9
:1011B00067353400673534620000033526A8489E41
:1011C0004DC64C18370000000067353400673534D1
:1011D000630000033526A8489E4DC64C1C3700000E
:1011E0000000673535006735357800000335263E49
:1011F0004C9E4DC64C20370000B442673535006721
:1012000035357900000335263E4C9E4DC64C2437BB
:101210000000B442673535006735357A0000033584
:10122000263E4C9E4DC64C283700000000673535E1
:1012300000673535610000033526A8489E4DC64C31
:101240002C37000000006735350067353562000037
:10125000033526A8489E4DC64C3037000000006775
:10126000353500673535630000033526A8489E4DA7
:10127000C64C3437000000006735360067353678D5
:1012800000000335263E4C9E4DC64C38370000B456
:1012900042673536006735367900000335263E4C07
:1012A0009E4DC64C3C370000A0416735360067357F
:1012B000367A00000335263E4C9E4DC64C40370022
:1012C0000020C167353600673536610000033526DA
:1012D000A8489E4DC64C44370000000067353600D4
:1012E000673536620000033526A8489E4DC64C4837
:1012F00037000000006735360067353663000003AD
:101300003526A8489E4DC64C4C3700000000673576
:1013100037006735377800000335263E4C9E4DC6B2
:101320004C503700000000673537006735377900CB
:10133000000335263E4C9E4DC64C5437000000003D
:10134000673537006735377A00000335263E4C9EF7
:101350004DC64C58370000000067353700673537F9
:10136000610000033526A8489E4DC64C5C3700003E
:10137000000067353700673537620000033526A85F
:10138000489E4DC64C603700000000673537006747
:101390003537630000033526A8489E4DC64C643798
:1013A00000000000673538006735387800000335E5
:1013B000263E4C9E4DC64C6837000000006735380D
:1013C000006735387900000335263E4C9E4DC64CEB
:1013D0006C3700000000673538006735387A000048
:1013E0000335263E4C9E4DC64C703700000000670A
:1013F000353800673538610000033526A8489E4D12
:10140000C64C743700000000673538006735386215
:101410000000033526A8489E4DC64C7837000000D2
:101420000067353800673538630000033526A84863
:101430009E4DC64C7C37000000006735390067358B
:10144000397800000335263E4C9E4DC64C8037004F
:10145000000000673539006735397900000335260B
:101460003E4C9E4DC64C8437000000006735390065
:101470006735397A00000335263E4C9E4DC64C88B0
:101480003700000000673539006735396100000317
:101490003526A8489E4DC64C8C37000000006735A5
:1014A0003900673539620000033526A8489E4DC6CD
:1014B0004C9037000000006735390067353963000C
:1014C00000033526A8489E4DC64C94370000000006
:1014D000673932006739327800000135263E4C9E6C
:1014E0004D9D4540240000000067393200673932C5
:1014F0007900000135263E4C9E4D9D454424000058
:101500000000673932006739327A00000135263E23
:101510004C9E4D9D4548240000000067393200670D
:101520003932610000013526A84862469D454C24A9
:10153000000000006739320067393262000001356F
:1015400026A84862469D45502400000000673932B5
:1015500000673932630000013526A84862469D4580
:1015600054240000000067323800673238780000E9
:101570000152263E4C9E4D9D4570240000000067A0
:101580003238006732387900000152263E4C9E4DB9
:101590009D45742400000000673238006732387AB5
:1015A00000000152263E4C9E4D9D457824000000CF
:1015B0000067323800673238610000015226A848BF
:1015C00062469D457C240000000067323800673287
:1015D00038620000015226A84862469D45802400DA
:1015E000000000673238006732386300000152267D
:1015F000A84862469D4584240000000067333000FF
:101600006733307800000152263E4C9E4D9D458840
:101610002400000000673330006733307900000198
:1016200052263E4C9E4D9D458C24000000006733A1
:1016300030006733307A00000152263E4C9E4D9DAB
:1016400045902400000000673330006733306100AC
:1016500000015226A84862469D45942400000000DF
:1016600067333000673330620000015226A84862B9
:10167000469D4598240000000067333000673330F2
:10168000630000015226A84862469D459C24000044
:1016900000007379730067706C0000000371264BC3
:1016A0004818469F45C436000000007379730067F0
:1016B000756E00000003A4264B4818469F45C536AA
:1016C0000000803F7379730067636F00000003D5EB
:1016D000264B4818469F45C3360000803F737973F8
:1016E00000677061000000030A274B4818469F45B9
:1016F000C63600000040737973006764690000001B
:101700000345274B4818469F45C736000000000098
:1017100000000067630000000000F42182460447D7
:1017200039482C3400000000737973006A610000AE
:101730000000037927D24D9E4DC64CBF360024F4DD
:101740004973797300637400000000039D27D24D34
:101750009E4DC64CB7360AD7233C73797300737419
:101760000000000003BE274B481846404E6044006E
:1017700000803F7379730069630000000003DB277A
:101780004B4818460D48C8360000000073797300B6
:10179000656300000000030A284B481846F347C958
:1017A00036000000007379730065650000000003D7
:1017B00032284B481846D947CA36000000007379D2
:1017C0007300657800000000034F284B481846BF9F
:1017D00047CB360000803F737973006571000000CD
:1017E000000370284B4818469F45CD360000000086
:1017F00073797300656A000000000395284B481850
:10180000469F45CC3600000000737973006A76006D
:1018100000000003B8284B4818469F45D03600000A
:10182000A0407379730074760000000003D8284B41
:101830004818469F45D136000040407379730073C5
:10184000690000000003F828894B3D460B45D4365B
:1018500000004843737973006261756400000020E2
:10186000294B4818465B56D2360000A040000000C5
:10187000006D7400000000034029D24D6246F0451F
:10188000BB3600409C45000000006D6C000000006D
:10189000036329D24D9E4DC64CAF360AD7A33D00F7
:1018A0000000006D6100000000038329D24D9E4DB1
:1018B000C64CB336CDCCCC3D00000000657168004D
:1018C000000003A2294B4818469F45CE360000A0D1
:1018D000410000000065716C00000003A2294B4824
:1018E00018469F45CF360000004000000000736599
:1018F0003030000002F42182463D46C645D836000D
:101900000000000000000073653031000002F42187
:1019100082463D46C645DA36000000000000000061
:1019200073653032000002F42182463D46C645DC34
:101930003600000000000000007365303300000234
:10194000F42182463D46C645DE3600000000000018
:10195000000073653034000002F42182463D46C623
:1019600045E03600000000000000007365303500DF
:101970000002F42182463D46C645E23600000000E2
:101980000000000073653036000002F42182463DFD
:1019900046C645E4360000000000000000736530D4
:1019A00037000002F42182463D46C645E636000077
:1019B00000000000000073653038000002F421824E
:1019C000463D46C645E836000000000000000073B2
:1019D000653039000002F42182463D46C645EA36AC
:1019E000000000000000000073653130000002F4C8
:1019F0002182463D46C645EC36000000000000004E
:101A00000073653131000002F42182463D46C6452F
:101A1000EE36000000000000000073797300000043
:101A200000F4218246FE582C522C340000000000A5
:101A300000000070310000000000F4218246FE58D2
:101A40002C522C3400000000000000003100000087
:101A5000000000F4218246FE582C522C3400000075
:101A6000000000000032000000000000F421824667
:101A7000FE582C522C3400000000000000003300FF
:101A80000000000000F4218246FE582C522C340045
:101A90000000000000000034000000000000F421FD
:101AA0008246FE582C522C3400000000000000003A
:101AB00078000000000000F4218246FE582C522CD1
:101AC0003400000000000000007900000000000069
:101AD000F4218246FE582C522C34000000000000F5
:101AE00000007A000000000000F4218246FE582C1D
:101AF000522C3400000000000000006100000000D3
:101B00000000F4218246FE582C522C3400000000C4
:101B10000000000062000000000000F4218246FE88
:101B2000582C522C3400000000000000006300001C
:101B300000000000F4218246FE582C522C34000094
:101B400000000000000067353400000000F421822E
:101B500046FE582C522C34000000000000000067A4
:101B6000353500000000F4218246FE582C522C34FA
:101B7000000000000000000067353600000000F49F
:101B8000218246FE582C522C340000000000000038
:101B90000067353700000000F4218246FE582C52C1
:101BA0002C34000000000000000067353800000001
:101BB00000F4218246FE582C522C34000000000014
:101BC00000000067353900000000F4218246FE580D
:101BD0002C522C3400000000000000006739320055
:101BE000000000F4218246FE582C522C34000000E4
:101BF000000000000067323800000000F421824637
:101C0000FE582C522C340000000000000000673306
:101C10003000000000F4218246FE582C522C340083
:101C200000000000000000706F7300000000F4214D
:101C30008246FE582C522C340000000000000000A8
:101C40006D706F00000000F4218246FE582C522C6B
:101C5000340000000000000000686F6D000000000C
:101C6000F4218246FE582C522C3400000000000063
:101C700000006D000000000000F4218246B8589D6D
:101C8000452C34000000000000000071000000003E
:101C90000000F42182465E589D452C34000000006F
:101CA000000000006F000000000000F4218246E602
:101CB000579D452C34000000000000000024000067
:101CC00000000000F421824652599D452C3400004A
:101CD0000000A629A829AD29B329B929BF29C629F9
:101CE0002A2A2A204E4F54494345202A2A2A205284
:101CF00065737474696E67206261756420726174C3
:101D00006520746F202553002A2A2A205741524EFD
:101D1000494E47202A2A2A20496C6C6567616C204D
:101D200062617564207261746520737065636966B1
:101D300069656400CD29D129D5292A2A2A2057414D
:101D4000524E494E47202A2A2A20556E73757070CC
:101D50006F7274656420726F746172792061786942
:101D600073206D6F64652E20417869732044495358
:101D700041424C4544002A2A2A205741524E494E9E
:101D800047202A2A2A20556E737570706F72746509
:101D900064206C696E6561722061786973206D6F73
:101DA00064652E20417869732044495341424C4573
:101DB0004400DA29E529F029FC292A2A2A2057415A
:101DC000524E494E47202A2A2A204E6F6E2D737498
:101DD000616E64617264206D6963726F73746570A3
:101DE0002076616C756500052A0F2A152A462A5E41
:101DF0002A7B2A9B2A9B2AB12AC72AD62AE52AF4BB
:101E00002A112B232B3C2B5D2B842BA42BBE2BD8F0
:101E10002BF22B0C2C262C402C522C682C6C2C7169
:101E20002C762C7C2C812C862C8A2C8F2C932C9B12
:101E30002CA22CA82CB52CBB2CC12CC62CCA2CD760
:101E40002CDD2CE22CE62CEA2CEF2CF52CFB2C02C2
:101E50002D2C000A0025733A25730025733A25318D
:101E60002E30660025733A25312E3366002C000A89
:101E70000025730025312E30660025312E33660093
:101E80005B66625D20206669726D776172652062B3
:101E900075696C642531382E32660A005B66765DA2
:101EA00020206669726D776172652076657273694C
:101EB0006F6E2531362E32660A005B68765D202013
:101EC00068617264776172652076657273696F6E9E
:101ED0002531362E32660A005B69645D2020546924
:101EE0006E7947204944253330730A004C696E658A
:101EF000206E756D6265723A2531302E30660A00AB
:101F00004665656420726174653A2531362E336604
:101F100025532F6D696E0A004D616368696E6520F7
:101F200073746174653A2020202020202025730AD4
:101F300000526177206D616368696E65207374611A
:101F400074653A20202025730A004379636C65206C
:101F500073746174653A20202020202020202025E1
:101F6000730A004D6F74696F6E2073746174653A03
:101F7000202020202020202025730A00466565644B
:101F8000686F6C642073746174653A20202020208F
:101F90002025730A0056656C6F636974793A2531A0
:101FA000372E336625532F6D696E0A00556E69749E
:101FB000733A2020202020202020202020202020B4
:101FC0002025730A00436F6F7264696E6174652027
:101FD00073797374656D3A20202025730A004D6F64
:101FE00074696F6E206D6F64653A20202020202078
:101FF00020202025730A00506C616E653A20202055
:1020000020202020202020202020202025730A00AE
:1020100050617468204D6F64653A20202020202094
:10202000202020202025730A0044697374616E63A8
:1020300065206D6F64653A202020202020202573C4
:102040000A00466565642072617465206D6F646581
:102050003A20202020202025730A005820706F731A
:102060006974696F6E3A2531352E336625530A003F
:102070005920706F736974696F6E3A2531352E334C
:102080006625530A005A20706F736974696F6E3A3F
:102090002531352E336625530A004120706F736950
:1020A00074696F6E3A2531352E336625530A004226
:1020B00020706F736974696F6E3A2531352E3366FF
:1020C00025530A004320706F736974696F6E3A2557
:1020D00031352E336625530A0058206D61636869D7
:1020E0006E6520706F736E3A2531312E336625533D
:1020F0000A0059206D616368696E6520706F736EA8
:102100003A2531312E336625530A005A206D61631A
:1021100068696E6520706F736E3A2531312E3366B3
:1021200025530A0041206D616368696E6520706FF8
:10213000736E3A2531312E336625530A0042206DE5
:10214000616368696E6520706F736E3A2531312E58
:10215000336625530A0043206D616368696E65200C
:10216000706F736E3A2531312E336625530A00485D
:102170006F6D696E672073746174653A202020204A
:102180002020202025730A00582061786973206878
:102190006F6D65643A2534640A005920617869736B
:1021A00020686F6D65643A2534640A005A206178AE
:1021B000697320686F6D65643A2534640A004120B4
:1021C0006178697320686F6D65643A2534640A002C
:1021D00042206178697320686F6D65643A253464C4
:1021E0000A0043206178697320686F6D65643A2541
:1021F00034640A000071723A25640A0072783A2544
:10220000640A0025730A005B257325735D206D2524
:1022100073206D617020746F20617869732531358A
:1022200064205B303D582C20313D592E2E2E5D0A06
:10223000005B257325735D206D25732073746570B5
:1022400020616E676C652532302E336625530A0097
:102250005B257325735D206D25732074726176652F
:102260006C20706572207265766F6C7574696F6E24
:1022700025392E336625530A005B257325735D20AF
:102280006D2573206D6963726F737465707325318A
:102290003664205B312C322C342C385D0A005B25EF
:1022A0007325735D206D257320706F6C6172697486
:1022B0007925313864205B302C315D0A005B257351
:1022C00025735D206D257320706F776572206D61B9
:1022D0006E6167656D656E7425313064205B302CEE
:1022E000315D0A005B257325735D202573206178BD
:1022F0006973206D6F6465253138642025530A00A9
:102300005B257325735D2025732076656C6F63698B
:102310007479206D6178696D756D2531352E336660
:1023200025532F6D696E0A005B257325735D20258B
:1023300073206665656472617465206D6178696D8E
:10234000756D2531352E336625532F6D696E0A0064
:102350005B257325735D2025732074726176656C2F
:10236000206D6178696D756D2531372E3366255383
:102370000A005B257325735D202573206A65726BE7
:10238000206D6178696D756D2531352E3066255368
:102390002F6D696E5E330A005B257325735D202502
:1023A00073206A756E6374696F6E20646576696107
:1023B00074696F6E2531342E3466255320286C6184
:1023C0007267657220697320666173746572290A89
:1023D000005B257325735D20257320737769746313
:1023E00068206D696E25313764205B302D345D0ABD
:1023F000005B257325735D202573207377697463F3
:1024000068206D617825313764205B302D345D0A9A
:10241000005B257325735D202573207365617263EE
:10242000682076656C6F636974792531362E336662
:1024300025532F6D696E0A005B257325735D20257A
:1024400073206C617463682076656C6F636974795E
:102450002531372E336625532F6D696E0A005B25B3
:102460007325735D202573206C617463682062613D
:10247000636B6F66662531382E336625530A005B21
:10248000257325735D202573207A65726F20626144
:10249000636B6F66662531392E336625530A005B00
:1024A000257325735D20257320726164697573201F
:1024B00076616C75652532302E346625530A005BD3
:1024C00070316672715D2070776D2066726571750E
:1024D000656E63792020202531352E336620487AB9
:1024E0000A005B703163736C5D2070776D206377D9
:1024F000207370656564206C6F202531352E33663E
:102500002052504D0A005B70316373685D20707714
:102510006D206377207370656564206869202531BC
:10252000352E33662052504D0A005B703163706C5B
:102530005D2070776D206377207068617365206C13
:102540006F202531352E3366205B302E2E315D0A0B
:10255000005B70316370685D2070776D2063772059
:102560007068617365206869202531352E336620D7
:102570005B302E2E315D0A005B703177736C5D200D
:1025800070776D20636377207370656564206C6F6E
:102590002531352E33662052504D0A005B7031775D
:1025A00073685D2070776D20636377207370656555
:1025B000642068692531352E33662052504D0A005B
:1025C0005B703177706C5D2070776D20636377206E
:1025D0007068617365206C6F2531352E3366205B22
:1025E000302E2E315D0A005B70317770685D20708F
:1025F000776D206363772070686173652068692553
:1026000031352E3366205B302E2E315D0A005B7033
:1026100031706F665D2070776D2070686173652022
:102620006F66662020202531352E3366205B302EE4
:102630002E315D0A005B257325735D2025732025EF
:1026400073206F66667365742532302E33662553AA
:102650000A005B257325735D202573202573206C8C
:102660006F636174696F6E2531382E336625530AA6
:10267000005B67706C5D2064656661756C742067D3
:10268000636F646520706C616E6525313064205B1A
:10269000303D4731372C313D4731382C323D4731C1
:1026A000395D0A005B67756E5D2064656661756CF7
:1026B000742067636F646520756E697473206D6F35
:1026C0006465253564205B303D4732302C313D4711
:1026D00032315D0A005B67636F5D2064656661751A
:1026E0006C742067636F646520636F6F726420731E
:1026F000797374656D253364205B312D362028474E
:1027000035342D473539295D0A005B6770615D20DE
:1027100064656661756C742067636F6465207061C1
:10272000746820636F6E74726F6C253364205B3045
:102730003D4736312C313D4736312E312C323D4725
:1027400036345D0A005B6764695D206465666175A7
:102750006C742067636F64652064697374616E6371
:1027600065206D6F6465253264205B303D473930EC
:102770002C313D4739315D0A005B6A615D20206A7A
:10278000756E6374696F6E20616363656C657261F9
:1027900074696F6E25382E306625530A005B6374AA
:1027A0005D202063686F7264616C20746F6C657269
:1027B000616E63652531362E336625530A005B73DF
:1027C000745D20207377697463682074797065255F
:1027D000313864205B302C315D0A005B69635D2019
:1027E0002069676E6F7265204352206F72204C46DD
:1027F000206F6E20525820253764205B302C313DED
:1028000043522C323D4C465D0A005B65635D2020DF
:10281000657870616E64204C4620746F2043524C82
:1028200046206F6E205458253564205B302C315D76
:102830000A005B65655D2020656E61626C652065E0
:1028400063686F25313864205B302C315D0A005B92
:1028500065785D2020656E61626C6520786F6E2002
:10286000786F666625313464205B302C315D0A0058
:102870005B65715D2020656E61626C6520717565B8
:102880007565207265706F727473253964205B30D2
:102890002D325D0A005B656A5D2020656E61626CA9
:1028A00065206A736F6E206D6F6465202531326418
:1028B000205B302C315D0A005B6A765D20206A73F4
:1028C0006F6E20766572626F736974792531356435
:1028D000205B302D355D0A005B74765D20207465C9
:1028E000787420766572626F736974792531356406
:1028F000205B302D335D0A005B73695D20207374AB
:102900006174757320696E74657276616C253134FB
:102910002E3066206D73205B303D6F66665D0A0069
:102920005B626175645D205553422062617564206D
:102930007261746525313564205B302D365D0A0087
:102940005B6D745D20206D696E207365676D656ECB
:10295000742074696D652531332E3066207553659A
:10296000630A005B6D6C5D20206D696E206C696E82
:1029700065207365676D656E742531372E33662566
:10298000530A005B6D615D20206D696E206172638A
:10299000207365676D656E742531382E3366255357
:1029A0000A0025640A0030003936303000313932EF
:1029B0003030003338343030003537363030003185
:1029C0003135323030003233303430300020696EEF
:1029D00000206D6D0020646567005B64697361624F
:1029E0006C65645D005B7374616E646172645D004C
:1029F0005B696E686962697465645D005B726164DD
:102A00006975735D004E6F7420486F6D6564004892
:102A10006F6D656400473934202D20756E697473BD
:102A20002D7065722D6D696E757465206D6F6465AE
:102A30002028692E652E20666565647261746520A4
:102A40006D6F64652900473933202D20696E7665E6
:102A50007273652074696D65206D6F646500473918
:102A600030202D206162736F6C757465206469730A
:102A700074616E6365206D6F646500473931202D88
:102A800020696E6372656D656E74616C2064697334
:102A900074616E6365206D6F646500473631202D6B
:102AA0002065786163742073746F70206D6F646546
:102AB00000473634202D20636F6E74696E756F7514
:102AC00073206D6F646500473137202D20585920E1
:102AD000706C616E6500473138202D20585A207087
:102AE0006C616E6500473139202D20595A20706C79
:102AF000616E6500473020202D206C696E65617223
:102B000020747261766572736520287365656B2920
:102B100000473120202D206C696E6561722066654A
:102B2000656400473220202D20636C6F636B7769EA
:102B300073652061726320666565640047332020F9
:102B40002D20636F756E74657220636C6F636B7795
:102B5000697365206172632066656564004738307B
:102B6000202D2063616E63656C206D6F74696F6EDC
:102B7000206D6F646520286E6F6E652061637469D7
:102B800076652900473533202D206D616368696EB5
:102B90006520636F6F7264696E6174652073797309
:102BA00074656D00473534202D20636F6F72646942
:102BB0006E6174652073797374656D2031004735DB
:102BC00035202D20636F6F7264696E6174652073A8
:102BD000797374656D203200473536202D20636F80
:102BE0006F7264696E6174652073797374656D20AA
:102BF0003300473537202D20636F6F7264696E6133
:102C000074652073797374656D20340047353820FE
:102C10002D20636F6F7264696E61746520737973C0
:102C200074656D203500473539202D20636F6F7234
:102C300064696E6174652073797374656D20360004
:102C4000473230202D20696E63686573206D6F6494
:102C50006500473231202D206D696C6C696D65749B
:102C60006572206D6F6465004F66660053796E6310
:102C700000506C616E00446563656C00486F6C6465
:102C80000053746F700052756E00486F6C64004F93
:102C90006666005374617274656400486F6D696E96
:102CA000670050726F626500496E697469616C6992
:102CB0007A696E67005265736574004379636C6569
:102CC0000053746F7000456E6400496E69746961E9
:102CD0006C697A696E670052657365740053746F2E
:102CE0007000456E640052756E00486F6C64005051
:102CF000726F6265004379636C6500486F6D696E41
:102D000067004A6F6700302E332E392E402E452E35
:102D10004E2E592E642E702E7C2E8A2EA12EB02E71
:102D2000BD2ED12EE92EF62EFA2EFE2E022F062FC4
:102D3000152F2A2F3F2F4E2F522F562F5A2F5E2FEF
:102D4000622F662F6A2F6E2F722F762F7A2F7E2F8B
:102D5000822F862F8A2F8E2FA32FBB2FCD2FE62FCA
:102D6000FC2F12302A3042305430723086308A3094
:102D70008E30923096309A309E30A230A630AA30F3
:102D8000BB30CF30E130F6300E312A313E31523196
:102D90006D3153595354454D205245414459006DAE
:102DA0006D00696E63680074696E7967205B2553F6
:102DB0005D206F6B3E200074696E7967205B255340
:102DC0005D206572726F723A2025532025730A00C8
:102DD000496E697469616C697A696E6720636F6EA8
:102DE0006669677320746F2053686170656F6B6FDD
:102DF000203337356D6D2070726F66696C65004CDD
:102E00006F6164696E6720636F6E666967732066C1
:102E1000726F6D20454550524F4D00456E64206FD6
:102E20006620636F6D6D616E642066696C650A0073
:102E30004F4B004572726F720045616761696E00A9
:102E40004E6F6F7000436F6D706C657465005465F4
:102E5000726D696E617465640048617264207265A8
:102E600073657400456E64206F66206C696E650042
:102E7000456E64206F662066696C650046696C6506
:102E8000206E6F74206F70656E004D6178206669EA
:102E90006C652073697A652065786365656465642F
:102EA000004E6F2073756368206465766963650002
:102EB00042756666657220656D707479004275664C
:102EC0006665722066756C6C202D20666174616C7D
:102ED000004275666665722066756C6C202D206EEA
:102EE0006F6E2D666174616C00496E697469616C06
:102EF000697A696E67002331360023313700233148
:102F0000380023313900496E7465726E616C20653A
:102F100072726F7200496E7465726E616C207261BC
:102F20006E6765206572726F7200466C6F617469BE
:102F30006E6720706F696E74206572726F720044E4
:102F40006976696465206279207A65726F00233240
:102F50003400233235002332360023323700233247
:102F60003800233239002333300023333100233338
:102F7000320023333300233334002333350023332B
:102F80003600233337002333380023333900556E9E
:102F90007265636F676E697A656420636F6D6D61DA
:102FA0006E6400457870656374656420636F6D6D51
:102FB000616E64206C657474657200426164206E99
:102FC000756D62657220666F726D617400496E7016
:102FD00075742065786365656473206D6178206C15
:102FE000656E67746800496E7075742076616C75E3
:102FF0006520746F6F20736D616C6C00496E707525
:10300000742076616C756520746F6F206C617267D7
:103010006500496E7075742076616C75652072610B
:103020006E6765206572726F7200496E70757420EC
:1030300076616C756520756E737570706F727465EE
:1030400064004A534F4E2073796E74617820657224
:10305000726F72004A534F4E20696E70757420680B
:10306000617320746F6F206D616E79207061697279
:1030700073004F7574206F662062756666657220F6
:1030800073706163650023353100233532002335C9
:1030900033002335340023353500233536002335FE
:1030A000370023353800233539005A65726F206C9C
:1030B000656E677468206D6F76650047636F646541
:1030C00020626C6F636B20736B697070656400477E
:1030D000636F646520696E707574206572726F72BB
:1030E0000047636F6465206665656472617465207E
:1030F0006572726F720047636F64652061786973EF
:1031000020776F7264206D697373696E670047631F
:103110006F6465206D6F64616C2067726F757020DD
:1031200076696F6C6174696F6E00486F6D696E6768
:10313000206379636C65206661696C6564004D612C
:10314000782074726176656C206578636565646566
:1031500064004D6178207370696E646C65207370D3
:1031600065656420657863656564656400417263C4
:103170002073706563696669636174696F6E206549
:1031800072726F7200073209320B320D322A2A2A0C
:10319000205741524E494E47202A2A2A20486F6D17
:1031A000696E67206572726F723A202553206178CC
:1031B00069732073657474696E677320696E636FD9
:1031C0007272656374002A2A2A205741524E494E72
:1031D00047202A2A2A20486F6D696E67206572721F
:1031E0006F723A205370656369666965642061781F
:1031F0006973286573292063616E6E6F7420626540
:1032000020686F6D656400580059005A0041004500
:103210006E7465722024626F6F743D3120746F206C
:10322000656E7465722074686520626F6F74206CBF
:103230006F616465722E0A000A0A0A232323232081
:1032400054696E794720424F4F54204C4F414445BA
:10325000522048656C7020232323230A000A466FFE
:10326000722064657461696C65642054696E794785
:1032700020696E666F207365653A20687474707398
:103280003A2F2F6769746875622E636F6D2F73799B
:103290006E746865746F732F54696E79472F776900
:1032A0006B692F0A466F7220746865206C617465C3
:1032B0007374206669726D77617265207365653A13
:1032C0002068747470733A2F2F6769746875622E62
:1032D000636F6D2F73796E746865746F732F5469A3
:1032E0006E79470A506C65617365206C6F67206169
:1032F0006E792069737375657320617420687474C6
:10330000703A2F2F7777772E73796E746865746FA4
:10331000732E636F6D2F666F72756D730A486176D9
:10332000652066756E0A00456E74657220246465BA
:103330006661756C74733D3120746F2072657365BE
:1033400074207468652073797374656D20746F20C0
:1033500074686520666163746F7279206465666164
:10336000756C742076616C7565732E0A5468697388
:103370002077696C6C206F7665727772697465204E
:10338000616E79206368616E67657320796F75205F
:1033900068617665206D6164652E0A000A0A0A2359
:1033A0002323232054696E794720524553544F52AA
:1033B000452044454641554C54532048656C702087
:1033C000232323230A00496E766F6B652073656C97
:1033D00066207465737420627920656E7465726905
:1033E0006E672024746573743D4E2077686572653E
:1033F000204E206973206F6E65206F663A0A202088
:1034000024746573743D312020686F6D696E672088
:103410007465737420202028796F75206D7573741E
:10342000207472697020686F6D696E6720737769A8
:103430007463686573290A202024746573743D32AF
:103440002020736D6F6B6520746573740A202024CF
:10345000746573743D3320207371756172652074D7
:10346000657374202020286120736572696573205C
:103470006F662073717561726573290A2020247448
:103480006573743D34202061726320746573742009
:10349000202020202028736F6D65206C6172676585
:1034A00020636972636C6573290A20202474657334
:1034B000743D3520206477656C6C207465737420CE
:1034C000202020286D6F76657320737061636564BA
:1034D0002062792031207365636F6E6420647765A4
:1034E0006C6C73290A202024746573743D36202087
:1034F00066656564686F6C64207465737420286504
:103500006E746572202120616E64207E20746F20AD
:10351000686F6C6420616E6420726573746172748C
:103520002C20726573706563746976656C79290AFD
:10353000202024746573743D3720204D20636F6410
:10354000657320746573742020284D20636F646553
:103550007320696E7465726D696E676C656420773F
:10356000697468206D6F766573290A20202474655C
:1035700073743D3820204A534F4E20746573742075
:1035800020202020286D6F74696F6E20746573741D
:103590002072756E207573696E67204A534F4E20F6
:1035A000636F6D6D616E6473290A202024746573E6
:1035B000743D392020696E76657273652074696D7B
:1035C0006520746573740A202024746573743D311A
:1035D0003020726F74617279206D6F74696F6E2024
:1035E000746573740A202024746573743D3131202E
:1035F000736D616C6C206D6F766573207465737488
:103600000A202024746573743D313220736C6F7707
:10361000206D6F76657320746573740A202024749E
:103620006573743D313320636F6F7264696E6174CA
:10363000652073797374656D206F66667365742099
:103640007465737420284739322C204735342D4750
:103650003539290A000A0A0A232323232054696ED4
:1036600079472053454C4620544553542048656CB7
:103670007020232323230A004561636820242063EC
:103680006F6D6D616E642061626F766520616C7331
:103690006F20646973706C6179732074686520743D
:1036A0006F6B656E20666F7220656163682073655D
:1036B0007474696E6720696E205B205D20627261A0
:1036C000636B6574730A546F207669657720736540
:1036D0007474696E677320656E74657220612074FE
:1036E0006F6B656E3A0A0A2020243C746F6B656E1E
:1036F0003E0A0A466F72206578616D706C65202401
:1037000079667220746F20646973706C61792074BB
:1037100068652059206D6178206665656420726156
:1037200074650A0A546F207570646174652073654E
:103730007474696E677320656E74657220746F6B44
:10374000656E20657175616C732076616C75653A84
:103750000A0A2020243C746F6B656E3E3D3C766106
:103760006C75653E0A0A466F72206578616D706CF3
:103770006520247966723D38303020746F2073657F
:1037800074207468652059206D61782066656564D1
:10379000207261746520746F20383030206D6D2F79
:1037A0006D696E7574650A466F7220636F6E666927
:1037B0006775726174696F6E2064657461696C739A
:1037C000207365653A2068747470733A2F2F6769A7
:1037D000746875622E636F6D2F73796E746865748B
:1037E0006F732F54696E79472F77696B692F54690E
:1037F0006E79472D436F6E66696775726174696F84
:103800006E0A00546865736520636F6D6D616E6448
:1038100073206172652061637469766520666F72DA
:1038200020636F6E66696775726174696F6E3A0ABC
:103830002020247379732053686F77207379737411
:10384000656D202867656E6572616C2920736574EB
:1038500074696E67730A2020243120202053686F1A
:1038600077206D6F746F7220312073657474696E88
:10387000677320286F72207768617465766572209F
:103880006D6F746F7220796F752077616E7420315F
:103890002C322C332C34290A202024782020205349
:1038A000686F772058206178697320736574746934
:1038B0006E677320286F7220776861746576657211
:1038C000206178697320796F752077616E74207834
:1038D0002C792C7A2C612C622C63290A2020246DEF
:1038E00020202053686F7720616C6C206D6F746F9F
:1038F000722073657474696E67730A2020247120C6
:10390000202053686F7720616C6C20617869732088
:1039100073657474696E67730A2020246F202020F9
:1039200053686F7720616C6C206F666673657420D6
:1039300073657474696E67730A2020242420202024
:1039400053686F7720616C6C2073657474696E675F
:10395000730A2020246820202053686F7720746821
:1039600069732068656C702073637265656E0A0AFE
:10397000000A0A0A232323232054696E794720432F
:103980004F4E46494755524154494F4E2048656C69
:103990007020232323230A000A4E6F74653A2054B3
:1039A000696E79472067656E657261746573206121
:1039B00075746F6D617469632073746174757320BD
:1039C0007265706F727473206279206465666175C8
:1039D0006C740A546869732063616E2062652064A8
:1039E000697361626C656420627920656E746572CA
:1039F000696E67202473693D300A536565207468D9
:103A0000652077696B692062656C6F7720666F72DD
:103A1000206D6F72652064657461696C732E0A0095
:103A2000546865736520636F6D6D616E64732061AA
:103A30007265206163746976652066726F6D2074AB
:103A4000686520636F6D6D616E64206C696E653AA8
:103A50000A205E78202020202020202020202020E6
:103A60002052657365742028636F6E74726F6C20CA
:103A70007829202D20736F667477617265207265D6
:103A80007365740A20203F20202020202020202041
:103A9000202020204D616368696E6520706F736916
:103AA00074696F6E20616E642067636F6465206D5A
:103AB0006F64656C2073746174650A202024202073
:103AC000202020202020202020202053686F7720D5
:103AD000616E642073657420636F6E6669677572CA
:103AE0006174696F6E2073657474696E67730A2000
:103AF000202120202020202020202020202020469F
:103B0000656564686F6C64202D2073746F70206D20
:103B10006F74696F6E20776974686F7574206C6F4D
:103B200073696E6720706F736974696F6E0A202005
:103B30007E202020202020202020202020204379AB
:103B4000636C65205374617274202D2072657374E8
:103B50006172742066726F6D2066656564686F6C53
:103B6000640A2020682020202020202020202020DF
:103B7000202053686F7720746869732068656C70C3
:103B80002073637265656E0A20202468202020203F
:103B9000202020202020202053686F7720636F6E24
:103BA00066696775726174696F6E2068656C7020F4
:103BB00073637265656E0A20202474657374202017
:103BC000202020202020204C6973742073656C66AF
:103BD0002D74657374730A202024746573742D4EDC
:103BE0002020202020202052756E2073656C662DC9
:103BF00074657374204E0A202024686F6D653D3112
:103C00002020202020202052756E206120686F6DBA
:103C1000696E67206379636C650A20202464656699
:103C200061756C74733D31202020526573746F721E
:103C30006520616C6C2073657474696E67732074A1
:103C40006F2022666163746F7279222064656661F9
:103C5000756C74730A000A0A0A232323232054690B
:103C60006E79472048656C7020232323230A007156
:103C70007200284D53472A2A2A2A20486F6D696E00
:103C8000672054657374205B76315D202A2A2A2AC6
:103C9000290A6732382E32783079307A300A6D331B
:103CA0003000284D53472A2A2A2A20536D6F6B650E
:103CB0002054657374205B76315D202A2A2A2A29D4
:103CC0000A473030204731372047323120473430DF
:103CD0002047343920473830204739300A67353596
:103CE0000A6730783079300A473030207832300A2D
:103CF00078300A7932300A79300A7A2D32300A7AED
:103D0000300A6132300A61300A4730302078323070
:103D100020793230207A30206132300A473030202A
:103D20007830207930207A302061300A47303120D5
:103D3000663230302078370A79370A7A2D370A61AF
:103D4000330A6735340A6730783079300A6D33309A
:103D500000284D53472A2A2A2A205371756172651B
:103D600073204D6F74696F6E2054657374205B7699
:103D7000315D202A2A2A2A290A67303067313767BD
:103D800032316734306734396738306739300A6721
:103D900035350A6730783079300A6730783230202C
:103DA00028747261766572736520612032306D6DA2
:103DB0002073717561726520696E205820616E6490
:103DC0002059290A7932300A78300A79300A673165
:103DD0007831306635303020286472617720612078
:103DE00031306D6D2073717561726520696E205878
:103DF00020616E6420592061742046353030290AD4
:103E00007931300A78300A79300A67307A2D3230C9
:103E10002028747261766572736520612032306D7E
:103E20006D2073717561726520696E205820616E16
:103E300064205A290A7832300A7A300A78300A67C0
:103E4000317832307932307A2D3230663530302068
:103E5000286665656420612032306D6D206469617B
:103E6000676F6E616C20696E20582C205920616E3E
:103E700064205A290A783079307A300A78343079D7
:103E800034307A2D34300A78343079307A300A7808
:103E9000307934307A2D34300A7834307934307ACD
:103EA000300A783079307A2D34300A7830793430ED
:103EB0007A300A78343079307A2D34300A78307993
:103EC000307A300A6738300A6735340A673078301C
:103ED00079300A6D333000284D53472A2A2A2A2088
:103EE0004172632054657374205B76315D202A2A09
:103EF0002A2A290A67303067313767323167343010
:103F00006734396738306739300A6735350A6730C2
:103F1000783079300A663530300A67327831307956
:103F20002D3130693130202843572032373020641A
:103F3000656772656573290A6730783079300A677A
:103F400033783130792D313069313020284343576F
:103F50002039302064656772656573290A67307897
:103F60003079300A67327832307930693130202840
:103F70004357203138302064656772656573290ABC
:103F80006730783079300A67337832307930693188
:103F900030202843435720313830206465677265EC
:103FA0006573290A6730783079300A67327830795A
:103FB000306932302028435720333630206465671B
:103FC00072656573290A673278307930693230203A
:103FD0002843572033363020616761696E290A66AD
:103FE00037303020286D73674368616E67652066DF
:103FF0006565642072617465207768696C65206905
:104000006E204732206D6F74696F6E206D6F64652E
:10401000290A6732783079306932302028435720B6
:10402000333630203372642074696D65290A673233
:1040300078307930693230202843572033363020A9
:104040003474682074696D65290A663530300A67F2
:104050003378307930693230202843435720333663
:10406000302064656772656573290A673378307933
:10407000306932302028434357203336302061677F
:1040800061696E290A6637303020286D736743688E
:10409000616E67652066656564207261746520776E
:1040A00068696C6520696E204733206D6F74696F95
:1040B0006E206D6F6465290A673378307930693214
:1040C0003020284343572033363020337264207425
:1040D000696D65290A673378307930693230202874
:1040E00043435720333630203474682074696D653B
:1040F000290A6738300A6735340A673078307930F2
:104100000A6D333000284D53472A2A2A2A20447743
:10411000656C6C2054657374205B76315D202A2AAF
:104120002A2A290A673030673137673231673930D8
:104130000A6735350A6730783079300A66353030AD
:104140000A67307831300A673470310A6730783264
:10415000300A673470310A67307831300A6734705A
:10416000310A67307830300A673470310A79350A9D
:104170006735340A6730783079300A6D333000287B
:104180004D53472A2A2A2A2046656564686F6C6465
:104190002054657374205B76315D202A2A2A2A29EF
:1041A0000A284D53472A2A2A2A204D616E75616CD0
:1041B0006C7920656E746572202120616E64207EAA
:1041C00020647572696E67206D6F76656D656E74BB
:1041D00020746F2074657374202A2A2A2A290A679A
:1041E00035350A6730783079300A673470330A67BA
:1041F0003030673137673231673430673439673888
:10420000306739300A663630300A673078313030FE
:104210007637362E3736350A783079300A673534B6
:104220000A6730783079300A6D333000284D5347B3
:104230002A2A2A2A204D636F64657320746573747B
:10424000205B76315D202A2A2A2A290A6735350A19
:104250006730783079300A6D330A673470310A6D0F
:10426000350A673470310A6D340A673470310A6D6B
:10427000350A673470310A6D370A673470310A6D58
:10428000390A673470310A6D380A673470310A6D43
:10429000390A663530300A67307832300A79323080
:1042A0000A6D330A78300A6D340A79300A6D350A9E
:1042B00067317831300A6D370A7931300A6D380A42
:1042C00078300A6D390A79300A6732783130792DC1
:1042D00031306931300A6D330A6730783079300A0D
:1042E0006D340A6733783130792D31306931300AD5
:1042F0006D350A6730783079300A6D370A67327861
:10430000323079306931300A6D380A673078307967
:10431000300A6D390A673378323079306931300AC2
:104320006730783079300A673278307930693130E7
:104330000A6733783079306931300A6735340A6773
:1043400030783079300A6D3330007B226763223A4F
:10435000226730306731376732316734306734393C
:10436000673830673930227D0A7B226763223A2220
:10437000673535227D0A7B226763223A22673078CF
:10438000307930227D0A7B226763223A22663530FB
:1043900030227D0A7B226763223A22284D534773DD
:1043A00071756172657329227D0A7B226763223AE7
:1043B000226730783230227D0A7B226763223A22DC
:1043C000793230227D0A7B226763223A22783022BA
:1043D0007D0A7B226763223A227930227D0A7B2282
:1043E0006763223A226731783130227D0A7B226767
:1043F00063223A22793130227D0A7B226763223A96
:10440000227830227D0A7B226763223A2279302289
:104410007D0A7B226763223A22284D5347636972E3
:10442000636C657329227D0A7B226763223A2267C7
:1044300032783130792D3130693130227D0A7B225A
:104440006763223A22673078307930227D0A7B22F6
:104450006763223A226733783130792D3130693100
:1044600030227D0A7B226763223A226730783079D6
:1044700030227D0A7B226763223A2267327832300B
:104480007930693130227D0A7B226763223A2267C4
:104490003078307930227D0A7B226763223A2267A6
:1044A000337832307930693130227D0A7B2267637C
:1044B000223A22673078307930227D0A7B22676386
:1044C000223A22673278307930693130227D0A7B96
:1044D000226763223A22673378307930693130229B
:1044E0007D0A7B226763223A22673534227D0A7B6C
:1044F000226763223A22673078307930227D0A7B46
:10450000226763223A226D3330227D00284D5347C3
:104510002A2A2A2A20496E76657273652054696DAD
:1045200065204D6F74696F6E2054657374205B76DF
:10453000315D202A2A2A2A290A67303067313767F5
:1045400032316734306734396738306739300A6759
:1045500035350A6730783079300A6739330A663082
:104560002E30310A67317831300A7931300A7A31A8
:10457000300A6131300A78300A79300A7A300A61BB
:10458000300A67317831307931307A2D313061310C
:10459000300A6730783079307A3061300A66302EF0
:1045A000310A6732783130792D31307A2D323069E5
:1045B00031300A6730783079307A300A67337831B1
:1045C00030792D31307A2D32306931300A673078C8
:1045D0003079307A300A673278323079307A2D3259
:1045E000306931300A6730783079307A300A673391
:1045F00078323079306931300A6730783079307A02
:10460000300A6732783079307A2D33306931300AA8
:104610006733783079307A306931300A67307830F2
:1046200079307A300A673278307930693230202830
:104630004357203336302064656772656573290AF5
:10464000673378307930693230202843435720333C
:1046500036302064656772656573290A6739340AE4
:104660006735340A6730783079300A6D3330002886
:104670004D53472A2A2A2A20526F746172792041A9
:10468000786973204D6F74696F6E20546573742060
:104690005B76315D202A2A2A2A290A673030673161
:1046A00037673231673430673439673830673930CB
:1046B0000A6730783079307A306130623063300A9E
:1046C0006735350A6730783079300A6633363030EE
:1046D000300A6730613336300A623336300A63336A
:1046E00036300A61300A62300A63300A673161315C
:1046F0003434300A62313434300A63313434300AAD
:1047000061300A62300A63300A6731613134343013
:1047100062373230633336300A783079307A30613C
:1047200030623063300A673178363061313434308A
:1047300062373230633336300A783079307A30611C
:1047400030623063300A6731783630793530613124
:1047500034343062373230633336300A783079306F
:104760007A306130623063300A67317836307935BB
:104770003078323561313434306237323063333639
:10478000300A783079307A306130623063300A67CD
:1047900035340A6730783079300A6D333000284D6F
:1047A00053472A2A2A2A2054657374207665727921
:1047B0002073686F7274206D6F766573205B76313D
:1047C0005D202A2A2A2A290A2473693D3330303091
:1047D0000A6735350A6730783079300A67347030C7
:1047E0002E350A673178302E3166313030300A7814
:1047F000300A78302E310A78300A78302E310A7833
:10480000300A78302E310A78300A78302E310A7822
:10481000300A78302E310A78300A78302E310A7812
:10482000300A78302E310A78300A78302E310A7802
:10483000300A78302E310A78300A78302E310A78F2
:10484000300A78302E310A78300A78302E310A78E2
:10485000300A78302E310A78300A78302E310A67E3
:104860003470302E350A6735340A67307830793045
:104870000A6D333000284D53472A2A2A2A205465CE
:104880007374206163637572616379206F6620734E
:104890006C6F77206D6F766573205B76315D202AB3
:1048A0002A2A2A290A6735350A6730783079300A8A
:1048B000673470302E350A673470302E350A673110
:1048C0007831306632320A6735340A6730783079A9
:1048D000300A6D333000284D53472A2A2A2A2043B4
:1048E0006F6F7264696E617465206F66667365745C
:1048F000732074657374205B76315D202A2A2A2A1E
:10490000290A6730306731376732316734306734AE
:10491000396738306739300A6735340A6739327891
:104920003079307A300A663630300A284D53472ABB
:104930002A2A2A207465737420473932206F6666EC
:10494000736574732A2A2A2A290A286D7367537497
:10495000657020313A204D6F76652066726F6D204C
:10496000302C3020746F2033302C30206D6D206956
:104970006E20706F7369746976652058206469725F
:10498000656374696F6E290A286D73675374657067
:1049900020323A205265736574206F726967696EC0
:1049A00020746F20302E30207573696E6720473970
:1049B00032290A286D73675374657020333A204D8D
:1049C0006F766520746F2032302C302E2053686F44
:1049D000756C64206D6F7665203230206D6D2069B6
:1049E0006E20706F736974697665205820646972EF
:1049F000656374696F6E20616E6420737461747591
:104A000073207265706F72742073686F756C6420A8
:104A100073746172742066726F6D20302C30290AB5
:104A2000286D73675374657020343A204D6F766536
:104A300020746F20302E3020202053686F756C64F6
:104A4000206D6F7665203230206D6D20696E206E8E
:104A5000656761746976652058206469726563745E
:104A6000696F6E20616E6420737461747573207257
:104A700065706F72742073686F756C6420737461F5
:104A800072742066726F6D2032302C30290A6731C3
:104A90007833300A67393278300A67317832300A31
:104AA0006731783079300A2473720A673932783086
:104AB0000A673470302E350A284D53472A2A2A2A8D
:104AC000207465737420473535206F66667365748E
:104AD000732A2A2A2A290A286D736753746570205D
:104AE000313A2053657420436F6F7264696E61744C
:104AF000652073797374656D2032205B6735355D91
:104B000020746F206F6666736574206F6620353081
:104B10002C3530290A286D73675374657020323A3A
:104B20002053656C6563742047353520636F6F7261
:104B300064696E6174652073797374656D290A28E0
:104B40006D73675374657020333A204D6F7665201E
:104B5000746F20302C302E20486561642073686F9C
:104B6000756C64206D6F766520646961676F6E6136
:104B70006C6C7920696E202B5820616E64202B5953
:104B800020616E6420737461747573207265706F38
:104B900072742073686F756C642073746172742012
:104BA00066726F6D20302C30290A6731304C3270BC
:104BB000327835307935300A6735350A67307830E4
:104BC00079300A673470302E350A284D53472A2A27
:104BD0002A2A207465737420473533206162736F0D
:104BE0006C757465206F7665727269646573202ACE
:104BF0002A2A2A290A286D73675374657020313A6E
:104C00002052756E20612073717561726520696E26
:104C1000204735352073797374656D290A286D73C3
:104C2000675374657020323A2052756E206120738C
:104C3000717561726520772F473533206F76657205
:104C400072696465290A6730783079300A6730788C
:104C5000323079300A67307832307932300A673052
:104C600078307932300A6730783079300A673470BA
:104C7000302E350A6735336730783079300A67353A
:104C800033673078323079300A67353367307832BD
:104C9000307932300A673533673078307932300A0C
:104CA0006735336730783079300A6730783079305B
:104CB0000A673470302E350A284D53472A2A2A2A8B
:104CC00020746573742052657475726E20746F2041
:104CD000686F6D65202A2A2A2A290A286D7367536E
:104CE00074657020313A2052657475726E20746F4D
:104CF00020686F6D65207573696E672047323829AB
:104D00000A286D73675374657020323A20526573B8
:104D1000657420746F2047353420636F6F72642090
:104D200073797374656D290A6732380A6735340AF6
:104D30006D3330004E31204732300A4E3520473433
:104D400030204731370A4E3130205431204D303633
:104D50000A284E313520473930204730205830203E
:104D60005930205A30290A4E3230205335303030F5
:104D7000204D3033200A4E32352058302E30363414
:104D80002059302E333236205A300A4E34302047E4
:104D90003031204631362E300A4E35302058302EF4
:104DA0003036342059302E3332360A4E35352058BD
:104DB000302E3036302059302E3239330A4E3630CC
:104DC0002058302E3037372059302E3236370A4EA1
:104DD00036352058302E3131312059302E3235378A
:104DE0000A4E37302058302E3134392059302E3287
:104DF00035320A4E37352058302E31383820593068
:104E00002E3235350A4E38302058302E3232372087
:104E100059302E3236380A4E38352058302E323539
:104E2000372059302E3237310A4E39302058302E43
:104E30003333352059302E3236350A4E3935205825
:104E4000302E3431322059302E3237310A4E313043
:104E5000302058302E3437342059302E3238370A2B
:104E60004E3130352058302E3439312059302E32E1
:104E700038390A4E3131302058302E3531372059EB
:104E8000302E3237330A4E3131352058302E3534FA
:104E9000342059302E3236330A4E313230205830D9
:104EA0002E3538302059302E3236310A4E313235D7
:104EB0002058302E3539352059302E3236330A4EAF
:104EC0003133302058302E3632312059302E32379F
:104ED000340A4E3133352058302E3635392059308A
:104EE0002E3330360A4E3134302058302E36373398
:104EF0002059302E3333350A4E3134352058302E78
:104F00003637392059302E3336310A4E313530207C
:104F100058302E3637382059302E3338390A4E3132
:104F200035352058302E3637302059302E34323037
:104F30000A4E3136302058302E3637302059302E38
:104F40003434360A4E3136352058302E363830203B
:104F500059302E3437340A4E3137302058302E37FE
:104F600030342059302E3439370A4E3137352058F5
:104F7000302E3733322059302E3531350A4E313804
:104F8000302058302E3739342059302E3533350AF9
:104F90004E3138352058302E3837322059302E35A2
:104FA00036370A4E3139302058302E3935302059B5
:104FB000302E3630340A4E3139352058312E3033C8
:104FC000312059302E3634370A4E323030205831A5
:104FD0002E3134392059302E3732320A4E323035A4
:104FE0002058312E3330382059302E3835340A4E7F
:104FF0003231302058312E3433302059302E393868
:10500000340A4E3231352058312E3434372059305D
:105010002E3938360A4E3232302058312E36323858
:105020002059302E3832320A4E3232352058312E45
:105030003733322059302E3731340A4E3233302054
:1050400058322E3030392059302E3338310A4E3212
:1050500033352058322E3131362059302E32363603
:105060000A4E3234302058322E3232382059302E07
:105070003135370A4E3234352058322E323830200E
:1050800059302E3132330A4E3235302058322E33D9
:1050900033322059302E3039340A4E3235352058CB
:1050A000322E3432332059302E3037300A4E3236D9
:1050B000302058322E3438392059302E3036350AC7
:1050C0004E3236352058322E3535372059302E3075
:1050D00036360A4E3237302058322E363237205983
:1050E000302E3038340A4E3237352058322E363989
:1050F000332059302E3130390A4E32383020583270
:105100002E3733302059302E3133330A4E32383572
:105110002058322E3830352059302E3139300A4E51
:105120003239302058322E3832392059302E32312F
:10513000360A4E3239352058322E38383020593020
:105140002E3239310A4E3330302058322E3838342E
:105150002059302E3330300A4E3330352058322E1D
:105160003839382059302E3333320A4E333130201B
:1051700058322E3930352059302E3336370A4E33D7
:1051800031352058322E3931302059302E343037D5
:105190000A4E3332302058322E3930382059302ED2
:1051A0003434360A4E3332352058322E39303120DD
:1051B00059302E3439350A4E3333302058322E3898
:1051C00039372059302E3439350A4E33333520588B
:1051D000322E3839302059302E3532340A4E33349D
:1051E000302058322E3834322059302E3630340A9E
:1051F0004E3334352058322E3831342059302E3643
:1052000036350A4E3335302058322E37393420594E
:10521000302E3735300A4E3335352058322E373957
:10522000312059302E3833380A4E33363020583238
:105230002E3831392059302E3937360A4E3336352B
:105240002058322E3833372059312E3034340A4E1C
:105250003337302058322E3836322059312E313102
:10526000320A4E3337352058322E383737205931ED
:105270002E3134350A4E3338302058322E393132FF
:105280002059312E3231370A4E3338352058322EDC
:105290003931372059312E3232360A4E33393020E7
:1052A00058322E3935312059312E3238310A4E33A9
:1052B00039352058322E3937302059312E32393590
:1052C0000A4E3430302058322E3939362059312E9A
:1052D0003239350A4E3430352058332E30313320B0
:1052E00059312E3237350A4E3431302058332E3072
:1052F00032342059312E3235340A4E34313520586B
:10530000332E3037302059312E3135310A4E343278
:10531000302058332E3037372059312E3133340A6C
:105320004E3432352058332E3132352059312E301B
:1053300033390A4E3433302058332E313338205924
:10534000312E3031390A4E3433352058332E323035
:10535000352059302E3930380A4E34343020583305
:105360002E3238322059302E3739370A4E34343500
:105370002058332E3336312059302E3639310A4EEB
:105380003435302058332E3432362059302E3539CA
:10539000320A4E3435352058332E343536205930C4
:1053A0002E3534330A4E3436302058332E343739C4
:1053B0002059302E3439330A4E3436352058332EA6
:1053C0003439342059302E3437320A4E34373020B5
:1053D00058332E3530352059302E3434360A4E3479
:1053E00037352058332E3531382059302E34313767
:1053F0000A4E3438302058332E3533302059302E71
:105400003339310A4E3438352058332E353634206E
:1054100059302E3330300A4E3439302058332E353F
:1054200037372059302E3235330A4E34393520582B
:10543000332E3536382059302E3231320A4E35303F
:10544000302058332E3534342059302E3137360A37
:105450004E3530352058332E3534312059302E31E9
:1054600034360A4E3531302058332E3535332059F5
:10547000302E3131390A4E3531352058332E3537FB
:10548000362059302E3130360A4E353230205833DE
:105490002E3539372059302E3130320A4E353235DB
:1054A0002058332E3631382059302E3130390A4EBB
:1054B0003533302058332E3633392059302E31329F
:1054C000390A4E3533352058332E36353020593091
:1054D0002E3135390A4E3534302058332E36363396
:1054E0002059302E3137380A4E3534352058332E76
:1054F0003637382059302E3139320A4E3535302082
:1055000058332E3639392059302E3139370A4E3535
:1055100035352058332E3732332059302E31393635
:105520000A4E3536302058332E3736342059302E37
:105530003137390A4E3536352058332E383035203C
:1055400059302E3136350A4E3537302058332E3803
:1055500038342059302E3135390A4E3537352058F8
:10556000332E3934392059302E3136350A4E3538FC
:10557000302058332E3936362059302E3137350AFF
:105580004E3538352058332E3937382059302E31A2
:1055900039340A4E3539302058332E3937382059AE
:1055A000302E3232330A4E3539352058332E3936C3
:1055B000302059302E3234350A4E363030205833B0
:1055C0002E3833342059302E3331310A4E363035AF
:1055D0002058332E3736322059302E3334350A4E88
:1055E0003631302058332E3732362059302E33386A
:1055F000390A4E3631352058332E37303320593062
:105600002E3435380A4E3632302058332E36383262
:105610002059302E3533300A4E3632352058332E4D
:105620003637392059302E3533340A4E3633302050
:1056300058332E3632362059302E3638310A4E360F
:1056400033352058332E3536382059302E383238FD
:105650000A4E3634302058332E3434342059312E0B
:105660003038300A4E3634352058332E3430352019
:1056700059312E3136370A4E3635302058332E34D4
:1056800030342059312E3136370A4E3635352058D0
:10569000332E3338372059312E3230380A4E3636D1
:1056A000302058332E3338342059312E3230380AD6
:1056B0004E3636352058332E3336352059312E327A
:1056C00036350A4E3637302058332E33353520598B
:1056D000312E3238350A4E3637352058332E333492
:1056E000382059312E3330380A4E3638302058336E
:1056F0002E3333332059312E3335300A4E36383578
:105700002058332E3332312059312E3339310A4E5D
:105710003639302058332E3331312059312E34323E
:10572000380A4E3639352058332E33333920593123
:105730002E3432330A4E3730302058332E34343042
:105740002059312E3430360A4E3730352058332E1A
:105750003531302059312E3430380A4E373130202F
:1057600058332E3538352059312E3432310A4E37E0
:1057700031352058332E3631312059312E343339DA
:105780000A4E3732302058332E3631312059312EDF
:105790003434310A4E3732352058332E36313520E5
:1057A00059312E3434310A4E3733302058332E36A7
:1057B00033362059312E3438380A4E373335205895
:1057C000332E3633342059312E3531370A4E3734A3
:1057D000302058332E3632322059312E3534330AA8
:1057E0004E3734352058332E3630352059312E354A
:1057F00036330A4E3735302058332E353736205958
:10580000312E3537350A4E3735352058332E35345D
:10581000342059312E3538310A4E3736302058333E
:105820002E3437392059312E3539320A4E37363534
:105830002058332E3435312059312E3539380A4E1F
:105840003737302058332E3338372059312E3632FF
:10585000360A4E3737352058332E333930205931F8
:105860002E3633360A4E3738302058332E35333201
:105870002059312E3630320A4E3738352058332EE3
:105880003630312059312E3539370A4E37393020EC
:1058900058332E3636382059312E3539380A4E379E
:1058A00039352058332E3738322059312E3631329F
:1058B0000A4E3830302058332E3739342059312EA3
:1058C0003631380A4E3830352058332E38363820A5
:1058D00059312E3633360A4E3831302058332E396E
:1058E00031382059312E3635350A4E383135205869
:1058F000332E3934352059312E3636370A4E383268
:10590000302058332E3936342059312E3638350A66
:105910004E3832352058332E3936372059312E360D
:1059200038350A4E3833302058332E393734205921
:10593000312E3639390A4E3833352058332E39381E
:10594000342059312E3732350A4E3834302058330E
:105950002E3938342059312E3735380A4E383435FF
:105960002058332E3937302059312E3739300A4EEE
:105970003835302058332E3934352059312E3831CE
:10598000370A4E3835352058332E393138205931C1
:105990002E3832360A4E3836302058332E383931C8
:1059A0002059312E3832370A4E3836352058332EAA
:1059B0003834322059312E3830390A4E38373020B9
:1059C00058332E3739382059312E3738340A4E386B
:1059D00037352058332E3734362059312E37373269
:1059E0000A4E3838302058332E3639382059312E67
:1059F0003736340A4E3838352058332E3633352072
:105A000059312E3736360A4E3839302058332E3534
:105A100035332059312E3738350A4E38393520582C
:105A2000332E3437382059312E3832300A4E39303F
:105A3000302058332E3430392059312E3836340A3C
:105A40004E3930352058332E3334352059312E39E4
:105A500031380A4E3931302058332E3236342059FD
:105A6000322E3032330A4E3931352058332E32340B
:105A7000382059322E3035310A4E393230205833E1
:105A80002E3234302059322E3038310A4E393235E8
:105A90002058332E3331362059322E3038360A4EC4
:105AA0003933302058332E3339302059322E3130AB
:105AB000340A4E3933352058332E3431342059329C
:105AC0002E3132310A4E3934302058332E343331AE
:105AD0002059322E3135330A4E3934352058332E81
