:100000000C94E7350C9408360C9408360C9408369A
:100010000C9408360C9408360C9408360C94083668
:100020000C9408360C9408360C9408360C94947F83
:100030000C9408360C9408360C94387B0C940836D3
:100040000C9408360C9408360C9408360C94083638
:100050000C9408360C9408360C9408360C94083628
:100060000C9408360C941A830C94CA820C940836AB
:100070000C94FE850C949E850C94DC850C940836BB
:100080000C94D17F0C9408360C9408360C940836E6
:100090000C9408360C9408360C9408360C940836E8
:1000A0000C9408360C9408360C9408360C94066AA6
:1000B0000C946E6A0C9408360C9408360C94CD7A25
:1000C0000C9408360C9408360C9408360C940836B8
:1000D0000C9408360C9408360C9408360C940836A8
:1000E0000C9462890C9408360C9408360C940836EB
:1000F0000C9408360C9408360C9408360C94083688
:100100000C94EC690C94546A0C94D2690C943A6A7D
:100110000C9408360C9408360C9408360C94083667
:100120000C9408360C9408360C9408360C94083657
:100130000C9408360C94F77A0C9408360C94083614
:100140000C9408360C9408360C9408360C94083637
:100150000C9408360C9408360C9458890C94083684
:100160000C9408360C9408360C9408360C94083617
:100170000C9408360C9408360C9408360C94083607
:100180000C9408360C9408360C9408360C940836F7
:100190000C9408360C9408360C9408360C940836E7
:1001A0000C94206A0C94886A0C9408360C940836D7
:1001B0000C94BE7D0C9408360C9408360C940836CA
:1001C0000C9408360C9408360C9408360C940836B7
:1001D0000C9408360C9408360C9408360C940836A7
:1001E0000C9408360C940836AC66C166D666646911
:1001F00064692E6649646469EB6600671567596730
:10020000A6653F676469436664692A675866216624
:100210006469646964696D6682669766084AD73B5B
:100220003BCE016E84BCBFFDC12F3D6C74319ABDC5
:1002300056833DDA3D00C77F11BED9E4BB4C3E91E9
:100240006BAAAABE000000803F05A84CCDB2D44ED8
:10025000B93836A9020C50B9918688083CA6AAAADA
:100260002ABE000000803F07634236B79BD8A71A1A
:1002700039685618AEBAAB558C1D3CB7CC5763BD28
:100280006DEDFD753EF6177231BF000000803F082E
:10029000000000BE922449123EABAAAA2ABECDCCD1
:1002A000CC4C3E00000080BEABAAAAAA3E000000D3
:1002B00000BF000000803F0000000000084178D32C
:1002C000BB4387D1133D190E3CC3BD4282AD2B3ECB
:1002D00068EC8276BED98FE1A93E4C80EFFFBE016B
:1002E000C4FF7F3F00000000006E616E00696E6613
:1002F000007379730066620000000007A620D94BE6
:100300000B474646FE368F82B84373797300667694
:100310000000000007C220D94B0B47464602373386
:1003200033733F7379730068760000000007E020A4
:10033000D94B0B47C45006370000E0407379730077
:1003400069640000000004FE20814BFE534646EE27
:100350003300000000000000006E000000000001FB
:1003600012211F4BE6466F46E1220000000000000C
:1003700000006C696E6500000112211F4BB4506FC4
:1003800046E1220000000000000000666565640090
:1003900000002621BC4D884D4646EE33000000008B
:1003A00000000000737461740000003E21814B4620
:1003B000554646EE3300000000000000006D61630A
:1003C000730000005721814B38554646EE3300003C
:1003D0000000000000006379637300000070218159
:1003E0004B2A554646EE3300000000000000006D29
:1003F0006F74730000008921814B1C554646EE3313
:100400000000000000000000686F6C64000000A2A3
:1004100021814B0E554646EE3300000000000000DF
:100420000076656C00000000BB21BC4D9350464631
:10043000EE330000000000000000756E69740000DB
:1004400000D221814B00554646EE330000000000EB
:10045000000000636F6F72000000EB21814BF254CB
:100460004646EE3300000000000000006D6F6D6F27
:100470000000000422814BE4544646EE33000000A5
:100480000000000000706C616E0000001D22814BB6
:10049000D6544646EE3300000000000000007061B4
:1004A00074680000003622814BC8544646EE330083
:1004B00000000000000000646973740000004F2217
:1004C000814BBA544646EE330000000000000000A5
:1004D00066726D6F0000006822814BAC544646EE98
:1004E00033000000006D706F006D706F78000000C9
:1004F0008122514F7E504646EE33000000006D7061
:100500006F006D706F790000008122514F7E504660
:1005100046EE33000000006D706F006D706F7A0062
:1005200000008122514F7E504646EE33000000000D
:100530006D706F006D706F610000008122514F7E01
:10054000504646EE33000000006D706F006D706F16
:10055000620000008122514F7E504646EE3300007B
:1005600000006D706F006D706F630000008122519C
:100570004F7E504646EE3300000000706F730070EF
:100580006F73780000009B22514F69504646EE334E
:1005900000000000706F7300706F73790000009BA3
:1005A00022514F69504646EE3300000000706F73D1
:1005B00000706F737A0000009B22514F69504646CD
:1005C000EE3300000000706F7300706F7361000005
:1005D000009B22514F69504646EE330000000070E8
:1005E0006F7300706F73620000009B22514F69505F
:1005F0004646EE3300000000706F7300706F736347
:100600000000009B22514F69504646EE3300000027
:10061000006F6673006F667378000000B122514F5F
:1006200054504646EE33000000006F6673006F665C
:100630007379000000B122514F54504646EE33000A
:100640000000006F6673006F66737A000000B122CD
:10065000514F54504646EE33000000006F66730061
:100660006F667361000000B122514F54504646EE50
:1006700033000000006F6673006F66736200000055
:10068000B122514F54504646EE33000000006F66D1
:1006900073006F667363000000B122514F545046DF
:1006A00046EE3300000000686F6D00686F6D6500F6
:1006B0000000CA22814B9E544350EE3300000000DC
:1006C000686F6D00686F6D78000000CA22514FC1DD
:1006D000464646253B00000000686F6D00686F6D60
:1006E00079000000CA22514FC1464646263B000011
:1006F0000000686F6D00686F6D7A000000CA2251BB
:100700004FC1464646273B00000000686F6D0068F9
:100710006F6D61000000CA22514FC1464646283B1A
:1007200000000000686F6D00686F6D62000000CA15
:1007300022514FC1464646293B00000000686F6DBC
:1007400000686F6D63000000CA22514FC1464646E3
:100750002A3B00000000000000007372000000004F
:1007600000DF2240503C502256EE330000000000D3
:1007700000000071720000000000E0221F4B2550B5
:100780004646EE33000000000000000072780000D2
:10079000000000E7221F4B0E504646EE33000000DB
:1007A00000000000006D736700000000EE22814B26
:1007B000BC464646EE3300000000000000007465B1
:1007C0007374000000DF222B470B6CCA7EF23300EB
:1007D0000000000000000064656661000000DF2288
:1007E0002B47D96BAC51EE33000000000000000035
:1007F000626F6F74000000DF222B47A76B4646EE46
:1008000033000000000000000068656C700000000C
:10081000DF222B473D6C4646EE330000000000000F
:10082000000068000000000000DF222B473D6C46FE
:1008300046EE330000000031000000316D61000021
:100840000003F222B04AC146484679380000000051
:1008500031000000317361000000031C23414A0B8A
:1008600047F54E7D386666E63F3100000031747210
:10087000000000033B23054D884DE94E8138F628E2
:10088000124231000000316D69000000036423B0A2
:100890004AC1463C597A380000004131000000311D
:1008A000706F000000038923B04AC146D54F7B38E2
:1008B000000000003100000031706D00000003A84E
:1008C00023B04AC14648467C380000803F320000D1
:1008D00000326D6100000003F222B04AC146484672
:1008E00089380000803F3200000032736100000050
:1008F000031C23414A0B47F54E8D386666E63F32AE
:10090000000000327472000000033B23054D884D47
:10091000E94E9138F628124232000000326D69002B
:100920000000036423B04AC1463C598A38000000E5
:10093000413200000032706F000000038923B04A8A
:10094000C146D54F8B380000803F32000000327026
:100950006D00000003A823B04AC14648468C380009
:1009600000803F33000000336D6100000003F2227D
:10097000B04AC146484699380000004033000000A4
:10098000337361000000031C23414A0B47F54E9D61
:10099000386666E63F3300000033747200000003DF
:1009A0003B23054D884DE94EA1380000A03F3300A0
:1009B0000000336D69000000036423B04AC1463C67
:1009C000599A38000000413300000033706F000076
:1009D00000038923B04AC146D54F9B380000000070
:1009E0003300000033706D00000003A823B04AC13B
:1009F0004648469C380000803F34000000346D615A
:100A000000000003F222B04AC1464846A93800005F
:100A1000404034000000347361000000031C234197
:100A20004A0B47F54EAD386666E63F3400000034A9
:100A30007472000000033B23054D884DE94EB13828
:100A40000000344334000000346D6900000003648A
:100A500023B04AC1463C59AA380000004134000086
:100A60000034706F000000038923B04AC146D54F9F
:100A7000AB38000000003400000034706D0000004E
:100A800003A823B04AC1464846AC380000803F78EE
:100A900000000078616D00000003CF23C849705446
:100AA000C258B9380000803F7800000078766D00A9
:100AB000000003EB23054D884DBE4CBE3800007A84
:100AC0004678000000786672000000031324054D8C
:100AD000884DBE4CBA3800007A4678000000787421
:100AE0006D000000033B24054D884DBE4CC238000C
:100AF000005C4378000000786A6D000000035D240C
:100B0000054D884DBE4CC638F902954F780000005F
:100B1000786A64000000038324054D884DBE4CCAEA
:100B2000380AD7233C7800000078736E0000000379
:100B3000BC24B04AC1462A4ED73D0000803F780011
:100B4000000078737800000003DC24B04AC1462A14
:100B50004ED83D0000000078000000787376000059
:100B60000003FC24054D884DBE4CD23800803B4527
:100B700078000000786C76000000032325054D887E
:100B80004DBE4CD6380000C84278000000786C6238
:100B9000000000034925054D884DBE4CDA380000A1
:100BA000A04178000000787A62000000036A250501
:100BB0004D884DBE4CDE3800004040780000007883
:100BC0006A68000000038A25054D884DBE4CE23856
:100BD000F902954F7900000079616D00000003CFA4
:100BE00023C8497054C258E6380000803F7900009D
:100BF0000079766D00000003EB23054D884DBE4C57
:100C0000EB3800007A467900000079667200000037
:100C1000031324054D884DBE4CE73800007A467911
:100C200000000079746D000000033B24054D884DE1
:100C3000BE4CEF3800005C4379000000796A6D001B
:100C40000000035D24054D884DBE4CF338F9029534
:100C50004F79000000796A64000000038324054D89
:100C6000884DBE4CF7380AD7233C790000007973D1
:100C70006E00000003BC24B04AC1462A4ED93D0094
:100C800000803F7900000079737800000003DC24C5
:100C9000B04AC1462A4EDA3D00000000790000004B
:100CA00079737600000003FC24054D884DBE4CFF8F
:100CB0003800803B4579000000796C760000000325
:100CC0002325054D884DBE4C03390000C8427900EC
:100CD0000000796C62000000034925054D884DBE77
:100CE0004C07390000A04179000000797A620000C9
:100CF00000036A25054D884DBE4C0B39000040406D
:100D000079000000796A68000000038A25054D8893
:100D10004DBE4C0F39F902954F7A0000007A616D93
:100D200000000003CF23C8497054C2581339000093
:100D3000803F7A0000007A766D00000003EB230507
:100D40004D884DBE4C1839000048447A0000007AA6
:100D50006672000000031324054D884DBE4C143903
:100D6000000048447A0000007A746D000000033BE4
:100D700024054D884DBE4C1C390000C8427A000045
:100D8000007A6A6D000000035D24054D884DBE4C5D
:100D9000203920BC3E4C7A0000007A6A64000000D2
:100DA000038324054D884DBE4C24390AD7233C7A51
:100DB0000000007A736E00000003BC24B04AC146F4
:100DC0002A4EDB3D000000007A0000007A737800B4
:100DD000000003DC24B04AC1462A4EDC3D000080FE
:100DE0003F7A0000007A737600000003FC24054D72
:100DF000884DBE4C2C39000048447A0000007A6CC3
:100E000076000000032325054D884DBE4C30390087
:100E100000C8427A0000007A6C6200000003492595
:100E2000054D884DBE4C34390000A0417A000000C9
:100E30007A7A62000000036A25054D884DBE4C3861
:100E400039000020417A0000007A6A68000000033F
:100E50008A25054D884DBE4C3C3920BC3E4C610076
:100E6000000061616D00000003CF23C8497054C2C7
:100E70005840390000803F6100000061766D00003D
:100E80000003EB23414A0B479946453900606A4706
:100E900061000000616672000000031324414A0BE8
:100EA000479946413900803B476100000061746DFD
:100EB000000000033B24414A0B4799464939000092
:100EC000C84361000000616A6D000000035D2441B9
:100ED0004A0B4799464D395ED0B25061000000611F
:100EE0006A64000000038324414A0B479946513944
:100EF000CDCCCC3D6100000061726100000003AF09
:100F000025414A0B47994655390000803F61000052
:100F10000061736E00000003BC24B04AC1462A4E33
:100F2000DD3D0000803F610000006173780000003B
:100F300003DC24B04AC1462A4EDE3D0000000061B9
:100F400000000061737600000003FC24414A0B4757
:100F5000994659390080BB4561000000616C7600FC
:100F60000000032325414A0B4799465D3900007A6A
:100F70004461000000616C62000000034925414AA1
:100F80000B47994661390000A04061000000617A7A
:100F900062000000036A25414A0B47994665390003
:100FA00000004061000000616A68000000038A25BB
:100FB000054D884DBE4C69395ED0B25062000000CC
:100FC00062616D00000003CF23C8497054C2586DA0
:100FD00039000000006200000062766D000000032E
:100FE000EB23414A0B479946723900006145620084
:100FF0000000626672000000031324414A0B479907
:10100000466E39000061456200000062746D0000A8
:1010100000033B24414A0B4799467639000080BFC4
:1010200062000000626A6D000000035D24414A0B0B
:101030004799467A398096984B62000000626A644C
:10104000000000038324414A0B4799467E390AD7A2
:10105000233C6200000062726100000003AF254182
:101060004A0B47994682390000803F6300000063C5
:10107000616D00000003CF23C8497054C2589A39EB
:10108000000000006300000063766D00000003EBC9
:1010900023414A0B4799469F390000614563000090
:1010A00000636672000000031324414A0B4799460F
:1010B0009B39000061456300000063746D0000000F
:1010C000033B24414A0B479946A339000080BF6384
:1010D000000000636A6D000000035D24414A0B4775
:1010E0009946A7398096984B63000000636A6400B4
:1010F0000000038324414A0B479946AB390AD723A2
:101100003C6300000063726100000003AF25414AA8
:101110000B479946AF390000803F703100007031B5
:101120006672710003CF25D94B0B479946C739002A
:1011300000000070310000703163736C0003F22511
:10114000D94B0B479946CB390000000070310000A5
:10115000703163736800031626D94B0B479946CF4D
:10116000390000000070310000703163706C0003C2
:101170003A26D94B0B479946D3390000000070310D
:101180000000703163706800036126D94B0B4799EA
:1011900046D7390000000070310000703177736C61
:1011A00000038826D94B0B479946DB390000000025
:1011B0007031000070317773680003AC26D94B0B97
:1011C000479946DF39000000007031000070317728
:1011D000706C0003D026D94B0B479946E3390000C9
:1011E00000007031000070317770680003F726D975
:1011F0004B0B479946E73900000000703100007042
:1012000031706F6600031E2765490B479946EB391D
:10121000000000006735340067353478000003456E
:1012200027364C884DBE4CE9370000000067353446
:1012300000673534790000034527364C884DBE4C95
:10124000ED3700000000673534006735347A000060
:10125000034527364C884DBE4CF13700000000672F
:10126000353400673534610000034527F548884D63
:10127000BE4CF53700000000673534006735346236
:101280000000034527F548884DBE4CF937000000A3
:101290000067353400673534630000034527F5489F
:1012A000884DBE4CFD3700000000673535006735BE
:1012B00035780000034527364C884DBE4C01380078
:1012C00000C842673535006735357900000345278A
:1012D000364C884DBE4C05380000C8426735350095
:1012E0006735357A0000034527364C884DBE4C09DA
:1012F00038000000006735350067353561000003B0
:101300004527F548884DBE4C0D3800000000673574
:101310003500673535620000034527F548884DBE26
:101320004C11380000000067353500673535630023
:1013300000034527F548884DBE4C153800000000D5
:1013400067353600673536780000034527364C8808
:101350004DBE4C19380000C8426735360067353637
:10136000790000034527364C884DBE4C1D380000DF
:10137000A041673536006735367A000003452736C9
:101380004C884DBE4C2138000020C16735360067BF
:101390003536610000034527F548884DBE4C253899
:1013A00000000000673536006735366200000345EF
:1013B00027F548884DBE4C293800000000673536B7
:1013C00000673536630000034527F548884DBE4C5D
:1013D0002D3800000000673537006735377800008A
:1013E000034527364C884DBE4C313800000000675D
:1013F000353700673537790000034527364C884D6F
:10140000BE4C353800000000673537006735377A45
:101410000000034527364C884DBE4C39380000008B
:101420000067353700673537610000034527F54809
:10143000884DBE4C3D3800000000673537006735E9
:1014400037620000034527F548884DBE4C413800FF
:101450000000006735370067353763000003452714
:10146000F548884DBE4C453800000000673538000F
:10147000673538780000034527364C884DBE4C4907
:101480003800000000673538006735387900000300
:101490004527364C884DBE4C4D380000000067355E
:1014A00038006735387A0000034527364C884DBE32
:1014B0004C5138000000006735380067353861004E
:1014C00000034527F548884DBE4C55380000000004
:1014D00067353800673538620000034527F54888CE
:1014E0004DBE4C593800000000673538006735386C
:1014F000630000034527F548884DBE4C5D38000069
:101500000000673539006735397800000345273614
:101510004C884DBE4C6138000000006735390067CB
:101520003539790000034527364C884DBE4C653867
:1015300000000000673539006735397A000003453F
:1015400027364C884DBE4C6938000000006735399D
:1015500000673539610000034527F548884DBE4CCA
:101560006D380000000067353900673539620000CA
:10157000034527F548884DBE4C71380000000067D0
:10158000353900673539630000034527F548884D34
:10159000BE4C753800000000673932006739327878
:1015A0000000014527364C884D46461523000000B3
:1015B0000067393200673932790000014527364C1F
:1015C000884D46461923000000006739320067390C
:1015D000327A0000014527364C884D46461D2300CF
:1015E0000000006739320067393261000001452789
:1015F000F5480B47464621230000000067393200BA
:10160000673932620000014527F5480B47464625F9
:10161000230000000067393200673932630000019F
:101620004527F5480B47464629230000000067324E
:101630003800673238780000016227364C884D4602
:10164000465D2300000000673238006732387900B9
:1016500000016227364C884D464661230000000099
:10166000673238006732387A0000016227364C88CA
:101670004D46466523000000006732380067323867
:10168000610000016227F5480B47464669230000C8
:10169000000067323800673238620000016227F5C7
:1016A000480B4746466D230000000067323800674C
:1016B0003238630000016227F5480B474646712324
:1016C00000000000673330006733307800000162AB
:1016D00027364C884D46467523000000006733309E
:1016E00000673330790000016227364C884D46464A
:1016F000792300000000673330006733307A000040
:10170000016227364C884D46467D23000000006765
:10171000333000673330610000016227F5480B4722
:101720004646812300000000673330006733306293
:101730000000016227F5480B47464685230000005C
:101740000067333000673330630000016227F548DB
:101750000B474646892300000000737973006770C9
:101760006C0000000781279848C14648462337008F
:101770000000007379730067756E00000007B427DE
:101780009848C146484624370000803F737973006B
:1017900067636F00000007E5279848C14648462266
:1017A000370000803F7379730067706100000007A5
:1017B0001A289848C14648462537000000407379EA
:1017C00073006764690000000755289848C14648BF
:1017D000462637000000000000000067630000009C
:1017E0000000DF222B47EE539248EE33000000004A
:1017F000737973006A6100000000078928BC4D8876
:101800004DBE4C1E370024F4497379730063740095
:1018100000000007AD28BC4D884DBE4C16370AD7D6
:10182000233C7379730073740000000007CE28987E
:1018300048C1462A4ED53D00000000737973006907
:10184000630000000007F1289848C1466E4827371A
:101850000000000073797300656300000000071F3B
:10186000299848C14654482837000000007379730E
:10187000006565000000000747299848C1463A48BE
:1018800029370000000073797300657800000000BC
:101890000764299848C14620482A370000803F73D2
:1018A0007973006571000000000785299848C146DA
:1018B00048462C370000000073797300656A000009
:1018C000000007AC299848C14648462B37000080E5
:1018D0003F737973006A760000000007CE299848AC
:1018E000C1463A452F370000A040737973007476E3
:1018F0000000000007EE299848C1469E4530370099
:1019000000804073797300736900000000070E2A9D
:10191000D94BE646FD443D370000484273797300D9
:1019200073760000000007362A9848C14648463CB6
:10193000370000803F7379730062617564000004B2
:10194000582A9848C146DC5931370000A0400000B1
:1019500000006D740000000003782ABC4D0B47990D
:10196000461A3700409C45000000006D6C000000E6
:1019700000039B2ABC4D884DBE4C0E370AD7A33DB1
:10198000000000006D610000000003BB2ABC4D8810
:101990004DBE4C1237CDCCCC3D00000000657168C7
:1019A00000000003DA2A9848C14648462D37000057
:1019B000A0410000000065716C00000003DA2A9865
:1019C00048C14648462E3700000040000000007322
:1019D000653030000002DF222B47E6466F46413774
:1019E000000000000000000073653031000002DFDD
:1019F000222B47E6466F46433700000000000000F8
:101A00000073653032000002DF222B47E6466F4646
:101A1000453700000000000000007365303300000F
:101A200002DF222B47E6466F4647370000000000E2
:101A300000000073653034000002DF222B47E646C9
:101A40006F46493700000000000000007365303524
:101A5000000002DF222B47E6466F464B37000000AE
:101A6000000000000073653036000002DF222B47C3
:101A7000E6466F464D370000000000000000736529
:101A80003037000002DF222B47E6466F464F370013
:101A90000000000000000073653038000002DF2203
:101AA0002B47E6466F46513700000000000000005B
:101AB00073653039000002DF222B47E6466F46533C
:101AC00037000000000000000073653130000002A4
:101AD000DF222B47E6466F46553700000000000026
:101AE000000073653131000002DF222B47E6466FAC
:101AF00046573700000000000000007365313200D7
:101B00000002DF222B47E6466F46593700000000EF
:101B10000000000073653133000002DF222B47E62E
:101B2000466F465B3700000000000000007365311F
:101B300034000002DF222B47E6466F465D37000087
:101B400000000000000073653135000002DF222B29
:101B500047E6466F465F3700000000000000007354
:101B6000653136000002DF222B47E6466F466137BB
:101B7000000000000000000073653137000002DF44
:101B8000222B47E6466F4663370000000000000046
:101B90000073653138000002DF222B47E6466F46AE
:101BA0006537000000000000000073653139000057
:101BB00002DF222B47E6466F466737000000000031
:101BC00000000073653230000002DF222B47E6463A
:101BD0006F46693700000000000000007365323175
:101BE000000002DF222B47E6466F466B37000000FD
:101BF000000000000073653232000002DF222B4734
:101C0000E6466F466D370000000000000000736577
:101C10003233000002DF222B47E6466F466F370063
:101C20000000000000000073797300000000DF2254
:101C30002B47CE558551EE33000000000000000018
:101C400070310000000000DF222B47CE558551EE99
:101C50003300000000000000003100000000000020
:101C6000DF222B47CE558551EE33000000000000E7
:101C7000000032000000000000DF222B47CE558517
:101C800051EE3300000000000000003300000000AF
:101C90000000DF222B47CE558551EE3300000000B7
:101CA0000000000034000000000000DF222B47CEBF
:101CB000558551EE33000000000000000078000060
:101CC00000000000DF222B47CE558551EE33000087
:101CD00000000000000079000000000000DF222B5F
:101CE00047CE558551EE3300000000000000007A19
:101CF000000000000000DF222B47CE558551EE3357
:101D0000000000000000000061000000000000DF93
:101D1000222B47CE558551EE330000000000000015
:101D20000062000000000000DF222B47CE558551E5
:101D3000EE3300000000000000006300000000001F
:101D400000DF222B47CE558551EE33000000000006
:101D500000000067353400000000DF222B47CE551D
:101D60008551EE33000000000000000067353500AB
:101D7000000000DF222B47CE558551EE33000000D6
:101D8000000000000067353600000000DF222B470E
:101D9000CE558551EE33000000000000000067358D
:101DA0003700000000DF222B47CE558551EE33006F
:101DB0000000000000000067353800000000DF224E
:101DC0002B47CE558551EE33000000000000000087
:101DD00067353900000000DF222B47CE558551EED4
:101DE00033000000000000000067393200000000EE
:101DF000DF222B47CE558551EE3300000000000056
:101E0000000067323800000000DF222B47CE5585E6
:101E100051EE330000000000000000673330000086
:101E20000000DF222B47CE558551EE330000000025
:101E3000000000006D706F00000000DF222B47CE15
:101E4000558551EE330000000000000000706F73F4
:101E500000000000DF222B47CE558551EE330000F5
:101E60000000000000006F667300000000DF222BFE
:101E700047CE558551EE3300000000000000006899
:101E80006F6D00000000DF222B47CE558551EE33E9
:101E900000000000000000006D000000000000DFF6
:101EA000222B47D5574646EE3300000000000000C5
:101EB0000071000000000000DF222B477B574646E0
:101EC000EE3300000000000000006F000000000082
:101ED00000DF222B4703574646EE33000000000088
:101EE00000000024000000000000DF222B471B58E8
:101EF0004646EE3300000000DE2AE02AE52AEB2AFF
:101F0000F12AF72AFE2A2A2A2A204E4F544943450D
:101F1000202A2A2A205265737474696E67206261D0
:101F20007564207261746520746F202553002A2A1D
:101F30002A205741524E494E47202A2A2A20496CCE
:101F40006C6567616C2062617564207261746520E4
:101F500073706563696669656400052B092B0D2B39
:101F60002A2A2A205741524E494E47202A2A2A20FF
:101F7000556E737570706F7274656420726F7461E2
:101F800072792061786973206D6F64652E204178C5
:101F900069732044495341424C4544002A2A2A206F
:101FA0005741524E494E47202A2A2A20556E7375B2
:101FB00070706F72746564206C696E656172206107
:101FC000786973206D6F64652E20417869732044B1
:101FD000495341424C454400122B1D2B282B342BD6
:101FE0002A2A2A205741524E494E47202A2A2A207F
:101FF0004E6F6E2D7374616E64617264206D6963DF
:10200000726F737465702076616C7565003D2B4747
:102010002B4D2B7E2B962BB32BD32BD32BE92BFFC6
:102020002B0E2C1D2C2C2C492C5B2C742C952CBC91
:102030002CDC2CF62C102D2A2D442D5E2D782D8A8B
:102040002DA02DA42DA92DAE2DB42DB92DBE2DC2A0
:102050002DC72DCB2DD32DDA2DE02DED2DF32DF920
:102060002DFE2D022E0F2E152E1A2E1E2E222E275D
:102070002E2D2E332E3A2E2C000A0025733A25736E
:102080000025733A25312E30660025733A25312E0E
:102090003366002C000A0025730025312E306600BF
:1020A00025312E3366005B66625D20206669726DA5
:1020B00077617265206275696C642531382E3266ED
:1020C0000A005B66765D20206669726D77617265D5
:1020D0002076657273696F6E2531362E32660A007E
:1020E0005B68765D20206861726477617265207636
:1020F000657273696F6E2531362E32660A005B6930
:10210000645D202054696E7947204944253330733B
:102110000A004C696E65206E756D6265723A2531F4
:10212000302E30660A004665656420726174653A37
:102130002531362E336625532F6D696E0A004D61A9
:102140006368696E652073746174653A202020208D
:1021500020202025730A00526177206D6163686931
:102160006E652073746174653A20202025730A001F
:102170004379636C652073746174653A2020202074
:10218000202020202025730A004D6F74696F6E2077
:1021900073746174653A202020202020202025734C
:1021A0000A0046656564686F6C64207374617465C9
:1021B0003A20202020202025730A0056656C6F638A
:1021C0006974793A2531372E336625532F6D696E40
:1021D0000A00556E6974733A2020202020202020A8
:1021E0002020202020202025730A00436F6F726476
:1021F000696E6174652073797374656D3A2020206F
:1022000025730A004D6F74696F6E206D6F64653AB7
:1022100020202020202020202025730A00506C61DF
:102220006E653A2020202020202020202020202001
:10223000202025730A0050617468204D6F64653A50
:10224000202020202020202020202025730A004448
:10225000697374616E6365206D6F64653A20202038
:102260002020202025730A00466565642072617471
:1022700065206D6F64653A20202020202025730A98
:10228000002563206D616368696E6520706F736EF1
:102290003A2531312E336625530A00256320706FAD
:1022A000736974696F6E3A2531352E336625530A8A
:1022B00000256320776F726B206F66667365743AD2
:1022C0002531322E336625530A0025632061786953
:1022D0007320686F6D65643A25392E30660A0000F8
:1022E00071723A25640A0072783A25640A002573EF
:1022F0000A005B257325735D206D2573206D617069
:1023000020746F206178697325313564205B303D1E
:10231000582C20313D592E2E2E5D0A005B25732549
:10232000735D206D2573207374657020616E676C1A
:10233000652532302E336625530A005B25732573DD
:102340005D206D25732074726176656C20706572F6
:10235000207265766F6C7574696F6E25392E3366E1
:1023600025530A005B257325735D206D2573206D51
:102370006963726F737465707325313664205B31E5
:102380002C322C342C385D0A005B257325735D20BC
:102390006D257320706F6C617269747925313864B2
:1023A000205B302C315D0A005B257325735D206D49
:1023B000257320706F776572206D616E6167656D42
:1023C000656E7425313064205B302C315D0A005B12
:1023D000257325735D2025732061786973206D6FE7
:1023E0006465253138642025530A005B2573257305
:1023F0005D2025732076656C6F63697479206D614B
:1024000078696D756D2531352E336625532F6D69CD
:102410006E0A005B257325735D2025732066656554
:102420006472617465206D6178696D756D253135F3
:102430002E336625532F6D696E0A005B2573257355
:102440005D2025732074726176656C206D617869FA
:102450006D756D2531372E336625530A005B257364
:1024600025735D202573206A65726B206D61786924
:102470006D756D2531352E306625532F6D696E5E75
:10248000330A005B257325735D202573206A756E02
:102490006374696F6E20646576696174696F6E2517
:1024A00031342E3466255320286C617267657220A2
:1024B000697320666173746572290A005B25732550
:1024C000735D20257320737769746368206D696E6E
:1024D00025313764205B302D345D0A005B25732580
:1024E000735D20257320737769746368206D61784C
:1024F00025313764205B302D345D0A005B25732560
:10250000735D202573207365617263682076656C46
:102510006F636974792531362E336625532F6D69C3
:102520006E0A005B257325735D202573206C617432
:1025300063682076656C6F636974792531372E3353
:102540006625532F6D696E0A005B257325735D2028
:102550002573206C61746368206261636B6F6666CB
:102560002531382E336625530A005B257325735DAC
:10257000202573207A65726F206261636B6F6666D7
:102580002531392E336625530A005B257325735D8B
:10259000202573206A65726B20686F6D696E6725F0
:1025A00031362E306625532F6D696E5E330A005B1F
:1025B000257325735D20257320726164697573200E
:1025C00076616C75652532302E346625530A005BC2
:1025D00070316672715D2070776D206672657175FD
:1025E000656E63792020202531352E336620487AA8
:1025F0000A005B703163736C5D2070776D206377C8
:10260000207370656564206C6F202531352E33662C
:102610002052504D0A005B70316373685D20707703
:102620006D206377207370656564206869202531AB
:10263000352E33662052504D0A005B703163706C4A
:102640005D2070776D206377207068617365206C02
:102650006F202531352E3366205B302E2E315D0AFA
:10266000005B70316370685D2070776D2063772048
:102670007068617365206869202531352E336620C6
:102680005B302E2E315D0A005B703177736C5D20FC
:1026900070776D20636377207370656564206C6F5D
:1026A0002531352E33662052504D0A005B7031774C
:1026B00073685D2070776D20636377207370656544
:1026C000642068692531352E33662052504D0A004A
:1026D0005B703177706C5D2070776D20636377205D
:1026E0007068617365206C6F2531352E3366205B11
:1026F000302E2E315D0A005B70317770685D20707E
:10270000776D206363772070686173652068692541
:1027100031352E3366205B302E2E315D0A005B7022
:1027200031706F665D2070776D2070686173652011
:102730006F66662020202531352E3366205B302ED3
:102740002E315D0A005B257325735D2025732025DE
:1027500073206F66667365742532302E3366255399
:102760000A005B257325735D202573202573206C7B
:102770006F636174696F6E2531382E336625530A95
:10278000005B67706C5D2064656661756C742067C2
:10279000636F646520706C616E6525313064205B09
:1027A000303D4731372C313D4731382C323D4731B0
:1027B000395D0A005B67756E5D2064656661756CE6
:1027C000742067636F646520756E697473206D6F24
:1027D0006465253564205B303D4732302C313D4700
:1027E00032315D0A005B67636F5D20646566617509
:1027F0006C742067636F646520636F6F726420730D
:10280000797374656D253364205B312D362028473C
:1028100035342D473539295D0A005B6770615D20CD
:1028200064656661756C742067636F6465207061B0
:10283000746820636F6E74726F6C253364205B3034
:102840003D4736312C313D4736312E312C323D4714
:1028500036345D0A005B6764695D20646566617596
:102860006C742067636F64652064697374616E6360
:1028700065206D6F6465253264205B303D473930DB
:102880002C313D4739315D0A005B6A615D20206A69
:10289000756E6374696F6E20616363656C657261E8
:1028A00074696F6E25382E306625530A005B637499
:1028B0005D202063686F7264616C20746F6C657258
:1028C000616E63652531362E336625530A005B73CE
:1028D000745D20207377697463682074797065254E
:1028E000313864205B303D4E4F2C313D4E435D0A04
:1028F000005B69635D202069676E6F7265204352DB
:10290000206F72204C46206F6E205258253864206C
:102910005B302C313D43522C323D4C465D0A005B0E
:1029200065635D2020657870616E64204C4620747C
:102930006F2043524C46206F6E2054582536642039
:102940005B302C315D0A005B65655D2020656E6142
:10295000626C65206563686F25313864205B302CBC
:10296000315D0A005B65785D2020656E61626C6593
:1029700020786F6E20786F666625313464205B3076
:102980002C315D0A005B65715D2020717565756590
:10299000207265706F727420766572626F736974ED
:1029A00079253764205B302D325D0A005B656A5DF6
:1029B0002020656E61626C65206A736F6E206D6F9A
:1029C000646525313364205B302C315D0A005B6A1D
:1029D000765D20206A736F6E20766572626F736910
:1029E000747925313564205B302D355D0A005B74C8
:1029F000765D20207465787420766572626F7369E5
:102A0000747925313564205B302D335D0A005B73AA
:102A1000695D202073746174757320696E746572CA
:102A200076616C2531342E3066206D73205B303D2D
:102A30006F66665D0A005B73765D20207374617457
:102A4000757320766572626F7369747925313364AA
:102A5000205B302D325D0A005B626175645D20553C
:102A6000534220626175642072617465253135645A
:102A7000205B302D365D0A005B6D745D20206D6932
:102A80006E207365676D656E742074696D652531A0
:102A9000332E306620755365630A005B6D6C5D20D4
:102AA000206D696E206C696E65207365676D656E5B
:102AB000742531372E336625530A005B6D615D2026
:102AC000206D696E20617263207365676D656E7439
:102AD0002531382E336625530A0025640A0030005C
:102AE000393630300031393230300033383430301C
:102AF0000035373630300031313532303000323346
:102B0000303430300020696E00206D6D0020646527
:102B100067005B64697361626C65645D005B73741C
:102B2000616E646172645D005B696E68696269749C
:102B300065645D005B7261646975735D004E6F74FE
:102B400020486F6D656400486F6D656400473934D7
:102B5000202D20756E6974732D7065722D6D696EF0
:102B6000757465206D6F64652028692E652E20665A
:102B700065656472617465206D6F6465290047390D
:102B800033202D20696E76657273652074696D65DA
:102B9000206D6F646500473930202D206162736FAE
:102BA0006C7574652064697374616E6365206D6F04
:102BB000646500473931202D20696E6372656D654B
:102BC0006E74616C2064697374616E6365206D6FEF
:102BD000646500473631202D206578616374207369
:102BE000746F70206D6F646500473634202D20634C
:102BF0006F6E74696E756F7573206D6F64650047D5
:102C00003137202D20585920706C616E6500473196
:102C100038202D20585A20706C616E65004731397C
:102C2000202D20595A20706C616E6500473020209D
:102C30002D206C696E6561722074726176657273A5
:102C40006520287365656B2900473120202D206C95
:102C5000696E656172206665656400473220202DCB
:102C600020636C6F636B77697365206172632066A4
:102C700065656400473320202D20636F756E746591
:102C80007220636C6F636B77697365206172632078
:102C90006665656400473830202D2063616E63658A
:102CA0006C206D6F74696F6E206D6F646520286E87
:102CB0006F6E65206163746976652900473533203E
:102CC0002D206D616368696E6520636F6F72646942
:102CD0006E6174652073797374656D0047353420B7
:102CE0002D20636F6F7264696E61746520737973F0
:102CF00074656D203100473535202D20636F6F726C
:102D000064696E6174652073797374656D20320037
:102D1000473536202D20636F6F7264696E6174656C
:102D20002073797374656D203300473537202D206B
:102D3000636F6F7264696E61746520737973746513
:102D40006D203400473538202D20636F6F72646921
:102D50006E6174652073797374656D203500473535
:102D600039202D20636F6F7264696E617465207302
:102D7000797374656D203600473230202D20696EDE
:102D800063686573206D6F646500473231202D20C4
:102D90006D696C6C696D65746572206D6F6465003A
:102DA0004F66660053796E6300506C616E00446537
:102DB00063656C00486F6C640053746F70005275EB
:102DC0006E00486F6C64004F6666005374617274E5
:102DD000656400486F6D696E670050726F626500D0
:102DE000496E697469616C697A696E6700526573CE
:102DF0006574004379636C650053746F7000456EB1
:102E00006400496E697469616C697A696E67005221
:102E1000657365740053746F7000456E640052757D
:102E20006E00486F6C640050726F62650043796396
:102E30006C6500486F6D696E67004A6F67006D6D65
:102E400000696E63680074696E7967205B25535D65
:102E5000206F6B3E200074696E7967205B25535D9F
:102E6000206572726F723A2025532025730A00453F
:102E70006E64206F6620636F6D6D616E642066699D
:102E80006C650A00062F082F0A2F0C2F2A2A2A20E9
:102E90005741524E494E47202A2A2A20486F6D69D1
:102EA0006E67206572726F723A20255320617869CF
:102EB000732073657474696E677320696E636F72D3
:102EC00072656374002A2A2A205741524E494E47A0
:102ED000202A2A2A20486F6D696E67206572726FFA
:102EE000723A205370656369666965642061786928
:102EF00073286573292063616E6E6F74206265208C
:102F0000686F6D656400580059005A004100456EB5
:102F10007465722024626F6F743D3120746F206578
:102F20006E7465722074686520626F6F74206C6FB8
:102F3000616465722E0A000A0A0A2323232320549F
:102F4000696E794720424F4F54204C4F41444552BF
:102F50002048656C7020232323230A000A466F72E1
:102F60002064657461696C65642054696E794720DA
:102F7000696E666F207365653A2068747470733A81
:102F80002F2F6769746875622E636F6D2F73796E6A
:102F9000746865746F732F54696E79472F77696B06
:102FA000692F0A466F7220746865206C61746573BE
:102FB00074206669726D77617265207365653A2069
:102FC00068747470733A2F2F6769746875622E6322
:102FD0006F6D2F73796E746865746F732F54696E9B
:102FE00079470A506C65617365206C6F6720616E6C
:102FF00079206973737565732061742068747470C7
:103000003A2F2F7777772E73796E746865746F73A4
:103010002E636F6D2F666F72756D730A48617665EA
:103020002066756E0A00456E7465722024646566BC
:1030300061756C74733D3120746F207265736574B3
:10304000207468652073797374656D20746F2074C3
:10305000686520666163746F727920646566617566
:103060006C742076616C7565732E0A5468697320E0
:1030700077696C6C206F7665727772697465206110
:103080006E79206368616E67657320796F7520685B
:10309000617665206D6164652E0A000A0A0A2323A1
:1030A00023232054696E794720524553544F52458B
:1030B0002044454641554C54532048656C702023AC
:1030C0002323230A00496E766F6B652073656C6657
:1030D000207465737420627920656E746572696E00
:1030E000672024746573743D4E207768657265208F
:1030F0004E206973206F6E65206F663A0A20202487
:10310000746573743D312020686F6D696E6720743B
:1031100065737420202028796F75206D7573742075
:103120007472697020686F6D696E67207377697457
:1031300063686573290A202024746573743D322006
:1031400020736D6F6B6520746573740A202024747E
:103150006573743D332020737175617265207465E9
:103160007374202020286120736572696573206F55
:10317000662073717561726573290A202024746555
:1031800073743D3420206172632074657374202051
:103190002020202028736F6D65206C617267652088
:1031A000636972636C6573290A20202474657374E3
:1031B0003D3520206477656C6C2074657374202025
:1031C0002020286D6F7665732073706163656420BD
:1031D00062792031207365636F6E64206477656C5B
:1031E0006C73290A202024746573743D3620206690
:1031F000656564686F6C6420746573742028656EFF
:10320000746572202120616E64207E20746F2068B6
:103210006F6C6420616E6420726573746172742CCB
:1032200020726573706563746976656C79290A200C
:103230002024746573743D3720204D20636F6465CE
:103240007320746573742020284D20636F64657348
:1032500020696E7465726D696E676C65642077694C
:103260007468206D6F766573290A20202474657355
:10327000743D3820204A534F4E20746573742020CB
:10328000202020286D6F74696F6E20746573742020
:1032900072756E207573696E67204A534F4E2063B6
:1032A0006F6D6D616E6473290A20202474657374D8
:1032B0003D392020696E76657273652074696D658D
:1032C00020746573740A202024746573743D313052
:1032D00020726F74617279206D6F74696F6E2074E3
:1032E0006573740A202024746573743D3131207332
:1032F0006D616C6C206D6F76657320746573740AF4
:10330000202024746573743D313220736C6F7720F4
:103310006D6F76657320746573740A20202474655C
:1033200073743D313320636F6F7264696E617465CD
:103330002073797374656D206F666673657420748D
:1033400065737420284739322C204735342D473592
:1033500039290A000A0A0A232323232054696E7993
:10336000472053454C4620544553542048656C70C3
:1033700020232323230A0045616368202420636FF0
:103380006D6D616E642061626F766520616C736F34
:1033900020646973706C6179732074686520746F40
:1033A0006B656E20666F722065616368207365745B
:1033B00074696E6720696E205B205D2062726163B4
:1033C0006B6574730A546F20766965772073657432
:1033D00074696E677320656E746572206120746F06
:1033E0006B656E3A0A0A2020243C746F6B656E3E52
:1033F0000A0A466F72206578616D706C65202479C9
:10340000667220746F20646973706C6179207468CF
:10341000652059206D61782066656564207261744D
:10342000650A0A546F207570646174652073657451
:1034300074696E677320656E74657220746F6B6556
:103440006E20657175616C732076616C75653A0AE2
:103450000A2020243C746F6B656E3E3D3C76616CA7
:1034600075653E0A0A466F72206578616D706C65FD
:1034700020247966723D38303020746F2073657473
:10348000207468652059206D617820666565642028
:103490007261746520746F20383030206D6D2F6D2F
:1034A000696E7574650A466F7220636F6E66696730
:1034B00075726174696F6E2064657461696C7320E4
:1034C0007365653A2068747470733A2F2F67697456
:1034D0006875622E636F6D2F73796E746865746F93
:1034E000732F54696E79472F77696B692F54696E12
:1034F00079472D436F6E66696775726174696F6E87
:103500000A00546865736520636F6D6D616E647346
:10351000206172652061637469766520666F722030
:10352000636F6E66696775726174696F6E3A0A20BF
:1035300020247379732053686F77207379737465CF
:103540006D202867656E6572616C292073657474DF
:10355000696E67730A2020243120202053686F771A
:10356000206D6F746F7220312073657474696E679B
:103570007320286F72207768617465766572206D9C
:103580006F746F7220796F752077616E7420312CA3
:10359000322C332C34290A20202478202020536810
:1035A0006F77205820617869732073657474696E31
:1035B000677320286F722077686174657665722062
:1035C0006178697320796F752077616E7420782C2B
:1035D000792C7A2C612C622C63290A2020246D20FE
:1035E000202053686F7720616C6C206D6F746F7250
:1035F0002073657474696E67730A2020247120201B
:103600002053686F7720616C6C2061786973207338
:10361000657474696E67730A2020246F202020531C
:10362000686F7720616C6C206F66667365742073B9
:10363000657474696E67730A202024242020205347
:10364000686F7720616C6C2073657474696E677342
:103650000A2020246820202053686F77207468692E
:10366000732068656C702073637265656E0A0A006A
:103670000A0A0A232323232054696E794720434FE3
:103680004E46494755524154494F4E2048656C704B
:1036900020232323230A000A4E6F74653A205469BD
:1036A0006E79472067656E65726174657320617518
:1036B000746F6D61746963207374617475732072C3
:1036C00065706F7274732062792064656661756CD1
:1036D000740A546869732063616E206265206469AE
:1036E0007361626C656420627920656E74657269CD
:1036F0006E67202473693D300A53656520746865E0
:103700002077696B692062656C6F7720666F722025
:103710006D6F72652064657461696C732E0A005464
:103720006865736520636F6D6D616E64732061728F
:1037300065206163746976652066726F6D207468B8
:103740006520636F6D6D616E64206C696E653A0A09
:10375000205E7820202020202020202020202020D3
:1037600052657365742028636F6E74726F6C207875
:1037700029202D20736F66747761726520726573DE
:1037800065740A20203F2020202020202020202097
:103790002020204D616368696E6520706F736974C5
:1037A000696F6E20616E642067636F6465206D6F62
:1037B00064656C2073746174650A202024202020C5
:1037C0002020202020202020202053686F77206197
:1037D0006E642073657420636F6E666967757261CD
:1037E00074696F6E2073657474696E67730A202044
:1037F000212020202020202020202020202046655D
:103800006564686F6C64202D2073746F70206D6F19
:1038100074696F6E20776974686F7574206C6F734C
:10382000696E6720706F736974696F6E0A20207EFD
:1038300020202020202020202020202020437963C9
:103840006C65205374617274202D207265737461ED
:1038500072742066726F6D2066656564686F6C6453
:103860000A20206820202020202020202020202026
:103870002053686F7720746869732068656C7020C6
:1038800073637265656E0A20202468202020202042
:103890002020202020202053686F7720636F6E66E1
:1038A000696775726174696F6E2068656C702073EA
:1038B000637265656E0A202024746573742020206D
:1038C0002020202020204C6973742073656C662DA5
:1038D00074657374730A202024746573742D4E20EC
:1038E00020202020202052756E2073656C662D7478
:1038F000657374204E0A202024686F6D653D312069
:1039000020202020202052756E206120686F6D6974
:103910006E67206379636C650A20202464656661A4
:10392000756C74733D31202020526573746F72651D
:1039300020616C6C2073657474696E677320746F9A
:103940002022666163746F727922206465666175F6
:103950006C74730A000A0A0A232323232054696E15
:1039600079472048656C7020232323230A00863A78
:10397000893A8F3A963A9B3AA43AAF3ABA3AC63A5B
:10398000D23AE03AF73A063B133B1F3B333B403B0E
:10399000433B463B493B4C3B5B3B703B853B943B4D
:1039A000A43BB63BCD3BDD3BEF3BF23BF53BF83B6D
:1039B000FB3BFE3B013C043C073C0A3C0D3C103CFD
:1039C000253C3D3C4F3C683C7E3C943CAC3CC43C7C
:1039D000D63CF43C093D1D3D203D233D263D293D7F
:1039E0002C3D2F3D323D353D463D5A3D6C3D813DA0
:1039F000993DB53DC93DDD3DF83D717200535953C8
:103A000054454D20524541445900496E69746961DD
:103A10006C697A696E6720636F6E6669677320747C
:103A20006F2053686170656F6B6F203337356D6D34
:103A30002070726F66696C65004C6F6164696E67B7
:103A400020636F6E666967732066726F6D204545EF
:103A500050524F4D007B226572223A7B22666222D1
:103A60003A25302E32662C227374223A25642C2299
:103A70006D7367223A222573222C2276616C223ADA
:103A800025647D7D0A004F4B004572726F720045C0
:103A9000616761696E004E6F6F7000436F6D706C8F
:103AA000657465005465726D696E61746564004883
:103AB00061726420726573657400456E64206F6680
:103AC000206C696E6500456E64206F662066696CC7
:103AD000650046696C65206E6F74206F70656E00BE
:103AE0004D61782066696C652073697A6520657818
:103AF000636565646564004E6F2073756368206458
:103B000065766963650042756666657220656D70ED
:103B10007479004275666665722066756C6C004249
:103B200075666665722066756C6C202D2066617402
:103B3000616C00496E697469616C697A696E6700CD
:103B4000313600313700313800313900496E746543
:103B5000726E616C206572726F7200496E7465726C
:103B60006E616C2072616E6765206572726F7200A3
:103B7000466C6F6174696E6720706F696E74206542
:103B800072726F7200446976696465206279207A86
:103B900065726F00496E76616C696420416464727D
:103BA00065737300526561642D6F6E6C792061647A
:103BB000647265737300496E697469616C697A61D6
:103BC00074696F6E206661696C75726500537973F4
:103BD00074656D2073687574646F776E004D656DE4
:103BE0006F727920636F7272757074696F6E0032D4
:103BF0003900333000333100333200333300333493
:103C000000333500333600333700333800333900A2
:103C1000556E7265636F676E697A656420636F6D58
:103C20006D616E6400457870656374656420636FD0
:103C30006D6D616E64206C657474657200426164C0
:103C4000206E756D62657220666F726D61740049D9
:103C50006E7075742065786365656473206D617836
:103C6000206C656E67746800496E707574207661AB
:103C70006C756520746F6F20736D616C6C00496E9C
:103C80007075742076616C756520746F6F206C613F
:103C900072676500496E7075742076616C75652079
:103CA00072616E6765206572726F7200496E707521
:103CB000742076616C756520756E737570706F72A7
:103CC000746564004A534F4E2073796E7461782096
:103CD0006572726F72004A534F4E20696E70757430
:103CE0002068617320746F6F206D616E7920706140
:103CF000697273004A534F4E206F7574707574204B
:103D0000746F6F206C6F6E67004F7574206F662044
:103D10006275666665722073706163650035320096
:103D2000353300353400353500353600353700354C
:103D300038003539005A65726F206C656E6774689B
:103D4000206D6F76650047636F646520626C6F63FA
:103D50006B20736B69707065640047636F646520E6
:103D6000696E707574206572726F720047636F645C
:103D700065206665656472617465206572726F7234
:103D80000047636F6465206178697320776F7264A0
:103D9000206D697373696E670047636F6465206D9A
:103DA0006F64616C2067726F75702076696F6C61EB
:103DB00074696F6E00486F6D696E67206379636C1C
:103DC00065206661696C6564004D6178207472617C
:103DD00076656C206578636565646564004D61781F
:103DE000207370696E646C6520737065656420650E
:103DF0007863656564656400417263207370656310
:103E0000696669636174696F6E206572726F7200B2
:103E1000284D53472A2A2A2A20486F6D696E672049
:103E200054657374205B76315D202A2A2A2A290A78
:103E30006732382E32783079307A300A6D3330007C
:103E4000284D53472A2A2A2A20536D6F6B65205428
:103E5000657374205B76315D202A2A2A2A290A4755
:103E60003030204731372047323120473430204727
:103E7000343920473830204739300A6735350A67EA
:103E800030783079300A473030207832300A783054
:103E90000A7932300A79300A7A2D32300A7A300AB9
:103EA0006132300A61300A47303020783230207970
:103EB0003230207A30206132300A4730302078307A
:103EC000207930207A302061300A47303120663244
:103ED00030302078370A79370A7A2D370A61330A69
:103EE0006735340A6730783079300A6D333000280E
:103EF0004D53472A2A2A2A2053717561726573200F
:103F00004D6F74696F6E2054657374205B76315DFC
:103F1000202A2A2A2A290A67303067313767323146
:103F20006734306734396738306739300A67353578
:103F30000A6730783079300A673078323020287458
:103F40007261766572736520612032306D6D207309
:103F5000717561726520696E205820616E64205908
:103F6000290A7932300A78300A79300A6731783193
:103F7000306635303020286472617720612031301E
:103F80006D6D2073717561726520696E20582061B6
:103F90006E6420592061742046353030290A793109
:103FA000300A78300A79300A67307A2D323020288A
:103FB000747261766572736520612032306D6D2098
:103FC00073717561726520696E205820616E64207E
:103FD0005A290A7832300A7A300A78300A673178FA
:103FE00032307932307A2D323066353030202866E2
:103FF00065656420612032306D6D20646961676F92
:104000006E616C20696E20582C205920616E6420EE
:104010005A290A783079307A300A78343079343055
:104020007A2D34300A78343079307A300A78307921
:1040300034307A2D34300A7834307934307A300A9A
:10404000783079307A2D34300A78307934307A30DB
:104050000A78343079307A2D34300A783079307AF1
:10406000300A6738300A6735340A6730783079307B
:104070000A6D333000284D53472A2A2A2A204172DC
:10408000632054657374205B76315D202A2A2A2AC6
:10409000290A673030673137673231673430673427
:1040A000396738306739300A6735350A6730783014
:1040B00079300A663530300A6732783130792D31FF
:1040C000306931302028435720323730206465670B
:1040D00072656573290A6730783079300A673378FA
:1040E0003130792D31306931302028434357203920
:1040F000302064656772656573290A6730783079A6
:10410000300A6732783230793069313020284357AD
:10411000203138302064656772656573290A67301D
:10412000783079300A67337832307930693130202D
:1041300028434357203138302064656772656573C2
:10414000290A6730783079300A67327830793069F7
:10415000323020284357203336302064656772653B
:104160006573290A67327830793069323020284304
:10417000572033363020616761696E290A6637300F
:104180003020286D73674368616E676520666565DA
:10419000642072617465207768696C6520696E209F
:1041A0004732206D6F74696F6E206D6F6465290AE8
:1041B00067327830793069323020284357203336DF
:1041C00030203372642074696D65290A6732783053
:1041D0007930693230202843572033363020347408
:1041E000682074696D65290A663530300A6733784E
:1041F000307930693230202843435720333630201D
:1042000064656772656573290A6733783079306948
:1042100032302028434357203336302061676169AC
:104220006E290A6637303020286D73674368616EE7
:1042300067652066656564207261746520776869CA
:104240006C6520696E204733206D6F74696F6E2036
:104250006D6F6465290A67337830793069323020B0
:104260002843435720333630203372642074696DFD
:1042700065290A6733783079306932302028434322
:104280005720333630203474682074696D65290AEC
:104290006738300A6735340A6730783079300A6D0C
:1042A000333000284D53472A2A2A2A204477656C48
:1042B0006C2054657374205B76315D202A2A2A2A8B
:1042C000290A6730306731376732316739300A671A
:1042D00035350A6730783079300A663530300A670C
:1042E000307831300A673470310A67307832300AFA
:1042F000673470310A67307831300A673470310AB8
:1043000067307830300A673470310A79350A67359A
:10431000340A6730783079300A6D333000284D53D5
:10432000472A2A2A2A2046656564686F6C642054EF
:10433000657374205B76315D202A2A2A2A290A288F
:104340004D53472A2A2A2A204D616E75616C6C797B
:1043500020656E746572202120616E64207E206469
:104360007572696E67206D6F76656D656E74207409
:104370006F2074657374202A2A2A2A290A67353522
:104380000A6730783079300A673470330A67303022
:1043900067313767323167343067343967383067AF
:1043A00039300A663630300A673078313030763747
:1043B000362E3736350A783079300A6735340A6751
:1043C00030783079300A6D333000284D53472A2A2F
:1043D0002A2A204D636F6465732074657374205BB3
:1043E00076315D202A2A2A2A290A6735350A67305C
:1043F000783079300A6D330A673470310A6D350AC6
:10440000673470310A6D340A673470310A6D350AC9
:10441000673470310A6D370A673470310A6D390AB2
:10442000673470310A6D380A673470310A6D390AA1
:10443000663530300A67307832300A7932300A6DAA
:10444000330A78300A6D340A79300A6D350A6731DB
:104450007831300A6D370A7931300A6D380A783090
:104460000A6D390A79300A6732783130792D313066
:104470006931300A6D330A6730783079300A6D342B
:104480000A6733783130792D31306931300A6D3532
:104490000A6730783079300A6D370A6732783230FF
:1044A00079306931300A6D380A6730783079300AEE
:1044B0006D390A673378323079306931300A6730C4
:1044C000783079300A6732783079306931300A676C
:1044D00033783079306931300A6735340A6730789B
:1044E0003079300A6D3330007B226763223A2267CD
:1044F0003030673137673231673430673439673885
:1045000030673930227D0A7B226763223A22673581
:1045100035227D0A7B226763223A22673078307920
:1045200030227D0A7B226763223A226635303022B0
:104530007D0A7B226763223A22284D5347737175A7
:104540006172657329227D0A7B226763223A2267A2
:1045500030783230227D0A7B226763223A22793218
:1045600030227D0A7B226763223A227830227D0A3C
:104570007B226763223A227930227D0A7B2267639D
:10458000223A226731783130227D0A7B226763220A
:104590003A22793130227D0A7B226763223A2278DF
:1045A00030227D0A7B226763223A227930227D0AFB
:1045B0007B226763223A22284D5347636972636CFA
:1045C000657329227D0A7B226763223A226732784B
:1045D0003130792D3130693130227D0A7B22676399
:1045E000223A22673078307930227D0A7B22676355
:1045F000223A226733783130792D313069313022D7
:104600007D0A7B226763223A226730783079302234
:104610007D0A7B226763223A226732783230793012
:10462000693130227D0A7B226763223A2267307823
:10463000307930227D0A7B226763223A2267337801
:1046400032307930693130227D0A7B226763223A29
:1046500022673078307930227D0A7B226763223AE4
:1046600022673278307930693130227D0A7B2267C7
:1046700063223A22673378307930693130227D0AFB
:104680007B226763223A22673534227D0A7B2267C8
:1046900063223A22673078307930227D0A7B2267A4
:1046A00063223A226D3330227D00284D53472A2A57
:1046B0002A2A20496E76657273652054696D6520DB
:1046C0004D6F74696F6E2054657374205B76315D35
:1046D000202A2A2A2A290A6730306731376732317F
:1046E0006734306734396738306739300A673535B1
:1046F0000A6730783079300A6739330A66302E30ED
:10470000310A67317831300A7931300A7A31300A2A
:104710006131300A78300A79300A7A300A61300A19
:1047200067317831307931307A2D31306131300A6A
:104730006730783079307A3061300A66302E310A4D
:104740006732783130792D31307A2D32306931301D
:104750000A6730783079307A300A673378313079C7
:104760002D31307A2D32306931300A673078307926
:10477000307A300A673278323079307A2D323069C7
:1047800031300A6730783079307A300A67337832DE
:104790003079306931300A6730783079307A300AD0
:1047A0006732783079307A2D33306931300A6733A7
:1047B000783079307A306931300A67307830793042
:1047C0007A300A673278307930693230202843579E
:1047D000203336302064656772656573290A673354
:1047E00078307930693230202843435720333630CF
:1047F0002064656772656573290A6739340A67350D
:10480000340A6730783079300A6D333000284D53E0
:10481000472A2A2A2A20526F7461727920417869C6
:1048200073204D6F74696F6E2054657374205B76CE
:10483000315D202A2A2A2A290A67303067313767F2
:1048400032316734306734396738306739300A6756
:1048500030783079307A306130623063300A6735D1
:10486000350A6730783079300A6633363030300AAE
:104870006730613336300A623336300A633336309C
:104880000A61300A62300A63300A673161313434B8
:10489000300A62313434300A63313434300A6130E2
:1048A0000A62300A63300A6731613134343062376A
:1048B0003230633336300A783079307A30613062A2
:1048C0003063300A673178363061313434306237E2
:1048D0003230633336300A783079307A3061306282
:1048E0003063300A673178363079353061313434AD
:1048F0003062373230633336300A783079307A308C
:104900006130623063300A6731783630793530781B
:104910003235613134343062373230633336300A05
:10492000783079307A306130623063300A673534FC
:104930000A6730783079300A6D333000284D53479C
:104940002A2A2A2A20546573742076657279207386
:10495000686F7274206D6F766573205B76315D20B1
:104960002A2A2A2A290A2473693D333030300A67FB
:1049700035350A6730783079300A673470302E3533
:104980000A673178302E3166313030300A78300A9B
:1049900078302E310A78300A78302E310A78300A91
:1049A00078302E310A78300A78302E310A78300A81
:1049B00078302E310A78300A78302E310A78300A71
:1049C00078302E310A78300A78302E310A78300A61
:1049D00078302E310A78300A78302E310A78300A51
:1049E00078302E310A78300A78302E310A78300A41
:1049F00078302E310A78300A78302E310A673470D8
:104A0000302E350A6735340A6730783079300A6DD0
:104A1000333000284D53472A2A2A2A2054657374BC
:104A2000206163637572616379206F6620736C6FB8
:104A300077206D6F766573205B76315D202A2A2A98
:104A40002A290A6735350A6730783079300A6734A1
:104A500070302E350A673470302E350A6731783160
:104A6000306632320A6735340A6730783079300A76
:104A70006D333000284D53472A2A2A2A20436F6F6E
:104A80007264696E617465206F6666736574732005
:104A900074657374205B76315D202A2A2A2A290ADC
:104AA00067303067313767323167343067343967A0
:104AB00038306739300A6735340A673932783079E7
:104AC000307A300A663630300A284D53472A2A2A6F
:104AD0002A207465737420473932206F66667365C7
:104AE00074732A2A2A2A290A286D736753746570F9
:104AF00020313A204D6F76652066726F6D20302C24
:104B00003020746F2033302C30206D6D20696E2082
:104B1000706F736974697665205820646972656383
:104B200074696F6E290A286D73675374657020323B
:104B30003A205265736574206F726967696E2074DC
:104B40006F20302E30207573696E67204739322907
:104B50000A286D73675374657020333A204D6F7661
:104B60006520746F2032302C302E2053686F756CA6
:104B700064206D6F7665203230206D6D20696E2067
:104B8000706F736974697665205820646972656313
:104B900074696F6E20616E64207374617475732024
:104BA0007265706F72742073686F756C64207374B3
:104BB0006172742066726F6D20302C30290A286D66
:104BC00073675374657020343A204D6F7665207496
:104BD0006F20302E3020202053686F756C64206D5C
:104BE0006F7665203230206D6D20696E206E6567AE
:104BF0006174697665205820646972656374696FB1
:104C00006E20616E642073746174757320726570B8
:104C10006F72742073686F756C6420737461727442
:104C20002066726F6D2032302C30290A673178335C
:104C3000300A67393278300A67317832300A6731A2
:104C4000783079300A2473720A67393278300A670B
:104C50003470302E350A284D53472A2A2A2A2074C8
:104C600065737420473535206F6666736574732AE3
:104C70002A2A2A290A286D73675374657020313AED
:104C80002053657420436F6F7264696E6174652090
:104C900073797374656D2032205B6735355D2074E0
:104CA0006F206F6666736574206F662035302C3513
:104CB00030290A286D73675374657020323A205387
:104CC000656C6563742047353520636F6F72646966
:104CD0006E6174652073797374656D290A286D732C
:104CE000675374657020333A204D6F766520746F7A
:104CF00020302C302E20486561642073686F756CFD
:104D000064206D6F766520646961676F6E616C6C9D
:104D10007920696E202B5820616E64202B59206108
:104D20006E6420737461747573207265706F727431
:104D30002073686F756C642073746172742066727E
:104D40006F6D20302C30290A6731304C3270327848
:104D500035307935300A6735350A67307830793043
:104D60000A673470302E350A284D53472A2A2A2ADA
:104D7000207465737420473533206162736F6C75DE
:104D80007465206F7665727269646573202A2A2AB9
:104D90002A290A286D73675374657020313A2052AE
:104DA000756E20612073717561726520696E204790
:104DB00035352073797374656D290A286D736753CF
:104DC00074657020323A2052756E206120737175BF
:104DD00061726520772F473533206F76657272696F
:104DE0006465290A6730783079300A673078323064
:104DF00079300A67307832307932300A673078306B
:104E00007932300A6730783079300A673470302E62
:104E1000350A6735336730783079300A673533675C
:104E20003078323079300A6735336730783230790C
:104E300032300A673533673078307932300A673577
:104E4000336730783079300A6730783079300A67E4
:104E50003470302E350A284D53472A2A2A2A2074C6
:104E60006573742052657475726E20746F20686F5C
:104E70006D65202A2A2A2A290A286D7367537465CA
:104E80007020313A2052657475726E20746F2068FC
:104E90006F6D65207573696E6720473238290A285F
:104EA0006D73675374657020323A20526573657470
:104EB00020746F2047353420636F6F7264207379DC
:104EC0007374656D290A6732380A6735340A6D33A1
:104ED00030004E31204732300A4E352047343020E2
:104EE0004731370A4E3130205431204D30360A28B0
:104EF0004E31352047393020473020583020593046
:104F0000205A30290A4E3230205335303030204D6F
:104F10003033200A4E32352058302E303634205966
:104F2000302E333236205A300A4E3430204730315A
:104F3000204631362E300A4E35302058302E30364D
:104F4000342059302E3332360A4E35352058302E23
:104F50003036302059302E3239330A4E3630205810
:104F6000302E3037372059302E3236370A4E36350C
:104F70002058302E3131312059302E3235370A4EFB
:104F800037302058302E3134392059302E323532D6
:104F90000A4E37352058302E3138382059302E32CD
:104FA00035350A4E38302058302E323237205930BD
:104FB0002E3236380A4E38352058302E32353720CA
:104FC00059302E3237310A4E39302058302E333393
:104FD000352059302E3236350A4E39352058302E8C
:104FE0003431322059302E3237310A4E31303020B0
:104FF00058302E3437342059302E3238370A4E315B
:1050000030352058302E3439312059302E3238394D
:105010000A4E3131302058302E3531372059302E5C
:105020003237330A4E3131352058302E3534342062
:1050300059302E3236330A4E3132302058302E3528
:1050400038302059302E3236310A4E313235205820
:10505000302E3539352059302E3236330A4E313321
:10506000302058302E3632312059302E3237340A23
:105070004E3133352058302E3635392059302E33C5
:1050800030360A4E3134302058302E3637332059DE
:10509000302E3333350A4E3134352058302E3637E2
:1050A000392059302E3336310A4E313530205830C0
:1050B0002E3637382059302E3338390A4E313535AF
:1050C0002058302E3637302059302E3432300A4EA8
:1050D0003136302058302E3637302059302E343487
:1050E000360A4E3136352058302E36383020593079
:1050F0002E3437340A4E3137302058302E37303482
:105100002059302E3439370A4E3137352058302E59
:105110003733322059302E3531350A4E3138302070
:1051200058302E3739342059302E3533350A4E3128
:1051300038352058302E3837322059302E35363712
:105140000A4E3139302058302E3935302059302E22
:105150003630340A4E3139352058312E3033312033
:1051600059302E3634370A4E3230302058312E31F5
:1051700034392059302E3732320A4E3230352058E9
:10518000312E3330382059302E3835340A4E3231F2
:10519000302058312E3433302059302E3938340AEB
:1051A0004E3231352058312E3434372059302E3993
:1051B00038360A4E3232302058312E3632382059A5
:1051C000302E3832320A4E3232352058312E3733B3
:1051D000322059302E3731340A4E32333020583293
:1051E0002E3030392059302E3338310A4E32333593
:1051F0002058322E3131362059302E3236360A4E72
:105200003234302058322E3232382059302E313557
:10521000370A4E3234352058322E32383020593049
:105220002E3132330A4E3235302058322E3333325B
:105230002059302E3039340A4E3235352058322E2E
:105240003432332059302E3037300A4E3236302047
:1052500058322E3438392059302E3036350A4E32F5
:1052600036352058322E3535372059302E303636E7
:105270000A4E3237302058322E3632372059302EEF
:105280003038340A4E3237352058322E36393320F2
:1052900059302E3130390A4E3238302058322E37BC
:1052A00033302059302E3133330A4E3238352058BE
:1052B000322E3830352059302E3139300A4E3239BD
:1052C000302058322E3832392059302E3231360AB9
:1052D0004E3239352058322E3838302059302E325F
:1052E00039310A4E3330302058322E383834205974
:1052F000302E3330300A4E3330352058322E383984
:10530000382059302E3333320A4E33313020583260
:105310002E3930352059302E3336370A4E33313559
:105320002058322E3931302059302E3430370A4E41
:105330003332302058322E3930382059302E343420
:10534000360A4E3332352058322E3930312059301A
:105350002E3439350A4E3333302058322E3839370F
:105360002059302E3439350A4E3333352058322EF9
:105370003839302059302E3532340A4E333430200B
:1053800058322E3834322059302E3630340A4E33CB
:1053900034352058322E3831342059302E363635B7
:1053A0000A4E3335302058322E3739342059302EBA
:1053B0003735300A4E3335352058322E37393120C3
:1053C00059302E3833380A4E3336302058322E3882
:1053D00031392059302E3937360A4E333635205878
:1053E000322E3833372059312E3034340A4E333789
:1053F000302058322E3836322059312E3131320A8F
:105400004E3337352058322E3837372059312E3128
:1054100034350A4E3338302058322E393132205943
:10542000312E3231370A4E3338352058322E393149
:10543000372059312E3232360A4E33393020583225
:105440002E3935312059312E3238310A4E33393523
:105450002058322E3937302059312E3239350A4E04
:105460003430302058322E3939362059312E3239E5
:10547000350A4E3430352058332E303133205931EF
:105480002E3237350A4E3431302058332E303234F4
:105490002059312E3235340A4E3431352058332ECE
:1054A0003037302059312E3135310A4E34323020E8
:1054B00058332E3037372059312E3133340A4E3499
:1054C00032352058332E3132352059312E30333990
:1054D0000A4E3433302058332E3133382059312E90
:1054E0003031390A4E3433352058332E323035209E
:1054F00059302E3930380A4E3434302058332E3259
:1055000038322059302E3739370A4E343435205846
:10551000332E3336312059302E3639310A4E343558
:10552000302058332E3432362059302E3539320A55
:105530004E3435352058332E3435362059302E35FB
:1055400034330A4E3436302058332E34373920590C
:10555000302E3439330A4E3436352058332E343910
:10556000342059302E3437320A4E343730205833F5
:105570002E3530352059302E3434360A4E343735F6
:105580002058332E3531382059302E3431370A4ED9
:105590003438302058332E3533302059302E3339BB
:1055A000310A4E3438352058332E353634205930B0
:1055B0002E3330300A4E3439302058332E353737B9
:1055C0002059302E3235330A4E3439352058332E97
:1055D0003536382059302E3231320A4E35303020AF
:1055E00058332E3534342059302E3137360A4E3563
:1055F00030352058332E3534312059302E31343661
:105600000A4E3531302058332E3535332059302E5F
:105610003131390A4E3531352058332E3537362061
:1056200059302E3130360A4E3532302058332E352F
:1056300039372059302E3130320A4E353235205824
:10564000332E3631382059302E3130390A4E353329
:10565000302058332E3633392059302E3132390A22
:105660004E3533352058332E3635302059302E31D3
:1056700035390A4E3534302058332E3636332059DA
:10568000302E3137380A4E3534352058332E3637E0
:10569000382059302E3139320A4E353530205833C2
:1056A0002E3639392059302E3139370A4E353535B5
:1056B0002058332E3732332059302E3139360A4EA6
:1056C0003536302058332E3736342059302E313786
:1056D000390A4E3536352058332E3830352059307A
:1056E0002E3136350A4E3537302058332E3838347F
:1056F0002059302E3135390A4E3537352058332E62
:105700003934392059302E3136350A4E353830206B
:1057100058332E3936362059302E3137350A4E352A
:1057200038352058332E3937382059302E31393416
:105730000A4E3539302058332E3937382059302E1B
:105740003232330A4E3539352058332E393630202F
:1057500059302E3234350A4E3630302058332E38F8
:1057600033342059302E3331310A4E3630352058FB
:10577000332E3736322059302E3334350A4E3631F7
:10578000302058332E3732362059302E3338390AEC
:105790004E3631352058332E3730332059302E34A1
:1057A00035380A4E3632302058332E3638322059AA
:1057B000302E3533300A4E3632352058332E3637B8
:1057C000392059302E3533340A4E36333020583391
:1057D0002E3632362059302E3638310A4E36333591
:1057E0002058332E3536382059302E3832380A4E6C
:1057F0003634302058332E3434342059312E30385A
:10580000300A4E3634352058332E34303520593155
:105810002E3136370A4E3635302058332E34303458
:105820002059312E3136370A4E3635352058332E31
:105830003338372059312E3230380A4E3636302040
:1058400058332E3338342059312E3230380A4E3600
:1058500036352058332E3336352059312E323635F1
:105860000A4E3637302058332E3335352059312EF5
:105870003238350A4E3637352058332E33343820F7
:1058800059312E3330380A4E3638302058332E33C3
:1058900033332059312E3335300A4E3638352058BF
:1058A000332E3332312059312E3339310A4E3639C5
:1058B000302058332E3331312059312E3432380ACA
:1058C0004E3639352058332E3333392059312E3462
:1058D00032330A4E3730302058332E34343020598A
:1058E000312E3430360A4E3730352058332E35318C
:1058F000302059312E3430380A4E37313020583369
:105900002E3538352059312E3432310A4E37313563
:105910002058332E3631312059312E3433390A4E46
:105920003732302058332E3631312059312E34342D
:10593000310A4E3732352058332E36313520593121
:105940002E3434310A4E3733302058332E36333626
:105950002059312E3438380A4E3733352058332EFB
:105960003633342059312E3531370A4E3734302012
:1059700058332E3632322059312E3534330A4E37D1
:1059800034352058332E3630352059312E353633C4
:105990000A4E3735302058332E3537362059312EC0
:1059A0003537350A4E3735352058332E35343420C7
:1059B00059312E3538310A4E3736302058332E348F
:1059C00037392059312E3539320A4E37363520587D
:1059D000332E3435312059312E3539380A4E373788
:1059E000302058332E3338372059312E3632360A8C
:1059F0004E3737352058332E3339302059312E3633
:105A000033360A4E3738302058332E35333220594A
:105A1000312E3630320A4E3738352058332E363054
:105A2000312059312E3539370A4E37393020583325
:105A30002E3636382059312E3539380A4E37393519
:105A40002058332E3738322059312E3631320A4E13
:105A50003830302058332E3739342059312E3631F2
:105A6000380A4E3830352058332E383638205931E0
:105A70002E3633360A4E3831302058332E393138ED
:105A80002059312E3635350A4E3831352058332ECF
:105A90003934352059312E3636370A4E38323020D7
:105AA00058332E3936342059312E3638350A4E388F
:105AB00032352058332E3936372059312E36383585
:105AC0000A4E3833302058332E3937342059312E8E
:105AD0003639390A4E3833352058332E3938342088
