:100000000C94183B0C94393B0C947D810C94393B37
:100010000C94393B0C94393B0C94393B0C94393B90
:100020000C94393B0C94393B0C94393B0C94E57D92
:100030000C94393B0C94393B0C94FD7A0C94393B6D
:100040000C94393B0C94393B0C94393B0C94393B60
:100050000C94393B0C94393B0C94393B0C94393B50
:100060000C94393B0C94AB810C9428810C94393B53
:100070000C9448850C94E8840C9426850C94393BA8
:100080000C942F7E0C94393B0C94393B0C94393BE7
:100090000C94393B0C94393B0C94393B0C94393B10
:1000A0000C94393B0C94393B0C94393B0C945066BE
:1000B0000C94AC650C94393B0C94393B0C94AA78A5
:1000C0000C94393B0C94393B0C94393B0C94393BE0
:1000D0000C94393B0C94393B0C94393B0C94393BD0
:1000E0000C94AA880C94393B0C94393B0C94393B02
:1000F0000C94393B0C94393B0C94393B0C94393BB0
:100100000C9479660C94D5650C94A2660C94FE65EB
:100110000C94393B0C94393B0C94393B0C94393B8F
:100120000C94393B0C94393B0C94393B0C94393B7F
:100130000C94393B0C947A7A0C94393B0C94393BEF
:100140000C94393B0C94393B0C94393B0C94393B5F
:100150000C94393B0C94393B0C94A0880C94393B9B
:100160000C94393B0C94393B0C94393B0C94393B3F
:100170000C94393B0C94393B0C94393B0C94393B2F
:100180000C94393B0C94393B0C94393B0C94393B1F
:100190000C94393B0C94393B0C94393B0C94393B0F
:1001A0000C9427660C9483650C94393B0C94393B72
:1001B0000C94327A0C94393B0C94393B0C94393BB7
:1001C0000C94393B0C94393B0C94393B0C94393BDF
:1001D0000C94393B0C94393B0C94393B0C94393BCF
:1001E0000C94393B0C94393BC461D561E66185645C
:1001F00085645E61755F8564F761086219625362A8
:10020000DB603B6285646F6185642A628061536153
:100210008564856485649161A261B361397D3B7DAC
:100220003F7D437D477D4B7D4F7D537D577D5B7D7E
:100230005F7D637D677D6B7D6F7D837D837D837D4A
:10024000837D837D837D837D837D837D837D837DAE
:10025000837D837D837D837D837D837D837D837D9E
:10026000837D837D837D837D837D837D837D837D8E
:10027000837D837D837D837D837D837D837D837D7E
:10028000737D777D084AD73B3BCE016E84BCBFFDB2
:10029000C12F3D6C74319ABD56833DDA3D00C77F56
:1002A00011BED9E4BB4C3E916BAAAABE00000080EF
:1002B0003F05A84CCDB2D44EB93836A9020C50B97E
:1002C000918688083CA6AAAA2ABE000000803F07A3
:1002D000634236B79BD8A71A39685618AEBAAB55E1
:1002E0008C1D3CB7CC5763BD6DEDFD753EF61772A6
:1002F00031BF000000803F08000000BE9224491278
:100300003EABAAAA2ABECDCCCC4C3E00000080BE9B
:10031000ABAAAAAA3E00000000BF000000803F0078
:1003200000000000084178D3BB4387D1133D190E6C
:100330003CC3BD4282AD2B3E68EC8276BED98FE1D4
:10034000A93E4C80EFFFBE01C4FF7F3F00000000CC
:10035000006E616E00696E6600456E64206F6620F7
:10036000636F6D6D616E642066696C650A00F403ED
:10037000F603F803FA032A2A2A205741524E494E1F
:1003800047202A2A2A20486F6D696E67206572729D
:100390006F723A20255320617869732073657474F5
:1003A000696E6773206D6973636F6E6669677572D6
:1003B0006564002A2A2A205741524E494E47202A76
:1003C0002A2A20486F6D696E67206572726F723AD3
:1003D0002053706563696669656420617869732874
:1003E0006573292063616E6E6F7420626520686F8B
:1003F0006D656400580059005A004100456E7465EF
:10040000722024626F6F743D3120746F20656E74AA
:1004100065722074686520626F6F74206C6F616410
:1004200065722E0A000A0A0A232323232054696EC8
:10043000794720424F4F54204C4F41444552204869
:10044000656C7020232323230A000A466F72206400
:10045000657461696C65642054696E794720696EC2
:10046000666F207365653A2068747470733A2F2F35
:100470006769746875622E636F6D2F73796E746827
:1004800065746F732F54696E79472F77696B692F85
:100490000A466F7220746865206C617465737420FD
:1004A0006669726D77617265207365653A2068745C
:1004B0007470733A2F2F6769746875622E636F6D5D
:1004C0002F73796E746865746F732F54696E7947F2
:1004D0000A506C65617365206C6F6720616E7920CE
:1004E00069737375657320617420687474703A2F32
:1004F0002F7777772E73796E746865746F732E63B8
:100500006F6D2F666F72756D730A48617665206630
:10051000756E0A00456E74657220246465666175A7
:100520006C74733D3120746F207265736574207430
:1005300068652073797374656D20746F20746865C5
:1005400020666163746F72792064656661756C748E
:100550002076616C7565732E0A546869732077691B
:100560006C6C206F766572777269746520616E7944
:10057000206368616E67657320796F7520686176A6
:1005800065206D6164652E0A000A0A0A232323236D
:100590002054696E794720524553544F52452044A8
:1005A000454641554C54532048656C702023232305
:1005B000230A00496E766F6B652073656C66207444
:1005C00065737420627920656E746572696E672048
:1005D00024746573743D4E207768657265204E20E3
:1005E0006973206F6E65206F663A0A202024746557
:1005F00073743D312020736D6F6B65207465737467
:100600000A202024746573743D322020686F6D6960
:100610006E67207465737420202028796F75206DB3
:10062000757374207472697020686F6D696E6720CD
:100630007377697463686573290A2020247465736D
:10064000743D332020737175617265207465737415
:10065000202020286120736572696573206F6620F1
:1006600073717561726573290A202024746573742F
:100670003D34202061726320746573742020202033
:10068000202028736F6D65206C6172676520636937
:1006900072636C6573290A202024746573743D3578
:1006A00020206477656C6C20746573742020202092
:1006B000286D6F766573207370616365642062795D
:1006C0002031207365636F6E64206477656C6C7392
:1006D000290A202024746573743D362020666565E0
:1006E00064686F6C6420746573742028656E74652B
:1006F00072202120616E64207E20746F20686F6CF0
:100700006420616E6420726573746172742C20724F
:100710006573706563746976656C79290A20202495
:10072000746573743D3720204D20636F64657320BA
:10073000746573742020284D20636F64657320698D
:100740006E7465726D696E676C6564207769746834
:10075000206D6F766573290A202024746573743DBB
:100760003820204A534F4E20746573742020202077
:1007700020286D6F74696F6E2074657374207275B4
:100780006E207573696E67204A534F4E20636F6DFC
:100790006D616E6473290A202024746573743D3979
:1007A0002020696E76657273652074696D652074AA
:1007B0006573740A202024746573743D313020728F
:1007C0006F74617279206D6F74696F6E20746573D8
:1007D000740A202024746573743D313120736D6177
:1007E0006C6C206D6F76657320746573740A2020BD
:1007F00024746573743D313220736C6F77206D6F94
:1008000076657320746573740A202024746573748C
:100810003D313320636F6F7264696E61746520735C
:10082000797374656D206F66667365742074657383
:100830007420284739322C204735342D4735392943
:100840000A0A546573747320617373756D65206152
:100850002063656E7465726564205859206F7269F3
:1008600067696E20616E64206174206C65617374C9
:100870002038306D6D20636C656172616E63652038
:10088000696E20616C6C20646972656374696F6E57
:10089000730A546573747320617373756D65205AA0
:1008A00020686173206174206C656173742034303A
:1008B0006D6D20706F7369697469766520636C650E
:1008C0006172616E63650A54657374732073746139
:1008D0007274207769746820612047302058302076
:1008E0005930205A30206D6F76650A486F6D696EF9
:1008F0006720697320746865206578636570746922
:100900006F6E2E204E6F20696E697469616C207065
:100910006F736974696F6E206F7220636C656172AA
:10092000616E636520697320617373756D65640A18
:10093000000A0A0A232323232054696E794720538F
:10094000454C4620544553542048656C7020232361
:1009500023230A0045616368202420636F6D6D6165
:100960006E642061626F766520616C736F206469CC
:1009700073706C6179732074686520746F6B656E39
:1009800020666F7220656163682073657474696E98
:100990006720696E205B205D20627261636B657405
:1009A000730A546F20766965772073657474696E75
:1009B000677320656E746572206120746F6B656E5D
:1009C0003A0A0A2020243C746F6B656E3E0A0A4680
:1009D0006F72206578616D706C6520247966722075
:1009E000746F20646973706C617920746865205934
:1009F000206D6178206665656420726174650A0AFD
:100A0000546F207570646174652073657474696EC9
:100A1000677320656E74657220746F6B656E2065F8
:100A20007175616C732076616C75653A0A0A2020D5
:100A3000243C746F6B656E3E3D3C76616C75653E23
:100A40000A0A466F72206578616D706C65202479A2
:100A500066723D38303020746F207365742074687E
:100A6000652059206D617820666565642072617427
:100A70006520746F20383030206D6D2F6D696E7574
:100A800074650A466F7220636F6E6669677572617E
:100A900074696F6E2064657461696C732073656539
:100AA0003A2068747470733A2F2F6769746875629E
:100AB0002E636F6D2F73796E746865746F732F5426
:100AC000696E79472F77696B692F54696E79472D65
:100AD000436F6E66696775726174696F6E0A005460
:100AE0006865736520636F6D6D616E6473206172FC
:100AF000652061637469766520666F7220636F6E2E
:100B000066696775726174696F6E3A0A2020247392
:100B100079732053686F772073797374656D20281B
:100B200067656E6572616C292073657474696E67A0
:100B3000730A2020243120202053686F77206D6FA6
:100B4000746F7220312073657474696E6773202826
:100B50006F72207768617465766572206D6F746F4F
:100B60007220796F752077616E7420312C322C33AE
:100B70002C34290A2020247820202053686F7720E5
:100B80005820617869732073657474696E67732087
:100B9000286F722077686174657665722061786964
:100BA0007320796F752077616E7420782C792C7A98
:100BB0002C612C622C63290A2020246D20202053D4
:100BC000686F7720616C6C206D6F746F7220736535
:100BD0007474696E67730A20202471202020536882
:100BE0006F7720616C6C2061786973207365747411
:100BF000696E67730A2020246F20202053686F7766
:100C000020616C6C206F6666736574207365747404
:100C1000696E67730A2020242420202053686F7790
:100C200020616C6C2073657474696E67730A202090
:100C3000246820202053686F7720746869732068C7
:100C4000656C702073637265656E0A0A000A0A0A91
:100C5000232323232054696E794720434F4E46496E
:100C60004755524154494F4E2048656C702023230C
:100C700023230A000A4E6F74653A2054696E79473F
:100C80002067656E657261746573206175746F6D40
:100C90006174696320737461747573207265706F19
:100CA0007274732062792064656661756C740A548D
:100CB0006869732063616E20626520646973616294
:100CC0006C656420627920656E746572696E672058
:100CD0002473763D300A5365652074686520776912
:100CE0006B692062656C6F7720666F72206D6F7222
:100CF000652064657461696C732E0A0054686573BD
:100D00006520636F6D6D616E647320617265206133
:100D100063746976652066726F6D20746865206300
:100D20006F6D6D616E64206C696E653A0A205E7845
:100D300020202020202020202020202020526573E9
:100D400065742028636F6E74726F6C207829202D73
:100D500020736F6674776172652072657365740ABB
:100D600020203F2020202020202020202020202064
:100D70004D616368696E6520706F736974696F6E29
:100D800020616E642067636F6465206D6F64656CBD
:100D90002073746174650A202024202020202020E4
:100DA0002020202020202053686F7720616E64204F
:100DB00073657420636F6E66696775726174696FBD
:100DC0006E2073657474696E67730A202021202079
:100DD00020202020202020202020204665656468D7
:100DE0006F6C64202D2073746F70206D6F74696F49
:100DF0006E20776974686F7574206C6F73696E67A5
:100E000020706F736974696F6E0A20207E20202025
:100E1000202020202020202020204379636C652082
:100E20005374617274202D20726573746172742022
:100E300066726F6D2066656564686F6C640A202059
:100E400068202020202020202020202020205368DF
:100E50006F7720746869732068656C7020736372A3
:100E600065656E0A20202468202020202020202074
:100E70002020202053686F7720636F6E6669677546
:100E8000726174696F6E2068656C7020736372653F
:100E9000656E0A2020247465737420202020202091
:100EA0002020204C6973742073656C662D74657303
:100EB00074730A202024746573743D4E2020202012
:100EC00020202052756E2073656C662D74657374D6
:100ED000204E0A202024686F6D653D31202020209F
:100EE00020202052756E206120686F6D696E67202A
:100EF0006379636C650A202024646566613D312056
:100F0000202020202020526573746F726520616C50
:100F10006C2073657474696E677320746F20226629
:100F20006163746F7279222064656661756C747395
:100F30000A000A0A0A232323232054696E794720D2
:100F400048656C7020232323230A00661069106F04
:100F50001076107B1084108F109A10A610B210C05B
:100F600010D710E610F310FF10131120113511499E
:100F7000115111591168117D119211A111B111C3B3
:100F800011DA11F71112121A1222122A1232123A1F
:100F90001242124A1252125A1262126A127F1297A7
:100FA00012A912C212D812EE1206131E1330134EDB
:100FB00013631377139E13A613AE13B613BE13C693
:100FC00013CE13D613F4131014241436144B1463D5
:100FD000147F149314A714C214DA14EE1453595343
:100FE00054454D205245414459004C6F6164696E2F
:100FF0006720636F6E666967732066726F6D204548
:101000004550524F4D00496E697469616C697A6947
:101010006E6720636F6E6669677320746F20536814
:101020006170656F6B6F203337356D6D2070726F37
:1010300066696C65007B226572223A7B22666222B9
:101040003A25302E32662C227374223A25642C22E3
:101050006D7367223A222573222C2276616C223A24
:1010600025647D7D0A004F4B004572726F7200450A
:10107000616761696E004E6F6F7000436F6D706CD9
:10108000657465005465726D696E617465640048CD
:1010900061726420726573657400456E64206F66CA
:1010A000206C696E6500456E64206F662066696C11
:1010B000650046696C65206E6F74206F70656E0008
:1010C0004D61782066696C652073697A6520657862
:1010D000636565646564004E6F20737563682064A2
:1010E00065766963650042756666657220656D7038
:1010F0007479004275666665722066756C6C004294
:1011000075666665722066756C6C202D206661744C
:10111000616C00496E697469616C697A696E670017
:10112000456E746572696E6720626F6F74206C6FB4
:10113000616465720046756E6374696F6E206973D1
:10114000207374756262656400737461745F313812
:1011500000737461745F313900496E7465726E6139
:101160006C206572726F7200496E7465726E616C8C
:101170002072616E6765206572726F7200466C6FD7
:101180006174696E6720706F696E74206572726F2A
:101190007200446976696465206279207A65726FAD
:1011A00000496E76616C6964204164647265737392
:1011B00000526561642D6F6E6C79206164647265A4
:1011C000737300496E697469616C697A6174696FDF
:1011D0006E206661696C7572650053797374656D14
:1011E00020616C61726D202D207368757474696E56
:1011F0006720646F776E004D656D6F727920666150
:10120000756C74206F7220636F7272757074696F81
:101210006E00737461745F323900737461745F338C
:101220003000737461745F333100737461745F33C1
:101230003200737461745F333300737461745F33AD
:101240003400737461745F333500737461745F3399
:101250003600737461745F333700737461745F3385
:101260003800737461745F333900556E7265636F53
:10127000676E697A656420636F6D6D616E640045A9
:101280007870656374656420636F6D6D616E642052
:101290006C657474657200426164206E756D626580
:1012A0007220666F726D617400496E70757420658E
:1012B000786365656473206D6178206C656E677412
:1012C0006800496E7075742076616C756520746F66
:1012D0006F20736D616C6C00496E7075742076615F
:1012E0006C756520746F6F206C6172676500496E64
:1012F0007075742076616C75652072616E6765200B
:101300006572726F7200496E7075742076616C75CB
:101310006520756E737570706F72746564004A53E2
:101320004F4E2073796E746178206572726F72000F
:101330004A534F4E20696E70757420686173207433
:101340006F6F206D616E79207061697273004A530E
:101350004F4E206F757470757420746F6F206C6FB2
:101360006E67004F7574206F6620627566666572E1
:1013700020737061636500436F6E666967207265F4
:101380006A656374656420647572696E67206D6157
:101390006368696E696E67206379636C6500737456
:1013A00061745F353300737461745F353400737436
:1013B00061745F353500737461745F353600737422
:1013C00061745F353700737461745F35380073740E
:1013D00061745F3539004D6F7665206C65737320DD
:1013E0007468616E206D696E696D756D206C656ED7
:1013F000677468004D6F7665206C65737320746840
:10140000616E206D696E696D756D2074696D650022
:1014100047636F646520626C6F636B20736B6970E8
:101420007065640047636F646520696E7075742031
:101430006572726F720047636F64652066656564EC
:1014400072617465206572726F720047636F6465C4
:10145000206178697320776F7264206D6973736996
:101460006E670047636F6465206D6F64616C206711
:10147000726F75702076696F6C6174696F6E004869
:101480006F6D696E67206379636C65206661696C56
:101490006564004D61782074726176656C206578B2
:1014A000636565646564004D6178207370696E647E
:1014B0006C65207370656564206578636565646537
:1014C0006400417263207370656369666963617467
:1014D000696F6E206572726F7200536F6674206C54
:1014E000696D697420657863656564656400436F40
:1014F0006D6D616E64206E6F7420616363657074DE
:10150000656400284D53472A2A2A2A20536D6F6BA1
:10151000652054657374205B76315D202A2A2A2A5F
:10152000290A4730302047313720473231204734AD
:10153000302047343920473830204739300A673067
:10154000783079307A300A673030207833300A7852
:10155000300A7933300A79300A7A33300A7A300A1D
:101560006133300A61300A473030207833302079D7
:101570003330207A3330206133300A4730302078DE
:1015800030207930207A302061300A4730312066AF
:101590003330207832207932207A322061320A7852
:1015A00030207930207A302061300A6D3367347012
:1015B000310A6D35673470310A6D34673470310A21
:1015C0006D33673470310A6D35673470310A6D37A9
:1015D000673470310A6D39673470310A6D38673499
:1015E00070310A6D390A673078310A673078300A0D
:1015F0006D3200284D53472A2A2A2A20486F6D69E8
:101600006E672054657374205B76315D202A2A2A28
:101610002A290A6732382E32783079307A300A6DCA
:10162000333000284D53472A2A2A2A2053717561E6
:10163000726573204D6F74696F6E205465737420EA
:101640005B76315D202A2A2A2A290A6730306731E1
:10165000376732316734306734396738306739304B
:101660000A6730783079300A673078323020287451
:101670007261766572736520612032306D6D207302
:10168000717561726520696E205820616E64205901
:10169000290A7932300A78300A79300A673178318C
:1016A0003066353030202864726177206120313017
:1016B0006D6D2073717561726520696E20582061AF
:1016C0006E6420592061742046353030290A793102
:1016D000300A78300A79300A67307A32302028743C
:1016E0007261766572736520612032306D6D207392
:1016F000717561726520696E205820616E64205A90
:10170000290A7832300A7A300A78300A673178321A
:10171000307932307A32306635303020286665656F
:101720006420612032306D6D20646961676F6E6185
:101730006C20696E20582C205920616E64205A2933
:101740000A783079307A300A7834307934307A3423
:1017500030202874726176657273652061203430A0
:101760006D6D206375626520696E20582C205920AC
:10177000616E64205A290A78343079307A300A78D8
:10178000307934307A34300A7834307934307A3001
:101790000A783079307A34300A78307934307A30D7
:1017A0000A78343079307A34300A783079307A30C7
:1017B0000A6738300A6730783079300A6730783114
:1017C0000A673078300A6D3330002F286D73672A2E
:1017D0002A2A2A204172632054657374205B763173
:1017E0005D202A2A2A2A290A4E31206730306731A3
:1017F00037673231673430673439673830673930AA
:101800000A4E3130206730783079300A4E3230203D
:10181000663530300A4E3330206732783130792DDA
:101820003130693130202843572032373020646509
:101830006772656573290A4E3430206730783079D5
:10184000300A4E3530206733783130792D313069A8
:101850003130202843435720393020646567726552
:101860006573290A4E3630206730783079300A4E59
:10187000383020673278323079306931302028436F
:1018800057203138302064656772656573290A4EC8
:101890003730206730783079300A4E38302067335F
:1018A000783230793069313020284343572031383D
:1018B000302064656772656573290A4E3930206788
:1018C00030783079300A4E39392046313230300A9A
:1018D0004E3130302067327830793069323020280C
:1018E0004357203336302064656772656573290A73
:1018F0004E313130206732783079306932302028EB
:1019000043572033363020616761696E290A4E31B2
:101910003230206637303020284368616E6765209A
:10192000666565642072617465207768696C6520FE
:10193000696E204732206D6F74696F6E206D6F6421
:1019400065290A4E31333020673278307930693278
:101950003020284357203336302033726420746996
:101960006D65290A4E31343020673278307930691C
:1019700032302028435720333630203474682074A6
:10198000696D65290A4E31353020663530300A4E92
:10199000313630206733783079307A3430693230FC
:1019A00020284343572033363020646567726565CD
:1019B000732077697468206C696E65617220747237
:1019C0006176656C290A4E3137302067337830797B
:1019D000307A306932302028434357203336302064
:1019E000616761696E290A4E3138302066373030C0
:1019F00020286D73672A2A2A2A4368616E6765204A
:101A0000666565642072617465207768696C65201D
:101A1000696E204733206D6F74696F6E206D6F643F
:101A2000652A2A2A2A290A4E31393020673378302C
:101A30007930693230202843435720333630203301
:101A400072642074696D65290A4E32303020673324
:101A5000783079306932302028434357203336308C
:101A6000203474682074696D65290A4E3231302043
:101A7000286D73672A2A2A2A473138204576616CF7
:101A800020746573742A2A2A2A290A4E3232302099
:101A90004731205833302E373037205A35302E37E3
:101AA000323720463530300A4E3233302047313815
:101AB00020473032205836372E373338205A3233C9
:101AC0002E3631372052323520463235300A4E32EA
:101AD0003430206738300A4E323530206730783065
:101AE00079307A300A4E323630206D333000284D4E
:101AF00053472A2A2A2A204477656C6C2054657340
:101B000074205B76315D202A2A2A2A290A67303020
:101B10006731376732316739300A6735350A6730E0
:101B2000783079300A663530300A67307831300ADB
:101B3000673470310A67307832300A673470310A9E
:101B400067307831300A673470310A673078303066
:101B50000A673470310A79350A6735340A67307894
:101B60003079300A6D330A673470310A6730783162
:101B7000307931300A6D350A673470310A67307850
:101B800032307932300A6D340A673470310A673086
:101B90007833307933300A6D380A673470310A6728
:101BA000307834307934300A6D390A673470310A4C
:101BB00067307835307935300A6730783079300AD7
:101BC0006D333000284D53472A2A2A2A204665655E
:101BD00064686F6C642054657374205B76315D209B
:101BE0002A2A2A2A290A284D53472A2A2A2A204DF6
:101BF000616E75616C6C7920656E74657220212050
:101C0000616E64207E20647572696E67206D6F76E8
:101C1000656D656E7420746F2074657374202A2A54
:101C20002A2A290A6735350A6730783079300A67F9
:101C30003470330A67303067313767323167343098
:101C40006734396738306739300A663630300A67AA
:101C500030783130307637362E3736350A7830796D
:101C6000300A6735340A6730783079300A6D33309E
:101C700000284D53472A2A2A2A204D636F64657332
:101C80002074657374205B76315D202A2A2A2A2904
:101C90000A6735350A6730783079300A6D330A675C
:101CA0003470310A6D350A673470310A6D340A6751
:101CB0003470310A6D350A673470310A6D370A673E
:101CC0003470310A6D390A673470310A6D380A6729
:101CD0003470310A6D390A663530300A673078322F
:101CE000300A7932300A6D330A78300A6D340A7955
:101CF000300A6D350A67317831300A6D370A79312B
:101D0000300A6D380A78300A6D390A79300A67323C
:101D1000783130792D31306931300A6D330A6730CE
:101D2000783079300A6D340A6733783130792D3163
:101D3000306931300A6D350A6730783079300A6D94
:101D4000370A673278323079306931300A6D380AB3
:101D50006730783079300A6D390A673378323079F4
:101D6000306931300A6730783079300A673278303C
:101D700079306931300A6733783079306931300A27
:101D80006735340A6730783079300A6D3330007B3C
:101D9000226763223A226730306731376732316712
:101DA0003430673439673830673930227D0A7B2216
:101DB0006763223A22673535227D0A7B22676322D8
:101DC0003A22673078307930227D0A7B226763229D
:101DD0003A2266353030227D0A7B226763223A221E
:101DE000284D53477371756172657329227D0A7B93
:101DF000226763223A226730783230227D0A7B22C2
:101E00006763223A22793230227D0A7B226763227D
:101E10003A227830227D0A7B226763223A22793087
:101E2000227D0A7B226763223A2267317831302291
:101E30007D0A7B226763223A22793130227D0A7B38
:101E4000226763223A227830227D0A7B226763224E
:101E50003A227930227D0A7B226763223A22284D7A
:101E60005347636972636C657329227D0A7B22671D
:101E700063223A226732783130792D31306931303E
:101E8000227D0A7B226763223A22673078307930DC
:101E9000227D0A7B226763223A22673378313079C8
:101EA0002D3130693130227D0A7B226763223A224C
:101EB000673078307930227D0A7B226763223A22AC
:101EC00067327832307930693130227D0A7B22677F
:101ED00063223A22673078307930227D0A7B22678C
:101EE00063223A2267337832307930693130227D8B
:101EF0000A7B226763223A22673078307930227D6C
:101F00000A7B226763223A2267327830793069315E
:101F100030227D0A7B226763223A22673378307948
:101F200030693130227D0A7B226763223A2267358D
:101F300034227D0A7B226763223A22673078307927
:101F400030227D0A7B226763223A226D3330227D64
:101F500000284D53472A2A2A2A20496E7665727333
:101F6000652054696D65204D6F74696F6E205465EE
:101F70007374205B76315D202A2A2A2A290A673069
:101F8000306731376732316734306734396738301A
:101F90006739300A6735350A6730783079300A6733
:101FA00039330A66302E30310A67317831300A7998
:101FB00031300A7A31300A6131300A78300A7930AA
:101FC0000A7A300A61300A67317831307931307AF3
:101FD0002D31306131300A6730783079307A3061B4
:101FE000300A66302E310A6732783130792D31303F
:101FF0007A2D32306931300A6730783079307A3072
:102000000A6733783130792D31307A2D32306931A9
:10201000300A6730783079307A300A673278323077
:1020200079307A2D32306931300A67307830793042
:102030007A300A673378323079306931300A673064
:10204000783079307A300A6732783079307A2D33C7
:10205000306931300A6733783079307A306931301D
:102060000A6730783079307A300A673278307930E0
:102070006932302028435720333630206465677238
:10208000656573290A6733783079306932302028E2
:102090004343572033363020646567726565732982
:1020A0000A6739340A6735340A6730783079300A7C
:1020B0006D333000284D53472A2A2A2A20526F7444
:1020C0006172792041786973204D6F74696F6E2059
:1020D00054657374205B76315D202A2A2A2A290AE6
:1020E000673030673137673231673430673439678A
:1020F00038306739300A6730783079307A3061307B
:10210000623063300A6735350A6730783079300AD3
:102110006633363030300A6730613336300A623326
:1021200036300A633336300A61300A62300A63306F
:102130000A673161313434300A62313434300A6331
:10214000313434300A61300A62300A63300A673150
:10215000613134343062373230633336300A7830AC
:1021600079307A306130623063300A6731783630E6
:10217000613134343062373230633336300A78308C
:1021800079307A306130623063300A6731783630C6
:102190007935306131343430623732306333363040
:1021A0000A783079307A306130623063300A6731D2
:1021B00078363079353078323561313434306237C1
:1021C0003230633336300A783079307A30613062B9
:1021D0003063300A6735340A6730783079300A6DF9
:1021E000333000284D53472A2A2A2A205465737415
:1021F00020766572792073686F7274206D6F7665D2
:1022000073205B76315D202A2A2A2A290A673078D2
:102210003079300A673470302E350A673178302EC5
:102220003166313030300A78300A78302E310A7811
:10223000300A78302E310A78300A78302E310A7818
:10224000300A78302E310A78300A78302E310A7808
:10225000300A78302E310A78300A78302E310A78F8
:10226000300A78302E310A78300A78302E310A78E8
:10227000300A78302E310A78300A78302E310A78D8
:10228000300A78302E310A78300A78302E310A78C8
:10229000300A78302E310A673470302E350A7830A3
:1022A0000A78302E30310A78300A78302E30310AF0
:1022B00078300A78302E30310A78300A78302E3073
:1022C000310A78300A78302E30310A78300A783086
:1022D0002E30310A78300A78302E30310A78300AC0
:1022E00078302E30310A78300A78302E30310A7842
:1022F000300A78302E30310A78300A78302E30317A
:102300000A78300A78302E30310A78300A78302E48
:1023100030310A78300A78302E30310A6730783020
:1023200079300A6D3200284D53472A2A2A2A205430
:10233000657374206163637572616379206F6620D1
:10234000736C6F77206D6F766573205B76315D20DF
:102350002A2A2A2A290A6735350A673078307930DF
:102360000A673470302E350A673470302E350A67AC
:10237000317831306632320A6735340A6730783066
:1023800079300A6D333000284D53472A2A2A2A20F3
:10239000436F6F7264696E617465206F6666736502
:1023A00074732074657374205B76315D202A2A2A49
:1023B0002A290A673030673137673231673430672E
:1023C00034396738306739300A6735340A6739324B
:1023D000783079307A300A663630300A284D5347E3
:1023E0002A2A2A2A207465737420473932206F669E
:1023F00066736574732A2A2A2A290A286D7367531B
:1024000074657020313A204D6F76652066726F6D6D
:1024100020302C3020746F2033302C30206D6D2014
:10242000696E20706F7369746976652058206469DD
:1024300072656374696F6E290A286D7367537465DA
:102440007020323A205265736574206F7269676933
:102450006E20746F20302E30207573696E672047B0
:102460003932290A286D73675374657020333A2016
:102470004D6F766520746F2032302C302E205368DB
:102480006F756C64206D6F7665203230206D6D2025
:10249000696E20706F73697469766520582064696D
:1024A00072656374696F6E20616E64207374617409
:1024B0007573207265706F72742073686F756C64C9
:1024C0002073746172742066726F6D20302C302915
:1024D0000A286D73675374657020343A204D6F7607
:1024E0006520746F20302E3020202053686F756C6B
:1024F00064206D6F7665203230206D6D20696E200E
:102500006E656761746976652058206469726563D9
:1025100074696F6E20616E642073746174757320CA
:102520007265706F72742073686F756C6420737459
:102530006172742066726F6D2032302C30290A6708
:10254000317833300A67393278300A67317832307F
:102550000A6731783079300A2473720A6739327821
:10256000300A673470302E350A284D53472A2A2AFC
:102570002A207465737420473535206F666673654D
:1025800074732A2A2A2A290A286D7367537465707E
:1025900020313A2053657420436F6F7264696E6115
:1025A00074652073797374656D2032205B673535EF
:1025B0005D20746F206F6666736574206F662035CA
:1025C000302C3530290A286D7367537465702032BA
:1025D0003A2053656C6563742047353520636F6F0F
:1025E0007264696E6174652073797374656D290A0C
:1025F000286D73675374657020333A204D6F76658C
:1026000020746F20302C302E204865616420736860
:102610006F756C64206D6F766520646961676F6E9D
:10262000616C6C7920696E202B5820616E64202BC0
:102630005920616E642073746174757320726570C3
:102640006F72742073686F756C6420737461727438
:102650002066726F6D20302C30290A6731304C3281
:1026600070327835307935300A6735350A67307819
:102670003079300A673470302E350A284D53472A96
:102680002A2A2A20746573742047353320616273C7
:102690006F6C757465206F766572726964657320FE
:1026A0002A2A2A2A290A286D7367537465702031F3
:1026B0003A2052756E2061207371756172652069D0
:1026C0006E204735352073797374656D290A286D3E
:1026D00073675374657020323A2052756E20612002
:1026E00073717561726520772F473533206F76657A
:1026F0007272696465290A6730783079300A673008
:1027000078323079300A67307832307932300A677F
:102710003078307932300A6730783079300A67346F
:1027200070302E350A6735336730783079300A6774
:102730003533673078323079300A6735336730782F
:1027400032307932300A6735336730783079323059
:102750000A6735336730783079300A6730783079F6
:10276000300A673470302E350A284D53472A2A2AFA
:102770002A20746573742052657475726E20746FAC
:1027800020686F6D65202A2A2A2A290A286D736716
:102790005374657020313A2052657475726E2074DE
:1027A0006F20686F6D65207573696E6720473238DA
:1027B000290A286D73675374657020323A20526578
:1027C00073657420746F2047353420636F6F7264B3
:1027D0002073797374656D290A6732380A67353456
:1027E0000A6D333000284D53472A2A2A2A204D6982
:1027F00063726F737465702054657374205B7631F7
:102800005D202A2A2A2A290A4730302047313720DA
:102810004732312047343020473439204738302080
:102820004739300A6730783079307A300A7B223184
:102830006D69223A317D0A7B22326D69223A317DFF
:102840000A7B22336D69223A317D0A7B22346D691D
:10285000223A317D0A6730207831300A7B22316D8F
:1028600069223A327D0A78300A7B22316D69223A38
:10287000347D0A7831300A7B22316D69223A387D05
:102880000A78300A6730207931300A7B22326D694C
:10289000223A327D0A79300A7B22326D69223A343B
:1028A0007D0A7931300A7B22326D69223A387D0AFD
:1028B00079300A6730207A31300A7B22336D692201
:1028C0003A327D0A7A300A7B22336D69223A347DAE
:1028D0000A7A31300A7B22336D69223A387D0A7ACE
:1028E000300A6730206131300A7B22346D69223A28
:1028F000327D0A61300A7B22346D69223A347D0AC6
:102900006131300A7B22346D69223A387D0A6130A8
:102910000A6D32004E31204732300A4E352047349E
:1029200030204731370A4E3130205431204D303677
:102930000A284E3135204739302047302058302082
:102940005930205A30290A4E323020533530303039
:10295000204D3033200A4E32352058302E30363458
:102960002059302E333236205A300A4E3430204728
:102970003031204631362E300A4E35302058302E38
:102980003036342059302E3332360A4E3535205801
:10299000302E3036302059302E3239330A4E363010
:1029A0002058302E3037372059302E3236370A4EE5
:1029B00036352058302E3131312059302E323537CE
:1029C0000A4E37302058302E3134392059302E32CB
:1029D00035320A4E37352058302E313838205930AC
:1029E0002E3235350A4E38302058302E32323720CC
:1029F00059302E3236380A4E38352058302E32357E
:102A0000372059302E3237310A4E39302058302E87
:102A10003333352059302E3236350A4E3935205869
:102A2000302E3431322059302E3237310A4E313087
:102A3000302058302E3437342059302E3238370A6F
:102A40004E3130352058302E3439312059302E3225
:102A500038390A4E3131302058302E35313720592F
:102A6000302E3237330A4E3131352058302E35343E
:102A7000342059302E3236330A4E3132302058301D
:102A80002E3538302059302E3236310A4E3132351B
:102A90002058302E3539352059302E3236330A4EF3
:102AA0003133302058302E3632312059302E3237E3
:102AB000340A4E3133352058302E363539205930CE
:102AC0002E3330360A4E3134302058302E363733DC
:102AD0002059302E3333350A4E3134352058302EBC
:102AE0003637392059302E3336310A4E31353020C1
:102AF00058302E3637382059302E3338390A4E3177
:102B000035352058302E3637302059302E3432307B
:102B10000A4E3136302058302E3637302059302E7C
:102B20003434360A4E3136352058302E363830207F
:102B300059302E3437340A4E3137302058302E3742
:102B400030342059302E3439370A4E313735205839
:102B5000302E3733322059302E3531350A4E313848
:102B6000302058302E3739342059302E3533350A3D
:102B70004E3138352058302E3837322059302E35E6
:102B800036370A4E3139302058302E3935302059F9
:102B9000302E3630340A4E3139352058312E30330C
:102BA000312059302E3634370A4E323030205831E9
:102BB0002E3134392059302E3732320A4E323035E8
:102BC0002058312E3330382059302E3835340A4EC3
:102BD0003231302058312E3433302059302E3938AC
:102BE000340A4E3231352058312E343437205930A2
:102BF0002E3938360A4E3232302058312E3632389D
:102C00002059302E3832320A4E3232352058312E89
:102C10003733322059302E3731340A4E3233302098
:102C200058322E3030392059302E3338310A4E3256
:102C300033352058322E3131362059302E32363647
:102C40000A4E3234302058322E3232382059302E4B
:102C50003135370A4E3234352058322E3238302052
:102C600059302E3132330A4E3235302058322E331D
:102C700033322059302E3039340A4E32353520580F
:102C8000322E3432332059302E3037300A4E32361D
:102C9000302058322E3438392059302E3036350A0B
:102CA0004E3236352058322E3535372059302E30B9
:102CB00036360A4E3237302058322E3632372059C7
:102CC000302E3038340A4E3237352058322E3639CD
:102CD000332059302E3130390A4E323830205832B4
:102CE0002E3733302059302E3133330A4E323835B7
:102CF0002058322E3830352059302E3139300A4E96
:102D00003239302058322E3832392059302E323173
:102D1000360A4E3239352058322E38383020593064
:102D20002E3239310A4E3330302058322E38383472
:102D30002059302E3330300A4E3330352058322E61
:102D40003839382059302E3333320A4E333130205F
:102D500058322E3930352059302E3336370A4E331B
:102D600031352058322E3931302059302E34303719
:102D70000A4E3332302058322E3930382059302E16
:102D80003434360A4E3332352058322E3930312021
:102D900059302E3439350A4E3333302058322E38DC
:102DA00039372059302E3439350A4E3333352058CF
:102DB000322E3839302059302E3532340A4E3334E1
:102DC000302058322E3834322059302E3630340AE2
:102DD0004E3334352058322E3831342059302E3687
:102DE00036350A4E3335302058322E373934205993
:102DF000302E3735300A4E3335352058322E37399C
:102E0000312059302E3833380A4E3336302058327C
:102E10002E3831392059302E3937360A4E3336356F
:102E20002058322E3833372059312E3034340A4E60
:102E30003337302058322E3836322059312E313146
:102E4000320A4E3337352058322E38373720593131
:102E50002E3134350A4E3338302058322E39313243
:102E60002059312E3231370A4E3338352058322E20
:102E70003931372059312E3232360A4E333930202B
:102E800058322E3935312059312E3238310A4E33ED
:102E900039352058322E3937302059312E323935D4
:102EA0000A4E3430302058322E3939362059312EDE
:102EB0003239350A4E3430352058332E30313320F4
:102EC00059312E3237350A4E3431302058332E30B6
:102ED00032342059312E3235340A4E3431352058AF
:102EE000332E3037302059312E3135310A4E3432BD
:102EF000302058332E3037372059312E3133340AB1
:102F00004E3432352058332E3132352059312E305F
:102F100033390A4E3433302058332E313338205968
:102F2000312E3031390A4E3433352058332E323079
:102F3000352059302E3930380A4E34343020583349
:102F40002E3238322059302E3739370A4E34343544
:102F50002058332E3336312059302E3639310A4E2F
:102F60003435302058332E3432362059302E35390E
:102F7000320A4E3435352058332E34353620593008
:102F80002E3534330A4E3436302058332E34373908
:102F90002059302E3439330A4E3436352058332EEA
:102FA0003439342059302E3437320A4E34373020F9
:102FB00058332E3530352059302E3434360A4E34BD
:102FC00037352058332E3531382059302E343137AB
:102FD0000A4E3438302058332E3533302059302EB5
:102FE0003339310A4E3438352058332E35363420B3
:102FF00059302E3330300A4E3439302058332E3584
:1030000037372059302E3235330A4E34393520586F
:10301000332E3536382059302E3231320A4E353083
:10302000302058332E3534342059302E3137360A7B
:103030004E3530352058332E3534312059302E312D
:1030400034360A4E3531302058332E353533205939
:10305000302E3131390A4E3531352058332E35373F
:10306000362059302E3130360A4E35323020583322
:103070002E3539372059302E3130320A4E3532351F
:103080002058332E3631382059302E3130390A4EFF
:103090003533302058332E3633392059302E3132E3
:1030A000390A4E3533352058332E363530205930D5
:1030B0002E3135390A4E3534302058332E363633DA
:1030C0002059302E3137380A4E3534352058332EBA
:1030D0003637382059302E3139320A4E35353020C6
:1030E00058332E3639392059302E3139370A4E357A
:1030F00035352058332E3732332059302E3139367A
:103100000A4E3536302058332E3736342059302E7B
:103110003137390A4E3536352058332E3830352080
:1031200059302E3136350A4E3537302058332E3847
:1031300038342059302E3135390A4E35373520583C
:10314000332E3934392059302E3136350A4E353840
:10315000302058332E3936362059302E3137350A43
:103160004E3538352058332E3937382059302E31E6
:1031700039340A4E3539302058332E3937382059F2
:10318000302E3232330A4E3539352058332E393607
:10319000302059302E3234350A4E363030205833F4
:1031A0002E3833342059302E3331310A4E363035F3
:1031B0002058332E3736322059302E3334350A4ECC
:1031C0003631302058332E3732362059302E3338AE
:1031D000390A4E3631352058332E373033205930A6
:1031E0002E3435380A4E3632302058332E363832A7
:1031F0002059302E3533300A4E3632352058332E92
:103200003637392059302E3533340A4E3633302094
:1032100058332E3632362059302E3638310A4E3653
:1032200033352058332E3536382059302E38323841
:103230000A4E3634302058332E3434342059312E4F
:103240003038300A4E3634352058332E343035205D
:1032500059312E3136370A4E3635302058332E3418
:1032600030342059312E3136370A4E363535205814
:10327000332E3338372059312E3230380A4E363615
:10328000302058332E3338342059312E3230380A1A
:103290004E3636352058332E3336352059312E32BE
:1032A00036350A4E3637302058332E3335352059CF
:1032B000312E3238350A4E3637352058332E3334D6
:1032C000382059312E3330380A4E363830205833B2
:1032D0002E3333332059312E3335300A4E363835BC
:1032E0002058332E3332312059312E3339310A4EA2
:1032F0003639302058332E3331312059312E343283
:10330000380A4E3639352058332E33333920593167
:103310002E3432330A4E3730302058332E34343086
:103320002059312E3430360A4E3730352058332E5E
:103330003531302059312E3430380A4E3731302073
:1033400058332E3538352059312E3432310A4E3724
:1033500031352058332E3631312059312E3433391E
:103360000A4E3732302058332E3631312059312E23
:103370003434310A4E3732352058332E3631352029
:1033800059312E3434310A4E3733302058332E36EB
:1033900033362059312E3438380A4E3733352058D9
:1033A000332E3633342059312E3531370A4E3734E7
:1033B000302058332E3632322059312E3534330AEC
:1033C0004E3734352058332E3630352059312E358E
:1033D00036330A4E3735302058332E35373620599C
:1033E000312E3537350A4E3735352058332E3534A2
:1033F000342059312E3538310A4E37363020583383
:103400002E3437392059312E3539320A4E37363578
:103410002058332E3435312059312E3539380A4E63
:103420003737302058332E3338372059312E363243
:10343000360A4E3737352058332E3339302059313C
:103440002E3633360A4E3738302058332E35333245
:103450002059312E3630320A4E3738352058332E27
:103460003630312059312E3539370A4E3739302030
:1034700058332E3636382059312E3539380A4E37E2
:1034800039352058332E3738322059312E363132E3
:103490000A4E3830302058332E3739342059312EE7
:1034A0003631380A4E3830352058332E38363820E9
:1034B00059312E3633360A4E3831302058332E39B2
:1034C00031382059312E3635350A4E3831352058AD
:1034D000332E3934352059312E3636370A4E3832AC
:1034E000302058332E3936342059312E3638350AAB
:1034F0004E3832352058332E3936372059312E3652
:1035000038350A4E3833302058332E393734205965
:10351000312E3639390A4E3833352058332E393862
:10352000342059312E3732350A4E38343020583352
:103530002E3938342059312E3735380A4E38343543
:103540002058332E3937302059312E3739300A4E32
:103550003835302058332E3934352059312E383112
:10356000370A4E3835352058332E39313820593105
:103570002E3832360A4E3836302058332E3839310C
:103580002059312E3832370A4E3836352058332EEE
:103590003834322059312E3830390A4E38373020FD
:1035A00058332E3739382059312E3738340A4E38AF
:1035B00037352058332E3734362059312E373732AD
:1035C0000A4E3838302058332E3639382059312EAB
:1035D0003736340A4E3838352058332E36333520B6
:1035E00059312E3736360A4E3839302058332E3579
:1035F00035332059312E3738350A4E383935205871
:10360000332E3437382059312E3832300A4E393083
:10361000302058332E3430392059312E3836340A80
:103620004E3930352058332E3334352059312E3928
:1036300031380A4E3931302058332E323634205941
:10364000322E3032330A4E3931352058332E32344F
:10365000382059322E3035310A4E39323020583325
:103660002E3234302059322E3038310A4E3932352C
:103670002058332E3331362059322E3038360A4E08
:103680003933302058332E3339302059322E3130EF
:10369000340A4E3933352058332E343134205932E0
:1036A0002E3132310A4E3934302058332E343331F2
:1036B0002059322E3135330A4E3934352058332EC5
:1036C0003433332059322E3138300A4E39353020D8
:1036D00058332E3432372059322E3230350A4E3993
:1036E00035352058332E3431332059322E3232348E
:1036F0000A4E3936302058332E3339322059322E83
:103700003234320A4E3936352058332E3333352091
:1037100059322E3234340A4E3937302058332E3253
:1037200037382059322E3233360A4E393735205841
:10373000332E3235362059322E3234320A4E393851
:10374000302058332E3233392059322E3235310A57
:103750004E3938352058332E3231312059322E32FD
:1037600038300A4E3939302058332E313734205909
:10377000322E3335360A4E3939352058332E31350D
:10378000392059322E3339370A4E313030302058F3
:10379000332E3135302059322E3433380A4E313001
:1037A00030352058332E3134302059322E343831D0
:1037B0000A4E313031302058332E313332205932D5
:1037C0002E3531300A4E313031352058332E3131DB
:1037D000382059322E3534330A4E313032302058A9
:1037E000332E3039392059322E3537360A4E3130A2
:1037F00032352058332E3035312059322E36333180
:103800000A4E313033302058332E30303320593285
:103810002E3636360A4E313033352058322E393571
:10382000372059322E3638350A4E31303430205850
:10383000322E3930372059322E3639390A4E31304E
:1038400034352058322E3836302059322E37313127
:103850000A4E313035302058322E38313920593225
:103860002E3732370A4E313035352058322E373622
:10387000382059322E3734350A4E31303630205800
:10388000322E3731362059322E3735370A4E313005
:1038900036352058322E3637352059322E373537C7
:1038A0000A4E313037302058322E353739205932D0
:1038B0002E3733310A4E313037352058322E3537D6
:1038C000302059322E3732330A4E313038302058BA
:1038D000322E3535392059322E3732300A4E3130BA
:1038E00038352058322E3533302059322E3730318A
:1038F0000A4E313039302058322E3530312059328D
:103900002E3639330A4E313039352058322E34377D
:10391000312059322E3638330A4E3131303020586A
:10392000322E3434332059322E3636380A4E313165
:1039300030352058322E3339362059322E36333432
:103940000A4E313131302058322E3335342059323D
:103950002E3539310A4E313131352058322E33353A
:10396000322059322E3539310A4E31313230205819
:10397000322E3332352059322E3534330A4E31311E
:1039800032352058322E3331352059322E353231EE
:103990000A4E313133302058322E333037205932ED
:1039A0002E3439380A4E313133352058322E3239DF
:1039B000362059322E3436340A4E313134302058C4
:1039C000322E3239332059322E3432370A4E3131C9
:1039D00034352058322E3239352059322E3336368E
:1039E0000A4E313135302058322E3332312059329F
:1039F0002E3330330A4E313135352058322E33359F
:103A0000382059322E3234370A4E31313630205870
:103A1000322E3431392059322E3230330A4E313180
:103A200036352058322E3431392059322E3137393B
:103A30000A4E313137302058322E34303520593249
:103A40002E3135380A4E313137352058322E333643
:103A5000322059322E3132330A4E3131383020582B
:103A6000322E3335342059322E3130340A4E313132
:103A700038352058322E3335342059322E303931F2
:103A80000A4E313139302058322E333830205932F5
:103A90002E3036350A4E313139352058322E3431F8
:103AA000302059322E3035310A4E313230302058E4
:103AB000322E3431302059322E3034370A4E3132E2
:103AC00030352058322E3430352059322E303238AD
:103AD0000A4E313231302058322E343038205932AB
:103AE0002E3031300A4E313231352058322E3431B9
:103AF000362059312E3939350A4E3132323020587C
:103B0000322E3433332059312E3938320A4E313285
:103B100032352058322E3433382059312E3936334D
:103B20000A4E313233302058322E34343720593156
:103B30002E3934380A4E313233352058322E34364D
:103B4000312059312E3933380A4E31323430205831
:103B5000322E3438302059312E3933310A4E313239
:103B600034352058322E3437382059312E383939EF
:103B70000A4E313235302058322E34383720593100
:103B80002E3837350A4E313235352058322E353001
:103B9000342059312E3835340A4E313236302058DF
:103BA000322E3532372059312E3834380A4E3132E0
:103BB00036352058322E3534392059312E383439A3
:103BC0000A4E313237302058322E353737205931AE
:103BD0002E3836310A4E313237352058322E3630B3
:103BE000342059312E3836360A4E3132383020588A
:103BF000322E3633312059312E3835340A4E313297
:103C000038352058322E3634302059312E3832375C
:103C10000A4E313239302058322E36343020593164
:103C20002E3739320A4E313239352058322E36325B
:103C3000392059312E3735390A4E3133303020583A
:103C4000322E3631322059312E3732370A4E313347
:103C500030352058322E3537362059312E3639340A
:103C60000A4E313331302058322E35333620593117
:103C70002E3636320A4E313331352058322E343713
:103C8000302059312E3631360A4E313332302058F9
:103C9000322E3334352059312E3535310A4E3133F9
:103CA00032352058322E3330372059312E353231CB
:103CB0000A4E313333302058322E323630205931CB
:103CC0002E3438320A4E313333352058322E3234C6
:103CD000332059312E3437370A4E3133343020589F
:103CE000322E3232382059312E3436390A4E3133A1
:103CF00034352058322E3232322059312E34343875
:103D00000A4E313335302058322E32323820593174
:103D10002E3432350A4E313335352058322E323575
:103D2000342059312E3430350A4E31333630205854
:103D3000322E3236382059312E3337330A4E313352
:103D400036352058322E3237392059312E3334321D
:103D50000A4E313337302058322E33303820593123
:103D60002E3238370A4E313337352058322E33341D
:103D7000302059312E3235340A4E31333830205804
:103D8000322E3430372059312E3230310A4E313311
:103D900038352058322E3434312059312E313536D1
:103DA0000A4E313339302058322E343534205931CF
:103DB0002E3133310A4E313339352058322E3436D4
:103DC000302059312E3130360A4E313430302058BF
:103DD000322E3436342059312E3130320A4E3134BD
:103DE00030352058322E3437312059312E30333689
:103DF0000A4E313431302058322E34363620593084
:103E00002E3937310A4E313431352058322E34357F
:103E1000312059302E3839370A4E3134323020585B
:103E2000322E3431352059302E3739310A4E313463
:103E300032352058322E3430332059302E37363731
:103E40000A4E313433302058322E3338382059302E
:103E50002E3736350A4E313433352058322E333032
:103E6000362059302E3834310A4E3134343020580F
:103E7000322E3232322059302E3931310A4E31341D
:103E800034352058322E3131342059302E393935DD
:103E90000A4E313435302058322E303032205931EC
:103EA0002E3037360A4E313435352058312E3930E0
:103EB000352059312E3133390A4E313436302058BD
:103EC000312E3735342059312E3232330A4E3134C7
:103ED00036352058312E3633372059312E32373887
:103EE0000A4E313437302058312E3538322059318E
:103EF0002E3330310A4E313437352058312E353596
:103F0000382059312E3331350A4E3134383020586B
:103F1000312E3436302059312E3335320A4E313479
:103F200038352058312E3339392059312E33363037
:103F30000A4E313439302058312E3333382059313C
:103F40002E3335340A4E313439352058312E32383B
:103F5000372059312E3332390A4E3135303020581E
:103F6000312E3234382059312E3239340A4E31351F
:103F700030352058312E3231372059312E323534F8
:103F80000A4E313531302058312E323134205931FA
:103F90002E3235320A4E313531352058312E3137F7
:103FA000322059312E3139350A4E313532302058D0
:103FB000312E3132382059312E3133390A4E3135D4
:103FC00032352058312E3131302059312E313137B0
:103FD0000A4E313533302058302E3935382059309B
:103FE0002E3934310A4E313533352058302E383998
:103FF000312059302E3837330A4E3135343020587D
:10400000302E3832352059302E3830380A4E31357E
:1040100034352058302E3735352059302E37343747
:104020000A4E313535302058302E3631392059304E
:104030002E3633330A4E313535352058302E34374D
:10404000372059302E3532360A4E31353630205829
:10405000302E3437372059302E3532340A4E313530
:1040600036352058302E3431312059302E34373601
:104070000A4E313537302058302E33333120593005
:104080002E3435340A4E313537352058302E3237FC
:10409000382059302E3432370A4E313538302058D6
:1040A000302E3233312059302E3339370A4E3135E4
:1040B00038352058302E3138332059302E333739A7
:1040C0000A4E313539302058302E313335205930B1
:1040D0002E3336350A4E313539352058302E3037AB
:1040E000362059302E3334310A4E313630352047A0
:1040F0003030204633302E300A4E31363130204DAC
:104100003035200A4E31363135204739302058308D
:10411000205930205A300A4E31363135204D333057
:104120000A28456E64206F6620434E432050726F0C
:104130006772616D29004E312054314D360A4E327E
:10414000204731370A4E33204732310A4E38204655
:10415000313830300A4E392047310A4E3130302064
:1041600047393220582D32352E313737592D3334D7
:104170002E303732205A2D312E3030302028544501
:104180004D502C2052454D4F5645204C41544552E0
:10419000290A4E33343320582D32352E35393559CE
:1041A0002D33342E3334390A4E33343420582D32E3
:1041B000352E373031592D33342E3433360A4E33C1
:1041C000343520582D32352E373931592D33342E90
:1041D0003532300A4E33343620582D32352E3836AB
:1041E00034592D33342E3630310A4E33343720587B
:1041F0002D32352E393230592D33342E3637390A97
:104200004E33343820582D32352E393630592D332F
:10421000342E3735340A4E33343920582D32352E6A
:10422000393832592D33342E3832360A4E33353040
:1042300020582D32352E393837592D33342E383910
:10424000350A4E33353120582D32352E393736590F
:104250002D33342E3936310A4E33353220582D3233
:10426000352E393438592D33352E3032330A4E330A
:10427000353320582D32352E393033592D33352EE4
:104280003038320A4E33353420582D32352E3834FA
:1042900031592D33352E3133380A4E3335352058C8
:1042A0002D32352E373633592D33352E3139300AEC
:1042B0004E33353620582D32352E363639592D337A
:1042C000352E3233390A4E33353720582D32352EBC
:1042D000353539592D33352E3238340A4E33353889
:1042E00020582D32352E343333592D33352E333279
:1042F000350A4E33353920582D32352E3239315961
:104300002D33352E3336330A4E33363020582D3286
:10431000352E313334592D33352E3339370A4E3358
:10432000363120582D32342E393633592D33352E2F
:104330003432380A4E33363220582D32342E373745
:1043400037592D33352E3435350A4E333633205810
:104350002D32342E353737592D33352E3437370A31
:104360004E33363420582D32342E333637592D33D0
:10437000352E3439360A4E33363520582D32342E08
:10438000313434592D33352E3531310A4E333636EA
:1043900020582D32332E393039592D33352E3532C0
:1043A000320A4E33363720582D32332E36363159B5
:1043B0002D33352E3532390A4E33363820582D32CA
:1043C000332E343033592D33352E3533320A4E33B4
:1043D000363920582D32332E313333592D33352E83
:1043E0003533320A4E33373020582D32322E38359D
:1043F00033592D33352E3532370A2F4E3235313879
:1044000020473058302E333237592D33332E353242
:10441000315A2D312E3030300A4E32353139204D5F
:104420003330005465737420232564206E6F74202C
:10443000666F756E640A0000CF673322211F1B135D
:1044400001010000000000F0E0D0C010019E87CA0A
:10445000825C86D286D0801B86A0084006050609AD
:1044600001089E87CA825C86D28698840183B00840
:1044700040060540B030805F63616C63756C6174A9
:10448000655F74726170657A6F696428292066615E
:10449000696C656420746F20636F6E766572676502
:1044A000000CACCA82B0AB77AB99AA018300004084
:1044B0000640061040B800B80CACCA82B0AB77AB6F
:1044C00099AA01830000400620060840B800B8E21F
:1044D000ACCA825884138410840183737973006694
:1044E00062000000000702E66437549C4ECA4E6822
:1044F000244801C243737973006676000000000708
:1045000003026537549C4ECA4E6C243333733F7399
:104510007973006876000000000700206537549C1E
:104520004E37BA74240000E0407379730069640068
:1045300000000004003E65535511BACA4E642400C1
:10454000000000000000006E0000000000010052AA
:10455000659454774EA14FE5220000000000000052
:10456000006C696E65000001005265945401BAA1A7
:104570004FE5220000000000000000666565640051
:104580000000026665C1B4A6B4CA4E6424000000EF
:10459000000000000073746174000000007E655329
:1045A00055F3B9CA4E642400000000000000006DFD
:1045B0006163730000000097655355E5B9CA4E6406
:1045C0002400000000000000006379637300000015
:1045D00000B0655355D7B9CA4E64240000000000EE
:1045E0000000006D6F747300000000C9655355C969
:1045F000B9CA4E64240000000000000000686F6C1F
:104600006400000000E2655355BBB9CA4E64240043
:104610000000000000000076656C0000000002FB56
:1046200065C1B48AB9CA4E642400000000000000CD
:1046300000756E6974000000001266535537B6CAE3
:104640004E64240000000000000000636F6F7200E1
:104650000000002B6653557CB9CA4E64240000004C
:1046600000000000006D6F6D6F0000000044665395
:10467000556EB9CA4E6424000000000000000070AE
:104680006C616E000000005D66535560B9CA4E64EF
:104690002400000000000000007061746800000049
:1046A000007666535552B9CA4E64240000000000DB
:1046B00000000064697374000000008F6653554465
:1046C000B9CA4E6424000000000000000066726D4C
:1046D0006F00000000A866535536B9CA4E64240026
:1046E0000000006D706F006D706F7800000003C1F6
:1046F00066BBB710B9CA4E6424000000006D706F2D
:10470000006D706F7900000003C166BBB710B9CAB5
:104710004E6424000000006D706F006D706F7A00B1
:10472000000003C166BBB710B9CA4E642400000084
:10473000006D706F006D706F6100000003C166BB9B
:10474000B710B9CA4E6424000000006D706F006D90
:10475000706F6200000003C166BBB710B9CA4E6437
:1047600024000000006D706F006D706F630000002A
:1047700003C166BBB710B9CA4E64240000000070C4
:104780006F7300706F737800000003DB66AFB7EAE9
:10479000B8CA4E642400000000706F7300706F731D
:1047A0007900000003DB66AFB7EAB8CA4E642400A4
:1047B000000000706F7300706F737A00000003DBFD
:1047C00066AFB7EAB8CA4E642400000000706F7389
:1047D00000706F736100000003DB66AFB7EAB8CA10
:1047E0004E642400000000706F7300706F736200ED
:1047F000000003DB66AFB7EAB8CA4E6424000000CD
:1048000000706F7300706F736300000003DB66AFAE
:10481000B7EAB8CA4E6424000000006F6673006FE8
:1048200066737800000003F166BBB7C4B8CA4E6473
:1048300024000000006F6673006F6673790000004B
:1048400003F166BBB7C4B8CA4E6424000000006F11
:104850006673006F66737A00000003F166BBB7C42D
:10486000B8CA4E6424000000006F6673006F667360
:104870006100000003F166BBB7C4B8CA4E642400EF
:104880000000006F6673006F66736200000003F142
:1048900066BBB7C4B8CA4E6424000000006F6673DC
:1048A000006F66736300000003F166BBB7C4B8CA4B
:1048B0004E642400000000686F6D00686F6D650035
:1048C0000000000A675355B6B8A5B864240000007C
:1048D00000686F6D00686F6D78000000002367AF9F
:1048E000B7524ECA4E763A00000000686F6D0068FD
:1048F0006F6D79000000002367AFB7524ECA4E7744
:104900003A00000000686F6D00686F6D7A0000006B
:10491000002367AFB7524ECA4E783A0000000068D5
:104920006F6D00686F6D61000000002367AFB752C4
:104930004ECA4E793A00000000686F6D00686F6DD6
:1049400062000000002367AFB7524ECA4E7A3A00A9
:10495000000000686F6D00686F6D63000000002349
:1049600067AFB7524ECA4E7B3A000000000000000D
:104970000073720000000000003F67A2B89EB89B61
:10498000B864240000000000000000717200000004
:104990000000004067945484B8CA4E6424000000AC
:1049A000000000000071660000000000003F67FC8E
:1049B0004F4E4E80B86424000000000000000065E7
:1049C000720000000000003F67FC4F79B8CA4E64D7
:1049D00024000000000000000072780000000000C9
:1049E000004767945462B8CA4E6424000000000077
:1049F0000000006D736700000000004E6753554EC5
:104A00004ECA4E6424000000000000000064656689
:104A100061000000003F67FC4F0F6881566424006E
:104A20000000000000000074657374000000003F87
:104A300067FC4F4168227D642400000000000000F4
:104A400000626F6F74000000003F67FC4FDD675E1F
:104A5000B86424000000000000000068656C70006D
:104A60000000003F67FC4F7368CA4E6424000000DA
:104A7000000000000068000000000000003F67FC2C
:104A80004F7368CA4E6424000000000000000073E9
:104A9000780000000000003F67FC4F54B854B86431
:104AA000240000000031000000316D6100000003AF
:104AB000005267D6B1524ECC4E8A480000000031F9
:104AC00000000031736100000003027F677BB19C2E
:104AD0004EFBB68E486666E63F31000000317472C8
:104AE00000000003039E6733B4A6B4EFB69248F605
:104AF00028124231000000316D690000000300C738
:104B000067D6B1524EE2B78B480000004131000039
:104B10000031706F0000000300EC67D6B1524EBF49
:104B2000B78C480000803F3100000031706D0000FC
:104B30000003001A68D6B1524E7CB68D48000000C2
:104B40000032000000326D6100000003005267D6A1
:104B5000B1524ECC4E9A480000803F3200000032E5
:104B6000736100000003027F677BB19C4EFBB69E21
:104B7000486666E63F3200000032747200000003AF
:104B8000039E6733B4A6B4EFB6A248F628124232A9
:104B9000000000326D690000000300C767D6B15203
:104BA0004EE2B79B48000000413200000032706FB7
:104BB0000000000300EC67D6B1524EBFB79C48001E
:104BC0000000003200000032706D00000003001A87
:104BD00068D6B1524E7CB69D4800000000330000FC
:104BE00000336D6100000003005267D6B1524ECC15
:104BF0004EAA4800000040330000003373610000FB
:104C00000003027F677BB19C4EFBB6AE486666E64A
:104C10003F3300000033747200000003039E6733CB
:104C2000B4A6B4EFB6B2480000A03F330000003392
:104C30006D690000000300C767D6B1524EE2B7AB02
:104C400048000080403300000033706F0000000314
:104C500000EC67D6B1524EBFB7AC480000803F337E
:104C600000000033706D00000003001A68D6B152D6
:104C70004E7CB6AD480000803F34000000346D61CA
:104C800000000003005267D6B1524ECC4EBA480025
:104C90000040403400000034736100000003027FD4
:104CA000677BB19C4EFBB6BE486666E63F340000AB
:104CB0000034747200000003039E6733B4A6B4EF9F
:104CC000B6C2480000B44334000000346D690000EF
:104CD000000300C767D6B1524EE2B7BB48000000E0
:104CE000413400000034706F0000000300EC67D610
:104CF000B1524EBFB7BC4800000000340000003481
:104D0000706D00000003001A68D6B1524E7CB6BD2B
:104D100048000000007800000078616D000000038A
:104D200000656812B120B6B5B5CA480000803F786A
:104D300000000078766D0000000300816833B4A69F
:104D4000B4F7B3CF4800007A467800000078667266
:104D50000000000300A96833B4A6B4F7B3CB480041
:104D6000007A467800000078746D0000000300D1DE
:104D70006833B4A6B4F7B3D34800005C43780000AE
:104D800000786A6D0000000300F36833B4A6B4F73E
:104D9000B3D748F902954F78000000786A680000A0
:104DA000000300196933B4A6B4F7B3F348F9021548
:104DB0005078000000786A6400000003043E693304
:104DC000B4A6B4F7B3DB480AD7233C7800000078D8
:104DD000736E00000003007769D6B1524E9BB5C5D3
:104DE0003F0000803F7800000078737800000003E7
:104DF00000B969D6B1524E9BB5C63F00000040785D
:104E00000000007873760000000300FB6933B4A64D
:104E1000B4F7B3E34800803B4578000000786C7637
:104E20000000000300226A33B4A6B4F7B3E74800D9
:104E300000C84278000000786C620000000303485C
:104E40006A33B4A6B4F7B3EB480000A04178000081
:104E500000787A620000000303696A33B4A6B4F7ED
:104E6000B3EF48000040407900000079616D000018
:104E7000000300656812B120B6B5B5F748000080A0
:104E80003F7900000079766D0000000300816833EF
:104E9000B4A6B4F7B3FC4800007A46790000007964
:104EA00066720000000300A96833B4A6B4F7B3F833
:104EB0004800007A467900000079746D0000000314
:104EC00000D16833B4A6B4F7B3004900005C43795D
:104ED000000000796A6D0000000300F36833B4A697
:104EE000B4F7B30449F902954F79000000796A6874
:104EF0000000000300196933B4A6B4F7B32049F9E0
:104F000002155079000000796A6400000003043E35
:104F10006933B4A6B4F7B308490AD7233C79000033
:104F20000079736E00000003007769D6B1524E9B82
:104F3000B5C73F0000803F7900000079737800001A
:104F4000000300B969D6B1524E9BB5C83F000000BE
:104F500000790000007973760000000300FB6933DC
:104F6000B4A6B4F7B3104900803B4579000000793E
:104F70006C760000000300226A33B4A6B4F7B314C1
:104F8000490000C84279000000796C62000000030B
:104F900003486A33B4A6B4F7B318490000A04179B6
:104FA000000000797A620000000303696A33B4A646
:104FB000B4F7B31C49000040407A0000007A616DEC
:104FC0000000000300656812B120B6B5B5244900A1
:104FD00000803F7A0000007A766D000000030081B7
:104FE0006833B4A6B4F7B32949000048447A0000F6
:104FF000007A66720000000300A96833B4A6B4F713
:10500000B32549000048447A0000007A746D00001E
:10501000000300D16833B4A6B4F7B32D490000C82B
:10502000427A0000007A6A6D0000000300F36833E2
:10503000B4A6B4F7B3314920BC3E4C7A0000007AE4
:105040006A680000000300196933B4A6B4F7B34DD1
:1050500049286B6E4E7A0000007A6A6400000003F3
:10506000043E6933B4A6B4F7B335490AD7233C7A72
:105070000000007A736E00000003007769D6B15219
:105080004E9BB5C93F000000007A0000007A73789B
:105090000000000300B969D6B1524E9BB5CA3F006B
:1050A00000803F7A0000007A73760000000300FB66
:1050B0006933B4A6B4F7B33D49000048447A000010
:1050C000007A6C760000000300226A33B4A6B4F7BD
:1050D000B341490000C8427A0000007A6C620000C7
:1050E000000303486A33B4A6B4F7B345490000A0EF
:1050F000417A0000007A7A620000000303696A3393
:10510000B4A6B4F7B3494900002041610000006132
:10511000616D0000000300656812B120B6B5B5519D
:10512000490000803F6100000061766D00000003CF
:105130000081687BB19C4ECB4F564900606A476145
:105140000000006166720000000300A9687BB19C4A
:105150004ECB4F524900803B476100000061746DA7
:105160000000000300D1687BB19C4ECB4F5A490030
:1051700000C84361000000616A6D0000000300F395
:10518000687BB19C4ECB4F5E495ED0B2506100004F
:1051900000616A680000000300196933B4A6B4F71F
:1051A000B37A495ED0B25061000000616A640000C9
:1051B0000003043E697BB19C4ECB4F6249CDCCCC01
:1051C0003D610000006172610000000303896A7B99
:1051D000B19C4ECB4F66490000803F6100000061EA
:1051E000736E00000003007769D6B1524E9BB5CBB9
:1051F0003F0000803F610000006173780000000301
:1052000000B969D6B1524E9BB5CC3F000000006199
:105210000000006173760000000300FB697BB19C15
:105220004ECB4F6A490080BB4561000000616C763F
:105230000000000300226A7BB19C4ECB4F6E4900F8
:10524000007A4461000000616C62000000030348C2
:105250006A7BB19C4ECB4F72490000A040610000B8
:1052600000617A620000000303696A7BB19C4ECB47
:105270004F7649000000406200000062616D00004E
:10528000000300656812B120B6B5B57E4900000084
:10529000006200000062766D000000030081687B00
:1052A000B19C4ECB4F834900006145620000006213
:1052B00066720000000300A9687BB19C4ECB4F7F53
:1052C00049000061456200000062746D0000000347
:1052D00000D1687BB19C4ECB4F8749000080BF62F4
:1052E000000000626A6D0000000300F3687BB19C5F
:1052F0004ECB4F8B498096984B62000000626A64E7
:1053000000000003003E697BB19C4ECB4F8F490AE1
:10531000D7233C6200000062726100000003038931
:105320006A7BB19C4ECB4F93490000803F630000E5
:105330000063616D0000000300656812B120B6B51E
:10534000B5AB49000000006300000063766D00000B
:1053500000030081687BB19C4ECB4FB049000061D7
:1053600045630000006366720000000300A9687BCB
:10537000B19C4ECB4FAC4900006145630000006317
:10538000746D0000000300D1687BB19C4ECB4FB41C
:1053900049000080BF63000000636A6D00000003E5
:1053A00000F3687BB19C4ECB4FB8498096984B6315
:1053B000000000636A6400000003003E697BB19C4A
:1053C0004ECB4FBC490AD7233C6300000063726197
:1053D0000000000303896A7BB19C4ECB4FC049009B
:1053E00000803F703100007031667271000300A9C7
:1053F0006A37549C4ECB4FD8490000C842703100E8
:1054000000703163736C000300CC6A37549C4ECB40
:105410004FDC4900007A44703100007031637368DA
:10542000000300F06A37549C4ECB4FE0490000FA6D
:105430004470310000703163706C000303146B37EB
:10544000549C4ECB4FE4490000003E703100007088
:10545000316370680003033B6B37549C4ECB4FE8BD
:1054600049CDCC4C3E70310000703177736C000335
:1054700000626B37549C4ECB4FEC4900007A44706D
:105480003100007031777368000300866B37549CDD
:105490004ECB4FF0490000FA447031000070317774
:1054A000706C000303AA6B37549C4ECB4FF4490039
:1054B00000003E703100007031777068000303D146
:1054C0006B37549C4ECB4FF849CDCC4C3E703100DD
:1054D000007031706F66000303F86BC4B09C4ECB54
:1054E0004FFC49CDCCCC3D6735340067353478006E
:1054F0000003031F6C7FB3A6B4F7B3FA47000000A4
:10550000006735340067353479000003031F6C7F72
:10551000B3A6B4F7B3FE4700000000673534006758
:1055200035347A000003031F6C7FB3A6B4F7B302CF
:10553000480000000067353400673534610000031F
:10554000031F6C68B0A6B4F7B306480000000067FC
:1055500035340067353462000003031F6C68B0A661
:10556000B4F7B30A480000000067353400673534EB
:1055700063000003031F6C68B0A6B4F7B30E4800C5
:105580000000006735350067353578000003031FDC
:105590006C7FB3A6B4F7B312480000DC4267353520
:1055A0000067353579000003031F6C7FB3A6B4F79D
:1055B000B316480000DC42673535006735357A00A0
:1055C0000003031F6C7FB3A6B4F7B31A48000000B2
:1055D000006735350067353561000003031F6C68CF
:1055E000B0A6B4F7B31E4800000000673535006769
:1055F000353562000003031F6C68B0A6B4F7B32210
:10560000480000000067353500673535630000034A
:10561000031F6C68B0A6B4F7B3264800000000670B
:1056200035360067353678000003031F6C7FB3A65C
:10563000B4F7B32A480000DC4267353600673536D8
:1056400079000003031F6C7FB3A6B4F7B32E4800A4
:1056500000A041673536006735367A000003031F26
:105660006C7FB3A6B4F7B33248000020C16735366B
:105670000067353661000003031F6C68B0A6B4F7FD
:10568000B3364800000000673536006735366200E3
:105690000003031F6C68B0A6B4F7B33A48000000DB
:1056A000006735360067353663000003031F6C68FA
:1056B000B0A6B4F7B33E4800000000673537006776
:1056C000353778000003031F6C7FB3A6B4F7B342ED
:1056D0004800000000673537006735377900000360
:1056E000031F6C7FB3A6B4F7B34648000000006701
:1056F0003537006735377A000003031F6C7FB3A688
:10570000B4F7B34A48000000006735370067353703
:1057100061000003031F6C68B0A6B4F7B34E4800E5
:105720000000006735370067353762000003031F4C
:105730006C68B0A6B4F7B352480000000067353774
:105740000067353763000003031F6C68B0A6B4F729
:10575000B3564800000000673538006735387800D8
:105760000003031F6C7FB3A6B4F7B35A48000000D0
:10577000006735380067353879000003031F6C7FF8
:10578000B3A6B4F7B35E4800000000673538006781
:1057900035387A000003031F6C7FB3A6B4F7B362F9
:1057A00048000000006735380067353861000003A5
:1057B000031F6C68B0A6B4F7B3664800000000672A
:1057C00035380067353862000003031F6C68B0A6E7
:1057D000B4F7B36A48000000006735380067353811
:1057E00063000003031F6C68B0A6B4F7B36E4800F3
:1057F0000000006735390067353978000003031F62
:105800006C7FB3A6B4F7B372480000000067353967
:105810000067353979000003031F6C7FB3A6B4F726
:10582000B3764800000000673539006735397A00E3
:105830000003031F6C7FB3A6B4F7B37A48000000DF
:10584000006735390067353961000003031F6C6854
:10585000B0A6B4F7B37E4800000000673539006792
:10586000353962000003031F6C68B0A6B4F7B38239
:1058700048000000006735390067353963000003D0
:10588000031F6C68B0A6B4F7B38648000000006739
:1058900039320067393278000001031F6C7FB3A6EC
:1058A000B4CA4E192300000000673932006739324C
:1058B00079000001031F6C7FB3A6B4CA4E1D2300FC
:1058C000000000673932006739327A000001031F97
:1058D0006C7FB3A6B4CA4E212300000000673932A2
:1058E0000067393261000001031F6C68B09C4ECA2A
:1058F0004E2523000000006739320067393262000C
:105900000001031F6C68B09C4ECA4E2923000000A2
:10591000006739320067393263000001031F6C6889
:10592000B09C4ECA4E2D230000000067323800673D
:10593000323878000001033C6C7FB3A6B4CA4E61D4
:105940002300000000673238006732387900000118
:10595000033C6C7FB3A6B4CA4E6523000000006709
:105960003238006732387A000001033C6C7FB3A6FE
:10597000B4CA4E692300000000673238006732382D
:1059800061000001033C6C68B09C4ECA4E6D230060
:105990000000006732380067323862000001033CC3
:1059A0006C68B09C4ECA4E7123000000006732380C
:1059B0000067323863000001033C6C68B09C4ECA3B
:1059C0004E752300000000673330006733307800E5
:1059D0000001033C6C7FB3A6B4CA4E7923000000DB
:1059E000006733300067333079000001033C6C7F7F
:1059F000B3A6B4CA4E7D23000000006733300067B1
:105A000033307A000001033C6C7FB3A6B4CA4E81E8
:105A1000230000000067333000673330610000016D
:105A2000033C6C68B09C4ECA4E85230000000067A2
:105A300033300067333062000001033C6C68B09C77
:105A40004ECA4E89230000000067333000673330B0
:105A500063000001033C6C68B09C4ECA4E8D23006D
:105A6000000000737973006A610000000007005BAA
:105A70006CC1B4A6B4F7B300470024F4497379733A
:105A80000063740000000007047F6CC1B4A6B4F783
:105A9000B304476F12833A73797300737400000084
:105AA000000700A06CF654524E9BB5BA3F00008030
:105AB0003F737973006D74000000000700C36C949D
:105AC00054774EA14F084700000040000000006DD1
:105AD00065000000000100E76C53557BB37BB364A5
