:100000000C94A0390C94C1390C94C1390C94C139A9
:100010000C94C1390C94C1390C94C1390C94C13978
:100020000C94C1390C94C1390C94C1390C94938649
:100030000C94C1390C94C1390C94FA810C94C139D7
:100040000C94C1390C94C1390C94C1390C94C13948
:100050000C94C1390C94C1390C94C1390C94C13938
:100060000C94C1390C94198A0C94C9890C94C13927
:100070000C94A28D0C94428D0C94808D0C94C139FB
:100080000C94D0860C94C1390C94C1390C94C139AC
:100090000C94C1390C94C1390C94C1390C94C139F8
:1000A0000C94C1390C94C1390C94C1390C9457701B
:1000B0000C94BF700C94C1390C94C1390C94D0814C
:1000C0000C94C1390C94C1390C94C1390C94C139C8
:1000D0000C94C1390C94C1390C94C1390C94C139B8
:1000E0000C94DA900C94C1390C94C1390C94C13938
:1000F0000C94C1390C94C1390C94C1390C94C13998
:100100000C943D700C94A5700C9423700C948B701F
:100110000C94C1390C94C1390C94C1390C94C13977
:100120000C94C1390C94C1390C94C1390C94C13967
:100130000C94C1390C94D1840C94C1390C94C139FC
:100140000C94C1390C94C1390C94C1390C94C13947
:100150000C94C1390C94C1390C94D0900C94C139D1
:100160000C94C1390C94C1390C94C1390C94C13927
:100170000C94C1390C94C1390C94C1390C94C13917
:100180000C94C1390C94C1390C94C1390C94C13907
:100190000C94C1390C94C1390C94C1390C94C139F7
:1001A0000C9471700C94D9700C94C1390C94C139B1
:1001B0000C9489840C94C1390C94C1390C94C139C4
:1001C0000C94C1390C94C1390C94C1390C94C139C7
:1001D0000C94C1390C94C1390C94C1390C94C139B7
:1001E0000C94C1390C94C139EC6CFD6C0E6DAA6F86
:1001F000AA6F866CA76AAA6F1F6D306D416D7B6D0B
:10020000036C636DAA6F976CAA6F526DA86C7B6CC0
:10021000AA6FAA6FAA6FB96CCA6CDB6CEF85F18507
:10022000F585F985FD850186058609860D86118689
:10023000158619861D862186258639863986398652
:1002400039863986398639863986398639863986B6
:1002500039863986398639863986398639863986A6
:100260003986398639863986398639863986398696
:100270003986398639863986398639863986398686
:1002800029862D86084AD73B3BCE016E84BCBFFD34
:10029000C12F3D6C74319ABD56833DDA3D00C77F56
:1002A00011BED9E4BB4C3E916BAAAABE00000080EF
:1002B0003F05A84CCDB2D44EB93836A9020C50B97E
:1002C000918688083CA6AAAA2ABE000000803F07A3
:1002D000634236B79BD8A71A39685618AEBAAB55E1
:1002E0008C1D3CB7CC5763BD6DEDFD753EF61772A6
:1002F00031BF000000803F08000000BE9224491278
:100300003EABAAAA2ABECDCCCC4C3E00000080BE9B
:10031000ABAAAAAA3E00000000BF000000803F0078
:1003200000000000084178D3BB4387D1133D190E6C
:100330003CC3BD4282AD2B3E68EC8276BED98FE1D4
:10034000A93E4C80EFFFBE01C4FF7F3F00000000CC
:10035000006E616E00696E660073797300666200FC
:1003600000000007020D225B51294CE24ACA363DCB
:100370008ABC437379730066760000000007032986
:10038000225B51294CE24ACE363333733F73797383
:1003900000687600000000070047225B51294C3EB0
:1003A00057D2360000E040737973006964000000A2
:1003B00000040065220351A25AE24AC6360000003A
:1003C00000000000006E000000000001007922A182
:1003D00050044C7F4B0C2200000000000000006C19
:1003E000696E65000001007922A1502E577F4B0CE9
:1003F0002200000000000000006665656400000047
:10040000028D223B53FF52E24AC636000000000034
:100410000000007374617400000000A5220351EE17
:100420005BE24AC63600000000000000006D616318
:100430007300000000BE220351E05BE24AC63600B2
:10044000000000000000006379637300000000D723
:10045000220351D25BE24AC63600000000000000D1
:10046000006D6F747300000000F0220351C45BE262
:100470004AC6360000000000000000686F6C64008F
:1004800000000009230351B65BE24AC636000000B3
:10049000000000000076656C000000000222233B93
:1004A00053FD56E24AC63600000000000000007509
:1004B0006E69740000000039230351A85BE24AC64C
:1004C000360000000000000000636F6F7200000043
:1004D00000522303519A5BE24AC636000000000036
:1004E0000000006D6F6D6F000000006B2303518CE6
:1004F0005BE24AC6360000000000000000706C613C
:100500006E00000000842303517E5BE24AC6360081
:100510000000000000000070617468000000009D91
:10052000230351705BE24AC6360000000000000061
:10053000006469737400000000B6230351625BE23B
:100540004AC636000000000000000066726D6F00B1
:10055000000000CF230351545BE24AC6360000007E
:10056000006D706F006D706F7800000003E823DF8E
:1005700055D756E24AC636000000006D706F006D18
:10058000706F7900000003E823DF55D756E24AC6B2
:1005900036000000006D706F006D706F7A00000013
:1005A00003E823DF55D756E24AC636000000006D47
:1005B000706F006D706F6100000003E823DF55D796
:1005C00056E24AC636000000006D706F006D706F15
:1005D0006200000003E823DF55D756E24AC6360022
:1005E0000000006D706F006D706F6300000003E825
:1005F00023DF55D756E24AC63600000000706F73FD
:1006000000706F7378000000030224D355B156E2E6
:100610004AC63600000000706F7300706F73790077
:100620000000030224D355B156E24AC6360000004A
:1006300000706F7300706F737A000000030224D3A0
:1006400055B156E24AC63600000000706F73007064
:100650006F7361000000030224D355B156E24AC60D
:100660003600000000706F7300706F73620000004E
:10067000030224D355B156E24AC63600000000708A
:100680006F7300706F7363000000030224D355B1D1
:1006900056E24AC636000000006F6673006F66734C
:1006A00078000000031824DF558B56E24AC6360056
:1006B0000000006F6673006F667379000000031816
:1006C00024DF558B56E24AC636000000006F667381
:1006D000006F66737A000000031824DF558B56E222
:1006E0004AC636000000006F6673006F66736100D3
:1006F0000000031824DF558B56E24AC6360000007E
:10070000006F6673006F667362000000031824DFD9
:10071000558B56E24AC636000000006F6673006FC4
:10072000667363000000031824DF558B56E24AC647
:100730003600000000686F6D00686F6D6500000096
:100740000031240351465B7A56C63600000000682B
:100750006F6D00686F6D78000000004A24D355DF8C
:100760004BE24A653E00000000686F6D00686F6DE7
:1007700079000000004A24D355DF4BE24A663E0070
:10078000000000686F6D00686F6D7A000000004A1D
:1007900024D355DF4BE24A673E00000000686F6DCE
:1007A00000686F6D61000000004A24D355DF4BE202
:1007B0004A683E00000000686F6D00686F6D62005F
:1007C0000000004A24D355DF4BE24A693E00000096
:1007D00000686F6D00686F6D63000000004A24D3ED
:1007E00055DF4BE24A6A3E00000000000000007343
:1007F000720000000000006624775673567056C6DB
:1008000036000000000000000071720000000000CF
:10081000006724A1505956E24AC636000000000085
:1008200000000071660000000000006624574CDAEA
:100830004B5556C6360000000000000000657200EF
:1008400000000000006624574C4E56E24AC63600AF
:100850000000000000000072780000000000006E40
:1008600024A1503756E24AC63600000000000000BE
:10087000006D7367000000000075240351DA4BE23D
:100880004AC6360000000000000000746573740062
:100890000000006624574CB272D885D6360000009E
:1008A00000000000006465666100000000662457D7
:1008B0004C80724C58C636000000000000000062F8
:1008C0006F6F74000000006624574C4E723356C69A
:1008D00036000000000000000068656C7000000039
:1008E000006624574CE472E24AC63600000000005D
:1008F00000000068000000000000006624574CE47F
:1009000072E24AC6360000000031000000316D611D
:10091000000000030079243250DF4BE44AB73B006B
:10092000000000310000003173610000000302A6E6
:1009300024C34F294CE754BB3B6666E63F310000B9
:10094000003174720000000303C5247C52FF52DBA7
:1009500054BF3B0000A03F31000000316D69000032
:10096000000300EE243250DF4B255FB83B0000004F
:10097000413100000031706F000000030013253288
:1009800050DF4BE355B93B0000000031000000315F
:10099000706D000000030041253250DF4B0B4BBA55
:1009A0003B0000803F32000000326D610000000318
:1009B0000079243250DF4BE44AC73B0000803F32CD
:1009C0000000003273610000000302A624C34F2917
:1009D0004CE754CB3B6666E63F320000003274724F
:1009E0000000000303C5247C52FF52DB54CF3B00C0
:1009F00000A03F32000000326D690000000300EEED
:100A0000243250DF4B255FC83B000000413200001C
:100A10000032706F000000030013253250DF4BE3FB
:100A200055C93B000000003200000032706D00002C
:100A300000030041253250DF4B0B4BCA3B000080C6
:100A40003F33000000336D61000000030079243261
:100A500050DF4BE44AD73B00000040330000003336
:100A600073610000000302A624C34F294CE754DB46
:100A70003B6666E63F3300000033747200000003FB
:100A800003C5247C52FF52DB54DF3B0000A03F3300
:100A9000000000336D690000000300EE243250DFD7
:100AA0004B255FD83B000000413300000033706FDE
:100AB000000000030013253250DF4BE355D93B0003
:100AC0000000003300000033706D0000000300419F
:100AD000253250DF4B0B4BDA3B0000803F340000E7
:100AE00000346D61000000030079243250DF4BE4D4
:100AF0004AE73B00004040340000003473610000CE
:100B0000000302A624C34F294CE754EB3B6666E67C
:100B10003F340000003474720000000303C5247CDD
:100B200052FF52DB54EF3B0000B44334000000346A
:100B30006D690000000300EE243250DF4B255FE8B2
:100B40003B000000413400000034706F00000003DF
:100B50000013253250DF4BE355E93B000000003421
:100B600000000034706D000000030041253250DFAA
:100B70004B0B4BEA3B0000803F7800000078616D32
:100B800000000003006F254A4F185BE553F73B0058
:100B900000803F7800000078766D00000003008B35
:100BA000257C52FF524052FC3B0000164478000066
:100BB000007866720000000300B3257C52FF5240AB
:100BC00052F83B000016447800000078746D000075
:100BD000000300DB257C52FF524052003C0000160F
:100BE0004378000000786A6D0000000300FD257C5A
:100BF00052FF524052043C8096984B780000007897
:100C00006A68000000030023267C52FF52405220F5
:100C10003C8096984B78000000786A6400000003DE
:100C20000448267C52FF524052083CCDCC4C3D78C3
:100C300000000078736E000000030081263250DF50
:100C40004BA95333410000803F780000007873784F
:100C50000000000300C3263250DF4BA9533441008B
:100C600000000078000000787376000000030005A3
:100C7000277C52FF524052103C0000FA437800009B
:100C800000786C7600000003002C277C52FF524055
:100C900052143C0000C84278000000786C620000EA
:100CA00000030352277C52FF524052183C000000C0
:100CB0004078000000787A62000000030373277C0C
:100CC00052FF5240521C3C0000803F7900000079E6
:100CD000616D00000003006F254A4F185BE5532447
:100CE0003C0000803F7900000079766D0000000331
:100CF000008B257C52FF524052293C00001644795B
:100D00000000007966720000000300B3257C52FFEA
:100D1000524052253C000016447900000079746D61
:100D20000000000300DB257C52FF5240522D3C00A6
:100D300000164379000000796A6D0000000300FD91
:100D4000257C52FF524052313C8096984B790000EE
:100D500000796A68000000030023267C52FF52409D
:100D6000524D3C8096984B79000000796A640000EF
:100D700000030448267C52FF524052353CCDCC4CF7
:100D80003D7900000079736E000000030081263277
:100D900050DF4BA95335410000803F7900000079B6
:100DA00073780000000300C3263250DF4BA953368E
:100DB0004100000000790000007973760000000314
:100DC0000005277C52FF5240523D3C0000FA437917
:100DD000000000796C7600000003002C277C52FF95
:100DE000524052413C0000C84279000000796C62D8
:100DF000000000030352277C52FF524052453C0042
:100E000000004079000000797A620000000303735B
:100E1000277C52FF524052493C0000803F7A00003C
:100E2000007A616D00000003006F254A4F185BE5F2
:100E300053513C0000803F7A0000007A766D00003C
:100E40000003008B257C52FF524052563C00001696
:100E5000447A0000007A66720000000300B3257C2B
:100E600052FF524052523C000016447A0000007A71
:100E7000746D0000000300DB257C52FF5240525A83
:100E80003C000096427A0000007A6A6D0000000380
:100E900000FD257C52FF5240525E3C8096984B7A72
:100EA0000000007A6A68000000030023267C52FFDD
:100EB0005240527A3C8096984B7A0000007A6A64DD
:100EC000000000030448267C52FF524052623CCD91
:100ED000CC4C3D7A0000007A736E00000003008164
:100EE000263250DF4BA9533741000000007A000042
:100EF000007A73780000000300C3263250DF4BA94C
:100F00005338410000803F7A0000007A7376000079
:100F100000030005277C52FF5240526A3C0000C883
:100F2000437A0000007A6C7600000003002C277CD6
:100F300052FF5240526E3C0000C8427A0000007AD4
:100F40006C62000000030352277C52FF5240527231
:100F50003C000000407A0000007A7A620000000342
:100F60000373277C52FF524052763C0000803F6161
:100F700000000061616D00000003006F254A4F18FA
:100F80005BE5537E3C000040406100000061766DEF
:100F900000000003008B25C34F294CA94B833C0064
:100FA000C02848610000006166720000000300B3C1
:100FB00025C34F294CA94B7F3C00C0284861000045
:100FC0000061746D0000000300DB25C34F294CA9AC
:100FD0004B873C000080BF61000000616A6D00002B
:100FE000000300FD25C34F294CA94B8B3C50A9ABF6
:100FF0004F61000000616A68000000030023267C46
:1010000052FF524052A73C50A9AB4F610000006113
:101010006A6400000003044826C34F294CA94B8F83
:101020003CCDCC4C3D6100000061726100000003CA
:10103000039327C34F294CA94B933CD5B74B3E6133
:1010400000000061736E000000030081263250DF53
:101050004BA95339410000803F6100000061737863
:101060000000000300C3263250DF4BA9533A410071
:1010700000000061000000617376000000030005BD
:1010800027C34F294CA94B973C0000164461000030
:1010900000616C7600000003002C27C34F294CA987
:1010A0004B9B3C0000C84261000000616C62000084
:1010B0000003035227C34F294CA94B9F3C0000A0BB
:1010C0004061000000617A6200000003037327C3DF
:1010D0004F294CA94BA33C00000040620000006275
:1010E000616D00000003006F254A4F185BE553ABAC
:1010F0003C000000006200000062766D000000030A
:10110000008B25C34F294CA94BB03C0000614562C0
:101110000000006266720000000300B325C34F297F
:101120004CA94BAC3C000061456200000062746D4C
:101130000000000300DB25C34F294CA94BB43C0041
:101140000080BF62000000626A6D0000000300FDC5
:1011500025C34F294CA94BB83C8096984B620000A0
:1011600000626A6400000003004826C34F294CA9AE
:101170004BBC3CCDCC4C3D62000000627261000073
:101180000003039327C34F294CA94BC03C000080A8
:101190003F6300000063616D00000003006F254A9B
:1011A0004F185BE553D83C0000000063000000636B
:1011B000766D00000003008B25C34F294CA94BDD41
:1011C0003C0000614563000000636672000000039C
:1011D00000B325C34F294CA94BD93C00006145639E
:1011E00000000063746D0000000300DB25C34F297D
:1011F0004CA94BE13C000080BF63000000636A6DB6
:101200000000000300FD25C34F294CA94BE53C809D
:1012100096984B63000000636A6400000003004876
:1012200026C34F294CA94BE93CCDCC4C3D63000073
:101230000063726100000003039327C34F294CA988
:101240004BED3C0000803F703100007031667271E0
:10125000000300B3275B51294CA94B053D0000C892
:101260004270310000703163736C000300D6275B5D
:1012700051294CA94B093D00007A4470310000709F
:1012800031637368000300FA275B51294CA94B0DA9
:101290003D0000FA4470310000703163706C00034F
:1012A000031E285B51294CA94B113D0000003E70E4
:1012B000310000703163706800030345285B5129D9
:1012C0004CA94B153DCDCC4C3E70310000703177B0
:1012D000736C0003006C285B51294CA94B193D002D
:1012E000007A447031000070317773680003009019
:1012F000285B51294CA94B1D3D0000FA4470310078
:1013000000703177706C000303B4285B51294CA93D
:101310004B213D0000003E70310000703177706855
:10132000000303DB285B51294CA94B253DCDCC4C58
:101330003E703100007031706F660003030229E7D0
:101340004E294CA94B293DCDCCCC3D6735340067A7
:10135000353478000003032929B851FF5240522741
:101360003B00000000673534006735347900000326
:10137000032929B851FF5240522B3B00000000675F
:101380003534006735347A000003032929B851FF4A
:101390005240522F3B00000000673534006735345F
:1013A00061000003032929774EFF524052333B006E
:1013B00000000067353400673534620000030329FC
:1013C00029774EFF524052373B000000006735340A
:1013D0000067353463000003032929774EFF52402C
:1013E000523B3B000000006735350067353578001B
:1013F0000003032929B851FF5240523F3B00009699
:10140000426735350067353579000003032929B86F
:1014100051FF524052433B0000964267353500670A
:1014200035357A000003032929B851FF524052474D
:101430003B0000000067353500673535610000036B
:10144000032929774EFF5240524B3B0000000067B2
:1014500035350067353562000003032929774EFFD3
:101460005240524F3B00000000673535006735356C
:1014700063000003032929774EFF524052533B007B
:101480000000006735360067353678000003032911
:1014900029B851FF524052573B00000000673536D3
:1014A0000067353679000003032929B851FF5240FF
:1014B000525B3B00000000673536006735367A0026
:1014C0000003032929B851FF5240525F3B0000003E
:1014D0000067353600673536610000030329297738
:1014E0004EFF524052633B000000006735360067F4
:1014F000353662000003032929774EFF52405267B8
:101500003B00000000673536006735366300000396
:10151000032929774EFF5240526B3B0000000067C1
:1015200035370067353778000003032929B851FFA4
:101530005240526F3B000000006735370067353777
:1015400079000003032929B851FF524052733B0030
:10155000000000673537006735377A00000303293C
:1015600029B851FF524052773B00000000673537E1
:101570000067353761000003032929774EFF524089
:10158000527B3B000000006735370067353762004B
:101590000003032929774EFF5240527F3B00000091
:1015A0000067353700673537630000030329297763
:1015B0004EFF524052833B00000000673538006701
:1015C000353878000003032929B851FF524052876B
:1015D0003B000000006735380067353879000003AC
:1015E000032929B851FF5240528B3B00000000678D
:1015F0003538006735387A000003032929B851FFD0
:101600005240528F3B000000006735380067353884
:1016100061000003032929774EFF524052933B009B
:101620000000006735380067353862000003032981
:1016300029774EFF524052973B0000000067353833
:101640000067353863000003032929774EFF5240B5
:10165000529B3B0000000067353900673539780040
:101660000003032929B851FF5240529F3B0000005C
:10167000006735390067353979000003032929B837
:1016800051FF524052A33B0000000067353900670C
:1016900035397A000003032929B851FF524052A777
:1016A0003B000000006735390067353961000003F1
:1016B000032929774EFF524052AB3B0000000067E0
:1016C00035390067353962000003032929774EFF59
:1016D000524052AF3B000000006735390067353992
:1016E00063000003032929774EFF524052B33B00A9
:1016F00000000067393200673932780000010329A1
:1017000029B851FF52E24A402200000000673932F6
:101710000067393279000001032929B851FF52E2EC
:101720004A442200000000673932006739327A00EB
:101730000001032929B851FF52E24A482200000063
:1017400000673932006739326100000103292977C7
:101750004E294CE24A4C22000000006739320067F3
:10176000393262000001032929774E294CE24A50A0
:10177000220000000067393200673932630000013F
:10178000032929774E294CE24A54220000000067C1
:1017900032380067323878000001034629B851FF1B
:1017A00052E24A882200000000673238006732386F
:1017B00079000001034629B851FF52E24A8C220009
:1017C000000000673238006732387A0000010346B3
:1017D00029B851FF52E24A902200000000673238D7
:1017E0000067323861000001034629774E294CE238
:1017F0004A942200000000673238006732386200E5
:101800000001034629774E294CE24A982200000045
:1018100000673238006732386300000103462977D9
:101820004E294CE24A9C22000000006733300067DA
:10183000333078000001034629B851FF52E24AA034
:101840002200000000673330006733307900000168
:10185000034629B851FF52E24AA422000000006763
:101860003330006733307A000001034629B851FF56
:1018700052E24AA82200000000673330006733308C
:1018800061000001034629774E294CE24AAC220050
:101890000000006733300067333062000001034608
:1018A00029774E294CE24AB022000000006733300D
:1018B0000067333063000001034629774E294CE26C
:1018C0004AB42200000000737973006A61000000CE
:1018D00000070065293B53FF524052603A0050C355
:1018E0004773797300637400000000070489293B83
:1018F00053FF524052583A6F12833A737973007310
:1019000074000000000700AA291A4EDF4BA95330CB
:10191000410000000073797300656A000000000751
:1019200000CD291A4EDF4B0B4B693A0000000073C3
:101930007973006A76000000000700F9291A4EDF6B
:101940004B134A713A00008040737973007476003B
:101950000000000700502A1A4EDF4B0B4B723A0072
:1019600000803F7379730071760000000007007FEC
:101970002A1A4EDF4B454B6E3A0000000073797314
:10198000007376000000000700BD2A1A4EDF4B45A9
:101990004B7A3A0000803F7379730073690000004E
:1019A000000700FC2A5B51044CEA497B3A00007AAC
:1019B000437379730069630000000007001C2B1A51
:1019C0004EDF4BE04D6A3A0000000073797300650A
:1019D000630000000007004E2B1A4EDF4BB14D6B29
:1019E0003A0000000073797300656500000000078D
:1019F000007D2B1A4EDF4B824D6C3A0000000073C5
:101A00007973006578000000000700A12B1A4EDFF3
:101A10004B534D6D3A0000803F73797300626175DE
:101A20006400000400C92B1A4EDF4BC05F733A00FC
:101A300000A0407379730067706C00000007001607
:101A40002C1A4EDF4B454B653A000000007379734A
:101A50000067756E0000000700492C1A4EDF4B0B23
:101A60004B663A0000803F7379730067636F000034
:101A70000007007A2C1A4EDF4BE44A643A000080DB
:101A80003F737973006770610000000700AF2C1A84
:101A90004EDF4B454B673A00000040737973006797
:101AA00064690000000700EA2C1A4EDF4B0B4B68FC
:101AB0003A00000000000000006763000000000022
:101AC000006624574C905A224DC636000000000094
:101AD0000000006D740000000003001E2D3B532920
:101AE0004CA94B5C3A00409C45000000006D6C0026
:101AF0000000000304412D3B53FF524052503A0A6C
:101B0000D7A33D000000006D6100000000030461E8
:101B10002D3B53FF524052543ACDCCCC3D000000F7
:101B2000007172680000000300802D1A4EDF4BE444
:101B30004A6F3A0000A0410000000071726C000082
:101B4000000300802D1A4EDF4BE44A703A0000007B
:101B500040737973006E65740000000300802D1AD5
:101B60004EDF4BE44ADA360000000000000000734C
:101B7000653030000002006624574C044C7F4B7FD8
:101B80003A000000000000000073653031000002E0
:101B9000006624574C044C7F4B813A000000000043
:101BA00000000073653032000002006624574C04C8
:101BB0004C7F4B833A00000000000000007365304A
:101BC00033000002006624574C044C7F4B853A00DA
:101BD0000000000000000073653034000002006661
:101BE00024574C044C7F4B873A0000000000000053
:101BF0000073653035000002006624574C044C7FAA
:101C00004B893A0000000000000000736530360088
:101C10000002006624574C044C7F4B8B3A000000B6
:101C20000000000000736530370000020066245792
:101C30004C044C7F4B8D3A00000000000000007304
:101C4000653038000002006624574C044C7F4B8FEF
:101C50003A00000000000000007365303900000207
:101C6000006624574C044C7F4B913A000000000062
:101C700000000073653130000002006624574C04F8
:101C80004C7F4B933A000000000000000073653168
:101C900031000002006624574C044C7F4B953A00FB
:101CA0000000000000000073653132000002006691
:101CB00024574C044C7F4B973A0000000000000072
:101CC0000073653133000002006624574C044C7FDA
:101CD0004B993A00000000000000007365313400A9
:101CE0000002006624574C044C7F4B9B3A000000D6
:101CF00000000000007365313500000200662457C3
:101D00004C044C7F4B9D3A00000000000000007323
:101D1000653136000002006624574C044C7F4B9F0F
:101D20003A00000000000000007365313700000237
:101D3000006624574C044C7F4BA13A000000000081
:101D400000000073653138000002006624574C041F
:101D50004C7F4BA33A000000000000000073653187
:101D600039000002006624574C044C7F4BA53A0012
:101D700000000000000000736532300000020066C1
:101D800024574C044C7F4BA73A0000000000000091
:101D90000073653231000002006624574C044C7F0A
:101DA0004BA93A00000000000000007365323200C9
:101DB0000002006624574C044C7F4BAB3A000000F5
:101DC00000000000007365323300000200662457F3
:101DD0004C044C7F4BAD3A00000000000000007343
:101DE000797300000000006624574C765C2558C6C5
:101DF000360000000000000000703100000000000C
:101E0000006624574C765C2558C63600000000005A
:101E100000000031000000000000006624574C76EE
:101E20005C2558C6360000000000000000320000AB
:101E300000000000006624574C765C2558C636002A
:101E400000000000000000330000000000000066F9
:101E500024574C765C2558C6360000000000000070
:101E60000034000000000000006624574C765C251A
:101E700058C6360000000000000000780000000096
:101E80000000006624574C765C2558C636000000DA
:101E900000000000007900000000000000662457E8
:101EA0004C765C2558C63600000000000000007A21
:101EB000000000000000006624574C765C2558C6E0
:101EC000360000000000000000610000000000007B
:101ED000006624574C765C2558C63600000000008A
:101EE00000000062000000000000006624574C76ED
:101EF0005C2558C6360000000000000000630000AA
:101F000000000000006624574C765C2558C6360059
:101F1000000000000000006735340000000000668B
:101F200024574C765C2558C636000000000000009F
:101F30000067353500000000006624574C765C25AC
:101F400058C636000000000000000067353600006B
:101F50000000006624574C765C2558C63600000009
:101F600000000000006735370000000000662457BD
:101F70004C765C2558C63600000000000000006763
:101F8000353800000000006624574C765C2558C6A2
:101F90003600000000000000006735390000000036
:101FA000006624574C765C2558C6360000000000B9
:101FB00000000067393200000000006624574C76AC
:101FC0005C2558C63600000000000000006732386B
:101FD00000000000006624574C765C2558C6360089
:101FE00000000000000000673330000000000066C1
:101FF00024574C765C2558C63600000000000000CF
:10200000006D706F00000000006624574C765C2560
:1020100058C6360000000000000000706F7300001A
:102020000000006624574C765C2558C63600000038
:1020300000000000006F6673000000000066245777
:102040004C765C2558C63600000000000000006891
:102050006F6D00000000006624574C765C2558C662
:102060003600000000000000006D000000000000CD
:10207000006624574C3F5EE24AC63600000000006E
:1020800000000071000000000000006624574CE6CC
:102090005DE24AC63600000000000000006F00004C
:1020A00000000000006624574C6F5DE24AC636000F
:1020B0000000000000000024000000000000006696
:1020C00024574C845EE24AC63600000000842D8608
:1020D0002D8B2D912D972D9D2DA42D2A2A2A204E12
:1020E0004F54494345202A2A2A2052657374746943
:1020F0006E672062617564207261746520746F2060
:102100002553002A2A2A205741524E494E47202A59
:102110002A2A20496C6C6567616C206261756420B5
:10212000726174652073706563696669656400AB8C
:102130002DAF2DB32DB82DC32DCE2DDA2D2A2A2A61
:10214000205741524E494E47202A2A2A205365746F
:1021500074696E67206E6F6E2D7374616E64617248
:1021600064206D6963726F737465702076616C753D
:102170006500E32DED2DF32D242E3C2E592E792EC6
:10218000792E8F2EA52EB42EC32ED22EEF2E012FF8
:102190001A2F3B2F622F822F9C2FB62FD02FEA2F82
:1021A00004301E30303046304A304F3054305A30D0
:1021B0005F30643068306D30713079308030863017
:1021C000933099309F30A430A830B530BB30C43044
:1021D000C930CD30D130D630DC30E230E9302C009F
:1021E0000A0025733A25730025733A25312E30668F
:1021F0000025733A25312E3366002C000A00257322
:102200000025312E30660025312E3366005B666274
:102210005D20206669726D77617265206275696CF8
:10222000642531382E32660A005B66765D202066B2
:1022300069726D776172652076657273696F6E255C
:1022400031362E32660A005B68765D202068617246
:1022500064776172652076657273696F6E253136B9
:102260002E32660A005B69645D202054696E7947EE
:10227000204944253330730A004C696E65206E7521
:102280006D6265723A2531302E30660A004665650A
:102290006420726174653A2531362E336625532FDA
:1022A0006D696E0A004D616368696E6520737461C3
:1022B00074653A2020202020202025730A005261D6
:1022C00077206D616368696E652073746174653A27
:1022D00020202025730A004379636C6520737461A4
:1022E00074653A20202020202020202025730A0019
:1022F0004D6F74696F6E2073746174653A2020208D
:10230000202020202025730A0046656564686F6CD4
:10231000642073746174653A202020202020257386
:102320000A0056656C6F636974793A2531372E332C
:102330006625532F6D696E0A00556E6974733A20D5
:102340002020202020202020202020202020257335
:102350000A00436F6F7264696E61746520737973EC
:1023600074656D3A20202025730A004D6F74696FE3
:102370006E206D6F64653A202020202020202020D0
:1023800025730A00506C616E653A202020202020C1
:1023900020202020202020202025730A0050617456
:1023A00068204D6F64653A202020202020202020C6
:1023B000202025730A0044697374616E6365206D83
:1023C0006F64653A2020202020202025730A0046D3
:1023D0006565642072617465206D6F64653A2020C4
:1023E0002020202025730A002563206D6163686921
:1023F0006E6520706F736E3A2531312E336625532A
:102400000A00256320706F736974696F6E3A253115
:10241000352E336625530A00256320776F726B20B3
:102420006F66667365743A2531322E336625530A1A
:10243000004D616368696E6520686F6D696E672025
:10244000737461743A2025730A00256320617869EA
:102450007320686F6D696E672073746174653A25C7
:10246000322E30660A000071723A25640A007278D2
:102470003A25640A0025730A005B257325735D20E5
:102480006D2573206D617020746F206178697325EC
:10249000313564205B303D582C313D592C323D5A4A
:1024A0002E2E2E5D0A005B257325735D206D25732E
:1024B000207374657020616E676C652532302E3331
:1024C0006625530A005B257325735D206D257320F7
:1024D00074726176656C20706572207265766F6CBF
:1024E0007574696F6E25392E336625530A005B2596
:1024F0007325735D206D2573206D6963726F73742E
:1025000065707325313664205B312C322C342C38C5
:102510005D0A005B257325735D206D257320706F48
:102520006C617269747925313864205B303D6E6F5F
:10253000726D616C2C313D726576657273655D0AF2
:10254000005B257325735D206D257320706F7765A3
:1025500072206D616E6167656D656E7425313064E2
:10256000205B303D6F66662C313D6F6E5D0A005B0F
:10257000257325735D2025732061786973206D6F45
:102580006465253138642025530A005B2573257363
:102590005D2025732076656C6F63697479206D61A9
:1025A00078696D756D2531352E336625532F6D692C
:1025B0006E0A005B257325735D20257320666565B3
:1025C0006472617465206D6178696D756D25313552
:1025D0002E336625532F6D696E0A005B25732573B4
:1025E0005D2025732074726176656C206D61786959
:1025F0006D756D2531372E336625530A005B2573C3
:1026000025735D202573206A65726B206D61786982
:102610006D756D2531352E306625532F6D696E5ED3
:10262000330A005B257325735D202573206A65726C
:102630006B20686F6D696E672531362E30662553C5
:102640002F6D696E5E330A005B257325735D20254F
:1026500073206A756E6374696F6E20646576696154
:1026600074696F6E2531342E3466255320286C61D1
:102670007267657220697320666173746572290AD6
:10268000005B257325735D20257320737769746360
:1026900068206D696E25313764205B303D6F66665A
:1026A0002C313D686F6D696E672C323D6C696D69C8
:1026B000742C333D6C696D69742B686F6D696E673E
:1026C0005D0A005B257325735D2025732073776990
:1026D000746368206D617825313764205B303D6F0D
:1026E00066662C313D686F6D696E672C323D6C6992
:1026F0006D69742C333D6C696D69742B686F6D69FD
:102700006E675D0A005B257325735D20257320735A
:1027100065617263682076656C6F636974792531D1
:10272000362E336625532F6D696E0A005B2573259F
:10273000735D202573206C617463682076656C6F0F
:10274000636974792531372E336625532F6D696E91
:102750000A005B257325735D202573206C6174630B
:1027600068206261636B6F66662531382E3366259B
:10277000530A005B257325735D202573207A6572EB
:102780006F206261636B6F66662531392E33662573
:10279000530A005B257325735D20257320726164E5
:1027A0006975732076616C75652532302E34662527
:1027B000530A005B70316672715D2070776D206620
:1027C00072657175656E63792020202531352E3351
:1027D0006620487A0A005B703163736C5D20707705
:1027E0006D206377207370656564206C6F202531E0
:1027F000352E33662052504D0A005B70316373688A
:102800005D2070776D206377207370656564206844
:1028100069202531352E33662052504D0A005B70F9
:102820003163706C5D2070776D2063772070686114
:102830007365206C6F202531352E3366205B302E7A
:102840002E315D0A005B70316370685D2070776DBA
:1028500020637720706861736520686920253135B1
:102860002E3366205B302E2E315D0A005B7031778F
:10287000736C5D2070776D2063637720737065657E
:1028800064206C6F2531352E33662052504D0A007E
:102890005B70317773685D2070776D20636377209C
:1028A00073706565642068692531352E3366205262
:1028B000504D0A005B703177706C5D2070776D2031
:1028C000636377207068617365206C6F2531352EE6
:1028D0003366205B302E2E315D0A005B70317770DD
:1028E000685D2070776D2063637720706861736521
:1028F0002068692531352E3366205B302E2E315D00
:102900000A005B7031706F665D2070776D207068B3
:10291000617365206F66662020202531352E336671
:10292000205B302E2E315D0A005B257325735D2000
:102930002573202573206F66667365742532302EEB
:10294000336625530A005B257325735D20257320AC
:102950002573206C6F636174696F6E2531382E3377
:102960006625530A005B6A615D20206A756E637498
:10297000696F6E20616363656C65726174696F6E07
:1029800025382E306625530A005B63745D20206372
:10299000686F7264616C20746F6C6572616E6365E0
:1029A0002531362E336625530A005B73745D202073
:1029B0007377697463682074797065253138642091
:1029C0005B303D4E4F2C313D4E435D0A005B656AE6
:1029D0005D2020656E61626C65206A736F6E206D8C
:1029E0006F646525313364205B303D746578742CE9
:1029F000313D4A534F4E5D0A005B6A765D20206A86
:102A0000736F6E20766572626F73697479253135E4
:102A100064205B303D73696C656E742C313D666F6C
:102A20006F7465722C323D6D657373616765732CCD
:102A3000333D636F6E666967732C343D6C696E65F8
:102A40006E756D2C353D766572626F73655D0A003B
:102A50005B74765D20207465787420766572626F91
:102A60007369747925313564205B303D73696C6519
:102A70006E742C313D766572626F73655D0A005B22
:102A800071765D20207175657565207265706F7255
:102A90007420766572626F73697479253764205B80
:102AA000303D6F66662C313D66696C746572656495
:102AB0002C323D766572626F73655D0A005B7376DA
:102AC0005D2020737461747573207265706F727409
:102AD00020766572626F73697479253664205B3085
:102AE0003D6F66662C313D66696C74657265642C59
:102AF000323D766572626F73655D0A005B73695D76
:102B0000202073746174757320696E7465727661C8
:102B10006C2531342E3066206D730A005B69635D6D
:102B2000202069676E6F7265204352206F72204CBF
:102B300046206F6E205258253864205B303D6F660A
:102B4000662C313D43522C323D4C465D0A005B659C
:102B5000635D2020657870616E64204C4620746F40
:102B60002043524C46206F6E205458253664205B1B
:102B7000303D6F66662C313D6F6E5D0A005B6565AA
:102B80005D2020656E61626C65206563686F25312C
:102B90003864205B303D6F66662C313D6F6E5D0A98
:102BA000005B65785D2020656E61626C6520786FE2
:102BB0006E20786F666625313464205B303D6F6629
:102BC000662C313D6F6E5D0A005B626175645D204D
:102BD00055534220626175642072617465253135F8
:102BE00064205B313D393630302C323D3139323062
:102BF000302C333D33383430302C343D353736309B
:102C0000302C353D3131353230302C363D32333099
:102C10003430305D0A005B67706C5D20646566610E
:102C2000756C742067636F646520706C616E6525D8
:102C3000313064205B303D4731372C313D473138EE
:102C40002C323D4731395D0A005B67756E5D20644B
:102C5000656661756C742067636F646520756E6965
:102C60007473206D6F6465253564205B303D473299
:102C7000302C313D4732315D0A005B67636F5D2068
:102C800064656661756C742067636F646520636F4B
:102C90006F72642073797374656D253364205B31C2
:102CA0002D3620284735342D473539295D0A005BFC
:102CB0006770615D2064656661756C742067636F21
:102CC0006465207061746820636F6E74726F6C2528
:102CD0003364205B303D4736312C313D4736312E51
:102CE000312C323D4736345D0A005B6764695D20F4
:102CF00064656661756C742067636F6465206469E0
:102D00007374616E6365206D6F6465253264205B4A
:102D1000303D4739302C313D4739315D0A005B6D1C
:102D2000745D20206D696E207365676D656E74201B
:102D300074696D652531332E306620755365630ADD
:102D4000005B6D6C5D20206D696E206C696E652086
:102D50007365676D656E742531372E336625530AAA
:102D6000005B6D615D20206D696E20617263207370
:102D700065676D656E742531382E336625530A00FC
:102D800025640A00300039363030003139323030B5
:102D9000003338343030003537363030003131359B
:102DA000323030003233303430300020696E002051
:102DB0006D6D0020646567005B64697361626C65BA
:102DC000645D005B7374616E646172645D005B6975
:102DD0006E686962697465645D005B7261646975DF
:102DE000735D004E6F7420486F6D656400486F6DB1
:102DF000656400473934202D20756E6974732D7019
:102E000065722D6D696E757465206D6F646520281F
:102E1000692E652E206665656472617465206D6F2C
:102E200064652900473933202D20696E76657273F9
:102E3000652074696D65206D6F64650047393020C9
:102E40002D206162736F6C757465206469737461A1
:102E50006E6365206D6F646500473931202D2069F0
:102E60006E6372656D656E74616C20646973746104
:102E70006E6365206D6F646500473631202D2065D7
:102E8000786163742073746F70206D6F64650047A0
:102E90003634202D20636F6E74696E756F757320E4
:102EA0006D6F646500473137202D20585920706CB4
:102EB000616E6500473138202D20585A20706C61B2
:102EC0006E6500473139202D20595A20706C616E93
:102ED0006500473020202D206C696E65617220747A
:102EE0007261766572736520287365656B2900478A
:102EF0003120202D206C696E6561722066656564E5
:102F000000473220202D20636C6F636B77697365F7
:102F100020617263206665656400473320202D20A0
:102F2000636F756E74657220636C6F636B77697322
:102F30006520617263206665656400473830202D26
:102F40002063616E63656C206D6F74696F6E206DB8
:102F50006F646520286E6F6E6520616374697665A5
:102F60002900473533202D206D616368696E652027
:102F7000636F6F7264696E617465207379737465D1
:102F80006D00473534202D20636F6F7264696E6168
:102F900074652073797374656D2031004735352071
:102FA0002D20636F6F7264696E617465207379732D
:102FB00074656D203200473536202D20636F6F72A7
:102FC00064696E6174652073797374656D20330074
:102FD000473537202D20636F6F7264696E617465A9
:102FE0002073797374656D203400473538202D20A7
:102FF000636F6F7264696E61746520737973746551
:103000006D203500473539202D20636F6F7264695C
:103010006E6174652073797374656D203600473274
:1030200030202D20696E63686573206D6F646500C4
:10303000473231202D206D696C6C696D6574657245
:10304000206D6F6465004F66660053796E630050B3
:103050006C616E00446563656C00486F6C6400537E
:10306000746F700052756E00486F6C64004F666636
:10307000005374617274656400486F6D696E670017
:1030800050726F626500496E697469616C697A6932
:103090006E67005265736574004379636C65005315
:1030A000746F7000456E6400496E697469616C6983
:1030B0007A696E670052656164790053687574645B
:1030C0006F776E0053746F7000456E640052756EBA
:1030D00000486F6C640050726F6265004379636CE6
:1030E0006500486F6D696E67004A6F67006D6D001F
:1030F000696E63680074696E7967205B25535D2093
:103100006F6B3E200074696E7967205B25535D20EC
:103110006572723A2025733A2025732000456E644B
:10312000206F6620636F6D6D616E642066696C65EB
:103130000A00B431B631B831BA312A2A2A205741AF
:10314000524E494E47202A2A2A20486F6D696E67E1
:10315000206572726F723A2025532061786973205E
:1031600073657474696E677320696E636F727265DC
:103170006374002A2A2A205741524E494E47202A7A
:103180002A2A20486F6D696E67206572726F723AE5
:103190002053706563696669656420617869732886
:1031A0006573292063616E6E6F7420626520686F9D
:1031B0006D656400580059005A004100456E746501
:1031C000722024626F6F743D3120746F20656E74BD
:1031D00065722074686520626F6F74206C6F616423
:1031E00065722E0A000A0A0A232323232054696EDB
:1031F000794720424F4F54204C4F4144455220487C
:10320000656C7020232323230A000A466F72206412
:10321000657461696C65642054696E794720696ED4
:10322000666F207365653A2068747470733A2F2F47
:103230006769746875622E636F6D2F73796E746839
:1032400065746F732F54696E79472F77696B692F97
:103250000A466F7220746865206C6174657374200F
:103260006669726D77617265207365653A2068746E
:103270007470733A2F2F6769746875622E636F6D6F
:103280002F73796E746865746F732F54696E794704
:103290000A506C65617365206C6F6720616E7920E0
:1032A00069737375657320617420687474703A2F44
:1032B0002F7777772E73796E746865746F732E63CA
:1032C0006F6D2F666F72756D730A48617665206643
:1032D000756E0A00456E74657220246465666175BA
:1032E0006C74733D3120746F207265736574207443
:1032F00068652073797374656D20746F20746865D8
:1033000020666163746F72792064656661756C74A0
:103310002076616C7565732E0A546869732077692D
:103320006C6C206F766572777269746520616E7956
:10333000206368616E67657320796F7520686176B8
:1033400065206D6164652E0A000A0A0A232323237F
:103350002054696E794720524553544F52452044BA
:10336000454641554C54532048656C702023232317
:10337000230A00496E766F6B652073656C66207456
:1033800065737420627920656E746572696E67205A
:1033900024746573743D4E207768657265204E20F5
:1033A0006973206F6E65206F663A0A202024746569
:1033B00073743D312020736D6F6B65207465737479
:1033C0000A202024746573743D322020686F6D6973
:1033D0006E67207465737420202028796F75206DC6
:1033E000757374207472697020686F6D696E6720E0
:1033F0007377697463686573290A20202474657380
:10340000743D332020737175617265207465737427
:10341000202020286120736572696573206F662003
:1034200073717561726573290A2020247465737441
:103430003D34202061726320746573742020202045
:10344000202028736F6D65206C6172676520636949
:1034500072636C6573290A202024746573743D358A
:1034600020206477656C6C207465737420202020A4
:10347000286D6F766573207370616365642062796F
:103480002031207365636F6E64206477656C6C73A4
:10349000290A202024746573743D362020666565F2
:1034A00064686F6C6420746573742028656E74653D
:1034B00072202120616E64207E20746F20686F6C02
:1034C0006420616E6420726573746172742C207262
:1034D0006573706563746976656C79290A202024A8
:1034E000746573743D3720204D20636F64657320CD
:1034F000746573742020284D20636F6465732069A0
:103500006E7465726D696E676C6564207769746846
:10351000206D6F766573290A202024746573743DCD
:103520003820204A534F4E20746573742020202089
:1035300020286D6F74696F6E2074657374207275C6
:103540006E207573696E67204A534F4E20636F6D0E
:103550006D616E6473290A202024746573743D398B
:103560002020696E76657273652074696D652074BC
:103570006573740A202024746573743D31302072A1
:103580006F74617279206D6F74696F6E20746573EA
:10359000740A202024746573743D313120736D6189
:1035A0006C6C206D6F76657320746573740A2020CF
:1035B00024746573743D313220736C6F77206D6FA6
:1035C00076657320746573740A202024746573749F
:1035D0003D313320636F6F7264696E61746520736F
:1035E000797374656D206F66667365742074657396
:1035F0007420284739322C204735342D4735392956
:103600000A0A546573747320617373756D65206164
:103610002063656E7465726564205859206F726905
:1036200067696E20616E64206174206C65617374DB
:103630002038306D6D20636C656172616E6365204A
:10364000696E20616C6C20646972656374696F6E69
:10365000730A546573747320617373756D65205AB2
:1036600020686173206174206C656173742034304C
:103670006D6D20706F7369697469766520636C6520
:103680006172616E63650A5465737473207374614B
:103690007274207769746820612047302058302088
:1036A0005930205A30206D6F76650A486F6D696E0B
:1036B0006720697320746865206578636570746934
:1036C0006F6E2E204E6F20696E697469616C207078
:1036D0006F736974696F6E206F7220636C656172BD
:1036E000616E636520697320617373756D65640A2B
:1036F000000A0A0A232323232054696E79472053A2
:10370000454C4620544553542048656C7020232373
:1037100023230A0045616368202420636F6D6D6177
:103720006E642061626F766520616C736F206469DE
:1037300073706C6179732074686520746F6B656E4B
:1037400020666F7220656163682073657474696EAA
:103750006720696E205B205D20627261636B657417
:10376000730A546F20766965772073657474696E87
:10377000677320656E746572206120746F6B656E6F
:103780003A0A0A2020243C746F6B656E3E0A0A4692
:103790006F72206578616D706C6520247966722087
:1037A000746F20646973706C617920746865205946
:1037B000206D6178206665656420726174650A0A0F
:1037C000546F207570646174652073657474696EDC
:1037D000677320656E74657220746F6B656E20650B
:1037E0007175616C732076616C75653A0A0A2020E8
:1037F000243C746F6B656E3E3D3C76616C75653E36
:103800000A0A466F72206578616D706C65202479B4
:1038100066723D38303020746F2073657420746890
:10382000652059206D617820666565642072617439
:103830006520746F20383030206D6D2F6D696E7586
:1038400074650A466F7220636F6E66696775726190
:1038500074696F6E2064657461696C73207365654B
:103860003A2068747470733A2F2F676974687562B0
:103870002E636F6D2F73796E746865746F732F5438
:10388000696E79472F77696B692F54696E79472D77
:10389000436F6E66696775726174696F6E0A005472
:1038A0006865736520636F6D6D616E64732061720E
:1038B000652061637469766520666F7220636F6E40
:1038C00066696775726174696F6E3A0A20202473A5
:1038D00079732053686F772073797374656D20282E
:1038E00067656E6572616C292073657474696E67B3
:1038F000730A2020243120202053686F77206D6FB9
:10390000746F7220312073657474696E6773202838
:103910006F72207768617465766572206D6F746F61
:103920007220796F752077616E7420312C322C33C0
:103930002C34290A2020247820202053686F7720F7
:103940005820617869732073657474696E67732099
:10395000286F722077686174657665722061786976
:103960007320796F752077616E7420782C792C7AAA
:103970002C612C622C63290A2020246D20202053E6
:10398000686F7720616C6C206D6F746F7220736547
:103990007474696E67730A20202471202020536894
:1039A0006F7720616C6C2061786973207365747423
:1039B000696E67730A2020246F20202053686F7778
:1039C00020616C6C206F6666736574207365747417
:1039D000696E67730A2020242420202053686F77A3
:1039E00020616C6C2073657474696E67730A2020A3
:1039F000246820202053686F7720746869732068DA
:103A0000656C702073637265656E0A0A000A0A0AA3
:103A1000232323232054696E794720434F4E464980
:103A20004755524154494F4E2048656C702023231E
:103A300023230A000A4E6F74653A2054696E794751
:103A40002067656E657261746573206175746F6D52
:103A50006174696320737461747573207265706F2B
:103A60007274732062792064656661756C740A549F
:103A70006869732063616E206265206469736162A6
:103A80006C656420627920656E746572696E67206A
:103A90002473763D300A5365652074686520776924
:103AA0006B692062656C6F7720666F72206D6F7234
:103AB000652064657461696C732E0A0054686573CF
:103AC0006520636F6D6D616E647320617265206146
:103AD00063746976652066726F6D20746865206313
:103AE0006F6D6D616E64206C696E653A0A205E7858
:103AF00020202020202020202020202020526573FC
:103B000065742028636F6E74726F6C207829202D85
:103B100020736F6674776172652072657365740ACD
:103B200020203F2020202020202020202020202076
:103B30004D616368696E6520706F736974696F6E3B
:103B400020616E642067636F6465206D6F64656CCF
:103B50002073746174650A202024202020202020F6
:103B60002020202020202053686F7720616E642061
:103B700073657420636F6E66696775726174696FCF
:103B80006E2073657474696E67730A20202120208B
:103B900020202020202020202020204665656468E9
:103BA0006F6C64202D2073746F70206D6F74696F5B
:103BB0006E20776974686F7574206C6F73696E67B7
:103BC00020706F736974696F6E0A20207E20202038
:103BD000202020202020202020204379636C652095
:103BE0005374617274202D20726573746172742035
:103BF00066726F6D2066656564686F6C640A20206C
:103C000068202020202020202020202020205368F1
:103C10006F7720746869732068656C7020736372B5
:103C200065656E0A20202468202020202020202086
:103C30002020202053686F7720636F6E6669677558
:103C4000726174696F6E2068656C70207363726551
:103C5000656E0A20202474657374202020202020A3
:103C60002020204C6973742073656C662D74657315
:103C700074730A202024746573743D4E2020202024
:103C800020202052756E2073656C662D74657374E8
:103C9000204E0A202024686F6D653D3120202020B1
:103CA00020202052756E206120686F6D696E67203C
:103CB0006379636C650A202024646566613D312068
:103CC000202020202020526573746F726520616C63
:103CD0006C2073657474696E677320746F2022663C
:103CE0006163746F7279222064656661756C7473A8
:103CF0000A000A0A0A232323232054696E794720E5
:103D000048656C7020232323230A001F3E223E288F
:103D10003E2F3E343E3D3E483E533E5F3E6B3E7935
:103D20003E903E9F3EAC3EB83ECC3ED93EEE3EF18C
:103D30003EF43EF73E063F1B3F303F3F3F4F3F6163
:103D40003F783F873FA23FA53FA83FAB3FAE3FB183
:103D50003FB43FB73FBA3FBD3FC03FC33FD83FF03E
:103D60003F02401B40314047405F4077408940A7B9
:103D700040BC40D040D340D640D940DC40DF40E298
:103D800040E540E84006412241364148415D4175E9
:103D9000419141A541B941D44171720053595354E5
:103DA000454D205245414459004C6F6164696E672E
:103DB00020636F6E666967732066726F6D2045457C
:103DC00050524F4D00496E697469616C697A696E31
:103DD0006720636F6E6669677320746F2064656621
:103DE00061756C742073657474696E6773007B22EF
:103DF0006572223A7B226662223A25302E32662C88
:103E0000227374223A25642C226D7367223A22258C
:103E100073222C2276616C223A25647D7D0A004F44
:103E20004B004572726F720045616761696E004EAA
:103E30006F6F7000436F6D706C65746500546572D0
:103E40006D696E61746564004861726420726573A7
:103E5000657400456E64206F66206C696E65004570
:103E60006E64206F662066696C650046696C65202B
:103E70006E6F74206F70656E004D61782066696C9E
:103E8000652073697A65206578636565646564009B
:103E90004E6F2073756368206465766963650042C0
:103EA000756666657220656D707479004275666628
:103EB00065722066756C6C00427566666572206678
:103EC000756C6C202D20666174616C00496E69749C
:103ED00069616C697A696E6700456E746572696EB6
:103EE0006720626F6F74206C6F6164657200313798
:103EF00000313800313900496E7465726E616C2092
:103F00006572726F7200496E7465726E616C2072B8
:103F1000616E6765206572726F7200466C6F6174C6
:103F2000696E6720706F696E74206572726F7200BF
:103F3000446976696465206279207A65726F004908
:103F40006E76616C696420416464726573730052BB
:103F50006561642D6F6E6C79206164647265737342
:103F600000496E697469616C697A6174696F6E2069
:103F70006661696C7572650053797374656D206153
:103F80006C61726D6564004D656D6F72792066615C
:103F9000756C74206F7220636F7272757074696FC4
:103FA0006E003239003330003331003332003333A6
:103FB00000333400333500333600333700333800F4
:103FC000333900556E7265636F676E697A65642078
:103FD000636F6D6D616E64004578706563746564D0
:103FE00020636F6D6D616E64206C65747465720022
:103FF000426164206E756D62657220666F726D61DC
:104000007400496E7075742065786365656473200B
:104010006D6178206C656E67746800496E707574A8
:104020002076616C756520746F6F20736D616C6CA8
:1040300000496E7075742076616C756520746F6FC1
:10404000206C6172676500496E7075742076616CD2
:1040500075652072616E6765206572726F720049C6
:104060006E7075742076616C756520756E737570F1
:10407000706F72746564004A534F4E2073796E748A
:104080006178206572726F72004A534F4E20696EDC
:104090007075742068617320746F6F206D616E7924
:1040A000207061697273004A534F4E206F757470AF
:1040B000757420746F6F206C6F6E67004F7574207D
:1040C0006F66206275666665722073706163650055
:1040D000353200353300353400353500353600359E
:1040E00037003538003539004D6F7665206C6573C3
:1040F00073207468616E206D696E696D756D206CDA
:10410000656E677468004D6F7665206C657373200B
:104110007468616E206D696E696D756D2074696D6E
:10412000650047636F646520626C6F636B20736B1F
:1041300069707065640047636F646520696E7075AF
:1041400074206572726F720047636F6465206665E4
:10415000656472617465206572726F720047636F87
:104160006465206178697320776F7264206D69736C
:1041700073696E670047636F6465206D6F64616C7F
:104180002067726F75702076696F6C6174696F6EED
:1041900000486F6D696E67206379636C65206661A6
:1041A000696C6564004D61782074726176656C207D
:1041B0006578636565646564004D61782073706936
:1041C0006E646C65207370656564206578636565F1
:1041D0006465640041726320737065636966696336
:1041E0006174696F6E206572726F7200284D53475B
:1041F0002A2A2A2A20536D6F6B6520546573742018
:104200005B76315D202A2A2A2A290A473030204746
:104210003137204732312047343020473439204766
:104220003830204739300A6730783079307A300AB0
:10423000673030207834300A78300A7934300A799F
:10424000300A7A34300A7A300A6134300A61300A2E
:104250004730302078343020793430207A343020A0
:104260006134300A473030207830207930207A307D
:104270002061300A473031206632303020783130CA
:1042800020793130207A3130206131300A78302085
:104290007930207A302061300A4730322066313060
:1042A000303030207830207930207A343020693234
:1042B00037206A32370A47303320663130303030A9
:1042C000207830207930207A3020693237206A32E5
:1042D000370A6730783079307A300A6D3367347056
:1042E000310A6D35673470310A6D34673470310AC4
:1042F0006D33673470310A6D35673470310A6D374C
:10430000673470310A6D39673470310A6D3867343B
:1043100070310A6D390A673078310A673078300AAF
:104320006D3200284D53472A2A2A2A20486F6D698A
:104330006E672054657374205B76315D202A2A2ACB
:104340002A290A6732382E32783079307A300A6D6D
:10435000333000284D53472A2A2A2A205371756189
:10436000726573204D6F74696F6E2054657374208D
:104370005B76315D202A2A2A2A290A673030673184
:1043800037673231673430673439673830673930EE
:104390000A6730783079300A6730783230202874F4
:1043A0007261766572736520612032306D6D2073A5
:1043B000717561726520696E205820616E642059A4
:1043C000290A7932300A78300A79300A673178312F
:1043D00030663530302028647261772061203130BA
:1043E0006D6D2073717561726520696E2058206152
:1043F0006E6420592061742046353030290A7931A5
:10440000300A78300A79300A67307A3230202874DE
:104410007261766572736520612032306D6D207334
:10442000717561726520696E205820616E64205A32
:10443000290A7832300A7A300A78300A67317832BD
:10444000307932307A323066353030202866656512
:104450006420612032306D6D20646961676F6E6128
:104460006C20696E20582C205920616E64205A29D6
:104470000A783079307A300A7834307934307A34C6
:104480003020287472617665727365206120343043
:104490006D6D206375626520696E20582C2059204F
:1044A000616E64205A290A78343079307A300A787B
:1044B000307934307A34300A7834307934307A30A4
:1044C0000A783079307A34300A78307934307A307A
:1044D0000A78343079307A34300A783079307A306A
:1044E0000A6738300A6730783079300A67307831B7
:1044F0000A673078300A6D3330002F286D73672AD1
:104500002A2A2A204172632054657374205B763115
:104510005D202A2A2A2A290A4E3120673030673145
:10452000376732316734306734396738306739304C
:104530000A4E3130206730783079300A4E323020E0
:10454000663530300A4E3330206732783130792D7D
:1045500031306931302028435720323730206465AC
:104560006772656573290A4E343020673078307978
:10457000300A4E3530206733783130792D3130694B
:1045800031302028434357203930206465677265F5
:104590006573290A4E3630206730783079300A4EFC
:1045A0003830206732783230793069313020284312
:1045B00057203138302064656772656573290A4E6B
:1045C0003730206730783079300A4E383020673302
:1045D00078323079306931302028434357203138E0
:1045E000302064656772656573290A4E393020672B
:1045F00030783079300A4E39392046313230300A3D
:104600004E313030206732783079306932302028AE
:104610004357203336302064656772656573290A15
:104620004E3131302067327830793069323020288D
:1046300043572033363020616761696E290A4E3155
:104640003230206637303020284368616E6765203D
:10465000666565642072617465207768696C6520A1
:10466000696E204732206D6F74696F6E206D6F64C4
:1046700065290A4E3133302067327830793069321B
:104680003020284357203336302033726420746939
:104690006D65290A4E3134302067327830793069BF
:1046A0003230202843572033363020347468207449
:1046B000696D65290A4E31353020663530300A4E35
:1046C000313630206733783079307A34306932309F
:1046D0002028434357203336302064656772656570
:1046E000732077697468206C696E656172207472DA
:1046F0006176656C290A4E3137302067337830791E
:10470000307A306932302028434357203336302006
:10471000616761696E290A4E313830206637303062
:1047200020286D73672A2A2A2A4368616E676520EC
:10473000666565642072617465207768696C6520C0
:10474000696E204733206D6F74696F6E206D6F64E2
:10475000652A2A2A2A290A4E3139302067337830CF
:1047600079306932302028434357203336302033A4
:1047700072642074696D65290A4E323030206733C7
:10478000783079306932302028434357203336302F
:10479000203474682074696D65290A4E32313020E6
:1047A000286D73672A2A2A2A473138204576616C9A
:1047B00020746573742A2A2A2A290A4E323230203C
:1047C0004731205833302E373037205A35302E3786
:1047D000323720463530300A4E32333020473138B8
:1047E00020473032205836372E373338205A32336C
:1047F0002E3631372052323520463235300A4E328D
:104800003430206738300A4E323530206730783007
:1048100079307A300A4E323630206D333000284DF0
:1048200053472A2A2A2A204477656C6C20546573E2
:1048300074205B76315D202A2A2A2A290A673030C3
:104840006731376732316739300A6735350A673083
:10485000783079300A663530300A67307831300A7E
:10486000673470310A67307832300A673470310A41
:1048700067307831300A673470310A673078303009
:104880000A673470310A79350A6735340A67307837
:104890003079300A6D330A673470310A6730783105
:1048A000307931300A6D350A673470310A673078F3
:1048B00032307932300A6D340A673470310A673029
:1048C0007833307933300A6D380A673470310A67CB
:1048D000307834307934300A6D390A673470310AEF
:1048E00067307835307935300A6730783079300A7A
:1048F0006D333000284D53472A2A2A2A2046656501
:1049000064686F6C642054657374205B76315D203D
:104910002A2A2A2A290A284D53472A2A2A2A204D98
:10492000616E75616C6C7920656E746572202120F2
:10493000616E64207E20647572696E67206D6F768B
:10494000656D656E7420746F2074657374202A2AF7
:104950002A2A290A6735350A6730783079300A679C
:104960003470330A6730306731376732316734303B
:104970006734396738306739300A663630300A674D
:1049800030783130307637362E3736350A78307910
:10499000300A6735340A6730783079300A6D333041
:1049A00000284D53472A2A2A2A204D636F646573D5
:1049B0002074657374205B76315D202A2A2A2A29A7
:1049C0000A6735350A6730783079300A6D330A67FF
:1049D0003470310A6D350A673470310A6D340A67F4
:1049E0003470310A6D350A673470310A6D370A67E1
:1049F0003470310A6D390A673470310A6D380A67CC
:104A00003470310A6D390A663530300A67307832D1
:104A1000300A7932300A6D330A78300A6D340A79F7
:104A2000300A6D350A67317831300A6D370A7931CD
:104A3000300A6D380A78300A6D390A79300A6732DF
:104A4000783130792D31306931300A6D330A673071
:104A5000783079300A6D340A6733783130792D3106
:104A6000306931300A6D350A6730783079300A6D37
:104A7000370A673278323079306931300A6D380A56
:104A80006730783079300A6D390A67337832307997
:104A9000306931300A6730783079300A67327830DF
:104AA00079306931300A6733783079306931300ACA
:104AB0006735340A6730783079300A6D3330007BDF
:104AC000226763223A2267303067313767323167B5
:104AD0003430673439673830673930227D0A7B22B9
:104AE0006763223A22673535227D0A7B226763227B
:104AF0003A22673078307930227D0A7B2267632240
:104B00003A2266353030227D0A7B226763223A22C0
:104B1000284D53477371756172657329227D0A7B35
:104B2000226763223A226730783230227D0A7B2264
:104B30006763223A22793230227D0A7B2267632220
:104B40003A227830227D0A7B226763223A2279302A
:104B5000227D0A7B226763223A2267317831302234
:104B60007D0A7B226763223A22793130227D0A7BDB
:104B7000226763223A227830227D0A7B22676322F1
:104B80003A227930227D0A7B226763223A22284D1D
:104B90005347636972636C657329227D0A7B2267C0
:104BA00063223A226732783130792D3130693130E1
:104BB000227D0A7B226763223A226730783079307F
:104BC000227D0A7B226763223A226733783130796B
:104BD0002D3130693130227D0A7B226763223A22EF
:104BE000673078307930227D0A7B226763223A224F
:104BF00067327832307930693130227D0A7B226722
:104C000063223A22673078307930227D0A7B22672E
:104C100063223A2267337832307930693130227D2D
:104C20000A7B226763223A22673078307930227D0E
:104C30000A7B226763223A22673278307930693101
:104C400030227D0A7B226763223A226733783079EB
:104C500030693130227D0A7B226763223A22673530
:104C600034227D0A7B226763223A226730783079CA
:104C700030227D0A7B226763223A226D3330227D07
:104C800000284D53472A2A2A2A20496E76657273D6
:104C9000652054696D65204D6F74696F6E20546591
:104CA0007374205B76315D202A2A2A2A290A67300C
:104CB00030673137673231673430673439673830BD
:104CC0006739300A6735350A6730783079300A67D6
:104CD00039330A66302E30310A67317831300A793B
:104CE00031300A7A31300A6131300A78300A79304D
:104CF0000A7A300A61300A67317831307931307A96
:104D00002D31306131300A6730783079307A306156
:104D1000300A66302E310A6732783130792D3130E1
:104D20007A2D32306931300A6730783079307A3014
:104D30000A6733783130792D31307A2D323069314C
:104D4000300A6730783079307A300A67327832301A
:104D500079307A2D32306931300A673078307930E5
:104D60007A300A673378323079306931300A673007
:104D7000783079307A300A6732783079307A2D336A
:104D8000306931300A6733783079307A30693130C0
:104D90000A6730783079307A300A67327830793083
:104DA00069323020284357203336302064656772DB
:104DB000656573290A673378307930693230202885
:104DC0004343572033363020646567726565732925
:104DD0000A6739340A6735340A6730783079300A1F
:104DE0006D333000284D53472A2A2A2A20526F74E7
:104DF0006172792041786973204D6F74696F6E20FC
:104E000054657374205B76315D202A2A2A2A290A88
:104E1000673030673137673231673430673439672C
:104E200038306739300A6730783079307A3061301D
:104E3000623063300A6735350A6730783079300A76
:104E40006633363030300A6730613336300A6233C9
:104E500036300A633336300A61300A62300A633012
:104E60000A673161313434300A62313434300A63D4
:104E7000313434300A61300A62300A63300A6731F3
:104E8000613134343062373230633336300A78304F
:104E900079307A306130623063300A673178363089
:104EA000613134343062373230633336300A78302F
:104EB00079307A306130623063300A673178363069
:104EC00079353061313434306237323063333630E3
:104ED0000A783079307A306130623063300A673175
:104EE0007836307935307832356131343430623764
:104EF0003230633336300A783079307A306130625C
:104F00003063300A6735340A6730783079300A6D9B
:104F1000333000284D53472A2A2A2A2054657374B7
:104F200020766572792073686F7274206D6F766574
:104F300073205B76315D202A2A2A2A290A67307875
:104F40003079300A673470302E350A673178302E68
:104F50003166313030300A78300A78302E310A78B4
:104F6000300A78302E310A78300A78302E310A78BB
:104F7000300A78302E310A78300A78302E310A78AB
:104F8000300A78302E310A78300A78302E310A789B
:104F9000300A78302E310A78300A78302E310A788B
:104FA000300A78302E310A78300A78302E310A787B
:104FB000300A78302E310A78300A78302E310A786B
:104FC000300A78302E310A673470302E350A783046
:104FD0000A78302E30310A78300A78302E30310A93
:104FE00078300A78302E30310A78300A78302E3016
:104FF000310A78300A78302E30310A78300A783029
:105000002E30310A78300A78302E30310A78300A62
:1050100078302E30310A78300A78302E30310A78E4
:10502000300A78302E30310A78300A78302E30311C
:105030000A78300A78302E30310A78300A78302EEB
:1050400030310A78300A78302E30310A67307830C3
:1050500079300A6D3200284D53472A2A2A2A2054D3
:10506000657374206163637572616379206F662074
:10507000736C6F77206D6F766573205B76315D2082
:105080002A2A2A2A290A6735350A67307830793082
:105090000A673470302E350A673470302E350A674F
:1050A000317831306632320A6735340A6730783009
:1050B00079300A6D333000284D53472A2A2A2A2096
:1050C000436F6F7264696E617465206F66667365A5
:1050D00074732074657374205B76315D202A2A2AEC
:1050E0002A290A67303067313767323167343067D1
:1050F00034396738306739300A6735340A673932EE
:10510000783079307A300A663630300A284D534785
:105110002A2A2A2A207465737420473932206F6640
:1051200066736574732A2A2A2A290A286D736753BD
:1051300074657020313A204D6F76652066726F6D10
:1051400020302C3020746F2033302C30206D6D20B7
:10515000696E20706F736974697665205820646980
:1051600072656374696F6E290A286D73675374657D
:105170007020323A205265736574206F72696769D6
:105180006E20746F20302E30207573696E67204753
:105190003932290A286D73675374657020333A20B9
:1051A0004D6F766520746F2032302C302E2053687E
:1051B0006F756C64206D6F7665203230206D6D20C8
:1051C000696E20706F736974697665205820646910
:1051D00072656374696F6E20616E642073746174AC
:1051E0007573207265706F72742073686F756C646C
:1051F0002073746172742066726F6D20302C3029B8
:105200000A286D73675374657020343A204D6F76A9
:105210006520746F20302E3020202053686F756C0D
:1052200064206D6F7665203230206D6D20696E20B0
:105230006E6567617469766520582064697265637C
:1052400074696F6E20616E6420737461747573206D
:105250007265706F72742073686F756C64207374FC
:105260006172742066726F6D2032302C30290A67AB
:10527000317833300A67393278300A673178323022
:105280000A6731783079300A2473720A67393278C4
:10529000300A673470302E350A284D53472A2A2A9F
:1052A0002A207465737420473535206F66667365F0
:1052B00074732A2A2A2A290A286D73675374657021
:1052C00020313A2053657420436F6F7264696E61B8
:1052D00074652073797374656D2032205B67353592
:1052E0005D20746F206F6666736574206F6620356D
:1052F000302C3530290A286D73675374657020325D
:105300003A2053656C6563742047353520636F6FB1
:105310007264696E6174652073797374656D290AAE
:10532000286D73675374657020333A204D6F76652E
:1053300020746F20302C302E204865616420736803
:105340006F756C64206D6F766520646961676F6E40
:10535000616C6C7920696E202B5820616E64202B63
:105360005920616E64207374617475732072657066
:105370006F72742073686F756C64207374617274DB
:105380002066726F6D20302C30290A6731304C3224
:1053900070327835307935300A6735350A673078BC
:1053A0003079300A673470302E350A284D53472A39
:1053B0002A2A2A207465737420473533206162736A
:1053C0006F6C757465206F766572726964657320A1
:1053D0002A2A2A2A290A286D736753746570203196
:1053E0003A2052756E206120737175617265206973
:1053F0006E204735352073797374656D290A286DE1
:1054000073675374657020323A2052756E206120A4
:1054100073717561726520772F473533206F76651C
:105420007272696465290A6730783079300A6730AA
:1054300078323079300A67307832307932300A6722
:105440003078307932300A6730783079300A673412
:1054500070302E350A6735336730783079300A6717
:105460003533673078323079300A673533673078D2
:1054700032307932300A67353367307830793230FC
:105480000A6735336730783079300A673078307999
:10549000300A673470302E350A284D53472A2A2A9D
:1054A0002A20746573742052657475726E20746F4F
:1054B00020686F6D65202A2A2A2A290A286D7367B9
:1054C0005374657020313A2052657475726E207481
:1054D0006F20686F6D65207573696E67204732387D
:1054E000290A286D73675374657020323A2052651B
:1054F00073657420746F2047353420636F6F726456
:105500002073797374656D290A6732380A673534F8
:105510000A6D333000284D53472A2A2A2A204D6924
:1055200063726F737465702054657374205B763199
:105530005D202A2A2A2A290A47303020473137207D
:105540004732312047343020473439204738302023
:105550004739300A6730783079307A300A7B223127
:105560006D69223A317D0A7B22326D69223A317DA2
:105570000A7B22336D69223A317D0A7B22346D69C0
:10558000223A317D0A6730207831300A7B22316D32
:1055900069223A327D0A78300A7B22316D69223ADB
:1055A000347D0A7831300A7B22316D69223A387DA8
:1055B0000A78300A6730207931300A7B22326D69EF
:1055C000223A327D0A79300A7B22326D69223A34DE
:1055D0007D0A7931300A7B22326D69223A387D0AA0
:1055E00079300A6730207A31300A7B22336D6922A4
:1055F0003A327D0A7A300A7B22336D69223A347D51
:105600000A7A31300A7B22336D69223A387D0A7A70
:10561000300A6730206131300A7B22346D69223ACA
:10562000327D0A61300A7B22346D69223A347D0A68
:105630006131300A7B22346D69223A387D0A61304B
:105640000A6D32004E31204732300A4E3520473441
:1056500030204731370A4E3130205431204D30361A
:105660000A284E3135204739302047302058302025
:105670005930205A30290A4E3230205335303030DC
:10568000204D3033200A4E32352058302E303634FB
:105690002059302E333236205A300A4E34302047CB
:1056A0003031204631362E300A4E35302058302EDB
:1056B0003036342059302E3332360A4E35352058A4
:1056C000302E3036302059302E3239330A4E3630B3
:1056D0002058302E3037372059302E3236370A4E88
:1056E00036352058302E3131312059302E32353771
:1056F0000A4E37302058302E3134392059302E326E
:1057000035320A4E37352058302E3138382059304E
:105710002E3235350A4E38302058302E323237206E
:1057200059302E3236380A4E38352058302E323520
:10573000372059302E3237310A4E39302058302E2A
:105740003333352059302E3236350A4E393520580C
:10575000302E3431322059302E3237310A4E31302A
:10576000302058302E3437342059302E3238370A12
:105770004E3130352058302E3439312059302E32C8
:1057800038390A4E3131302058302E3531372059D2
:10579000302E3237330A4E3131352058302E3534E1
:1057A000342059302E3236330A4E313230205830C0
:1057B0002E3538302059302E3236310A4E313235BE
:1057C0002058302E3539352059302E3236330A4E96
:1057D0003133302058302E3632312059302E323786
:1057E000340A4E3133352058302E36353920593071
:1057F0002E3330360A4E3134302058302E3637337F
:105800002059302E3333350A4E3134352058302E5E
:105810003637392059302E3336310A4E3135302063
:1058200058302E3637382059302E3338390A4E3119
:1058300035352058302E3637302059302E3432301E
:105840000A4E3136302058302E3637302059302E1F
:105850003434360A4E3136352058302E3638302022
:1058600059302E3437340A4E3137302058302E37E5
:1058700030342059302E3439370A4E3137352058DC
:10588000302E3733322059302E3531350A4E3138EB
:10589000302058302E3739342059302E3533350AE0
:1058A0004E3138352058302E3837322059302E3589
:1058B00036370A4E3139302058302E39353020599C
:1058C000302E3630340A4E3139352058312E3033AF
:1058D000312059302E3634370A4E3230302058318C
:1058E0002E3134392059302E3732320A4E3230358B
:1058F0002058312E3330382059302E3835340A4E66
:105900003231302058312E3433302059302E39384E
:10591000340A4E3231352058312E34343720593044
:105920002E3938360A4E3232302058312E3632383F
:105930002059302E3832320A4E3232352058312E2C
:105940003733322059302E3731340A4E323330203B
:1059500058322E3030392059302E3338310A4E32F9
:1059600033352058322E3131362059302E323636EA
:105970000A4E3234302058322E3232382059302EEE
:105980003135370A4E3234352058322E32383020F5
:1059900059302E3132330A4E3235302058322E33C0
:1059A00033322059302E3039340A4E3235352058B2
:1059B000322E3432332059302E3037300A4E3236C0
:1059C000302058322E3438392059302E3036350AAE
:1059D0004E3236352058322E3535372059302E305C
:1059E00036360A4E3237302058322E36323720596A
:1059F000302E3038340A4E3237352058322E363970
:105A0000332059302E3130390A4E32383020583256
:105A10002E3733302059302E3133330A4E32383559
:105A20002058322E3830352059302E3139300A4E38
:105A30003239302058322E3832392059302E323116
:105A4000360A4E3239352058322E38383020593007
:105A50002E3239310A4E3330302058322E38383415
:105A60002059302E3330300A4E3330352058322E04
:105A70003839382059302E3333320A4E3331302002
:105A800058322E3930352059302E3336370A4E33BE
:105A900031352058322E3931302059302E343037BC
:105AA0000A4E3332302058322E3930382059302EB9
:105AB0003434360A4E3332352058322E39303120C4
:105AC00059302E3439350A4E3333302058322E387F
:105AD00039372059302E3439350A4E333335205872
