:100000000C94F1390C94123A0C94123A0C94123A62
:100010000C94123A0C94123A0C94123A0C94123A30
:100020000C94123A0C94123A0C94123A0C9471B744
:100030000C94123A0C94123A0C94EAAC0C94123AC6
:100040000C94123A0C94123A0C94123A0C94123A00
:100050000C94123A0C94123A0C94123A0C94123AF0
:100060000C94123A0C94B3BC0C945DBC0C94123AF0
:100070000C945FC30C94E7C20C942FC30C94123AF7
:100080000C94C7B70C94123A0C94123A0C94123A8E
:100090000C94123A0C94123A0C94123A0C94123AB0
:1000A0000C94123A0C94123A0C94123A0C94CD8D92
:1000B0000C94918E0C94123A0C94123A0C9431AF29
:1000C0000C94123A0C94123A0C94123A0C94123A80
:1000D0000C94123A0C94123A0C94123A0C94123A70
:1000E0000C943ACA0C94123A0C94123A0C94123AA8
:1000F0000C94123A0C94123A0C94123A0C94123A50
:100100000C949C8D0C94608E0C946B8D0C942F8EA3
:100110000C94123A0C94123A0C94123A0C94123A2F
:100120000C94123A0C94123A0C94123A0C94123A1F
:100130000C94123A0C94DDAE0C94123A0C94123AD0
:100140000C94123A0C94123A0C94123A0C94123AFF
:100150000C94123A0C94123A0C942ACA0C94123A47
:100160000C94123A0C94123A0C94123A0C94123ADF
:100170000C94123A0C94123A0C94123A0C94123ACF
:100180000C94123A0C94123A0C94123A0C94123ABF
:100190000C94123A0C94123A0C94123A0C94123AAF
:1001A0000C94FE8D0C94C28E0C94123A0C94123A5C
:1001B0000C9464AF0C94123A0C94123A0C94123AC8
:1001C0000C94123A0C94123A0C94123A0C94123A7F
:1001D0000C94123A0C94123A0C94123A0C94123A6F
:1001E0000C94123A0C94123A084AD73B3BCE016E5B
:1001F00084BCBFFDC12F3D6C74319ABD56833DDA7E
:100200003D00C77F11BED9E4BB4C3E916BAAAABE8C
:10021000000000803F05A84CCDB2D44EB93836A9B5
:10022000020C50B9918688083CA6AAAA2ABE0000F2
:1002300000803F07634236B79BD8A71A3968561823
:10024000AEBAAB558C1D3CB7CC5763BD6DEDFD759B
:100250003EF6177231BF000000803F08000000BE6C
:10026000922449123EABAAAA2ABECDCCCC4C3E0069
:10027000000080BEABAAAAAA3E00000000BF00009A
:1002800000803F0000000000084178D3BB4387D1C5
:10029000133D190E3CC3BD4282AD2B3E68EC827605
:1002A000BED98FE1A93E4C80EFFFBE01C4FF7F3F66
:1002B00000000000006E616E00696E660020696ECD
:1002C00000206D6D002064656700BD02C102C5029B
:1002D000473230202D20696E63686573206D6F642E
:1002E0006500473231202D206D696C6C696D657435
:1002F0006572206D6F646500D002E202496E697418
:1003000069616C697A696E6700526561647900534E
:10031000687574646F776E0053746F7000456E6417
:100320000052756E00486F6C640050726F62650019
:100330004379636C6500486F6D696E67004A6F674B
:1003400000FC0209030F0318031D03210325032AE0
:1003500003300336033D03496E697469616C697A41
:10036000696E67005265736574004379636C65005C
:1003700053746F7000456E6400570364036A037022
:100380000375034F666600537461727465640048B8
:100390006F6D696E670050726F626500830387033B
:1003A0008F03960353746F700052756E00486F6C24
:1003B0006400A403A903AD034F66660053796E631E
:1003C00000506C616E00446563656C00486F6C643E
:1003D00000B803BC03C103C603CC034E6F742048AE
:1003E0006F6D656400486F6D656400DB03E5033085
:1003F0000039363030003139323030003338343063
:10040000300035373630300031313532303000325F
:10041000333034303000EF03F103F603FC03020401
:1004200008040F0444697361626C6564004E4F20D8
:10043000686F6D696E67004E4F20686F6D696E67FB
:100440002026206C696D6974004E4320686F6D69C9
:100450006E67004E4320686F6D696E672026206CC2
:10046000696D69740024042D04370449045304475A
:100470003533202D206D616368696E6520636F6F71
:100480007264696E6174652073797374656D004779
:100490003534202D20636F6F7264696E617465203E
:1004A00073797374656D203100473535202D2063D5
:1004B0006F6F7264696E6174652073797374656DB2
:1004C000203200473536202D20636F6F7264696ECD
:1004D0006174652073797374656D20330047353717
:1004E000202D20636F6F7264696E6174652073796B
:1004F0007374656D203400473538202D20636F6F8D
:100500007264696E6174652073797374656D2035EA
:1005100000473539202D20636F6F7264696E6174F6
:10052000652073797374656D2036006F048F04A99C
:1005300004C304DD04F7041105473020202D206C8E
:10054000696E6561722074726176657273652028C8
:100550007365656B2900473120202D206C696E651D
:100560006172206665656400473220202D20636C2F
:100570006F636B776973652061726320666565647C
:1005800000473320202D20636F756E7465722063E1
:100590006C6F636B77697365206172632066656554
:1005A0006400473830202D2063616E63656C206DD8
:1005B0006F74696F6E206D6F646520286E6F6E6555
:1005C00020616374697665290039055605680581DF
:1005D00005A205473137202D20585920706C616ED7
:1005E0006500473138202D20585A20706C616E65A7
:1005F00000473139202D20595A20706C616E6500FA
:10060000D305E205F105473631202D206578616379
:10061000742073746F70206D6F6465004736312EDF
:1006200031202D2065786163742070617468206DBD
:100630006F646500473634202D20636F6E74696ED9
:10064000756F7573206D6F646500060606063406C7
:10065000473930202D206162736F6C75746520649A
:10066000697374616E6365206D6F6465004739312D
:10067000202D20696E6372656D656E74616C2064F7
:10068000697374616E6365206D6F64650050066DFB
:1006900006473934202D20756E6974732D7065728C
:1006A0002D6D696E757465206D6F64652028692EE7
:1006B000652E206665656472617465206D6F646582
:1006C0002900473933202D20696E766572736520C5
:1006D00074696D65206D6F6465009106C2065B6488
:1006E000697361626C65645D005B7374616E646103
:1006F00072645D005B696E686962697465645D005F
:100700005B7261646975735D00DE06E906F40600DC
:10071000070025640A0025660A0025730A005B6647
:10072000625D20206669726D77617265206275690D
:100730006C642531382E32660A005B66765D2020B7
:100740006669726D776172652076657273696F6E26
:100750002531362E32660A005B68765D202068619E
:100760007264776172652076657273696F6E253188
:10077000362E32660A005B69645D202054696E790A
:1007800047204944253330730A005B6A615D2020AD
:100790006A756E6374696F6E20616363656C657200
:1007A0006174696F6E25382E306625530A005B6DC3
:1007B0006C5D20206D696E206C696E6520736567C5
:1007C0006D656E742531372E336625530A005B6DD7
:1007D000615D20206D696E20617263207365676DB5
:1007E000656E742531382E336625530A005B6374B9
:1007F0005D202063686F7264616C20746F6C657239
:10080000616E63652531362E336625530A005B6DB4
:10081000735D20206D696E207365676D656E742051
:1008200074696D652531332E306620755365630A12
:10083000005B73745D20207377697463682074793A
:10084000706525313864205B303D4E4F2C313D4E74
:10085000435D0A005B73695D202073746174757376
:1008600020696E74657276616C2531342E30662095
:100870006D730A005B69635D202069676E6F726546
:10088000204352206F72204C46206F6E2052582514
:100890003864205B303D6F66662C313D43522C320C
:1008A0003D4C465D0A005B65635D202065787061A4
:1008B0006E64204C4620746F2043524C46206F6E6D
:1008C000205458253664205B303D6F66662C313DE0
:1008D0006F6E5D0A005B65655D2020656E61626C10
:1008E00065206563686F25313864205B303D6F6635
:1008F000662C313D6F6E5D0A005B65785D2020657A
:100900006E61626C6520786F6E20786F6666253147
:100910003464205B303D6F66662C313D6F6E5D0A3E
:10092000005B656A5D2020656E61626C65206A739C
:100930006F6E206D6F646525313364205B303D74CC
:100940006578742C313D4A534F4E5D0A005B6A76E0
:100950005D20206A736F6E20766572626F736974B2
:100960007925313564205B303D73696C656E742C7C
:10097000313D666F6F7465722C323D6D65737361C6
:100980006765732C333D636F6E666967732C343D06
:100990006C696E656E756D2C353D766572626F7330
:1009A000655D0A005B74765D20207465787420763E
:1009B0006572626F7369747925313564205B303DEF
:1009C00073696C656E742C313D766572626F736508
:1009D0005D0A005B73765D2020737461747573200B
:1009E0007265706F727420766572626F7369747964
:1009F000253664205B303D6F66662C313D66696C40
:100A000074657265642C323D766572626F73655DE4
:100A10000A005B71765D20207175657565207265D1
:100A2000706F727420766572626F7369747925379E
:100A300064205B303D6F66662C313D66696C746581
:100A40007265642C323D766572626F73655D0A0073
:100A50005B626175645D205553422062617564205C
:100A60007261746525313564205B313D3936303033
:100A70002C323D31393230302C333D333834303044
:100A80002C343D35373630302C353D313135323030
:100A9000302C363D3233303430305D0A0071723ADA
:100AA00025640A0072783A25640A006D6F746F72CB
:100AB000732064697361626C65640A006D6F746FA2
:100AC000727320656E61626C65640A005B6D745DB3
:100AD00020206D6F746F7220646973626C6520747E
:100AE000696D656F7574253964205365630A005616
:100AF000656C6F636974793A2531372E33662553F7
:100B00002F6D696E0A004C696E65206E756D6265A9
:100B1000723A2531302E30660A00466565642072CF
:100B20006174653A2531362E336625532F6D696E13
:100B30000A004D616368696E652073746174653A7B
:100B40002020202020202025730A00526177206D6C
:100B5000616368696E652073746174653A20202052
:100B600025730A004379636C652073746174653A78
:100B700020202020202020202025730A004D6F7483
:100B8000696F6E2073746174653A202020202020E4
:100B9000202025730A0046656564686F6C642073C5
:100BA000746174653A20202020202025730A004DAE
:100BB000616368696E6520686F6D696E6720737424
:100BC00061743A2025730A00556E6974733A2020C7
:100BD0002020202020202020202020202025730AD3
:100BE00000436F6F7264696E61746520737973740A
:100BF000656D3A20202025730A004D6F74696F6E71
:100C0000206D6F64653A20202020202020202025A0
:100C1000730A00506C616E653A202020202020204D
:100C2000202020202020202025730A005061746895
:100C3000204D6F64653A2020202020202020202095
:100C40002025730A0044697374616E6365206D6FBB
:100C500064653A2020202020202025730A00466564
:100C600065642072617465206D6F64653A20202090
:100C700020202025730A00256320706F7369746932
:100C80006F6E3A2531352E336625530A00256320D1
:100C90006D616368696E6520706F736E3A253131DE
:100CA0002E336625530A00256320776F726B206F01
:100CB00066667365743A2531322E336625530A0011
:100CC0002563206178697320686F6D696E67207392
:100CD000746174653A25322E30660A005B257325EF
:100CE000735D206D2573206D617020746F206178B5
:100CF000697325313564205B303D582C313D592CCA
:100D0000323D5A2E2E2E5D0A005B257325735D2021
:100D10006D2573207374657020616E676C65253274
:100D2000302E336625530A005B257325735D206DD5
:100D300025732074726176656C207065722072650F
:100D4000766F6C7574696F6E25392E336625530A7C
:100D5000005B257325735D206D2573206D696372BB
:100D60006F737465707325313664205B312C322CBF
:100D7000342C385D0A005B257325735D206D257367
:100D800020706F6C617269747925313864205B3032
:100D90003D6E6F726D616C2C313D7265766572735C
:100DA000655D0A005B257325735D206D25732070DA
:100DB0006F776572206D616E6167656D656E742514
:100DC000313064205B303D72656D61696E20706FFB
:100DD00077657265642C313D73687574206F666643
:100DE000207768656E2069646C655D0A005B257319
:100DF00025735D2025732061786973206D6F6465AC
:100E0000253138642025530A005B257325735D2046
:100E10002573206665656472617465206D6178690B
:100E20006D756D2531352E336625532F6D696E0A2C
:100E3000005B257325735D2025732076656C6F63D9
:100E4000697479206D6178696D756D2531352E3342
:100E50006625532F6D696E0A005B257325735D202F
:100E600025732074726176656C206D6178696D758B
:100E70006D2531372E336625530A005B25732573A4
:100E80005D202573206A65726B206D6178696D75D0
:100E90006D2531352E306625532F6D696E5E330A10
:100EA000005B257325735D202573206A756E63745E
:100EB000696F6E20646576696174696F6E2531347F
:100EC0002E3466255320286C617267657220697321
:100ED00020666173746572290A005B257325735D52
:100EE000202573207261646975732076616C756565
:100EF0002532302E346625530A005B257325735D39
:100F000020257320737769746368206D696E2531BD
:100F10003764205B303D6F66662C313D686F6D69CC
:100F20006E672C323D6C696D69742C333D6C696D54
:100F300069742B686F6D696E675D0A005B257325A8
:100F4000735D20257320737769746368206D617801
:100F500025313764205B303D6F66662C313D686F0C
:100F60006D696E672C323D6C696D69742C333D6C14
:100F7000696D69742B686F6D696E675D0A005B252A
:100F80007325735D20257320736561726368207615
:100F9000656C6F636974792531362E336625532F5E
:100FA0006D696E0A005B257325735D202573206CC7
:100FB000617463682076656C6F6369747925313775
:100FC0002E336625532F6D696E0A005B25732573DA
:100FD0005D202573206C61746368206261636B6FB0
:100FE00066662531382E336625530A005B25732546
:100FF000735D202573207A65726F206261636B6F69
:1010000066662531392E336625530A005B25732524
:10101000735D202573206A65726B20686F6D696E41
:10102000672531362E306625532F6D696E5E330A83
:10103000005B70316672715D2070776D206672653D
:101040007175656E63792020202531352E33662039
:10105000487A0A005B703163736C5D2070776D2095
:101060006377207370656564206C6F202531352EA1
:1010700033662052504D0A005B70316373685D2007
:1010800070776D20637720737065656420686920D0
:101090002531352E33662052504D0A005B70316386
:1010A000706C5D2070776D20637720706861736568
:1010B000206C6F202531352E3366205B302E2E318B
:1010C0005D0A005B70316370685D2070776D20632E
:1010D00077207068617365206869202531352E336B
:1010E00066205B302E2E315D0A005B703177736CA9
:1010F0005D2070776D206363772073706565642071
:101100006C6F2531352E33662052504D0A005B70CE
:10111000317773685D2070776D206363772073701B
:101120006565642068692531352E33662052504D3F
:101130000A005B703177706C5D2070776D2063639F
:1011400077207068617365206C6F2531352E3366AA
:10115000205B302E2E315D0A005B70317770685D48
:101160002070776D206363772070686173652068F5
:10117000692531352E3366205B302E2E315D0A0015
:101180005B7031706F665D2070776D207068617381
:1011900065206F66662020202531352E3366205B62
:1011A000302E2E315D0A005B257325735D2025737B
:1011B000202573206F66667365742532302E336682
:1011C00025530A005B257325735D20257320257345
:1011D000206C6F636174696F6E2531382E3366251C
:1011E000530A005B67706C5D2064656661756C74A2
:1011F0002067636F646520706C616E6525313064B3
:10120000205B303D4731372C313D4731382C323D62
:101210004731395D0A005B67756E5D206465666104
:10122000756C742067636F646520756E69747320D4
:101230006D6F6465253564205B303D4732302C315D
:101240003D4732315D0A005B67636F5D2064656610
:1012500061756C742067636F646520636F6F72647F
:101260002073797374656D253364205B312D3620CE
:10127000284735342D473539295D0A005B67706191
:101280005D2064656661756C742067636F646520BA
:101290007061746820636F6E74726F6C25336420A4
:1012A0005B303D4736312C313D4736312E312C32C3
:1012B0003D4736345D0A005B6764695D206465669E
:1012C00061756C742067636F646520646973746111
:1012D0006E6365206D6F6465253264205B303D4729
:1012E00039302C313D4739315D0A0073797300661E
:1012F000620000000007021E07086B6D69F4662695
:10130000378F02BE437379730066760000000007D2
:10131000033A07086B6D69F4662A373333733F73FA
:1013200079730068760000000007005807086B6DAD
:1013300069B5522E370000E040737973006964008C
:1013400000000004007607046AE752F466223700C2
:10135000000000000000006E000000000001000618
:101360000BAA6A2B69B8674C22000000000000003D
:10137000006C696E6500000100060BAA6A6E56B823
:10138000674C2200000000000000006665656400F4
:101390000000021A0B5C6BCB69F466223700000078
:1013A00000000000007374617400000000320B0440
:1013B0006A0255F466223700000000000000006D4C
:1013C000616373000000004B0B046A1E55F4662233
:1013D0003700000000000000006379637300000024
:1013E00000640B046A3A55F46622370000000000DE
:1013F0000000006D6F7473000000007D0B046A56DE
:1014000055F46622370000000000000000686F6C91
:101410006400000000960B046A7255F466223700DF
:101420000000000000000076656C0000000002EF84
:101430000A5C6B8A56F46622370000000000000048
:1014400000756E697400000000C80B046AAA55F4A8
:101450006622370000000000000000636F6F72001A
:10146000000000E10B046AC655F466223700000054
:1014700000000000006D6F6D6F00000000FA0B04AB
:101480006AE255F466223700000000000000007098
:101490006C616E00000000130C046AFE55F46622B5
:1014A0003700000000000000007061746800000058
:1014B000002C0C046A1A56F4662237000000000063
:1014C0000000006469737400000000450C046A3673
:1014D00056F4662237000000000000000066726DBE
:1014E0006F000000005E0C046A5256F4662237005A
:1014F0000000006D706F006D706F78000000038D4C
:101500000CA3582657F4662237000000006D706F58
:10151000006D706F79000000038D0CA3582657F4FE
:10152000662237000000006D706F006D706F7A00EA
:101530000000038D0CA3582657F4662237000000E4
:10154000006D706F006D706F61000000038D0CA363
:10155000582657F4662237000000006D706F006D4A
:10156000706F62000000038D0CA3582657F46622AA
:1015700037000000006D706F006D706F6300000039
:10158000038D0CA3582657F4662237000000007024
:101590006F7300706F737800000003770C8E58E251
:1015A00056F466223700000000706F7300706F738E
:1015B0007900000003770C8E58E256F4662237005B
:1015C000000000706F7300706F737A000000037783
:1015D0000C8E58E256F466223700000000706F73DC
:1015E00000706F736100000003770C8E58E256F4B0
:1015F00066223700000000706F7300706F73620026
:10160000000003770C8E58E256F466223700000083
:1016100000706F7300706F736300000003770C8EAF
:1016200058E256F4662237000000006F6673006FC0
:1016300066737800000003A70CA3586A57F466226B
:1016400037000000006F6673006F6673790000005A
:1016500003A70CA3586A57F4662237000000006FF6
:101660006673006F66737A00000003A70CA3586AC4
:1016700057F4662237000000006F6673006F6673D0
:101680006100000003A70CA3586A57F466223700D4
:101690000000006F6673006F66736200000003A7AE
:1016A0000CA3586A57F4662237000000006F667377
:1016B000006F66736300000003A70CA3586A57F419
:1016C00066223700000000686F6D00686F6D65006E
:1016D000000000AF0B046A8E55EC58223700000062
:1016E00000686F6D00686F6D7800000000C00C8EA0
:1016F00058E868F466E23E00000000686F6D00681C
:101700006F6D7900000000C00C8E58E868F466E345
:101710003E00000000686F6D00686F6D7A00000089
:1017200000C00C8E58E868F466E43E0000000068D3
:101730006F6D00686F6D6100000000C00C8E58E88E
:1017400068F466E53E00000000686F6D00686F6D2C
:101750006200000000C00C8E58E868F466E63E00A7
:10176000000000686F6D00686F6D6300000000C0CE
:101770000C8E58E868F466E73E00000000000000A8
:101780000073720000000000001107BE539D53ADAE
:1017900053223700000000000000007172000000BA
:1017A0000000009D0AAA6A3253F466223700000046
:1017B000000000000071660000000000001107F743
:1017C00069D768565322370000000000000000650A
:1017D000720000000000001107F7696653F46622EA
:1017E00037000000000000000072780000000000D8
:1017F00000A40AAA6A7953F46622370000000000A8
:101800000000006D736700000000001A07046AD72B
:1018100068F4662237000000000000000074657361
:1018200074000000001107F7694692B5B532370021
:101830000000000000000064656661000000001107
:1018400007F76980929A64223700000000000000C8
:1018500000626F6F74000000001107F769BA920907
:10186000542237000000000000000068656C700022
:101870000000001107F769F591F4662237000000B7
:10188000000000000068000000000000001107F7E1
:1018900069F591F466223700000000310000003144
:1018A0006D610000000300DC0C7F5BE868026733B9
:1018B0003C000000003100000031736100000003B3
:1018C00002090DBC5C6D693C5A373C6666E63F31E7
:1018D0000000003174720000000303280D0F5CCB80
:1018E00069525A3B3C0000A03F31000000316D6955
:1018F0000000000300510D7F5BE868685A343C002B
:101900000000413100000031706F000000030076DC
:101910000D7F5BE868095B353C000000003100008A
:101920000031706D0000000300A40D7F5BE868408B
:101930005B363C0000000032000000326D610000A8
:10194000000300DC0C7F5BE8680267433C0000801A
:101950003F320000003273610000000302090DBC39
:101960005C6D693C5A473C6666E63F3200000032D7
:1019700074720000000303280D0F5CCB69525A4BB0
:101980003C0000A03F32000000326D6900000003FF
:1019900000510D7F5BE868685A443C00000041320A
:1019A00000000032706F0000000300760D7F5BE8DE
:1019B00068095B453C000000003200000032706D99
:1019C0000000000300A40D7F5BE868405B463C001C
:1019D00000000033000000336D610000000300DCF4
:1019E0000C7F5BE8680267533C0000004033000056
:1019F000003373610000000302090DBC5C6D693C9B
:101A00005A573C6666E63F330000003374720000AC
:101A1000000303280D0F5CCB69525A5B3C0000A009
:101A20003F33000000336D690000000300510D7F5B
:101A30005BE868685A543C00000041330000003302
:101A4000706F0000000300760D7F5BE868095B554E
:101A50003C000000003300000033706D0000000304
:101A600000A40D7F5BE868405B563C00000000343A
:101A7000000000346D610000000300DC0C7F5BE8B7
:101A8000680267633C00004040340000003473612A
:101A90000000000302090DBC5C6D693C5A673C669E
:101AA00066E63F340000003474720000000303282F
:101AB0000D0F5CCB69525A6B3C0000B443340000FC
:101AC00000346D690000000300510D7F5BE8686819
:101AD0005A643C000000413400000034706F000084
:101AE000000300760D7F5BE868095B653C00000041
:101AF000003400000034706D0000000300A40D7F6E
:101B00005BE868405B663C0000803F78000000783E
:101B1000616D0000000300ED0D4E5D9759C15973D2
:101B20003C0000803F7800000078766D00000003E4
:101B300000310E0F5CCB695E68783C00001644787B
:101B40000000007866720000000300090E0F5CCBF5
:101B5000695E68743C000016447800000078746D7B
:101B60000000000300590E0F5CCB695E687C3C00EE
:101B700000164378000000786A6D00000003007BC7
:101B80000E0F5CCB695E68803C8096984B780000B5
:101B900000786A6800000003000C100F5CCB695EDF
:101BA000689C3C8096984B78000000786A6400003E
:101BB000000304A10E0F5CCB695E68843CCDCC4C65
:101BC0003D7800000078736E0000000300FA0E7F7D
:101BD0005BE868145A44470000803F7800000078B2
:101BE000737800000003003C0F7F5BE868145A45DF
:101BF00047000000007800000078737600000003C2
:101C0000007E0F0F5CCB695E688C3C0000FA437865
:101C1000000000786C760000000300A50F0F5CCB7D
:101C2000695E68903C0000C84278000000786C62F1
:101C30000000000303CB0F0F5CCB695E68943C008F
:101C400000004078000000787A620000000303EC96
:101C50000F0F5CCB695E68983C0000803F79000004
:101C60000079616D0000000300ED0D4E5D9759C1D4
:101C700059A03C0000803F7900000079766D00009B
:101C8000000300310E0F5CCB695E68A53C000016B6
:101C900044790000007966720000000300090E0F0D
:101CA0005CCB695E68A13C000016447900000079B5
:101CB000746D0000000300590E0F5CCB695E68A9CB
:101CC0003C0000164379000000796A6D00000003B3
:101CD000007B0E0F5CCB695E68AD3C8096984B79BB
:101CE000000000796A6800000003000C100F5CCB54
:101CF000695E68C93C8096984B79000000796A64F7
:101D00000000000304A10E0F5CCB695E68B13CCDFE
:101D1000CC4C3D7900000079736E0000000300FA9E
:101D20000E7F5BE868145A46470000803F79000048
:101D30000079737800000003003C0F7F5BE86814B3
:101D40005A474700000000790000007973760000D0
:101D50000003007E0F0F5CCB695E68B93C0000FA9F
:101D60004379000000796C760000000300A50F0F96
:101D70005CCB695E68BD3C0000C842790000007918
:101D80006C620000000303CB0F0F5CCB695E68C17F
:101D90003C0000004079000000797A6200000003F6
:101DA00003EC0F0F5CCB695E68C53C0000803F7A96
:101DB0000000007A616D0000000300ED0D4E5D979C
:101DC00059C159CD3C0000803F7A0000007A766D01
:101DD0000000000300310E0F5CCB695E68D23C004E
:101DE0000016447A0000007A6672000000030009C1
:101DF0000E0F5CCB695E68CE3C000016447A000092
:101E0000007A746D0000000300590E0F5CCB695E10
:101E100068D63C000096427A0000007A6A6D0000A5
:101E20000003007B0E0F5CCB695E68DA3C809698FD
:101E30004B7A0000007A6A6800000003000C100F63
:101E40005CCB695E68F63C8096984B7A0000007A1D
:101E50006A640000000304A10E0F5CCB695E68DEBB
:101E60003CCDCC4C3D7A0000007A736E000000033C
:101E700000FA0E7F5BE868145A4847000000007AB9
:101E80000000007A737800000003003C0F7F5BE8DD
:101E900068145A49470000803F7A0000007A737640
:101EA00000000003007E0F0F5CCB695E68E63C001B
:101EB00000C8437A0000007A6C760000000300A599
:101EC0000F0F5CCB695E68EA3C0000C8427A0000F4
:101ED000007A6C620000000303CB0F0F5CCB695EDD
:101EE00068EE3C000000407A0000007A7A62000050
:101EF000000303EC0F0F5CCB695E68F23C000080CE
:101F00003F6100000061616D0000000300ED0D4EB7
:101F10005D9759C159FA3C000040406100000061E2
:101F2000766D0000000300310EBC5C6D69FF67FF39
:101F30003C00C02848610000006166720000000398
:101F400000090EBC5C6D69FF67FB3C00C02848615E
:101F500000000061746D0000000300590EBC5C6D50
:101F600069FF67033D000080BF61000000616A6D8A
:101F700000000003007B0EBC5C6D69FF67073D50ED
:101F8000A9AB4F61000000616A6800000003000C0B
:101F9000100F5CCB695E68233D50A9AB4F61000018
:101FA00000616A640000000304A10EBC5C6D69FF5F
:101FB000670B3DCDCC4C3D610000006172610000BB
:101FC000000303DA0EBC5C6D69FF670F3DD5B74BAC
:101FD0003E6100000061736E0000000300FA0E7F96
:101FE0005BE868145A4A470000803F6100000061C6
:101FF000737800000003003C0F7F5BE868145A4BC5
:1020000047000000006100000061737600000003DB
:10201000007E0FBC5C6D69FF67133D0000164461D4
:10202000000000616C760000000300A50FBC5C6D31
:1020300069FF67173D0000C84261000000616C62E3
:102040000000000303CB0FBC5C6D69FF671B3D0004
:1020500000A04061000000617A620000000303EC10
:102060000FBC5C6D69FF671F3D000000406200000F
:102070000062616D0000000300ED0D4E5D9759C1D7
:1020800059273D000000006200000062766D0000EC
:10209000000300310EBC5C6D69FF672C3D000061E0
:1020A00045620000006266720000000300090EBC79
:1020B0005C6D69FF67283D000061456200000062B9
:1020C000746D0000000300590EBC5C6D69FF673041
:1020D0003D000080BF62000000626A6D00000003E6
:1020E000007B0EBC5C6D69FF67343D8096984B6247
:1020F000000000626A640000000300A10EBC5C6D79
:1021000069FF67383DCDCC4C3D62000000627261D2
:102110000000000303DA0EBC5C6D69FF673C3D0004
:1021200000803F6300000063616D0000000300ED6C
:102130000D4E5D9759C159543D00000000630000E9
:102140000063766D0000000300310EBC5C6D69FF1A
:1021500067593D000061456300000063667200003E
:10216000000300090EBC5C6D69FF67553D0000610E
:10217000456300000063746D0000000300590EBC4D
:102180005C6D69FF675D3D000080BF630000006318
:102190006A6D00000003007B0EBC5C6D69FF676127
:1021A0003D8096984B63000000636A640000000362
:1021B00000A10EBC5C6D69FF67653DCDCC4C3D63F5
:1021C0000000006372610000000303DA0EBC5C6D66
:1021D00069FF67693D0000803F7031000070316623
:1021E00072710003003110086B6D69FF67813D005B
:1021F00000C84270310000703163736C00030054FA
:1022000010086B6D69FF67853D00007A44703100EE
:102210000070316373680003007810086B6D69FF0C
:1022200067893D0000FA4470310000703163706CC2
:102230000003039C10086B6D69FF678D3D00000073
:102240003E703100007031637068000303C31008F2
:102250006B6D69FF67913DCDCC4C3E7031000070D5
:102260003177736C000300EA10086B6D69FF6795A6
:102270003D00007A447031000070317773680003CC
:10228000000E11086B6D69FF67993D0000FA4470FC
:10229000310000703177706C0003033211086B6DF0
:1022A00069FF679D3D0000003E703100007031778E
:1022B00070680003035911086B6D69FF67A13DCD7C
:1022C000CC4C3E703100007031706F6600030380AB
:1022D00011D36B6D69FF67A53DCDCCCC3D6735341F
:1022E000006735347800000303A7110B5ECB695EED
:1022F00068A33B000000006735340067353479007F
:10230000000303A7110B5ECB695E68A73B000000CA
:1023100000673534006735347A00000303A7110BDA
:102320005ECB695E68AB3B00000000673534006738
:1023300035346100000303A711CA5ECB695E68AF44
:102340003B0000000067353400673534620000034D
:1023500003A711CA5ECB695E68B33B00000000674B
:102360003534006735346300000303A711CA5ECB20
:10237000695E68B73B00000000673535006735359A
:102380007800000303A7110B5ECB695E68BB3B00BE
:10239000009642673535006735357900000303A79D
:1023A000110B5ECB695E68BF3B0000964267353516
:1023B000006735357A00000303A7110B5ECB695E19
:1023C00068C33B00000000673535006735356100A4
:1023D000000303A711CA5ECB695E68C73B0000001B
:1023E00000673535006735356200000303A711CA61
:1023F0005ECB695E68CB3B00000000673535006747
:1024000035356300000303A711CA5ECB695E68CF50
:102410003B00000000673536006735367800000362
:1024200003A7110B5ECB695E68D33B000000006719
:102430003536006735367900000303A7110B5ECBF4
:10244000695E68D73B0000000067353600673536A7
:102450007A00000303A7110B5ECB695E68DB3B00CB
:10246000000000673536006735366100000303A7BA
:1024700011CA5ECB695E68DF3B000000006735363D
:10248000006735366200000303A711CA5ECB695EA0
:1024900068E33B00000000673536006735366300AF
:1024A000000303A711CA5ECB695E68E73B0000002A
:1024B00000673537006735377800000303A7110B35
:1024C0005ECB695E68EB3B00000000673537006754
:1024D00035377900000303A7110B5ECB695E68EF07
:1024E0003B00000000673537006735377A0000038E
:1024F00003A7110B5ECB695E68F33B000000006729
:102500003537006735376100000303A711CA5ECB7A
:10251000695E68F73B0000000067353700673537B4
:102520006200000303A711CA5ECB695E68FB3B0033
:10253000000000673537006735376300000303A7E5
:1025400011CA5ECB695E68FF3B000000006735384A
:10255000006735387800000303A7110B5ECB695E76
:1025600068033C00000000673538006735387900A3
:10257000000303A7110B5ECB695E68073C000000F7
:1025800000673538006735387A00000303A7110B60
:102590005ECB695E680B3C00000000673538006761
:1025A00035386100000303A711CA5ECB695E680F6E
:1025B0003C000000006735380067353862000003D2
:1025C00003A711CA5ECB695E68133C000000006778
:1025D0003538006735386300000303A711CA5ECBA6
:1025E000695E68173C0000000067353900673539BF
:1025F0007800000303A7110B5ECB695E681B3C00EB
:10260000000000673539006735397900000303A7FA
:10261000110B5ECB695E681F3C0000000067353916
:10262000006735397A00000303A7110B5ECB695EA2
:1026300068233C00000000673539006735396100C8
:10264000000303A711CA5ECB695E68273C00000047
:1026500000673539006735396200000303A711CAE6
:102660005ECB695E682B3C0000000067353900676F
:1026700035396300000303A711CA5ECB695E682F7A
:102680003C000000006739320067393278000001F1
:1026900003A7110B5ECB69F466802200000000677F
:1026A0003932006739327900000103A7110B5ECB84
:1026B00069F466842200000000673932006739320D
:1026C0007A00000103A7110B5ECB69F46688220033
:1026D000000000673932006739326100000103A74A
:1026E00011CA5E6D69F4668C220000000067393201
:1026F000006739326200000103A711CA5E6D69F4F8
:1027000066902200000000673932006739326300AA
:10271000000103A711CA5E6D69F4669422000000EF
:1027200000673238006732387800000103C4110BAB
:102730005ECB69F466C8220000000067323800678B
:1027400032387900000103C4110B5ECB69F466CC0A
:102750002200000000673238006732387A0000013A
:1027600003C4110B5ECB69F466D022000000006741
:102770003238006732386100000103C411CA5E6D4F
:1027800069F466D4220000000067323800673238EE
:102790006200000103C411CA5E6D69F466D82200AC
:1027A000000000673238006732386300000103C45C
:1027B00011CA5E6D69F466DC2200000000673330E8
:1027C000006733307800000103C4110B5ECB69F45D
:1027D00066E0220000000067333000673330790084
:1027E000000103C4110B5ECB69F466E42200000013
:1027F00000673330006733307A00000103C4110BE7
:102800005ECB69F466E822000000006733300067A1
:1028100033306100000103C411CA5E6D69F466ECD7
:10282000220000000067333000673330620000018F
:1028300003C411CA5E6D69F466F0220000000067EF
:102840003330006733306300000103C411CA5E6D8A
:1028500069F466F42200000000737973006A610075
:1028600000000007008A075C6BCB695E68AC3A0029
:1028700050C347737973006374000000000704EDD0
:10288000075C6BCB695E68B03A6F12833A737973F9
:102890000073740000000007003108506AE86814F3
:1028A0005A414700000000737973006D7400000006
:1028B000000700CC0AAA6A2B69B867B43A00007016
:1028C00042000000006D65000000000100BC0A0429
:1028D0006A22532253223700000000000000006DDE
:1028E00064000000000000AB0A046A125312532275
:1028F000370000000073797300656A00000000076C
:10290000002109506AE8684667CD3A00000000736C
:102910007973006A760000000007004D09506AE8EC
:10292000681954D53A0000A040737973007476009A
:102930000000000700A409506AE8684667D63A001C
:1029400000803F7379730071760000000007001269
:102950000A506AE8689267D23A00000000737973FF
:10296000007376000000000700D309506AE8686C25
:1029700067DE3A0000803F737973007369000000DE
:102980000007005408086B2B69CD53DF3A00007A2A
:1029900043737973006963000000000700740850F6
:1029A0006AE868A85FCE3A0000000073797300659A
:1029B00063000000000700A608506AE868F55FCFD2
:1029C0003A0000000073797300656500000000079D
:1029D00000D508506AE8683560D03A0000000073FE
:1029E0007973006578000000000700F908506AE874
:1029F000687560D13A0000803F7379730062617539
:102A00006400000400500A506AE868B560D73A00D4
:102A100000A0407379730067706C0000000700E34A
:102A200011506AE8686C67C93A0000000073797356
:102A30000067756E00000007001612506AE86846CD
:102A400067CA3A0000803F7379730067636F0000C4
:102A50000007004712506AE8680267C83A00008021
:102A60003F7379730067706100000007007C1250AB
:102A70006AE8686C67CB3A000000407379730067BE
:102A800064690000000700B712506AE8684667CC26
:102A90003A00000000000000006763000000000032
:102AA000001107F769B558D9582237000000000017
:102AB0000000006D730000000003000E085C6B6DE9
:102AC00069FF67C43A00409C45000000006D6C003F
:102AD0000000000304AE075C6BCB695E68BC3A0A79
:102AE000D7A33D000000006D61000000000304CE8C
:102AF000075C6BCB695E68C03ACDCCCC3D00000072
:102B00000071726800000003001207506AE8680252
:102B100067D33A0000A0410000000071726C000011
:102B20000003001207506AE8680267D43A00000008
:102B300040737973006E6574000000030012075043
:102B40006AE8680267363700000000000000007382
:102B5000653030000002001107F7692B69B867E3A0
:102B60003A000000000000000073653031000002F0
:102B7000001107F7692B69B867E53A00000000000B
:102B800000000073653032000002001107F7692B66
:102B900069B867E73A000000000000000073653084
:102BA00033000002001107F7692B69B867E93A00A2
:102BB00000000000000000736530340000020011C6
:102BC00007F7692B69B867EB3A00000000000000C6
:102BD0000073653035000002001107F7692B69B8F2
:102BE00067ED3A0000000000000000736530360019
:102BF0000002001107F7692B69B867EF3A0000007F
:102C0000000000000073653037000002001107F774
:102C1000692B69B867F13A000000000000000073FA
:102C2000653038000002001107F7692B69B867F3B7
:102C30003A00000000000000007365303900000217
:102C4000001107F7692B69B867F53A00000000002A
:102C500000000073653130000002001107F7692B96
:102C600069B867F73A0000000000000000736531A2
:102C700031000002001107F7692B69B867F93A00C3
:102C800000000000000000736531320000020011F6
:102C900007F7692B69B867FB3A00000000000000E5
:102CA0000073653133000002001107F7692B69B822
:102CB00067FD3A0000000000000000736531340039
:102CC0000002001107F7692B69B867FF3A0000009E
:102CD000000000000073653135000002001107F7A5
:102CE000692B69B867013B00000000000000007319
:102CF000653136000002001107F7692B69B86703D8
:102D00003B00000000000000007365313700000246
:102D1000001107F7692B69B867053B000000000048
:102D200000000073653138000002001107F7692BBD
:102D300069B867073B0000000000000000736531C0
:102D400039000002001107F7692B69B867093B00D9
:102D50000000000000000073653230000002001126
:102D600007F7692B69B8670B3B0000000000000003
:102D70000073653231000002001107F7692B69B852
:102D8000670D3B0000000000000000736532320058
:102D90000002001107F7692B69B8670F3B000000BC
:102DA000000000000073653233000002001107F7D5
:102DB000692B69B867113B00000000000000007338
:102DC000797300000000001107F769316D846D22EE
:102DD000370000000000000000703100000000001B
:102DE000001107F769316D846D2237000000000083
:102DF00000000031000000000000001107F76931F9
:102E00006D846D22370000000000000000320000D9
:102E100000000000001107F769316D846D22370052
:102E2000000000000000003300000000000000115E
:102E300007F769316D846D22370000000000000043
:102E40000034000000000000001107F769316D84B4
:102E50006D22370000000000000000780000000034
:102E60000000001107F769316D846D223700000002
:102E7000000000000079000000000000001107F7CA
:102E800069316D846D223700000000000000007A77
:102E9000000000000000001107F769316D846D2209
:102EA000370000000000000000610000000000008A
:102EB000001107F769316D846D22370000000000B2
:102EC00000000062000000000000001107F76931F7
:102ED0006D846D22370000000000000000630000D8
:102EE00000000000001107F769316D846D22370082
:102EF00000000000000000673534000000000011F1
:102F000007F769316D846D22370000000000000072
:102F10000067353500000000001107F769316D8446
:102F20006D22370000000000000000673536000009
:102F30000000001107F769316D846D223700000031
:102F4000000000000067353700000000001107F79F
:102F500069316D846D2237000000000000000067B9
:102F6000353800000000001107F769316D846D22CB
:102F70003700000000000000006735390000000045
:102F8000001107F769316D846D22370000000000E1
:102F900000000067393200000000001107F76931B6
:102FA0006D846D2237000000000000000067323899
:102FB00000000000001107F769316D846D223700B1
:102FC0000000000000000067333000000000001126
:102FD00007F769316D846D223700000000000000A2
:102FE000006D706F00000000001107F769316D84FB
:102FF0006D22370000000000000000706F730000B9
:103000000000001107F769316D846D223700000060
:1030100000000000006F667300000000001107F759
:1030200069316D846D2237000000000000000068E7
:103030006F6D00000000001107F769316D846D228B
:103040003700000000000000006D000000000000DC
:10305000001107F769AD61F4662237000000000037
:1030600000000071000000000000001107F769FA7D
:1030700061F466223700000000000000006F0000CD
:1030800000000000001107F7695B62F46622370058
:1030900000000000000000240000000000000011FB
:1030A00007F769DA62F4662237000000002A2A2A4C
:1030B000205741524E494E47202A2A2A20536574F0
:1030C00074696E67206E6F6E2D7374616E646172C9
:1030D00064206D6963726F737465702076616C75BE
:1030E00065002A2A2A204E4F54494345202A2A2A7D
:1030F000205265737474696E672062617564207212
:1031000061746520746F202553002A2A2A205741B4
:10311000524E494E47202A2A2A20496C6C65676125
:103120006C206261756420726174652073706563E0
:103130006966696564002C000A0025733A257300EE
:1031400025733A25312E30660025733A25312E330A
:1031500066002C000A0025730025312E30660025FC
:10316000312E336600456E64206F6620636F6D6D8F
:10317000616E642066696C650A006D6D00696E633E
:10318000680074696E7967205B25535D206F6B3E24
:10319000200074696E7967205B25535D206572722B
:1031A0003A2025733A2025732000580059005A0010
:1031B0004100AA31AC31AE31B0312A2A2A20574120
:1031C000524E494E47202A2A2A20486F6D696E6761
:1031D000206572726F723A202553206178697320DE
:1031E00073657474696E6773206D6973636F6E665F
:1031F000696775726564002A2A2A205741524E4930
:103200004E47202A2A2A20486F6D696E6720657212
:10321000726F723A205370656369666965642061F4
:10322000786973286573292063616E6E6F742062FC
:103230006520686F6D656400546865736520636F11
:103240006D6D616E6473206172652061637469766F
:10325000652066726F6D2074686520636F6D6D61A7
:103260006E64206C696E653A0A205E78202020200A
:1032700020202020202020202052657365742028E3
:10328000636F6E74726F6C207829202D20736F66C7
:1032900074776172652072657365740A20203F201F
:1032A0002020202020202020202020204D61636825
:1032B000696E6520706F736974696F6E20616E64EA
:1032C0002067636F6465206D6F64656C2073746143
:1032D00074650A2020242020202020202020202067
:1032E00020202053686F7720616E642073657420FE
:1032F000636F6E66696775726174696F6E2073655E
:103300007474696E67730A202021202020202020F9
:103310002020202020202046656564686F6C642092
:103320002D2073746F70206D6F74696F6E207769D4
:1033300074686F7574206C6F73696E6720706F733B
:103340006974696F6E0A20207E20202020202020B2
:103350002020202020204379636C65205374617203
:1033600074202D20726573746172742066726F6DA3
:103370002066656564686F6C640A202068202020E0
:103380002020202020202020202053686F772074C8
:103390006869732068656C702073637265656E0A76
:1033A00020202468202020202020202020202020D1
:1033B00053686F7720636F6E6669677572617469B1
:1033C0006F6E2068656C702073637265656E0A208D
:1033D0002024746573742020202020202020204C7D
:1033E0006973742073656C662D74657374730A2039
:1033F0002024746573743D4E20202020202020520C
:10340000756E2073656C662D74657374204E0A208A
:103410002024686F6D653D3120202020202020521F
:10342000756E206120686F6D696E67206379636CCB
:10343000650A202024646566613D3120202020201B
:103440002020526573746F726520616C6C20736507
:103450007474696E677320746F2022666163746F81
:103460007279222064656661756C74730A000A0AB9
:103470000A232323232054696E79472048656C7002
:1034800020232323230A0045616368202420636FDF
:103490006D6D616E642061626F766520616C736F23
:1034A00020646973706C6179732074686520746F2F
:1034B0006B656E20666F722065616368207365744A
:1034C00074696E6720696E205B205D2062726163A3
:1034D0006B6574730A546F20766965772073657421
:1034E00074696E677320656E746572206120746FF5
:1034F0006B656E3A0A0A2020243C746F6B656E3E41
:103500000A0A466F72206578616D706C65202479B7
:10351000667220746F20646973706C6179207468BE
:10352000652059206D61782066656564207261743C
:10353000650A0A546F207570646174652073657440
:1035400074696E677320656E74657220746F6B6545
:103550006E20657175616C732076616C75653A0AD1
:103560000A2020243C746F6B656E3E3D3C76616C96
:1035700075653E0A0A466F72206578616D706C65EC
:1035800020247966723D38303020746F2073657462
:10359000207468652059206D617820666565642017
:1035A0007261746520746F20383030206D6D2F6D1E
:1035B000696E7574650A466F7220636F6E6669671F
:1035C00075726174696F6E2064657461696C7320D3
:1035D0007365653A2068747470733A2F2F67697445
:1035E0006875622E636F6D2F73796E746865746F82
:1035F000732F54696E79472F77696B692F54696E01
:1036000079472D436F6E66696775726174696F6E75
:103610000A00546865736520636F6D6D616E647335
:10362000206172652061637469766520666F72201F
:10363000636F6E66696775726174696F6E3A0A20AE
:1036400020247379732053686F77207379737465BE
:103650006D202867656E6572616C292073657474CE
:10366000696E67730A2020243120202053686F7709
:10367000206D6F746F7220312073657474696E678A
:103680007320286F72207768617465766572206D8B
:103690006F746F7220796F752077616E7420312C92
:1036A000322C332C34290A202024782020205368FF
:1036B0006F77205820617869732073657474696E20
:1036C000677320286F722077686174657665722051
:1036D0006178697320796F752077616E7420782C1A
:1036E000792C7A2C612C622C63290A2020246D20ED
:1036F000202053686F7720616C6C206D6F746F723F
:103700002073657474696E67730A20202471202009
:103710002053686F7720616C6C2061786973207327
:10372000657474696E67730A2020246F202020530B
:10373000686F7720616C6C206F66667365742073A8
:10374000657474696E67730A202024242020205336
:10375000686F7720616C6C2073657474696E677331
:103760000A2020246820202053686F77207468691D
:10377000732068656C702073637265656E0A0A0059
:103780000A0A0A232323232054696E794720434FD2
:103790004E46494755524154494F4E2048656C703A
:1037A00020232323230A00496E766F6B65207365FF
:1037B0006C66207465737420627920656E7465721E
:1037C000696E672024746573743D4E207768657256
:1037D00065204E206973206F6E65206F663A0A205F
:1037E0002024746573743D312020736D6F6B6520E8
:1037F000746573740A202024746573743D3220202C
:10380000686F6D696E672074657374202020287955
:103810006F75206D757374207472697020686F6D98
:10382000696E67207377697463686573290A20205D
:1038300024746573743D3320207371756172652043
:103840007465737420202028612073657269657324
:10385000206F662073717561726573290A202024B8
:10386000746573743D3420206172632074657374D1
:1038700020202020202028736F6D65206C617267E6
:103880006520636972636C6573290A20202474655E
:1038900073743D3520206477656C6C207465737497
:1038A00020202020286D6F7665732073706163651A
:1038B000642062792031207365636F6E64206477C1
:1038C000656C6C73290A202024746573743D36205E
:1038D0002066656564686F6C642074657374202865
:1038E000656E746572202120616E64207E20746F85
:1038F00020686F6C6420616E6420726573746172FD
:10390000742C20726573706563746976656C7929AF
:103910000A202024746573743D3720204D20636F86
:1039200064657320746573742020284D20636F6470
:10393000657320696E7465726D696E676C6564206D
:1039400077697468206D6F766573290A2020247466
:103950006573743D3820204A534F4E20746573744C
:103960002020202020286D6F74696F6E207465738D
:10397000742072756E207573696E67204A534F4EBE
:1039800020636F6D6D616E6473290A202024746555
:1039900073743D392020696E766572736520746991
:1039A0006D6520746573740A202024746573743DFA
:1039B000313020726F74617279206D6F74696F6E2F
:1039C00020746573740A202024746573743D31314A
:1039D00020736D616C6C206D6F76657320746573F8
:1039E000740A202024746573743D313220736C6F27
:1039F00077206D6F76657320746573740A202024B8
:103A0000746573743D313320636F6F7264696E61E6
:103A100074652073797374656D206F666673657461
:103A2000207465737420284739322C204735342D93
:103A3000473539290A0A54657374732061737375A5
:103A40006D6520612063656E7465726564205859E8
:103A5000206F726967696E20616E64206174206CEA
:103A6000656173742038306D6D20636C65617261BF
:103A70006E636520696E20616C6C20646972656399
:103A800074696F6E730A5465737473206173737510
:103A90006D65205A20686173206174206C656173C4
:103AA000742034306D6D20706F7369697469766548
:103AB00020636C656172616E63650A54657374732B
:103AC00020737461727420776974682061204730B4
:103AD000205830205930205A30206D6F76650A48C2
:103AE0006F6D696E672069732074686520657863FF
:103AF000657074696F6E2E204E6F20696E697469EF
:103B0000616C20706F736974696F6E206F722063CF
:103B10006C656172616E6365206973206173737592
:103B20006D65640A000A0A0A232323232054696E60
:103B300079472053454C4620544553542048656CE2
:103B40007020232323230A00456E746572202464A9
:103B5000656661756C74733D3120746F2072657396
:103B60006574207468652073797374656D20746F53
:103B70002074686520666163746F7279206465667D
:103B800061756C742076616C7565732E0A54686972
:103B9000732077696C6C206F7665727772697465D3
:103BA00020616E79206368616E67657320796F7537
:103BB0002068617665206D6164652E0A000A0A0A34
:103BC000232323232054696E794720524553544FB1
:103BD00052452044454641554C54532048656C702D
:103BE00020232323230A00456E7465722024626F0C
:103BF0006F743D3120746F20656E74657220746837
:103C00006520626F6F74206C6F616465722E0A00AC
:103C10000A0A0A232323232054696E794720424F3E
:103C20004F54204C4F414445522048656C7020232E
:103C30002323230A000A4E6F74653A2054696E7973
:103C4000472067656E657261746573206175746F76
:103C50006D6174696320737461747573207265702B
:103C60006F7274732062792064656661756C740A82
:103C7000546869732063616E2062652064697361B2
:103C8000626C656420627920656E746572696E6726
:103C9000202473763D300A5365652074686520776B
:103CA000696B692062656C6F7720666F72206D6F3B
:103CB00072652064657461696C732E0A000A466F30
:103CC000722064657461696C65642054696E79471B
:103CD00020696E666F207365653A2068747470732E
:103CE0003A2F2F6769746875622E636F6D2F737931
:103CF0006E746865746F732F54696E79472F776996
:103D00006B692F0A466F7220746865206C61746558
:103D10007374206669726D77617265207365653AA8
:103D20002068747470733A2F2F6769746875622EF7
:103D3000636F6D2F73796E746865746F732F546938
:103D40006E79470A506C65617365206C6F672061FE
:103D50006E7920697373756573206174206874745B
:103D6000703A2F2F7777772E73796E746865746F3A
:103D7000732E636F6D2F666F72756D730A4861766F
:103D8000652066756E0A004F4B004572726F7200B7
:103D900045616761696E004E6F6F7000436F6D70B3
:103DA0006C657465005465726D696E61746564005C
:103DB0004861726420726573657400456E64206F9B
:103DC00066206C696E6500456E64206F66206669CA
:103DD0006C650046696C65206E6F74206F70656E4F
:103DE000004D61782066696C652073697A6520658D
:103DF00078636565646564004E6F20737563682041
:103E00006465766963650042756666657220656DF6
:103E1000707479004275666665722066756C6C0018
:103E20004275666665722066756C6C202D20666131
:103E300074616C00496E697469616C697A696E6756
:103E400000456E746572696E6720626F6F74206CD6
:103E50006F616465720031370031380031390049D3
:103E60006E7465726E616C206572726F7200496E5D
:103E70007465726E616C2072616E67652065727226
:103E80006F7200466C6F6174696E6720706F696E47
:103E900074206572726F720044697669646520628D
:103EA00079207A65726F00496E76616C6964204191
:103EB00064647265737300526561642D6F6E6C7912
:103EC000206164647265737300496E697469616C22
:103ED000697A6174696F6E206661696C75726500DC
:103EE00053797374656D20616C61726D6564004D0A
:103EF000656D6F7279206661756C74206F722063D6
:103F00006F7272757074696F6E00323900333000F1
:103F10003331003332003333003334003335003370
:103F20003600333700333800333900556E7265631D
:103F30006F676E697A656420636F6D6D616E640092
:103F4000457870656374656420636F6D6D616E6440
:103F5000206C657474657200426164206E756D62D8
:103F6000657220666F726D617400496E70757420A1
:103F700065786365656473206D6178206C656E6734
:103F8000746800496E7075742076616C7565207474
:103F90006F6F20736D616C6C00496E707574207664
:103FA000616C756520746F6F206C61726765004984
:103FB0006E7075742076616C75652072616E6765D0
:103FC000206572726F7200496E7075742076616C34
:103FD000756520756E737570706F72746564004AD4
:103FE000534F4E2073796E746178206572726F72D0
:103FF000004A534F4E20696E7075742068617320BB
:10400000746F6F206D616E79207061697273004A00
:10401000534F4E206F757470757420746F6F206CE1
:104020006F6E67004F7574206F66206275666665F7
:104030007220737061636500436F6E666967206EFE
:104040006F742074616B656E20647572696E672091
:104050006D616368696E696E67206379636C650082
:104060003533003534003535003536003537003509
:1040700038003539004D6F7665206C657373207498
:1040800068616E206D696E696D756D206C656E6717
:104090007468004D6F7665206C6573732074686179
:1040A0006E206D696E696D756D2074696D65004770
:1040B000636F646520626C6F636B20736B697070F3
:1040C00065640047636F646520696E707574206570
:1040D00072726F720047636F646520666565647213
:1040E000617465206572726F720047636F6465204A
:1040F0006178697320776F7264206D697373696E7C
:10410000670047636F6465206D6F64616C20677240
:104110006F75702076696F6C6174696F6E00486F9F
:104120006D696E67206379636C65206661696C6593
:1041300064004D61782074726176656C20657863E7
:104140006565646564004D6178207370696E646CA8
:104150006520737065656420657863656564656472
:104160000041726320737065636966696361746995
:104170006F6E206572726F7200873D8A3D903D9729
:104180003D9C3DA53DB03DBB3DC73DD33DE13DF828
:104190003D073E143E203E343E413E563E593E5C75
:1041A0003E5F3E6E3E833E983EA73EB73EC93EE030
:1041B0003EEF3E0A3F0D3F103F133F163F193F1C95
:1041C0003F1F3F223F253F283F2B3F403F583F6A3C
:1041D0003F833F993FAF3FC73FDF3FF13F0F402451
:1041E00040384060406340664069406C406F4072B8
:1041F0004075409340AF40C340D540EA4002411E65
:10420000413241464161417B226572223A7B2266FE
:1042100062223A25302E32662C227374223A2564AB
:104220002C226D7367223A222573222C2276616C30
:10423000223A25647D7D0A00496E697469616C6962
:104240007A696E6720636F6E6669677320746F208A
:1042500064656661756C742073657474696E6773E8
:10426000004C6F6164696E6720636F6E6669677387
:104270002066726F6D20454550524F4D0053595383
:1042800054454D20524541445900284D53472A2A50
:104290002A2A20536D6F6B652054657374205B76FA
:1042A000315D202A2A2A2A290A473030204731370F
:1042B00020473231204734302047343920473830C6
:1042C000204739300A6730783079307A300A6730E1
:1042D00030207834300A78300A7934300A79300A5C
:1042E0007A34300A7A300A6134300A61300A473051
:1042F000302078343020793430207A3430206134E2
:10430000300A473030207830207930207A302061F0
:10431000300A473031206632303020783130207911
:104320003130207A3130206131300A7830207930D4
:10433000207A302061300A47303220663130303008
:1043400030207830207930207A343020693237209C
:104350006A32370A473033206631303030302078C7
:1043600030207930207A3020693237206A32370A9B
:104370006730783079307A300A6D33673470310ABB
:104380006D35673470310A6D34673470310A6D33BE
:10439000673470310A6D35673470310A6D376734B0
:1043A00070310A6D39673470310A6D386734703195
:1043B0000A6D390A673078310A673078300A6D3211
:1043C00000284D53472A2A2A2A20486F6D696E67B4
:1043D0002054657374205B76315D202A2A2A2A29AD
:1043E0000A6732382E32783079307A300A6D3330BD
:1043F00000284D53472A2A2A2A2053717561726575
:1044000073204D6F74696F6E2054657374205B76F2
:10441000315D202A2A2A2A290A6730306731376716
:1044200032316734306734396738306739300A677A
:1044300030783079300A67307832302028747261F1
:10444000766572736520612032306D6D20737175F1
:1044500061726520696E205820616E642059290AB6
:104460007932300A78300A79300A6731783130662B
:1044700035303020286472617720612031306D6DD5
:104480002073717561726520696E205820616E64B9
:1044900020592061742046353030290A7931300A9C
:1044A00078300A79300A67307A32302028747261A5
:1044B000766572736520612032306D6D2073717581
:1044C00061726520696E205820616E64205A290A45
:1044D0007832300A7A300A78300A673178323079A7
:1044E00032307A3230663530302028666565642097
:1044F000612032306D6D20646961676F6E616C2080
:10450000696E20582C205920616E64205A290A783F
:104510003079307A300A7834307934307A34302057
:1045200028747261766572736520612034306D6D18
:10453000206375626520696E20582C205920616EB9
:1045400064205A290A78343079307A300A78307900
:1045500034307A34300A7834307934307A300A782A
:104560003079307A34300A78307934307A300A78D9
:10457000343079307A34300A783079307A300A67DA
:1045800038300A6730783079300A673078310A6716
:104590003078300A6D3330002F286D73672A2A2A4D
:1045A0002A204172632054657374205B76315D204C
:1045B0002A2A2A2A290A4E31206730306731376784
:1045C00032316734306734396738306739300A4EF2
:1045D0003130206730783079300A4E3230206635FD
:1045E00030300A4E3330206732783130792D313017
:1045F0006931302028435720323730206465677294
:10460000656573290A4E3430206730783079300A76
:104610004E3530206733783130792D313069313083
:1046200020284343572039302064656772656573DD
:10463000290A4E3630206730783079300A4E3830CB
:104640002067327832307930693130202843572062
:104650003138302064656772656573290A4E3730DA
:10466000206730783079300A4E383020673378321E
:104670003079306931302028434357203138302099
:1046800064656772656573290A4E39302067307832
:104690003079300A4E39392046313230300A4E31C5
:1046A00030302067327830793069323020284357F3
:1046B000203336302064656772656573290A4E3190
:1046C00031302067327830793069323020284357D2
:1046D0002033363020616761696E290A4E313230ED
:1046E000206637303020284368616E676520666534
:1046F00065642072617465207768696C6520696EF5
:10470000204732206D6F74696F6E206D6F6465296C
:104710000A4E3133302067327830793069323020B8
:1047200028435720333630203372642074696D6516
:10473000290A4E313430206732783079306932308E
:104740002028435720333630203474682074696D34
:1047500065290A4E31353020663530300A4E313603
:1047600030206733783079307A343069323020281D
:104770004343572033363020646567726565732084
:1047800077697468206C696E6561722074726176F5
:10479000656C290A4E313730206733783079307AAA
:1047A0003069323020284343572033363020616748
:1047B00061696E290A4E3138302066373030202842
:1047C0006D73672A2A2A2A4368616E6765206665C9
:1047D00065642072617465207768696C6520696E14
:1047E000204733206D6F74696F6E206D6F64652A8A
:1047F0002A2A2A290A4E3139302067337830793015
:1048000069323020284343572033363020337264D6
:104810002074696D65290A4E323030206733783054
:1048200079306932302028434357203336302034E2
:1048300074682074696D65290A4E32313020286D04
:1048400073672A2A2A2A473138204576616C2074FA
:104850006573742A2A2A2A290A4E323230204731B7
:10486000205833302E373037205A35302E373237F4
:1048700020463530300A4E32333020473138204719
:104880003032205836372E373338205A32332E36CE
:1048900031372052323520463235300A4E323430EC
:1048A000206738300A4E3235302067307830793022
:1048B0007A300A4E323630206D333000284D53475F
:1048C0002A2A2A2A204477656C6C20546573742048
:1048D0005B76315D202A2A2A2A290A67303067311F
:1048E000376732316739300A6735350A67307830D3
:1048F00079300A663530300A67307831300A6734EB
:1049000070310A67307832300A673470310A6730A4
:104910007831300A673470310A67307830300A678E
:104920003470310A79350A6735340A67307830795E
:10493000300A6D330A673470310A67307831307964
:1049400031300A6D350A673470310A673078323099
:104950007932300A6D340A673470310A673078333F
:10496000307933300A6D380A673470310A6730782D
:1049700034307934300A6D390A673470310A67305F
:104980007835307935300A6730783079300A6D33D0
:104990003000284D53472A2A2A2A20466565646834
:1049A0006F6C642054657374205B76315D202A2A15
:1049B0002A2A290A284D53472A2A2A2A204D616E7D
:1049C00075616C6C7920656E746572202120616E52
:1049D00064207E20647572696E67206D6F76656DE8
:1049E000656E7420746F2074657374202A2A2A2AD5
:1049F000290A6735350A6730783079300A673470AC
:104A0000330A6730306731376732316734306734A3
:104A1000396738306739300A663630300A6730789F
:104A20003130307637362E3736350A783079300ADD
:104A30006735340A6730783079300A6D33300028B2
:104A40004D53472A2A2A2A204D636F6465732074C8
:104A5000657374205B76315D202A2A2A2A290A6729
:104A600035350A6730783079300A6D330A6734702B
:104A7000310A6D350A673470310A6D340A67347053
:104A8000310A6D350A673470310A6D370A67347040
:104A9000310A6D390A673470310A6D380A6734702B
:104AA000310A6D390A663530300A67307832300A9B
:104AB0007932300A6D330A78300A6D340A79300A57
:104AC0006D350A67317831300A6D370A7931300A2D
:104AD0006D380A78300A6D390A79300A67327831D0
:104AE00030792D31306931300A6D330A67307830D2
:104AF00079300A6D340A6733783130792D31306975
:104B000031300A6D350A6730783079300A6D370AEE
:104B1000673278323079306931300A6D380A67305F
:104B2000783079300A6D390A6733783230793069F4
:104B300031300A6730783079300A6732783079302E
:104B40006931300A6733783079306931300A673536
:104B5000340A6730783079300A6D3330007B226751
:104B600063223A2267303067313767323167343039
:104B7000673439673830673930227D0A7B226763B2
:104B8000223A22673535227D0A7B226763223A2248
:104B9000673078307930227D0A7B226763223A229F
:104BA00066353030227D0A7B226763223A22284D07
:104BB00053477371756172657329227D0A7B226781
:104BC00063223A226730783230227D0A7B22676383
:104BD000223A22793230227D0A7B226763223A22EE
:104BE0007830227D0A7B226763223A227930227D47
:104BF0000A7B226763223A226731783130227D0AAC
:104C00007B226763223A22793130227D0A7B226738
:104C100063223A227830227D0A7B226763223A227D
:104C20007930227D0A7B226763223A22284D53473E
:104C3000636972636C657329227D0A7B2267632234
:104C40003A226732783130792D3130693130227D26
:104C50000A7B226763223A22673078307930227DDE
:104C60000A7B226763223A226733783130792D310B
:104C700030693130227D0A7B226763223A22673015
:104C800078307930227D0A7B226763223A226732AC
:104C90007832307930693130227D0A7B2267632295
:104CA0003A22673078307930227D0A7B226763228E
:104CB0003A2267337832307930693130227D0A7B8D
:104CC000226763223A22673078307930227D0A7B6E
:104CD000226763223A226732783079306931302294
:104CE0007D0A7B226763223A226733783079306904
:104CF0003130227D0A7B226763223A2267353422D3
:104D00007D0A7B226763223A22673078307930222D
:104D10007D0A7B226763223A226D3330227D002890
:104D20004D53472A2A2A2A20496E766572736520D8
:104D300054696D65204D6F74696F6E20546573748E
:104D4000205B76315D202A2A2A2A290A67303067BB
:104D50003137673231673430673439673830673913
:104D6000300A6735350A6730783079300A67393369
:104D70000A66302E30310A67317831300A793130A5
:104D80000A7A31300A6131300A78300A79300A7A89
:104D9000300A61300A67317831307931307A2D311B
:104DA000306131300A6730783079307A3061300ADA
:104DB00066302E310A6732783130792D31307A2DD4
:104DC00032306931300A6730783079307A300A67AA
:104DD00033783130792D31307A2D32306931300AE3
:104DE0006730783079307A300A673278323079300B
:104DF0007A2D32306931300A6730783079307A3044
:104E00000A673378323079306931300A6730783068
:104E100079307A300A6732783079307A2D333069D8
:104E200031300A6733783079307A306931300A6747
:104E300030783079307A300A6732783079306932B8
:104E4000302028435720333630206465677265650B
:104E500073290A6733783079306932302028434328
:104E600057203336302064656772656573290A6799
:104E700039340A6735340A6730783079300A6D334F
:104E80003000284D53472A2A2A2A20526F74617213
:104E9000792041786973204D6F74696F6E20546575
:104EA0007374205B76315D202A2A2A2A290A67300A
:104EB00030673137673231673430673439673830BB
:104EC0006739300A6730783079307A306130623053
:104ED00063300A6735350A6730783079300A6633CF
:104EE000363030300A6730613336300A623336305C
:104EF0000A633336300A61300A62300A63300A6767
:104F00003161313434300A62313434300A6331343F
:104F100034300A61300A62300A63300A6731613125
:104F200034343062373230633336300A7830793097
:104F30007A306130623063300A67317836306131FF
:104F400034343062373230633336300A7830793077
:104F50007A306130623063300A67317836307935C3
:104F600030613134343062373230633336300A786E
:104F70003079307A306130623063300A67317836A8
:104F8000307935307832356131343430623732300F
:104F9000633336300A783079307A3061306230638A
:104FA000300A6735340A6730783079300A6D33302B
:104FB00000284D53472A2A2A2A20546573742076E4
:104FC0006572792073686F7274206D6F76657320D7
:104FD0005B76315D202A2A2A2A290A6730783079BF
:104FE000300A673470302E350A673178302E3166DA
:104FF000313030300A78300A78302E310A78300A71
:1050000078302E310A78300A78302E310A78300A1A
:1050100078302E310A78300A78302E310A78300A0A
:1050200078302E310A78300A78302E310A78300AFA
:1050300078302E310A78300A78302E310A78300AEA
:1050400078302E310A78300A78302E310A78300ADA
:1050500078302E310A78300A78302E310A78300ACA
:1050600078302E310A673470302E350A78300A785D
:10507000302E30310A78300A78302E30310A7830CC
:105080000A78302E30310A78300A78302E30310AE2
:1050900078300A78302E30310A78300A78302E3065
:1050A000310A78300A78302E30310A78300A783078
:1050B0002E30310A78300A78302E30310A78300AB2
:1050C00078302E30310A78300A78302E30310A7834
:1050D000300A78302E30310A78300A78302E30316C
:1050E0000A78300A78302E30310A673078307930DB
:1050F0000A6D3200284D53472A2A2A2A2054657304
:1051000074206163637572616379206F6620736CCC
:105110006F77206D6F766573205B76315D202A2A6C
:105120002A2A290A6735350A6730783079300A67C4
:105130003470302E350A673470302E350A67317876
:1051400031306632320A6735340A67307830793068
:105150000A6D333000284D53472A2A2A2A20436FEC
:105160006F7264696E617465206F666673657473CF
:105170002074657374205B76315D202A2A2A2A29DF
:105180000A67303067313767323167343067343916
:105190006738306739300A6735340A673932783012
:1051A00079307A300A663630300A284D53472A2A39
:1051B0002A2A207465737420473932206F6666731B
:1051C0006574732A2A2A2A290A286D73675374651D
:1051D0007020313A204D6F76652066726F6D2030F9
:1051E0002C3020746F2033302C30206D6D20696E90
:1051F00020706F73697469766520582064697265E0
:105200006374696F6E290A286D7367537465702023
:10521000323A205265736574206F726967696E2037
:10522000746F20302E30207573696E6720473932D5
:10523000290A286D73675374657020333A204D6FC7
:10524000766520746F2032302C302E2053686F75B5
:105250006C64206D6F7665203230206D6D20696E34
:1052600020706F736974697665205820646972656F
:105270006374696F6E20616E6420737461747573FA
:10528000207265706F72742073686F756C64207320
:10529000746172742066726F6D20302C30290A2878
:1052A0006D73675374657020343A204D6F766520B6
:1052B000746F20302E3020202053686F756C64206E
:1052C0006D6F7665203230206D6D20696E206E65C1
:1052D00067617469766520582064697265637469D2
:1052E0006F6E20616E6420737461747573207265D3
:1052F000706F72742073686F756C64207374617260
:10530000742066726F6D2032302C30290A67317834
:1053100033300A67393278300A67317832300A67B9
:1053200031783079300A2473720A67393278300A5A
:10533000673470302E350A284D53472A2A2A2A20EE
:105340007465737420473535206F666673657473B2
:105350002A2A2A2A290A286D736753746570203116
:105360003A2053657420436F6F7264696E6174658F
:105370002073797374656D2032205B6735355D204D
:10538000746F206F6666736574206F662035302CED
:105390003530290A286D73675374657020323A20BE
:1053A00053656C6563742047353520636F6F726495
:1053B000696E6174652073797374656D290A286D4F
:1053C00073675374657020333A204D6F766520748F
:1053D0006F20302C302E20486561642073686F7513
:1053E0006C64206D6F766520646961676F6E616CB7
:1053F0006C7920696E202B5820616E64202B592017
:10540000616E6420737461747573207265706F725D
:10541000742073686F756C64207374617274206695
:10542000726F6D20302C30290A6731304C32703267
:105430007835307935300A6735350A673078307914
:10544000300A673470302E350A284D53472A2A2AED
:105450002A207465737420473533206162736F6C42
:10546000757465206F7665727269646573202A2A87
:105470002A2A290A286D73675374657020313A20EF
:1054800052756E20612073717561726520696E209E
:105490004735352073797374656D290A286D7367F4
:1054A0005374657020323A2052756E2061207371FA
:1054B0007561726520772F473533206F766572727C
:1054C000696465290A6730783079300A6730783244
:1054D0003079300A67307832307932300A67307884
:1054E000307932300A6730783079300A673470307A
:1054F0002E350A6735336730783079300A673533AF
:10550000673078323079300A673533673078323037
:105510007932300A673533673078307932300A674C
:1055200035336730783079300A6730783079300A2F
:10553000673470302E350A284D53472A2A2A2A20EC
:10554000746573742052657475726E20746F206870
:105550006F6D65202A2A2A2A290A286D73675374D9
:10556000657020313A2052657475726E20746F2018
:10557000686F6D65207573696E6720473238290A38
:10558000286D73675374657020323A2052657365D5
:105590007420746F2047353420636F6F72642073FA
:1055A000797374656D290A6732380A6735340A6D74
:1055B000333000284D53472A2A2A2A204D69637226
:1055C0006F737465702054657374205B76315D2051
:1055D0002A2A2A2A290A47303020473137204732E1
:1055E000312047343020473439204738302047397C
:1055F000300A6730783079307A300A7B22316D6931
:10560000223A317D0A7B22326D69223A317D0A7B52
:1056100022336D69223A317D0A7B22346D69223A48
:10562000317D0A6730207831300A7B22316D692262
:105630003A327D0A78300A7B22316D69223A347D14
:105640000A7831300A7B22316D69223A387D0A7836
:10565000300A6730207931300A7B22326D69223A74
:10566000327D0A79300A7B22326D69223A347D0A12
:105670007931300A7B22326D69223A387D0A7930DD
:105680000A6730207A31300A7B22336D69223A3240
:105690007D0A7A300A7B22336D69223A347D0A7A98
:1056A00031300A7B22336D69223A387D0A7A300A1A
:1056B0006730206131300A7B22346D69223A327DB5
:1056C0000A61300A7B22346D69223A347D0A6131E5
:1056D000300A7B22346D69223A387D0A61300A6DC6
:1056E00032004E31204732300A4E352047343020C8
:1056F0004731370A4E3130205431204D30360A2898
:105700004E3135204739302047302058302059302D
:10571000205A30290A4E3230205335303030204D57
:105720003033200A4E32352058302E30363420594E
:10573000302E333236205A300A4E34302047303142
:10574000204631362E300A4E35302058302E303635
:10575000342059302E3332360A4E35352058302E0B
:105760003036302059302E3239330A4E36302058F8
:10577000302E3037372059302E3236370A4E3635F4
:105780002058302E3131312059302E3235370A4EE3
:1057900037302058302E3134392059302E323532BE
:1057A0000A4E37352058302E3138382059302E32B5
:1057B00035350A4E38302058302E323237205930A5
:1057C0002E3236380A4E38352058302E32353720B2
:1057D00059302E3237310A4E39302058302E33337B
:1057E000352059302E3236350A4E39352058302E74
:1057F0003431322059302E3237310A4E3130302098
:1058000058302E3437342059302E3238370A4E3142
:1058100030352058302E3439312059302E32383935
:105820000A4E3131302058302E3531372059302E44
:105830003237330A4E3131352058302E353434204A
:1058400059302E3236330A4E3132302058302E3510
:1058500038302059302E3236310A4E313235205808
:10586000302E3539352059302E3236330A4E313309
:10587000302058302E3632312059302E3237340A0B
:105880004E3133352058302E3635392059302E33AD
:1058900030360A4E3134302058302E3637332059C6
:1058A000302E3333350A4E3134352058302E3637CA
:1058B000392059302E3336310A4E313530205830A8
:1058C0002E3637382059302E3338390A4E31353597
:1058D0002058302E3637302059302E3432300A4E90
:1058E0003136302058302E3637302059302E34346F
:1058F000360A4E3136352058302E36383020593061
:105900002E3437340A4E3137302058302E37303469
:105910002059302E3439370A4E3137352058302E41
:105920003733322059302E3531350A4E3138302058
:1059300058302E3739342059302E3533350A4E3110
:1059400038352058302E3837322059302E353637FA
:105950000A4E3139302058302E3935302059302E0A
:105960003630340A4E3139352058312E303331201B
:1059700059302E3634370A4E3230302058312E31DD
:1059800034392059302E3732320A4E3230352058D1
:10599000312E3330382059302E3835340A4E3231DA
:1059A000302058312E3433302059302E3938340AD3
:1059B0004E3231352058312E3434372059302E397B
:1059C00038360A4E3232302058312E36323820598D
:1059D000302E3832320A4E3232352058312E37339B
:1059E000322059302E3731340A4E3233302058327B
:1059F0002E3030392059302E3338310A4E3233357B
:105A00002058322E3131362059302E3236360A4E59
:105A10003234302058322E3232382059302E31353F
:105A2000370A4E3234352058322E32383020593031
:105A30002E3132330A4E3235302058322E33333243
:105A40002059302E3039340A4E3235352058322E16
:105A50003432332059302E3037300A4E323630202F
:105A600058322E3438392059302E3036350A4E32DD
:105A700036352058322E3535372059302E303636CF
:105A80000A4E3237302058322E3632372059302ED7
:105A90003038340A4E3237352058322E36393320DA
:105AA00059302E3130390A4E3238302058322E37A4
:105AB00033302059302E3133330A4E3238352058A6
:105AC000322E3830352059302E3139300A4E3239A5
:105AD000302058322E3832392059302E3231360AA1
