:100000000C9420350C9441350C9441350C944135B9
:100010000C9441350C9441350C9441350C94413588
:100020000C9441350C9441350C9441350C94EEA45C
:100030000C9441350C9441350C94FF990C94413546
:100040000C9441350C9441350C9441350C94413558
:100050000C9441350C9441350C9441350C94413548
:100060000C9441350C942CAA0C94D6A90C944135CF
:100070000C9480AF0C9408AF0C9450AF0C944135A5
:100080000C9440A50C9441350C9441350C944135A9
:100090000C9441350C9441350C9441350C94413508
:1000A0000C9441350C9441350C9441350C941D81D0
:1000B0000C94E1810C9441350C9441350C94429C94
:1000C0000C9441350C9441350C9441350C944135D8
:1000D0000C9441350C9441350C9441350C944135C8
:1000E0000C949FB60C9441350C9441350C944135D9
:1000F0000C9441350C9441350C9441350C944135A8
:100100000C94EC800C94B0810C94BB800C947F8197
:100110000C9441350C9441350C9441350C94413587
:100120000C9441350C9441350C9441350C94413577
:100130000C9441350C94F09B0C9441350C94413552
:100140000C9441350C9441350C9441350C94413557
:100150000C9441350C9441350C948FB60C94413578
:100160000C9441350C9441350C9441350C94413537
:100170000C9441350C9441350C9441350C94413527
:100180000C9441350C9441350C9441350C94413517
:100190000C9441350C9441350C9441350C94413507
:1001A0000C944E810C9412820C9441350C94413580
:1001B0000C94759C0C9441350C9441350C9441354C
:1001C0000C9441350C9441350C9441350C944135D7
:1001D0000C9441350C9441350C9441350C944135C7
:1001E0000C9441350C944135084AD73B3BCE016E07
:1001F00084BCBFFDC12F3D6C74319ABD56833DDA7E
:100200003D00C77F11BED9E4BB4C3E916BAAAABE8C
:10021000000000803F05A84CCDB2D44EB93836A9B5
:10022000020C50B9918688083CA6AAAA2ABE0000F2
:1002300000803F07634236B79BD8A71A3968561823
:10024000AEBAAB558C1D3CB7CC5763BD6DEDFD759B
:100250003EF6177231BF000000803F08000000BE6C
:10026000922449123EABAAAA2ABECDCCCC4C3E0069
:10027000000080BEABAAAAAA3E00000000BF00009A
:1002800000803F0000000000084178D3BB4387D1C5
:10029000133D190E3CC3BD4282AD2B3E68EC827605
:1002A000BED98FE1A93E4C80EFFFBE01C4FF7F3F66
:1002B00000000000006E616E00696E6600454D45ED
:1002C0005247454E43592053485554444F574E0AC0
:1002D000007B226572223A22456D657267656E6306
:1002E00079207368757420646F776E227D0A002010
:1002F000696E00206D6D002064656700EF02F302F7
:10030000F702473230202D20696E63686573206DD7
:100310006F646500473231202D206D696C6C696D0A
:1003200065746572206D6F64650002031403496E85
:10033000697469616C697A696E6700526573657486
:100340000053746F7000456E640052756E00486F04
:100350006C640050726F6265004379636C6500489D
:100360006F6D696E67004A6F67002E033B034103A0
:1003700046034A034E03530359035F036603496E62
:10038000697469616C697A696E6700526573657436
:10039000004379636C650053746F7000456E6400B0
:1003A0007E038B03910397039C034F66660053748F
:1003B000617274656400486F6D696E670050726F9A
:1003C000626500AA03AE03B603BD0353746F7000E9
:1003D00052756E00486F6C6400CB03D003D4034F9A
:1003E00066660053796E6300506C616E004465630D
:1003F000656C00486F6C6400DF03E303E803ED0302
:10040000F3034E6F7420486F6D656400486F6D652F
:10041000640002040C0430003936303000313932C7
:10042000303000333834303000353736303000313A
:100430003135323030003233303430300016041869
:10044000041D04230429042F0436044469736162E3
:100450006C6564004E4F20686F6D696E67004E4F8B
:1004600020686F6D696E672026206C696D69740065
:100470004E4320686F6D696E67004E4320686F6D54
:10048000696E672026206C696D6974004B04540402
:100490005E0470047A04473533202D206D61636853
:1004A000696E6520636F6F7264696E617465207335
:1004B000797374656D00473534202D20636F6F723A
:1004C00064696E6174652073797374656D203100A1
:1004D000473535202D20636F6F7264696E617465D6
:1004E0002073797374656D203200473536202D20D6
:1004F000636F6F7264696E6174652073797374657C
:100500006D203300473537202D20636F6F7264698B
:100510006E6174652073797374656D20340047359E
:1005200038202D20636F6F7264696E61746520736B
:10053000797374656D203500473539202D20636F40
:100540006F7264696E6174652073797374656D2070
:1005500036009604B604D004EA0404051E053805E6
:10056000473020202D206C696E65617220747261A5
:10057000766572736520287365656B2900473120A5
:10058000202D206C696E6561722066656564004788
:100590003220202D20636C6F636B77697365206157
:1005A0007263206665656400473320202D20636FE9
:1005B000756E74657220636C6F636B776973652009
:1005C000617263206665656400473830202D2063C2
:1005D000616E63656C206D6F74696F6E206D6F6402
:1005E0006520286E6F6E65206163746976652900E9
:1005F00060057D058F05A805C905473137202D20E9
:10060000585920706C616E6500473138202D205894
:100610005A20706C616E6500473139202D20595A7F
:1006200020706C616E6500FA0509061806473631C0
:10063000202D2065786163742073746F70206D6F56
:100640006465004736312E31202D20657861637452
:100650002070617468206D6F646500473634202D0A
:1006600020636F6E74696E756F7573206D6F64654E
:10067000002D062D065B06473930202D2061627360
:100680006F6C7574652064697374616E6365206D49
:100690006F646500473931202D20696E6372656D86
:1006A000656E74616C2064697374616E6365206D3E
:1006B0006F64650077069406473934202D20756EE7
:1006C0006974732D7065722D6D696E757465206D1A
:1006D0006F64652028692E652E20666565647261E9
:1006E0007465206D6F64652900473933202D2069BA
:1006F0006E76657273652074696D65206D6F6465D3
:1007000000B806E9065B64697361626C65645D004C
:100710005B7374616E646172645D005B696E6869CD
:1007200062697465645D005B7261646975735D0024
:10073000050710071B0727070025640A0025660A1E
:100740000025730A005B66765D20206669726D770E
:100750006172652076657273696F6E2531362E324F
:10076000660A005B66625D20206669726D77617261
:1007700065206275696C642531382E32660A005B2B
:1007800068765D20206861726477617265207665A5
:100790007273696F6E2531362E32660A005B6964AA
:1007A0005D202054696E7947204944253330730A0F
:1007B000005B6A615D20206A756E6374696F6E20EC
:1007C000616363656C65726174696F6E25382E3084
:1007D0006625530A005B6D6C5D20206D696E206C90
:1007E000696E65207365676D656E742531372E33CC
:1007F0006625530A005B6D615D20206D696E206186
:100800007263207365676D656E742531382E3366AB
:1008100025530A005B63745D202063686F72646116
:100820006C20746F6C6572616E63652531362E3392
:100830006625530A005B6D745D20206D696E207320
:1008400065676D656E742074696D652531332E3072
:100850006620755365630A005B73745D20207377AF
:1008600069746368207479706525313864205B3061
:100870003D4E4F2C313D4E435D0A005B73695D2058
:100880002073746174757320696E74657276616C1F
:100890002531342E3066206D73205B303D6F6666E7
:1008A0005D0A005B69635D202069676E6F72652079
:1008B0004352206F72204C46206F6E2052582538CC
:1008C00064205B302C313D43522C323D4C465D0A56
:1008D000005B65635D2020657870616E64204C4626
:1008E00020746F2043524C46206F6E20545825369A
:1008F00064205B302C315D0A005B65655D202065FE
:100900006E61626C65206563686F25313864205BB9
:10091000302C315D0A005B65785D2020656E616278
:100920006C6520786F6E20786F66662531346420A0
:100930005B302C315D0A005B65715D20207175654F
:100940007565207265706F727420766572626F7360
:10095000697479253764205B302D325D0A005B6550
:100960006A5D2020656E61626C65206A736F6E201F
:100970006D6F646525313364205B302C315D0A0076
:100980005B6A765D20206A736F6E20766572626F97
:100990007369747925313564205B302D355D0A002B
:1009A0005B74765D20207465787420766572626F62
:1009B0007369747925313564205B302D335D0A000D
:1009C0005B73765D20207374617475732076657235
:1009D000626F7369747925313364205B302D325D29
:1009E0000A005B626175645D205553422062617547
:1009F00064207261746525313564205B302D365D6D
:100A00000A0071723A25640A0072783A25640A0075
:100A100056656C6F636974793A2531372E336625D4
:100A2000532F6D696E0A004C696E65206E756D629C
:100A300065723A2531302E30660A004665656420BD
:100A4000726174653A2531362E336625532F6D69F0
:100A50006E0A004D616368696E6520737461746528
:100A60003A2020202020202025730A005261772080
:100A70006D616368696E652073746174653A2020E6
:100A80002025730A004379636C6520737461746573
:100A90003A20202020202020202025730A004D6F9E
:100AA00074696F6E2073746174653A202020202071
:100AB00020202025730A0046656564686F6C6420F9
:100AC00073746174653A20202020202025730A0069
:100AD000486F6D696E672073746174653A202020D9
:100AE000202020202025730A00556E6974733A2057
:100AF000202020202020202020202020202025739E
:100B00000A00436F6F7264696E6174652073797354
:100B100074656D3A20202025730A004D6F74696F4B
:100B20006E206D6F64653A20202020202020202038
:100B300025730A00506C616E653A20202020202029
:100B400020202020202020202025730A00506174BE
:100B500068204D6F64653A2020202020202020202E
:100B6000202025730A0044697374616E6365206DEB
:100B70006F64653A2020202020202025730A00463B
:100B80006565642072617465206D6F64653A20202C
:100B90002020202025730A005820706F7369746923
:100BA0006F6E3A2531352E336625530A0059207071
:100BB0006F736974696F6E3A2531352E336625532C
:100BC0000A005A20706F736974696F6E3A25313567
:100BD0002E336625530A004120706F736974696F64
:100BE0006E3A2531352E336625530A004220706F48
:100BF000736974696F6E3A2531352E336625530A51
:100C0000004320706F736974696F6E3A2531352E19
:100C1000336625530A0058206D616368696E65204C
:100C2000706F736E3A2531312E336625530A0059A1
:100C3000206D616368696E6520706F736E3A25314F
:100C4000312E336625530A005A206D616368696E40
:100C50006520706F736E3A2531312E336625530A45
:100C60000041206D616368696E6520706F736E3A34
:100C70002531312E336625530A0042206D616368A9
:100C8000696E6520706F736E3A2531312E3366259B
:100C9000530A0043206D616368696E6520706F734D
:100CA0006E3A2531312E336625530A00582061787B
:100CB000697320686F6D65643A2534640A005920B1
:100CC0006178697320686F6D65643A2534640A0041
:100CD0005A206178697320686F6D65643A253464C1
:100CE0000A0041206178697320686F6D65643A2558
:100CF00034640A0042206178697320686F6D65640E
:100D00003A2534640A0043206178697320686F6D66
:100D100065643A2534640A005B257325735D206D94
:100D20002573206D617020746F206178697325319F
:100D30003564205B303D582C20313D592E2E2E5DE0
:100D40000A005B257325735D206D25732073746520
:100D50007020616E676C652532302E336625530A2C
:100D6000005B257325735D206D2573207472617699
:100D7000656C20706572207265766F6C7574696F32
:100D80006E25392E336625530A005B257325735D66
:100D9000206D2573206D6963726F737465707325A0
:100DA000313664205B312C322C342C385D0A005BE8
:100DB000257325735D206D257320706F6C617269DA
:100DC000747925313864205B302C315D0A005B2555
:100DD0007325735D206D257320706F776572206DAC
:100DE000616E6167656D656E7425313064205B30BE
:100DF0002C315D0A005B257325735D20257320610E
:100E0000786973206D6F6465253138642025530A35
:100E1000005B257325735D2025732066656564720C
:100E2000617465206D6178696D756D2531352E337E
:100E30006625532F6D696E0A005B257325735D204F
:100E400025732076656C6F63697479206D617869AC
:100E50006D756D2531352E336625532F6D696E0AFC
:100E6000005B257325735D202573207472617665A0
:100E70006C206D6178696D756D2531372E3366256F
:100E8000530A005B257325735D202573206A657204
:100E90006B206D6178696D756D2531352E30662555
:100EA000532F6D696E5E330A005B257325735D20D9
:100EB0002573206A756E6374696F6E206465766948
:100EC0006174696F6E2531342E3466255320286C89
:100ED0006172676572206973206661737465722937
:100EE0000A005B257325735D202573207261646998
:100EF00075732076616C75652532302E3466255306
:100F00000A005B257325735D202573207377697450
:100F10006368206D696E25313764205B302D345D48
:100F20000A005B257325735D202573207377697430
:100F30006368206D617825313764205B302D345D26
:100F40000A005B257325735D20257320736561722C
:100F500063682076656C6F636974792531362E334A
:100F60006625532F6D696E0A005B257325735D201E
:100F70002573206C617463682076656C6F63697497
:100F8000792531372E336625532F6D696E0A005B44
:100F9000257325735D202573206C6174636820625E
:100FA00061636B6F66662531382E336625530A0000
:100FB0005B257325735D202573207A65726F20622F
:100FC00061636B6F66662531392E336625530A00DF
:100FD0005B70316672715D2070776D20667265712D
:100FE00075656E63792020202531352E33662048C3
:100FF0007A0A005B703163736C5D2070776D2063DB
:1010000077207370656564206C6F202531352E3331
:10101000662052504D0A005B70316373685D20702A
:10102000776D20637720737065656420686920257B
:1010300031352E33662052504D0A005B703163709B
:101040006C5D2070776D2063772070686173652018
:101050006C6F202531352E3366205B302E2E315DAE
:101060000A005B70316370685D2070776D20637774
:10107000207068617365206869202531352E3366DC
:10108000205B302E2E315D0A005B703177736C5D12
:101090002070776D20636377207370656564206CC2
:1010A0006F2531352E33662052504D0A005B70316A
:1010B0007773685D2070776D206363772073706548
:1010C00065642068692531352E33662052504D0AFB
:1010D000005B703177706C5D2070776D2063637793
:1010E000207068617365206C6F2531352E33662062
:1010F0005B302E2E315D0A005B70317770685D20A9
:1011000070776D206363772070686173652068690C
:101110002531352E3366205B302E2E315D0A005B83
:101120007031706F665D2070776D207068617365D7
:10113000206F66662020202531352E3366205B30F7
:101140002E2E315D0A005B257325735D20257320EB
:101150002573206F66667365742532302E336625DD
:10116000530A005B257325735D20257320257320AA
:101170006C6F636174696F6E2531382E3366255349
:101180000A005B67706C5D2064656661756C742035
:1011900067636F646520706C616E65253130642013
:1011A0005B303D4731372C313D4731382C323D479C
:1011B00031395D0A005B67756E5D20646566617537
:1011C0006C742067636F646520756E697473206D3D
:1011D0006F6465253564205B303D4732302C313DEE
:1011E0004732315D0A005B67636F5D20646566614D
:1011F000756C742067636F646520636F6F72642021
:1012000073797374656D253364205B312D36202826
:101210004735342D473539295D0A005B6770615DBC
:101220002064656661756C742067636F6465207007
:1012300061746820636F6E74726F6C253364205B19
:10124000303D4736312C313D4736312E312C323D41
:101250004736345D0A005B6764695D2064656661DA
:10126000756C742067636F64652064697374616E64
:101270006365206D6F6465253264205B303D4739BE
:10128000302C313D4739315D0A0073797300666255
:1012900000000000076307265FBD59C057B03685C0
:1012A0000BB54373797300667600000000074507AD
:1012B000265FBD59C057B4363333733F737973001B
:1012C000687600000000077F07265FBD59484CB8CC
:1012D000360000E040737973006964000000000488
:1012E0009D07245E664CC0573D340000000000009E
:1012F00000006E000000000001270AC85E78591542
:10130000581D2400000000000000006C696E65009C
:101310000001270AC85E354F15581D240000000043
:1013200000000000666565640000003B0A7A5FFC0F
:1013300059C0573D34000000000000000073746184
:1013400074000000530A245EC94DC0573D340000AC
:101350000000000000006D6163730000006C0A244F
:101360005EE54DC0573D3400000000000000006302
:10137000796373000000850A245E014EC0573D3436
:1013800000000000000000006D6F74730000009EFC
:101390000A245E1D4EC0573D3400000000000000CE
:1013A00000686F6C64000000B70A245E394EC057B5
:1013B0003D34000000000000000076656C00000075
:1013C00000100A7A5F514FC0573D34000000000002
:1013D000000000756E6974000000E90A245E714E19
:1013E000C0573D340000000000000000636F6F72C2
:1013F000000000020B245E8D4EC0573D34000000FB
:1014000000000000006D6F6D6F0000001B0B245E7C
:10141000A94EC0573D340000000000000000706C71
:10142000616E000000340B245EC54EC0573D340091
:1014300000000000000000706174680000004D0BA7
:10144000245EE14EC0573D34000000000000000063
:1014500064697374000000660B245EFD4EC0573D46
:1014600034000000000000000066726D6F00000094
:101470007F0B245E194FC0573D3400000000706F91
:101480007300706F7378000004980BCB4F874FC0C8
:10149000573D3400000000706F7300706F73790067
:1014A0000004AD0BCB4F874FC0573D340000000008
:1014B000706F7300706F737A000004C20BCB4F879C
:1014C0004FC0573D3400000000706F7300706F73A1
:1014D00061000004D70BCB4F874FC0573D3400004D
:1014E0000000706F7300706F7362000004EC0BCB30
:1014F0004F874FC0573D3400000000706F7300707D
:101500006F7363000004010CCB4F874FC0573D340D
:10151000000000006D706F006D706F7800000416A1
:101520000CCB4FA94FC0573D34000000006D706FC9
:10153000006D706F790000042F0CCB4FA94FC0577E
:101540003D34000000006D706F006D706F7A000018
:1015500004480CCB4FA94FC0573D34000000006D2C
:10156000706F006D706F61000004610CCB4FA94F6C
:10157000C0573D34000000006D706F006D706F62E9
:101580000000047A0CCB4FA94FC0573D3400000037
:10159000006D706F006D706F63000004930CCB4F93
:1015A000A94FC0573D3400000000686F6D00686FA0
:1015B0006D65000004D00A245E554E82503D340013
:1015C000000000686F6D00686F6D78000004AC0C5F
:1015D000C85E3259C0576E3A00000000686F6D0057
:1015E000686F6D79000004BE0CC85E3259C0576F39
:1015F0003A00000000686F6D00686F6D7A000004AB
:10160000D00CC85E3259C057703A00000000686FB5
:101610006D00686F6D61000004E20CC85E3259C055
:1016200057713A00000000686F6D00686F6D6200CE
:101630000004F40CC85E3259C057723A0000000032
:10164000686F6D00686F6D63000004060DC85E3240
:1016500059C057733A000000000000000073720088
:10166000000000003807D54CC54CE44C3D34000068
:1016700000000000000071720000000000020AC8B3
:101680005E7D4CC0573D3400000000000000007239
:10169000780000000000090AC85EA14CC0573D3424
:1016A00000000000000000006D73670000000041B2
:1016B00007245E2059C0573D3400000000000000A0
:1016C00000746573740000003807285AEC844BA33B
:1016D0004134000000000000000064656661000005
:1016E000003807285A2685C1553D34000000000007
:1016F000000000626F6F740000003807285A608590
:10170000C0573D34000000000000000068656C70A8
:101710000000003807285A9B84C0573D3400000061
:101720000000000000680000000000003807285A90
:101730009B84C0573D340000000031000000316D33
:101740006100000003180D355A3259CE57DA3700C0
:101750000000003100000031736100000003420D01
:10176000725BBD594E51DE376666E63F31000000C0
:1017700031747200000003610DC55AFC596451E2D6
:1017800037F628124231000000316D690000000375
:101790008A0D355A32597A51DB3700000041310049
:1017A000000031706F00000003AF0D355A32591F31
:1017B00052DC37000000003100000031706D000085
:1017C0000003CE0D355A3259CE57DD370000803F29
:1017D00032000000326D6100000003180D355A32EE
:1017E00059CE57EA370000803F3200000032736163
:1017F00000000003420D725BBD594E51EE37666624
:10180000E63F3200000032747200000003610DC533
:101810005AFC596451F237F6281242320000003265
:101820006D69000000038A0D355A32597A51EB3741
:10183000000000413200000032706F00000003AF72
:101840000D355A32591F52EC370000803F320000EC
:101850000032706D00000003CE0D355A3259CE575C
:10186000ED370000803F33000000336D6100000061
:1018700003180D355A3259CE57FA3700000040335D
:1018800000000033736100000003420D725BBD591C
:101890004E51FE376666E63F330000003374720037
:1018A000000003610DC55AFC59645102380000A0C4
:1018B0003F33000000336D69000000038A0D355A84
:1018C00032597A51FB370000004133000000337079
:1018D0006F00000003AF0D355A32591F52FC37001C
:1018E0000000003300000033706D00000003CE0DD7
:1018F000355A3259CE57FD370000803F3400000082
:10190000346D6100000003180D355A3259CE570A64
:1019100038000040403400000034736100000003D0
:10192000420D725BBD594E510E386666E63F34007B
:10193000000034747200000003610DC55AFC596444
:101940005112380000344334000000346D69000047
:1019500000038A0D355A32597A510B380000004184
:101960003400000034706F00000003AF0D355A32B0
:10197000591F520C38000000003400000034706D14
:1019800000000003CE0D355A3259CE570D380000F5
:10199000803F7800000078616D00000003F50D04C1
:1019A0005CA250CC501A380000803F7800000078CC
:1019B000766D00000003390EC55AFC599F581F3838
:1019C00000007A467800000078667200000003117B
:1019D0000EC55AFC599F581B3800007A4678000003
:1019E0000078746D00000003610EC55AFC599F58C1
:1019F000233800005C4378000000786A6D00000026
:101A000003830EC55AFC599F582738F902954F7821
:101A1000000000786A6400000003A90EC55AFC5952
:101A20009F582B380AD7233C7800000078736E004B
:101A3000000003020F355A32593A51A44400008085
:101A40003F7800000078737800000003220F355AB9
:101A500032593A51A5440000000078000000787324
:101A60007600000003420FC55AFC599F58333800D6
:101A7000803B4578000000786C7600000003690F19
:101A8000C55AFC599F5837380000C84278000000FA
:101A9000786C62000000038F0FC55AFC599F583BB9
:101AA000380000A04178000000787A62000000034E
:101AB000B00FC55AFC599F583F380000404079008C
:101AC000000079616D00000003F50D045CA250CCAC
:101AD0005043380000803F7900000079766D0000A7
:101AE0000003390EC55AFC599F58483800007A4601
:101AF0007900000079667200000003110EC55AFCDF
:101B0000599F58443800007A467900000079746D76
:101B100000000003610EC55AFC599F584C38000064
:101B20005C4379000000796A6D00000003830EC5F4
:101B30005AFC599F585038F902954F7900000079A6
:101B40006A6400000003A90EC55AFC599F58543816
:101B50000AD7233C7900000079736E00000003026D
:101B60000F355A32593A51A6440000803F7900009F
:101B70000079737800000003220F355A32593A5128
:101B8000A74400000000790000007973760000008F
:101B900003420FC55AFC599F585C3800803B457979
:101BA000000000796C7600000003690FC55AFC59EB
:101BB0009F5860380000C84279000000796C6200CC
:101BC0000000038F0FC55AFC599F5864380000A0CD
:101BD0004179000000797A6200000003B00FC55A15
:101BE000FC599F586838000040407A0000007A6134
:101BF0006D00000003F50D045CA250CC506C380061
:101C000000803F7A0000007A766D00000003390EF4
:101C1000C55AFC599F58713800007A447A00000078
:101C20007A667200000003110EC55AFC599F586D68
:101C30003800007A447A0000007A746D00000003D6
:101C4000610EC55AFC599F5875380000C8427A0089
:101C500000007A6A6D00000003830EC55AFC599F8C
:101C600058793820BC3E4C7A0000007A6A64000043
:101C70000003A90EC55AFC599F587D380AD7233C4A
:101C80007A0000007A736E00000003020F355A32AA
:101C9000593A51A844000000007A0000007A737895
:101CA00000000003220F355A32593A51A94400006E
:101CB000803F7A0000007A737600000003420FC56F
:101CC0005AFC599F58853800007A447A0000007AFF
:101CD0006C7600000003690FC55AFC599F5889387B
:101CE0000000C8427A0000007A6C62000000038F96
:101CF0000FC55AFC599F588D380000A0417A00004A
:101D0000007A7A6200000003B00FC55AFC599F5850
:101D10009138000020416100000061616D00000009
:101D200003F50D045CA250CC5095380000803F6153
:101D300000000061766D00000003390E725BBD5932
:101D40005F589A3800606A4761000000616672005F
:101D5000000003110E725BBD595F58963800803B3E
:101D6000476100000061746D00000003610E725B4A
:101D7000BD595F589E380000C84361000000616A89
:101D80006D00000003830E725BBD595F58A2385E80
:101D9000D0B25061000000616A6400000003A90E27
:101DA000725BBD595F58A638CDCCCC3D61000000B8
:101DB00061726100000003E20E725BBD595F58AAB8
:101DC000380000803F6100000061736E0000000376
:101DD000020F355A32593A51AA440000803F61003F
:101DE000000061737800000003220F355A32593A1F
:101DF00051AB4400000000610000006173760000F8
:101E00000003420F725BBD595F58AE380080BB457E
:101E100061000000616C7600000003690F725BBD19
:101E2000595F58B23800007A4461000000616C626A
:101E3000000000038F0F725BBD595F58B638000079
:101E4000A04061000000617A6200000003B00F72E0
:101E50005BBD595F58BA3800000040620000006264
:101E6000616D00000003F50D045CA250CC50BE383B
:101E7000000000006200000062766D00000003397F
:101E80000E725BBD595F58C33800006145620000A7
:101E90000062667200000003110E725BBD595F584C
:101EA000BF38000061456200000062746D000000F0
:101EB00003610E725BBD595F58C738000080BF6276
:101EC000000000626A6D00000003830E725BBD5962
:101ED0005F58CB388096984B62000000626A6400BD
:101EE000000003A90E725BBD595F58CF380AD72393
:101EF0003C6200000062726100000003E20E725B4F
:101F0000BD595F58D3380000803F63000000636113
:101F10006D00000003F50D045CA250CC50E73800C2
:101F20000000006300000063766D00000003390EBE
:101F3000725BBD595F58EC380000614563000000DA
:101F400063667200000003110E725BBD595F58E8B2
:101F500038000061456300000063746D00000003F9
:101F6000610E725BBD595F58F038000080BF63009E
:101F70000000636A6D00000003830E725BBD595F51
:101F800058F4388096984B63000000636A64000040
:101F90000003A90E725BBD595F58F8380AD7233C7D
:101FA0006300000063726100000003E20E725BBD1B
:101FB000595F58FC380000803F7031000070316676
:101FC00072710003D00F265FBD595F5810390000B1
:101FD000000070310000703163736C0003F30F2652
:101FE0005FBD595F58143900000000703100007067
:101FF0003163736800031710265FBD595F581839A5
:102000000000000070310000703163706C00033B11
:1020100010265FBD595F581C390000000070310068
:1020200000703163706800036210265FBD595F580D
:1020300020390000000070310000703177736C00AF
:10204000038910265FBD595F5824390000000070D5
:1020500031000070317773680003AD10265FBD5901
:102060005F5828390000000070310000703177702F
:102070006C0003D110265FBD595F582C3900000059
:10208000007031000070317770680003F810265F2F
:10209000BD595F58303900000000703100007031C8
:1020A000706F6600031F11F15FBD595F583439002E
:1020B00000000067353400673534780000034611AE
:1020C000C15CFC599F584A37000000006735340056
:1020D000673534790000034611C15CFC599F584EA6
:1020E0003700000000673534006735347A0000039C
:1020F0004611C15CFC599F585237000000006735FB
:102100003400673534610000034611805DFC599F3F
:1021100058563700000000673534006735346200D8
:1021200000034611805DFC599F585A37000000009B
:1021300067353400673534630000034611805DFC69
:10214000599F585E37000000006735350067353508
:10215000780000034611C15CFC599F5862370000AB
:10216000B44267353500673535790000034611C143
:102170005CFC599F5866370000B4426735350067EC
:1021800035357A0000034611C15CFC599F586A3707
:1021900000000000673535006735356100000346F3
:1021A00011805DFC599F586E37000000006735357F
:1021B00000673535620000034611805DFC599F5869
:1021C0007237000000006735350067353563000061
:1021D000034611805DFC599F587637000000006768
:1021E000353600673536780000034611C15CFC596E
:1021F0009F587A370000B442673536006735367924
:102200000000034611C15CFC599F587E370000A0B6
:1022100041673536006735367A0000034611C15CE8
:10222000FC599F588237000020C16735360067355A
:1022300036610000034611805DFC599F58863700C7
:10224000000000673536006735366200000346112E
:10225000805DFC599F588A370000000067353600C2
:10226000673536630000034611805DFC599F588E28
:102270003700000000673537006735377800000306
:102280004611C15CFC599F58923700000000673529
:102290003700673537790000034611C15CFC599F50
:1022A00058963700000000673537006735377A00E9
:1022B00000034611C15CFC599F589A37000000008A
:1022C00067353700673537610000034611805DFCD4
:1022D000599F589E37000000006735370067353733
:1022E000620000034611805DFC599F58A237000030
:1022F00000006735370067353763000003461180FB
:102300005DFC599F58A6370000000067353800670C
:102310003538780000034611C15CFC599F58AA3734
:102320000000000067353800673538790000034643
:1023300011C15CFC599F58AE37000000006735386A
:10234000006735387A0000034611C15CFC599F587C
:10235000B23700000000673538006735386100008B
:10236000034611805DFC599F58B637000000006796
:10237000353800673538620000034611805DFC592E
:102380009F58BA370000000067353800673538635A
:102390000000034611805DFC599F58BE37000000C5
:1023A0000067353900673539780000034611C15C94
:1023B000FC599F58C2370000000067353900673567
:1023C00039790000034611C15CFC599F58C637009B
:1023D000000000673539006735397A00000346117F
:1023E000C15CFC599F58CA370000000067353900AE
:1023F000673539610000034611805DFC599F58CE56
:102400003700000000673539006735396200000386
:102410004611805DFC599F58D23700000000673597
:102420003900673539630000034611805DFC599F10
:1024300058D637000000006739320067393278001B
:1024400000014611C15CFC59C05751240000000036
:1024500067393200673932790000014611C15CFCEE
:1024600059C05755240000000067393200673932DF
:102470007A0000014611C15CFC59C0575924000084
:10248000000067393200673932610000014611806F
:102490005DBD59C0575D24000000006739320067F8
:1024A0003932620000014611805DBD59C057612478
:1024B00000000000673932006739326300000146CE
:1024C00011805DBD59C05765240000000067323897
:1024D00000673238780000016311C15CFC59C057B5
:1024E000812400000000673238006732387900002C
:1024F000016311C15CFC59C05785240000000067CE
:102500003238006732387A0000016311C15CFC592F
:10251000C0578924000000006732380067323861F4
:102520000000016311805DBD59C0578D240000007B
:102530000067323800673238620000016311805D45
:10254000BD59C0579124000000006732380067323F
:1025500038630000016311805DBD59C057952400A8
:1025600000000067333000673330780000016311EA
:10257000C15CFC59C057992400000000673330004B
:10258000673330790000016311C15CFC59C0579D6D
:102590002400000000673330006733307A00000108
:1025A0006311C15CFC59C057A124000000006733CF
:1025B0003000673330610000016311805DBD59C098
:1025C00057A52400000000673330006733306200F5
:1025D00000016311805DBD59C057A92400000000AF
:1025E00067333000673330630000016311805DBDE5
:1025F00059C057AD24000000007379730067706CF8
:102600000000000782116E5E3259CE57D5360000A9
:1026100000007379730067756E00000007B5116ED6
:102620005E3259CE57D6360000803F73797300670B
:10263000636F00000007E6116E5E3259CE57D43644
:102640000000803F73797300677061000000071B12
:10265000126E5E3259CE57D7360000004073797340
:10266000006764690000000756126E5E3259CE574B
:10267000D836000000000000000067630000000082
:10268000003807285A475063503D3400000000735B
:102690007973006A610000000007B1077A5FFC5996
:1026A0009F58D0360024F449737973006374000096
:1026B00000000714087A5FFC599F58C8360AD723D0
:1026C0003C737973007374000000000758086E5E55
:1026D00032593A51A2440000803F73797300696314
:1026E0000000000007A3086E5E32591053D936006F
:1026F0000000007379730065630000000007D108D3
:102700006E5E32594953DA36000000007379730067
:1027100065650000000007F9086E5E32597453DBEE
:102720003600000000737973006578000000000730
:1027300016096E5E32599F53DC360000803F737974
:1027400073006571000000000737096E5E3259CED4
:1027500057DE360000000073797300656A000000E0
:1027600000075E096E5E3259CE57DD360000803FAD
:10277000737973006A76000000000780096E5E328C
:1027800059CE57E1360000804073797300747600AB
:1027900000000007A0096E5E3259CE57E2360000F5
:1027A000404073797300736900000000077B0826BE
:1027B0005F7859324DE636000048437379730073F1
:1027C000760000000007C0096E5E3259CE57E5362C
:1027D0000000803F7379730062617564000004E259
:1027E000096E5E3259CA53E3360000A04000000073
:1027F000006D74000000000335087A5FBD595F5812
:10280000CC3600409C45000000006D6C00000000CC
:1028100003D5077A5FFC599F58C0360AD7A33D00FD
:102820000000006D610000000003F5077A5FFC59AD
:102830009F58C436CDCCCC3D0000000065716800C7
:1028400000000339076E5E3259CE57DF360000A014
:10285000410000000065716C0000000339076E5EE6
:102860003259CE57E036000000400000000073658A
:1028700030300000023807285A78591558EA3600D7
:1028800000000000000000736530310000023807CE
:10289000285A78591558EC36000000000000000056
:1028A000736530320000023807285A78591558EEFF
:1028B00036000000000000000073653033000002A5
:1028C0003807285A78591558F036000000000000E3
:1028D0000000736530340000023807285A78591513
:1028E00058F236000000000000000073653035002B
:1028F00000023807285A78591558F43600000000AD
:1029000000000000736530360000023807285A784E
:10291000591558F6360000000000000000736530BD
:10292000370000023807285A78591558F836000041
:1029300000000000000073653038000002380728EE
:102940005A78591558FA360000000000000000734C
:102950006530390000023807285A78591558FC3676
:1029600000000000000000007365313000000238F4
:1029700007285A78591558FE36000000000000005C
:1029800000736531310000023807285A785915580C
:1029900000370000000000000000737973000000A1
:1029A000003807285A35648C643D3400000000006C
:1029B000000000703100000000003807285A35641C
:1029C0008C643D3400000000000000003100000075
:1029D0000000003807285A35648C643D340000003C
:1029E0000000000000320000000000003807285AF4
:1029F00035648C643D3400000000000000003300AA
:102A000000000000003807285A35648C643D34000B
:102A10000000000000000034000000000000380743
:102A2000285A35648C643D3400000000000000002A
:102A3000780000000000003807285A35648C643D97
:102A400034000000000000000079000000000000D9
:102A50003807285A35648C643D34000000000000BB
:102A600000007A0000000000003807285A35648C06
:102A7000643D340000000000000000610000000020
:102A800000003807285A35648C643D34000000008B
:102A900000000000620000000000003807285A35DE
:102AA000648C643D340000000000000000630000FE
:102AB000000000003807285A35648C643D3400005B
:102AC00000000000000067353400000000380728CF
:102AD0005A35648C643D340000000000000000673B
:102AE0003535000000003807285A35648C643D34C1
:102AF00000000000000000006735360000000038CC
:102B000007285A35648C643D340000000000000042
:102B100000673537000000003807285A35648C6498
:102B20003D34000000000000000067353800000060
:102B3000003807285A35648C643D340000000000DA
:102B4000000000673539000000003807285A356456
:102B50008C643D3400000000000000006739320042
:102B60000000003807285A35648C643D34000000AA
:102B70000000000000673238000000003807285AC3
:102B800035648C643D3400000000000000006733B1
:102B900030000000003807285A35648C643D34004A
:102BA00000000000000000706F7300000000380794
:102BB000285A35648C643D34000000000000000099
:102BC0006D706F000000003807285A35648C643D32
:102BD000340000000000000000686F6D000000007D
:102BE0003807285A35648C643D340000000000002A
:102BF00000006D0000000000003807285A4865C03A
:102C0000573D34000000000000000071000000008B
:102C100000003807285A9665C0573D340000000070
:102C2000000000006F0000000000003807285AF87C
:102C300065C0573D34000000000000000024000083
:102C4000000000003807285A7866C0573D3400005D
:102C500000002A2A2A205741524E494E47202A2A4C
:102C60002A20556E737570706F7274656420726F70
:102C7000746172792061786973206D6F64652E20AC
:102C8000417869732044495341424C4544002A2A03
:102C90002A205741524E494E47202A2A2A20556E53
:102CA000737570706F72746564206C696E656172A3
:102CB0002061786973206D6F64652E204178697397
:102CC0002044495341424C4544002A2A2A20574176
:102CD000524E494E47202A2A2A204E6F6E2D737479
:102CE000616E64617264206D6963726F7374657084
:102CF0002076616C7565002A2A2A204E4F5449437C
:102D000045202A2A2A205265737474696E672062EE
:102D1000617564207261746520746F202553002AE8
:102D20002A2A205741524E494E47202A2A2A204912
:102D30006C6C6567616C206261756420726174659A
:102D400020737065636966696564002C000A00255C
:102D5000733A25730025733A25312E3066002573AA
:102D60003A25312E3366002C000A002573002531E8
:102D70002E30660025312E336600456E64206F6666
:102D800020636F6D6D616E642066696C650A004F2B
:102D90004B004572726F720045616761696E004E4B
:102DA0006F6F7000436F6D706C6574650054657271
:102DB0006D696E6174656400486172642072657348
:102DC000657400456E64206F66206C696E65004511
:102DD0006E64206F662066696C650046696C6520CC
:102DE0006E6F74206F70656E004D61782066696C3F
:102DF000652073697A65206578636565646564003C
:102E00004E6F207375636820646576696365004260
:102E1000756666657220656D7074790042756666C8
:102E200065722066756C6C00427566666572206618
:102E3000756C6C202D20666174616C00496E69743C
:102E400069616C697A696E67002331360023313716
:102E5000002331380023313900496E7465726E6188
:102E60006C206572726F7200496E7465726E616C6F
:102E70002072616E6765206572726F7200466C6FBA
:102E80006174696E6720706F696E74206572726F0D
:102E90007200446976696465206279207A65726F90
:102EA00000233234002332350023323600233237F8
:102EB00000233238002332390023333000233331EA
:102EC00000233332002333330023333400233335DC
:102ED00000233336002333370023333800233339BC
:102EE00000556E7265636F676E697A656420636F03
:102EF0006D6D616E64004578706563746564206310
:102F00006F6D6D616E64206C6574746572004261F2
:102F100064206E756D62657220666F726D617400FB
:102F2000496E7075742065786365656473206D61A2
:102F300078206C656E67746800496E7075742076D1
:102F4000616C756520746F6F20736D616C6C0049E6
:102F50006E7075742076616C756520746F6F206C6F
:102F60006172676500496E7075742076616C756575
:102F70002072616E6765206572726F7200496E70B3
:102F800075742076616C756520756E737570706FE1
:102F900072746564004A534F4E2073796E74617881
:102FA000206572726F72004A534F4E20696E7075C1
:102FB000742068617320746F6F206D616E7920706A
:102FC00061697273004F7574206F66206275666662
:102FD00065722073706163650023353100233532DB
:102FE00000233533002335340023353500233536AF
:102FF000002335370023353800233539005A6572F0
:103000006F206C656E677468206D6F76650047632E
:103010006F646520626C6F636B20736B69707065A1
:10302000640047636F646520696E70757420657213
:10303000726F720047636F646520666565647261D4
:103040007465206572726F720047636F64652061FA
:1030500078697320776F7264206D697373696E6726
:103060000047636F6465206D6F64616C2067726FE9
:1030700075702076696F6C6174696F6E00486F6D52
:10308000696E67206379636C65206661696C65644D
:10309000004D61782074726176656C206578636597
:1030A00065646564004D6178207370696E646C6559
:1030B0002073706565642065786365656465640088
:1030C0004172632073706563696669636174696FD7
:1030D0006E206572726F72008F2D922D982D9F2D2C
:1030E000A42DAD2DB82DC32DCF2DDB2DE92D002E18
:1030F0000F2E1C2E282E3C2E492E4D2E512E552E95
:10310000592E682E7D2E922EA12EA52EA92EAD2EE3
:10311000B12EB52EB92EBD2EC12EC52EC92ECD2E47
:10312000D12ED52ED92EDD2EE12EF62E0E2F202FCC
:10313000392F4F2F652F7D2F952FA72FC52FD92FD3
:10314000DD2FE12FE52FE92FED2FF12FF52FF92FAF
:10315000FD2F0E3022303430493061307D309130D7
:10316000A530C0306D6D00696E63680074696E795A
:1031700067205B25535D206F6B3E200074696E797C
:1031800067205B25535D206572726F723A2025536C
:103190002025730A00580059005A004100953197C4
:1031A0003199319B312A2A2A205741524E494E47A4
:1031B000202A2A2A20486F6D696E67206572726F17
:1031C000723A20255320617869732073657474699D
:1031D0006E677320696E636F7272656374002A2A6A
:1031E0002A205741524E494E47202A2A2A20486F0A
:1031F0006D696E67206572726F723A2053706563F5
:10320000696669656420617869732865732920633C
:10321000616E6E6F7420626520686F6D6564005426
:103220006865736520636F6D6D616E647320617294
:1032300065206163746976652066726F6D207468BD
:103240006520636F6D6D616E64206C696E653A0A0E
:10325000205E7820202020202020202020202020D8
:1032600052657365742028636F6E74726F6C20787A
:1032700029202D20736F66747761726520726573E3
:1032800065740A20203F202020202020202020209C
:103290002020204D616368696E6520706F736974CA
:1032A000696F6E20616E642067636F6465206D6F67
:1032B00064656C2073746174650A202024202020CA
:1032C0002020202020202020202053686F7720619C
:1032D0006E642073657420636F6E666967757261D2
:1032E00074696F6E2073657474696E67730A202049
:1032F0002120202020202020202020202020466562
:103300006564686F6C64202D2073746F70206D6F1E
:1033100074696F6E20776974686F7574206C6F7351
:10332000696E6720706F736974696F6E0A20207E02
:1033300020202020202020202020202020437963CE
:103340006C65205374617274202D207265737461F2
:1033500072742066726F6D2066656564686F6C6458
:103360000A2020682020202020202020202020202B
:103370002053686F7720746869732068656C7020CB
:1033800073637265656E0A20202468202020202047
:103390002020202020202053686F7720636F6E66E6
:1033A000696775726174696F6E2068656C702073EF
:1033B000637265656E0A2020247465737420202072
:1033C0002020202020204C6973742073656C662DAA
:1033D00074657374730A202024746573742D4E20F1
:1033E00020202020202052756E2073656C662D747D
:1033F000657374204E0A202024686F6D653D31206E
:1034000020202020202052756E206120686F6D6979
:103410006E67206379636C650A20202464656661A9
:10342000756C74733D31202020526573746F726522
:1034300020616C6C2073657474696E677320746F9F
:103440002022666163746F727922206465666175FB
:103450006C74730A000A0A0A232323232054696E1A
:1034600079472048656C7020232323230A00456197
:103470006368202420636F6D6D616E642061626FEC
:10348000766520616C736F20646973706C61797309
:103490002074686520746F6B656E20666F7220659E
:1034A0006163682073657474696E6720696E205B60
:1034B000205D20627261636B6574730A546F2076BD
:1034C0006965772073657474696E677320656E74BF
:1034D0006572206120746F6B656E3A0A0A202024A1
:1034E0003C746F6B656E3E0A0A466F7220657861A8
:1034F0006D706C65202479667220746F2064697326
:10350000706C6179207468652059206D617820663F
:1035100065656420726174650A0A546F2075706471
:103520006174652073657474696E677320656E7469
:10353000657220746F6B656E20657175616C7320A8
:1035400076616C75653A0A0A2020243C746F6B65BD
:103550006E3E3D3C76616C75653E0A0A466F722090
:103560006578616D706C6520247966723D38303005
:1035700020746F20736574207468652059206D6114
:10358000782066656564207261746520746F2038E8
:103590003030206D6D2F6D696E7574650A466F72DF
:1035A00020636F6E66696775726174696F6E2064FF
:1035B000657461696C73207365653A206874747012
:1035C000733A2F2F6769746875622E636F6D2F735E
:1035D000796E746865746F732F54696E79472F77AD
:1035E000696B692F54696E79472D436F6E66696701
:1035F00075726174696F6E0A005468657365206343
:103600006F6D6D616E6473206172652061637469B2
:10361000766520666F7220636F6E6669677572618A
:1036200074696F6E3A0A2020247379732053686F8F
:10363000772073797374656D202867656E65726194
:103640006C292073657474696E67730A20202431B5
:1036500020202053686F77206D6F746F72203120A7
:1036600073657474696E677320286F722077686160
:103670007465766572206D6F746F7220796F752036
:1036800077616E7420312C322C332C34290A20209F
:10369000247820202053686F772058206178697340
:1036A0002073657474696E677320286F7220776861
:1036B000617465766572206178697320796F752011
:1036C00077616E7420782C792C7A2C612C622C63B3
:1036D000290A2020246D20202053686F7720616CF8
:1036E0006C206D6F746F722073657474696E67738C
:1036F0000A2020247120202053686F7720616C6C91
:1037000020617869732073657474696E67730A2029
:1037100020246F20202053686F7720616C6C206F0D
:1037200066667365742073657474696E67730A20C6
:1037300020242420202053686F7720616C6C207334
:10374000657474696E67730A2020246820202053F2
:10375000686F7720746869732068656C7020736384
:103760007265656E0A0A000A0A0A2323232320547D
:10377000696E794720434F4E464947555241544957
:103780004F4E2048656C7020232323230A00496E86
:10379000766F6B652073656C662074657374206248
:1037A0007920656E746572696E6720247465737420
:1037B0003D4E207768657265204E206973206F6EDC
:1037C00065206F663A0A202024746573743D3120A9
:1037D00020686F6D696E67207465737420202028DF
:1037E000796F75206D757374207472697020686FBD
:1037F0006D696E67207377697463686573290A2041
:103800002024746573743D322020736D6F6B6520C6
:10381000746573740A202024746573743D3320200A
:10382000737175617265207465737420202028613E
:1038300020736572696573206F662073717561729C
:103840006573290A202024746573743D3420206137
:103850007263207465737420202020202028736FE9
:103860006D65206C6172676520636972636C657356
:10387000290A202024746573743D352020647765FF
:103880006C6C207465737420202020286D6F766521
:1038900073207370616365642062792031207365E1
:1038A000636F6E64206477656C6C73290A20202432
:1038B000746573743D36202066656564686F6C645A
:1038C00020746573742028656E74657220212061F0
:1038D0006E64207E20746F20686F6C6420616E645B
:1038E00020726573746172742C20726573706563E5
:1038F000746976656C79290A202024746573743D97
:103900003720204D20636F646573207465737420C5
:1039100020284D20636F64657320696E7465726D35
:10392000696E676C65642077697468206D6F766571
:1039300073290A202024746573743D3820204A536B
:103940004F4E20746573742020202020286D6F74E2
:10395000696F6E20746573742072756E207573695B
:103960006E67204A534F4E20636F6D6D616E6473B6
:10397000290A202024746573743D392020696E76ED
:10398000657273652074696D6520746573740A20AF
:103990002024746573743D313020726F74617279C4
:1039A000206D6F74696F6E20746573740A20202413
:1039B000746573743D313120736D616C6C206D6F73
:1039C00076657320746573740A202024746573749B
:1039D0003D313220736C6F77206D6F766573207484
:1039E0006573740A202024746573743D3133206339
:1039F0006F6F7264696E6174652073797374656D3D
:103A0000206F666673657420746573742028473967
:103A1000322C204735342D473539290A000A0A0A45
:103A2000232323232054696E79472053454C462095
:103A3000544553542048656C7020232323230A00E7
:103A4000456E746572202464656661756C74733D9F
:103A50003120746F207265736574207468652073FB
:103A6000797374656D20746F207468652066616376
:103A7000746F72792064656661756C742076616C10
:103A80007565732E0A546869732077696C6C206FB2
:103A9000766572777269746520616E7920636861FA
:103AA0006E67657320796F752068617665206D613A
:103AB00064652E0A000A0A0A232323232054696E10
:103AC000794720524553544F52452044454641556D
:103AD0004C54532048656C7020232323230A00454F
:103AE0006E7465722024626F6F743D3120746F2094
:103AF000656E7465722074686520626F6F74206CE7
:103B00006F616465722E0A000A0A0A2323232320A8
:103B100054696E794720424F4F54204C4F414445E1
:103B2000522048656C7020232323230A000A4E6F1D
:103B300074653A2054696E79472067656E657261D5
:103B4000746573206175746F6D617469632073743B
:103B500061747573207265706F727473206279205E
:103B600064656661756C740A546869732063616E7C
:103B70002062652064697361626C656420627920EB
:103B8000656E746572696E67202473693D300A53EF
:103B90006565207468652077696B692062656C6F64
:103BA0007720666F72206D6F72652064657461693D
:103BB0006C732E0A000A466F722064657461696C2A
:103BC00065642054696E794720696E666F2073655D
:103BD000653A2068747470733A2F2F67697468753A
:103BE000622E636F6D2F73796E746865746F732FB7
:103BF00054696E79472F77696B692F0A466F722077
:103C0000746865206C6174657374206669726D7781
:103C1000617265207365653A2068747470733A2F19
:103C20002F6769746875622E636F6D2F73796E7478
:103C30006865746F732F54696E79470A506C6561BB
:103C40007365206C6F6720616E7920697373756589
:103C50007320617420687474703A2F2F7777772EF1
:103C600073796E746865746F732E636F6D2F666FF2
:103C700072756D730A486176652066756E0A00710B
:103C80007200284D53472A2A2A2A20486F6D696EF0
:103C9000672054657374205B76315D202A2A2A2AB6
:103CA000290A6732382E32783079307A300A6D330B
:103CB0003000284D53472A2A2A2A20536D6F6B65FE
:103CC0002054657374205B76315D202A2A2A2A29C4
:103CD0000A473030204731372047323120473430CF
:103CE0002047343920473830204739300A67353586
:103CF0000A6730783079300A473030207832300A1D
:103D000078300A7932300A79300A7A2D32300A7ADC
:103D1000300A6132300A61300A4730302078323060
:103D200020793230207A30206132300A473030201A
:103D30007830207930207A302061300A47303120C5
:103D4000663230302078370A79370A7A2D370A619F
:103D5000330A6735340A6730783079300A6D33308A
:103D600000284D53472A2A2A2A205371756172650B
:103D700073204D6F74696F6E2054657374205B7689
:103D8000315D202A2A2A2A290A67303067313767AD
:103D900032316734306734396738306739300A6711
:103DA00035350A6730783079300A6730783230201C
:103DB00028747261766572736520612032306D6D92
:103DC0002073717561726520696E205820616E6480
:103DD0002059290A7932300A78300A79300A673155
:103DE0007831306635303020286472617720612068
:103DF00031306D6D2073717561726520696E205868
:103E000020616E6420592061742046353030290AC3
:103E10007931300A78300A79300A67307A2D3230B9
:103E20002028747261766572736520612032306D6E
:103E30006D2073717561726520696E205820616E06
:103E400064205A290A7832300A7A300A78300A67B0
:103E5000317832307932307A2D3230663530302058
:103E6000286665656420612032306D6D206469616B
:103E7000676F6E616C20696E20582C205920616E2E
:103E800064205A290A783079307A300A78343079C7
:103E900034307A2D34300A78343079307A300A78F8
:103EA000307934307A2D34300A7834307934307ABD
:103EB000300A783079307A2D34300A7830793430DD
:103EC0007A300A78343079307A2D34300A78307983
:103ED000307A300A6738300A6735340A673078300C
:103EE00079300A6D333000284D53472A2A2A2A2078
:103EF0004172632054657374205B76315D202A2AF9
:103F00002A2A290A673030673137673231673430FF
:103F10006734396738306739300A6735350A6730B2
:103F2000783079300A663530300A67327831307946
:103F30002D3130693130202843572032373020640A
:103F4000656772656573290A6730783079300A676A
:103F500033783130792D313069313020284343575F
:103F60002039302064656772656573290A67307887
:103F70003079300A67327832307930693130202830
:103F80004357203138302064656772656573290AAC
:103F90006730783079300A67337832307930693178
:103FA00030202843435720313830206465677265DC
:103FB0006573290A6730783079300A67327830794A
:103FC000306932302028435720333630206465670B
:103FD00072656573290A673278307930693230202A
:103FE0002843572033363020616761696E290A669D
:103FF00037303020286D73674368616E67652066CF
:104000006565642072617465207768696C652069F4
:104010006E204732206D6F74696F6E206D6F64651E
:10402000290A6732783079306932302028435720A6
:10403000333630203372642074696D65290A673223
:104040007830793069323020284357203336302099
:104050003474682074696D65290A663530300A67E2
:104060003378307930693230202843435720333653
:10407000302064656772656573290A673378307923
:10408000306932302028434357203336302061676F
:1040900061696E290A6637303020286D736743687E
:1040A000616E67652066656564207261746520775E
:1040B00068696C6520696E204733206D6F74696F85
:1040C0006E206D6F6465290A673378307930693204
:1040D0003020284343572033363020337264207415
:1040E000696D65290A673378307930693230202864
:1040F00043435720333630203474682074696D652B
:10410000290A6738300A6735340A673078307930E1
:104110000A6D333000284D53472A2A2A2A20447733
:10412000656C6C2054657374205B76315D202A2A9F
:104130002A2A290A673030673137673231673930C8
:104140000A6735350A6730783079300A663530309D
:104150000A67307831300A673470310A6730783254
:10416000300A673470310A67307831300A6734704A
:10417000310A67307830300A673470310A79350A8D
:104180006735340A6730783079300A6D333000286B
:104190004D53472A2A2A2A2046656564686F6C6455
:1041A0002054657374205B76315D202A2A2A2A29DF
:1041B0000A284D53472A2A2A2A204D616E75616CC0
:1041C0006C7920656E746572202120616E64207E9A
:1041D00020647572696E67206D6F76656D656E74AB
:1041E00020746F2074657374202A2A2A2A290A678A
:1041F00035350A6730783079300A673470330A67AA
:104200003030673137673231673430673439673877
:10421000306739300A663630300A673078313030EE
:104220007637362E3736350A783079300A673534A6
:104230000A6730783079300A6D333000284D5347A3
:104240002A2A2A2A204D636F64657320746573746B
:10425000205B76315D202A2A2A2A290A6735350A09
:104260006730783079300A6D330A673470310A6DFF
:10427000350A673470310A6D340A673470310A6D5B
:10428000350A673470310A6D370A673470310A6D48
:10429000390A673470310A6D380A673470310A6D33
:1042A000390A663530300A67307832300A79323070
:1042B0000A6D330A78300A6D340A79300A6D350A8E
:1042C00067317831300A6D370A7931300A6D380A32
:1042D00078300A6D390A79300A6732783130792DB1
:1042E00031306931300A6D330A6730783079300AFD
:1042F0006D340A6733783130792D31306931300AC5
:104300006D350A6730783079300A6D370A67327850
:10431000323079306931300A6D380A673078307957
:10432000300A6D390A673378323079306931300AB2
:104330006730783079300A673278307930693130D7
:104340000A6733783079306931300A6735340A6763
:1043500030783079300A6D3330007B226763223A3F
:10436000226730306731376732316734306734392C
:10437000673830673930227D0A7B226763223A2210
:10438000673535227D0A7B226763223A22673078BF
:10439000307930227D0A7B226763223A22663530EB
:1043A00030227D0A7B226763223A22284D534773CD
:1043B00071756172657329227D0A7B226763223AD7
:1043C000226730783230227D0A7B226763223A22CC
:1043D000793230227D0A7B226763223A22783022AA
:1043E0007D0A7B226763223A227930227D0A7B2272
:1043F0006763223A226731783130227D0A7B226757
:1044000063223A22793130227D0A7B226763223A85
:10441000227830227D0A7B226763223A2279302279
:104420007D0A7B226763223A22284D5347636972D3
:10443000636C657329227D0A7B226763223A2267B7
:1044400032783130792D3130693130227D0A7B224A
:104450006763223A22673078307930227D0A7B22E6
:104460006763223A226733783130792D31306931F0
:1044700030227D0A7B226763223A226730783079C6
:1044800030227D0A7B226763223A226732783230FB
:104490007930693130227D0A7B226763223A2267B4
:1044A0003078307930227D0A7B226763223A226796
:1044B000337832307930693130227D0A7B2267636C
:1044C000223A22673078307930227D0A7B22676376
:1044D000223A22673278307930693130227D0A7B86
:1044E000226763223A22673378307930693130228B
:1044F0007D0A7B226763223A22673534227D0A7B5C
:10450000226763223A22673078307930227D0A7B35
:10451000226763223A226D3330227D00284D5347B3
:104520002A2A2A2A20496E76657273652054696D9D
:1045300065204D6F74696F6E2054657374205B76CF
:10454000315D202A2A2A2A290A67303067313767E5
:1045500032316734306734396738306739300A6749
:1045600035350A6730783079300A6739330A663072
:104570002E30310A67317831300A7931300A7A3198
:10458000300A6131300A78300A79300A7A300A61AB
:10459000300A67317831307931307A2D31306131FC
:1045A000300A6730783079307A3061300A66302EE0
:1045B000310A6732783130792D31307A2D323069D5
:1045C00031300A6730783079307A300A67337831A1
:1045D00030792D31307A2D32306931300A673078B8
:1045E0003079307A300A673278323079307A2D3249
:1045F000306931300A6730783079307A300A673381
:1046000078323079306931300A6730783079307AF1
:10461000300A6732783079307A2D33306931300A98
:104620006733783079307A306931300A67307830E2
:1046300079307A300A673278307930693230202820
:104640004357203336302064656772656573290AE5
:10465000673378307930693230202843435720332C
:1046600036302064656772656573290A6739340AD4
:104670006735340A6730783079300A6D3330002876
:104680004D53472A2A2A2A20526F74617279204199
:10469000786973204D6F74696F6E20546573742050
:1046A0005B76315D202A2A2A2A290A673030673151
:1046B00037673231673430673439673830673930BB
:1046C0000A6730783079307A306130623063300A8E
:1046D0006735350A6730783079300A6633363030DE
:1046E000300A6730613336300A623336300A63335A
:1046F00036300A61300A62300A63300A673161314C
:104700003434300A62313434300A63313434300A9C
:1047100061300A62300A63300A6731613134343003
:1047200062373230633336300A783079307A30612C
:1047300030623063300A673178363061313434307A
:1047400062373230633336300A783079307A30610C
:1047500030623063300A6731783630793530613114
:1047600034343062373230633336300A783079305F
:104770007A306130623063300A67317836307935AB
:104780003078323561313434306237323063333629
:10479000300A783079307A306130623063300A67BD
:1047A00035340A6730783079300A6D333000284D5F
:1047B00053472A2A2A2A2054657374207665727911
:1047C0002073686F7274206D6F766573205B76312D
:1047D0005D202A2A2A2A290A2473693D3330303081
:1047E0000A6735350A6730783079300A67347030B7
:1047F0002E350A673178302E3166313030300A7804
:10480000300A78302E310A78300A78302E310A7822
:10481000300A78302E310A78300A78302E310A7812
:10482000300A78302E310A78300A78302E310A7802
:10483000300A78302E310A78300A78302E310A78F2
:10484000300A78302E310A78300A78302E310A78E2
:10485000300A78302E310A78300A78302E310A78D2
:10486000300A78302E310A78300A78302E310A67D3
:104870003470302E350A6735340A67307830793035
:104880000A6D333000284D53472A2A2A2A205465BE
:104890007374206163637572616379206F6620733E
:1048A0006C6F77206D6F766573205B76315D202AA3
:1048B0002A2A2A290A6735350A6730783079300A7A
:1048C000673470302E350A673470302E350A673100
:1048D0007831306632320A6735340A673078307999
:1048E000300A6D333000284D53472A2A2A2A2043A4
:1048F0006F6F7264696E617465206F66667365744C
:10490000732074657374205B76315D202A2A2A2A0D
:10491000290A67303067313767323167343067349E
:10492000396738306739300A6735340A6739327881
:104930003079307A300A663630300A284D53472AAB
:104940002A2A2A207465737420473932206F6666DC
:10495000736574732A2A2A2A290A286D7367537487
:10496000657020313A204D6F76652066726F6D203C
:10497000302C3020746F2033302C30206D6D206946
:104980006E20706F7369746976652058206469724F
:10499000656374696F6E290A286D73675374657057
:1049A00020323A205265736574206F726967696EB0
:1049B00020746F20302E30207573696E6720473960
:1049C00032290A286D73675374657020333A204D7D
:1049D0006F766520746F2032302C302E2053686F34
:1049E000756C64206D6F7665203230206D6D2069A6
:1049F0006E20706F736974697665205820646972DF
:104A0000656374696F6E20616E6420737461747580
:104A100073207265706F72742073686F756C642098
:104A200073746172742066726F6D20302C30290AA5
:104A3000286D73675374657020343A204D6F766526
:104A400020746F20302E3020202053686F756C64E6
:104A5000206D6F7665203230206D6D20696E206E7E
:104A6000656761746976652058206469726563744E
:104A7000696F6E20616E6420737461747573207247
:104A800065706F72742073686F756C6420737461E5
:104A900072742066726F6D2032302C30290A6731B3
:104AA0007833300A67393278300A67317832300A21
:104AB0006731783079300A2473720A673932783076
:104AC0000A673470302E350A284D53472A2A2A2A7D
:104AD000207465737420473535206F66667365747E
:104AE000732A2A2A2A290A286D736753746570204D
:104AF000313A2053657420436F6F7264696E61743C
:104B0000652073797374656D2032205B6735355D80
:104B100020746F206F6666736574206F6620353071
:104B20002C3530290A286D73675374657020323A2A
:104B30002053656C6563742047353520636F6F7251
:104B400064696E6174652073797374656D290A28D0
:104B50006D73675374657020333A204D6F7665200E
:104B6000746F20302C302E20486561642073686F8C
:104B7000756C64206D6F766520646961676F6E6126
:104B80006C6C7920696E202B5820616E64202B5943
:104B900020616E6420737461747573207265706F28
:104BA00072742073686F756C642073746172742002
:104BB00066726F6D20302C30290A6731304C3270AC
:104BC000327835307935300A6735350A67307830D4
:104BD00079300A673470302E350A284D53472A2A17
:104BE0002A2A207465737420473533206162736FFD
:104BF0006C757465206F7665727269646573202ABE
:104C00002A2A2A290A286D73675374657020313A5D
:104C10002052756E20612073717561726520696E16
:104C2000204735352073797374656D290A286D73B3
:104C3000675374657020323A2052756E206120737C
:104C4000717561726520772F473533206F766572F5
:104C500072696465290A6730783079300A6730787C
:104C6000323079300A67307832307932300A673042
:104C700078307932300A6730783079300A673470AA
:104C8000302E350A6735336730783079300A67352A
:104C900033673078323079300A67353367307832AD
:104CA000307932300A673533673078307932300AFC
:104CB0006735336730783079300A6730783079304B
:104CC0000A673470302E350A284D53472A2A2A2A7B
:104CD00020746573742052657475726E20746F2031
:104CE000686F6D65202A2A2A2A290A286D7367535E
:104CF00074657020313A2052657475726E20746F3D
:104D000020686F6D65207573696E6720473238299A
:104D10000A286D73675374657020323A20526573A8
:104D2000657420746F2047353420636F6F72642080
:104D300073797374656D290A6732380A6735340AE6
:104D40006D3330004E31204732300A4E3520473423
:104D500030204731370A4E3130205431204D303623
:104D60000A284E313520473930204730205830202E
:104D70005930205A30290A4E3230205335303030E5
:104D8000204D3033200A4E32352058302E30363404
:104D90002059302E333236205A300A4E34302047D4
:104DA0003031204631362E300A4E35302058302EE4
:104DB0003036342059302E3332360A4E35352058AD
:104DC000302E3036302059302E3239330A4E3630BC
:104DD0002058302E3037372059302E3236370A4E91
:104DE00036352058302E3131312059302E3235377A
:104DF0000A4E37302058302E3134392059302E3277
:104E000035320A4E37352058302E31383820593057
:104E10002E3235350A4E38302058302E3232372077
:104E200059302E3236380A4E38352058302E323529
:104E3000372059302E3237310A4E39302058302E33
:104E40003333352059302E3236350A4E3935205815
:104E5000302E3431322059302E3237310A4E313033
:104E6000302058302E3437342059302E3238370A1B
:104E70004E3130352058302E3439312059302E32D1
:104E800038390A4E3131302058302E3531372059DB
:104E9000302E3237330A4E3131352058302E3534EA
:104EA000342059302E3236330A4E313230205830C9
:104EB0002E3538302059302E3236310A4E313235C7
:104EC0002058302E3539352059302E3236330A4E9F
:104ED0003133302058302E3632312059302E32378F
:104EE000340A4E3133352058302E3635392059307A
:104EF0002E3330360A4E3134302058302E36373388
:104F00002059302E3333350A4E3134352058302E67
:104F10003637392059302E3336310A4E313530206C
:104F200058302E3637382059302E3338390A4E3122
:104F300035352058302E3637302059302E34323027
:104F40000A4E3136302058302E3637302059302E28
:104F50003434360A4E3136352058302E363830202B
:104F600059302E3437340A4E3137302058302E37EE
:104F700030342059302E3439370A4E3137352058E5
:104F8000302E3733322059302E3531350A4E3138F4
:104F9000302058302E3739342059302E3533350AE9
:104FA0004E3138352058302E3837322059302E3592
:104FB00036370A4E3139302058302E3935302059A5
:104FC000302E3630340A4E3139352058312E3033B8
:104FD000312059302E3634370A4E32303020583195
:104FE0002E3134392059302E3732320A4E32303594
:104FF0002058312E3330382059302E3835340A4E6F
:105000003231302058312E3433302059302E393857
:10501000340A4E3231352058312E3434372059304D
:105020002E3938360A4E3232302058312E36323848
:105030002059302E3832320A4E3232352058312E35
:105040003733322059302E3731340A4E3233302044
:1050500058322E3030392059302E3338310A4E3202
:1050600033352058322E3131362059302E323636F3
:105070000A4E3234302058322E3232382059302EF7
:105080003135370A4E3234352058322E32383020FE
:1050900059302E3132330A4E3235302058322E33C9
:1050A00033322059302E3039340A4E3235352058BB
:1050B000322E3432332059302E3037300A4E3236C9
:1050C000302058322E3438392059302E3036350AB7
:1050D0004E3236352058322E3535372059302E3065
:1050E00036360A4E3237302058322E363237205973
:1050F000302E3038340A4E3237352058322E363979
:10510000332059302E3130390A4E3238302058325F
:105110002E3733302059302E3133330A4E32383562
:105120002058322E3830352059302E3139300A4E41
:105130003239302058322E3832392059302E32311F
:10514000360A4E3239352058322E38383020593010
:105150002E3239310A4E3330302058322E3838341E
:105160002059302E3330300A4E3330352058322E0D
:105170003839382059302E3333320A4E333130200B
:1051800058322E3930352059302E3336370A4E33C7
:1051900031352058322E3931302059302E343037C5
:1051A0000A4E3332302058322E3930382059302EC2
:1051B0003434360A4E3332352058322E39303120CD
:1051C00059302E3439350A4E3333302058322E3888
:1051D00039372059302E3439350A4E33333520587B
:1051E000322E3839302059302E3532340A4E33348D
:1051F000302058322E3834322059302E3630340A8E
:105200004E3334352058322E3831342059302E3632
:1052100036350A4E3335302058322E37393420593E
:10522000302E3735300A4E3335352058322E373947
:10523000312059302E3833380A4E33363020583228
:105240002E3831392059302E3937360A4E3336351B
:105250002058322E3833372059312E3034340A4E0C
:105260003337302058322E3836322059312E3131F2
:10527000320A4E3337352058322E383737205931DD
:105280002E3134350A4E3338302058322E393132EF
:105290002059312E3231370A4E3338352058322ECC
:1052A0003931372059312E3232360A4E33393020D7
:1052B00058322E3935312059312E3238310A4E3399
:1052C00039352058322E3937302059312E32393580
:1052D0000A4E3430302058322E3939362059312E8A
:1052E0003239350A4E3430352058332E30313320A0
:1052F00059312E3237350A4E3431302058332E3062
:1053000032342059312E3235340A4E34313520585A
:10531000332E3037302059312E3135310A4E343268
:10532000302058332E3037372059312E3133340A5C
:105330004E3432352058332E3132352059312E300B
:1053400033390A4E3433302058332E313338205914
:10535000312E3031390A4E3433352058332E323025
:10536000352059302E3930380A4E343430205833F5
:105370002E3238322059302E3739370A4E343435F0
:105380002058332E3336312059302E3639310A4EDB
:105390003435302058332E3432362059302E3539BA
:1053A000320A4E3435352058332E343536205930B4
:1053B0002E3534330A4E3436302058332E343739B4
:1053C0002059302E3439330A4E3436352058332E96
:1053D0003439342059302E3437320A4E34373020A5
:1053E00058332E3530352059302E3434360A4E3469
:1053F00037352058332E3531382059302E34313757
:105400000A4E3438302058332E3533302059302E60
:105410003339310A4E3438352058332E353634205E
:1054200059302E3330300A4E3439302058332E352F
:1054300037372059302E3235330A4E34393520581B
:10544000332E3536382059302E3231320A4E35302F
:10545000302058332E3534342059302E3137360A27
:105460004E3530352058332E3534312059302E31D9
:1054700034360A4E3531302058332E3535332059E5
:10548000302E3131390A4E3531352058332E3537EB
:10549000362059302E3130360A4E353230205833CE
:1054A0002E3539372059302E3130320A4E353235CB
:1054B0002058332E3631382059302E3130390A4EAB
:1054C0003533302058332E3633392059302E31328F
:1054D000390A4E3533352058332E36353020593081
:1054E0002E3135390A4E3534302058332E36363386
:1054F0002059302E3137380A4E3534352058332E66
:105500003637382059302E3139320A4E3535302071
:1055100058332E3639392059302E3139370A4E3525
:1055200035352058332E3732332059302E31393625
:105530000A4E3536302058332E3736342059302E27
:105540003137390A4E3536352058332E383035202C
:1055500059302E3136350A4E3537302058332E38F3
:1055600038342059302E3135390A4E3537352058E8
:10557000332E3934392059302E3136350A4E3538EC
:10558000302058332E3936362059302E3137350AEF
:105590004E3538352058332E3937382059302E3192
:1055A00039340A4E3539302058332E39373820599E
:1055B000302E3232330A4E3539352058332E3936B3
:1055C000302059302E3234350A4E363030205833A0
:1055D0002E3833342059302E3331310A4E3630359F
:1055E0002058332E3736322059302E3334350A4E78
:1055F0003631302058332E3732362059302E33385A
:10560000390A4E3631352058332E37303320593051
:105610002E3435380A4E3632302058332E36383252
:105620002059302E3533300A4E3632352058332E3D
:105630003637392059302E3533340A4E3633302040
:1056400058332E3632362059302E3638310A4E36FF
:1056500033352058332E3536382059302E383238ED
:105660000A4E3634302058332E3434342059312EFB
:105670003038300A4E3634352058332E3430352009
:1056800059312E3136370A4E3635302058332E34C4
:1056900030342059312E3136370A4E3635352058C0
:1056A000332E3338372059312E3230380A4E3636C1
:1056B000302058332E3338342059312E3230380AC6
:1056C0004E3636352058332E3336352059312E326A
:1056D00036350A4E3637302058332E33353520597B
:1056E000312E3238350A4E3637352058332E333482
:1056F000382059312E3330380A4E3638302058335E
:105700002E3333332059312E3335300A4E36383567
:105710002058332E3332312059312E3339310A4E4D
:105720003639302058332E3331312059312E34322E
:10573000380A4E3639352058332E33333920593113
:105740002E3432330A4E3730302058332E34343032
:105750002059312E3430360A4E3730352058332E0A
:105760003531302059312E3430380A4E373130201F
:1057700058332E3538352059312E3432310A4E37D0
:1057800031352058332E3631312059312E343339CA
:105790000A4E3732302058332E3631312059312ECF
:1057A0003434310A4E3732352058332E36313520D5
:1057B00059312E3434310A4E3733302058332E3697
:1057C00033362059312E3438380A4E373335205885
:1057D000332E3633342059312E3531370A4E373493
:1057E000302058332E3632322059312E3534330A98
:1057F0004E3734352058332E3630352059312E353A
:1058000036330A4E3735302058332E353736205947
:10581000312E3537350A4E3735352058332E35344D
:10582000342059312E3538310A4E3736302058332E
:105830002E3437392059312E3539320A4E37363524
:105840002058332E3435312059312E3539380A4E0F
:105850003737302058332E3338372059312E3632EF
:10586000360A4E3737352058332E333930205931E8
:105870002E3633360A4E3738302058332E353332F1
:105880002059312E3630320A4E3738352058332ED3
:105890003630312059312E3539370A4E37393020DC
:1058A00058332E3636382059312E3539380A4E378E
:1058B00039352058332E3738322059312E3631328F
:1058C0000A4E3830302058332E3739342059312E93
:1058D0003631380A4E3830352058332E3836382095
:1058E00059312E3633360A4E3831302058332E395E
:1058F00031382059312E3635350A4E383135205859
:10590000332E3934352059312E3636370A4E383257
:10591000302058332E3936342059312E3638350A56
:105920004E3832352058332E3936372059312E36FD
:1059300038350A4E3833302058332E393734205911
:10594000312E3639390A4E3833352058332E39380E
:10595000342059312E3732350A4E383430205833FE
:105960002E3938342059312E3735380A4E383435EF
:105970002058332E3937302059312E3739300A4EDE
:105980003835302058332E3934352059312E3831BE
:10599000370A4E3835352058332E393138205931B1
:1059A0002E3832360A4E3836302058332E383931B8
:1059B0002059312E3832370A4E3836352058332E9A
:1059C0003834322059312E3830390A4E38373020A9
:1059D00058332E3739382059312E3738340A4E385B
:1059E00037352058332E3734362059312E37373259
:1059F0000A4E3838302058332E3639382059312E57
:105A00003736340A4E3838352058332E3633352061
:105A100059312E3736360A4E3839302058332E3524
:105A200035332059312E3738350A4E38393520581C
:105A3000332E3437382059312E3832300A4E39302F
:105A4000302058332E3430392059312E3836340A2C
:105A50004E3930352058332E3334352059312E39D4
:105A600031380A4E3931302058332E3236342059ED
:105A7000322E3032330A4E3931352058332E3234FB
:105A8000382059322E3035310A4E393230205833D1
:105A90002E3234302059322E3038310A4E393235D8
:105AA0002058332E3331362059322E3038360A4EB4
:105AB0003933302058332E3339302059322E31309B
:105AC000340A4E3933352058332E3431342059328C
:105AD0002E3132310A4E3934302058332E3433319E
