:100000000C94F4000C9415010C9415010C9415013A
:100010000C9415010C9415010C9415010C94150108
:100020000C9415010C9415010C9415010C941501F8
:100030000C9415010C9415010C9415010C941501E8
:100040000C9415010C9415010C9415010C941501D8
:100050000C9415010C9415010C9415010C941501C8
:100060000C9415010C9415010C9415010C941501B8
:100070000C9415010C9415010C9415010C941501A8
:100080000C9415010C9415010C9415010C94150198
:100090000C9415010C9415010C9415010C94150188
:1000A0000C9415010C9415010C9415010C94150178
:1000B0000C9415010C9415010C9415010C94150168
:1000C0000C9415010C9415010C9415010C94150158
:1000D0000C9415010C9415010C9415010C94150148
:1000E0000C9415010C9415010C9415010C94150138
:1000F0000C9415010C9415010C9415010C94150128
:100100000C9415010C9415010C9415010C94150117
:100110000C9415010C9415010C9415010C94150107
:100120000C9415010C9415010C9415010C941501F7
:100130000C9415010C9415010C9415010C941501E7
:100140000C9415010C9415010C9415010C941501D7
:100150000C9415010C9415010C9415010C941501C7
:100160000C9415010C9415010C9415010C941501B7
:100170000C9415010C9415010C9415010C941501A7
:100180000C9415010C9415010C9415010C94150197
:100190000C9415010C9415010C9415010C94150187
:1001A0000C9415010C9415010C9415010C94150177
:1001B0000C9415010C9415010C9415010C94150167
:1001C0000C9415010C9415010C9415010C94150157
:1001D0000C9415010C9415010C9415010C94150147
:1001E0000C9415010C94150111241FBECFEFDFE50F
:1001F000DEBFCDBF00E00CBF11E2A0E0B0E2E2EA5A
:10020000F3E000E00BBF02C007900D92AA3CB107DB
:10021000D9F711E2AAECB1E201C01D92AC3CB107E2
:10022000E1F70E9460010C94CF010C940000089546
:10023000E0E0F0E2E80FF11D40814093CB21809196
:10024000CA2190E02BE030E0829FF001839FF00D07
:10025000929FF00D1124E40FF11DEE0FFF1FE058E7
:10026000FF4D0190F081E02D1995089581E00895EA
:10027000089508951092CA21089508950895089543
:1002800081E08093CA210895089581E08093CA2176
:10029000089582E08093CA21089588E08093CA215E
:1002A00008958FE080932006E0E0F6E08FE1808300
:1002B00014820E94B0010E9417010E94BF0108959C
:1002C00081E20E941801FCCF88ED84BF82E0809318
:1002D00050008091510081FFFCCF88ED84BF81E008
:1002E000809340000895982F8091B10885FFFCCF3E
:1002F00080E2E0E4F6E085839093B0088091B10855
:1003000086FFFCCF8091B1088064E0EBF8E0818348
:1003100080E293E00197F1F780E2E0E4F6E0868383
:1003200008958091B10887FFFCCF8091B0080895AF
:10033000E0E4F6E080818068808380818062808351
:1003400084818072848380818061808384818071D4
:100350008483E0EBF8E082E2868388E18483089579
:100360000E946401E0E4F0E0118283E0E0EBF0E061
:10037000848380E8809380060E9498010895089500
:10038000E0E0F6E051E04AE020E43FE15483842FCE
:100390008A95F1F71482C9010197F1F7F7CFF89424
:0203A000FFCF8D
:1003A20004020606060606060605040606040606F6
:1003B20006060606060606060606060606060606DB
:1003C20005020606060606060606060606060606D0
:1003D20000000000000000000000060406030606FC
:1003E20006010101010101010101010101010101F6
:1003F20001010101010101010101010606060606D2
:1004020006010101010101010101010101010101D5
:1004120001010101010101010101010606060606B1
:100422003E013E0145013E013E013E013E013801D1
:1004320038013801380149014D0140013A013A01C0
:1004420040013A013A013801380138013F013A01CD
:1004520040013A013A013A013A01440138013801B6
:1004620038013801380140013801380138013801BA
:10047200440138013801380138013801400138019E
:100482003801380138014401380138013801380196
:10049200380140013801380138013801440138017E
:1004A200380138013801380140013801380138017A
:1004B200380144013801380138013801380140015E
:1004C2003801380138013801440138013801380156
:1004D200380138014001380138013801380144013E
:1004E200380138013801380138014001380138013A
:1004F2003801380144013801380138013801380126
:10050200400138013801380138014401380138010D
:100512003801380138013801380138013801380111
:1005220044013801380138013801380138013801F5
:1005320038013801380144013801380138013801E5
:1005420038013801380138013801380144013801D5
:1005520038013801380138013801380138013801D1
:0A0562003801440138013801380166
:00000001FF
