:100000000C94080F0C94290F0C94290F0C94290FB1
:100010000C94290F0C94290F0C94290F0C94290F80
:100020000C94290F0C94290F0C94290F0C94290F70
:100030000C94290F0C94290F0C94FE270C94290F73
:100040000C94290F0C94290F0C94290F0C94290F50
:100050000C94290F0C94290F0C94290F0C94290F40
:100060000C94290F0C9401340C94BD330C94290F7B
:100070000C9413350C94AF340C94F9340C94290F70
:100080000C94290F0C94290F0C94290F0C94290F10
:100090000C94290F0C94290F0C94290F0C94290F00
:1000A0000C94290F0C94290F0C94290F0C94F72F02
:1000B0000C9401300C94290F0C94290F0C943427C4
:1000C0000C94290F0C94290F0C94290F0C94290FD0
:1000D0000C94290F0C94290F0C94290F0C94290FC0
:1000E0000C94290F0C94290F0C94290F0C94290FB0
:1000F0000C94290F0C94290F0C94290F0C94290FA0
:100100000C940B300C9415300C94CF2F0C94D92FE9
:100110000C94290F0C94290F0C94290F0C94290F7F
:100120000C94290F0C94290F0C94290F0C94290F6F
:100130000C94290F0C9499270C94290F0C94290FD7
:100140000C94290F0C94290F0C94290F0C94290F4F
:100150000C94290F0C94290F0C94290F0C94290F3F
:100160000C94290F0C94290F0C94290F0C94290F2F
:100170000C94290F0C94290F0C94290F0C94290F1F
:100180000C94290F0C94290F0C94290F0C94290F0F
:100190000C94290F0C94290F0C94290F0C94290FFF
:1001A0000C94E32F0C94ED2F0C94290F0C94290F31
:1001B0000C94CF260C94290F0C94290F0C94290F22
:1001C0000C94290F0C94290F0C94290F0C94290FCF
:1001D0000C94290F0C94290F0C94290F0C94290FBF
:1001E0000C94290F0C94290F084AD73B3BCE016E83
:1001F00084BCBFFDC12F3D6C74319ABD56833DDA7E
:100200003D00C77F11BED9E4BB4C3E916BAAAABE8C
:10021000000000803F05A84CCDB2D44EB93836A9B5
:10022000020C50B9918688083CA6AAAA2ABE0000F2
:1002300000803F6E616E00696E660025730A00588B
:100240000059005A0041003F024102430245026D3D
:100250006D5F7065725F6172635F7365676D656E18
:1002600074203D20302E32200A785F7365656B5F05
:1002700073746570735F736563203D203130303077
:10028000200A795F7365656B5F73746570735F7364
:100290006563203D2031313030200A7A5F73656517
:1002A0006B5F73746570735F736563203D203132DB
:1002B0003030200A615F7365656B5F7374657073BE
:1002C0005F736563203D2031333030200A785F66EC
:1002D0006565645F73746570735F736563203D204B
:1002E000363030200A795F666565645F73746570C7
:1002F000735F736563203D20373030200A7A5F6674
:100300006565645F73746570735F736563203D201A
:10031000383030200A615F666565645F73746570AC
:10032000735F736563203D20393030200A785F6445
:1003300065677265655F73746570203D20302E3986
:10034000090A785F6D6D5F726576203D20352E302D
:10035000200A785F6D6D5F74726176656C093D206F
:10036000343130200A7A5F6D6963726F737465701F
:10037000093D203209200A785F6C6F775F707772D1
:100380005F69646C65203D2030200A785F6C696D80
:1003900069745F656E61626C653D09300020287389
:1003A000746570735F7065725F6D6D3A20202020F8
:1003B00025372E3266206D6963726F7374657073B2
:1003C000202F206D696C6C696D65746572290A0A4D
:1003D000002020706F6C61726974793A20202020AF
:1003E0002020202025346420202020313D696E7695
:1003F00065727465642C20303D6E6F726D616C0A9D
:100400000020206C6F775F7077725F69646C653A6B
:100410002020202025346420202020313D656E617D
:10042000626C65642C20303D64697361626C656444
:100430000A0020206C696D69745F656E61626C658D
:100440003A2020202025346420202020313D656E74
:1004500061626C65642C20303D64697361626C6517
:10046000640A0020206D6D5F74726176656C3A20BD
:1004700020202020202025372E3266206D696C6CCC
:10048000696D657465727320746F74616C20747229
:100490006176656C0A0020206D6D5F7265766F6C09
:1004A0007574696F6E3A20202025372E3266206DD4
:1004B000696C6C696D6574657273202F2072657646
:1004C0006F6C7574696F6E0A0020206465677265D1
:1004D000655F7065725F737465703A2025372E32E0
:1004E000662064656772656573202F20737465707C
:1004F000202877686F6C65207374657073290A0013
:1005000020206D6963726F73746570733A202020C8
:10051000202020253464202020206D6963726F73B1
:1005200074657073202F2077686F6C652073746515
:10053000700A002020666565645F73746570735F80
:100540007365633A2020253464202020207374656D
:100550007073202F207365636F6E64202877686F37
:100560006C65207374657073290A002020736565BB
:100570006B5F73746570735F7365633A2020253415
:1005800064202020207374657073202F20736563AE
:100590006F6E64202877686F6C6520737465707364
:1005A000290A002553204178697320436F6E6669DC
:1005B0006775726174696F6E2056616C7565730A38
:1005C00000202864656661756C745F666565645FAC
:1005D000726174653A202025352E3366206D6D20BA
:1005E0002F207365636F6E64290A0A0020286465F2
:1005F0006661756C745F7365656B5F726174653A93
:10060000202025352E3366206D6D202F20736563E5
:100610006F6E64290A0020206D6D5F7065725F61E6
:1006200072635F7365676D656E743A2025352E338E
:1006300066206D6D202F207365676D656E740A00EE
:10064000472D636F6465204D6F64656C20436F6E4A
:1006500066696775726174696F6E2056616C756545
:1006600073202D2D2D0A000A2A2A2A2A2A20434FD8
:100670004E46494755524154494F4E205B7665726C
:1006800073696F6E2025645D202A2A2A2A0A000ACF
:100690000A2A2A2A2A20586D65676120494F20734B
:1006A000756273797374656D20696E697469616CC4
:1006B000697A6564202A2A2A2A0A0067312066336B
:1006C00033332078302079300A78312079300A7835
:1006D000312079310A78302079310A783020793028
:1006E0000A78312079300A78312079310A7830203F
:1006F00079310A78302079300A78312079300A78D7
:10070000312079310A78302079310A7830207930F7
:100710000A78312079300A78312079310A7830200E
:1007200079310A78302079300067312066333333ED
:100730002078302079300A78322079300A783220D7
:1007400079320A78302079320A783020793000679F
:1007500031206633333320782D313020792D350A1E
:10076000783130207931300A7830207931300A7888
:10077000302079300A7835207935006731206633AA
:1007800033332078302079350A67332066333333AA
:1007900020783130207935206930206A350A673376
:1007A0002078352079313020692D35206A300A676C
:1007B00033207830207935206930206A2D350A675A
:1007C00033207835207930206935206A300A673146
:1007D0002066333333207831302079300067312080
:1007E00066333333207831302079300A7831302045
:1007F0007931300A7830207931300A7830207930F8
:100800000A78350A6733207831302079352069300D
:10081000206A350A67332078352079313020692DF8
:1008200035206A300A6733207830207935206930E6
:10083000206A2D350A6733207835207930206935D4
:10084000206A300A67312066333333207831302014
:1008500079300067312066333333207831303020EF
:1008600079300A7831303020793130300A783020D0
:10087000793130300A78302079300A7835300A679B
:1008800033207831303020793530206930206A3596
:10089000300A673320783530207931303020692DA7
:1008A0003530206A300A673320783020793530209F
:1008B0006930206A2D35300A673320783530207949
:1008C0003020693530206A3000673120663330309F
:1008D00020782E352079300A673278315930493006
:1008E0004A300A673278312E35593049304A300A59
:1008F00067327832593049304A300A673278322EBE
:1009000035593049304A300A6732783359304930E6
:100910004A300A673278332E35593049304A300A26
:1009200067327834593049304A300A673278342E89
:1009300035593049304A300A6732783559304930B4
:100940004A300067312066333333207830207930E5
:100950000A67332078353020793530206930206AB5
:100960003530006730207831300A67342070310A22
:100970006730207832300A67342070310A673020BF
:100980007831300A67342070310A6730207830308F
:100990000A67342070310A6730207831300A6734B2
:1009A0002070310A6730207832300A673420703185
:1009B0000A6730207831300A67342070310A673096
:1009C0002078300A67342070310A6730207831305F
:1009D0000A67342070310A6730207832300A673471
:1009E0002070310A6730207831300A673420703146
:1009F0000A67302078300067302078310A67342069
:100A000070310A67302078320A67342070310A6703
:100A1000302078310A67342070310A67302078300E
:100A20000A67342070310A67302078310A67342031
:100A300070310A67302078320A67342070310A67D3
:100A4000302078310A67342070310A6730207830DE
:100A50000A67342070310A67302078310A67342001
:100A600070310A67302078320A67342070310A67A3
:100A7000302078310A67342070310A6730207830AE
:100A800000673420703230302E31006730207831EA
:100A90003020793230207A33300A673020783020A5
:100AA000793231207A2D33342E320067302078317C
:100AB0003020793230207A34300A67302078302084
:100AC0007930207A300A673020783130207932301E
:100AD000207A34300A6730207830207930207A301C
:100AE0000067312066333030207831207932207A27
:100AF000330A6731207832207934207A360A673118
:100B00002078343020792D3637207A2D3132006725
:100B10003120663330302078312079310A67322035
:100B200066333230207831303120793130312072E3
:100B300035300A0067320A004739300A463332300E
:100B40000A473120582D32372E3738313420593169
:100B5000312E33323232200A473120582D31332E94
:100B6000373935322059312E3939383033200A4758
:100B70003120582D32372E37383134205931312E2B
:100B800033323232200A473120582D32372E37384F
:100B900031342059312E3939383033200A47312049
:100BA000582D32372E37383134205931312E3332E7
:100BB0003232200A473120582D32372E373831341F
:100BC0002059312E3939383033200A473120582DF9
:100BD00031332E373935322059312E3939383033C7
:100BE000200A473120582D31332E373935322059DC
:100BF00031312E33323232200A473120582D3133F1
:100C00002E373935322059312E3939383033200AD0
:100C1000473120582D31302E38303535205932317A
:100C20002E31323139200A473120582D31312E33BF
:100C3000393631205931392E37353438200A473189
:100C400020582D31312E353538205931372E38374F
:100C500038200A473120582D31302E373831342092
:100C60005931352E39323032200A473120582D394A
:100C70002E3932333936205931342E39303039203B
:100C80000A473120582D382E313238303920593129
:100C9000332E38303037200A473120582D362E3247
:100CA00035313239205931332E36333838200A471E
:100CB0003120582D342E3830333234205931332EF0
:100CC00039383636200A473120582D332E32373402
:100CD0003235205931352E32373238200A4731200B
:100CE000582D322E3638333637205931362E363499
:100CF000200A473120582D322E35323138322059D2
:100D000031382E35313638200A473120582D332ED0
:100D10003239383337205932302E34373435200ABF
:100D2000473120582D342E31353538342059323161
:100D30002E34393338200A473120582D352E393595
:100D4000313731205932322E35393431200A47318A
:100D500020582D372E38323835205932322E37353B
:100D60003539200A473120582D392E32373635365D
:100D7000205932322E34303831200A473120582D54
:100D800031302E38303535205932312E313231392B
:100D9000200A47312058342E323735373620593122
:100DA000382E373436200A4731205831322E32312E
:100DB0003033205931372E373838200A4731205800
:100DC00031322E33363939205931392E31313034E0
:100DD000200A4731205831312E38363834205932E4
:100DE000302E35313237200A4731205831312E32FA
:100DF0003837205932312E32353337200A473120E7
:100E00005831302E30343434205932322E30373489
:100E100036200A47312058382E303630373720599F
:100E200032322E33313431200A47312058362E36B3
:100E300035383533205932312E38313235200A4792
:100E4000312058352E3137363435205932302E3650
:100E5000343938200A47312058342E323735373666
:100E6000205931382E373436200A47312058342E55
:100E700031313631205931372E34323335200A475B
:100E8000312058342E3533373833205931352E330D
:100E9000363031200A47312058352E373030353939
:100EA000205931332E383738200A47312058362E12
:100EB0003934333137205931332E30353732200A27
:100EC00047312058382E39323638205931322E38B1
:100ED000313737200A4731205831302E333239200C
:100EE0005931332E33313932200A473120583131CC
:100EF0002E38313131205931342E343832200A47DE
:100F000031205832332E36353039205931342E398C
:100F10003531200A4731205831342E3836383720C1
:100F200059372E3830353039200A4731205831337F
:100F30002E373339322059362E3032373435200AA5
:100F40004731205831342E303633332059342E3542
:100F5000373339200A4731205831342E3930342084
:100F600059332E35343037200A4731205831382E46
:100F700037373337205931332E35353834200A4747
:100F800031205832312E373136312059392E39340B
:100F9000323134200A4731205831382E3737333731
:100FA000205931332E35353834200A473120583214
:100FB000332E323335322059312E3331353333200D
:100FC0000A4731205831342E3034373420592D30EF
:100FD0002E323733383438200A4731205832332EF6
:100FE000323335322059312E3331353333200A47ED
:100FF00031205831392E323937362059302E363398
:1010000034323532200A4731205832312E333739C5
:10101000392059302E333138353234200A473120C7
:101020005832322E3931393420592D302E37363658
:10103000393831200A4731205832332E3830323790
:1010400020592D312E393636200A47312058323476
:101050002E3134333320592D332E39333438200A8E
:101060004731205831382E3639313320592D31341B
:101070002E36313237200A4731205831382E363556
:10108000313720592D31332E31323339200A47314F
:10109000205831382E3030383620592D31312E330A
:1010A000353333200A4731205831362E3438303327
:1010B00020592D392E3930343235200A4731205805
:1010C00031352E3237333420592D392E33343034E4
:1010D00036200A4731205831332E313831332059E8
:1010E0002D392E30393832200A4731205831312EEF
:1010F0003431303720592D392E3734313235200AEA
:101100004731205831302E3234333520592D31308B
:101110002E36363632200A47312058392E333937A9
:10112000383420592D31322E34373634200A4731A5
:101130002058392E343337343720592D31332E3956
:10114000363531200A4731205831302E303830358D
:1011500020592D31352E37333537200A4731205865
:1011600031312E3630383920592D31372E3138343F
:1011700038200A4731205831322E3831353720593E
:101180002D31372E37343836200A47312058313444
:101190002E3930373820592D31372E393930392012
:1011A0000A4731205831362E3637383420592D3100
:1011B000372E33343738200A4731205831372E380C
:1011C00034353620592D31362E34323239200A4703
:1011D00031205831382E3639313320592D31342EC3
:1011E00036313237200A47312058342E36313234E6
:1011F0003620592D32322E38313037200A473120EF
:1012000058302E32383934313520592D392E353079
:10121000393337200A47312058342E3631323436AC
:1012200020592D32322E38313037200A473120589C
:10123000332E393934383820592D32302E39313067
:1012400035200A47312058332E313339383120596F
:101250002D32322E353839200A47312058322E307F
:101260003738383720592D32332E36333431200A6F
:1012700047312058302E31373836383420592D3206
:10128000342E32353137200A473120582D312E3255
:101290003933393720592D32342E3033200A473133
:1012A00020582D322E393732343820592D32332EF2
:1012B000313735200A473120582D342E323233341D
:1012C0003520592D32312E34383036200A4731201E
:1012D000582D342E363335313720592D32302E32B9
:1012E000313338200A473120582D342E36313933E6
:1012F0003520592D31382E31303738200A473120EA
:10130000582D332E373634323820592D31362E347D
:10131000323933200A473120582D322E37303333BB
:101320003520592D31352E33383432200A473120BB
:10133000582D302E38303331353620592D31342E5A
:1013400037363636200A47312058302E3636393473
:10135000393620592D31342E39383833200A473167
:101360002058322E333438303120592D31352E3833
:10137000343333200A473120582D31302E39343759
:101380003920592D31352E38303632200A47312058
:10139000582D31372E3935353320592D31312E39ED
:1013A000363239200A473120582D31382E3539351B
:1013B0003920592D31332E31333038200A4731202E
:1013C000582D31382E3635323520592D31342E36C0
:1013D0003139200A473120582D31382E33383838EA
:1013E00020592D31352E35323332200A47312058DD
:1013F0002D31372E3534313220592D31362E3734B8
:101400003737200A473120582D31352E37383933B8
:1014100020592D31372E37303835200A47312058A2
:101420002D31342E3330313120592D31372E37368E
:101430003531200A473120582D31322E3439323798
:1014400020592D31372E32333738200A4731205872
:101450002D31302E3934373920592D31352E383051
:101460003632200A473120582D31302E3330373470
:1014700020592D31342E36333833200A4731205845
:101480002D392E393330353220592D31322E353623
:101490003632200A473120582D31302E3435373935
:1014A00020592D31302E37353737200A4731205813
:1014B0002D31312E3330353520592D392E353333FA
:1014C0003235200A473120582D31332E303537330D
:1014D00020592D382E3537323433200A47312058E1
:1014E0002D31342E3534353520592D382E353135C2
:1014F0003833004732310A473930200A4730205A02
:10150000312E35200A473137200A4D332053302001
:101510000A4730205831372E363037352059333589
:101520002E36373937200A473120463130302E30B9
:10153000205A2D302E35200A473120463230302EA9
:1015400030205832312E34303638205933352E324F
:10155000363534200A4732205832302E313831396E
:10156000205933322E3733363320492D392E30353A
:101570003236204A322E38323333200A473220584E
:1015800031382E30373733205933302E3730373219
:1015900020492D362E3534204A342E363737332025
:1015A0000A4732205831352E3132343320593239FE
:1015B0002E3434343420492D342E37343134204AFB
:1015C000372E30303337200A4732205831312E3809
:1015D000363737205932392E3038353720492D32B9
:1015E0002E39363035204A31312E39313437200A00
:1015F00047322058372E37383033205932392E367B
:1016000036393720492D302E33383533204A3131A1
:101610002E383939200A47322058342E3331205998
:1016200033312E363632312049322E34373931209B
:101630004A382E33333638200A47322058322E317A
:10164000323433205933352E303535322049362E59
:1016500030353734204A362E33303234200A473280
:101660002058312E353332205933382E3932323723
:10167000204931322E37343333204A332E39333038
:1016800036200A47322058322E313238362059342B
:10169000322E39303739204931342E30323831202A
:1016A0004A2D302E303633200A47322058342E331C
:1016B000353038205934362E343137352049382EDC
:1016C00035313636204A2D322E39333432200A470E
:1016D000322058372E36373934205934382E3435A5
:1016E0002049362E31363437204A2D362E333533C5
:1016F00039200A4732205831312E363633352059B9
:1017000034392E3038342049332E36323739204A96
:101710002D392E39363336200A4732205831352EAE
:1017200035333933205934382E3435383720493061
:101730002E33343333204A2D31302E313936382090
:101740000A4732205831382E37373138205934364D
:101750002E3437313620492D322E38323133204A5B
:101760002D382E32313234200A4732205832302E72
:1017700039343635205934332E3032383520492D1E
:10178000362E31373438204A2D362E333038332038
:101790000A4732205832312E353239342059333904
:1017A0002E3132303920492D31332E323139322029
:1017B0004A2D332E39363932200A473220583231F9
:1017C0002E353039205933382E3235363120492DD7
:1017D00033322E3337204A302E33333139200A4703
:1017E000312058352E33333133200A4733205835D2
:1017F0002E38353439205933352E36383331204997
:10180000392E39333232204A302E36383136200ADA
:1018100047332058372E33353335205933332E3460
:101820003237372049352E37353332204A322E3180
:10183000393731200A4733205831312E3838383182
:10184000205933312E373532322049342E3134206D
:101850004A342E32333035200A4733205831352E62
:1018600033343032205933322E3638392049302E35
:1018700033343034204A352E35373432200A47335A
:10188000205831362E37323036205933342E30330B
:10189000383920492D322E39333239204A342E330B
:1018A000373939200A4733205831372E363037350B
:1018B000205933352E3637393720492D372E3038D9
:1018C0003136204A342E383838200A4730205A31F1
:1018D0002E3500434F4E54524F4C204D4F4445003F
:1018E000434F4E464947204D4F444500472D434FF7
:1018F0004445204D4F4445004449524543542044FB
:101900005249564500D318E018EC18F8184F4B0010
:101910004552524F520045414741494E004E4F4FAC
:101920005000456E64206F66206C696E6500456EE0
:1019300064206F662066696C650046696C65206E80
:101940006F74206F70656E004E6F20737563682032
:101950006465766963650042756666657220656DCB
:10196000707479004275666665722066756C6C20CD
:101970002D20666174616C00427566666572206632
:10198000756C6C202D206E6F6E2D666174616C001D
:101990005155495400556E7265636F676E697A657B
:1019A0006420636F6D6D616E64004578706563746B
:1019B000656420636F6D6D616E64206C6574746521
:1019C0007200556E737570706F72746564207374F5
:1019D0006174656D656E7400506172616D657465EA
:1019E00072206F7665722072616E67650042616475
:1019F000206E756D62657220666F726D617400464F
:101A00006C6F6174696E6720706F696E74206572A7
:101A1000726F72004D6F74696F6E20636F6E7472B7
:101A20006F6C206572726F72004172632073706513
:101A300063696669636174696F6E206572726F7243
:101A4000005A65726F206C656E677468206C696EF1
:101A500065000D19101916191D1922192E193A1998
:101A6000481957196419781990199519AA19C219A2
:101A7000D819ED19FF19141A291A411A25533A20B9
:101A800025730A00456E64206F6620636F6D6D617B
:101A90006E642066696C650A0054696E7947205B44
:101AA00025535D2A3E20006275696C64203230380F
:101AB0000054696E7947202D2056657273696F6EE8
:101AC0002025530A0000CF673322211F1B13010179
:101AD0000000000000F0E0D0C010016C3228322875
:101AE0003228322832283228322832B63228326C54
:101AF00032283228326C32283228322832283228D2
:101B00003228322832283228322832283228322805
:101B100032283228322832283228322832283228F5
:101B200032283228322832283228322832283228E5
:101B300032283228322832283228322832283228D5
:101B400032283228322832283228322832283228C5
:101B5000329F32283228322832283228322832283E
:101B600032283228322832283228322832283228A5
:101B70003228322832283228322832283228322895
:101B80003228322832283228322832283228322885
:101B90003228322832283228322832283228322875
:101BA0003228322832283228322832283228322865
:101BB0003228322832283228322832283228322855
:101BC0003228322832283228322832283228322845
:101BD000322832283228322832B6325F313231325E
:101BE0003132313231323132313231B43132315F2E
:101BF00031323132315F31323132313231323132A0
:101C000031323132313231323132313231323132BC
:101C100031323132313231323132313231323132AC
:101C2000313231323132313231323132313231329C
:101C3000313231323132313231323132313231328C
:101C4000313231323132313231323132313231327C
:101C5000319D313231323132313231323132313201
:101C6000313231323132313231323132313231325C
:101C7000313231323132313231323132313231324C
:101C8000313231323132313231323132313231323C
:101C9000313231323132313231323132313231322C
:101CA000313231323132313231323132313231321C
:101CB000313231323132313231323132313231320C
:101CC00031323132313231323132313231323132FC
:101CD000313231323132313231B431494E46494EEE
:101CE0004954594E414ECDCCCC3D0AD7233C17B771
:101CF000D13877CC2B329595E6241FB14F0A0000DE
:101D000020410000C84200401C4620BCBE4CCA1BFB
:101D10000E5AAEC59D7400407A10F35A00A0724E60
:101D200018090010A5D4E80000E87648170000E480
:101D30000B54020000CA9A3B000000E1F5050000C8
:101D400080969800000040420F000000A08601002D
:101D50000000102700000000E803000000006400FD
:101D6000000000000A000000000001000000000068
:101D70002C76D888DC674F0823DFC1DFAE59E1B18C
:101D8000B796E5E3E453C63AE651997696E8E6C29B
:101D90008426EB898C9B62ED407C6FFCEFBC9C9FA2
:101DA00040F2BAA56FA5F490055A2AF75C936B6CC4
:101DB000F9676DC11BFCE0E40D47FEF520E6B500B8
:101DC000D0ED902E0300943577050080841E080026
:101DD00000204E0A000000C80C333333330F986ED6
:101DE00012831141EF8D2114893BE65516CFFEE693
:101DF000DB18D1844B381BF77C1D901DA4BBE42459
:101E0000203284725E228100C9F124ECA1E53D27D5
:101E100011241FBECFEFDFE5DEBFCDBF00E00CBF5A
:101E200011E2A0E0B0E2ECEAF4E900E00BBF02C08E
:101E300007900D92A031B107D9F716E2A0E1B1E207
:101E400001C01D92A635B107E1F70E942B0F0C943B
:101E5000544A0C940000F8940E94781B0E94B12907
:101E60000E940E2C0E94AB170E9489240E94A72F6B
:101E70000E94EF2C0E94A31B0E946D240E94FB1A5B
:101E80000E947A0F0E94EB2C0E947128E0EAF0E099
:101E90008091A200816082838091A200826082830F
:101EA0008091A2008460828378940E94CF2CFDCF21
:101EB0008093232160932421409325210895EF925C
:101EC000FF920F931F937B018C0180911E21882329
:101ED00051F0C801B70125E832E441E25DE30E9418
:101EE00023457B018C01B701C8011F910F91FF9021
:101EF000EF90089586E5E0E1F1E2DF011D928A9519
:101F0000E9F780E090E0A0E0B0E080932621909394
:101F10002721A0932821B093292180932A219093EF
:101F20002B21A0932C21B0932D21809156229091AA
:101F30005722A0915822B091592280932E2190933C
:101F40002F21A0933021B093312180915A2290917A
:101F50005B22A0915C22B0915D228093322190930C
:101F60003321A0933421B093352121E020931F2108
:101F700080E090E0A0E8BFEB80933A2190933B2172
:101F8000A0933C21B0933D21109220211092222158
:101F900010921A21109223212093242182E0809311
:101FA000252108954F925F926F927F928F929F9218
:101FB000AF92BF92CF92DF92EF92FF920F931F9357
:101FC000DF93CF930F920F92CDB7DEB77C013B0129
:101FD0002A0149015801D801ED91FC91E20FF31F4C
:101FE0008081882351F0F701808390E00E94D048DF
:101FF000892B31F48DE08093102120E030E034C053
:10200000D8018D919C91119701968D939C93840199
:10201000080F191FC801BE016F5F7F4F0E946C46F9
:102020006B017C01F30160837183828393838981D7
:102030009A818017910711F480E1DDCF8819990901
:10204000D5018D939C93C701B6010E94D1459B0198
:10205000AC01C701B6010E94C141F20160837183E6
:102060008283938321E030E0C9010F900F90CF91DC
:10207000DF911F910F91FF90EF90DF90CF90BF9075
:10208000AF909F908F907F906F905F904F9008954A
:10209000AF92BF92CF92DF92EF92FF920F931F9376
:1020A00079018A015F770E9468420E9426425B01A3
:1020B0006C01C801B70120E030E040E050E00E9430
:1020C00051441816CCF0C601B50120E030E040E0E4
:1020D00050E00E94514418162CF46BED7FE089E427
:1020E00090E404C06BED7FE089E490ECA6019501DB
:1020F0000E94C1415B016C01B501C6011F910F91A6
:10210000FF90EF90DF90CF90BF90AF9008952F9207
:102110003F924F925F926F927F928F929F92AF9277
:10212000BF92CF92DF92EF92FF920F931F93DF93B4
:10213000CF93CDB7DEB76897CDBFDEBF5C01198204
:102140001A82EAE4F1E28CE0DF01282F1D922A9541
:10215000E9F73C96DF011D928A95E9F7109210216C
:10216000109221214E010894811C911CFF24F394AC
:10217000BEE0CB2EA2E0EA2E77247A94F3E0DF2EA5
:10218000E4E06E2E0AC1809111218D3409F4BEC0A5
:10219000843509F4F0C0873409F0FBC06091122146
:1021A0007091132180911421909115210E94D042A9
:1021B0006531710509F48FC06631710584F56430AD
:1021C000710509F46DC065307105A4F461307105C5
:1021D00009F457C06230710524F4672B09F44CC030
:1021E000C7C06230710509F451C06330710509F050
:1021F000BFC051C06231710509F45CC06331710523
:102200002CF46131710509F0B3C04DC06331710523
:1022100009F457C06431710509F0AAC059C06A3584
:10222000710509F464C06B357105ACF46E3171054C
:1022300009F454C06F3171052CF46C31710509F04B
:1022400097C04CC06533710509F44BC0603571050A
:1022500009F08EC049C06C35710509F44EC06C356B
:1022600071050CF447C06D35710509F449C06E3530
:10227000710509F07DC047C0F0921A2110921C210F
:1022800088C0F0921A21F0921C2183C0F0921A218A
:10229000E0921C217EC0F0921A21D0921C2179C0BC
:1022A000E0921A2176C010922321F0922421E0922C
:1022B00025216FC010922321E0922421F092252144
:1022C00068C0F0922321E09224211092252161C060
:1022D000F0921E215EC010921E215BC0D0921A2186
:1022E00058C0F092222155C060921C2152C0F09239
:1022F0001F214FC010921F214CC0F092212149C0D4
:10230000F0921D2146C010921D2143C06091122100
:102310007091132180911421909115210E94D04237
:1023200063307105E1F06430710534F477FD20C04D
:102330006230710574F010C065307105B1F0653020
:10234000710584F06E31710539F06C33710581F4DB
:1023500003C0F0921B211DC0E0921B211AC0F09215
:10236000632117C07092632114C01092632111C0C1
:10237000C09210210EC060911221709113218091A2
:102380001421909115210E94D1450E94D54260935D
:10239000622180911021882369F481E191E262E158
:1023A00071E246E151E2950184010E94D20F892B2E
:1023B00009F0E9CE80911021882309F0C2C3198267
:1023C0001A82E6E5F1E28CE0DF011D928A95E9F7D9
:1023D000DF011C9778978CE001900D928150E1F716
:1023E000CCC0C0901221D0901321E0901421F09025
:1023F000152180911E21882319F4A70196010AC096
:10240000C701B60125E832E441E25DE30E942345BD
:102410009B01AC0120933621309337214093382122
:102420005093392100911121003509F447C001353D
:1024300058F40634C1F0063408F4A7C0802F89543C
:10244000833008F0A2C02DC0033509F44BC0043519
:1024500020F4023509F099C03AC0802F88558330A6
:1024600008F093C048C080911D21882349F0209333
:102470003A2130933B2140933C2150933D2185C02C
:10248000CA01B90120E030E040E752E40E9468420E
:1024900060932E2170932F218093302190933121CE
:1024A00074C0E02FF0E0EE0FFF1FEE0FFF1FEE5C99
:1024B000FF4D208331834283538367C0C09226211E
:1024C000D0922721E0922821F09229215EC020930A
:1024D0002A2130932B2140932C2150932D2170924F
:1024E000202153C0C701B6010E94D04260936421ED
:1024F000709365214AC080912121882399F0E02FB3
:10250000F0E0EE0FFF1FEE0FFF1FE055F04E26A785
:1025100037A740AB51AB22AF33AF44AF55AF60925A
:102520001A2133C080911F21882321F48091222118
:10253000882369F0E02FF0E0EE0FFF1FEE0FFF1F82
:10254000E055F04E22AF33AF44AF55AF1EC010E0A0
:10255000000F111F000F111F0055104EF80162AD42
:1025600073AD84AD95AD0E94C241D801DA966D93EA
:102570007D938D939C93DD9708C04E010894811C38
:10258000911C14E0612E7724739481E191E262E161
:1025900071E246E151E2950184010E94D20F892B3C
:1025A00009F01FCF80911021882309F0CAC28091C1
:1025B0006321882371F04091642150916521662741
:1025C00057FD6095762F992787FD90950E9474247A
:1025D00002C00E94842480911A21823051F18330FC
:1025E00020F4813009F09EC22FC0833021F0843066
:1025F00009F098C203C00E94991B92C260913E21CB
:1026000070913F2180914021909141212091422160
:10261000309143214091442150914521E090462141
:10262000F090472100914821109149210E94321CCD
:1026300077C2609126217091272180912821909165
:1026400029210E94F81B6CC2B0911C21B88FB230B6
:1026500020F0B43008F066C231C060914A21709118
:102660004B2180914C2190914D2120914E21309110
:102670004F214091502150915121E0905221F090F2
:102680005321009154211091552180901D218820C3
:1026900049F0A0903A21B0903B21C0903C21D090CD
:1026A0003D2108C0A0902E21B0902F21C090302154
:1026B000D090312199240E94901C32C28091202117
:1026C000882309F4ECC0E0912321F0E0EE0FFF1F16
:1026D000EE0FFF1FE05FFE4D62AD73AD84AD95ADB3
:1026E00026A537A540A951A90E94C1416F837887CB
:1026F00089879A87E0912421F0E0EE0FFF1FEE0F0B
:10270000FF1FE05FFE4D62AD73AD84AD95AD26A5B4
:1027100037A540A951A90E94C1411B012C0110926B
:1027200056211092572160902A2170902B21809081
:102730002C2190902D21C401B30120E030E040E82D
:1027400050E40E942345A40193010E9423455B01AC
:102750006C016F81788589859A859B01AC010E9407
:1027600023457B018C01C201B101A20191010E94AC
:1027700023459B01AC01C801B7010E94C1419B01E7
:10278000AC01C601B5010E94C1410E9490457B0188
:102790008C016F81788589859A85A20191010E94BB
:1027A0005E449B01AC0117FB109517F91095C80109
:1027B000B7010E9468427B018C01A80197010E9429
:1027C000D845882321F081E18093102165C0E88DF0
:1027D000E33021F417FB109517F91095C401B301EC
:1027E00020E030E040E050E00E946142882324F481
:1027F00017FB109517F9109580912321C82EDD2421
:10280000CC0CDD1CCC0CDD1C26E531E2C20ED31E47
:10281000C201B101A80197010E9423459B01AC01AF
:102820006F81788589859A850E94C14120E030E0DA
:1028300040E05FE30E942345D6016D937D938D9325
:102840009C93139780912421C82EDD24CC0CDD1C91
:10285000CC0CDD1CE6E5F1E2CE0EDF1E6F81788543
:1028600089859A85A80197010E9423459B01AC01A7
:10287000C201B1010E94C24120E030E040E05FE3CC
:102880000E942345D6016D937D938D939C9313975E
:1028900080911021882319F08091102141C1E0918D
:1028A0002321F0E0EE0FFF1FEE0FFF1FEA5AFE4D4F
:1028B00060817181828193819058E0912421F0E0C0
:1028C000EE0FFF1FEE0FFF1FEA5AFE4D20813181F0
:1028D0004281538150580E9448106F87788B898BB2
:1028E0009A8B9B01AC010E94D845882309F054C003
:1028F000E09123210E2F10E0E0912421CE2EDD2443
:10290000000F111F000F111F005F1E4DF801EA5B41
:10291000FF4FD801DA966D917D918D919C91DD9755
:1029200020813181428153810E94C141F80126A555
:1029300037A540A951A90E94C1417B018C01CC0C53
:10294000DD1CCC0CDD1C20E131E2C20ED31EF601F1
:10295000EA5BFF4FD601DA966D917D918D919C9146
:10296000DD9720813181428153810E94C141F6016E
:1029700026A537A540A951A90E94C1419B01AC01E0
:10298000C801B7010E9448107B018C01A801970182
:102990000E94D845882319F083E190E0C1C0C801A6
:1029A000B7012F85388949895A890E946142882355
:1029B00054F4C801B7012BED3FE049EC50E40E940C
:1029C000C2417B018C01C801B7012F853889498933
:1029D0005A890E94C1416B877C878D879E87809131
:1029E0001C21833071F46B857C858D859E852BED54
:1029F0003FE049EC50E40E94C1416B877C878D87A2
:102A00009E8780912321282F30E02D833E83F9017A
:102A1000EE0FFF1FEE0FFF1FEA5AFE4DE080F18020
:102A20000281138180912421A82FB0E0AB83BC8365
:102A3000FD01EE0FFF1FEE0FFF1FEA5AFE4D208132
:102A400031814281538180912521282E3324F10147
:102A5000EE0FFF1FEE0FFF1FE05FFE4D82AD93AD47
:102A6000A4ADB5AD8C8B9D8BAE8BBF8BA6A4B7A44C
:102A7000C0A8D1A890911D219B8B992349F040902B
:102A80003A2150903B2160903C2170903D2108C03C
:102A900040902E2150902F21609030217090312154
:102AA000C801B7010E945E447B018C01ADB7BEB77F
:102AB0001A97ADBFBEBF8DB69EB60894811C911CFF
:102AC0006C897D898E899F89A60195010E94C141EB
:102AD0005B016C012B813C81F401208331832282D4
:102AE0003382D40114964D925D926D927C92179729
:102AF000EB891896EC93189719961C926F85788934
:102B000089899A892B853C854D855E858D809E803F
:102B10000E94D91E2DB73EB7265F3F4F2DBF3EBF47
:102B20008093102180911021882311F0823049F484
:102B3000EEE3F1E2DF011C969CE00D9001929150D2
:102B4000E1F76896CDBFDEBFCF91DF911F910F9166
:102B5000FF90EF90DF90CF90BF90AF909F908F90BD
:102B60007F906F905F904F903F902F900895DF92ED
:102B7000EF92FF920F931F93CF93DF937C01FC01A1
:102B800080818F3219F000E0DD242AC0F701108225
:102B90006CC0D394812F90E00E94D048892BD9F447
:102BA000812F90E0C0970A97B0F0183241F4F701F6
:102BB000E00FF11D1082E701CD0DD11D1DC01132B6
:102BC00078F01F3769F080E090E2612F70E00E949A
:102BD0000C49009729F4F701E00FF11D10830F5FF6
:102BE000F701ED0DF11D808190E00E94E148182F62
:102BF000882379F6C0E0D0E0F701E00FF11D1082E4
:102C0000209799F1888190E00E94E1488D349105E8
:102C100061F5898190E00E94E1488335910529F5AD
:102C20008A8190E00E94E14887349105F1F404C064
:102C3000993219F4108208C080E0FE01E80FF11DFE
:102C400090818F5F9923A1F700D00F928BE392E0E0
:102C5000EDB7FEB7818392832396C383D4830E940A
:102C60008E490F900F900F900F90F701808188236D
:102C700071F0813511F48BE00AC0C7010E94871002
:102C800080931021B7010E94BE2B80911021DF910B
:102C9000CF911F910F91FF90EF90DF9008950E94C8
:102CA000B7150895CF92DF92EF92FF920F931F9383
:102CB000CF93DF93CEE5D2E2688170E0882777FD7D
:102CC0008095982F0E9403439B01AC016F8178850A
:102CD00089859A850E9468429B01AC0160E070E0A2
:102CE00084EB93E40E9468422B853C854D855E858C
:102CF0000E9468426B8B7C8B8D8B9E8B689682E2E8
:102D0000CE3BD807C9F600915E2210E0B8018827B3
:102D100077FD8095982F0E9403439B01AC01609141
:102D200065227091662280916722909168220E94AC
:102D300068429B01AC0160E070E084EB93E40E9488
:102D400068426B017C018091632290916422089F0C
:102D5000B001099F700D189F700D112480E090E064
:102D60000E940143A70196010E9468426093562287
:102D70007093572280935822909359228091612218
:102D800090916222089FB001099F700D189F700DED
:102D9000112480E090E00E940143A70196010E9467
:102DA000684260935A2270935B2280935C229093D6
:102DB0005D22DF91CF911F910F91FF90EF90DF90F7
:102DC000CF900895E0E5F2E284E6809350228DEC06
:102DD0009CECACE4BDE38093522290935322A093E9
:102DE0005422B09355228CED95E08093612290930C
:102DF00062228093792290937A22809391229093F9
:102E000092228093A9229093AA2280936322909386
:102E1000642280937B2290937C22809393229093D0
:102E200094228093AB229093AC2286E696E6A6EE9F
:102E3000BFE38093652290936622A0936722B093AC
:102E4000682280937D2290937E22A0937F22B0936C
:102E500080228093952290939622A0939722B093FC
:102E600098228093AD229093AE22A093AF22B0938C
:102E7000B0228CE59FE8A2EABFE380936922909399
:102E80006A22A0936B22B0936C228093812290934C
:102E90008222A0938322B0938422809399229093DC
:102EA0009A22A0939B22B0939C228093B12290936C
:102EB000B222A093B322B093B42280E090E0A8ECB9
:102EC000B3E480936D2290936E22A0936F22B0930F
:102ED00070228093852290938622A0938722B093BC
:102EE000882280E090E0A6E9B3E480939D2290934D
:102EF0009E22A0939F22B093A02280E090E0A0E8C1
:102F0000BFEB8093B5229093B622A093B722B093E3
:102F1000B82288E080935E228093762286AF8093E9
:102F2000A6221092602281E0809378221092902253
:102F30001092A8228093752285AF8093A5221092CB
:102F4000BD2280935F228093772287AF8093A72250
:102F50000E94521608950E94E216089580E090E0C3
:102F600060E572E24EE650E00E94BB2A089580E0E0
:102F700090E00E940D2A843619F020E030E00DC068
:102F800080E592E260E070E04EE650E00E94172A91
:102F9000009711F081E090E09C01C9010895EF9243
:102FA000FF920F931F93E82EFF248701000F111F3C
:102FB000F801E95BFD4F2591349100D00F9283EA2F
:102FC00095E0ADB7BEB711968D939C93129713966B
:102FD0002D933C9314970E948E498BE695E0EDB7B4
:102FE000FEB7818392830E0D1F1D83E0000F111F1A
:102FF0008A95E1F7005B1D4DD80151968D919C910A
:103000005297838394830E948E4983E395E0EDB7C2
:10301000FEB781839283D80153968D919C915497EA
:10302000838394830E948E49EDB7FEB7319680E08A
:1030300095E0ADB7BEB711968D939C931297D801CA
:103040001E968C91828313820E948E490F920F925A
:1030500089EC94E0EDB7FEB781839283F80185890E
:103060009689A789B08DEDB7FEB783839483A58336
:10307000B6830E948E4986E994E0ADB7BEB711963B
:103080008D939C931297F801818D928DA38DB48DB1
:10309000EDB7FEB783839483A583B6830E948E49E0
:1030A00083E694E0ADB7BEB711968D939C931297CB
:1030B000F801858D968DA78DB0A1EDB7FEB78383FE
:1030C0009483A583B6830E948E490F900F90EDB72D
:1030D000FEB7319682E394E0ADB7BEB711968D93FB
:1030E0009C931297D80195968C91828313820E94AB
:1030F0008E49EDB7FEB7319681E094E0ADB7BEB72B
:1031000011968D939C931297D8011F968C91828370
:1031100013820E948E49EDB7FEB7319681ED93E0A0
:10312000ADB7BEB711968D939C931297D801509668
:103130008C91828313820E948E490F920F928DE9A7
:1031400093E0EDB7FEB781839283F80181A192A14C
:10315000A3A1B4A1EDB7FEB783839483A583B683FF
:103160000E948E498DB79EB706968DBF9EBF1F9158
:103170000F91FF90EF9008951F9300D00F92EDB73D
:10318000FEB7319687E696E0ADB7BEB711968D9340
:103190009C93129780915022828313820E948E49C1
:1031A0000F900F9080E496E0EDB7FEB78183928395
:1031B0000E948E4900D00F9286E196E0ADB7BEB76F
:1031C00011968D939C931297809152229091532245
:1031D000A0915422B0915522EDB7FEB7838394831A
:1031E000A583B6830E948E498CEE95E0ADB7BEB73D
:1031F00011968D939C93129780915A2290915B2205
:10320000A0915C22B0915D22EDB7FEB783839483D9
:10321000A583B6830E948E4981EC95E0ADB7BEB719
:1032200011968D939C9312978091562290915722DC
:10323000A0915822B0915922EDB7FEB783839483B1
:10324000A583B6830E948E4910E08DB79EB706967F
:103250008DBF9EBF812F0E94CF171F5F1430D1F703
:103260001F910895CF92DF92EF92FF920F931F93D9
:10327000DF93CF930F920F92CDB7DEB77C01198207
:103280001A82CC24DD2400E010E022C09D3349F4F2
:10329000F701E10FF11D10821F5F6701C10ED11C04
:1032A00017C09D3281F09B3271F09E3261F09F33E6
:1032B00051F0983241F0892F81548A3120F0892FC2
:1032C00080538A3028F4F701E10FF11D90831F5FCE
:1032D000F701E00FF11D0F5F808190E00E94E1484F
:1032E000982F882399F6F701E10FF11D10821F5FD7
:1032F000C701810F911D89839A8310925122F70192
:1033000080818135D1F0823560F4813459F1823485
:1033100028F4883211F18F3339F50CC08D3421F542
:103320000EC0893529F08A35D9F08835E9F41FC0F7
:1033300011E01EC00E94BC1810C08BE016C0C60170
:10334000BE016F5F7F4F0E946C4660935222709364
:10335000532280935422909355221092512207C0F9
:1033600012E006C013E004C08CE08093512210E00C
:1033700080915122882309F0EEC010925122F7016A
:1033800081818C3409F4B8C08D3430F48434A9F1CF
:10339000863409F0DDC01DC0803509F447C083358F
:1033A00021F08D3409F0D4C058C0C6010E94DA471C
:1033B000212F30E0F901EE0FFF1FE20FF31F23E092
:1033C000EE0FFF1F2A95E1F7E05BFD4D818B928B9D
:1033D000C2C0C6010E94DA47212F30E0F901EE0F8A
:1033E000FF1FE20FF31F13E0EE0FFF1F1A95E1F727
:1033F000E05BFD4D838B948BAEC0C601BE016F5F59
:103400007F4F0E946C46212F30E0F901EE0FFF1F25
:10341000E20FF31FA3E0EE0FFF1FAA95E1F7E05BB9
:10342000FD4D658B768B878B908F95C0C6010E9472
:10343000DA47682F812F90E0FC01EE0FFF1FE80FA5
:10344000F91F53E0EE0FFF1F5A95E1F7E05BFD4DCA
:10345000608B812F0E94F8247EC0F701828189341D
:1034600099F4C6010E94DA47212F30E0F901EE0FEE
:10347000FF1FE20FF31F93E0EE0FFF1F9A95E1F796
:10348000E05BFD4D868767C0F70183818235C9F413
:10349000C601BE016F5F7F4F0E946C46212F30E056
:1034A000F901EE0FFF1FE20FF31F13E0EE0FFF1FF6
:1034B0001A95E1F7E05BFD4D618F728F838F948FDA
:1034C0004AC08435C9F4C601BE016F5F7F4F0E94B8
:1034D0006C46212F30E0F901EE0FFF1FE20FF31FC2
:1034E000A3E0EE0FFF1FAA95E1F7E05BFD4D658FAE
:1034F000768F878F90A32FC0F70182818F3499F444
:10350000C6010E94DA47212F30E0F901EE0FFF1FBC
:10351000E20FF31F53E0EE0FFF1F5A95E1F7E05B58
:10352000FD4D878718C0893499F4C6010E94DA4797
:10353000212F30E0F901EE0FFF1FE20FF31F23E010
:10354000EE0FFF1F2A95E1F7E05BFD4D85A303C059
:103550008CE0809351228091512290E00F900F9047
:10356000CF91DF911F910F91FF90EF90DF90CF905F
:103570000895EF92FF920F931F93DF93CF93CDB7F0
:10358000DEB7A897CDBFDEBF0FE412E0A0E0B0E049
:103590007E010894E11CF11C02C00F5F1F4FF8016F
:1035A0008491882389F4CE010196A80FB91F1C923B
:1035B0000E943219A896CDBFDEBFCF91DF911F9137
:1035C0000F91FF90EF9008958D3021F08A3011F027
:1035D0008B3349F4AE0DBF1D1C92C7010E943219F6
:1035E000A0E0B0E0DACF8132C0F2F701EA0FFB1FB2
:1035F00080831196D2CF089580936621982F90FFF3
:1036000007C0E0914C22F0914D2280E2858306C0F4
:10361000E0914C22F0914D2280E2868391FF07C019
:10362000E0913C22F0913D2280E2858306C0E0914A
:103630003C22F0913D2280E2868392FF07C0E09118
:103640002C22F0912D2280E2858306C0E0912C226D
:10365000F0912D2280E2868393FF07C0E0911C2227
:10366000F0911D2280E285830895E0911C22F09163
:103670001D2280E286830895909166219827909379
:103680006621892F0E94FC1A08950F93DF93CF9330
:103690000F92CDB7DEB78BECE0E5F0E0828388E0F7
:1036A000809350008091510083FFFCCF82ECE0E5D5
:1036B000F0E0858388E1809350008091510084FF81
:1036C000FCCF8FB78983F8941BBE24E080E490E0A0
:1036D000FC0108ED04BF208389818FBF80915000D9
:1036E0008E7F809350000F90CF91DF910F910895BE
:1036F0000E94451B08950F93DF93CF930F92CDB790
:10370000DEB72FB72983F8941BBEFC0108ED04BF78
:10371000608389818FBF0F90CF91DF910F910895C2
:1037200080E090E0089580E090E0089580E090E0EF
:1037300008958CE0E8E6F1E2DF011D928A95E9F751
:1037400080E090E008958CE0E8E6F1E2DF011D9270
:103750008A95E9F7109267211092BE220895AF92E0
:10376000BF92CF92DF92EF92FF920F931F938091BF
:103770006721882319F423E030E030C082E0809391
:1037800067210E94162D882319F022E030E026C020
:10379000609180217091812180918221909183217B
:1037A000209184213091852140918621509187215B
:1037B000E0908821F090892100918A2110918B213D
:1037C000A0908C21B0908D21C0908E21D0908F211F
:1037D0000E94422D1092672120E030E0C9011F9124
:1037E0000F91FF90EF90DF90CF90BF90AF90089532
:1037F00010928021109281211092822110928321B7
:103800001092842110928521109286211092872196
:10381000109288211092892110928A2110928B2176
:1038200020E030E040E050E020939021309391215F
:10383000409392215093932120E034E244E759E4ED
:103840000E9423450E94D54260938C2170938D2164
:1038500080938E2190938F2181E0809367210E9435
:10386000AF1B08958F929F92AF92BF92CF92DF923B
:10387000EF92FF920F931F9349015A0120917122F9
:103880003091722240917322509174220E942345FC
:103890000E94F34428E6C22E21E2D22E60936821D2
:1038A0007093692180936A2190936B21C501B401C3
:1038B0002091892230918A2240918B2250918C2232
:1038C0000E9423450E94F344F601349660936C21D4
:1038D000718382839383C801B7012091A122309123
:1038E000A2224091A3225091A4220E9423450E942B
:1038F000F34428E030E0C20ED31E60937021F6013D
:1039000071838283938380E090E01F910F91FF90F9
:10391000EF90DF90CF90BF90AF909F908F900895E1
:103920002F923F924F925F926F927F928F929F92CF
:10393000AF92BF92CF92DF92EF92FF920F931F93BD
:10394000DF93CF93CDB7DEB76297CDBFDEBF19014E
:103950002A01AD86BE86CF86D88A898A9A8A209126
:1039600071223091722240917322509174222987E2
:103970003A874B875C870E9423450E94F3443B01B2
:103980004C01609274217092752180927621909200
:1039900077218091892290918A22A0918B22B091E7
:1039A0008C228D839E83AF83B887C201B1012D81A4
:1039B0003E814F8158850E9423450E94F3445B015C
:1039C0006C01A0927821B0927921C0927A21D09294
:1039D0007B212091A1223091A2224091A3225091DB
:1039E000A42229833A834B835C83C801B7010E94D8
:1039F00023450E94F3449B01AC0120937C2130932A
:103A00007D2140937E2150937F2180916821909168
:103A10006921A0916A21B0916B2184017301E81A98
:103A2000F90A0A0B1B0BE0928021F092812100938E
:103A300082211093832180916C2190916D21A0911E
:103A40006E21B0916F21A81AB90ACA0ADB0AA092A6
:103A50008421B0928521C0928621D09287218091C5
:103A6000702190917121A0917221B091732119015F
:103A70002A01281A390A4A0A5B0A209288213092C0
:103A8000892140928A2150928B21D601C5018E0D49
:103A90009F1DA01FB11F820D931DA41DB51D009772
:103AA000A105B10519F424E130E072C049895A89B1
:103AB000452B59F060EC71EE84E69CE42D853E8543
:103AC0004F8558890E9468424AC0C801B7010E94C8
:103AD000034329853A854B855C850E9468420E9494
:103AE000CE453B014C01C601B5010E9403432D8127
:103AF0003E814F8158850E9468420E94CE455B01FD
:103B00006C01C201B1010E94034329813A814B81BA
:103B10005C810E9468420E94CE457B018C01C401F9
:103B2000B301A60195010E94C241A80197010E941C
:103B3000C2410E949045609390217093912180939F
:103B40009221909393212D853E854F8558890E941F
:103B5000684220E034E244E759E40E9423450E9491
:103B6000F34460938C2170938D2180938E219093E8
:103B70008F2181E080936721E8E6F1E2DF011C9666
:103B80008CE00D9001928150E1F70E94AF1B9C01E7
:103B9000C9016296CDBFDEBFCF91DF911F910F911A
:103BA000FF90EF90DF90CF90BF90AF909F908F905D
:103BB0007F906F905F904F903F902F9008958F92DD
:103BC0009F92AF92BF92CF92DF92EF92FF920F93AC
:103BD0001F938091BE22882319F423E030E0DDC0DA
:103BE000813009F0CAC01092C1221092C22282E034
:103BF0008093BE22C2C00E94162D882319F022E0B5
:103C000030E0CBC08091C1229091C2220196809376
:103C1000C1229093C2226091E3227091E4228091AC
:103C2000E5229091E6222091EF223091F0224091FE
:103C3000F1225091F2220E94C2417B018C01CB0102
:103C4000D8018093E3229093E422A093E522B093DD
:103C5000E622B701C8010E9486458090E722909035
:103C6000E822A090E922B090EA22C090C522D0902C
:103C7000C622CC0CDD1CCC0CDD1C2EEB32E2C20EBD
:103C8000D31EA50194010E9423459B01AC016091C4
:103C9000DB227091DC228091DD229091DE220E9455
:103CA000C241F601658776878787908BB701C80187
:103CB0000E9465420091C7221091C822000F111F77
:103CC000000F111F02541D4DA50194010E942345B0
:103CD0009B01AC016091DF227091E0228091E12292
:103CE0009091E2220E94C241F8016587768787871A
:103CF000908B0091C9221091CA22000F111F000F52
:103D0000111F02541D4DF8016585768587859089C0
:103D10002091F3223091F4224091F5225091F62225
:103D20000E94C241F801658776878787908B6091F2
:103D3000CB227091CC228091CD229091CE222091E5
:103D4000CF223091D0224091D1225091D222E090C6
:103D5000D322F090D4220091D5221091D622A090A7
:103D6000EB22B090EC22C090ED22D090EE22809019
:103D7000C3229090C4220E94901C2091C1223091B5
:103D8000C2228091BF229091C022821793070CF02B
:103D900032CF1092BE2220E030E0C9011F910F9176
:103DA000FF90EF90DF90CF90BF90AF909F908F905B
:103DB00008952F923F924F925F926F927F928F92CF
:103DC0009F92AF92BF92CF92DF92EF92FF920F93AA
:103DD0001F93DF93CF93CDB7DEB72897CDBFDEBF5C
:103DE00069837A838B839C8329013A01ED82FE8269
:103DF0000F8318872E8C3F8C6093E3227093E4220C
:103E00008093E5229093E622E092E722F092E82266
:103E10000093E9221093EA222093F7223093F822AC
:103E20004093F9225093FA22A092FB22B092FC22F6
:103E3000C092FD22D092FE228AA19BA1ACA1BDA17D
:103E40008093EB229093EC22A093ED22B093EE228C
:103E5000AEA1BFA1A093C322B093C4228092C52279
:103E60009092C6222092C7223092C822E8A1F9A1DE
:103E7000E093C922F093CA22CA01B901A8019701AF
:103E80000E9423457B018C01C601B5010E94D042EE
:103E900097FF07C090958095709561957F4F8F4FE4
:103EA0009F4F0E9403439B01AC01C801B7010E94D0
:103EB0005E447B018C016093D7227093D82280935B
:103EC000D9229093DA222DEC3CEC4CE45DE30E9485
:103ED000614288231CF423E130E0FBC0C801B70134
:103EE00020915222309153224091542250915522D8
:103EF0000E9468420E944E420E94D0428B01609311
:103F0000BF227093C0228EA19FA1892BB9F0B80166
:103F1000882777FD8095982F0E9403439B01AC0171
:103F20006AA17BA18CA19DA10E9423456093EB22F5
:103F30007093EC228093ED229093EE22B8018827B3
:103F400077FD8095982F0E9403437B018C01C3016C
:103F5000B201A80197010E9468426093EF2270931A
:103F6000F0228093F1229093F222C601B501A801BC
:103F700097010E9468426093F3227093F422809329
:103F8000F5229093F62269817A818B819C810E942F
:103F900086455B016C01F401EE0FFF1FEE0FFF1F62
:103FA000E959FE4D61817281838194810E940343AE
:103FB000F401EE0FFF1FE80DF91D03E0EE0FFF1FE8
:103FC0000A95E1F7E05BFD4D21A132A143A154A187
:103FD0000E9468427B018C01C601B5012D813E81A2
:103FE0004F8158850E9423459B01AC01C801B70150
:103FF0000E94C1416093DB227093DC228093DD221A
:104000009093DE2269817A818B819C810E94654236
:104010005B016C01F101EE0FFF1FEE0FFF1FE9596D
:10402000FE4D61817281838194810E940343F1017D
:10403000EE0FFF1FE20DF31DA3E0EE0FFF1FAA9589
:10404000E1F7E05BFD4D21A132A143A154A10E9403
:1040500068427B018C01C601B5012D813E814F81F3
:1040600058850E9423459B01AC01C801B7010E94FD
:10407000C1416093DF227093E0228093E12290930C
:10408000E222E8A1F9A1EE0FFF1FEE0FFF1F8F0143
:1040900002541D4DE959FE4D6181728183819481E5
:1040A0000E9403432091A1223091A2224091A32299
:1040B0005091A4220E946842D8011D966D937D9371
:1040C0008D939C93509781E08093BE220E94DF1DC8
:1040D0009C01C9012896CDBFDEBFCF91DF911F9112
:1040E0000F91FF90EF90DF90CF90BF90AF909F9097
:1040F0008F907F906F905F904F903F902F9008959A
:104100002F923F924F925F926F927F928F929F92E7
:10411000AF92BF92CF92DF92EF92FF920F931F93D5
:10412000DF93CF93CDB7DEB72897CDBFDEBF6983CE
:104130007A838B839C8329013A01ED82FE820F836F
:1041400018872E8C3F8C6093E3227093E422809337
:10415000E5229093E622E092E722F092E822009393
:10416000E9221093EA222093F7223093F822409319
:10417000F9225093FA22A092FB22B092FC22C09224
:10418000FD22D092FE228AA19BA1ACA1BDA1809369
:10419000EB229093EC22A093ED22B093EE22AEA1FD
:1041A000BFA1A093C322B093C4228092C522909253
:1041B000C6222092C7223092C822E8A1F9A1E0933A
:1041C000C922F093CA22CA01B901A80197010E942D
:1041D00023457B018C01C601B5010E94D04297FFA7
:1041E00007C090958095709561957F4F8F4F9F4F39
:1041F0000E9403439B01AC01C801B7010E945E44C9
:104200007B018C016093D7227093D8228093D922AE
:104210009093DA222DEC3CEC4CE45DE30E94614289
:1042200088231CF423E130E0C7C1C801B701209105
:1042300052223091532240915422509155220E9493
:1042400068420E944E420E94D0428B016093BF227E
:104250007093C0222EA13FA1232BB9F0B80188276B
:1042600077FD8095982F0E9403439B01AC016AA1C2
:104270007BA18CA19DA10E9423456093EB227093AA
:10428000EC228093ED229093EE22B801882777FDEF
:104290008095982F0E9403437B018C01C301B201DA
:1042A000A80197010E9468426093EF227093F02268
:1042B0008093F1229093F222C601B501A8019701E3
:1042C0000E9468426093F3227093F4228093F52257
:1042D0009093F62269817A818B819C810E94864528
:1042E0005B016C01F401EE0FFF1FEE0FFF1FE95998
:1042F000FE4D61817281838194810E940343F401A8
:10430000EE0FFF1FE80DF91D23E0EE0FFF1F2A95AA
:10431000E1F7E05BFD4D21A132A143A154A10E9430
:1043200068427B018C01C601B5012D813E814F8120
:1043300058850E9423459B01AC01C801B7010E942A
:10434000C1416093DB227093DC228093DD22909345
:10435000DE2269817A818B819C810E9465425B01AA
:104360006C01F101EE0FFF1FEE0FFF1FE959FE4D2B
:1043700061817281838194810E940343F101EE0F78
:10438000FF1FE20DF31DB3E0EE0FFF1FBA95E1F73B
:10439000E05BFD4D21A132A143A154A10E946842DE
:1043A0007B018C01C601B5012D813E814F8158856D
:1043B0000E9423459B01AC01C801B7010E94C14185
:1043C0006093DF227093E0228093E1229093E222B7
:1043D000E8A1F9A1EE0FFF1FEE0FFF1F8F0102549E
:1043E0001D4DE959FE4D61817281838194810E9446
:1043F00003432091A1223091A2224091A322509107
:10440000A4220E946842D8011D966D937D938D93DE
:104410009C9350971092C1221092C222BFC060910B
:10442000E3227091E4228091E5229091E62220918E
:10443000EF223091F0224091F1225091F2220E941D
:10444000C2417B018C01CB01D8018093E322909380
:10445000E422A093E522B093E622B701C8010E94AE
:1044600086458090E7229090E822A090E922B090C3
:10447000EA22C090C522D090C622CC0CDD1CCC0C08
:10448000DD1CEEEBF2E2CE0EDF1EA50194010E94D0
:1044900023459B01AC016091DB227091DC2280916D
:1044A000DD229091DE220E94C241D6011D966D93BD
:1044B0007D938D939C935097B701C8010E946542EC
:1044C0000091C7221091C822000F111F000F111F69
:1044D00002541D4DA50194010E9423459B01AC018E
:1044E0006091DF227091E0228091E1229091E2229E
:1044F0000E94C241F801658776878787908B00917B
:10450000C9221091CA22000F111F000F111F02545F
:104510001D4DD8011D966D917D918D919C91509767
:104520002091F3223091F4224091F5225091F6220D
:104530000E94C241F801658776878787908B6091DA
:10454000CB227091CC228091CD229091CE222091CD
:10455000CF223091D0224091D1225091D222E090AE
:10456000D322F090D4220091D5221091D622A0908F
:10457000EB22B090EC22C090ED22D090EE22809001
:10458000C3229090C4220E94901C8091C1229091DD
:10459000C22201968093C1229093C2222091C1220F
:1045A0003091C2228091BF229091C022821793073E
:1045B0000CF035CF20E030E0C9012896CDBFDEBF3A
:1045C000CF91DF911F910F91FF90EF90DF90CF90EF
:1045D000BF90AF909F908F907F906F905F904F9023
:1045E0003F902F9008952F923F924F925F926F923B
:1045F0007F928F929F92AF92BF92CF92DF92EF9273
:10460000FF920F931F93DF93CF93CDB7DEB76A97D7
:10461000CDBFDEBF19012A01AD8ABE8ACF8AD88EEE
:10462000898E9A8E2091712230917222409173224C
:1046300050917422298B3A8B4B8B5C8B0E942345C3
:104640000E94F3443B014C016092742170927521E9
:1046500080927621909277218091892290918A226E
:10466000A0918B22B0918C228D879E87AF87B88BCB
:10467000C201B1012D853E854F8558890E94234591
:104680000E94F3445B016C01A0927821B0927921E1
:10469000C0927A21D0927B212091A1223091A22236
:1046A0004091A3225091A42229873A874B875C87A7
:1046B000C801B7010E9423450E94F3449B01AC014D
:1046C00020937C2130937D2140937E2150937F2144
:1046D0008091682190916921A0916A21B0916B210C
:1046E00084017301E81AF90A0A0B1B0BED82FE82A2
:1046F0000F831887E0928021F0928121009382211C
:104700001093832180916C2190916D21A0916E2155
:10471000B0916F2186017501E81AF90A0A0B1B0B8B
:10472000E982FA820B831C83E0928421F092852136
:10473000009386211093872180917021909171219F
:10474000A0917221B091732119012A01281A390A06
:104750004A0A5B0A209288213092892140928A215C
:1047600050928B21D801C7010D811E812F81388580
:10477000800F911FA21FB31F820D931DA41DB51D95
:104780000097A105B10519F424E130E086C0298D18
:104790003A8D232B59F060EC71EE84E69CE42D8970
:1047A0003E894F89588D0E9468424EC06D817E813E
:1047B0008F8198850E94034329893A894B895C89B6
:1047C0000E9468420E94CE453B014C0169817A817A
:1047D0008B819C810E9403432D853E854F8558899E
:1047E0000E9468420E94CE455B016C01C201B1018A
:1047F0000E94034329853A854B855C850E94684267
:104800000E94CE457B018C01C401B301A601950134
:104810000E94C241A80197010E94C2410E94904596
:104820006093902170939121809392219093932192
:104830002D893E894F89588D0E94684220E034E2DC
:1048400044E759E40E9423450E94F34460938C217D
:1048500070938D2180938E2190938F21A0908C2135
:10486000B0908D21C0908E21D0908F216D817E815E
:104870008F81988529813A814B815C818201710108
:104880000E94422DE8E6F1E2DF011C968CE00D90DB
:1048900001928150E1F720E030E0C9016A96CDBF76
:1048A000DEBFCF91DF911F910F91FF90EF90DF90CE
:1048B000CF90BF90AF909F908F907F906F905F90C0
:1048C0004F903F902F900895109267211092BE2232
:1048D0000E94372D0E946725F7CFE0E6F6E080E4DE
:1048E000818380E88183089597FD05C080E8E0E634
:1048F000F6E0858304C080E8E0E6F6E0868380E4A5
:10490000E0E6F6E08583089580E4E0E6F6E086835D
:104910000895CF93DF9310920D2210920B221092E4
:104920000C2280E096E080931C2290931D2280EA66
:1049300096E080932C2290932D2280E896E080933D
:104940003C2290933D2280E696E080934C22909307
:104950004D2280E098E080931E2290931F2280E0F9
:1049600099E080932E2290932F2280E09AE080930A
:104970003E2290933F2280E09BE080934E229093D2
:104980004F22C0E6D2E2AAE1B2E23FE324E093E0A4
:1049900088818C931296ED91FC9113973083129637
:1049A000ED91FC91139714821296ED91FC9113975F
:1049B0008481886184831296ED91FC9113972583FD
:1049C0001496ED91FC91159710821496ED91FC913F
:1049D000159711821496ED91FC9115979683689620
:1049E000509682E2C03CD80799F6DF91CF910895A6
:1049F000E82FF0E084E0EE0FFF1F8A95E1F7E55F16
:104A0000FD4D6787089520E132E280E090E1A0E06B
:104A1000B0E08093102290931122A0931222B093C1
:104A20001322E0911E22F0911F2280E090E186A3E4
:104A300097A341E0408380E098E0A0E0B0E080935D
:104A4000202290932122A0932222B0932322E0914E
:104A50002E22F0912F2280E090E286A397A340833C
:104A600080E096E0A0E0B0E0809330229093312285
:104A7000A0933222B0933322E0913E22F0913F2264
:104A800080E090E386A397A3408380E094E0A0E0D9
:104A9000B0E08093402290934122A0934222B093B1
:104AA0004322D901DE96ED91FC91DF9780E090E4FE
:104AB00086A397A3408323503040F90180818F6003
:104AC00080830895F8940E94372D78940895F8947F
:104AD000E0911E22F0911F221082E0912E22F0918F
:104AE0002F221082E0913E22F0913F221082E0912D
:104AF0004E22F0914F2210820E94372D10920D22EB
:104B000078940895CF92DF92EF92FF920F931F93C4
:104B1000CF93DF9380910B22882309F032C181E08B
:104B200080930B2280910D22882309F028C10E94D6
:104B3000F42C80930E2290930F22892B09F41FC12D
:104B400060E172E200E010E094E0C92E82E0D82E2D
:104B5000F02EE12EDB011E96ED91FC911F97108245
:104B6000C0910E22D0910F22C801FC01B3E0EE0FDC
:104B7000FF1FBA95E1F7880F991FE80FF91FEC0F97
:104B8000FD1F80819181A281B3810097A105B105AC
:104B900009F4A6C0C8019C01F3E0220F331FFA9567
:104BA000E1F7880F991F280F391FC20FD31F89857E
:104BB000FB018387E0910E22F0910F22C8019C0136
:104BC00053E0220F331F5A95E1F7880F991F280FE2
:104BD000391FE20FF31F9085DB011A968C911A970B
:104BE0001C96ED91FC911D97981711F0D58201C08C
:104BF000D68240910E2250910F228F2D9E2DFC01C6
:104C000033E0EE0FFF1F3A95E1F7880F991FE80F89
:104C1000F91FE40FF51F80819181A281B381FB010F
:104C200080839183A283B3838F2D9E2DFC01B3E0FB
:104C3000EE0FFF1FBA95E1F7880F991FE80FF91FD4
:104C4000E40FF51F86819781DB0116968D939C9367
:104C500017978F2D9E2DFC0133E0EE0FFF1F3A9525
:104C6000E1F7880F991FE80FF91FE40FF51F868100
:104C7000978118968D939C9319978F2D9E2DFC01EB
:104C800033E0EE0FFF1F3A95E1F7880F991FE80F09
:104C9000F91FE40FF51F8481958114968D939C93E1
:104CA00015971E96ED91FC911F978F2D9E2D9C01BF
:104CB000B3E0220F331FBA95E1F7880F991F280F31
:104CC000391F420F531FDA0114968D919C9115974D
:104CD00086A397A3DB011C96ED91FC911D97C682DC
:104CE0000F5F1F4F605F7F4F0330110509F030CF1A
:104CF00010920D228091102290911122A0911222E7
:104D0000B09113220097A105B10559F0E0911E2240
:104D1000F0911F2281E0808380910D228860809332
:104D20000D228091202290912122A0912222B091E7
:104D300023220097A105B10559F0E0912E22F091B0
:104D40002F2281E0808380910D22846080930D2248
:104D50008091302290913122A0913222B091332261
:104D60000097A105B10559F0E0913E22F0913F2254
:104D700081E0808380910D22826080930D221092C9
:104D80000B22DF91CF911F910F91FF90EF90DF9059
:104D9000CF90089510920B220E94822508951F92B1
:104DA0000F920FB60F920BB60F9211242F933F93D1
:104DB0004F935F936F937F938F939F93AF93BF9323
:104DC000EF93FF938091482290914922019780931D
:104DD000482290934922892BA1F5E0E6F6E081E094
:104DE00085838091402290914122A0914222B091EE
:104DF00043220197A109B109809340229093412257
:104E0000A0934222B09343220097A105B10569F413
:104E10001092000B84E0858380910D228E7F809319
:104E20000D22882311F40E948225809146229091C0
:104E30004722809348229093492281E0E0E6F6E001
:104E40008683FF91EF91BF91AF919F918F917F9159
:104E50006F915F914F913F912F910F900BBE0F90EB
:104E60000FBE0F901F9018951F920F920FB60F92C2
:104E70000BB60F9211242F933F934F935F936F9331
:104E80007F938F939F93AF93BF93EF93FF93809103
:104E900038229091392201978093382290933922B9
:104EA000892BA1F5E0E8F6E081E08583809130224E
:104EB00090913122A0913222B09133220197A10921
:104EC000B1098093302290933122A0933222B09383
:104ED00033220097A105B10569F41092000A84E01D
:104EE000858380910D228D7F80930D22882311F47C
:104EF0000E94822580913622909137228093382219
:104F00009093392281E0E0E8F6E08683FF91EF910B
:104F1000BF91AF919F918F917F916F915F914F91D1
:104F20003F912F910F900BBE0F900FBE0F901F90CF
:104F300018951F920F920FB60F920BB60F92112475
:104F40002F933F934F935F936F937F938F939F9391
:104F5000AF93BF93EF93FF938091282290912922E2
:104F600001978093282290932922892BA1F5E0EACA
:104F7000F6E081E085838091202290912122A0910A
:104F80002222B09123220197A109B1098093202206
:104F900090932122A0932222B09323220097A1056F
:104FA000B10569F41092000984E0858380910D2297
:104FB0008B7F80930D22882311F40E94822580919B
:104FC000262290912722809328229093292281E003
:104FD000E0EAF6E08683FF91EF91BF91AF919F9158
:104FE0008F917F916F915F914F913F912F910F9092
:104FF0000BBE0F900FBE0F901F9018951F920F922F
:105000000FB60F920BB60F9211242F933F934F932D
:105010005F936F937F938F939F93AF93BF93EF9320
:10502000FF93809118229091192201978093182262
:1050300090931922892BD1F580911B22882321F48A
:1050400081E0E0E0F6E085838091102290911122CA
:10505000A0911222B09113220197A109B109809366
:10506000102290931122A0931222B0931322009742
:10507000A105B10579F41092000884E0E0E0F6E0C3
:10508000858380910D22877F80930D22882311F4E0
:105090000E948225809116229091172280931822D7
:1050A0009093192281E0E0E0F6E08683FF91EF9192
:1050B000BF91AF919F918F917F916F915F914F9130
:1050C0003F912F910F900BBE0F900FBE0F901F902E
:1050D0001895E0EAF0E08281806498ED94BF8283C5
:1050E0000895E0EAF0E082818F7B98ED94BF82839F
:1050F000089597E1899FF0011124E854FB4D64FF66
:1051000005C08081918181608083918365FF05C0A6
:105110008081918182608083918366FF05C0808158
:10512000918184608083918367FF05C08081918134
:105130008B7F8083918370FF05C080819181806126
:105140008083918371FF05C0808191818F7E8083F0
:10515000918372FF05C080819181806280839183F9
:1051600073FF05C0808191818F7D8083918374FF5F
:1051700005C08081918180648083918375FF05C023
:10518000808191818F7B8083918376FF05C08081B0
:10519000918180688083918377FF05C080819181B0
:1051A0008F778083918380E090E0089590E027E1FD
:1051B00030E0829FF001839FF00D929FF00D11244B
:1051C000E854FB4D8389948980934E2690934F2613
:1051D000089590E027E130E0829FF001839FF00D79
:1051E000929FF00D1124E854FB4D8389948980939C
:1051F000502690935126089590E027E130E0829F59
:10520000F001839FF00D929FF00D1124E854FB4DA7
:105210008389948980935226909353260895462F2C
:10522000883018F027E030E015C0282F30E087E103
:1052300090E0289FF001299FF00D389FF00D112478
:10524000E854FB4D638974890384F485E02D842F31
:1052500019959C01C9010895883018F027E030E0C5
:1052600014C0282F30E087E190E0289FF001299FAB
:10527000F00D389FF00D1124E854FB4D258536853F
:1052800083899489F90119959C01C9010895883091
:1052900018F027E030E014C0282F30E087E190E0DC
:1052A000289FF001299FF00D389FF00D1124E8543C
:1052B000FB4D0784F089E02DCB01642F19959C01EB
:1052C000C9010895DF92EF92FF920F931F93CF933E
:1052D000DF9390E0E7E1F0E08E9FD0018F9FB00D6B
:1052E0009E9FB00D1124A854BB4D0F2EF7E1DF2E69
:1052F000F02DED011992DA94E9F717966D937C93EE
:10530000189719964D935C931A971B962D933C937F
:105310001C971D960D931C931E971F96ED92FC9261
:105320005097880F991FFC0143E0EE0FFF1F4A952D
:10533000E1F7E81BF90BE059FA4D5396ED93FC9316
:105340005497208731870287138783E083831486ED
:105350001586DF91CF911F910F91FF90EF90DF9015
:1053600008950E946B350E9459340E947B368091CB
:10537000E52590E027E130E0829FF001839FF00D6A
:10538000929FF00D1124E854FB4D838994898093FA
:105390004E2690934F2680935026909351268093CB
:1053A0005226909353260F920F928FE896E0EDB716
:1053B000FEB7818392830E948E490F900F900895CB
:1053C000982FE0ECF1E08091CF0187FDFACF262FF6
:1053D00030E02F713070892F90E045E0880F991FE1
:1053E0004A95E1F7282B392B2093C001832F8F7129
:1053F0008183128286E08287EF93FF930F932F932E
:10540000EBECF1E008ED21E004BF20832F910F9138
:10541000FF91EF918091C4010895682F6F7155E05D
:10542000969587955A95E1F70E94E02908958F9205
:105430009F92AF92BF92CF92DF92FF920F931F93F2
:10544000CF93DF934C015B016A018B01EA01FF24DA
:1054500018C0C8010E940D2AFF2019F021E030E099
:1054600008C02F2D332727FD30952227330F221F09
:1054700033270F5F1F4FF82EF20EF40181934F0177
:105480002197209731F7C6018A0D9B1D0E940D2A96
:1054900020E030E0F81611F421E030E0C901DF919E
:1054A000CF911F910F91FF90DF90CF90BF90AF9061
:1054B0009F908F9008958091CF0187FDFCCF089534
:1054C0008091CF0187FDFCCF8091CF0181FF12C079
:1054D00086E3E0ECF1E08287EF93FF930F932F9345
:1054E000EBECF1E008ED21E004BF20832F910F9158
:1054F000FF91EF910895DF92EF92FF920F931F9328
:10550000E82E062FD42E0E94602AE0ECF1E083E31F
:10551000828710E00F711070FF2475E0EE0CFF1C05
:105520007A95E1F70E291F290083812F8F718183DE
:105530001282D48285E38287EF93FF930F932F9398
:10554000EBECF1E008ED21E004BF20832F910F91F7
:10555000FF91EF911F910F91FF90EF90DF900895D1
:10556000462F682F6F71E5E096958795EA95E1F7EC
:105570000E947B2A08958F929F92AF92BF92CF9202
:10558000DF92EF92FF920F93DF93CF930F920F92E0
:10559000CDB7DEB75C016B017A014A0100E01EC0A5
:1055A000002319F021E030E008C0202F332727FD29
:1055B00030952227330F221F3327F60161916F01A7
:1055C000062F020F9C012F5F3F4F29833A830E94D1
:1055D000B02A08948108910889819A8181149104E4
:1055E000F9F6C7018A0D9B1D602F0E94B02A0F900B
:1055F0000F90CF91DF910F91FF90EF90DF90CF90C0
:10560000BF90AF909F908F900895982FE0ECF1E0BD
:105610008091CF0187FDFACF83E382879093C00109
:105620001182128264830895DC01E0ECF1E0809144
:10563000CF0187FDFACF83E382871182128290E047
:105640009093C0018D9184839F5F9032C9F7089534
:10565000982FE0ECF1E08091CF0187FDFACF892F00
:1056600090E0A5E0880F991FAA95E1F78093C0010B
:10567000892F8F718183128285E38287EF93FF9355
:105680000F932F93EBECF1E008ED21E004BF2083B2
:105690002F910F91FF91EF910895982FE0ECF1E099
:1056A0008091CF0187FDFACF892F90E0B5E0880F78
:1056B000991FBA95E1F78093C001892F8F7181837B
:1056C000128282E38287EF93FF930F932F93EBEC89
:1056D000F1E008ED21E004BF20832F910F91FF91AD
:1056E000EF910895982FE0ECF1E08091CF0187FDD4
:1056F000FACF892F90E025E0880F991F2A95E1F7CE
:105700008093C001892F8F718183128284E3828705
:10571000EF93FF930F932F93EBECF1E008ED21E073
:1057200004BF20832F910F91FF91EF9108958091F5
:10573000CF0187FDFCCF80E3E0ECF1E08287EF93BF
:10574000FF930F932F93EBECF1E008ED21E004BF02
:1057500020832F910F91FF91EF9108958091E5257E
:105760008093E425833021F48091E1258E7F03C06E
:105770008091E12581608093E1250895843028F4AB
:10578000823028F5882319F102C08B3001F1E82F0F
:10579000F0E0EE0FFF1FEE5AF54E2591349100D048
:1057A00000D0EDB7FEB731968CE79AE1ADB7BEB742
:1057B00011968D939C931297228333836483758310
:1057C0000E948E498DB79EB706968DBF9EBF0895E5
:1057D0008091E025882309F58091E1258823D1F087
:1057E0008091E325E82FF0E0EE0FFF1FEB5FF64E10
:1057F0002591349100D00F9289E99AE1EDB7FEB777
:1058000081839283238334830E948E490F900F906B
:105810000F900F9081E08093E025089581E08093C0
:10582000E525E5EEF5E28093E425349780818160FB
:1058300080831092E3251092E02500D00F9281EB37
:105840009AE1EDB7FEB78183928387EA9AE1838379
:1058500094830E948E490F900F900F900F900E949A
:10586000E82B0895CF93DF93EC018091E325882303
:1058700009F043C0888190E00E94E1488634910598
:1058800041F18734910584F483349105E1F0843447
:10589000910534F488329105A1F0CF9761F513C0DA
:1058A0008434910541F513C08F3491053CF48D3457
:1058B00091053CF487349105F1F403C08C359105D2
:1058C000D1F482E001C081E08093E32516C083E03B
:1058D000FBCF88E39BE00E94BD3583E08093E42505
:1058E0008091E1258E7F8093E12582E08093E325FE
:1058F00020E030E01DC01092E3251092E225809157
:10590000E325823041F0833051F0813069F4CE01DB
:105910000E94321907C0CE010E94B71503C0CE0104
:105920000E94EC2C8093E2258091E225282F30E024
:10593000C901DF91CF9108958091E42567EE75E26A
:1059400040E50E9447298093E225882331F487EEC1
:1059500095E20E94322C8093E2258091E2258430EA
:1059600018F48230C0F415C0853029F08B3089F4EA
:105970001092E3250EC00F920F9284E89AE1EDB7E2
:10598000FEB7818392830E948E490F900F900E94F0
:10599000AE2B1092E0258091E22590E008950E94C0
:1059A00082250E94AF1B009789F0029709F40895A1
:1059B0000E94DF1D009751F0029709F408950E949C
:1059C0009C2C009719F0029719F408951092E02585
:1059D0000E94E82B0895089580E090E008951092C9
:1059E000AC211092AD2108959091AC218091AD2110
:1059F000981719F420E030E017C09091AD218EE1A6
:105A0000989F9001112420553E4D2093AE21309354
:105A1000AF218091AD218F5F8093AD218091AD2129
:105A2000833010F01092AD21C90108959091AC21FE
:105A30009F5F933008F090E08091AD2120E08917BE
:105A400009F421E0822F08950BC080914800816005
:105A5000809348008895809148008E7F809348000D
:105A60009091AD218091AC21981779F70895F89421
:105A70008091AC218093AD211092AE211092AF2184
:105A8000789408952F923F924F925F926F927F92F7
:105A90008F929F92AF92BF92CF92DF92EF92FF923E
:105AA0000F931F93DF93CF93CDB7DEB72B97CDBF67
:105AB000DEBF1B012C012A833B834C835D83EE8276
:105AC000FF82088719878091AC218F5F898383309B
:105AD00008F019828091AD219981891711F48AE02B
