:100000000C94180E0C94390E0C94390E0C94390E75
:100010000C94390E0C94390E0C94390E0C94390E44
:100020000C94390E0C94390E0C94390E0C94390E34
:100030000C94390E0C94390E0C9467250C94390EDF
:100040000C94390E0C94390E0C94390E0C94390E14
:100050000C94390E0C94390E0C94390E0C94390E04
:100060000C94390E0C94A2270C9420280C94390E71
:100070000C94390E0C94390E0C94390E0C94390EE4
:100080000C94390E0C94390E0C94390E0C94390ED4
:100090000C94390E0C94390E0C94390E0C94390EC4
:1000A0000C94390E0C94390E0C94390E0C94390EB4
:1000B0000C94390E0C94390E0C94390E0C949D242A
:1000C0000C94390E0C94390E0C94390E0C94390E94
:1000D0000C94390E0C94390E0C94390E0C94390E84
:1000E0000C94390E0C94390E0C94390E0C94390E74
:1000F0000C94390E0C94390E0C94390E0C94390E64
:100100000C94390E0C94390E0C94390E0C94390E53
:100110000C94390E0C94390E0C94390E0C94390E43
:100120000C94390E0C94390E0C94390E0C94390E33
:100130000C94390E0C9402250C94390E0C94390E43
:100140000C94390E0C94390E0C94390E0C94390E13
:100150000C94390E0C94390E0C94390E0C94390E03
:100160000C94390E0C94390E0C94390E0C94390EF3
:100170000C94390E0C94390E0C94390E0C94390EE3
:100180000C94390E0C94390E0C94390E0C94390ED3
:100190000C94390E0C94390E0C94390E0C94390EC3
:1001A0000C94390E0C94390E0C94390E0C94390EB3
:1001B0000C9438240C94390E0C94390E0C94390E8E
:1001C0000C94390E0C94390E0C94390E0C94390E93
:1001D0000C94390E0C94390E0C94390E0C94390E83
:1001E0000C94390E0C94390E084AD73B3BCE016E65
:1001F00084BCBFFDC12F3D6C74319ABD56833DDA7E
:100200003D00C77F11BED9E4BB4C3E916BAAAABE8C
:10021000000000803F05A84CCDB2D44EB93836A9B5
:10022000020C50B9918688083CA6AAAA2ABE0000F2
:1002300000803F6E616E00696E6600580059005A7A
:100240000041003B023D023F0241026D6D5F70655F
:10025000725F6172635F7365676D656E74203D20C8
:10026000302E32200A785F7365656B5F737465703A
:10027000735F736563203D2031303030200A795F31
:100280007365656B5F73746570735F736563203D41
:100290002031313030200A7A5F7365656B5F73748B
:1002A0006570735F736563203D2031323030200A02
:1002B000615F7365656B5F73746570735F736563AE
:1002C000203D2031333030200A785F666565645FF9
:1002D00073746570735F736563203D203630302022
:1002E0000A795F666565645F73746570735F7365D3
:1002F00063203D20373030200A7A5F666565645F91
:1003000073746570735F736563203D2038303020EF
:100310000A615F666565645F73746570735F7365BA
:1003200063203D20393030200A785F64656772654C
:10033000655F73746570203D20302E39090A785F3F
:100340006D6D5F726576203D20352E30200A785F16
:100350006D6D5F74726176656C093D2034313020BB
:100360000A7A5F6D6963726F73746570093D20323C
:1003700009200A785F6C6F775F7077725F69646CD1
:1003800065203D2030200A785F6C696D69745F6577
:100390006E61626C653D093000496C6C6567616C2B
:1003A000204172632053746174656D656E743A20E8
:1003B00025730A00466C6F6174696E6720506F691F
:1003C0006E74204572726F723A2025730A00556E62
:1003D0007265636F676E697A656420436F6D6D61E6
:1003E0006E643A2025730A00426164204E756D6286
:1003F000657220466F726D61743A2025730A005150
:1004000075697474696E6720436F6E666967204D05
:100410006F64650A00436F6E66696720436F6E7490
:10042000696E756174696F6E20666F723A2025730C
:100430000A00202873746570735F7065725F6D6D5C
:100440003A2020202025372E3266206D6963726F96
:100450007374657073202F206D696C6C696D6574A1
:100460006572290A0A002020706F6C6172697479C4
:100470003A20202020202020202534642020202005
:10048000313D696E7665727465642C20303D6E6F07
:10049000726D616C0A0020206C6F775F7077725FFD
:1004A00069646C653A2020202025346420202020B7
:1004B000313D656E61626C65642C20303D6469730A
:1004C00061626C65640A0020206C696D69745F6507
:1004D0006E61626C653A2020202025346420202043
:1004E00020313D656E61626C65642C20303D64692D
:1004F0007361626C65640A0020206D6D5F747261C7
:1005000076656C3A2020202020202025372E326668
:10051000206D696C6C696D657465727320746F749D
:10052000616C2074726176656C0A0020206D6D5FCD
:100530007265766F6C7574696F6E3A20202025376E
:100540002E3266206D696C6C696D657465727320FE
:100550002F207265766F6C7574696F6E0A002020AB
:100560006465677265655F7065725F737465703A24
:100570002025372E32662064656772656573202FEB
:100580002073746570202877686F6C6520737465BC
:100590007073290A0020206D6963726F737465702F
:1005A000733A202020202020253464202020206D34
:1005B0006963726F7374657073202F2077686F6C36
:1005C0006520737465700A002020666565645F733A
:1005D000746570735F7365633A202025346420204E
:1005E00020207374657073202F207365636F6E64B1
:1005F000202877686F6C65207374657073290A0012
:1006000020207365656B5F73746570735F736563DA
:100610003A202025346420202020737465707320D4
:100620002F207365636F6E64202877686F6C652078
:100630007374657073290A0025532041786973200B
:10064000436F6E66696775726174696F6E2056617B
:100650006C7565730A00202864656661756C745F4B
:10066000666565645F726174653A202025352E33B6
:1006700066206D6D202F207365636F6E64290A0AF2
:1006800000202864656661756C745F7365656B5FD7
:10069000726174653A202025352E3366206D6D20F9
:1006A0002F207365636F6E64290A0020206D6D5FD3
:1006B0007065725F6172635F7365676D656E743AD2
:1006C0002025352E3366206D6D202F207365676DD4
:1006D000656E740A00472D636F6465204D6F646515
:1006E0006C20436F6E66696775726174696F6E2006
:1006F00056616C756573202D2D2D0A000A2A2A2A51
:100700002A2A20434F4E46494755524154494F4E9D
:10071000205B76657273696F6E2025645D202A2ADE
:100720002A2A0A0000CF673322211F1B1301010070
:1007300000000000F0E0D0C010010A0A2A2A2A2A8C
:1007400020586D65676120494F2073756273797316
:1007500074656D20696E697469616C697A6564207D
:100760002A2A2A2A0A00E229B729B729292AB729D9
:10077000B729B729B729152AB729E229B729B729EF
:10078000E229442A4D2AB7293B2AB729322AB72918
:10079000B729B729B729292AB729B729292AB72973
:1007A000B729B729B729B729B729B729B729B72949
:1007B000B729B729B729B729B729B729B729B72939
:1007C000B729B729B729B729B729B729B729B72929
:1007D000B729B729B729B729B729B7290B2AB729C4
:1007E000B729B729B729B729B729B729B729B72909
:1007F000B729B729B729B729B729B729B729B729F9
:10080000B729B729B729B729B729B729B729B729E8
:10081000B729B729B729B729B729B729B729B729D8
:10082000B729B729B729B729B729B729B729B729C8
:10083000B729B729B729B729B729B729B729B729B8
:10084000B729B729B729B729B729B729B729B729A8
:10085000B729B729B729B729B729B729B729B72998
:10086000B729B729152A3629262926295B292629B9
:1008700026292629262955292629362926292629C1
:1008800036296D29732926296729262961292629D0
:100890002629262926295B29262926295B29262976
:1008A00026292629262926292629262926292629D0
:1008B00026292629262926292629262926292629C0
:1008C00026292629262926292629262926292629B0
:1008D0002629262926292629262926294B2926297B
:1008E0002629262926292629262926292629262990
:1008F0002629262926292629262926292629262980
:10090000262926292629262926292629262926296F
:10091000262926292629262926292629262926295F
:10092000262926292629262926292629262926294F
:10093000262926292629262926292629262926293F
:10094000262926292629262926292629262926292F
:10095000262926292629262926292629262926291F
:1009600026292629552967312066333333207830EC
:100970002079300A78312079300A78312079310AAB
:1009800078302079310A78302079300A783120792E
:10099000300A78312079310A78302079310A78307C
:1009A0002079300A78312079300A78312079310A7B
:1009B00078302079310A78302079300A78312079FE
:1009C000300A78312079310A78302079310A78304C
:1009D0002079300067312066333333207830207936
:1009E000300A78322079300A78322079320A783029
:1009F0002079320A7830207930006731206633332D
:100A00003320782D313020792D350A783130207916
:100A100031300A7830207931300A78302079300A44
:100A200078352079350067312066333333207830CC
:100A30002079350A6733206633333320783130200C
:100A40007935206930206A350A6733207835207976
:100A5000313020692D35206A300A67332078302004
:100A60007935206930206A2D350A673320783520A2
:100A70007930206935206A300A6731206633333394
:100A800020783130207930006731206633333320CD
:100A90007831302079300A783130207931300A7855
:100AA00030207931300A78302079300A78350A6779
:100AB0003320783130207935206930206A350A6753
:100AC000332078352079313020692D35206A300A7D
:100AD0006733207830207935206930206A2D350A37
:100AE0006733207835207930206935206A300A67ED
:100AF000312066333333207831302079300067314C
:100B0000206633333320783130302079300A783121
:100B1000303020793130300A783020793130300A65
:100B200078302079300A7835300A673320783130D0
:100B30003020793530206930206A35300A6733201B
:100B4000783530207931303020692D3530206A30C9
:100B50000A673320783020793530206930206A2DBB
:100B600035300A67332078353020793020693530C8
:100B7000206A30006731206633303020782E3520EF
:100B800079300A67327831593049304A300A673251
:100B900078312E35593049304A300A673278325927
:100BA0003049304A300A673278322E355930493070
:100BB0004A300A67327833593049304A300A67324E
:100BC00078332E35593049304A300A6732783459F3
:100BD0003049304A300A673278342E35593049303E
:100BE0004A300A67327835593049304A3000673127
:100BF00020663333332078302079300A6733207809
:100C0000353020793530206930206A353000673042
:100C10002078313020793230207A33300A67302022
:100C2000783020793231207A2D33342E32006730FB
:100C30002078313020793230207A34300A67302001
:100C40007830207930207A300A67302078313020AF
:100C5000793230207A34300A673020783020793089
:100C6000207A3000673120663330302078312079A7
:100C700032207A330A6731207832207934207A366C
:100C80000A67312078343020792D3637207A2D319B
:100C90003200673120663330302078312079310AD4
:100CA000673220663332302078313031207931306C
:100CB00031207235300A0067320A004739300A465F
:100CC0003332300A473120582D32372E37383134FD
:100CD000205931312E33323232200A473120582DFB
:100CE00031332E373935322059312E3939383033B6
:100CF000200A473120582D32372E373831342059C9
:100D000031312E33323232200A473120582D3237DA
:100D10002E373831342059312E3939383033200AC2
:100D2000473120582D32372E373831342059313160
:100D30002E33323232200A473120582D32372E37A7
:100D40003831342059312E3939383033200A47317F
:100D500020582D31332E373935322059312E39393B
:100D6000383033200A473120582D31332E3739356A
:100D700032205931312E33323232200A4731205855
:100D80002D31332E373935322059312E393938301B
:100D900033200A473120582D31302E383035352058
:100DA0005932312E31323139200A473120582D3114
:100DB000312E33393631205931392E3735343820F8
:100DC0000A473120582D31312E35353820593137E9
:100DD0002E383738200A473120582D31302E3738F9
:100DE0003134205931352E39323032200A47312002
:100DF000582D392E3932333936205931342E393085
:100E00003039200A473120582D382E3132383039C8
:100E1000205931332E38303037200A473120582DB1
:100E2000362E3235313239205931332E3633383877
:100E3000200A473120582D342E383033323420598F
:100E400031332E39383636200A473120582D332E8B
:100E50003237343235205931352E32373238200A84
:100E6000473120582D322E36383336372059313617
:100E70002E3634200A473120582D322E3532313863
:100E800032205931382E35313638200A4731205832
:100E90002D332E3239383337205932302E3437340F
:100EA00035200A473120582D342E3135353834203D
:100EB0005932312E34393338200A473120582D35F4
:100EC0002E3935313731205932322E3539343120EF
:100ED0000A473120582D372E3832383520593232D2
:100EE0002E37353539200A473120582D392E3237E3
:100EF000363536205932322E34303831200A4731D7
:100F000020582D31302E38303535205932312E31A0
:100F1000323139200A47312058342E3237353736AE
:100F2000205931382E373436200A47312058313293
:100F30002E32313033205931372E373838200A4796
:100F400031205831322E33363939205931392E314A
:100F5000313034200A4731205831312E3836383478
:100F6000205932302E35313237200A47312058315E
:100F7000312E323837205932312E32353337200A6C
:100F80004731205831302E30343434205932322E0B
:100F900030373436200A47312058382E3036303733
:100FA00037205932322E33313431200A473120581C
:100FB000362E3635383533205932312E38313235E8
:100FC000200A47312058352E3137363435205932F2
:100FD000302E36343938200A47312058342E3237F3
:100FE000353736205931382E373436200A473120EC
:100FF00058342E31313631205931372E3432333591
:10100000200A47312058342E3533373833205931B0
:10101000352E33363031200A47312058352E3730BF
:10102000303539205931332E383738200A473120AE
:1010300058362E3934333137205931332E30353745
:1010400032200A47312058382E393236382059316B
:10105000322E38313737200A4731205831302E337D
:101060003239205931332E33313932200A47312079
:101070005831312E38313131205931342E34383213
:10108000200A4731205832332E3635303920593135
:10109000342E393531200A4731205831342E383634
:1010A00038372059372E3830353039200A4731202B
:1010B0005831332E373339322059362E30323734C7
:1010C00035200A4731205831342E303633332059F9
:1010D000342E35373339200A4731205831342E39F0
:1010E00030342059332E35343037200A47312058D8
:1010F00031382E37373337205931332E35353834A0
:10110000200A4731205832312E37313631205939B3
:101110002E3934323134200A4731205831382E37B5
:10112000373337205931332E35353834200A47319B
:10113000205832332E323335322059312E33313567
:101140003333200A4731205831342E30343734209D
:10115000592D302E323733383438200A4731205851
:1011600032332E323335322059312E333135333349
:10117000200A4731205831392E323937362059303C
:101180002E363334323532200A4731205832312E50
:10119000333739392059302E333138353234200A3B
:1011A0004731205832322E3931393420592D302EE2
:1011B000373636393831200A4731205832332E3805
:1011C00030323720592D312E393636200A4731201A
:1011D0005832342E3134333320592D332E393334B1
:1011E00038200A4731205831382E363931332059CA
:1011F0002D31342E36313237200A473120583138DC
:101200002E3635313720592D31332E3132333920B6
:101210000A4731205831382E3030383620592D3198
:10122000312E33353333200A4731205831362E34AE
:1012300038303320592D392E3930343235200A4791
:1012400031205831352E3237333420592D392E3351
:1012500034303436200A4731205831332E3138317A
:101260003320592D392E30393832200A4731205851
:1012700031312E3431303720592D392E3734313237
:1012800035200A4731205831302E32343335205939
:101290002D31302E36363632200A47312058392E3D
:1012A000333937383420592D31322E343736342003
:1012B0000A47312058392E343337343720592D31ED
:1012C000332E39363531200A4731205831302E300F
:1012D00038303520592D31352E37333537200A47F0
:1012E00031205831312E3630383920592D31372EB2
:1012F00031383438200A4731205831322E383135D0
:101300003720592D31372E37343836200A473120CF
:101310005831342E3930373820592D31372E39395C
:101320003039200A4731205831362E3637383420AC
:10133000592D31372E33343738200A473120583170
:10134000372E3834353620592D31362E3432323955
:10135000200A4731205831382E3639313320592D63
:1013600031342E36313237200A47312058342E3668
:101370003132343620592D32322E38313037200A6E
:1013800047312058302E32383934313520592D39F3
:101390002E3530393337200A47312058342E363134
:1013A00032343620592D32322E38313037200A4728
:1013B000312058332E393934383820592D32302ED7
:1013C00039313035200A47312058332E31333938FE
:1013D0003120592D32322E353839200A47312058E4
:1013E000322E303738383720592D32332E363334B9
:1013F00031200A47312058302E31373836383420E2
:10140000592D32342E32353137200A473120582DAC
:10141000312E323933393720592D32342E303320A2
:101420000A473120582D322E393732343820592D81
:1014300032332E313735200A473120582D342E32A1
:101440003233343520592D32312E34383036200A9B
:10145000473120582D342E363335313720592D322F
:10146000302E32313338200A473120582D342E3671
:101470003139333520592D31382E31303738200A63
:10148000473120582D332E373634323820592D31FC
:10149000362E34323933200A473120582D322E3738
:1014A0003033333520592D31352E33383432200A3C
:1014B000473120582D302E38303331353620592DD4
:1014C00031342E37363636200A47312058302E3602
:1014D000363934393620592D31342E3938383320C5
:1014E0000A47312058322E333438303120592D31CB
:1014F000352E38343333200A473120582D31302EE1
:101500003934373920592D31352E38303632200ACA
:10151000473120582D31372E3935353320592D316B
:10152000312E39363239200A473120582D31382EA4
:101530003539353920592D31332E31333038200AA1
:10154000473120582D31382E3635323520592D313E
:10155000342E363139200A473120582D31382E3378
:1015600038383820592D31352E35323332200A475C
:101570003120582D31372E3534313220592D313626
:101580002E37343737200A473120582D31352E3742
:1015900038393320592D31372E37303835200A4726
:1015A0003120582D31342E3330313120592D3137FF
:1015B0002E37363531200A473120582D31322E341E
:1015C00039323720592D31372E32333738200A47F8
:1015D0003120582D31302E3934373920592D3135BD
:1015E0002E38303632200A473120582D31302E33F4
:1015F00030373420592D31342E36333833200A47D2
:101600003120582D392E393330353220592D313291
:101610002E35363632200A473120582D31302E34BF
:1016200035373920592D31302E37353737200A4795
:101630003120582D31312E3330353520592D392E6A
:101640003533333235200A473120582D31332E308F
:1016500035373320592D382E3537323433200A4769
:101660003120582D31342E3534353520592D382E32
:101670003531353833004732310A473930200A478F
:1016800030205A312E35200A473137200A4D332079
:101690005330200A4730205831372E363037352026
:1016A0005933352E36373937200A47312046313005
:1016B000302E30205A2D302E35200A473120463228
:1016C00030302E30205832312E34303638205933D5
:1016D000352E32363534200A4732205832302E31FA
:1016E000383139205933322E3733363320492D39AA
:1016F0002E30353236204A322E38323333200A47E4
:1017000032205831382E30373733205933302E3786
:1017100030373220492D362E3534204A342E363794
:101720003733200A4732205831352E3132343320B6
:101730005932392E3434343420492D342E37343153
:1017400034204A372E30303337200A473220583180
:10175000312E38363737205932392E303835372048
:10176000492D322E39363035204A31312E39313437
:1017700037200A47322058372E3738303320593235
:10178000392E3636393720492D302E33383533202F
:101790004A31312E383939200A47322058342E3315
:1017A00031205933312E363632312049322E3437FA
:1017B0003931204A382E33333638200A4732205800
:1017C000322E31323433205933352E3035353220F4
:1017D00049362E30353734204A362E3330323420D5
:1017E0000A47322058312E353332205933382E39BA
:1017F000323237204931322E37343333204A332EB8
:1018000039333036200A47322058322E31323836BA
:10181000205934322E39303739204931342E303284
:101820003831204A2D302E303633200A47322058A6
:10183000342E33353038205934362E343137352074
:1018400049382E35313636204A2D322E393334324E
:10185000200A47322058372E363739342059343849
:101860002E34352049362E31363437204A2D362E47
:1018700033353339200A4732205831312E3636334A
:1018800035205934392E3038342049332E3632370A
:1018900039204A2D392E39363336200A473220581E
:1018A00031352E35333933205934382E34353837E5
:1018B0002049302E33343333204A2D31302E313904
:1018C0003638200A4732205831382E373731382001
:1018D0005934362E3437313620492D322E383231B4
:1018E00033204A2D382E32313234200A47322058E4
:1018F00032302E39343635205934332E30323835A3
:1019000020492D362E31373438204A2D362E3330AB
:101910003833200A4732205832312E3532393420BC
:101920005933392E3132303920492D31332E32316D
:101930003932204A2D332E39363932200A473220A7
:101940005832312E353039205933382E3235363130
:1019500020492D33322E3337204A302E333331395C
:10196000200A47312058352E33333133200A47338C
:101970002058352E38353439205933352E36383302
:10198000312049392E39333232204A302E3638311F
:1019900036200A47332058372E3335333520593314
:1019A000332E343237372049352E37353332204AFB
:1019B000322E31393731200A4733205831312E3811
:1019C000383831205933312E373532322049342ED0
:1019D0003134204A342E32333035200A47332058F0
:1019E00031352E33343032205933322E36383920C7
:1019F00049302E33343034204A352E3537343220B6
:101A00000A4733205831362E373230362059333496
:101A10002E3033383920492D322E39333239204A8D
:101A2000342E33373939200A4733205831372E3690
:101A3000303735205933352E3637393720492D3751
:101A40002E30383136204A342E383838200A473084
:101A5000205A312E3500434F4E54524F4C204D4F9B
:101A6000444500434F4E464947204D4F44450047AB
:101A70002D434F4445204D4F444500444952454372
:101A80005420445249564500561A631A6F1A7B1A5D
:101A90000D0A456E64206F662066696C6520656E70
:101AA000636F756E74657265640D0A0054696E79B2
:101AB00047205B25535D2A3E200054696E794720FC
:101AC0005B25535D2A3E2000456E64206F662063CF
:101AD0006F6D6D616E642066696C650A0062756980
:101AE0006C64203139380054696E7947202D2056B6
:101AF000657273696F6E2025530A00494E46494E40
:101B00004954594E414ECDCCCC3D0AD7233C17B752
:101B1000D13877CC2B329595E6241FB14F0A0000BF
:101B200020410000C84200401C4620BCBE4CCA1BDD
:101B30000E5AAEC59D7400407A10F35A00A0724E42
:101B400018090010A5D4E80000E87648170000E462
:101B50000B54020000CA9A3B000000E1F5050000AA
:101B600080969800000040420F000000A08601000F
:101B70000000102700000000E803000000006400DF
:101B8000000000000A00000000000100000000004A
:101B90002C76D888DC674F0823DFC1DFAE59E1B16E
:101BA000B796E5E3E453C63AE651997696E8E6C27D
:101BB0008426EB898C9B62ED407C6FFCEFBC9C9F84
:101BC00040F2BAA56FA5F490055A2AF75C936B6CA6
:101BD000F9676DC11BFCE0E40D47FEF520E6B5009A
:101BE000D0ED902E0300943577050080841E080008
:101BF00000204E0A000000C80C333333330F986EB8
:101C000012831141EF8D2114893BE65516CFFEE674
:101C1000DB18D1844B381BF77C1D901DA4BBE4243A
:101C2000203284725E228100C9F124ECA1E53D27B7
:101C300011241FBECFEFDFE5DEBFCDBF00E00CBF3C
:101C400011E2A0E0B0E2E8E5F7E800E00BBF02C077
:101C500007900D92AC31B107D9F715E2ACE1B1E2D2
:101C600001C01D92A431B107E1F70E943B0E0C9414
:101C7000AA430C940000F8940E94FE190E942026AA
:101C80000E9423160E948F220E94A02F0E941E1ADB
:101C90000E9473220E94CA190E94880E0E949C2FE3
:101CA0000E94792F0E94D425E0EAF0E08091A20002
:101CB000816082838091A200826082838091A200F1
:101CC0008460828378940E94422FFDCF80936921A3
:101CD00060936A2140936B210895EF92FF920F93D6
:101CE0001F937B018C0180912921882351F0C80129
:101CF000B70125E832E441E25DE30E94953E7B01B5
:101D00008C01B701C8011F910F91FF90EF900895CA
:101D100086E5ECE1F1E2DF011D928A95E9F780E0CA
:101D200090E0A0E0B0E080932D2190932E21A0932D
:101D30002F21B09330218093312190933221A093B1
:101D40003321B093342180914A2490914B24A09167
:101D50004C24B0914D248093352190933621A0934B
:101D60003721B093382180914E2490914F24A09137
:101D70005024B09151248093392190933A21A0931B
:101D80003B21B0933C2121E020932A2180E090E088
:101D9000A0E8BFEB8093412190934221A09343217F
:101DA000B093442110922B21109270211092712136
:101DB0001092692120936A2182E080936B2108951B
:101DC0004F925F926F927F928F929F92AF92BF924B
:101DD000CF92DF92EF92FF920F931F93DF93CF93F7
:101DE0000F920F92CDB7DEB73B012A01490158018E
:101DF000D801ED91FC91E20FF31FE081EE2341F059
:101E0000DC01EC93E154EA3130F088E080931C214E
:101E100020E030E035C0F801808191810196808317
:101E200091838901080F191FC801BE016F5F7F4FA1
:101E30000E94DE3F6B017C01D3016D937D938D93F6
:101E40009C93139789819A818017910711F48CE0F4
:101E5000DDCF88199909F50180839183C701B60107
:101E60000E94433F9B01AC01C701B6010E94333B76
:101E7000D2016D937D938D939C93139721E030E075
:101E8000C9010F900F90CF91DF911F910F91FF909B
:101E9000EF90DF90CF90BF90AF909F908F907F900A
:101EA0006F905F904F900895AF92BF92CF92DF9264
:101EB000EF92FF920F931F9379018A015F770E943F
:101EC000DA3B0E94983B5B016C01C801B70120E03E
:101ED00030E040E050E00E94C33D1816CCF0C6014F
:101EE000B50120E030E040E050E00E94C33D18160C
:101EF0002CF46BED7FE089E490E404C06BED7FE0AF
:101F000089E490ECA60195010E94333B5B016C01D2
:101F1000B501C6011F910F91FF90EF90DF90CF9018
:101F2000BF90AF9008952F923F924F925F926F9221
:101F30007F928F929F92AF92BF92CF92DF92EF9259
:101F4000FF920F931F93DF93CF93CDB7DEB76897C0
:101F5000CDBFDEBF4C0119821A82E1E5F1E28CE0CF
:101F6000DF01282F1D922A95E9F73C96DF011D928B
:101F70008A95E9F710921C2110922C216E01089489
:101F8000C11CD11CFF24F394BAE0BB2EA2E0EA2EC0
:101F900077247A94F4E06F2EE3E0AE2E02C18091B4
:101FA0001D218D3409F4B6C0843509F4E8C08734A6
:101FB00009F0F3C060911E2170911F2180912021B2
:101FC000909121210E94423C6531710509F487C03E
:101FD0006631710584F56430710509F465C06530BA
:101FE0007105A4F46130710509F455C062307105C2
:101FF00024F4672B09F44CC0BFC06230710509F4AA
:102000004DC06330710509F0B7C04BC06231710536
:1020100009F454C0633171052CF46131710509F084
:10202000ABC045C06331710509F44FC0643171051F
:1020300009F0A2C051C06A35710509F45CC06B3566
:102040007105ACF46E31710509F44CC06F31710546
:102050002CF46C31710509F08FC044C065337105F3
:1020600009F443C06035710509F086C041C06C3584
:10207000710509F446C06C3571050CF43FC06D352F
:10208000710509F441C06E35710509F075C03FC096
:102090001092272182C0F09227217FC0E092272151
:1020A0007CC0A092272179C0F092712176C0109255
:1020B0006921F0926A21E0926B216FC01092692130
:1020C000E0926A21F0926B2168C0F0926921E0925F
:1020D0006A2110926B2161C0F09229215EC010929A
:1020E00029215BC0E092712158C0F092702155C047
:1020F0006092272152C0F0922A214FC010922A21CB
:102100004CC0F0922C2149C0F092282146C0109278
:10211000282143C060911E2170911F2180912021B0
:10212000909121210E94423C63307105E1F06430BE
:10213000710534F477FD20C06230710574F010C071
:1021400065307105B1F06530710584F06E3171054F
:1021500039F06C33710581F403C0F09226211DC063
:10216000E09226211AC0F0926D2117C070926D2165
:1021700014C010926D2111C0B0921C210EC060914C
:102180001E2170911F2180912021909121210E9478
:10219000433F0E94473C60936C2180911C2188231F
:1021A00069F48DE191E26EE171E242E251E2940163
:1021B00086010E94E00E892B09F0F1CE80911C214E
:1021C000882309F09DC319821A82EDE5F1E28CE0C3
:1021D000DF011D928A95E9F7DF011C9778978CE063
:1021E00001900D928150E1F7C6C0C0901E21D090A1
:1021F0001F21E0902021F090212180912921882326
:1022000019F4A70196010AC0C701B60125E832E416
:1022100041E25DE30E94953E9B01AC0120933D218C
:1022200030933E2140933F215093402100911D2146
:10223000003509F447C0013558F40634C1F00634BE
:1022400008F49FC0802F8954833008F09AC02DC0B5
:10225000033509F44BC0043520F4023509F091C070
:102260003AC0802F8855833008F08BC048C08091D9
:102270002821882349F02093412130934221409323
:102280004321509344217DC0CA01B90120E030E0D0
:1022900040E752E40E94DA3B609335217093362187
:1022A00080933721909338216CC0E02FF0E0EE0F3F
:1022B000FF1FEE0FFF1FE75CFF4D2083318342833A
:1022C00053835FC0C0922D21D0922E21E0922F2106
:1022D000F092302156C02093312130933221409327
:1022E00033215093342170922B214BC0C701B6018A
:1022F0000E94423C60936E2170936F2142C0809196
:102300002C21882369F0E02FF0E0EE0FFF1FEE0F85
:10231000FF1FE454F04E21A732A743A754A731C0B2
:1023200080912A21882321F480917021882369F0EB
:10233000E02FF0E0EE0FFF1FEE0FFF1FE454F04E12
:1023400025AB36AB47AB50AF1CC010E0000F111FE0
:10235000000F111F0454104EF80165A976A987A932
:1023600090AD0E94343BD801D5966D937D938D93AB
:102370009C93D89706C05E010894A11CB11C7724D9
:1023800073948DE191E26EE171E242E251E29401D7
:1023900085010E94E00E892B09F027CF80911C2136
:1023A000882309F0ADC280916D21882371F040919E
:1023B0006E2150916F21662757FD6095762F9927E2
:1023C00087FD90950E947A2202C00E948A22809105
:1023D0007121813041F08130C8F0823009F081C232
:1023E0000E94161A7EC260912D2170912E2180913B
:1023F0002F219091302120E030E04AE754E40E9400
:10240000953E0E94473C0E942A1A6BC2B091272138
:10241000B88FB23020F0B43008F063C231C06091A0
:1024200051217091522180915321909154212091FA
:102430005521309156214091572150915821E090DB
:102440005921F0905A2100915B2110915C218090DC
:102450002821882049F0A0904121B0904221C090CD
:102460004321D090442108C0A0903521B09036215E
:10247000C0903721D090382199240E94C81A16C1E3
:1024800080912B21882309F4E8C0E0916921F0E0D4
:10249000EE0FFF1FEE0FFF1FE45EFE4D65A976A94C
:1024A00087A990AD21A532A543A554A50E94333B31
:1024B0006F83788789879A87E0916A21F0E0EE0F31
:1024C000FF1FEE0FFF1FE45EFE4D65A976A987A9E9
:1024D00090AD21A532A543A554A50E94333B1B0115
:1024E0002C0110925D2110925E216090312170903C
:1024F00032218090332190903421C401B30120E037
:1025000030E040E850E40E94953EA40193010E940F
:10251000953E5B016C016F81788589859A859B0169
:10252000AC010E94953E7B018C01C201B101A20168
:1025300091010E94953E9B01AC01C801B7010E9428
:10254000333B9B01AC01C601B5010E94333B0E94A5
:10255000023F7B018C016F81788589859A85A20174
:1025600091010E94D03D9B01AC0117FB109517F91A
:102570001095C801B7010E94DA3B7B018C01A801CC
:1025800097010E944A3F882311F08DE08FC0E88DAB
:10259000E33021F417FB109517F91095C401B3012E
:1025A00020E030E040E050E00E94D33B882324F458
:1025B00017FB109517F9109580916921C82EDD241D
:1025C000CC0CDD1CCC0CDD1C2DE531E2C20ED31E83
:1025D000C201B101A80197010E94953E9B01AC0187
:1025E0006F81788589859A850E94333B20E030E0B1
:1025F00040E05FE30E94953ED6016D937D938D93FD
:102600009C93139780916A21C82EDD24CC0CDD1C8D
:10261000CC0CDD1CEDE5F1E2CE0EDF1E6F8178857E
:1026200089859A85A80197010E94953E9B01AC017E
:10263000C201B1010E94343B20E030E040E05FE3A2
:102640000E94953ED6016D937D938D939C93139735
:1026500080911C21882309F044C1E0916921F0E0B8
:10266000EE0FFF1FEE0FFF1FE35AFE4D60817181D9
:10267000828193819058E0916A21F0E0EE0FFF1F74
:10268000EE0FFF1FE35AFE4D2081318142815381BD
:1026900050580E94540F6F87788B898B9A8B9B01BF
:1026A000AC010E944A3F882321F08FE080931C21D7
:1026B00018C1E09169210E2F10E0E0916A21CE2E21
:1026C000DD24000F111F000F111F045E1E4DF801C5
:1026D000EF5BFF4FD801D5966D917D918D919C91C7
:1026E000D89720813181428153810E94333BF80188
:1026F00021A532A543A554A50E94333B7B018C0143
:10270000CC0CDD1CCC0CDD1C2CE131E2C20ED31E46
:10271000F601EF5BFF4FD601D5966D917D918D91BE
:102720009C91D89720813181428153810E94333B13
:10273000F60121A532A543A554A50E94333B9B0178
:10274000AC01C801B7010E94540F7B018C01A801A4
:1027500097010E944A3F882309F0A7CFC801B7011B
:102760002F85388949895A890E94D33B882354F49C
:10277000C801B7012BED3FE049EC50E40E94343B27
:102780007B018C01C801B7012F85388949895A8995
:102790000E94333B6B877C878D879E8780912721A2
:1027A000833071F46B857C858D859E852BED3FE0B4
:1027B00049EC50E40E94333B6B877C878D879E8772
:1027C00080916921282F30E02D833E83F901EE0F9F
:1027D000FF1FEE0FFF1FE35AFE4DE080F1800281E4
:1027E000138180916A21A82FB0E0AB83BC83FD01E7
:1027F000EE0FFF1FEE0FFF1FE35AFE4D20813181C8
:102800004281538180916B21282E3324F101EE0FF8
:10281000FF1FEE0FFF1FE45EFE4D85A996A9A7A935
:10282000B0AD8C8B9D8BAE8BBF8BA1A4B2A4C3A487
:10283000D4A4909128219B8B992349F04090412169
:1028400050904221609043217090442108C04090F4
:102850003521509036216090372170903821C80181
:10286000B7010E94D03D7B018C01ADB7BEB71A976E
:10287000ADBFBEBF8DB69EB60894811C911C6C89FD
:102880007D898E899F89A60195010E94333B5B015A
:102890006C012B813C81F4012083318322823382BD
:1028A000D40114964D925D926D927C921797EB89AC
:1028B0001896EC93189719961C926F8578898989D8
:1028C0009A892B853C854D855E858D809E800E94F2
:1028D000591E80931C212DB73EB7265F3F4F2DBF59
:1028E0003EBF80911C21882311F0823049F4E5E439
:1028F000F1E2DF011C969CE00D9001929150E1F70E
:102900006896CDBFDEBFCF91DF911F910F91FF90F1
:10291000EF90DF90CF90BF90AF909F908F907F907F
:102920006F905F904F903F902F900895CF93DF93DB
:10293000EC0190E020E010C0E13270F08E2F815663
:10294000A92FB0E09F5F8A3120F4AC0FBD1FE05289
:1029500002C0AC0FBD1FEC93FE01E20FF11DE08140
:102960002F5FEE2349F7FE01E90FF11D10828881E8
:10297000883261F0813511F483E009C08F3231F083
:10298000CE010E94930F80931C2101C080E0DF9153
:10299000CF910895CF92DF92EF92FF920F931F9302
:1029A000CF93DF93C2E5D4E2688170E0882777FD9A
:1029B0008095982F0E94753C9B01AC016F817885B2
:1029C00089859A850E94DA3B9B01AC0160E070E04A
:1029D00084EB93E40E94DA3B2B853C854D855E8534
:1029E0000E94DA3B6B8B7C8B8D8B9E8B689684E28E
:1029F000C23BD807C9F60091522410E0B8018827DD
:102A000077FD8095982F0E94753C9B01AC016091E9
:102A1000592470915A2480915B2490915C240E94E7
:102A2000DA3B9B01AC0160E070E084EB93E40E9430
:102A3000DA3B6B017C018091572490915824089FC8
:102A4000B001099F700D189F700D112480E090E077
:102A50000E94733CA70196010E94DA3B60934A24CE
:102A600070934B2480934C2490934D248091552453
:102A700090915624089FB001099F700D189F700D0A
:102A8000112480E090E00E94733CA70196010E940F
:102A9000DA3B60934E2470934F248093502490939C
:102AA0005124DF91CF911F910F91FF90EF90DF9014
:102AB000CF900895E4E4F4E284E6809344248AE02D
:102AC00097EDA3E2BCE38093462490934724A09320
:102AD0004824B093492480E991E080935524909351
:102AE000562480936D2490936E2480938524909334
:102AF000862480939D2490939E24809357249093C2
:102B0000582480936F24909370248093872490930B
:102B1000882480939F249093A02486E696E6A6EED0
:102B2000BFE38093592490935A24A0935B24B093DD
:102B30005C248093712490937224A0937324B093A7
:102B400074248093892490938A24A0938B24B09337
:102B50008C248093A1249093A224A093A324B093C7
:102B6000A4248CE59FE8A2EABFE380935D249093C0
:102B70005E24A0935F24B093602480937524909387
:102B80007624A0937724B093782480938D24909317
:102B90008E24A0938F24B09390248093A5249093A7
:102BA000A624A093A724B093A82480E090E0A8ECEA
:102BB000B3E48093612490936224A0936324B09340
:102BC00064248093792490937A24A0937B24B093F7
:102BD0007C2480E090E0A6E9B3E480939124909374
:102BE0009224A0939324B093942480E090E0A0E8F2
:102BF000BFEB8093A9249093AA24A093AB24B09315
:102C0000AC2488E08093522480936A2486AF80931A
:102C10009A241092542410926C24109284241092BE
:102C20009C2481E08093692485AF8093992410923D
:102C3000B1248093532480936B2487AF80939B248B
:102C40000E94CA1408950E945A150895873031F1E0
:102C5000883030F4823059F0833009F045C00CC020
:102C60008D3009F18F3081F18C30F1F512C000D038
:102C70000F9285E194E01BC00F920F928FEF93E0CB
:102C8000EDB7FEB7818392830E94E4420F900F90CC
:102C9000089500D00F9288EE93E009C000D00F9203
:102CA0008EEC93E004C000D00F9284EB93E0EDB77C
:102CB000FEB781839283638374830E94E4420F9002
:102CC0000F900F900F90089500D00F9289E993E034
:102CD000EDB7FEB781839283638374830E94E442DD
:102CE0000F900F900F900F900895EF92FF920F9317
:102CF0001F93E82EFF248701000F111FF801ED5BE1
:102D0000FD4F2591349100D00F9288E396E0ADB746
:102D1000BEB711968D939C93129713962D933C9367
:102D200014970E94E44280E096E0EDB7FEB78183FD
:102D300092830E0D1F1D83E0000F111F8A95E1F78E
:102D40000C5B1B4DD80151968D919C9152978383BA
:102D500094830E94E44288EC95E0EDB7FEB781834E
:102D60009283D80153968D919C9154978383948339
:102D70000E94E442EDB7FEB7319685E995E0ADB724
:102D8000BEB711968D939C931297D8011E968C9185
:102D9000828313820E94E4420F920F928EE595E0A7
:102DA000EDB7FEB781839283F80185899689A7895B
:102DB000B08DEDB7FEB783839483A583B6830E945D
:102DC000E4428BE295E0ADB7BEB711968D939C932C
:102DD0001297F801818D928DA38DB48DEDB7FEB75A
:102DE00083839483A583B6830E94E44288EF94E0B2
:102DF000ADB7BEB711968D939C931297F801858D50
:102E0000968DA78DB0A1EDB7FEB783839483A5837C
:102E1000B6830E94E4420F900F90EDB7FEB7319653
:102E200087EC94E0ADB7BEB711968D939C93129743
:102E3000D80195968C91828313820E94E442EDB76B
:102E4000FEB7319686E994E0ADB7BEB711968D9383
:102E50009C931297D8011F968C91828313820E94B3
:102E6000E442EDB7FEB7319686E694E0ADB7BEB763
:102E700011968D939C931297D80150968C918283D2
:102E800013820E94E4420F920F9282E394E0EDB726
:102E9000FEB781839283F80181A192A1A3A1B4A17D
:102EA000EDB7FEB783839483A583B6830E94E44283
:102EB0008DB79EB706968DBF9EBF1F910F91FF9055
:102EC000EF9008951F9300D00F92EDB7FEB73196A3
:102ED0008CEF96E0ADB7BEB711968D939C93129789
:102EE00080914424828313820E94E4420F900F90C9
:102EF00085ED96E0EDB7FEB7818392830E94E442B0
:102F000000D00F928BEA96E0ADB7BEB711968D93C5
:102F10009C9312978091462490914724A091482435
:102F2000B0914924EDB7FEB783839483A583B6831C
:102F30000E94E44281E896E0ADB7BEB711968D934A
:102F40009C93129780914E2490914F24A0915024ED
:102F5000B0915124EDB7FEB783839483A583B683E4
:102F60000E94E44286E596E0ADB7BEB711968D9318
:102F70009C93129780914A2490914B24A0914C24C9
:102F8000B0914D24EDB7FEB783839483A583B683B8
:102F90000E94E44210E08DB79EB706968DBF9EBF9B
:102FA000812F0E9475161F5F1430D1F71F9108956D
:102FB00080E090E064E474E24EE650E00E94312B41
:102FC000089580E090E00E94832A843619F020E082
:102FD00030E00DC084E494E260E070E04EE650E042
:102FE0000E948D2A009711F081E090E09C01C901B8
:102FF0000895CF92DF92EF92FF921F93DF93CF93CA
:103000000F920F92CDB7DEB77C0119821A82CC24C1
:10301000DD2430E020E02BC09D3349F4F701E20FBE
:10302000F11D10822F5F6701C20ED11C20C09D329E
:10303000C9F09B32B9F09E32A9F09F3399F09832D3
:1030400089F0892F81568A3128F4F701E20FF11DAA
:1030500090520BC0892F81548A3120F0892F8053E0
:103060008A3028F4F701E20FF11D90832F5FF701FA
:10307000E30FF11D90813F5F992371F6F701E20F95
:10308000F11D10822F5FC701820F911D89839A83E2
:1030900010924524F70180818135D1F0823560F4AA
:1030A000813459F1823428F4883211F18F3339F5A3
:1030B0000CC08D3421F50EC0893529F08A35D9F040
:1030C0008835E9F41FC011E01EC00E94621710C0CD
:1030D00083E016C0C601BE016F5F7F4F0E94DE3FD6
:1030E0006093462470934724809348249093492406
:1030F0001092452407C012E006C013E004C087E028
:103100008093452410E080914524882309F0EEC087
:1031100010924524F70181818C3409F4B8C08D34B4
:1031200030F48434A9F1863409F0DDC01DC0803547
:1031300009F447C0833521F08D3409F0D4C058C05C
:10314000C6010E944C41212F30E0F901EE0FFF1F14
:10315000E20FF31F53E0EE0FFF1F5A95E1F7EC5B10
:10316000FB4D818B928BC2C0C6010E944C41212F26
:1031700030E0F901EE0FFF1FE20FF31F23E0EE0F27
:10318000FF1F2A95E1F7EC5BFB4D838B948BAEC060
:10319000C601BE016F5F7F4F0E94DE3F212F30E0EE
:1031A000F901EE0FFF1FE20FF31FB3E0EE0FFF1F59
:1031B000BA95E1F7EC5BFB4D658B768B878B908F37
:1031C00095C0C6010E944C41682F812F90E0FC0100
:1031D000EE0FFF1FE80FF91F73E0EE0FFF1F7A9548
:1031E000E1F7EC5BFB4D608B812F0E94EB227EC0F0
:1031F000F7018281893499F4C6010E944C41212F44
:1032000030E0F901EE0FFF1FE20FF31F53E0EE0F66
:10321000FF1F5A95E1F7EC5BFB4D868767C0F7010E
:1032200083818235C9F4C601BE016F5F7F4F0E9462
:10323000DE3F212F30E0F901EE0FFF1FE20FF31FF9
:1032400013E0EE0FFF1F1A95E1F7EC5BFB4D618F6A
:10325000728F838F948F4AC08435C9F4C601BE0132
:103260006F5F7F4F0E94DE3F212F30E0F901EE0FAC
:10327000FF1FE20FF31FA3E0EE0FFF1FAA95E1F778
:10328000EC5BFB4D658F768F878F90A32FC0F70186
:1032900082818F3499F4C6010E944C41212F30E085
:1032A000F901EE0FFF1FE20FF31F53E0EE0FFF1FB8
:1032B0005A95E1F7EC5BFB4D878718C0893499F488
:1032C000C6010E944C41212F30E0F901EE0FFF1F93
:1032D000E20FF31F23E0EE0FFF1F2A95E1F7EC5BEF
:1032E000FB4D85A303C087E080934524809145244E
:1032F000B7010E9426168091452490E00F900F9010
:10330000CF91DF911F91FF90EF90DF90CF900895C4
:10331000EF92FF920F931F93DF93CF93CDB7DEB75A
:10332000A897CDBFDEBF0BE412E0A0E0B0E07E01C5
:103330000894E11CF11C02C00F5F1F4FF80184913B
:10334000882389F4CE010196A80FB91F1C920E9410
:10335000F917A896CDBFDEBFCF91DF911F910F91D6
:10336000FF90EF9008958D3021F08A3011F08B336B
:1033700049F4AE0DBF1D1C92C7010E94F917A0E0D1
:10338000B0E0DACF8132C0F2F701EA0FFB1F808391
:103390001196D2CF08950F93DF93CF930F92CDB7AD
:1033A000DEB78BE4E0E5F0E0828388E080935000B4
:1033B0008091510083FFFCCF84ECE0E5F0E0858351
:1033C00088E1809350008091510084FFFCCF8FB73B
:1033D0008983F8941BBE24E080E490E0FC0108EDB2
:1033E00004BF208389818FBF809150008E7F80939E
:1033F00050000F90CF91DF910F9108950E94CB194B
:1034000008950F93DF93CF930F92CDB7DEB72FB709
:103410002983F8941BBEFC0108ED04BF60838981F9
:103420008FBF0F90CF91DF910F9108958CE0E3E76C
:10343000F1E2DF011D928A95E9F708958CE0E3E758
:10344000F1E2DF011D928A95E9F710927221109244
:10345000B4240895AF92BF92CF92DF92EF92FF9281
:103460000F931F937B018C010E94D52FC801B701D8
:103470000E94733C5B016C0120E030E04AEF55E4B0
:103480000E94953E7B018C0120E030E040E85FE344
:103490000E94D33B88231CF461E070E024C0C80183
:1034A000B70120E03FEF4FE757E40E94C33D1816F5
:1034B000B4F4C601B50120E030E040E251E40E94DE
:1034C000953E0E94473C80E293E005C0FC013197A5
:1034D000F1F76150704061157105C1F707C0C8016F
:1034E000B7010E94473CCB010197F1F71F910F9163
:1034F000FF90EF90DF90CF90BF90AF900895AF9284
:10350000BF92CF92DF92EF92FF920F931F93809121
:103510007221882319F421E030E030C082E08093EA
:1035200072210E94C72F882319F022E030E026C0C4
:1035300060918B2170918C2180918D2190918E21B1
:1035400020918F2130919021409191215091922191
:10355000E0909321F0909421009195211091962173
:10356000A0909721B0909821C0909921D0909A2155
:103570000E94F32F1092722120E030E0C9011F91C8
:103580000F91FF90EF90DF90CF90BF90AF90089594
:103590002F923F924F925F926F927F928F929F9263
:1035A000AF92BF92CF92DF92EF92FF920F931F9351
:1035B000DF93CF93CDB7DEB76497CDBFDEBF2D8746
:1035C0003E874F87588BA98ABA8ACB8ADC8A20919A
:1035D000652430916624409167245091682429879E
:1035E0003A874B875C870E94953E0E94653E2B017F
:1035F0003C0140927F215092802160928121709203
:10360000822180917D2490917E24A0917F24B0918D
:1036100080248D839E83AF83B8876D857E858F855B
:1036200098892D813E814F8158850E94953E0E9448
:10363000653E5B016C01A0928321B0928421C0920F
:103640008521D09286212091952430919624409115
:1036500097245091982429833A834B835C83C80133
:10366000B7010E94953E0E94653E9B01AC012093EC
:103670008721309388214093892150938A2180911A
:10368000732190917421A0917521B09176218301CD
:103690007201E81AF90A0A0B1B0BE0928B21F092D7
:1036A0008C2100938D2110938E2180917721909110
:1036B0007821A0917921B0917A21A81AB90ACA0A71
:1036C000DB0AA0928F21B0929021C0929121D092DA
:1036D000922180917B2190917C21A0917D21B091BC
:1036E0007E2119012A01281A390A4A0A5B0A209206
:1036F00093213092942140929521509296218928CD
:1037000059F060EC71EE84E69CE429893A894B8992
:103710005C890E94DA3B4AC0C801B7010E94753C2F
:1037200029853A854B855C850E94DA3B0E94403FA3
:103730003B014C01C601B5010E94753C2D813E81C3
:103740004F8158850E94DA3B0E94403F5B016C012B
:10375000C201B1010E94753C29813A814B815C8193
:103760000E94DA3B0E94403F7B018C01C401B301FF
:10377000A60195010E94343BA80197010E94343BA9
:103780000E94023F60939B2170939C2180939D2116
:1037900090939E2129893A894B895C890E94DA3B62
:1037A00020E034E244E759E40E94953E0E94653EE1
:1037B00060939721709398218093992190939A21F7
:1037C00081E080937221E3E7F1E2DF011C968CE057
:1037D0000D9001928150E1F70E947F1A6496CDBF4F
:1037E000DEBFCF91DF911F910F91FF90EF90DF909F
:1037F000CF90BF90AF909F908F907F906F905F9091
:103800004F903F902F9008952F923F924F925F924A
:103810006F927F928F929F92AF92BF92CF92DF92E0
:10382000EF92FF920F931F93DF93CF93CDB7DEB745
:103830006C97CDBFDEBF2D8B3E8B4F8B588FA98EE3
:10384000BA8ECB8EDC8E2091652430916624409117
:10385000672450916824298B3A8B4B8B5C8B0E9498
:10386000953E0E94653E2B013C0140927F21509283
:103870008021609281217092822180917D2490919B
:103880007E24A0917F24B09180248D879E87AF876E
:10389000B88B6D897E898F89988D2D853E854F8562
:1038A00058890E94953E0E94653E5B016C01A09282
:1038B0008321B0928421C0928521D09286212091CB
:1038C00095243091962440919724509198242987EB
:1038D0003A874B875C87C801B7010E94953E0E94DA
:1038E000653E9B01AC012093872130938821409352
:1038F000892150938A218091732190917421A09104
:103900007521B091762183017201E81AF90A0A0B38
:103910001B0BED82FE820F831887E0928B21F092C1
:103920008C2100938D2110938E218091772190918D
:103930007821A0917921B0917A2186017501E81A48
:10394000F90A0A0B1B0BE982FA820B831C83E092B3
:103950008F21F092902100939121109392218091D8
:103960007B2190917C21A0917D21B0917E21190134
:103970002A01281A390A4A0A5B0A209293213092B6
:1039800094214092952150929621892859F060EC1B
:1039900071EE84E69CE4298D3A8D4B8D5C8D0E94FE
:1039A000DA3B4EC06D817E818F8198850E94753C87
:1039B00029893A894B895C890E94DA3B0E94403F01
:1039C0003B014C0169817A818B819C810E94753C0D
:1039D0002D853E854F8558890E94DA3B0E94403FE5
:1039E0005B016C01C201B1010E94753C29853A85D9
:1039F0004B855C850E94DA3B0E94403F7B018C0135
:103A0000C401B301A60195010E94343BA8019701AE
:103A10000E94343B0E94023F60939B2170939C2143
:103A200080939D2190939E21298D3A8D4B8D5C8DA5
:103A30000E94DA3B20E034E244E759E40E94953EDC
:103A40000E94653E609397217093982180939921FD
:103A500090939A21A0909721B0909821C09099219D
:103A6000D0909A216D817E818F81988529813A81BC
:103A70004B815C81820171010E94F32FE3E7F1E247
:103A8000DF011C968CE00D9001928150E1F780E0FF
:103A900090E06C96CDBFDEBFCF91DF911F910F916B
:103AA000FF90EF90DF90CF90BF90AF909F908F905E
:103AB0007F906F905F904F903F902F9008958F92DE
:103AC0009F92AF92BF92CF92DF92EF92FF920F93AD
:103AD0001F938091B424882319F421E030E0DDC0E5
:103AE000813009F0CAC01092B7241092B82482E045
:103AF0008093B424C2C00E94C72F882319F022E00B
:103B000030E0CBC08091B7249091B8240196809387
:103B1000B7249093B8246091D9247091DA248091CD
:103B2000DB249091DC242091E5243091E62440911F
:103B3000E7245091E8240E94343B7B018C01CB01A7
:103B4000D8018093D9249093DA24A093DB24B093F6
:103B5000DC24B701C8010E94F83E8090DD249090DB
:103B6000DE24A090DF24B090E024C090BB24D0904D
:103B7000BC24CC0CDD1CCC0CDD1C24EB34E2C20ECE
:103B8000D31EA50194010E94953E9B01AC0160915A
:103B9000D1247091D2248091D3249091D4240E9476
:103BA000343BF601658776878787908BB701C8011C
:103BB0000E94D73B0091BD241091BE24000F111F1D
:103BC000000F111F0C541B4DA50194010E94953E3E
:103BD0009B01AC016091D5247091D6248091D724AB
:103BE0009091D8240E94343BF801658776878787B7
:103BF000908B0091BF241091C024000F111F000F63
:103C0000111F0C541B4DF8016585768587859089B9
:103C10002091E9243091EA244091EB245091EC2446
:103C20000E94343BF801658776878787908B609187
:103C3000C1247091C2248091C3249091C424209106
:103C4000C5243091C6244091C7245091C824E090E7
:103C5000C924F090CA240091CB241091CC24A090C8
:103C6000E124B090E224C090E324D090E42480903A
:103C7000B9249090BA240E94041C2091B72430915A
:103C8000B8248091B5249091B624821793070CF044
:103C900032CF1092B42420E030E0C9011F910F917F
:103CA000FF90EF90DF90CF90BF90AF909F908F905C
:103CB00008952F923F924F925F926F927F928F92D0
:103CC0009F92AF92BF92CF92DF92EF92FF920F93AB
:103CD0001F93DF93CF93CDB7DEB72897CDBFDEBF5D
:103CE00069837A838B839C8329013A01ED82FE826A
:103CF0000F8318872E8C3F8C6093D9247093DA241D
:103D00008093DB249093DC24E092DD24F092DE2487
:103D10000093DF241093E0242093ED243093EE24CD
:103D20004093EF245093F024A092F124B092F22417
:103D3000C092F324D092F4248AA19BA1ACA1BDA18E
:103D40008093E1249093E224A093E324B093E424AD
:103D5000AEA1BFA1A093B924B093BA248092BB2492
:103D60009092BC242092BD243092BE24E8A1F9A1F7
:103D7000E093BF24F093C024CA01B901A8019701C0
:103D80000E94953E7B018C01C601B5010E94423C18
:103D900097FF07C090958095709561957F4F8F4FE5
:103DA0009F4F0E94753C9B01AC01C801B7010E9466
:103DB000D03D7B018C016093CD247093CE24809301
:103DC000CF249093D0242AE037ED43E25CE30E94B5
:103DD000D33B88231CF42FE030E0FBC0C801B701BF
:103DE0002091462430914724409148245091492401
:103DF0000E94DA3B0E94C03B0E94423C8B016093D0
:103E0000B5247093B6248EA19FA1892BB9F0B80177
:103E1000882777FD8095982F0E94753C9B01AC0107
:103E20006AA17BA18CA19DA10E94953E6093E12493
:103E30007093E2248093E3249093E424B8018827CC
:103E400077FD8095982F0E94753C7B018C01C30102
:103E5000B201A80197010E94DA3B6093E5247093B8
:103E6000E6248093E7249093E824C601B501A801D5
:103E700097010E94DA3B6093E9247093EA248093CF
:103E8000EB249093EC2469817A818B819C810E9440
:103E9000F83E5B016C01F401EE0FFF1FEE0FFF1FF8
:103EA000EE58FE4D61817281838194810E94753C40
:103EB000F401EE0FFF1FE80DF91D13E0EE0FFF1FD9
:103EC0001A95E1F7EC5BFB4D21A132A143A154A16E
:103ED0000E94DA3B7B018C01C601B5012D813E8138
:103EE0004F8158850E94953E9B01AC01C801B701E6
:103EF0000E94333B6093D1247093D2248093D324C7
:103F00009093D42469817A818B819C810E94D73BD4
:103F10005B016C01F101EE0FFF1FEE0FFF1FEE586A
:103F2000FE4D61817281838194810E94753CF10113
:103F3000EE0FFF1FE20DF31D53E0EE0FFF1F5A952A
:103F4000E1F7EC5BFB4D21A132A143A154A10E94FA
:103F5000DA3B7B018C01C601B5012D813E814F8189
:103F600058850E94953E9B01AC01C801B7010E9493
:103F7000333B6093D5247093D6248093D7249093B9
:103F8000D824E8A1F9A1EE0FFF1FEE0FFF1F8F014C
:103F90000C541B4DEE58FE4D6181728183819481DA
:103FA0000E94753C2091952430919624409197244D
:103FB000509198240E94DA3BD8011D966D937D9311
:103FC0008D939C93509781E08093B4240E945F1D51
:103FD0009C01C9012896CDBFDEBFCF91DF911F9113
:103FE0000F91FF90EF90DF90CF90BF90AF909F9098
:103FF0008F907F906F905F904F903F902F9008959B
:104000002F923F924F925F926F927F928F929F92E8
:10401000AF92BF92CF92DF92EF92FF920F931F93D6
:10402000DF93CF93CDB7DEB72897CDBFDEBF6983CF
:104030007A838B839C8329013A01ED82FE820F8370
:1040400018872E8C3F8C6093D9247093DA24809348
:10405000DB249093DC24E092DD24F092DE240093B4
:10406000DF241093E0242093ED243093EE2440933A
:10407000EF245093F024A092F124B092F224C09245
:10408000F324D092F4248AA19BA1ACA1BDA180937A
:10409000E1249093E224A093E324B093E424AEA11E
:1040A000BFA1A093B924B093BA248092BB2490926C
:1040B000BC242092BD243092BE24E8A1F9A1E09353
:1040C000BF24F093C024CA01B901A80197010E943E
:1040D000953E7B018C01C601B5010E94423C97FFD1
:1040E00007C090958095709561957F4F8F4F9F4F3A
:1040F0000E94753C9B01AC01C801B7010E94D03DF4
:104100007B018C016093CD247093CE248093CF24C7
:104110009093D0242AE037ED43E25CE30E94D33B46
:1041200088231CF42FE030E0C7C1C801B7012091FB
:1041300046243091472440914824509149240E94BC
:10414000DA3B0E94C03B0E94423C8B016093B52445
:104150007093B6242EA13FA1232BB9F0B801882774
:1041600077FD8095982F0E94753C9B01AC016AA158
:104170007BA18CA19DA10E94953E6093E124709348
:10418000E2248093E3249093E424B801882777FD08
:104190008095982F0E94753C7B018C01C301B20170
:1041A000A80197010E94DA3B6093E5247093E6240E
:1041B0008093E7249093E824C601B501A8019701F4
:1041C0000E94DA3B6093E9247093EA248093EB2405
:1041D0009093EC2469817A818B819C810E94F83EC6
:1041E0005B016C01F401EE0FFF1FEE0FFF1FEE5895
:1041F000FE4D61817281838194810E94753CF4013E
:10420000EE0FFF1FE80DF91D13E0EE0FFF1F1A95CB
:10421000E1F7EC5BFB4D21A132A143A154A10E9427
:10422000DA3B7B018C01C601B5012D813E814F81B6
:1042300058850E94953E9B01AC01C801B7010E94C0
:10424000333B6093D1247093D2248093D3249093F2
:10425000D42469817A818B819C810E94D73B5B0148
:104260006C01F101EE0FFF1FEE0FFF1FEE58FE4D28
:1042700061817281838194810E94753CF101EE0F0E
:10428000FF1FE20DF31D53E0EE0FFF1F5A95E1F7FC
:10429000EC5BFB4D21A132A143A154A10E94DA3B6A
:1042A0007B018C01C601B5012D813E814F8158856E
:1042B0000E94953E9B01AC01C801B7010E94333BAF
:1042C0006093D5247093D6248093D7249093D824D8
:1042D000E8A1F9A1EE0FFF1FEE0FFF1F8F010C5495
:1042E0001B4DEE58FE4D61817281838194810E9445
:1042F000753C2091952430919624409197245091BB
:1043000098240E94DA3BD8011D966D937D938D937E
:104310009C9350971092B7241092B824BFC060911C
:10432000D9247091DA248091DB249091DC242091AF
:10433000E5243091E6244091E7245091E8240E943E
:10434000343B7B018C01CB01D8018093D92490931D
:10435000DA24A093DB24B093DC24B701C8010E94C7
:10436000F83E8090DD249090DE24A090DF24B09071
:10437000E024C090BB24D090BC24CC0CDD1CCC0C21
:10438000DD1CE4EBF4E2CE0EDF1EA50194010E94D9
:10439000953E9B01AC016091D1247091D224809113
:1043A000D3249091D4240E94343BD6011D966D9362
:1043B0007D938D939C935097B701C8010E94D73B82
:1043C0000091BD241091BE24000F111F000F111F7A
:1043D0000C541B4DA50194010E94953E9B01AC011C
:1043E0006091D5247091D6248091D7249091D824BF
:1043F0000E94343BF801658776878787908B009110
:10440000BF241091C024000F111F000F111F0C5466
:104410001B4DD8011D966D917D918D919C9150976A
:104420002091E9243091EA244091EB245091EC242E
:104430000E94343BF801658776878787908B60916F
:10444000C1247091C2248091C3249091C4242091EE
:10445000C5243091C6244091C7245091C824E090CF
:10446000C924F090CA240091CB241091CC24A090B0
:10447000E124B090E224C090E324D090E424809022
:10448000B9249090BA240E94041C8091B724909182
:10449000B82401968093B7249093B8242091B72430
:1044A0003091B8248091B5249091B6248217930757
:1044B0000CF035CF20E030E0C9012896CDBFDEBF3B
:1044C000CF91DF911F910F91FF90EF90DF90CF90F0
:1044D000BF90AF909F908F907F906F905F904F9024
:1044E0003F902F900895E0E0F6E080E4818380E83B
:1044F0008183089597FD05C080E8E0E0F6E08583BC
:1045000004C080E8E0E0F6E0868380E4E0E0F6E0E6
:104510008583089580E4E0E0F6E086830895CF93F4
:10452000DF931092A02110929F2180E696E0809365
:10453000AE219093AF2180EA96E08093BD219093C5
:10454000BE2180E896E08093CC219093CD2180E03D
:1045500096E08093DB219093DC2180E098E08093CB
:10456000B0219093B12180E099E08093BF21909396
:10457000C02180E09AE08093CE219093CF2180E00B
:104580009BE08093DD219093DE21C4E5D4E2ADEA87
:10459000B1E24FE334E098E123E088818C931196F7
:1045A000ED91FC9112974083148284818861848309
:1045B0003583968B978B1396ED91FC91149710820F
:1045C0001182268368961F9684E2C43BD80729F798
:1045D000DF91CF91089590E0FC0124E0EE0FFF1FE2
:1045E0002A95E1F7E81BF90BE156FE4D6687089521
:1045F00080E090E1A0E0B0E08093A3219093A4211B
:10460000A093A521B093A621E091B021F091B12112
:1046100080E090E186A397A321E0208380E098E0EA
:10462000A0E0B0E08093B2219093B321A093B42195
:10463000B093B521E091BF21F091C02180E090E2DC
:1046400086A397A3208380E096E0A0E0B0E080936B
:10465000C1219093C221A093C321B093C421E091C2
:10466000CE21F091CF2180E090E386A397A3208311
:1046700080E094E0A0E0B0E08093D0219093D1213D
:10468000A093D221B093D321E091DD21F091DE21DE
:1046900080E090E486A397A32083E0EAF1E28081A2
:1046A0008F6080830895F8940E94E82F789408958D
:1046B000F894E091B021F091B1211082E091BF21F6
:1046C000F091C0211082E091CE21F091CF21108293
:1046D000E091DD21F091DE2110820E94E82F1092FE
:1046E000A02178940895CF93DF9380919F21882310
:1046F00009F0B6C081E080939F218091A02188239A
:1047000009F0ACC00E94A52F8093A1219093A22113
:10471000892B09F4A3C0C3EAD1E220E030E054E0E1
:1047200042E0ED85FE851082E091A121F091A22169
:10473000C90173E0880F991F7A95E1F7820F931FE3
:10474000E80FF91F80819181A281B3810097A105B3
:10475000B105B1F190858A85EB85FC85981711F03C
:10476000458301C04683E091A121F091A221C901B6
:1047700063E0880F991F6A95E1F7820F931FE80F96
:10478000F91F80819181A281B38188839983AA8353
:10479000BB83868197818E839F838681978188875B
:1047A0009987848195818C839D83AD85BE85848125
:1047B000958196968D939C939797EB85FC85568370
:1047C0002F5F3F4F2F962330310509F0AACF10926B
:1047D000A0218091A3219091A421A091A521B09125
:1047E000A6210097A105B10559F0E091B021F09103
:1047F000B12181E080838091A02188608093A021F5
:104800008091B2219091B321A091B421B091B521B2
:104810000097A105B10559F0E091BF21F091C021A9
:1048200081E080838091A02184608093A021809189
:10483000C1219091C221A091C321B091C4210097C0
:10484000A105B10559F0E091CE21F091CF2181E091
:1048500080838091A02182608093A02110929F216B
:10486000DF91CF91089510929F210E9473230895A4
:104870001F920F920FB60F920BB60F9211242F9327
:104880003F934F935F936F937F938F939F93AF93D8
:10489000BF93EF93FF938091D8219091D9210197F5
:1048A0008093D8219093D921892BA1F5E0E0F6E0FF
:1048B00081E085838091D0219091D121A091D22156
:1048C000B091D3210197A109B1098093D021909390
:1048D000D121A093D221B093D3210097A105B10596
:1048E00069F41092000B84E085838091A0218E7F73
:1048F0008093A021882311F40E9473238091D621F4
:104900009091D7218093D8219093D92181E0E0E044
:10491000F6E08683FF91EF91BF91AF919F918F91C8
:104920007F916F915F914F913F912F910F900BBEAF
:104930000F900FBE0F901F9018951F920F920FB6F9
:104940000F920BB60F9211242F933F934F935F93C7
:104950006F937F938F939F93AF93BF93EF93FF9347
:104960008091C9219091CA2101978093C921909388
:10497000CA21892BA1F5E0E8F6E081E085838091EA
:10498000C1219091C221A091C321B091C42101976E
:10499000A109B1098093C1219093C221A093C321A1
:1049A000B093C4210097A105B10569F41092000AE3
:1049B00084E085838091A0218D7F8093A02188232E
:1049C00011F40E9473238091C7219091C821809394
:1049D000C9219093CA2181E0E0E8F6E08683FF9147
:1049E000EF91BF91AF919F918F917F916F915F9167
:1049F0004F913F912F910F900BBE0F900FBE0F90D4
:104A00001F9018951F920F920FB60F920BB60F9230
:104A100011242F933F934F935F936F937F938F93C3
:104A20009F93AF93BF93EF93FF938091BA2190919F
:104A3000BB2101978093BA219093BB21892BA1F5CB
:104A4000E0EAF6E081E085838091B2219091B32184
:104A5000A091B421B091B5210197A109B10980932A
:104A6000B2219093B321A093B421B093B5210097C4
:104A7000A105B10569F41092000984E08583809155
:104A8000A0218B7F8093A021882311F40E9473239F
:104A90008091B8219091B9218093BA219093BB2144
:104AA00081E0E0EAF6E08683FF91EF91BF91AF915C
:104AB0009F918F917F916F915F914F913F912F9136
:104AC0000F900BBE0F900FBE0F901F9018951F9266
:104AD0000F920FB60F920BB60F9211242F933F93A4
:104AE0004F935F936F937F938F939F93AF93BF93F6
:104AF000EF93FF938091AB219091AC21019780932C
:104B0000AB219093AC21892BA1F5E0E6F6E081E0A2
:104B100085838091A3219091A421A091A521B0919A
:104B2000A6210197A109B1098093A3219093A42103
:104B3000A093A521B093A6210097A105B10569F422
:104B40001092000884E085838091A021877F809364
:104B5000A021882311F40E9473238091A9219091B0
:104B6000AA218093AB219093AC2181E0E0E6F6E0AE
:104B70008683FF91EF91BF91AF919F918F917F912C
:104B80006F915F914F913F912F910F900BBE0F90BE
:104B90000FBE0F901F901895E0EAF0E082818064CC
:104BA00098ED94BF82830895E0EAF0E082818F7BE4
:104BB00098ED94BF8283089581E090E0089580E0AD
:104BC00090E00895813051F0813028F0843059F020
:104BD00020E130E00DC020E030E00AC0CB01642FBE
:104BE0000E94792904C0CB01642F0E94352D9C01BD
:104BF000C9010895813041F0813020F0843049F0BE
:104C000080E1089580E00895CB01BA010E940D274C
:104C10000895CB01BA010E94C62C0895813031F06D
:104C2000813038F0843039F080E10895CB010E9462
:104C3000472680E00895CB010E94242C80E008954F
:104C400085E090E50E94472680E090E10E94242CB8
:104C500080E090E28093B2249093B32480930C255B
:104C600090930D2580930E2590930F25809310250A
:104C7000909311250F920F928AE397E0EDB7FEB75C
:104C8000818392830E94E4420F900F9008959C01CB
:104C9000E82FEF7087E390E08093DF219093E0218D
:104CA00026FF06C087E390E08093DF219093E02108
:104CB00027FF06C083E390E08093DF219093E021FB
:104CC00030FF09C08091DF219091E02180618093C5
:104CD000DF219093E02131FF09C08091DF21909185
:104CE000E0218F7E8093DF219093E02132FF09C085
:104CF0008091DF219091E02180628093DF21909369
:104D0000E02133FF09C08091DF219091E0218F7D68
:104D10008093DF219093E02134FF09C08091DF214F
:104D20009091E02180648093DF219093E02135FF12
:104D300009C08091DF219091E0218F7B8093DF215A
:104D40009093E02136FF09C08091DF219091E0210E
:104D500080688093DF219093E02137FF09C0809124
:104D6000DF219091E0218F778093DF219093E021E4
:104D70001092E12181EE91E280930C2090930D201E
:104D800081E08093EC218093EB218093EE2180934E
:104D9000ED2182E08093E4218CED95E28093E72180
:104DA0009093E8218FED95E28093E9219093EA2199
:104DB00080EA98E0809314229093152280E496E094
:104DC0008093162290931722EE2309F4E5E08E2FAC
:104DD00090E0FC01EC5DF84FE491A0EAB8E0169693
:104DE000EC931697815D984FFC01849117968C93F4
:104DF000179788E114968C93149781E213968C93FD
:104E0000E0E4F6E084E0828388E08183858381E0CA
:104E1000828382E0818385830895AC0184FF05C08D
:104E20006093E7217093E8218BC085FF05C06093F4
:104E3000E9217093EA2184C08F709070009791F0FF
:104E4000A0911422B09115229C012C5D384FF901DC
:104E5000249116962C931697815D984FFC018491AE
:104E600017968C9346FF09C08091DF219091E02135
:104E700084608093DF219093E02147FF09C08091F7
:104E8000DF219091E0218B7F8093DF219093E021BF
:104E900050FF09C08091DF219091E02180618093D3
:104EA000DF219093E02151FF09C08091DF21909193
:104EB000E0218F7E8093DF219093E02152FF09C093
:104EC0008091DF219091E02180628093DF21909397
:104ED000E02153FF09C08091DF219091E0218F7D77
:104EE0008093DF219093E02154FF09C08091DF215E
:104EF0009091E02180648093DF219093E02155FF21
:104F000009C08091DF219091E0218F7B8093DF2188
:104F10009093E02156FF09C08091DF219091E0211C
:104F200080688093DF219093E02157FF09C0809132
:104F3000DF219091E0218F778093DF219093E02112
:104F400080E008951F920F920FB60F920BB60F924A
:104F500011248F939F93AF93BF93EF93FF9380910F
:104F6000EC2181508093EC218091EC21882319F46D
:104F700081E18093EC219091EC218091EB219817B5
:104F800061F0E091EC21F0E0A0911422B0911522A3
:104F90008C91E152FE4D818B0CC08091EC218F5F92
:104FA0008093EC218091EC21823118F081E0809394
:104FB000EC21FF91EF91BF91AF919F918F910F9055
:104FC0000BBE0F900FBE0F901F901895282F809149
:104FD000EC2181508093EC218091EC21882319F4FD
:104FE00081E18093EC219091EC218091EB21981745
:104FF00039F0E091EC21F0E0E152FE4D218B089573
:105000008091EC218F5F8093EC218091EC218231A3
:1050100018F081E08093EC2108951F93CF93DF93E4
:10502000EC0110E002C00E94E627FE01E10FF11D35
:1050300080811F5F8823B9F7DF91CF911F91089579
:105040001F920F920FB60F920BB60F9211248F93EF
:105050009F93AF93BF93EF93FF939091EE21809135
:10506000ED21981739F4E0911422F091152280E295
:1050700083831EC08091DF219091E02193FD18C0B1
:105080008091ED2181508093ED218091ED21882345
:1050900019F481E18093ED21E0911422F091152221
:1050A000A091ED21B0E0A152BE4D93968C918083EA
:1050B000FF91EF91BF91AF919F918F910F900BBE98
:1050C0000F900FBE0F901F901895482F2091DF2151
:1050D0003091E021D901A470B070B9016072707094
:1050E0009091EE219150C1F491E116C0109761F0BA
:1050F00080914800816080934800889580914800A5
:105100008E7F8093480008C09093EF2183E08093C6
:10511000E1212FEF3FEF54C08091ED21981731F33B
:105120009093EE21E091EE21F0E0E152FE4D43A399
:105130006115710521F04A3011F44DE0D1CF909303
:10514000EF21A0911422B091152211968C91119704
:1051500085FF27C09091EE218091ED21981771F184
:1051600038602093DF213093E0218091ED21815040
:105170008093ED218091ED21882319F481E18093C2
:10518000ED21E091ED21F0E0E152FE4D83A18C9301
:105190008091DF219091E021977F8093DF21909390
:1051A000E021E0911422F091152281E28383809125
:1051B000A2008160E0EAF0E08283789420E030E0B1
:1051C000C90108952091DF213091E02124703070D1
:1051D00015C02115310561F08091480081608093F0
:1051E00048008895809148008E7F8093480006C0D3
:1051F00083E08093E1212FEF3FEF26C09091EC21D7
:105200008091EB21981729F38091EB2181508093B5
:10521000EB218091EB21882319F481E18093EB212C
:10522000E091EB21F0E0E152FE4D81898F77809390
:10523000E22190E0880F991F8A59974FFC01259130
:105240003491F90119959C01C90108958091DF21DC
:1052500084FF08C060910E2570910F258091E22196
:105260000E9465288091E22190E008959091DF21CD
:1052700096FF03C08AE08093E22194FF08C060910A
:105280000E2570910F258091E2210E946528809162
:10529000E22190E008958091DF2187FF03C00E9402
:1052A000362908950E94262908958AE08093E121F5
:1052B0008FEF9FEF089584E08093E1218FEF9FEFC0
:1052C000089586E08093E1218FEF9FEF089587E0B6
:1052D0008093E1218FEF9FEF089588E08093E12193
:1052E0008FEF9FEF089589E08093E1218FEF9FEF8B
:1052F00008952091DF213091E02136FD0DC01092FC
:10530000E3216093E4218093E5219093E6213064CA
:105310002093DF213093E0219091EC218091EB21CB
:10532000981719F422E030E020C08091EB218150E1
:105330008093EB218091EB21882319F481E1809304
:10534000EB21E091EB21F0E0E152FE4D81898F7776
:105350008093E22190E0880F991F8A59984FFC01B1
:1053600025913491F90119959C01C90108959091F5
:10537000E3212091E421E091E521F091E621291734
:1053800048F481E08093E121E20FF11D108226E0D4
:1053900030E016C0E90FF11D8091E22180839F5F0C
:1053A0009093E3218091DF2184FF08C060910E2556
:1053B00070910F258091E2210E94652822E030E063
:1053C000C901089581E08093E1218091E321E0917A
:1053D000E521F091E621E80FF11D10822091DF21F7
:1053E0003091E021C9019F7B8093DF219093E021E0
:1053F00024FF07C060910E2570910F258AE00E945E
:105400006528E091E921F091EA218091E5219091D0
:10541000E621199508958091DF2187FF03C00E943E
:10542000E22908950E94B72908958091E3218150CF
:105430008093E3218091DF2184FF08C060910E25D5
:1054400070910F258091E2210E94652882E090E012
:10545000089584E08093E121E091E721F091E82133
:105460001995089586E08093E121E091E721F0917C
:10547000E8211995089587E08093E121E091E721E3
:10548000F091E8211995089588E08093E121E09159
:10549000E721F091E8211995089589E08093E121B1
:1054A000E091E721F091E82119950895982FE0EC1B
:1054B000F1E08091CF0187FDFACF262F30E02F71E8
:1054C0003070892F90E045E0880F991F4A95E1F7E9
:1054D000282B392B2093C001832F8F718183128257
:1054E00086E08287EF93FF930F932F93EBECF1E02D
:1054F00008ED21E004BF20832F910F91FF91EF91E0
:105500008091C4010895682F6F7155E09695879535
:105510005A95E1F70E94562A08958F929F92AF9272
:10552000BF92CF92DF92FF920F931F93CF93DF939F
:105530004C015B016A018B01EA01FF2418C0C8011C
:105540000E94832AFF2019F021E030E008C02F2DAF
:10555000332727FD30952227330F221F33270F5F74
:105560001F4FF82EF20EF40181934F0121972097DF
:1055700031F7C6018A0D9B1D0E94832A20E030E08E
:10558000F81611F421E030E0C901DF91CF911F91AD
:105590000F91FF90DF90CF90BF90AF909F908F9032
:1055A00008958091CF0187FDFCCF08958091CF01B0
:1055B00087FDFCCF8091CF0181FF12C086E3E0EC34
:1055C000F1E08287EF93FF930F932F93EBECF1E0E1
:1055D00008ED21E004BF20832F910F91FF91EF91FF
:1055E0000895DF92EF92FF920F931F93E82E062FFC
:1055F000D42E0E94D62AE0ECF1E083E3828710E00B
:105600000F711070FF2475E0EE0CFF1C7A95E1F726
:105610000E291F290083812F8F7181831282D482EA
:1056200085E38287EF93FF930F932F93EBECF1E0E9
:1056300008ED21E004BF20832F910F91FF91EF919E
:105640001F910F91FF90EF90DF900895462F682FE4
:105650006F71E5E096958795EA95E1F70E94F12A4A
:1056600008958F929F92AF92BF92CF92DF92EF9266
:10567000FF920F93DF93CF930F920F92CDB7DEB7C8
:105680005C016B017A014A0100E01EC0002319F0A1
:1056900021E030E008C0202F332727FD3095222756
:1056A000330F221F3327F60161916F01062F020F7E
:1056B0009C012F5F3F4F29833A830E94262B089439
:1056C0008108910889819A8181149104F9F6C701B2
:1056D0008A0D9B1D602F0E94262B0F900F90CF915B
:1056E000DF910F91FF90EF90DF90CF90BF90AF9040
:1056F0009F908F900895982FE0ECF1E08091CF017A
:1057000087FDFACF83E382879093C00111821282D2
:1057100064830895DC01E0ECF1E08091CF0187FD26
:10572000FACF83E382871182128290E09093C001C6
:105730008D9184839F5F9032C9F70895982FE0EC94
:10574000F1E08091CF0187FDFACF892F90E0A5E0AD
:10575000880F991FAA95E1F78093C001892F8F7157
:105760008183128285E38287EF93FF930F932F93B8
:10577000EBECF1E008ED21E004BF20832F910F91C5
:10578000FF91EF910895982FE0ECF1E08091CF0127
:1057900087FDFACF892F90E0B5E0880F991FBA9561
:1057A000E1F78093C001892F8F718183128282E398
:1057B0008287EF93FF930F932F93EBECF1E008EDCB
:1057C00021E004BF20832F910F91FF91EF91089565
:1057D000982FE0ECF1E08091CF0187FDFACF892F7F
:1057E00090E025E0880F991F2A95E1F78093C0018A
:1057F000892F8F718183128284E38287EF93FF93D5
:105800000F932F93EBECF1E008ED21E004BF208330
:105810002F910F91FF91EF9108958091CF0187FD16
:10582000FCCF80E3E0ECF1E08287EF93FF930F93EE
:105830002F93EBECF1E008ED21E004BF20832F91E2
:105840000F91FF91EF9108959C0185E090E0809386
:1058500018229093192225FF06C087E090E08093DC
:1058600018229093192227FF09C080911822909145
:1058700019228B7F809318229093192230FF09C040
:105880008091182290911922806180931822909320
:10589000192231FF09C080911822909119228F7E20
:1058A000809318229093192232FF09C08091182208
:1058B000909119228062809318229093192233FFCD
:1058C00009C080911822909119228F7D809318220F
:1058D0009093192234FF09C08091182290911922C7
:1058E0008064809318229093192235FF09C080911B
:1058F0001822909119228F7B80931822909319225D
:1059000036FF09C0809118229091192280688093F7
:1059100018229093192237FF09C080911822909184
:1059200019228F77809318229093192210922622A1
:105930001092272210921A228AE192E280931A2072
:1059400090931B2082E080931D228CED95E2809342
:105950001E2290931F228FED95E280932022909338
:105960002122089520911822309119223F7020930E
:10597000182230931922809324229093252210928A
:105980002622109227228EE090E208959C0184FF47
:1059900005C060931E2270931F2262C085FF05C060
:1059A00060932022709321225BC085E090E0809379
:1059B00018229093192230FF06C085E190E0809371
:1059C00018229093192231FF09C0809118229091DA
:1059D00019228F7E809318229093192232FF09C0DA
:1059E00080911822909119228062809318229093BE
:1059F000192233FF09C080911822909119228F7DBE
:105A0000809318229093192234FF09C080911822A4
:105A1000909119228064809318229093192235FF67
:105A200009C080911822909119228F7B80931822AF
:105A30009093192236FF09C0809118229091192263
:105A40008068809318229093192237FF09C08091B3
:105A50001822909119228F778093182290931922FF
:105A600080E008958FEF9FEF08959C01809124229C
:105A700090912522892BA9F010921A22C90170E079
:105A80004EE050E20E948542892B59F41092242264
:105A9000109225228EE090E20E94804224E030E0C5
:105AA00002C020E030E0C9010895409118225091D1
:105AB000192255FF06C082E080931A222EEF3FEF95
:105AC0003FC02091262230912722E0912422F0919C
:105AD0002522E20FF31F849180931B22882329F44F
