:100000000C945B3D0C947C3D0C9457B60C947C3D59
:100010000C947C3D0C947C3D0C947C3D0C947C3D7C
:100020000C947C3D0C947C3D0C947C3D0C94A0B8CD
:100030000C947C3D0C947C3D0C94F09E0C947C3D87
:100040000C947C3D0C947C3D0C947C3D0C947C3D4C
:100050000C947C3D0C947C3D0C947C3D0C947C3D3C
:100060000C947C3D0C9471B60C94FCB50C947C3DC6
:100070000C9408B00C94A7AF0C94E0AF0C947C3DAA
:100080000C9464B70C947C3D0C947C3D0C947C3DAA
:100090000C947C3D0C947C3D0C947C3D0C947C3DFC
:1000A0000C947C3D0C947C3D0C947C3D0C94AAA457
:1000B0000C9406A40C947C3D0C947C3D0C94859E81
:1000C0000C947C3D0C947C3D0C947C3D0C947C3DCC
:1000D0000C947C3D0C947C3D0C947C3D0C947C3DBC
:1000E0000C94D1920C947C3D0C947C3D0C947C3D02
:1000F0000C947C3D0C947C3D0C947C3D0C947C3D9C
:100100000C94D3A40C942FA40C94FCA40C9458A489
:100110000C947C3D0C947C3D0C947C3D0C947C3D7B
:100120000C947C3D0C947C3D0C947C3D0C947C3D6B
:100130000C947C3D0C94AF9E0C947C3D0C947C3DC7
:100140000C947C3D0C947C3D0C947C3D0C947C3D4B
:100150000C947C3D0C947C3D0C94C7920C947C3D9B
:100160000C947C3D0C947C3D0C947C3D0C947C3D2B
:100170000C947C3D0C947C3D0C947C3D0C947C3D1B
:100180000C947C3D0C947C3D0C947C3D0C947C3D0B
:100190000C947C3D0C947C3D0C947C3D0C947C3DFB
:1001A0000C9481A40C94DDA30C947C3D0C947C3DB8
:1001B0000C94E49C0C947C3D0C947C3D0C947C3D14
:1001C0000C947C3D0C947C3D0C947C3D0C947C3DCB
:1001D0000C947C3D0C947C3D0C947C3D0C947C3DBB
:1001E0000C947C3D0C947C3D4B685C686D68076B9F
:1001F000076BE5670966076B7E688F68A068DA6839
:100200006867C268076BF667076BB1680768DA67EB
:10021000076B076B076B186829683A68CBA55AA566
:100220005FA564A569A56EA573A578A57DA582A522
:1002300087A58CA591A596A59BA5B2A5B2A5B2A5AB
:10024000B2A5B2A5B2A5B2A5B2A5B2A5B2A5B2A5F6
:10025000B2A5B2A5B2A5B2A5B2A5B2A5B2A5B2A5E6
:10026000B2A5B2A5B2A5B2A5B2A5B2A5B2A5B2A5D6
:10027000B2A5B2A5B2A5B2A5B2A5B2A5B2A5B2A5C6
:10028000A0A5A5A5AAA5084AD73B3BCE016E84BC74
:10029000BFFDC12F3D6C74319ABD56833DDA3D00E0
:1002A000C77F11BED9E4BB4C3E916BAAAABE000029
:1002B00000803F05A84CCDB2D44EB93836A9020C07
:1002C00050B9918688083CA6AAAA2ABE00000080E0
:1002D0003F07634236B79BD8A71A39685618AEBA9B
:1002E000AB558C1D3CB7CC5763BD6DEDFD753EF62F
:1002F000177231BF000000803F08000000BE92244A
:1003000049123EABAAAA2ABECDCCCC4C3E0000007E
:1003100080BEABAAAAAA3E00000000BF0000008079
:100320003F0000000000084178D3BB4387D1133D54
:10033000190E3CC3BD4282AD2B3E68EC8276BED91D
:100340008FE1A93E4C80EFFFBE01C4FF7F3F00005C
:100350000000005B257325735D2025732025732025
:10036000706F736974696F6E2531382E336625732B
:100370000A005B257325735D202573202573206F8C
:1003800066667365742532302E336625730A005B0A
:10039000257325735D202573207A65726F20626155
:1003A000636B6F66662531392E336625730A005BF1
:1003B000257325735D202573206C6174636820624A
:1003C00061636B6F66662531382E336625730A00CC
:1003D0005B257325735D202573206C617463682031
:1003E00076656C6F636974792531372E33662573B2
:1003F0002F6D696E0A005B257325735D20257320C0
:100400007365617263682076656C6F6369747925C2
:1004100031362E336625732F6D696E0A005B2573A6
:1004200025735D20257320737769746368206D617F
:100430007825313764205B303D6F66662C313D682E
:100440006F6D696E672C323D6C696D69742C333D3C
:100450006C696D69742B686F6D696E675D0A005B0E
:10046000257325735D202573207377697463682075
:100470006D696E25313764205B303D6F66662C31C7
:100480003D686F6D696E672C323D6C696D69742CC7
:10049000333D6C696D69742B686F6D696E675D0AB9
:1004A000005B257325735D20257320726164697577
:1004B000732076616C75652532302E346625730A9B
:1004C000005B257325735D202573206A756E637448
:1004D000696F6E20646576696174696F6E25313469
:1004E0002E3466257320286C6172676572206973EB
:1004F00020666173746572290A005B257325735D3C
:10050000202573206A65726B20686F6D696E6725A0
:1005100031362E306625732F6D696E5E33202A20AA
:1005200031206D696C6C696F6E0A005B25732573F1
:100530005D202573206A65726B206D6178696D7529
:100540006D2531352E306625732F6D696E5E332033
:100550002A2031206D696C6C696F6E0A005B25730F
:1005600025735D2025732074726176656C206D693A
:100570006E696D756D2531372E336625730A005B04
:10058000257325735D2025732074726176656C2058
:100590006D6178696D756D2531372E336625730A67
:1005A000005B257325735D2025732076656C6F6372
:1005B000697479206D6178696D756D2531352E33DB
:1005C0006625732F6D696E0A005B257325735D20A8
:1005D0002573206665656472617465206D61786954
:1005E0006D756D2531352E336625732F6D696E0A55
:1005F000005B257325735D20257320617869732066
:100600006D6F6465253138642025730A005B6D7356
:100610005D20206D696E207365676D656E74207452
:10062000696D652531332E306620755365630A0088
:100630005B6D615D20206D696E2061726320736562
:10064000676D656E742531382E336625730A005B3D
:100650006D6C5D20206D696E206C696E6520736520
:10066000676D656E742531372E336625730A005B1E
:1006700063745D202063686F7264616C20746F6CBA
:100680006572616E63652531362E336625730A0007
:100690005B6A615D20206A756E6374696F6E2061AC
:1006A0006363656C65726174696F6E25382E3066A0
:1006B00025730A005B6764695D2064656661756C1B
:1006C000742067636F64652064697374616E636529
:1006D000206D6F6465253264205B303D4739302CD6
:1006E000313D4739315D0A005B6770615D206465AB
:1006F0006661756C742067636F64652070617468EF
:1007000020636F6E74726F6C253364205B303D47DD
:1007100036312C313D4736312E312C323D4736347F
:100720005D0A005B67636F5D2064656661756C746C
:100730002067636F646520636F6F726420737973E1
:1007400074656D253364205B312D362028473534A0
:100750002D473539295D0A005B67756E5D2064653C
:100760006661756C742067636F646520756E69746B
:1007700073206D6F6465253564205B303D473230F2
:100780002C313D4732315D0A005B67706C5D20643F
:10079000656661756C742067636F646520706C6159
:1007A0006E6525313064205B303D4731372C313D5B
:1007B0004731382C323D4731395D0A002563206DC1
:1007C000616368696E6520706F736E3A2531312EF2
:1007D000336625730A00256320706F736974696F2F
:1007E0006E3A2531352E336625730A00546F6F6CCF
:1007F000206E756D62657220202020202020202030
:100800002025640A00466565642072617465206D68
:100810006F64653A20202020202025730A00446957
:100820007374616E6365206D6F64653A20202020CB
:1008300020202025730A0050617468204D6F646584
:100840003A202020202020202020202025730A006C
:10085000506C616E653A202020202020202020202E
:10086000202020202025730A004D6F74696F6E20B0
:100870006D6F64653A2020202020202020202573E1
:100880000A00436F6F7264696E61746520737973D7
:1008900074656D3A20202025730A00556E697473C3
:1008A0003A2020202020202020202020202020202E
:1008B00025730A00486F6D696E67207374617465F3
:1008C0003A202020202020202025730A004665653C
:1008D00064686F6C642073746174653A2020202012
:1008E000202025730A004D6F74696F6E2073746148
:1008F00074653A202020202020202025730A004300
:1009000079636C652073746174653A20202020201F
:100910002020202025730A00526177206D616368D2
:10092000696E652073746174653A20202025730A0E
:10093000004D616368696E652073746174653A2067
:1009400020202020202025730A004C696E65206E2F
:10095000756D6265723A2531302E30660A00466543
:10096000656420726174653A2531362E33662573CD
:100970002F6D696E0A0056656C6F636974793A254C
:1009800031372E336625732F6D696E0A00070A14FE
:100990000A1A0A230A280A2C0A300A350A3B0A4195
:1009A0000A480A4C0A590A5F0A650A6A0A6E0A72FC
:1009B0000A7A0A810A870A8C0A900A950A990A9E7D
:1009C0000AA30AA90AAE0AB80ABE0AD00AE60A06AB
:1009D0000B200B3A0B540B6E0B880BA20BBF0BD1E9
:1009E0000BEA0B0B0C320C410C500C5F0C5F0C75BE
:1009F0000C8B0CA80CC80CF90C110D1C0D270D3319
:100A00000D3C0D400D440D496E697469616C697A45
:100A1000696E670052656164790053687574646F2C
:100A2000776E0053746F7000456E640052756E00EF
:100A3000486F6C640050726F6265004379636C6547
:100A400000486F6D696E67004A6F6700496E697490
:100A500069616C697A696E670052657365740043F9
:100A600079636C650053746F7000456E64004F6667
:100A700066005374617274656400486F6D696E67D7
:100A80000050726F62650053746F700052756E0093
:100A9000486F6C64004F66660053796E6300506C5B
:100AA000616E00446563656C00486F6C64004E6F56
:100AB0007420486F6D656400486F6D65640047324F
:100AC00030202D20696E63686573206D6F6465004A
:100AD000473231202D206D696C6C696D65746572CB
:100AE000206D6F646500473533202D206D6163688C
:100AF000696E6520636F6F7264696E6174652073DF
:100B0000797374656D00473534202D20636F6F72E3
:100B100064696E6174652073797374656D2031004A
:100B2000473535202D20636F6F7264696E6174657F
:100B30002073797374656D203200473536202D207F
:100B4000636F6F7264696E61746520737973746525
:100B50006D203300473537202D20636F6F72646935
:100B60006E6174652073797374656D203400473548
:100B700038202D20636F6F7264696E617465207315
:100B8000797374656D203500473539202D20636FEA
:100B90006F7264696E6174652073797374656D201A
:100BA0003600473020202D206C696E6561722074FC
:100BB0007261766572736520287365656B290047DD
:100BC0003120202D206C696E656172206665656438
:100BD00000473220202D20636C6F636B776973654B
:100BE00020617263206665656400473320202D20F4
:100BF000636F756E74657220636C6F636B77697376
:100C00006520617263206665656400473830202D79
:100C10002063616E63656C206D6F74696F6E206D0B
:100C20006F646520286E6F6E6520616374697665F8
:100C30002900473137202D20585920706C616E658E
:100C400000473138202D20585A20706C616E6500A5
:100C5000473139202D20595A20706C616E6500474C
:100C60003631202D2065786163742073746F702095
:100C70006D6F646500473634202D20636F6E746994
:100C80006E756F7573206D6F646500473930202D68
:100C9000206162736F6C7574652064697374616E32
:100CA0006365206D6F646500473931202D20696EC2
:100CB0006372656D656E74616C2064697374616ED6
:100CC0006365206D6F646500473934202D20756E93
:100CD0006974732D7065722D6D696E757465206D04
:100CE0006F64652028692E652E20666565647261D3
:100CF0007465206D6F64652900473933202D2069A4
:100D00006E76657273652074696D65206D6F6465BC
:100D1000005B64697361626C65645D005B73746140
:100D20006E646172645D005B696E686962697465B6
:100D3000645D005B7261646975735D0020696E00BB
:100D4000206D6D0020646567007379730066620032
:100D500000000007028E6CBF50EA504B33EC91C686
:100D600043737973006676000000000703926CBF3E
:100D700050EA504F33EC51783F737973006870003C
:100D80000000000700966CBF509B51533300008059
:100D90003F7379730068760000000007009A6CBF0B
:100DA000506E6C5733000000417379730069640022
:100DB00000000004009E6C106CEA504733000000F5
:100DC00000000000006E00000000000100784EB836
:100DD0004C55516F2B00000000000000006C696E44
:100DE0006500000100784ECF4C55516F2B0000007C
:100DF000000000000076656C00000000023C4EE63A
:100E00004CEA5047330000000000000000666565B2
:100E100064000000025A4EC651EA504733000000F9
:100E2000000000000073746174000000007C4E2913
:100E30004CEA50473300000000000000006D616381
:100E40007300000000804E364CEA5047330000002B
:100E500000000000006379637300000000844E3CD2
:100E60004CEA50473300000000000000006D6F7432
:100E70007300000000884E424CEA504733000000E7
:100E80000000000000686F6C64000000008C4E4899
:100E90004CEA5047330000000000000000756E6906
:100EA0007400000000944E544CEA50473300000098
:100EB0000000000000636F6F7200000000984E5F3A
:100EC0004CEA50473300000000000000006D6F6DD9
:100ED0006F000000009C4E6A4CEA5047330000004F
:100EE0000000000000706C616E00000000A04E73F6
:100EF0004CEA5047330000000000000000706174AD
:100F00006800000000A44E7E4CEA50473300000009
:100F100000000000006469737400000000A84E899E
:100F20004CEA504733000000000000000066726D7C
:100F30006F00000000AC4E944CEA504733000000B4
:100F40000000000000746F6F6C00000000B04E9F46
:100F50004CEA504733000000006D706F006D706FF9
:100F60007800000003E84F3E4DEA50473300000090
:100F7000006D706F006D706F7900000003E84F3EE8
:100F80004DEA504733000000006D706F006D706FC8
:100F90007A00000003E84F3E4DEA5047330000005E
:100FA000006D706F006D706F6100000003E84F3ED0
:100FB0004DEA504733000000006D706F006D706F98
:100FC0006200000003E84F3E4DEA50473300000046
:100FD000006D706F006D706F6300000003E84F3E9E
:100FE0004DEA50473300000000706F7300706F735C
:100FF0007800000003E24F194DEA5047330000002B
:1010000000706F7300706F737900000003E24F1976
:101010004DEA50473300000000706F7300706F732B
:101020007A00000003E24F194DEA504733000000F8
:1010300000706F7300706F736100000003E24F195E
:101040004DEA50473300000000706F7300706F73FB
:101050006200000003E24F194DEA504733000000E0
:1010600000706F7300706F736300000003E24F192C
:101070004DEA504733000000006F6673006F6673DF
:101080007800000003E84F6E4DEA5047330000003F
:10109000006F6673006F66737900000003E84F6E9F
:1010A0004DEA504733000000006F6673006F6673AF
:1010B0007A00000003E84F6E4DEA5047330000000D
:1010C000006F6673006F66736100000003E84F6E87
:1010D0004DEA504733000000006F6673006F66737F
:1010E0006200000003E84F6E4DEA504733000000F5
:1010F000006F6673006F66736300000003E84F6E55
:101100004DEA50473300000000686F6D00686F6D56
:101110006500000000904E4E4C044E473300000026
:1011200000686F6D00686F6D7800000000E24F5F2F
:1011300050EA505D2B00000000686F6D00686F6D15
:101140007900000000E24F5F50EA505E2B00000083
:1011500000686F6D00686F6D7A00000000E24F5FFD
:1011600050EA505F2B00000000686F6D00686F6DE3
:101170006100000000E24F5F50EA50602B00000069
:1011800000686F6D00686F6D6200000000E24F5FE5
:1011900050EA50612B00000000686F6D00686F6DB1
:1011A0006300000000E24F5F50EA50622B00000035
:1011B000006A6F67006A6F67780000000047A95BEC
:1011C00050204E692B000000006A6F67006A6F674D
:1011D000790000000047A95B50274E692B000000F2
:1011E000006A6F67006A6F677A0000000047A95BBA
:1011F000502E4E692B000000006A6F67006A6F670F
:10120000610000000047A95B50354E692B000000CB
:10121000000000000073720000000000000998DC6C
:1012200097DE974733000000000000000071720055
:101230000000000000FF98B598EA50473300000016
:10124000000000000071690000000000000399C95F
:1012500098EA5047330000000000000000716F0062
:1012600000000000000799E498EA504733000000AE
:101270000000000000657200000000000047A9BCEB
:1012800094EA50473300000000000000007166003F
:10129000000000000047A95B50FF4D4733000000ED
:1012A00000000000007278000000000000A5A9E91D
:1012B00057EA50473300000000000000006D7367DC
:1012C00000000000005EA95B50EA504733000000B8
:1012D0000000000000746573740000000047A91945
:1012E0006D49A547330000000000000000646566FA
:1012F000610000000047A93C6DF155473300000034
:101300000000000000626F6F740000000047A95FDA
:101310006D696C4733000000000000000068656CD8
:10132000700000000047A9E26CEA5047330000005B
:101330000000000000680000000000000047A9E273
:101340006CEA5047330000000031000000316D614D
:101350000000000300AFA25F50EC50254E0000409B
:1013600040310000003173610000000302B3A2BFEE
:1013700050FAA02D4E6666E63F31000000317472CF
:101380000000000303B8A2C65107A1314E0000B40B
:101390004331000000316D690000000300C7A25F07
:1013A0005014A1264E000000413100000031706F42
:1013B0000000000300CBA25F500D51274E000080BB
:1013C0003F3100000031706D0000000300CFA25FCC
:1013D00050CEA1284E0000803F31000000316D70DA
:1013E0000000000303D3A2BF506CA2294E0000C826
:1013F0004132000000326D610000000300AFA25FC7
:1014000050EC50394E000000403200000032736151
:101410000000000302B3A2BF50FAA0414E000070CA
:1014200041320000003274720000000303B8A2C60B
:101430005107A1454E5C8FA23F32000000326D691A
:101440000000000300C7A25F5014A13A4E00000044
:10145000413200000032706F0000000300CBA25F39
:10146000500D513B4E0000803F3200000032706D45
:101470000000000300CFA25F50CEA13C4E00000050
:101480000032000000326D700000000303D3A2BFE1
:10149000506CA23D4E0000C84133000000336D6126
:1014A0000000000300AFA25F50EC504D4E000080E2
:1014B0003F330000003373610000000302B3A2BF9A
:1014C00050FAA0554E6666E63F3300000033747252
:1014D0000000000303B8A2C65107A1594E5C8FA2B9
:1014E0004033000000336D690000000300C7A25FB5
:1014F0005014A14E4E000000413300000033706FC5
:101500000000000300CBA25F500D514F4E00008041
:101510003F3300000033706D0000000300CFA25F76
:1015200050CEA1504E0000000033000000336D701B
:101530000000000303D3A2BF506CA2514E0000C8AC
:101540004134000000346D610000000300AFA25F71
:1015500050EC50614E000000003400000034736114
:101560000000000302B3A2BF50FAA0694E6666E60F
:101570003F340000003474720000000303B8A2C6B8
:101580005107A16D4E5C8FA24034000000346D699C
:101590000000000300C7A25F5014A1624E000000CB
:1015A000413400000034706F0000000300CBA25FE4
:1015B000500D51634E000000003400000034706D87
:1015C0000000000300CFA25F50CEA1644E000000D7
:1015D0000034000000346D700000000303D3A2BF8C
:1015E000506CA2654E0000C8417800000078616D23
:1015F00000000003005E4F994DAC4D312A00008081
:101600003F7800000078766D0000000300A64FC60A
:1016100051E351362A0080BB44780000007866729E
:101620000000000300A24FC651E351322A0080BBE4
:10163000447800000078746D0000000300AA4FC6D3
:1016400051E3513A2A000016437800000078746E86
:101650000000000300AE4FC651E3513E2A000000D7
:101660000078000000786A6D0000000300B24FCFE0
:101670004DD34D422A0000164478000000786A6875
:101680000000000300B64FCF4DD34D462A0000C8DE
:101690004378000000786A640000000304BA4FC673
:1016A00051E3514A2A0AD7233C7800000078736E30
:1016B0000000000300C24F5F502BA5562900008098
:1016C0003F780000007873780000000300C64F5F89
:1016D000502BA55729000000007800000078737691
:1016E0000000000300CA4FC651E351522A00803B5C
:1016F0004478000000786C760000000300CE4FC6EE
:1017000051E351562A0000164378000000786C62BD
:101710000000000303D24FC651E3515A2A0000A033
:101720004078000000787A620000000303D64FC6BC
:1017300051E3515E2A000000007900000079616DDC
:1017400000000003005E4F994DAC4D622A000080FE
:101750003F7900000079766D0000000300A64FC6B7
:1017600051E351672A0080BB44790000007966721A
:101770000000000300A24FC651E351632A0080BB62
:10178000447900000079746D0000000300AA4FC680
:1017900051E3516B2A0000FA427900000079746E1F
:1017A0000000000300AE4FC651E3516F2A00000055
:1017B0000079000000796A6D0000000300B24FCF8D
:1017C0004DD34D732A0000164479000000796A68F1
:1017D0000000000300B64FCF4DD34D772A0000C85C
:1017E0004379000000796A640000000304BA4FC620
:1017F00051E3517B2A0AD7233C7900000079736EAC
:101800000000000300C24F5F502BA5582900008044
:101810003F790000007973780000000300C64F5F35
:10182000502BA5592900000000790000007973763B
:101830000000000300CA4FC651E351832A00803BD9
:101840004479000000796C760000000300CE4FC69A
:1018500051E351872A0000164379000000796C6239
:101860000000000303D24FC651E3518B2A0000A0B1
:101870004079000000797A620000000303D64FC669
:1018800051E3518F2A000000007A0000007A616D58
:1018900000000003005E4F994DAC4D932A0000807C
:1018A0003F7A0000007A766D0000000300A64FC664
:1018B00051E351982A000048447A0000007A667289
:1018C0000000000300A24FC651E351942A00007AA1
:1018D000447A0000007A746D0000000300AA4FC62D
:1018E00051E3519C2A0000A0427A0000007A746EF5
:1018F0000000000300AE4FC651E351A02A000000D3
:10190000007A0000007A6A6D0000000300B24FCF39
:101910004DD34DA42A000016447A0000007A6A686C
:101920000000000300B64FCF4DD34DA82A0000C8D9
:10193000437A0000007A6A640000000304BA4FC6CC
:1019400051E351AC2A0AD7233C7A0000007A736E27
:101950000000000300C24F5F502BA55A2900000071
:10196000007A0000007A73780000000300C64F5F21
:10197000502BA55B290000803F7A0000007A737627
:101980000000000300CA4FC651E351B42A0000FA18
:10199000437A0000007A6C760000000300CE4FC648
:1019A00051E351B82A0000C8427A0000007A6C6204
:1019B0000000000303D24FC651E351BC2A0000A02F
:1019C000407A0000007A7A620000000303D64FC616
:1019D00051E351C02A000000006100000061616D08
:1019E00000000003005E4F994DAC4DC42A0000403A
:1019F000406100000061766D0000000300A64FBF4B
:101A0000509B51C92A0000B4446100000061667215
:101A10000000000300A24FBF509B51C52A0000B434
:101A2000446100000061746D0000000300AA4FBF14
:101A3000509B51CD2A000080BF6100000061746E90
:101A40000000000300AE4FC651E351D12A000080D0
:101A5000BF61000000616A6D0000000300B24FCF5B
:101A60004DD34DD52A0000164461000000616A681C
:101A70000000000300B64FCF4DD34DD92A00001609
:101A80004461000000616A640000000304BA4FBFB3
:101A9000509B51DD2A0AD7233C610000006172612E
:101AA0000000000303BE4FBF509B51E12ACF2E65BB
:101AB000426100000061736E0000000300C24F5FCE
:101AC000502BA55C290000803F6100000061737805
:101AD0000000000300C64F5F502BA55D29000000E9
:101AE00000610000006173760000000300CA4FBF70
:101AF000509B51E52A0000164461000000616C769D
:101B00000000000300CE4FBF509B51E92A0000C8DF
:101B10004261000000616C620000000303D24FBF0D
:101B2000509B51ED2A0000A04061000000617A62E4
:101B30000000000303D64FBF509B51F12A00000064
:101B4000406200000062616D00000003005E4F997A
:101B50004DAC4DF52A000000006200000062766D79
:101B60000000000300A64FBF509B51FA2A000061FD
:101B700045620000006266720000000300A24FBFD1
:101B8000509B51F62A000061456200000062746DAE
:101B90000000000300AA4FBF509B51FE2A000080A6
:101BA000BF6200000062746E0000000300AE4FC60A
:101BB00051E351022B000080BF62000000626A6D99
:101BC0000000000300B24FCF4DD34D062B0000168E
:101BD0004462000000626A640000000300BA4FBF64
:101BE000509B510E2B0AD7233C62000000627261A9
:101BF0000000000303BE4FBF509B51122B0000801A
:101C00003F6300000063616D00000003005E4F99B8
:101C10004DAC4D262B000000006300000063766D84
:101C20000000000300A64FBF509B512B2B0000610A
:101C300045630000006366720000000300A24FBF0E
:101C4000509B51272B000061456300000063746DB9
:101C50000000000300AA4FBF509B512F2B000080B3
:101C6000BF63000000636A6D0000000300B24FCF45
:101C70004DD34D372B000016446300000063746E93
:101C80000000000300AE4FC651E351332B0000802B
:101C9000BF63000000636A640000000300BA4FBF26
:101CA000509B513F2B0AD7233C63000000637261B5
:101CB0000000000303BE4FBF509B51432B00008028
:101CC0003F7031000070316672710003000794BFED
:101CD000509B510C4D0000C84270310000703163C0
:101CE000736C0003000B94BF509B51104D00007AA1
:101CF000447031000070316373680003000F94BFBB
:101D0000509B51144D0000FA447031000070316353
:101D1000706C0003031394BF509B51184D000000DA
:101D20003E7031000070316370680003031794BF88
:101D3000509B511C4DCDCC4C3E7031000070317722
:101D4000736C0003001B94BF509B51204D00007A20
:101D5000447031000070317773680003001F94BF36
:101D6000509B51244D0000FA4470310000703177CF
:101D7000706C0003032394BF509B51284D0000005A
:101D80003E7031000070317770680003032794BF04
:101D9000509B512C4DCDCC4C3E70310000703170B9
:101DA0006F660003032B94BF509B51304DCDCCCCBC
:101DB0003D673534006735347800000303DA4FC6D9
:101DC00051E351A129000000006735340067353424
:101DD0007900000303DA4FC651E351A52900000042
:101DE00000673534006735347A00000303DA4FC6E4
:101DF00051E351A9290000000067353400673534EC
:101E00006100000303DA4FC651E351AD2900000021
:101E100000673534006735346200000303DA4FC6CB
:101E200051E351B1290000000067353400673534B3
:101E30006300000303DA4FC651E351B529000000E7
:101E400000673535006735357800000303DA4FC683
:101E500051E351B929000000006735350067353579
:101E60007900000303DA4FC651E351BD2900000099
:101E700000673535006735357A00000303DA4FC651
:101E800051E351C1294C3770C2673535006735358C
:101E90006100000303DA4FC651E351C52900000079
:101EA00000673535006735356200000303DA4FC639
:101EB00051E351C929000000006735350067353509
:101EC0006300000303DA4FC651E351CD290000003F
:101ED00000673536006735367800000303DA4FC6F1
:101EE00051E351D1290000000067353600673536CF
:101EF0007900000303DA4FC651E351D529000000F1
:101F000000673536006735367A00000303DA4FC6BE
:101F100051E351D929000000006735360067353696
:101F20006100000303DA4FC651E351DD29000000D0
:101F300000673536006735366200000303DA4FC6A6
:101F400051E351E12900000000673536006735365E
:101F50006300000303DA4FC651E351E52900000096
:101F600000673537006735377800000303DA4F9D87
:101F7000507951E92900000000673537006735378F
:101F80007900000303DA4F9D507951ED29000000DC
:101F900000673537006735377A00000303DA4F9D55
:101FA000507951F129000000006735370067353757
:101FB0006100000303DA4F9D507951F529000000BC
:101FC00000673537006735376200000303DA4F9D3D
:101FD000507951F92900000000673537006735371F
:101FE0006300000303DA4F9D507951FD2900000082
:101FF00000673538006735387800000300DA4F9DF8
:10200000507951012A0000000067353800673538E3
:102010007900000300DA4F9D507951052A00000035
:1020200000673538006735386100000300DA4F9DDE
:102030005079510D2A0000000067353800673538A7
:102040007A00000300DA4F9D507951092A00000000
:1020500000673538006735386200000300DA4F9DAD
:10206000507951112A000000006735380067353873
:102070006300000300DA4F9D507951152A000000DB
:1020800000673539006735397800000303DA4F9D62
:10209000507951192A000000006735390067353939
:1020A0007900000303DA4F9D5079511D2A0000008A
:1020B00000673539006735397A00000303DA4F9D30
:1020C000507951212A000000006735390067353901
:1020D0006100000303DA4F9D507951252A0000006A
:1020E00000673539006735396200000303DA4F9D18
:1020F000507951292A0000000067353900673539C9
:102100006300000303DA4F9D5079512D2A0000002F
:1021100000673932006739327800000103DA4FC6B0
:1021200051EA50E02B000000006739320067393275
:102130007900000103DA4FC651EA50E42B00000099
:1021400000673932006739327A00000103DA4FC67E
:1021500051EA50E82B00000000673932006739323D
:102160006100000103DA4FBF50EA50EC2B00000081
:1021700000673932006739326200000103DA4FBF6D
:1021800050EA50F02B000000006739320067393206
:102190006300000103DA4FBF50EA50F42B00000047
:1021A00000673238006732387800000103DE4FC61E
:1021B00051EA50F82B0000000067323800673238CF
:1021C0007900000103DE4FC651EA50FC2B000000ED
:1021D00000673238006732387A00000103DE4FC6EC
:1021E00051EA50002C000000006732380067323896
:1021F0006100000103DE4FBF50EA50042C000000D4
:1022000000673238006732386200000103DE4FBFDA
:1022100050EA50082C00000000673238006732385E
:102220006300000103DE4FBF50EA500C2C00000099
:1022300000673330006733307800000103DE4FC69B
:1022400051EA50102C000000006733300067333033
:102250007900000103DE4FC651EA50142C00000043
:1022600000673330006733307A00000103DE4FC669
:1022700051EA50182C0000000067333000673330FB
:102280006100000103DE4FBF50EA501C2C0000002B
:1022900000673330006733306200000103DE4FBF58
:1022A00050EA50202C0000000067333000673330C4
:1022B0006300000103DE4FBF50EA50242C000000F1
:1022C000006A6964006A6964610000000047A97ED1
:1022D0005055516E33000000006A6964006A6964F9
:1022E000620000000047A97E505551723300000083
:1022F000006A6964006A6964630000000047A97E9F
:102300005055517633000000006A6964006A6964C0
:10231000640000000047A97E5055517A3300000048
:1023200000737973006A61000000000700C84EC6A0
:1023300051E35170290050C34773797300637400EF
:102340000000000704E64EC651E35174296F128362
:102350003A73797300737400000000070045A55FAD
:102360005025A54B290000803F737973006D7400E0
:102370000000000702ABA2BF50FAA1214E000000EE
:1023800040000000006D650000000000005EA953E1
:10239000A253A2473300000000000000006D64005B
:1023A00000000000005EA93AA23AA24733000000F4
:1023B0000073797300656A000000000700A2725F75
:1023C000500D513C330000803F737973006A7600F2
:1023D0000000000700A6725F503472F5360000005E
:1023E00000737973007476000000000700DDA95FB8
:1023F000500D51F64E0000803F73797300717600E6
:1024000000000007000B995F503D51624D00000035
:10241000007379730073760000000007000F985F67
:10242000502551694D0000000073797300736900F5
:1024300000000007000B987E50E0976A4D00007A7C
:10244000437379730065630000000007000E585F56
:1024500050B6573D33000000007379730065650086
:1024600000000007000A585F5083573E3300000009
:102470000073797300657800000000070006585F5C
:102480005050573F330000803F737973006261758D
:10249000640000040002585F50D35640330000A08F
:1024A00040737973006E65740000000300FE575F8F
:1024B00050EC505E33000000007379730067706C5D
:1024C0000000000700B44E5F502551852900000030
:1024D000007379730067756E0000000700B84E5FE7
:1024E000500D5186290000803F7379730067636F38
:1024F0000000000700BC4E5F50EC50842900000033
:1025000040737973006770610000000700C04E5F80
:102510005025518729000000407379730067646972
:102520000000000700C44E5F500D518829000000D4
:102530000000000000676300000000000047A921C0
:102540006B316B473300000000000000006D73002A
:102550000000000300404FBF509B51802900409C69
:1025600045000000006D6C000000000304044FC62D
:1025700051E35178290AD7A33D000000006D6100A6
:102580000000000304224FC651E3517C29CDCCCC7E
:102590003D00000000666400000000030081A95FA8
:1025A000500D51F636000000000000000073653049
:1025B000300000020047A97E505551734D000000C5
:1025C0000000000000736530310000020047A97E62
:1025D000505551754D00000000000000007365303B
:1025E000320000020047A97E505551774D0000008F
:1025F0000000000000736530330000020047A97E30
:10260000505551794D000000000000000073653006
:10261000340000020047A97E5055517B4D00000058
:102620000000000000736530350000020047A97EFD
:102630005055517D4D0000000000000000736530D2
:10264000360000020047A97E5055517F4D00000022
:102650000000000000736530370000020047A97ECB
:10266000505551814D00000000000000007365309E
:10267000380000020047A97E505551834D000000EC
:102680000000000000736530390000020047A97E99
:10269000505551854D000000000000000073653169
:1026A000300000020047A97E505551874D000000C0
:1026B0000000000000736531310000020047A97E70
:1026C000505551894D000000000000000073653135
:1026D000320000020047A97E5055518B4D0000008A
:1026E0000000000000736531330000020047A97E3E
:1026F0005055518D4D000000000000000073653101
:10270000340000020047A97E5055518F4D00000053
:102710000000000000736531350000020047A97E0B
:10272000505551914D0000000000000000736531CC
:10273000360000020047A97E505551934D0000001D
:102740000000000000736531370000020047A97ED9
:10275000505551954D000000000000000073653198
:10276000380000020047A97E505551974D000000E7
:102770000000000000736531390000020047A97EA7
:10278000505551994D000000000000000073653263
:10279000300000020047A97E5055519B4D000000BB
:1027A0000000000000736532310000020047A97E7E
:1027B0005055519D4D00000000000000007365322F
:1027C000320000020047A97E5055519F4D00000085
:1027D0000000000000736532330000020047A97E4C
:1027E000505551A14D0000000000000000736532FB
:1027F000340000020047A97E505551A34D0000004F
:102800000000000000736532350000020047A97E19
:10281000505551A54D0000000000000000736532C6
:10282000360000020047A97E505551A74D00000018
:102830000000000000736532370000020047A97EE7
:10284000505551A94D000000000000000073653292
:10285000380000020047A97E505551AB4D000000E2
:102860000000000000736532390000020047A97EB5
:10287000505551AD4D000000000000000073797309
:10288000000000000047A97553CA554733000000F7
:102890000000000000703100000000000047A97532
:1028A00053CA55473300000000000000003100000B
:1028B000000000000047A97553CA554733000000C7
:1028C0000000000000320000000000000047A97571
:1028D00053CA5547330000000000000000330000D9
:1028E000000000000047A97553CA55473300000097
:1028F0000000000000340000000000000047A9753F
:1029000053CA554733000000000000000078000063
:10291000000000000047A97553CA55473300000066
:102920000000000000790000000000000047A975C9
:1029300053CA55473300000000000000007A000031
:10294000000000000047A97553CA55473300000036
:102950000000000000610000000000000047A975B1
:1029600053CA554733000000000000000062000019
:10297000000000000047A97553CA55473300000006
:102980000000000000630000000000000047A9757F
:1029900053CA55473300000000000000006735347B
:1029A000000000000047A97553CA554733000000D6
:1029B0000000000000673535000000000047A975E1
:1029C00053CA554733000000000000000067353649
:1029D000000000000047A97553CA554733000000A6
:1029E0000000000000673537000000000047A975AF
:1029F00053CA554733000000000000000067353817
:102A0000000000000047A97553CA55473300000075
:102A10000000000000673539000000000047A9757C
:102A200053CA5547330000000000000000673932E8
:102A3000000000000047A97553CA55473300000045
:102A40000000000000673238000000000047A97550
:102A500053CA5547330000000000000000673330C0
:102A6000000000000047A97553CA55473300000015
:102A700000000000006D706F000000000047A975A5
:102A800053CA5547330000000000000000706F7308
:102A9000000000000047A97553CA554733000000E5
:102AA00000000000006F6673000000000047A97579
:102AB00053CA5547330000000000000000686F6DE6
:102AC000000000000047A97553CA554733000000B5
:102AD00000000000006A6F67000000000047A97551
:102AE00053CA55473300000000000000006A6964C3
:102AF000000000000047A97553CA55473300000085
:102B000000000000006D0000000000000047A973F5
:102B100058EA504733000000000000000071000038
:102B2000000000000047A95958EA50473300000050
:102B300000000000006F0000000000000047A93FF7
:102B400058EA504733000000000000000024000055
:102B5000000000000047A98D58EA504733000000EC
:102B6000005B65635D2020657870616E64204C4673
:102B700020746F2043524C46206F6E2054582536E7
:102B800064205B303D6F66662C313D6F6E5D0A00E0
:102B90005B65655D2020656E61626C6520656368BC
:102BA0006F25313864205B303D6F66662C313D6F98
:102BB0006E5D0A005B65785D2020656E61626C6504
:102BC00020666C6F7720636F6E74726F6C25313086
:102BD00064205B303D6F66662C313D584F4E2F5858
:102BE0004F46462C20323D5254532F4354535D0AD6
:102BF000005B626175645D205553422062617564BB
:102C0000207261746525313564205B313D39363081
:102C1000302C323D31393230302C333D3338343082
:102C2000302C343D35373630302C353D313135326E
:102C300030302C363D3233303430305D0A005B6E3C
:102C400065745D20206E6574776F726B206D6F64A4
:102C50006525313664205B303D6D61737465725D4E
:102C60000A002A2A2A205741524E494E47202A2A32
:102C70002A20556E737570706F727465642062617E
:102C80007564207261746520737065636966696537
:102C90006400C92CCB2CD02CD62CDC2CE22CE92CBB
:102CA0002A2A2A204E4F54494345202A2A2A2052B4
:102CB0006573657474696E67206261756420726102
:102CC000746520746F202573003000393630300071
:102CD0003139323030003338343030003537363027
:102CE0003000313135323030003233303430300062
:102CF000456E64206F6620636F6D6D616E64206643
:102D0000696C650A002A2A2A205741524E494E47CB
:102D1000202A2A2A20486F6D696E67206572726FBB
:102D2000723A202563206178697320736574746931
:102D30006E6773206D6973636F6E66696775726520
:102D400064002A2A2A205741524E494E47202A2AF7
:102D50002A2050726F62696E67206572726F723AD4
:102D600020256320617869732073657474696E67C8
:102D700073206D6973636F6E666967757265640051
:102D80005B66625D20206669726D776172652062A4
:102D900075696C642531382E32660A005B66765D93
:102DA00020206669726D776172652076657273693D
:102DB0006F6E2531362E32660A005B68705D20200A
:102DC000686172647761726520706C6174666F729D
:102DD0006D2531352E32660A005B68765D202068ED
:102DE000617264776172652076657273696F6E25B2
:102DF00031362E32660A005B69645D202054696EAC
:102E00007947204944253330730A000A0A0A2323EC
:102E100023232054696E79472048656C7020232352
:102E200023230A00546865736520636F6D6D616EBE
:102E300064732061726520616374697665206672CF
:102E40006F6D2074686520636F6D6D616E64206CBA
:102E5000696E653A0A205E782020202020202020FC
:102E6000202020202052657365742028636F6E74C3
:102E7000726F6C207829202D20736F6674776172D1
:102E8000652072657365740A20203F202020202071
:102E900020202020202020204D616368696E65205D
:102EA000706F736974696F6E20616E642067636F01
:102EB0006465206D6F64656C2073746174650A20AD
:102EC00020242020202020202020202020202053CB
:102ED000686F7720616E642073657420636F6E661F
:102EE000696775726174696F6E2073657474696E59
:102EF00067730A202021202020202020202020204D
:102F000020202046656564686F6C64202D207374F2
:102F10006F70206D6F74696F6E20776974686F755C
:102F200074206C6F73696E6720706F736974696F5A
:102F30006E0A20207E2020202020202020202020FB
:102F400020204379636C65205374617274202D20B6
:102F5000726573746172742066726F6D2066656548
:102F600064686F6C640A20206820202020202020C4
:102F700020202020202053686F77207468697320F8
:102F800068656C702073637265656E0A2020246822
:102F900020202020202020202020202053686F7710
:102FA00020636F6E66696775726174696F6E206801
:102FB000656C702073637265656E0A2020247465E9
:102FC00073742020202020202020204C697374203E
:102FD00073656C662D74657374730A2020247465A0
:102FE00073743D4E2020202020202052756E2073C7
:102FF000656C662D74657374204E0A202024686FFA
:103000006D653D312020202020202052756E2061EA
:1030100020686F6D696E67206379636C650A202094
:1030200024646566613D31202020202020205265E7
:1030300073746F726520616C6C2073657474696E53
:10304000677320746F2022666163746F7279222027
:1030500064656661756C74730A000A4E6F74653A34
:103060002054696E79472067656E65726174657377
:10307000206175746F6D6174696320737461747518
:1030800073207265706F7274732062792064656654
:1030900061756C740A546869732063616E2062659F
:1030A0002064697361626C656420627920656E7466
:1030B0006572696E67202473763D300A536565201A
:1030C0007468652077696B692062656C6F7720662C
:1030D0006F72206D6F72652064657461696C732E08
:1030E0000A000A466F722064657461696C65642029
:1030F00054696E794720696E666F207365653A2062
:1031000068747470733A2F2F6769746875622E63E0
:103110006F6D2F73796E746865746F732F54696E59
:1031200079472F77696B692F0A466F72207468653B
:10313000206C6174657374206669726D7761726565
:10314000207365653A2068747470733A2F2F67692D
:10315000746875622E636F6D2F73796E7468657411
:103160006F732F54696E79470A506C6561736520DF
:103170006C6F6720616E7920697373756573206168
:103180007420687474703A2F2F7777772E73796E66
:10319000746865746F732E636F6D2F666F72756DD3
:1031A000730A486176652066756E0A000A0A0A236A
:1031B0002323232054696E794720434F4E464947C5
:1031C00055524154494F4E2048656C7020232323AB
:1031D000230A00546865736520636F6D6D616E64CA
:1031E00073206172652061637469766520666F7211
:1031F00020636F6E66696775726174696F6E3A0AF3
:103200002020247379732053686F77207379737447
:10321000656D202867656E6572616C292073657421
:1032200074696E67730A2020243120202053686F50
:1032300077206D6F746F7220312073657474696EBE
:10324000677320286F7220776861746576657220D5
:103250006D6F746F7220796F752077616E74203195
:103260002C322C332C34290A20202478202020537F
:10327000686F77205820617869732073657474696A
:103280006E677320286F7220776861746576657247
:10329000206178697320796F752077616E7420786A
:1032A0002C792C7A2C612C622C63290A2020246D25
:1032B00020202053686F7720616C6C206D6F746FD5
:1032C000722073657474696E67730A2020247120FC
:1032D000202053686F7720616C6C206178697320BF
:1032E00073657474696E67730A2020246F20202030
:1032F00053686F7720616C6C206F6666736574200D
:1033000073657474696E67730A202024242020205A
:1033100053686F7720616C6C2073657474696E6795
:10332000730A2020246820202053686F7720746857
:1033300069732068656C702073637265656E0A0A34
:103340000045616368202420636F6D6D616E6420A9
:1033500061626F766520616C736F20646973706C55
:103360006179732074686520746F6B656E20666F79
:103370007220656163682073657474696E67206983
:103380006E205B205D20627261636B6574730A540A
:103390006F20766965772073657474696E67732032
:1033A000656E746572206120746F6B656E3A0A0AEF
:1033B0002020243C746F6B656E3E0A0A466F7220B3
:1033C0006578616D706C65202479667220746F2059
:1033D000646973706C6179207468652059206D612F
:1033E00078206665656420726174650A0A546F20EE
:1033F0007570646174652073657474696E67732099
:10340000656E74657220746F6B656E206571756191
:103410006C732076616C75653A0A0A2020243C742E
:103420006F6B656E3E3D3C76616C75653E0A0A4683
:103430006F72206578616D706C6520247966723DCD
:1034400038303020746F207365742074686520599B
:10345000206D6178206665656420726174652074F2
:103460006F20383030206D6D2F6D696E7574650A70
:10347000466F7220636F6E66696775726174696FFB
:103480006E2064657461696C73207365653A2068A9
:10349000747470733A2F2F6769746875622E636F46
:1034A0006D2F73796E746865746F732F54696E79BC
:1034B000472F77696B692F54696E79472D436F6E7B
:1034C00066696775726174696F6E0A000A0A0A2379
:1034D0002323232054696E79472053454C462054BA
:1034E0004553542048656C7020232323230A004948
:1034F0006E766F6B652073656C66207465737420DF
:10350000627920656E746572696E672024746573D4
:10351000743D4E207768657265204E206973206F78
:103520006E65206F663A0A202024746573743D31FD
:103530002020736D6F6B6520746573740A202024DE
:10354000746573743D322020686F6D696E672074F6
:1035500065737420202028796F75206D7573742031
:103560007472697020686F6D696E67207377697413
:1035700063686573290A202024746573743D3320C1
:103580002073717561726520746573742020202822
:103590006120736572696573206F66207371756150
:1035A000726573290A202024746573743D342020C9
:1035B000617263207465737420202020202028739A
:1035C0006F6D65206C6172676520636972636C65FD
:1035D00073290A202024746573743D352020647794
:1035E000656C6C207465737420202020286D6F76C4
:1035F0006573207370616365642062792031207384
:1036000065636F6E64206477656C6C73290A202093
:1036100024746573743D36202066656564686F6C3C
:103620006420746573742028656E7465722021208F
:10363000616E64207E20746F20686F6C6420616E00
:103640006420726573746172742C20726573706586
:1036500063746976656C79290A2020247465737413
:103660003D3720204D20636F64657320746573744B
:103670002020284D20636F64657320696E74657225
:103680006D696E676C65642077697468206D6F760C
:103690006573290A202024746573743D3820204AFC
:1036A000534F4E20746573742020202020286D6FA6
:1036B00074696F6E20746573742072756E207573F3
:1036C000696E67204A534F4E20636F6D6D616E6463
:1036D00073290A202024746573743D392020696E93
:1036E00076657273652074696D6520746573740AFC
:1036F000202024746573743D313020726F746172C0
:1037000079206D6F74696F6E20746573740A202060
:1037100024746573743D313120736D616C6C206D60
:103720006F76657320746573740A20202474657342
:10373000743D313220736C6F77206D6F7665732026
:10374000746573740A202024746573743D313320CA
:10375000636F6F7264696E617465207379737465E9
:103760006D206F66667365742074657374202847D6
:1037700039322C204735342D473539290A0A54650A
:1037800073747320617373756D6520612063656E5A
:103790007465726564205859206F726967696E207C
:1037A000616E64206174206C656173742038306DC3
:1037B0006D20636C656172616E636520696E206166
:1037C0006C6C20646972656374696F6E730A54650A
:1037D00073747320617373756D65205A206861730B
:1037E000206174206C656173742034306D6D2070BD
:1037F0006F7369697469766520636C656172616E67
:1038000063650A54657374732073746172742077EE
:103810006974682061204730205830205930205A80
:1038200030206D6F76650A486F6D696E6720697329
:103830002074686520657863657074696F6E2E20EA
:103840004E6F20696E697469616C20706F73697462
:10385000696F6E206F7220636C656172616E636563
:1038600020697320617373756D65640A000A0A0A22
:10387000232323232054696E794720524553544F04
:1038800052452044454641554C54532048656C7080
:1038900020232323230A00456E7465722024646567
:1038A00066613D3120746F207265736574207468A1
:1038B000652073797374656D20746F20746865205A
:1038C000666163746F72792064656661756C7420DB
:1038D00076616C7565732E0A546869732077696C1C
:1038E0006C206F766572777269746520616E7920DD
:1038F0006368616E67657320796F752068617665AE
:10390000206D6164652E0A000A0A0A2323232320FE
:1039100054696E794720424F4F54204C4F414445E3
:10392000522048656C7020232323230A00456E74BF
:1039300065722024626F6F743D3120746F20656E54
:103940007465722074686520626F6F74206C6F619B
:103950006465722E0A005B656A5D2020656E616297
:103960006C65206A736F6E206D6F646525313364FA
:10397000205B303D746578742C313D4A534F4E5D69
:103980000A005B6A765D20206A736F6E207665722E
:10399000626F7369747925313564205B303D7369DA
:1039A0006C656E742C313D666F6F7465722C323DA0
:1039B0006D657373616765732C333D636F6E666904
:1039C00067732C343D6C696E656E756D2C353D7674
:1039D0006572626F73655D0A00B33AB63ABC3AC36A
:1039E0003AC83AD13ADC3AE73AF33AFF3A0D3B2487
:1039F0003B333B403B4C3B603B6D3B823B963B99B2
:103A00003B9C3BAB3BC03BD53BE43BF43B063C1D06
:103A10003C3A3C553C583C5B3C5E3C613C643C67FA
:103A20003C6A3C6D3C703C733C763C8B3CA33CB5A3
:103A30003CCE3CE43CFA3C123D2A3D3C3D5A3D6FB5
:103A40003D833DA03DA33DA63DA93DAC3DAF3DB26C
:103A50003DB53DD33DEF3D033E153E2A3E423E5E21
:103A60003E723E863EA13EB93ECD3EE23EF73EFA74
:103A70003EFD3E003F033F063F093F0C3F0F3F1214
:103A80003F153F183F1B3F1E3F213F243F273F2A42
:103A90003F2D3F303F333F363F393F3C3F3F3F4272
:103AA0003F453F5F3F783F8E3FA63FC33FE73F0123
:103AB000401B404F4B004572726F72004561676159
:103AC000696E004E6F6F7000436F6D706C6574654A
:103AD000005465726D696E6174656400486172645A
:103AE00020726573657400456E64206F66206C6992
:103AF0006E6500456E64206F662066696C650046E1
:103B0000696C65206E6F74206F70656E004D617812
:103B10002066696C652073697A65206578636565E0
:103B2000646564004E6F2073756368206465766910
:103B300063650042756666657220656D7074790014
:103B40004275666665722066756C6C0042756666C5
:103B500065722066756C6C202D20666174616C0046
:103B6000496E697469616C697A696E6700456E7443
:103B70006572696E6720626F6F74206C6F61646537
:103B8000720046756E6374696F6E2069732073747A
:103B9000756262656400313800313900496E7465C0
:103BA000726E616C206572726F7200496E7465721C
:103BB0006E616C2072616E6765206572726F720053
:103BC000466C6F6174696E6720706F696E742065F2
:103BD00072726F7200446976696465206279207A36
:103BE00065726F00496E76616C696420416464722D
:103BF00065737300526561642D6F6E6C792061642A
:103C0000647265737300496E697469616C697A6185
:103C100074696F6E206661696C75726500537973A3
:103C200074656D20616C61726D202D2073687574F0
:103C300074696E6720646F776E004D656D6F727981
:103C4000206661756C74206F7220636F727275707C
:103C500074696F6E00323900333000333100333213
:103C6000003333003334003335003336003337004C
:103C7000333800333900556E7265636F676E697A49
:103C8000656420636F6D6D616E6400457870656377
:103C900074656420636F6D6D616E64206C6574740F
:103CA000657200426164206E756D62657220666F98
:103CB000726D617400496E70757420657863656516
:103CC0006473206D6178206C656E67746800496E5E
:103CD0007075742076616C756520746F6F20736DDC
:103CE000616C6C00496E7075742076616C7565202E
:103CF000746F6F206C6172676500496E7075742017
:103D000076616C75652072616E6765206572726F91
:103D10007200496E7075742076616C756520756EE1
:103D2000737570706F72746564004A534F4E2073E0
:103D3000796E746178206572726F72004A534F4ECB
:103D400020696E7075742068617320746F6F206DC8
:103D5000616E79207061697273004A534F4E206F13
:103D6000757470757420746F6F206C6F6E67004F80
:103D70007574206F66206275666665722073706167
:103D8000636500436F6E6669672072656A65637478
:103D9000656420647572696E67206379636C650081
:103DA00035330035340035350035360035370035CC
:103DB00038003539004D6F7665206C65737320745B
:103DC00068616E206D696E696D756D206C656E67DA
:103DD0007468004D6F7665206C657373207468613C
:103DE0006E206D696E696D756D2074696D65004733
:103DF000636F646520626C6F636B20736B697070B6
:103E000065640047636F646520696E707574206532
:103E100072726F720047636F6465206665656472D5
:103E2000617465206572726F720047636F6465200C
:103E30006178697320776F7264206D697373696E3E
:103E4000670047636F6465206D6F64616C20677203
:103E50006F75702076696F6C6174696F6E00486F62
:103E60006D696E67206379636C65206661696C6556
:103E700064004D61782074726176656C20657863AA
:103E80006565646564004D6178207370696E646C6B
:103E90006520737065656420657863656564656435
:103EA0000041726320737065636966696361746958
:103EB0006F6E206572726F7200536F6674206C694A
:103EC0006D697420657863656564656400436F6D32
:103ED0006D616E64206E6F742061636365707465DC
:103EE000640050726F62696E67206379636C65204D
:103EF0006661696C65640037340037350037360019
:103F0000373700373800373900383000383100385B
:103F1000320038330038340038350038360038374E
:103F20000038380038390039300039310039320072
:103F30003933003934003935003936003937003922
:103F4000380039390047656E6572696320617373A3
:103F5000657274696F6E206661696C757265004781
:103F6000656E6572696320657863657074696F6EEC
:103F7000207265706F7274004D656D6F7279206686
:103F800061756C7420646574656374656400537452
:103F900061636B206F766572666C6F772064657401
:103FA000656374656400436F6E74726F6C6C6572E8
:103FB00020617373657274696F6E206661696C75D8
:103FC00072650043616E6F6E6963616C206D616341
:103FD00068696E6520617373657274696F6E2066BF
:103FE00061696C75726500506C616E6E65722061FE
:103FF0007373657274696F6E206661696C75726542
:1040000000537465707065722061737365727469B2
:104010006F6E206661696C75726500457874656EB7
:1040200064656420494F20617373657274696F6EB3
:10403000206661696C757265005F63616C63756CA5
:104040006174655F74726170657A6F696428292094
:104050006661696C656420746F20636F6E7665724B
:104060006765005B70316672715D2070776D2066E8
:1040700072657175656E63792020202531352E3388
:104080006620487A0A005B703163736C5D2070773C
:104090006D206377207370656564206C6F20253117
:1040A000352E33662052504D0A005B7031637368C1
:1040B0005D2070776D20637720737065656420687C
:1040C00069202531352E33662052504D0A005B7031
:1040D0003163706C5D2070776D206377207068614C
:1040E0007365206C6F202531352E3366205B302EB2
:1040F0002E315D0A005B70316370685D2070776DF2
:1041000020637720706861736520686920253135E8
:104110002E3366205B302E2E315D0A005B703177C6
:10412000736C5D2070776D206363772073706565B5
:1041300064206C6F2531352E33662052504D0A00B5
:104140005B70317773685D2070776D2063637720D3
:1041500073706565642068692531352E3366205299
:10416000504D0A005B703177706C5D2070776D2068
:10417000636377207068617365206C6F2531352E1D
:104180003366205B302E2E315D0A005B7031777014
:10419000685D2070776D2063637720706861736558
:1041A0002068692531352E3366205B302E2E315D37
:1041B0000A005B7031706F665D2070776D207068EB
:1041C000617365206F66662020202531352E3366A9
:1041D000205B302E2E315D0A007B226572223A7BF5
:1041E000226662223A25302E32662C227374223ADD
:1041F00025642C226D7367223A222573227D7D0A65
:1042000000496E697469616C697A696E6720636FD1
:104210006E6669677320746F204F4D43204F74683A
:1042200065724D696C6C2073657474696E67730098
:104230004C6F6164696E6720636F6E666967732097
:1042400066726F6D20454550524F4D00535953547F
:10425000454D205245414459005B73695D202073F0
:10426000746174757320696E74657276616C253142
:10427000342E3066206D730A005B73765D202073E8
:104280007461747573207265706F727420766572D4
:10429000626F73697479253664205B303D6F6666A2
:1042A0002C313D66696C74657265642C323D7665AF
:1042B00072626F73655D0A0071723A25640A00715B
:1042C000693A25640A00716F3A25640A005B7176C9
:1042D0005D20207175657565207265706F72742040
:1042E000766572626F73697479253764205B303D3F
:1042F0006F66662C313D73696E676C652C323D7458
:104300007269706C655D0A005B6D745D20206D6F75
:10431000746F722069646C652074696D656F757463
:104320002531342E3266205365630A005B257325E0
:10433000735D206D2573206D617020746F2061782E
:10434000697325313564205B303D582C313D592C43
:10435000323D5A2E2E2E5D0A005B257325735D209B
:104360006D2573207374657020616E676C652532EE
:10437000302E336625730A0088448C4490445B25B4
:104380007325735D206D25732074726176656C20D2
:10439000706572207265766F6C7574696F6E253901
:1043A0002E336625730A005B257325735D206D250A
:1043B00073206D6963726F73746570732531366431
:1043C000205B312C322C342C385D0A005B257325A0
:1043D000735D206D257320706F6C6172697479252F
:1043E000313864205B303D6E6F726D616C2C313DF5
:1043F000726576657273655D0A005B257325735D72
:10440000206D257320706F776572206D616E616716
:10441000656D656E7425313064205B303D72656D6D
:1044200061696E20706F77657265642C313D706FC5
:1044300077657220646F776E207768656E20696497
:104440006C655D0A005B257325735D206D25732007
:104450006D6F746F7220706F776572206C65766512
:104460006C2531332E3366205B302E3030303D6D7D
:10447000696E696D756D2C20312E3030303D6D6167
:1044800078696D756D5D0A0020696E00206D6D00A4
:1044900020646567005B73745D20207377697463C3
:1044A00068207479706525313864205B303D4E4F4B
:1044B0002C313D4E435D0A004E34204732312047B7
:1044C000393020473634204734300A4E35204730C3
:1044D000205A332E300A2F4E362028205430203ACE
:1044E00020322E3020290A2F4E37205430204D36CE
:1044F0000A2F4E3820282048616E646C6573207046
:104500006F636B65742062616420290A4E39393902
:104510003920473158305930004E312054314D3612
:104520000A4E32204731370A4E33204732310A4E85
:10453000382046313830300A4E392047310A4E3162
:1045400030302047393220582D32352E3137375907
:104550002D33342E303732205A2D312E303030204A
:104560002854454D502C2052454D4F5645204C4126
:10457000544552290A4E33343320582D32352E35C6
:104580003935592D33342E3334390A4E33343420EF
:10459000582D32352E373031592D33342E343336B1
:1045A0000A4E33343520582D32352E373931592DB6
:1045B00033342E3532300A4E33343620582D3235CE
:1045C0002E383634592D33342E3630310A4E3334AA
:1045D0003720582D32352E393230592D33342E367E
:1045E00037390A4E33343820582D32352E3936308B
:1045F000592D33342E3735340A4E33343920582D63
:1046000032352E393832592D33342E3832360A4E5F
:1046100033353020582D32352E393837592D333433
:104620002E3839350A4E33353120582D32352E3952
:104630003736592D33342E3936310A4E3335322040
:10464000582D32352E393438592D33352E303233FA
:104650000A4E33353320582D32352E393033592D0B
:1046600033352E3038320A4E33353420582D32351A
:104670002E383431592D33352E3133380A4E3335F7
:104680003520582D32352E373633592D33352E31CE
:1046900039300A4E33353620582D32352E363639DC
:1046A000592D33352E3233390A4E33353720582DB4
:1046B00032352E353539592D33352E3238340A4EB0
:1046C00033353820582D32352E343333592D333588
:1046D0002E3332350A4E33353920582D32352E32AD
:1046E0003931592D33352E3336330A4E3336302097
:1046F000582D32352E313334592D33352E33393749
:104700000A4E33363120582D32342E393633592D56
:1047100033352E3432380A4E33363220582D323467
:104720002E373737592D33352E3435350A4E33363B
:104730003320582D32342E353737592D33352E341A
:1047400037370A4E33363420582D32342E3336372D
:10475000592D33352E3439360A4E33363520582DFF
:1047600032342E313434592D33352E3531310A4E11
:1047700033363620582D32332E393039592D3335D2
:104780002E3532320A4E33363720582D32332E36FC
:104790003631592D33352E3532390A4E33363820DD
:1047A000582D32332E343033592D33352E353332A4
:1047B0000A4E33363920582D32332E313333592DAA
:1047C00033352E3533320A4E33373020582D3232BE
:1047D0002E383533592D33352E3532370A2F4E3298
:1047E00035313820473058302E333237592D333356
:1047F0002E3532315A2D312E3030300A4E3235318D
:1048000039204D3330004E31204732300A4E3520AA
:10481000473430204731370A4E3130205431204D53
:1048200030360A284E31352047393020473020585D
:1048300030205930205A30290A4E3230205335303A
:104840003030204D3033200A4E32352058302E3053
:1048500036342059302E333236205A300A4E343016
:1048600020473031204631362E300A4E3530205820
:10487000302E3036342059302E3332360A4E35350C
:104880002058302E3036302059302E3239330A4EEF
:1048900036302058302E3037372059302E323637C8
:1048A0000A4E36352058302E3131312059302E32D3
:1048B00035370A4E37302058302E313439205930B0
:1048C0002E3235320A4E37352058302E31383820C6
:1048D00059302E3235350A4E38302058302E32328B
:1048E000372059302E3236380A4E38352058302E7F
:1048F0003235372059302E3237310A4E3930205870
:10490000302E3333352059302E3236350A4E393574
:104910002058302E3431322059302E3237310A4E61
:104920003130302058302E3437342059302E323840
:10493000370A4E3130352058302E34393120593035
:104940002E3238390A4E3131302058302E35313739
:104950002059302E3237330A4E3131352058302E1F
:104960003534342059302E3236330A4E313230202D
:1049700058302E3538302059302E3236310A4E31EB
:1049800032352058302E3539352059302E323633D5
:104990000A4E3133302058302E3632312059302EE5
:1049A0003237340A4E3133352058302E36353920DF
:1049B00059302E3330360A4E3134302058302E36AE
:1049C00037332059302E3333350A4E3134352058A1
:1049D000302E3637392059302E3336310A4E3135A4
:1049E000302058302E3637382059302E3338390A97
:1049F0004E3135352058302E3637302059302E3450
:104A000032300A4E3136302058302E363730205969
:104A1000302E3434360A4E3136352058302E363862
:104A2000302059302E3437340A4E31373020583048
:104A30002E3730342059302E3439370A4E3137353D
:104A40002058302E3733322059302E3531350A4E2A
:104A50003138302058302E3739342059302E353304
:104A6000350A4E3138352058302E383732205930FB
:104A70002E3536370A4E3139302058302E39353000
:104A80002059302E3630340A4E3139352058312EE7
:104A90003033312059302E3634370A4E3230302000
:104AA00058312E3134392059302E3732320A4E32B5
:104AB00030352058312E3330382059302E383534A7
:104AC0000A4E3231302058312E3433302059302EB6
:104AD0003938340A4E3231352058312E34343720AB
:104AE00059302E3938360A4E3232302058312E366F
:104AF00032382059302E3832320A4E323235205870
:104B0000312E3733322059302E3731340A4E32337A
:104B1000302058322E3030392059302E3338310A77
:104B20004E3233352058322E3131362059302E3224
:104B300036360A4E3234302058322E32323820592E
:104B4000302E3135370A4E3234352058322E323835
:104B5000302059302E3132330A4E3235302058321F
:104B60002E3333322059302E3039340A4E32353517
:104B70002058322E3432332059302E3037300A4EFE
:104B80003236302058322E3438392059302E3036D3
:104B9000350A4E3236352058322E353537205930C9
:104BA0002E3036360A4E3237302058322E363237D3
:104BB0002059302E3038340A4E3237352058322EB4
:104BC0003639332059302E3130390A4E32383020C0
:104BD00058322E3733302059302E3133330A4E328B
:104BE00038352058322E3830352059302E31393072
:104BF0000A4E3239302058322E3832392059302E70
:104C00003231360A4E3239352058322E383830207B
:104C100059302E3239310A4E3330302058322E3846
:104C200038342059302E3330300A4E333035205846
:104C3000322E3839382059302E3333320A4E333140
:104C4000302058322E3930352059302E3336370A3D
:104C50004E3331352058322E3931302059302E34F0
:104C600030370A4E3332302058322E3930382059FE
:104C7000302E3434360A4E3332352058322E393005
:104C8000312059302E3439350A4E333330205832E2
:104C90002E3839372059302E3439350A4E333335D2
:104CA0002058322E3839302059302E3532340A4EC1
:104CB0003334302058322E3834322059302E3630AA
:104CC000340A4E3334352058322E3831342059309E
:104CD0002E3636350A4E3335302058322E37393499
:104CE0002059302E3735300A4E3335352058322E84
:104CF0003739312059302E3833380A4E3336302088
:104D000058322E3831392059302E3937360A4E3341
:104D100036352058322E3833372059312E3034343E
:104D20000A4E3337302058322E3836322059312E41
:104D30003131320A4E3337352058322E383737204A
:104D400059312E3134350A4E3338302058322E390D
:104D500031322059312E3231370A4E33383520580E
:104D6000322E3931372059312E3232360A4E33390C
:104D7000302058322E3935312059312E3238310A0F
:104D80004E3339352058322E3937302059312E32B2
:104D900039350A4E3430302058322E3939362059C0
:104DA000312E3239350A4E3430352058332E3031D9
:104DB000332059312E3237350A4E343130205833B2
:104DC0002E3032342059312E3235340A4E343135BA
:104DD0002058332E3037302059312E3135310A4E9C
:104DE0003432302058332E3037372059312E31337A
:104DF000340A4E3432352058332E31323520593171
:104E00002E3033390A4E3433302058332E31333874
:104E10002059312E3031390A4E3433352058332E53
:104E20003230352059302E3930380A4E3434302063
:104E300058332E3238322059302E3739370A4E3413
:104E400034352058332E3336312059302E3639310F
:104E50000A4E3435302058332E3432362059302E15
:104E60003539320A4E3435352058332E3435362014
:104E700059302E3534330A4E3436302058332E34E0
:104E800037392059302E3439330A4E3436352058CC
:104E9000332E3439342059302E3437320A4E3437D9
:104EA000302058332E3530352059302E3434360AE0
:104EB0004E3437352058332E3531382059302E3482
:104EC00031370A4E3438302058332E35333020599C
:104ED000302E3339310A4E3438352058332E35369A
:104EE000342059302E3330300A4E34393020583384
:104EF0002E3537372059302E3235330A4E34393576
:104F00002058332E3536382059302E3231320A4E61
:104F10003530302058332E3534342059302E313747
:104F2000360A4E3530352058332E3534312059303D
:104F30002E3134360A4E3531302058332E35353344
:104F40002059302E3131390A4E3531352058332E23
:104F50003537362059302E3130360A4E3532302032
:104F600058332E3539372059302E3130320A4E35EC
:104F700032352058332E3631382059302E313039E1
:104F80000A4E3533302058332E3633392059302EDF
:104F90003132390A4E3533352058332E36353020EC
:104FA00059302E3135390A4E3534302058332E36AB
:104FB00036332059302E3137380A4E3534352058A3
:104FC000332E3637382059302E3139320A4E3535A6
:104FD000302058332E3639392059302E3139370A9E
:104FE0004E3535352058332E3732332059302E3157
:104FF00039360A4E3536302058332E37363420595C
:10500000302E3137390A4E3536352058332E383068
:10501000352059302E3136350A4E35373020583349
:105020002E3838342059302E3135390A4E3537353F
:105030002058332E3934392059302E3136350A4E26
:105040003538302058332E3936362059302E313706
:10505000350A4E3538352058332E393738205930F7
:105060002E3139340A4E3539302058332E393738FD
:105070002059302E3232330A4E3539352058332EEE
:105080003936302059302E3234350A4E3630302001
:1050900058332E3833342059302E3331310A4E36BE
:1050A00030352058332E3736322059302E333435B0
:1050B0000A4E3631302058332E3732362059302EB2
:1050C0003338390A4E3631352058332E37303320B5
:1050D00059302E3435380A4E3632302058332E3679
:1050E00038322059302E3533300A4E36323520587A
:1050F000332E3637392059302E3533340A4E363375
:10510000302058332E3632362059302E3638310A78
:105110004E3633352058332E3536382059302E3818
:1051200032380A4E3634302058332E343434205935
:10513000312E3038300A4E3634352058332E343044
:10514000352059312E3136370A4E36353020583316
:105150002E3430342059312E3136370A4E3635351B
:105160002058332E3338372059312E3230380A4EFA
:105170003636302058332E3338342059312E3230E1
:10518000380A4E3636352058332E333635205931CD
:105190002E3236350A4E3637302058332E333535D9
:1051A0002059312E3238350A4E3637352058332EB5
:1051B0003334382059312E3330380A4E36383020C7
:1051C00058332E3333332059312E3335300A4E368F
:1051D00038352058332E3332312059312E3339317E
:1051E0000A4E3639302058332E3331312059312E82
:1051F0003432380A4E3639352058332E333339207D
:1052000059312E3432330A4E3730302058332E3451
:1052100034302059312E3430360A4E37303520584C
:10522000332E3531302059312E3430380A4E373153
:10523000302058332E3538352059312E3432310A4A
:105240004E3731352058332E3631312059312E34F6
:1052500033390A4E3732302058332E363131205907
:10526000312E3434310A4E3732352058332E363110
:10527000352059312E3434310A4E373330205833EB
:105280002E3633362059312E3438380A4E373335DE
:105290002058332E3633342059312E3531370A4ECB
:1052A0003734302058332E3632322059312E3534AF
:1052B000330A4E3734352058332E363035205931A5
:1052C0002E3536330A4E3735302058332E353736A3
:1052D0002059312E3537350A4E3735352058332E83
:1052E0003534342059312E3538310A4E3736302096
:1052F00058332E3437392059312E3539320A4E374A
:1053000036352058332E3435312059312E35393841
:105310000A4E3737302058332E3338372059312E44
:105320003632360A4E3737352058332E333930204F
:1053300059312E3633360A4E3738302058332E3511
:1053400033322059312E3630320A4E373835205814
:10535000332E3630312059312E3539370A4E373910
:10536000302058332E3636382059312E3539380A08
:105370004E3739352058332E3738322059312E36B2
:1053800031320A4E3830302058332E3739342059D4
:10539000312E3631380A4E3830352058332E3836D3
:1053A000382059312E3633360A4E383130205833B2
:1053B0002E3931382059312E3635350A4E383135AF
:1053C0002058332E3934352059312E3636370A4E8F
:1053D0003832302058332E3936342059312E363871
:1053E000350A4E3832352058332E39363720593168
:1053F0002E3638350A4E3833302058332E3937346C
:105400002059312E3639390A4E3833352058332E4B
:105410003938342059312E3732350A4E383430205D
:1054200058332E3938342059312E3735380A4E3812
:1054300034352058332E3937302059312E37393012
:105440000A4E3835302058332E3934352059312E14
:105450003831370A4E3835352058332E3931382017
:1054600059312E3832360A4E3836302058332E38DD
:1054700039312059312E3832370A4E3836352058D6
:10548000332E3834322059312E3830390A4E3837DD
:10549000302058332E3739382059312E3738340AD6
:1054A0004E3837352058332E3734362059312E3781
:1054B00037320A4E3838302058332E363938205992
:1054C000312E3736340A4E3838352058332E36339D
:1054D000352059312E3736360A4E38393020583378
:1054E0002E3535332059312E3738350A4E38393577
:1054F0002058332E3437382059312E3832300A4E66
:105500003930302058332E3430392059312E383646
:10551000340A4E3930352058332E33343520593142
:105520002E3931380A4E3931302058332E32363444
:105530002059322E3032330A4E3931352058332E2D
:105540003234382059322E3035310A4E393230203B
:1055500058332E3234302059322E3038310A4E39F9
:1055600032352058332E3331362059322E303836EA
:105570000A4E3933302058332E3339302059322EE9
:105580003130340A4E3933352058332E34313420FB
:1055900059322E3132310A4E3934302058332E34BC
:1055A00033312059322E3135330A4E3934352058B3
:1055B000332E3433332059322E3138300A4E3935B8
:1055C000302058332E3432372059322E3230350ABB
:1055D0004E3935352058332E3431332059322E325E
:1055E00032340A4E3936302058332E33393220596E
:1055F000322E3234320A4E3936352058332E333378
:10560000352059322E3234340A4E3937302058334F
:105610002E3237382059322E3233360A4E3937354A
:105620002058332E3235362059322E3234320A4E3B
:105630003938302058332E3233392059322E323512
:10564000310A4E3938352058332E32313120593213
:105650002E3238300A4E3939302058332E31373413
:105660002059322E3335360A4E3939352058332EEB
:105670003135392059322E3339370A4E31303030F6
:105680002058332E3135302059322E3433380A4EDB
:10569000313030352058332E3134302059322E34C9
:1056A00038310A4E313031302058332E31333220E8
:1056B00059322E3531300A4E313031352058332EA3
:1056C0003131382059322E3534330A4E31303230B0
:1056D0002058332E3039392059322E3537360A4E7C
:1056E000313032352058332E3035312059322E3674
:1056F00033310A4E313033302058332E303033209E
:1057000059322E3636360A4E313033352058322E45
:105710003935372059322E3638350A4E313034304B
:105720002058322E3930372059322E3639390A4E28
:10573000313034352058322E3836302059322E3719
:1057400031310A4E313035302058322E383139203F
:1057500059322E3732370A4E313035352058322EF5
:105760003736382059322E3734350A4E31303630FC
:105770002058322E3731362059322E3735370A4EDF
:10578000313036352058322E3637352059322E37C3
:1057900035370A4E313037302058322E35373920E0
:1057A00059322E3733310A4E313037352058322EA8
:1057B0003537302059322E3732330A4E31303830B7
:1057C0002058322E3535392059322E3732300A4E94
:1057D000313038352058322E3533302059322E377B
:1057E00030310A4E313039302058322E35303120A8
:1057F00059322E3639330A4E313039352058322E4F
:105800003437312059322E3638330A4E3131303068
:105810002058322E3434332059322E3636380A4E40
:10582000313130352058322E3339362059322E3628
:1058300033340A4E313131302058322E3335342052
:1058400059322E3539310A4E313131352058322E08
:105850003335322059322E3539310A4E313132301A
:105860002058322E3332352059322E3534330A4EF9
:10587000313132352058322E3331352059322E35E0
:1058800032310A4E313133302058322E3330372006
:1058900059322E3439380A4E313133352058322EB0
:1058A0003239362059322E3436340A4E31313430C2
:1058B0002058322E3239332059322E3432370A4EA4
:1058C000313134352058322E3239352059322E3389
:1058D00036360A4E313135302058322E33323120AF
:1058E00059322E3330330A4E313135352058322E6D
:1058F0003335382059322E3234370A4E3131363072
:105900002058322E3431392059322E3230330A4E5B
:10591000313136352058322E3431392059322E313A
:1059200037390A4E313137302058322E3430352055
:1059300059322E3135380A4E313137352058322E12
:105940003336322059322E3132330A4E313138302B
:105950002058322E3335342059322E3130340A4E0D
:10596000313138352058322E3335342059322E30EB
:1059700039310A4E313139302058322E3338302007
:1059800059322E3036350A4E313139352058322EC3
:105990003431302059322E3035310A4E31323030E8
:1059A0002058322E3431302059322E3034370A4EBE
:1059B000313230352058322E3430352059322E30A5
:1059C00032380A4E313231302058322E34303820BD
:1059D00059322E3031300A4E313231352058322E84
:1059E0003431362059312E3939350A4E3132323080
:1059F0002058322E3433332059312E3938320A4E62
:105A0000313232352058322E3433382059312E3944
:105A100036330A4E313233302058322E3434372068
:105A200059312E3934380A4E313233352058322E1E
:105A30003436312059312E3933380A4E3132343030
:105A40002058322E3438302059312E3933310A4E15
:105A5000313234352058322E3437382059312E38EF
:105A600039390A4E313235302058322E3438372009
:105A700059312E3837350A4E313235352058322ECD
:105A80003530342059312E3835340A4E31323630E3
:105A90002058322E3532372059312E3834380A4EBC
:105AA000313236352058322E3534392059312E389E
:105AB00034390A4E313237302058322E35373720BC
:105AC00059312E3836310A4E313237352058322E80
:105AD0003630342059312E3836360A4E313238308D
