:100000000C94703E0C94913E0C9478BA0C94913EF2
:100010000C94913E0C94913E0C94913E0C94913E24
:100020000C94913E0C94913E0C94913E0C94C1BC66
:100030000C94913E0C94913E0C94BAA20C94913E77
:100040000C94913E0C94913E0C94913E0C94913EF4
:100050000C94913E0C94913E0C94913E0C94913EE4
:100060000C94913E0C9492BA0C941DBA0C94913E4F
:100070000C9429B40C94C8B30C9401B40C94913E24
:100080000C9485BB0C94913E0C94913E0C94913E43
:100090000C94913E0C94913E0C94913E0C94913EA4
:1000A0000C94913E0C94913E0C94913E0C94CBA8F0
:1000B0000C9427A80C94913E0C94913E0C944FA262
:1000C0000C94913E0C94913E0C94913E0C94913E74
:1000D0000C94913E0C94913E0C94913E0C94913E64
:1000E0000C94B2950C94913E0C94913E0C94913EDC
:1000F0000C94913E0C94913E0C94913E0C94913E44
:100100000C94F4A80C9450A80C941DA90C9479A8F4
:100110000C94913E0C94913E0C94913E0C94913E23
:100120000C94913E0C94913E0C94913E0C94913E13
:100130000C94913E0C9479A20C94913E0C94913EB7
:100140000C94913E0C94913E0C94913E0C94913EF3
:100150000C94913E0C94913E0C94A8950C94913E75
:100160000C94913E0C94913E0C94913E0C94913ED3
:100170000C94913E0C94913E0C94913E0C94913EC3
:100180000C94913E0C94913E0C94913E0C94913EB3
:100190000C94913E0C94913E0C94913E0C94913EA3
:1001A0000C94A2A80C94FEA70C94913E0C94913E42
:1001B0000C94D99F0C94913E0C94913E0C94913EDA
:1001C0000C94913E0C94913E0C94913E0C94913E73
:1001D0000C94913E0C94913E0C94913E0C94913E63
:1001E0000C94913E0C94913E8A699B69AC69466C73
:1001F000466C24694667466CBD69CE69DF69196A39
:10020000A768016A466C3569466CF06946691969E8
:10021000466C466C466C576968697969ECA97BA99C
:1002200080A985A98AA98FA994A999A99EA9A3A9FA
:10023000A8A9ADA9B2A9B7A9BCA9D3A9D3A9D3A983
:10024000D3A9D3A9D3A9D3A9D3A9D3A9D3A9D3A9CE
:10025000D3A9D3A9D3A9D3A9D3A9D3A9D3A9D3A9BE
:10026000D3A9D3A9D3A9D3A9D3A9D3A9D3A9D3A9AE
:10027000D3A9D3A9D3A9D3A9D3A9D3A9D3A9D3A99E
:10028000C1A9C6A9CBA9084AD73B3BCE016E84BC05
:10029000BFFDC12F3D6C74319ABD56833DDA3D00E0
:1002A000C77F11BED9E4BB4C3E916BAAAABE000029
:1002B00000803F05A84CCDB2D44EB93836A9020C07
:1002C00050B9918688083CA6AAAA2ABE00000080E0
:1002D0003F07634236B79BD8A71A39685618AEBA9B
:1002E000AB558C1D3CB7CC5763BD6DEDFD753EF62F
:1002F000177231BF000000803F08000000BE92244A
:1003000049123EABAAAA2ABECDCCCC4C3E0000007E
:1003100080BEABAAAAAA3E00000000BF0000008079
:100320003F0000000000084178D3BB4387D1133D54
:10033000190E3CC3BD4282AD2B3E68EC8276BED91D
:100340008FE1A93E4C80EFFFBE01C4FF7F3F00005C
:100350000000005B257325735D2025732025732025
:10036000706F736974696F6E2531382E336625732B
:100370000A005B257325735D202573202573206F8C
:1003800066667365742532302E336625730A005B0A
:10039000257325735D202573207A65726F20626155
:1003A000636B6F66662531392E336625730A005BF1
:1003B000257325735D202573206C6174636820624A
:1003C00061636B6F66662531382E336625730A00CC
:1003D0005B257325735D202573206C617463682031
:1003E00076656C6F636974792531372E33662573B2
:1003F0002F6D696E0A005B257325735D20257320C0
:100400007365617263682076656C6F6369747925C2
:1004100031362E336625732F6D696E0A005B2573A6
:1004200025735D20257320737769746368206D617F
:100430007825313764205B303D6F66662C313D682E
:100440006F6D696E672C323D6C696D69742C333D3C
:100450006C696D69742B686F6D696E675D0A005B0E
:10046000257325735D202573207377697463682075
:100470006D696E25313764205B303D6F66662C31C7
:100480003D686F6D696E672C323D6C696D69742CC7
:10049000333D6C696D69742B686F6D696E675D0AB9
:1004A000005B257325735D20257320726164697577
:1004B000732076616C75652532302E346625730A9B
:1004C000005B257325735D202573206A756E637448
:1004D000696F6E20646576696174696F6E25313469
:1004E0002E3466257320286C6172676572206973EB
:1004F00020666173746572290A005B257325735D3C
:10050000202573206A65726B20686F6D696E6725A0
:1005100031362E306625732F6D696E5E33202A20AA
:1005200031206D696C6C696F6E0A005B25732573F1
:100530005D202573206A65726B206D6178696D7529
:100540006D2531352E306625732F6D696E5E332033
:100550002A2031206D696C6C696F6E0A005B25730F
:1005600025735D2025732074726176656C206D693A
:100570006E696D756D2531372E336625730A005B04
:10058000257325735D2025732074726176656C2058
:100590006D6178696D756D2531372E336625730A67
:1005A000005B257325735D2025732076656C6F6372
:1005B000697479206D6178696D756D2531352E33DB
:1005C0006625732F6D696E0A005B257325735D20A8
:1005D0002573206665656472617465206D61786954
:1005E0006D756D2531352E336625732F6D696E0A55
:1005F000005B257325735D20257320617869732066
:100600006D6F6465253138642025730A005B6D7356
:100610005D20206D696E207365676D656E74207452
:10062000696D652531332E306620755365630A0088
:100630005B6D615D20206D696E2061726320736562
:10064000676D656E742531382E336625730A005B3D
:100650006D6C5D20206D696E206C696E6520736520
:10066000676D656E742531372E336625730A005B1E
:1006700063745D202063686F7264616C20746F6CBA
:100680006572616E63652531362E336625730A0007
:100690005B6A615D20206A756E6374696F6E2061AC
:1006A0006363656C65726174696F6E25382E3066A0
:1006B00025730A005B6764695D2064656661756C1B
:1006C000742067636F64652064697374616E636529
:1006D000206D6F6465253264205B303D4739302CD6
:1006E000313D4739315D0A005B6770615D206465AB
:1006F0006661756C742067636F64652070617468EF
:1007000020636F6E74726F6C253364205B303D47DD
:1007100036312C313D4736312E312C323D4736347F
:100720005D0A005B67636F5D2064656661756C746C
:100730002067636F646520636F6F726420737973E1
:1007400074656D253364205B312D362028473534A0
:100750002D473539295D0A005B67756E5D2064653C
:100760006661756C742067636F646520756E69746B
:1007700073206D6F6465253564205B303D473230F2
:100780002C313D4732315D0A005B67706C5D20643F
:10079000656661756C742067636F646520706C6159
:1007A0006E6525313064205B303D4731372C313D5B
:1007B0004731382C323D4731395D0A002563206DC1
:1007C000616368696E6520706F736E3A2531312EF2
:1007D000336625730A00256320706F736974696F2F
:1007E0006E3A2531352E336625730A00546F6F6CCF
:1007F000206E756D62657220202020202020202030
:100800002025640A00466565642072617465206D68
:100810006F64653A20202020202025730A00446957
:100820007374616E6365206D6F64653A20202020CB
:1008300020202025730A0050617468204D6F646584
:100840003A202020202020202020202025730A006C
:10085000506C616E653A202020202020202020202E
:10086000202020202025730A004D6F74696F6E20B0
:100870006D6F64653A2020202020202020202573E1
:100880000A00436F6F7264696E61746520737973D7
:1008900074656D3A20202025730A00556E697473C3
:1008A0003A2020202020202020202020202020202E
:1008B00025730A00486F6D696E67207374617465F3
:1008C0003A202020202020202025730A004665653C
:1008D00064686F6C642073746174653A2020202012
:1008E000202025730A004D6F74696F6E2073746148
:1008F00074653A202020202020202025730A004300
:1009000079636C652073746174653A20202020201F
:100910002020202025730A00526177206D616368D2
:10092000696E652073746174653A20202025730A0E
:10093000004D616368696E652073746174653A2067
:1009400020202020202025730A004C696E65206E2F
:10095000756D6265723A2531302E30660A00466543
:10096000656420726174653A2531362E33662573CD
:100970002F6D696E0A0056656C6F636974793A254C
:1009800031372E336625732F6D696E0A00070A14FE
:100990000A1A0A230A280A2C0A300A350A3B0A4195
:1009A0000A480A4C0A590A5F0A650A6A0A6E0A72FC
:1009B0000A7A0A810A870A8C0A900A950A990A9E7D
:1009C0000AA30AA90AAE0AB80ABE0AD00AE60A06AB
:1009D0000B200B3A0B540B6E0B880BA20BBF0BD1E9
:1009E0000BEA0B0B0C320C410C500C5F0C5F0C75BE
:1009F0000C8B0CA80CC80CF90C110D1C0D270D3319
:100A00000D3C0D400D440D496E697469616C697A45
:100A1000696E670052656164790053687574646F2C
:100A2000776E0053746F7000456E640052756E00EF
:100A3000486F6C640050726F6265004379636C6547
:100A400000486F6D696E67004A6F6700496E697490
:100A500069616C697A696E670052657365740043F9
:100A600079636C650053746F7000456E64004F6667
:100A700066005374617274656400486F6D696E67D7
:100A80000050726F62650053746F700052756E0093
:100A9000486F6C64004F66660053796E6300506C5B
:100AA000616E00446563656C00486F6C64004E6F56
:100AB0007420486F6D656400486F6D65640047324F
:100AC00030202D20696E63686573206D6F6465004A
:100AD000473231202D206D696C6C696D65746572CB
:100AE000206D6F646500473533202D206D6163688C
:100AF000696E6520636F6F7264696E6174652073DF
:100B0000797374656D00473534202D20636F6F72E3
:100B100064696E6174652073797374656D2031004A
:100B2000473535202D20636F6F7264696E6174657F
:100B30002073797374656D203200473536202D207F
:100B4000636F6F7264696E61746520737973746525
:100B50006D203300473537202D20636F6F72646935
:100B60006E6174652073797374656D203400473548
:100B700038202D20636F6F7264696E617465207315
:100B8000797374656D203500473539202D20636FEA
:100B90006F7264696E6174652073797374656D201A
:100BA0003600473020202D206C696E6561722074FC
:100BB0007261766572736520287365656B290047DD
:100BC0003120202D206C696E656172206665656438
:100BD00000473220202D20636C6F636B776973654B
:100BE00020617263206665656400473320202D20F4
:100BF000636F756E74657220636C6F636B77697376
:100C00006520617263206665656400473830202D79
:100C10002063616E63656C206D6F74696F6E206D0B
:100C20006F646520286E6F6E6520616374697665F8
:100C30002900473137202D20585920706C616E658E
:100C400000473138202D20585A20706C616E6500A5
:100C5000473139202D20595A20706C616E6500474C
:100C60003631202D2065786163742073746F702095
:100C70006D6F646500473634202D20636F6E746994
:100C80006E756F7573206D6F646500473930202D68
:100C9000206162736F6C7574652064697374616E32
:100CA0006365206D6F646500473931202D20696EC2
:100CB0006372656D656E74616C2064697374616ED6
:100CC0006365206D6F646500473934202D20756E93
:100CD0006974732D7065722D6D696E757465206D04
:100CE0006F64652028692E652E20666565647261D3
:100CF0007465206D6F64652900473933202D2069A4
:100D00006E76657273652074696D65206D6F6465BC
:100D1000005B64697361626C65645D005B73746140
:100D20006E646172645D005B696E686962697465B6
:100D3000645D005B7261646975735D0020696E00BB
:100D4000206D6D0020646567007379730066620032
:100D50000000000702CD6DD95104529333299CC67F
:100D600043737973006676000000000703D16DD9E4
:100D70005104529733EC51783F73797300687000D7
:100D80000000000700D56DD951B5529B330000809B
:100D90003F737973006876000000000700D96DD9B1
:100DA00051AD6D9F33000000417379730069640099
:100DB0000000000400DD6D4F6D04528F3300000011
:100DC00000000000006E00000000000100924FD201
:100DD0004D6F52772B00000000000000006C696E20
:100DE0006500000100924FE94D6F52772B00000023
:100DF000000000000076656C0000000002564F0005
:100E00004E04528F3300000000000000006665654C
:100E10006400000002744FE05204528F330000005F
:100E200000000000007374617400000000964F43DE
:100E30004D04528F3300000000000000006D61631C
:100E400073000000009A4F504D04528F3300000091
:100E5000000000000063796373000000009E4F569D
:100E60004D04528F3300000000000000006D6F74CD
:100E70007300000000A24F5C4D04528F330000004D
:100E80000000000000686F6C6400000000A64F6264
:100E90004D04528F330000000000000000756E69A1
:100EA0007400000000AE4F6E4D04528F33000000FE
:100EB0000000000000636F6F7200000000B24F7905
:100EC0004D04528F3300000000000000006D6F6D74
:100ED0006F00000000B64F844D04528F33000000B5
:100EE0000000000000706C616E00000000BA4F8DC1
:100EF0004D04528F33000000000000000070617448
:100F00006800000000BE4F984D04528F330000006F
:100F100000000000006469737400000000C24FA369
:100F20004D04528F33000000000000000066726D17
:100F30006F00000000C64FAE4D04528F330000001A
:100F40000000000000746F6F6C00000000CA4FB911
:100F50004D04528F33000000006D706F006D706F94
:100F600078000000030251584E04528F33000000F5
:100F7000006D706F006D706F7900000003025158B2
:100F80004E04528F33000000006D706F006D706F63
:100F90007A000000030251584E04528F33000000C3
:100FA000006D706F006D706F61000000030251589A
:100FB0004E04528F33000000006D706F006D706F33
:100FC00062000000030251584E04528F33000000AB
:100FD000006D706F006D706F630000000302515868
:100FE0004E04528F3300000000706F7300706F73F7
:100FF0007800000003FC50334E04528F3300000091
:1010000000706F7300706F737900000003FC503341
:101010004E04528F3300000000706F7300706F73C6
:101020007A00000003FC50334E04528F330000005E
:1010300000706F7300706F736100000003FC503329
:101040004E04528F3300000000706F7300706F7396
:101050006200000003FC50334E04528F3300000046
:1010600000706F7300706F736300000003FC5033F7
:101070004E04528F33000000006F6673006F66737A
:1010800078000000030251884E04528F33000000A4
:10109000006F6673006F6673790000000302518869
:1010A0004E04528F33000000006F6673006F66734A
:1010B0007A000000030251884E04528F3300000072
:1010C000006F6673006F6673610000000302518851
:1010D0004E04528F33000000006F6673006F66731A
:1010E00062000000030251884E04528F330000005A
:1010F000006F6673006F667363000000030251881F
:101100004E04528F3300000000686F6D00686F6DF1
:101110006500000000AA4F684D1E4F8F330000008D
:1011200000686F6D00686F6D7800000000FC5079FA
:10113000510452652B00000000686F6D00686F6DF0
:101140007900000000FC5079510452662B00000029
:1011500000686F6D00686F6D7A00000000FC5079C8
:10116000510452672B00000000686F6D00686F6DBE
:101170006100000000FC5079510452682B0000000F
:1011800000686F6D00686F6D6200000000FC5079B0
:10119000510452692B00000000686F6D00686F6D8C
:1011A0006300000000FC50795104526A2B000000DB
:1011B000006A6F67006A6F67780000000068AD75AD
:1011C000513A4F712B000000006A6F67006A6F6729
:1011D000790000000068AD7551414F712B0000008F
:1011E000006A6F67006A6F677A0000000068AD757B
:1011F00051484F712B000000006A6F67006A6F67EB
:10120000610000000068AD75514F4F712B00000068
:1012100000000000007372000000000000EA9ABDA8
:101220009ABF9A8F33000000000000000071720026
:101230000000000000E09B969B04528F33000000EA
:1012400000000000007169000000000000E49BAA9B
:101250009B04528F330000000000000000716F00FB
:101260000000000000E89BC59B04528F3300000083
:101270000000000000657200000000000068AD9DE5
:101280009704528F330000000000000000716600D8
:10129000000000000068AD7551194F8F3300000049
:1012A00000000000007278000000000000C6AD03DE
:1012B0005904528F3300000000000000006D736776
:1012C00000000000007FAD755104528F3300000014
:1012D0000000000000746573740000000068AD58E1
:1012E0006E6AA98F3300000000000000006465668C
:1012F000610000000068AD7B6E0B578F330000006B
:101300000000000000626F6F740000000068AD9E76
:101310006EA86D8F33000000000000000068656C4F
:10132000700000000068AD216E04528F3300000091
:101330000000000000680000000000000068AD210F
:101340006E04528F330000000031000000316D61E7
:101350000000000300D0A679510652E24E00004082
:1013600040310000003173610000000302D4A6D9AF
:10137000511BA5EA4E6666E63F31000000317472EB
:101380000000000303D9A6E05228A5EE4E0000B4E9
:101390004331000000316D690000000300E8A679C8
:1013A0005135A5E34E000000413100000031706F5F
:1013B0000000000300ECA679512752E44E000080A3
:1013C0003F3100000031706D0000000300F0A6798D
:1013D00051EFA5E54E0000803F31000000316D70F7
:1013E0000000000303F4A6D9518DA6E64E0000C804
:1013F0004132000000326D610000000300D0A67988
:10140000510652FA4E000000403200000032736173
:101410000000000302D4A6D9511BA5024F000070A2
:1014200041320000003274720000000303D9A6E0CC
:101430005228A5064F5C8FA23F32000000326D6932
:101440000000000300E8A6795135A5FB4E0000001E
:10145000413200000032706F0000000300ECA679FA
:10146000512752FC4E0000803F3200000032706D68
:101470000000000300F0A67951EFA5FD4E0000002A
:101480000032000000326D700000000303F4A6D9A2
:10149000518DA6FE4E0000C84133000000336D613F
:1014A0000000000300D0A679510652124F000080C0
:1014B0003F330000003373610000000302D4A6D95B
:1014C000511BA51A4F6666E63F3300000033747265
:1014D0000000000303D9A6E05228A51E4F5C8FA28E
:1014E0004033000000336D690000000300E8A67976
:1014F0005135A5134F000000413300000033706FD9
:101500000000000300ECA679512752144F00008020
:101510003F3300000033706D0000000300F0A67937
:1015200051EFA5154F0000000033000000336D702F
:101530000000000303F4A6D9518DA6164F0000C881
:101540004134000000346D610000000300D0A67932
:101550005106522A4F00000000340000003473612D
:101560000000000302D4A6D9511BA5324F6666E6DF
:101570003F340000003474720000000303D9A6E079
:101580005228A5364F5C8FA24034000000346D69AC
:101590000000000300E8A6795135A52B4F0000009C
:1015A000413400000034706F0000000300ECA679A5
:1015B0005127522C4F000000003400000034706DA1
:1015C0000000000300F0A67951EFA52D4F000000A8
:1015D0000034000000346D700000000303F4A6D94D
:1015E000518DA62E4F0000C8417800000078616D33
:1015F00000000003007850B34EC64E392A00008028
:101600003F7800000078766D0000000300C050E0D5
:1016100052FD523E2A0080BB44780000007866727A
:101620000000000300BC50E052FD523A2A0080BB8B
:10163000447800000078746D0000000300C450E09E
:1016400052FD52422A000016437800000078746E62
:101650000000000300C850E052FD52462A0000007E
:101660000078000000786A6D0000000300CC50E9AB
:101670004EED4E4A2A0000164478000000786A6851
:101680000000000300D050E94EED4E4E2A0000C885
:101690004378000000786A640000000304D450E03E
:1016A00052FD52522A0AD7233C7800000078736E0C
:1016B0000000000300DC5079514CA95E2900008035
:1016C0003F780000007873780000000300E0507954
:1016D000514CA95F29000000007800000078737663
:1016E0000000000300E450E052FD525A2A00803B03
:1016F0004478000000786C760000000300E850E0B9
:1017000052FD525E2A0000164378000000786C6299
:101710000000000303EC50E052FD52622A0000A0DA
:101720004078000000787A620000000303F050E087
:1017300052FD52662A000000007900000079616DB8
:1017400000000003007850B34EC64E6A2A000080A5
:101750003F7900000079766D0000000300C050E082
:1017600052FD526F2A0080BB4479000000796672F6
:101770000000000300BC50E052FD526B2A0080BB09
:10178000447900000079746D0000000300C450E04B
:1017900052FD52732A0000FA427900000079746EFB
:1017A0000000000300C850E052FD52772A000000FC
:1017B0000079000000796A6D0000000300CC50E958
:1017C0004EED4E7B2A0000164479000000796A68CD
:1017D0000000000300D050E94EED4E7F2A0000C803
:1017E0004379000000796A640000000304D450E0EB
:1017F00052FD52832A0AD7233C7900000079736E88
:101800000000000300DC5079514CA96029000080E1
:101810003F790000007973780000000300E0507900
:10182000514CA9612900000000790000007973760D
:101830000000000300E450E052FD528B2A00803B80
:101840004479000000796C760000000300E850E065
:1018500052FD528F2A0000164379000000796C6215
:101860000000000303EC50E052FD52932A0000A058
:101870004079000000797A620000000303F050E034
:1018800052FD52972A000000007A0000007A616D34
:1018900000000003007850B34EC64E9B2A00008023
:1018A0003F7A0000007A766D0000000300C050E02F
:1018B00052FD52A02A000048447A0000007A667265
:1018C0000000000300BC50E052FD529C2A00007A48
:1018D000447A0000007A746D0000000300C450E0F8
:1018E00052FD52A42A0000A0427A0000007A746ED1
:1018F0000000000300C850E052FD52A82A0000007A
:10190000007A0000007A6A6D0000000300CC50E904
:101910004EED4EAC2A000016447A0000007A6A6848
:101920000000000300D050E94EED4EB02A0000C880
:10193000437A0000007A6A640000000304D450E097
:1019400052FD52B42A0AD7233C7A0000007A736E03
:101950000000000300DC5079514CA962290000000E
:10196000007A0000007A73780000000300E05079EC
:10197000514CA963290000803F7A0000007A7376F9
:101980000000000300E450E052FD52BC2A0000FABF
:10199000437A0000007A6C760000000300E850E013
:1019A00052FD52C02A0000C8427A0000007A6C62E0
:1019B0000000000303EC50E052FD52C42A0000A0D6
:1019C000407A0000007A7A620000000303F050E0E1
:1019D00052FD52C82A000000006100000061616DE4
:1019E00000000003007850B34EC64ECC2A000040E1
:1019F000406100000061766D0000000300C050D916
:101A000051B552D12A0000B44461000000616672F1
:101A10000000000300BC50D951B552CD2A0000B4DB
:101A2000446100000061746D0000000300C450D9DF
:101A300051B552D52A000080BF6100000061746E6C
:101A40000000000300C850E052FD52D92A00008077
:101A5000BF61000000616A6D0000000300CC50E926
:101A60004EED4EDD2A0000164461000000616A68F8
:101A70000000000300D050E94EED4EE12A000016B0
:101A80004461000000616A640000000304D450D97E
:101A900051B552E52A0AD7233C610000006172610A
:101AA0000000000303D850D951B552E92ACF2E6562
:101AB000426100000061736E0000000300DC507999
:101AC000514CA964290000803F61000000617378D7
:101AD0000000000300E05079514CA9652900000086
:101AE00000610000006173760000000300E450D93B
:101AF00051B552ED2A0000164461000000616C7679
:101B00000000000300E850D951B552F12A0000C886
:101B10004261000000616C620000000303EC50D9D8
:101B200051B552F52A0000A04061000000617A62C0
:101B30000000000303F050D951B552F92A0000000B
:101B4000406200000062616D00000003007850B345
:101B50004EC64EFD2A000000006200000062766D55
:101B60000000000300C050D951B552022B000061A3
:101B700045620000006266720000000300BC50D99C
:101B800051B552FE2A000061456200000062746D8A
:101B90000000000300C450D951B552062B0000804C
:101BA000BF6200000062746E0000000300C850E0D5
:101BB00052FD520A2B000080BF62000000626A6D75
:101BC0000000000300CC50E94EED4E0E2B00001635
:101BD0004462000000626A640000000300D450D92F
:101BE00051B552162B0AD7233C6200000062726185
:101BF0000000000303D850D951B5521A2B000080C1
:101C00003F6300000063616D00000003007850B383
:101C10004EC64E2E2B000000006300000063766D60
:101C20000000000300C050D951B552332B000061B1
:101C300045630000006366720000000300BC50D9D9
:101C400051B5522F2B000061456300000063746D95
:101C50000000000300C450D951B552372B0000805A
:101C6000BF63000000636A6D0000000300CC50E910
:101C70004EED4E3F2B000016446300000063746E6F
:101C80000000000300C850E052FD523B2B000080D2
:101C9000BF63000000636A640000000300D450D9F1
:101CA00051B552472B0AD7233C6300000063726191
:101CB0000000000303D850D951B5524B2B000080CF
:101CC0003F703100007031667271000300E896D9F0
:101CD00051B552C94D0000C84270310000703163E7
:101CE000736C000300EC96D951B552CD4D00007ACB
:101CF00044703100007031637368000300F096D9BE
:101D000051B552D14D0000FA44703100007031637A
:101D1000706C000303F496D951B552D54D00000004
:101D20003E703100007031637068000303F896D98B
:101D300051B552D94DCDCC4C3E7031000070317749
:101D4000736C000300FC96D951B552DD4D00007A4A
:101D5000447031000070317773680003000097D938
:101D600051B552E14D0000FA4470310000703177F6
:101D7000706C0003030497D951B552E54D00000083
:101D80003E7031000070317770680003030897D906
:101D900051B552E94DCDCC4C3E70310000703170E0
:101DA0006F660003030C97D951B552ED4DCDCCCCE5
:101DB0003D673534006735347800000303F450E0A4
:101DC00052FD52A929000000006735340067353400
:101DD0007900000303F450E052FD52AD29000000E9
:101DE00000673534006735347A00000303F450E0AF
:101DF00052FD52B1290000000067353400673534C8
:101E00006100000303F450E052FD52B529000000C8
:101E100000673534006735346200000303F450E096
:101E200052FD52B92900000000673534006735348F
:101E30006300000303F450E052FD52BD290000008E
:101E400000673535006735357800000303F450E04E
:101E500052FD52C129000000006735350067353555
:101E60007900000303F450E052FD52C52900000040
:101E700000673535006735357A00000303F450E01C
:101E800052FD52C9294C3770C26735350067353568
:101E90006100000303F450E052FD52CD2900000020
:101EA00000673535006735356200000303F450E004
:101EB00052FD52D1290000000067353500673535E5
:101EC0006300000303F450E052FD52D529000000E6
:101ED00000673536006735367800000303F450E0BC
:101EE00052FD52D9290000000067353600673536AB
:101EF0007900000303F450E052FD52DD2900000098
:101F000000673536006735367A00000303F450E089
:101F100052FD52E129000000006735360067353672
:101F20006100000303F450E052FD52E52900000077
:101F300000673536006735366200000303F450E071
:101F400052FD52E92900000000673536006735363A
:101F50006300000303F450E052FD52ED290000003D
:101F600000673537006735377800000303F450B752
:101F7000519352F12900000000673537006735376B
:101F80007900000303F450B7519352F52900000083
:101F900000673537006735377A00000303F450B720
:101FA000519352F929000000006735370067353733
:101FB0006100000303F450B7519352FD2900000063
:101FC00000673537006735376200000303F450B708
:101FD000519352012A0000000067353700673537FA
:101FE0006300000303F450B7519352052A00000028
:101FF00000673538006735387800000300F450B7C3
:10200000519352092A0000000067353800673538BF
:102010007900000300F450B75193520D2A000000DC
:1020200000673538006735386100000300F450B7A9
:10203000519352152A000000006735380067353883
:102040007A00000300F450B7519352112A000000A7
:1020500000673538006735386200000300F450B778
:10206000519352192A00000000673538006735384F
:102070006300000300F450B75193521D2A00000082
:1020800000673539006735397800000303F450B72D
:10209000519352212A000000006735390067353915
:1020A0007900000303F450B7519352252A00000031
:1020B00000673539006735397A00000303F450B7FB
:1020C000519352292A0000000067353900673539DD
:1020D0006100000303F450B75193522D2A00000011
:1020E00000673539006735396200000303F450B7E3
:1020F000519352312A0000000067353900673539A5
:102100006300000303F450B7519352352A000000D6
:1021100000673932006739327800000103F450E07B
:10212000520452E82B000000006739320067393250
:102130007900000103F450E0520452EC2B0000003F
:1021400000673932006739327A00000103F450E049
:10215000520452F02B000000006739320067393218
:102160006100000103F450D9510452F42B00000027
:1021700000673932006739326200000103F450D938
:10218000510452F82B0000000067393200673932E1
:102190006300000103F450D9510452FC2B000000ED
:1021A00000673238006732387800000103F850E0E9
:1021B000520452002C0000000067323800673238A9
:1021C0007900000103F850E0520452042C00000092
:1021D00000673238006732387A00000103F850E0B7
:1021E000520452082C000000006732380067323871
:1021F0006100000103F850D95104520C2C0000007A
:1022000000673238006732386200000103F850D9A5
:10221000510452102C000000006732380067323839
:102220006300000103F850D9510452142C0000003F
:1022300000673330006733307800000103F850E066
:10224000520452182C00000000673330006733300E
:102250007900000103F850E05204521C2C000000E9
:1022600000673330006733307A00000103F850E034
:10227000520452202C0000000067333000673330D6
:102280006100000103F850D9510452242C000000D1
:1022900000673330006733306200000103F850D923
:1022A000510452282C00000000673330006733309F
:1022B0006300000103F850D95104522C2C00000097
:1022C000006A6964006A6964610000000068AD9892
:1022D000516F52B633000000006A6964006A696495
:1022E000620000000068AD98516F52BA33000000E0
:1022F000006A6964006A6964630000000068AD9860
:10230000516F52BE33000000006A6964006A69645C
:10231000640000000068AD98516F52C233000000A5
:1023200000737973006A61000000000700E24FE06B
:1023300052FD5278290050C34773797300637400CB
:1023400000000007040050E052FD527C296F128308
:102350003A73797300737400000000070066A9796E
:102360005146A953290000803F737973006D7400B2
:102370000000000702CCA6D9511BA6DE4E000000CB
:1023800040000000006D650000000000007FAD749B
:10239000A674A68F3300000000000000006D6400EA
:1023A00000000000007FAD5BA65BA68F330000003D
:1023B0000073797300656A000000000700E173791B
:1023C00051275244330000803F737973006A7600CE
:1023D0000000000700E573795173735D370000401A
:1023E00040737973007476000000000700FEAD7939
:1023F000512752C34F0000803F73797300717600FC
:102400000000000700EC9B795157521F4E0000005E
:1024100000737973007376000000000700F09A796A
:10242000513F52264E0000803F737973007369005C
:102430000000000700EC9A9851C19A274E00007ADC
:102440004373797300656300000000070028597921
:1024500051D0584533000000007379730065650062
:102460000000000700245979519D584633000000B0
:102470000073797300657800000000070020597927
:10248000516A5847330000803F7379730062617569
:1024900064000004001C597951ED5748330000A036
:1024A00040737973006E6574000000030018597959
:1024B000510652A633000000007379730067706CF8
:1024C0000000000700CE4F79513F528D29000000D7
:1024D000007379730067756E0000000700D24F79B2
:1024E0005127528E290000803F7379730067636F14
:1024F0000000000700D64F795106528C29000000D9
:1025000040737973006770610000000700DA4F794B
:10251000513F528F2900000040737973006764694E
:102520000000000700DE4F7951275290290000007B
:102530000000000000676300000000000068AD605C
:102540006C706C8F3300000000000000006D7300A1
:1025500000000003005A50D951B552882900409C10
:1025600045000000006D6C0000000003041E50E0F8
:1025700052FD5280290AD7A33D000000006D610082
:1025800000000003043C50E052FD528429CDCCCC25
:102590003D000000006664000000000300A2AD7969
:1025A0005127525E37000000007564610075646158
:1025B0003000000300C6AD98516F524A330000004E
:1025C00000756461007564613100000300C6AD9858
:1025D000516F524E330000000075646100756461F4
:1025E0003200000300C6AD98516F52523300000014
:1025F00000756461007564613300000300C6AD9826
:10260000516F5256330000000075646200756462B9
:102610003000000300C6AD98516F525A33000000DD
:1026200000756462007564623100000300C6AD98F5
:10263000516F525E33000000007564620075646281
:102640003200000300C6AD98516F526233000000A3
:1026500000756462007564623300000300C6AD98C3
:10266000516F526633000000007564630075646347
:102670003000000300C6AD98516F526A330000006D
:1026800000756463007564633100000300C6AD9893
:10269000516F526E3300000000756463007564630F
:1026A0003200000300C6AD98516F52723300000033
:1026B00000756463007564633300000300C6AD9861
:1026C000516F5276330000000075646400756464D5
:1026D0003000000300C6AD98516F527A33000000FD
:1026E00000756464007564643100000300C6AD9831
:1026F000516F527E3300000000756464007564649D
:102700003200000300C6AD98516F528233000000C2
:1027100000756464007564643300000300C6AD98FE
:10272000516F5286330000000000000000736530D6
:10273000300000020068AD98516F52304E0000002A
:102740000000000000736530310000020068AD98A1
:10275000516F52324E0000000000000000736530DF
:10276000320000020068AD98516F52344E000000F4
:102770000000000000736530330000020068AD986F
:10278000516F52364E0000000000000000736530AB
:10279000340000020068AD98516F52384E000000BE
:1027A0000000000000736530350000020068AD983D
:1027B000516F523A4E000000000000000073653077
:1027C000360000020068AD98516F523C4E00000088
:1027D0000000000000736530370000020068AD980B
:1027E000516F523E4E000000000000000073653043
:1027F000380000020068AD98516F52404E00000052
:102800000000000000736530390000020068AD98D8
:10281000516F52424E00000000000000007365310D
:10282000300000020068AD98516F52444E00000025
:102830000000000000736531310000020068AD98AF
:10284000516F52464E0000000000000000736531D9
:10285000320000020068AD98516F52484E000000EF
:102860000000000000736531330000020068AD987D
:10287000516F524A4E0000000000000000736531A5
:10288000340000020068AD98516F524C4E000000B9
:102890000000000000736531350000020068AD984B
:1028A000516F524E4E000000000000000073653171
:1028B000360000020068AD98516F52504E00000083
:1028C0000000000000736531370000020068AD9819
:1028D000516F52524E00000000000000007365313D
:1028E000380000020068AD98516F52544E0000004D
:1028F0000000000000736531390000020068AD98E7
:10290000516F52564E000000000000000073653207
:10291000300000020068AD98516F52584E00000020
:102920000000000000736532310000020068AD98BD
:10293000516F525A4E0000000000000000736532D3
:10294000320000020068AD98516F525C4E000000EA
:102950000000000000736532330000020068AD988B
:10296000516F525E4E00000000000000007365329F
:10297000340000020068AD98516F52604E000000B4
:102980000000000000736532350000020068AD9859
:10299000516F52624E00000000000000007365326B
:1029A000360000020068AD98516F52644E0000007E
:1029B0000000000000736532370000020068AD9827
:1029C000516F52664E000000000000000073653237
:1029D000380000020068AD98516F52684E00000048
:1029E0000000000000736532390000020068AD98F5
:1029F000516F526A4E0000000000000000737973AE
:102A0000000000000068AD8F54E4568F33000000D2
:102A10000000000000703100000000000068AD8F71
:102A200054E4568F33000000000000000031000025
:102A3000000000000068AD8F54E4568F33000000A2
:102A40000000000000320000000000000068AD8FB0
:102A500054E4568F330000000000000000330000F3
:102A6000000000000068AD8F54E4568F3300000072
:102A70000000000000340000000000000068AD8F7E
:102A800054E4568F3300000000000000007800007E
:102A9000000000000068AD8F54E4568F3300000042
:102AA0000000000000790000000000000068AD8F09
:102AB00054E4568F3300000000000000007A00004C
:102AC000000000000068AD8F54E4568F3300000012
:102AD0000000000000610000000000000068AD8FF1
:102AE00054E4568F33000000000000000062000034
:102AF000000000000068AD8F54E4568F33000000E2
:102B00000000000000630000000000000068AD8FBE
:102B100054E4568F33000000000000000067353495
:102B2000000000000068AD8F54E4568F33000000B1
:102B30000000000000673535000000000068AD8F20
:102B400054E4568F33000000000000000067353663
:102B5000000000000068AD8F54E4568F3300000081
:102B60000000000000673537000000000068AD8FEE
:102B700054E4568F33000000000000000067353831
:102B8000000000000068AD8F54E4568F3300000051
:102B90000000000000673539000000000068AD8FBC
:102BA00054E4568F33000000000000000067393203
:102BB000000000000068AD8F54E4568F3300000021
:102BC0000000000000673238000000000068AD8F90
:102BD00054E4568F330000000000000000673330DB
:102BE000000000000068AD8F54E4568F33000000F1
:102BF00000000000006D706F000000000068AD8FE5
:102C000054E4568F330000000000000000706F7322
:102C1000000000000068AD8F54E4568F33000000C0
:102C200000000000006F6673000000000068AD8FB8
:102C300054E4568F330000000000000000686F6D00
:102C4000000000000068AD8F54E4568F3300000090
:102C500000000000006A6F67000000000068AD8F90
:102C600054E4568F3300000000000000006A6964DD
:102C7000000000000068AD8F54E4568F3300000060
:102C80000000000000756461000000000068AD8F66
:102C900054E4568F330000000000000000756462A9
:102CA000000000000068AD8F54E4568F3300000030
:102CB0000000000000756463000000000068AD8F34
:102CC00054E4568F33000000000000000075646477
:102CD000000000000068AD8F54E4568F3300000000
:102CE00000000000006D0000000000000068AD8DD5
:102CF0005904528F330000000000000000710000F2
:102D0000000000000068AD735904528F33000000CA
:102D100000000000006F0000000000000068AD59D6
:102D20005904528F3300000000000000002400000E
:102D3000000000000068ADA75904528F3300000066
:102D4000005B65635D2020657870616E64204C4691
:102D500020746F2043524C46206F6E205458253605
:102D600064205B303D6F66662C313D6F6E5D0A00FE
:102D70005B65655D2020656E61626C6520656368DA
:102D80006F25313864205B303D6F66662C313D6FB6
:102D90006E5D0A005B65785D2020656E61626C6522
:102DA00020666C6F7720636F6E74726F6C253130A4
:102DB00064205B303D6F66662C313D584F4E2F5876
:102DC0004F46462C20323D5254532F4354535D0AF4
:102DD000005B626175645D205553422062617564D9
:102DE000207261746525313564205B313D393630A0
:102DF000302C323D31393230302C333D33383430A1
:102E0000302C343D35373630302C353D313135328C
:102E100030302C363D3233303430305D0A005B6E5A
:102E200065745D20206E6574776F726B206D6F64C2
:102E30006525313664205B303D6D61737465725D6C
:102E40000A002A2A2A205741524E494E47202A2A50
:102E50002A20556E737570706F727465642062619C
:102E60007564207261746520737065636966696555
:102E70006400A92EAB2EB02EB62EBC2EC22EC92EAB
:102E80002A2A2A204E4F54494345202A2A2A2052D2
:102E90006573657474696E67206261756420726120
:102EA000746520746F20257300300039363030008F
:102EB0003139323030003338343030003537363045
:102EC0003000313135323030003233303430300080
:102ED000456E64206F6620636F6D6D616E64206661
:102EE000696C650A002A2A2A205741524E494E47EA
:102EF000202A2A2A20486F6D696E67206572726FDA
:102F0000723A20256320617869732073657474694F
:102F10006E6773206D6973636F6E6669677572653E
:102F200064002A2A2A205741524E494E47202A2A15
:102F30002A2050726F62696E67206572726F723AF2
:102F400020256320617869732073657474696E67E6
:102F500073206D6973636F6E66696775726564006F
:102F60005B66625D20206669726D776172652062C2
:102F700075696C642531382E32660A005B66765DB1
:102F800020206669726D776172652076657273695B
:102F90006F6E2531362E32660A005B68705D202028
:102FA000686172647761726520706C6174666F72BB
:102FB0006D2531352E32660A005B68765D2020680B
:102FC000617264776172652076657273696F6E25D0
:102FD00031362E32660A005B69645D202054696ECA
:102FE0007947204944253330730A000A0A0A23230B
:102FF00023232054696E79472048656C7020232371
:1030000023230A00546865736520636F6D6D616EDC
:1030100064732061726520616374697665206672ED
:103020006F6D2074686520636F6D6D616E64206CD8
:10303000696E653A0A205E7820202020202020201A
:10304000202020202052657365742028636F6E74E1
:10305000726F6C207829202D20736F6674776172EF
:10306000652072657365740A20203F20202020208F
:1030700020202020202020204D616368696E65207B
:10308000706F736974696F6E20616E642067636F1F
:103090006465206D6F64656C2073746174650A20CB
:1030A00020242020202020202020202020202053E9
:1030B000686F7720616E642073657420636F6E663D
:1030C000696775726174696F6E2073657474696E77
:1030D00067730A202021202020202020202020206B
:1030E00020202046656564686F6C64202D20737411
:1030F0006F70206D6F74696F6E20776974686F757B
:1031000074206C6F73696E6720706F736974696F78
:103110006E0A20207E202020202020202020202019
:1031200020204379636C65205374617274202D20D4
:10313000726573746172742066726F6D2066656566
:1031400064686F6C640A20206820202020202020E2
:1031500020202020202053686F7720746869732016
:1031600068656C702073637265656E0A2020246840
:1031700020202020202020202020202053686F772E
:1031800020636F6E66696775726174696F6E20681F
:10319000656C702073637265656E0A202024746507
:1031A00073742020202020202020204C697374205C
:1031B00073656C662D74657374730A2020247465BE
:1031C00073743D4E2020202020202052756E2073E5
:1031D000656C662D74657374204E0A202024686F18
:1031E0006D653D312020202020202052756E206109
:1031F00020686F6D696E67206379636C650A2020B3
:1032000024646566613D3120202020202020526505
:1032100073746F726520616C6C2073657474696E71
:10322000677320746F2022666163746F7279222045
:1032300064656661756C74730A000A4E6F74653A52
:103240002054696E79472067656E65726174657395
:10325000206175746F6D6174696320737461747536
:1032600073207265706F7274732062792064656672
:1032700061756C740A546869732063616E206265BD
:103280002064697361626C656420627920656E7484
:103290006572696E67202473763D300A5365652038
:1032A0007468652077696B692062656C6F7720664A
:1032B0006F72206D6F72652064657461696C732E26
:1032C0000A000A466F722064657461696C65642047
:1032D00054696E794720696E666F207365653A2080
:1032E00068747470733A2F2F6769746875622E63FF
:1032F0006F6D2F73796E746865746F732F54696E78
:1033000079472F77696B692F0A466F722074686559
:10331000206C6174657374206669726D7761726583
:10332000207365653A2068747470733A2F2F67694B
:10333000746875622E636F6D2F73796E746865742F
:103340006F732F54696E79470A506C6561736520FD
:103350006C6F6720616E7920697373756573206186
:103360007420687474703A2F2F7777772E73796E84
:10337000746865746F732E636F6D2F666F72756DF1
:10338000730A486176652066756E0A000A0A0A2388
:103390002323232054696E794720434F4E464947E3
:1033A00055524154494F4E2048656C7020232323C9
:1033B000230A00546865736520636F6D6D616E64E8
:1033C00073206172652061637469766520666F722F
:1033D00020636F6E66696775726174696F6E3A0A11
:1033E0002020247379732053686F77207379737466
:1033F000656D202867656E6572616C292073657440
:1034000074696E67730A2020243120202053686F6E
:1034100077206D6F746F7220312073657474696EDC
:10342000677320286F7220776861746576657220F3
:103430006D6F746F7220796F752077616E742031B3
:103440002C322C332C34290A20202478202020539D
:10345000686F772058206178697320736574746988
:103460006E677320286F7220776861746576657265
:10347000206178697320796F752077616E74207888
:103480002C792C7A2C612C622C63290A2020246D43
:1034900020202053686F7720616C6C206D6F746FF3
:1034A000722073657474696E67730A20202471201A
:1034B000202053686F7720616C6C206178697320DD
:1034C00073657474696E67730A2020246F2020204E
:1034D00053686F7720616C6C206F6666736574202B
:1034E00073657474696E67730A2020242420202079
:1034F00053686F7720616C6C2073657474696E67B4
:10350000730A2020246820202053686F7720746875
:1035100069732068656C702073637265656E0A0A52
:103520000045616368202420636F6D6D616E6420C7
:1035300061626F766520616C736F20646973706C73
:103540006179732074686520746F6B656E20666F97
:103550007220656163682073657474696E672069A1
:103560006E205B205D20627261636B6574730A5428
:103570006F20766965772073657474696E67732050
:10358000656E746572206120746F6B656E3A0A0A0D
:103590002020243C746F6B656E3E0A0A466F7220D1
:1035A0006578616D706C65202479667220746F2077
:1035B000646973706C6179207468652059206D614D
:1035C00078206665656420726174650A0A546F200C
:1035D0007570646174652073657474696E677320B7
:1035E000656E74657220746F6B656E2065717561B0
:1035F0006C732076616C75653A0A0A2020243C744D
:103600006F6B656E3E3D3C76616C75653E0A0A46A1
:103610006F72206578616D706C6520247966723DEB
:1036200038303020746F20736574207468652059B9
:10363000206D617820666565642072617465207410
:103640006F20383030206D6D2F6D696E7574650A8E
:10365000466F7220636F6E66696775726174696F19
:103660006E2064657461696C73207365653A2068C7
:10367000747470733A2F2F6769746875622E636F64
:103680006D2F73796E746865746F732F54696E79DA
:10369000472F77696B692F54696E79472D436F6E99
:1036A00066696775726174696F6E0A000A0A0A2397
:1036B0002323232054696E79472053454C462054D8
:1036C0004553542048656C7020232323230A004966
:1036D0006E766F6B652073656C66207465737420FD
:1036E000627920656E746572696E672024746573F3
:1036F000743D4E207768657265204E206973206F97
:103700006E65206F663A0A202024746573743D311B
:103710002020736D6F6B6520746573740A202024FC
:10372000746573743D322020686F6D696E67207414
:1037300065737420202028796F75206D757374204F
:103740007472697020686F6D696E67207377697431
:1037500063686573290A202024746573743D3320DF
:103760002073717561726520746573742020202840
:103770006120736572696573206F6620737175616E
:10378000726573290A202024746573743D342020E7
:1037900061726320746573742020202020202873B8
:1037A0006F6D65206C6172676520636972636C651B
:1037B00073290A202024746573743D3520206477B2
:1037C000656C6C207465737420202020286D6F76E2
:1037D00065732073706163656420627920312073A2
:1037E00065636F6E64206477656C6C73290A2020B2
:1037F00024746573743D36202066656564686F6C5B
:103800006420746573742028656E746572202120AD
:10381000616E64207E20746F20686F6C6420616E1E
:103820006420726573746172742C207265737065A4
:1038300063746976656C79290A2020247465737431
:103840003D3720204D20636F646573207465737469
:103850002020284D20636F64657320696E74657243
:103860006D696E676C65642077697468206D6F762A
:103870006573290A202024746573743D3820204A1A
:10388000534F4E20746573742020202020286D6FC4
:1038900074696F6E20746573742072756E20757311
:1038A000696E67204A534F4E20636F6D6D616E6481
:1038B00073290A202024746573743D392020696EB1
:1038C00076657273652074696D6520746573740A1A
:1038D000202024746573743D313020726F746172DE
:1038E00079206D6F74696F6E20746573740A20207F
:1038F00024746573743D313120736D616C6C206D7F
:103900006F76657320746573740A20202474657360
:10391000743D313220736C6F77206D6F7665732044
:10392000746573740A202024746573743D313320E8
:10393000636F6F7264696E61746520737973746507
:103940006D206F66667365742074657374202847F4
:1039500039322C204735342D473539290A0A546528
:1039600073747320617373756D6520612063656E78
:103970007465726564205859206F726967696E209A
:10398000616E64206174206C656173742038306DE1
:103990006D20636C656172616E636520696E206184
:1039A0006C6C20646972656374696F6E730A546528
:1039B00073747320617373756D65205A2068617329
:1039C000206174206C656173742034306D6D2070DB
:1039D0006F7369697469766520636C656172616E85
:1039E00063650A546573747320737461727420770D
:1039F0006974682061204730205830205930205A9F
:103A000030206D6F76650A486F6D696E6720697347
:103A10002074686520657863657074696F6E2E2008
:103A20004E6F20696E697469616C20706F73697480
:103A3000696F6E206F7220636C656172616E636581
:103A400020697320617373756D65640A000A0A0A40
:103A5000232323232054696E794720524553544F22
:103A600052452044454641554C54532048656C709E
:103A700020232323230A00456E7465722024646585
:103A800066613D3120746F207265736574207468BF
:103A9000652073797374656D20746F207468652078
:103AA000666163746F72792064656661756C7420F9
:103AB00076616C7565732E0A546869732077696C3A
:103AC0006C206F766572777269746520616E7920FB
:103AD0006368616E67657320796F752068617665CC
:103AE000206D6164652E0A000A0A0A23232323201D
:103AF00054696E794720424F4F54204C4F41444502
:103B0000522048656C7020232323230A00456E74DD
:103B100065722024626F6F743D3120746F20656E72
:103B20007465722074686520626F6F74206C6F61B9
:103B30006465722E0A005B656A5D2020656E6162B5
:103B40006C65206A736F6E206D6F64652531336418
:103B5000205B303D746578742C313D4A534F4E5D87
:103B60000A005B6A765D20206A736F6E207665724C
:103B7000626F7369747925313564205B303D7369F8
:103B80006C656E742C313D666F6F7465722C323DBE
:103B90006D657373616765732C333D636F6E666922
:103BA00067732C343D6C696E656E756D2C353D7692
:103BB0006572626F73655D0A00973C9A3CA03CA7F2
:103BC0003CAC3CB53CC03CCB3CD73CE33CF13C0876
:103BD0003D173D243D303D443D513D663D7A3D7DA0
:103BE0003D803D8F3DA43DB93DC83DD83DEA3D01F6
:103BF0003E1E3E393E3C3E3F3E423E453E483E4BE9
:103C00003E4E3E513E543E573E5A3E6F3E873E9991
:103C10003EB23EC83EDE3EF63E0E3F203F3E3F53A4
:103C20003F673F843F873F8A3F8D3F903F933F965A
:103C30003F993FB73FD33FE73FF93F0E4026404211
:103C40004056406A4085409D40B140C640DB40DE62
:103C500040E140E440E740EA40ED40F040F340F608
:103C600040F940FC40FF400241054108410B410E34
:103C7000411141144117411A411D41204123412660
:103C800041294143415C4172418A41A741CB41E511
:103C900041FF411D4242424F4B004572726F72001C
:103CA00045616761696E004E6F6F7000436F6D70A4
:103CB0006C657465005465726D696E61746564004D
:103CC0004861726420726573657400456E64206F8C
:103CD00066206C696E6500456E64206F66206669BB
:103CE0006C650046696C65206E6F74206F70656E40
:103CF000004D61782066696C652073697A6520657E
:103D000078636565646564004E6F20737563682031
:103D10006465766963650042756666657220656DE7
:103D2000707479004275666665722066756C6C0009
:103D30004275666665722066756C6C202D20666122
:103D400074616C00496E697469616C697A696E6747
:103D500000456E746572696E6720626F6F74206CC7
:103D60006F616465720046756E6374696F6E206979
:103D700073207374756262656400313800313900F4
:103D8000496E7465726E616C206572726F72004963
:103D90006E7465726E616C2072616E67652065720B
:103DA000726F7200466C6F6174696E6720706F6924
:103DB0006E74206572726F72004469766964652062
:103DC0006279207A65726F00496E76616C69642051
:103DD0004164647265737300526561642D6F6E6C2B
:103DE00079206164647265737300496E69746961F6
:103DF0006C697A6174696F6E206661696C75726551
:103E00000053797374656D20616C61726D202D2093
:103E10007368757474696E6720646F776E004D65A2
:103E20006D6F7279206661756C74206F7220636F9C
:103E30007272757074696F6E0032390033300033FE
:103E4000310033320033330033340033350033363E
:103E500000333700333800333900556E7265636FB5
:103E6000676E697A656420636F6D6D616E6400458D
:103E70007870656374656420636F6D6D616E642036
:103E80006C657474657200426164206E756D626564
:103E90007220666F726D617400496E707574206572
:103EA000786365656473206D6178206C656E6774F6
:103EB0006800496E7075742076616C756520746F4A
:103EC0006F20736D616C6C00496E70757420766143
:103ED0006C756520746F6F206C6172676500496E48
:103EE0007075742076616C75652072616E676520EF
:103EF0006572726F7200496E7075742076616C75B0
:103F00006520756E737570706F72746564004A53C6
:103F10004F4E2073796E746178206572726F7200F3
:103F20004A534F4E20696E70757420686173207417
:103F30006F6F206D616E79207061697273004A53F2
:103F40004F4E206F757470757420746F6F206C6F96
:103F50006E67004F7574206F6620627566666572C5
:103F600020737061636500436F6E666967207265D8
:103F70006A656374656420647572696E672063792D
:103F8000636C650035330035340035350035360057
:103F90003537003538003539004D6F7665206C6552
:103FA0007373207468616E206D696E696D756D2024
:103FB0006C656E677468004D6F7665206C65737311
:103FC000207468616E206D696E696D756D2074690D
:103FD0006D650047636F646520626C6F636B20736F
:103FE0006B69707065640047636F646520696E700B
:103FF0007574206572726F720047636F6465206626
:1040000065656472617465206572726F72004763E2
:104010006F6465206178697320776F7264206D69C1
:104020007373696E670047636F6465206D6F6461C9
:104030006C2067726F75702076696F6C6174696F40
:104040006E00486F6D696E67206379636C652066EA
:1040500061696C6564004D61782074726176656C8D
:10406000206578636565646564004D6178207370D0
:10407000696E646C6520737065656420657863653E
:104080006564656400417263207370656369666985
:10409000636174696F6E206572726F7200536F6630
:1040A00074206C696D697420657863656564656406
:1040B00000436F6D6D616E64206E6F742061636389
:1040C00065707465640050726F62696E6720637911
:1040D000636C65206661696C656400373400373550
:1040E00000373600373700373800373900383000AE
:1040F0003831003832003833003834003835003871
:104100003600383700383800383900393000393156
:10411000003932003933003934003935003936007E
:1041200039370039380039390047656E657269637F
:1041300020617373657274696F6E206661696C7556
:1041400072650047656E65726963206578636570A6
:1041500074696F6E207265706F7274004D656D6F5B
:104160007279206661756C7420646574656374652A
:104170006400537461636B206F766572666C6F7751
:1041800020646574656374656400436F6E74726F58
:104190006C6C657220617373657274696F6E2066F2
:1041A00061696C7572650043616E6F6E6963616C05
:1041B000206D616368696E652061737365727469EF
:1041C0006F6E206661696C75726500506C616E6E11
:1041D000657220617373657274696F6E20666169C0
:1041E0006C757265005374657070657220617373CD
:1041F000657274696F6E206661696C7572650045E1
:104200007874656E64656420494F206173736572CC
:1042100074696F6E206661696C7572650073745F96
:10422000707265705F6C696E652829206D6F7665A8
:104230002074696D6520697320696E66696E6974A2
:10424000650073745F707265705F6C696E652829B4
:10425000206D6F76652074696D65206973204E410D
:104260004E005F63616C63756C6174655F7472614D
:1042700070657A6F69642829206661696C656420BD
:10428000746F20636F6E7665726765005B70316670
:1042900072715D2070776D206672657175656E63F1
:1042A000792020202531352E336620487A0A005B9C
:1042B000703163736C5D2070776D2063772073704D
:1042C000656564206C6F202531352E336620525091
:1042D0004D0A005B70316373685D2070776D2063F9
:1042E00077207370656564206869202531352E3329
:1042F000662052504D0A005B703163706C5D207017
:10430000776D206377207068617365206C6F20255E
:1043100031352E3366205B302E2E315D0A005B7006
:10432000316370685D2070776D20637720706861FD
:104330007365206869202531352E3366205B302E69
:104340002E315D0A005B703177736C5D2070776D84
:1043500020636377207370656564206C6F25313549
:104360002E33662052504D0A005B70317773685DC2
:104370002070776D206363772073706565642068B3
:10438000692531352E33662052504D0A005B70315D
:1043900077706C5D2070776D206363772070686143
:1043A0007365206C6F2531352E3366205B302E2EE1
:1043B000315D0A005B70317770685D2070776D2029
:1043C0006363772070686173652068692531352ED5
:1043D0003366205B302E2E315D0A005B7031706FCA
:1043E000665D2070776D207068617365206F66660A
:1043F0002020202531352E3366205B302E2E315D76
:104400000A007B226572223A7B226662223A2530BC
:104410002E32662C227374223A25642C226D736727
:10442000223A222573227D7D0A00496E69746961F2
:104430006C697A696E6720636F6E66696773207452
:104440006F204F4D43204F746865724D696C6C202E
:1044500073657474696E6773004C6F6164696E672D
:1044600020636F6E666967732066726F6D204545C5
:1044700050524F4D0053595354454D2052454144DD
:1044800059005B73695D20207374617475732069D2
:104490006E74657276616C2531342E3066206D73D2
:1044A0000A005B73765D20207374617475732072EB
:1044B00065706F727420766572626F7369747925A6
:1044C0003664205B303D6F66662C313D66696C74E6
:1044D000657265642C323D766572626F73655D0A44
:1044E0000071723A25640A0071693A25640A007104
:1044F0006F3A25640A005B71765D202071756575E1
:1045000065207265706F727420766572626F736970
:104510007479253764205B303D6F66662C313D73BE
:10452000696E676C652C323D747269706C655D0AEA
:10453000005B6D745D20206D6F746F722069646C18
:10454000652074696D656F75742531342E3266206F
:104550005365630A005B257325735D206D25732009
:104560006D617020746F2061786973253135642026
:104570005B303D582C313D592C323D5A2E2E2E5D4C
:104580000A005B257325735D206D257320737465A8
:104590007020616E676C652532302E336625730A94
:1045A00000B146B546B9465B257325735D206D2580
:1045B000732074726176656C207065722072657606
:1045C0006F6C7574696F6E25392E336625730A001A
:1045D0005B257325735D206D2573206D6963726F94
:1045E000737465707325313664205B312C322C3442
:1045F0002C385D0A005B257325735D206D257320C3
:10460000706F6C617269747925313864205B303D5C
:104610006E6F726D616C2C313D726576657273657B
:104620005D0A005B257325735D206D257320706F17
:10463000776572206D616E6167656D656E74253199
:104640003064205B303D72656D61696E20706F77FC
:10465000657265642C313D706F77657220646F7789
:104660006E207768656E2069646C655D0A005B2565
:104670007325735D206D2573206D6F746F722070CC
:104680006F776572206C6576656C2531332E3366E5
:10469000205B302E3030303D6D696E696D756D2C4C
:1046A00020312E3030303D6D6178696D756D5D0A59
:1046B0000020696E00206D6D0020646567005B73EB
:1046C000745D202073776974636820747970652540
:1046D000313864205B303D4E4F2C313D4E435D0AF6
:1046E000004E3420473231204739302047363420BD
:1046F0004734300A4E35204730205A332E300A2FA7
:104700004E362028205430203A20322E3020290ADC
:104710002F4E37205430204D360A2F4E3820282077
:1047200048616E646C657320706F636B65742062A2
:10473000616420290A4E39393939204731583059B6
:1047400030004E312054314D360A4E322047313739
:104750000A4E33204732310A4E3820463138303045
:104760000A4E392047310A4E313030204739322045
:10477000582D32352E313737592D33342E303732CC
:10478000205A2D312E303030202854454D502C20C9
:1047900052454D4F5645204C41544552290A4E33FF
:1047A000343320582D32352E353935592D33342EAA
:1047B0003334390A4E33343420582D32352E3730C5
:1047C00031592D33342E3433360A4E333435205894
:1047D0002D32352E373931592D33342E3532300ABA
:1047E0004E33343620582D32352E383634592D3349
:1047F000342E3630310A4E33343720582D32352E90
:10480000393230592D33342E3637390A4E33343855
:1048100020582D32352E393630592D33342E373538
:10482000340A4E33343920582D32352E3938325926
:104830002D33342E3832360A4E33353020582D324F
:10484000352E393837592D33342E3839350A4E3311
:10485000353120582D32352E393736592D33342EF7
:104860003936310A4E33353220582D32352E39340F
:1048700038592D33352E3032330A4E3335332058E4
:104880002D32352E393033592D33352E3038320A0A
:104890004E33353420582D32352E383431592D339E
:1048A000352E3133380A4E33353520582D32352EDA
:1048B000373633592D33352E3139300A4E333536AC
:1048C00020582D32352E363639592D33352E323388
:1048D000390A4E33353720582D32352E3535395972
:1048E0002D33352E3238340A4E33353820582D3298
:1048F000352E343333592D33352E3332350A4E337A
:10490000353920582D32352E323931592D33352E47
:104910003336330A4E33363020582D32352E31336C
:1049200034592D33352E3339370A4E33363120582A
:104930002D32342E393633592D33352E3432380A50
:104940004E33363220582D32342E373737592D33E7
:10495000352E3435350A4E33363320582D32342E29
:10496000353737592D33352E3437370A4E333634F1
:1049700020582D32342E333637592D33352E3439D5
:10498000360A4E33363520582D32342E31343459D0
:104990002D33352E3531310A4E33363620582D32EF
:1049A000332E393039592D33352E3532320A4E33C4
:1049B000363720582D32332E363631592D33352E99
:1049C0003532390A4E33363820582D32332E3430B2
:1049D00033592D33352E3533320A4E33363920587C
:1049E0002D32332E313333592D33352E3533320AB0
:1049F0004E33373020582D32322E383533592D333F
:104A0000352E3532370A2F4E32353138204730585F
:104A1000302E333237592D33332E3532315A2D3132
:104A20002E3030300A4E32353139204D3330004E81
:104A300031204732300A4E35204734302047313755
:104A40000A4E3130205431204D30360A284E31354F
:104A500020473930204730205830205930205A30F4
:104A6000290A4E3230205335303030204D3033203B
:104A70000A4E32352058302E3036342059302E33FD
:104A80003236205A300A4E343020473031204631F9
:104A9000362E300A4E35302058302E3036342059DC
:104AA000302E3332360A4E35352058302E303630DF
:104AB0002059302E3239330A4E36302058302E30BD
:104AC00037372059302E3236370A4E363520583097
:104AD0002E3131312059302E3235370A4E373020C1
:104AE00058302E3134392059302E3235320A4E3773
:104AF000352058302E3138382059302E3235350A8D
:104B00004E38302058302E3232372059302E32363F
:104B1000380A4E38352058302E3235372059302E4D
:104B20003237310A4E39302058302E333335205940
:104B3000302E3236350A4E39352058302E34313247
:104B40002059302E3237310A4E3130302058302E35
:104B50003437342059302E3238370A4E3130352030
:104B600058302E3439312059302E3238390A4E31EE
:104B700031302058302E3531372059302E323733EE
:104B80000A4E3131352058302E3534342059302EEC
:104B90003236330A4E3132302058302E35383020FC
:104BA00059302E3236310A4E3132352058302E35BA
:104BB00039352059302E3236330A4E3133302058B1
:104BC000302E3632312059302E3237340A4E3133BE
:104BD000352058302E3635392059302E3330360AAC
:104BE0004E3134302058302E3637332059302E3362
:104BF00033350A4E3134352058302E363739205966
:104C0000302E3336310A4E3135302058302E36377B
:104C1000382059302E3338390A4E31353520583046
:104C20002E3637302059302E3432300A4E3136305D
:104C30002058302E3637302059302E3434360A4E34
:104C40003136352058302E3638302059302E343712
:104C5000340A4E3137302058302E37303420593016
:104C60002E3439370A4E3137352058302E3733320B
:104C70002059302E3531350A4E3138302058302EFB
:104C80003739342059302E3533350A4E31383520F6
:104C900058302E3837322059302E3536370A4E31BB
:104CA00039302058302E3935302059302E363034B6
:104CB0000A4E3139352058312E3033312059302EBB
:104CC0003634370A4E3230302058312E31343920C4
:104CD00059302E3732320A4E3230352058312E3389
:104CE00030382059302E3835340A4E323130205881
:104CF000312E3433302059302E3938340A4E323187
:104D0000352058312E3434372059302E3938360A70
:104D10004E3232302058312E3632382059302E382B
:104D200032320A4E3232352058312E373332205942
:104D3000302E3731340A4E3233302058322E303054
:104D4000392059302E3338310A4E3233352058321B
:104D50002E3131362059302E3236360A4E3234302A
:104D60002058322E3232382059302E3135370A4E03
:104D70003234352058322E3238302059302E3132EC
:104D8000330A4E3235302058322E333332205930E8
:104D90002E3039340A4E3235352058322E343233E3
:104DA0002059302E3037300A4E3236302058322ECD
:104DB0003438392059302E3036350A4E32363520C7
:104DC00058322E3535372059302E3036360A4E328D
:104DD00037302058322E3632372059302E30383482
:104DE0000A4E3237352058322E3639332059302E7C
:104DF0003130390A4E3238302058322E3733302095
:104E000059302E3133330A4E3238352058322E384D
:104E100030352059302E3139300A4E323930205851
:104E2000322E3832392059302E3231360A4E32394C
:104E3000352058322E3838302059302E3239310A48
:104E40004E3330302058322E3838342059302E33FB
:104E500030300A4E3330352058322E383938205908
:104E6000302E3333320A4E3331302058322E39301F
:104E7000352059302E3336370A4E333135205832EB
:104E80002E3931302059302E3430370A4E333230FB
:104E90002058322E3930382059302E3434360A4ECC
:104EA0003332352058322E3930312059302E3439B2
:104EB000350A4E3333302058322E383937205930A6
:104EC0002E3439350A4E3333352058322E383930A6
:104ED0002059302E3532340A4E3334302058322E99
:104EE0003834322059302E3630340A4E333435209F
:104EF00058322E3831342059302E3636350A4E335A
:104F000035302058322E3739342059302E3735304D
:104F10000A4E3335352058322E3739312059302E4C
:104F20003833380A4E3336302058322E3831392053
:104F300059302E3937360A4E3336352058322E380E
:104F400033372059312E3034340A4E33373020581D
:104F5000322E3836322059312E3131320A4E333723
:104F6000352058322E3837372059312E3134350A12
:104F70004E3338302058322E3931322059312E32CA
:104F800031370A4E3338352058322E3931372059CF
:104F9000312E3232360A4E3339302058322E3935DE
:104FA000312059312E3238310A4E333935205832BA
:104FB0002E3937302059312E3239350A4E343030BF
:104FC0002058322E3939362059312E3239350A4E91
:104FD0003430352058332E3031332059312E32378A
:104FE000350A4E3431302058332E30323420593186
:104FF0002E3235340A4E3431352058332E30373086
:105000002059312E3135310A4E3432302058332E6A
:105010003037372059312E3133340A4E343235206F
:1050200058332E3132352059312E3033390A4E342F
:1050300033302058332E3133382059312E30313926
:105040000A4E3433352058332E3230352059302E25
:105050003930380A4E3434302058332E323832202A
:1050600059302E3739370A4E3434352058332E33E1
:1050700036312059302E3639310A4E3435302058E9
:10508000332E3432362059302E3539320A4E3435EB
:10509000352058332E3435362059302E3534330AE6
:1050A0004E3436302058332E3437392059302E3490
:1050B00039330A4E3436352058332E34393420599A
:1050C000302E3437320A4E3437302058332E3530B4
:1050D000352059302E3434360A4E34373520583383
:1050E0002E3531382059302E3431370A4E3438308D
:1050F0002058332E3533302059302E3339310A4E73
:105100003438352058332E3536342059302E33304C
:10511000300A4E3439302058332E35373720593045
:105120002E3235330A4E3439352058332E35363841
:105130002059302E3231320A4E3530302058332E3D
:105140003534342059302E3137360A4E353035203B
:1051500058332E3534312059302E3134360A4E35FD
:1051600031302058332E3535332059302E313139F6
:105170000A4E3531352058332E3537362059302EEA
:105180003130360A4E3532302058332E35393720FB
:1051900059302E3130320A4E3532352058332E36C2
:1051A00031382059302E3130390A4E3533302058BD
:1051B000332E3633392059302E3132390A4E3533B9
:1051C000352058332E3635302059302E3135390AB6
:1051D0004E3534302058332E3636332059302E3168
:1051E00037380A4E3534352058332E363738205963
:1051F000302E3139320A4E3535302058332E36397B
:10520000392059302E3139370A4E3535352058334B
:105210002E3732332059302E3139360A4E3536305A
:105220002058332E3736342059302E3137390A4E34
:105230003536352058332E3830352059302E31361A
:10524000350A4E3537302058332E3838342059300F
:105250002E3135390A4E3537352058332E39343909
:105260002059302E3136350A4E3538302058332EFD
:105270003936362059302E3137350A4E35383520FB
:1052800058332E3937382059302E3139340A4E35BB
:1052900039302058332E3937382059302E323233B6
:1052A0000A4E3539352058332E3936302059302EB4
:1052B0003234350A4E3630302058332E38333420CD
:1052C00059302E3331310A4E3630352058332E378F
:1052D00036322059302E3334350A4E36313020588C
:1052E000332E3732362059302E3338390A4E363184
:1052F000352058332E3730332059302E3435380A84
:105300004E3632302058332E3638322059302E3532
:1053100033300A4E3632352058332E36373920593D
:10532000302E3533340A4E3633302058332E363251
:10533000362059302E3638310A4E36333520583320
:105340002E3536382059302E3832380A4E36343021
:105350002058332E3434342059312E3038300A4E10
:105360003634352058332E3430352059312E3136ED
:10537000370A4E3635302058332E343034205931E8
:105380002E3136370A4E3635352058332E333837DE
:105390002059312E3230380A4E3636302058332ECE
:1053A0003338342059312E3230380A4E36363520D3
:1053B00058332E3336352059312E3236350A4E3693
:1053C00037302058332E3335352059312E32383589
:1053D0000A4E3637352058332E3334382059312E83
:1053E0003330380A4E3638302058332E333333209A
:1053F00059312E3335300A4E3638352058332E3356
:1054000032312059312E3339310A4E363930205855
:10541000332E3331312059312E3432380A4E363959
:10542000352058332E3333392059312E3432330A54
:105430004E3730302058332E3434302059312E340A
:1054400030360A4E3730352058332E35313020591A
:10545000312E3430380A4E3731302058332E35381B
:10546000352059312E3432310A4E373135205833F8
:105470002E3631312059312E3433390A4E373230FD
:105480002058332E3631312059312E3434310A4EE2
:105490003732352058332E3631352059312E3434B9
:1054A000310A4E3733302058332E363336205931B7
:1054B0002E3438380A4E3733352058332E363334AD
:1054C0002059312E3531370A4E3734302058332E9B
:1054D0003632322059312E3534330A4E37343520A6
:1054E00058332E3630352059312E3536330A4E3763
:1054F00035302058332E3537362059312E35373553
:105500000A4E3735352058332E3534342059312E54
:105510003538310A4E3736302058332E343739205B
:1055200059312E3539320A4E3736352058332E341C
:1055300035312059312E3539380A4E373730205819
:10554000332E3338372059312E3632360A4E37371C
:10555000352058332E3339302059312E3633360A20
:105560004E3738302058332E3533322059312E36CD
:1055700030320A4E3738352058332E3630312059E4
:10558000312E3539370A4E3739302058332E3636DA
:10559000382059312E3539380A4E373935205833AD
:1055A0002E3738322059312E3631320A4E383030CB
:1055B0002058332E3739342059312E3631380A4E9F
:1055C0003830352058332E3836382059312E36337E
:1055D000360A4E3831302058332E3931382059317F
:1055E0002E3635350A4E3831352058332E3934357C
:1055F0002059312E3636370A4E3832302058332E65
:105600003936342059312E3638350A4E3832352065
:1056100058332E3936372059312E3638350A4E3820
:1056200033302058332E3937342059312E3639391A
:105630000A4E3833352058332E3938342059312E1C
:105640003732350A4E3834302058332E393834202A
:1056500059312E3735380A4E3834352058332E39E3
:1056600037302059312E3739300A4E3835302058EE
:10567000332E3934352059312E3831370A4E3835EA
:10568000352058332E3931382059312E3832360AE8
:105690004E3836302058332E3839312059312E3893
:1056A00032370A4E3836352058332E3834322059A6
:1056B000312E3830390A4E3837302058332E3739AA
:1056C000382059312E3738340A4E38373520583380
:1056D0002E3734362059312E3737320A4E3838308B
:1056E0002058332E3639382059312E3736340A4E69
:1056F0003838352058332E3633352059312E373649
:10570000360A4E3839302058332E3535332059314A
:105710002E3738350A4E3839352058332E3437383D
:105720002059312E3832300A4E3930302058332E3D
:105730003430392059312E3836340A4E393035203C
:1057400058332E3334352059312E3931380A4E39F9
:1057500031302058332E3236342059322E30323305
:105760000A4E3931352058332E3234382059322EF2
:105770003035310A4E3932302058332E3234302011
:1057800059322E3038310A4E3932352058332E33C3
:1057900031362059322E3038360A4E3933302058BF
:1057A000332E3339302059322E3130340A4E3933CA
:1057B000352058332E3431342059322E3132310ACB
:1057C0004E3934302058332E3433312059322E3173
:1057D00035330A4E3934352058332E34333320597B
:1057E000322E3138300A4E3935302058332E34328B
:1057F000372059322E3230350A4E3935352058335C
:105800002E3431332059322E3232340A4E3936306A
:105810002058332E3339322059322E3234320A4E48
:105820003936352058332E3333352059322E323421
:10583000340A4E3937302058332E32373820593217
:105840002E3233360A4E3937352058332E3235361C
:105850002059322E3234320A4E3938302058332E05
:105860003233392059322E3235310A4E393835200B
:1058700058332E3231312059322E3238300A4E39D7
:1058800039302058332E3137342059322E333536C3
:105890000A4E3939352058332E3135392059322EB8
:1058A0003339370A4E313030302058332E313530CD
:1058B0002059322E3433380A4E31303035205833A7
:1058C0002E3134302059322E3438310A4E313031B5
:1058D000302058332E3133322059322E3531300AB0
:1058E0004E313031352058332E3131382059322E57
:1058F0003534330A4E313032302058332E30393976
:105900002059322E3537360A4E3130323520583351
:105910002E3035312059322E3633310A4E31303364
:10592000302058332E3030332059322E3636360A56
:105930004E313033352058322E3935372059322EFA
:105940003638350A4E313034302058322E3930371F
:105950002059322E3639390A4E31303435205832FA
:105960002E3836302059322E3731310A4E3130350B
:10597000302058322E3831392059322E3732370AFA
:105980004E313035352058322E3736382059322EA8
:105990003734350A4E313036302058322E373136D2
:1059A0002059322E3735370A4E31303635205832AD
:1059B0002E3637352059322E3735370A4E313037AB
:1059C000302058322E3537392059322E3733310AAC
:1059D0004E313037352058322E3537302059322E5F
:1059E0003732330A4E313038302058322E3535397F
:1059F0002059322E3732300A4E3130383520583265
:105A00002E3533302059322E3730310A4E3130396D
:105A1000302058322E3530312059322E3639330A63
:105A20004E313039352058322E3437312059322E0C
:105A30003638330A4E313130302058322E34343338
:105A40002059322E3636380A4E3131303520583210
:105A50002E3339362059322E3633340A4E31313115
:105A6000302058322E3335342059322E3539310A10
:105A70004E313131352058322E3335322059322EC5
:105A80003539310A4E313132302058322E333235E9
:105A90002059322E3534330A4E31313235205832C6
:105AA0002E3331352059322E3532310A4E313133D1
:105AB000302058322E3330372059322E3439380ABC
:105AC0004E313133352058322E3239362059322E6C
:105AD0003436340A4E313134302058322E32393394
